:020000040800F2
:1000000000500020E10A01088D0801088F0801084E
:1000100000000000000000000000000000000000E0
:10002000000000000000000000000000910801082E
:100030000000000000000000930801089508010876
:10004000F1090108310B01089D080108310B010875
:10005000310B01088109010883090108850901089C
:10006000310B0108310B0108310B0108310B01087C
:10007000310B010839090108310B0108310B010866
:10008000310B0108310B0108310B010800000000A1
:10009000310B0108310B0108310B0108310B01084C
:1000A000310B0108310B0108310B0108C1090108AE
:1000B000D1090108E1090108310B0108310B0108E0
:1000C00010B5064C2378002B07D1054B002B02D02E
:1000D000044800E000BF0123237010BD9000002001
:1000E000000000006C590108044B10B5002B03D030
:1000F0000349044800E000BF10BDC04600000000F6
:10010000940000206C59010802780B78002A03D073
:10011000013001319A42F7D0D01A70470023C25CF7
:100120000133002AFBD1581E7047000002B471460B
:1001300049084900095649008E4402BC7047C04630
:1001400002B4714649084900095C49008E4402BC6A
:100150007047C04603B47146490840004900095E33
:1001600049008E4403BC704703B4714649084000FF
:100170004900095A49008E4403BC704700224308D5
:100180008B4274D303098B425FD3030A8B4244D35F
:10019000030B8B4228D3030C8B420DD3FF220902A1
:1001A00012BA030C8B4202D31212090265D0030B60
:1001B0008B4219D300E0090AC30B8B4201D3CB0356
:1001C000C01A5241830B8B4201D38B03C01A524198
:1001D000430B8B4201D34B03C01A5241030B8B429A
:1001E00001D30B03C01A5241C30A8B4201D3CB0285
:1001F000C01A5241830A8B4201D38B02C01A52416A
:10020000430A8B4201D34B02C01A5241030A8B426C
:1002100001D30B02C01A5241CDD2C3098B4201D384
:10022000CB01C01A524183098B4201D38B01C01A02
:10023000524143098B4201D34B01C01A5241030979
:100240008B4201D30B01C01A5241C3088B4201D328
:10025000CB00C01A524183088B4201D38B00C01AD5
:10026000524143088B4201D34B00C01A5241411AFC
:1002700000D20146524110467047FFE701B5002009
:1002800000F0F0F802BDC0460029F7D076E77047CD
:1002900003460B437FD4002243088B4274D30309E7
:1002A0008B425FD3030A8B4244D3030B8B4228D388
:1002B000030C8B420DD3FF22090212BA030C8B42AE
:1002C00002D31212090265D0030B8B4219D300E04E
:1002D000090AC30B8B4201D3CB03C01A5241830BD3
:1002E0008B4201D38B03C01A5241430B8B4201D383
:1002F0004B03C01A5241030B8B4201D30B03C01AAC
:100300005241C30A8B4201D3CB02C01A5241830A25
:100310008B4201D38B02C01A5241430A8B4201D354
:100320004B02C01A5241030A8B4201D30B02C01A7E
:100330005241CDD2C3098B4201D3CB01C01A5241E5
:1003400083098B4201D38B01C01A524143098B426E
:1003500001D34B01C01A524103098B4201D30B0157
:10036000C01A5241C3088B4201D3CB00C01A52417C
:1003700083088B4201D38B00C01A524143088B4241
:1003800001D34B00C01A5241411A00D201465241DA
:10039000104670475DE0CA0F00D04942031000D3F9
:1003A0004042534000229C4603098B422DD3030A4E
:1003B0008B4212D3FC22890112BA030A8B420CD35E
:1003C000890192118B4208D3890192118B4204D387
:1003D00089013AD0921100E08909C3098B4201D307
:1003E000CB01C01A524183098B4201D38B01C01A41
:1003F000524143098B4201D34B01C01A52410309B8
:100400008B4201D30B01C01A5241C3088B4201D366
:10041000CB00C01A524183088B4201D38B00C01A13
:100420005241D9D243088B4201D34B00C01A5241EA
:10043000411A00D20146634652415B10104601D377
:100440004042002B00D54942704763465B1000D301
:10045000404201B5002000F005F802BD0029F8D0A7
:1004600016E770477047C046002B11D1002A0FD104
:10047000002900D1002802D00021C943080007B498
:10048000024802A14018029003BDC046D9FFFFFFF9
:1004900003B4684601B5029800F034F8019B9E460B
:1004A00002B00CBC7047C046F0B5CE469946030C6E
:1004B0009C46130447461B0C1D000E0061460404B5
:1004C000240C80B50700100C4B4365434143604347
:1004D0002C0CC01824188C46A34203D980235B023D
:1004E0009846C444494679435643230C2D042D0CA9
:1004F0008919634424046019C918C0BCB946B046C0
:10050000F0BDC046F0B557464E464546DE46E0B51E
:1005100004000D009246994683B08B4230D82DD00E
:100520004946504600F038FE29000600200000F041
:1005300033FE331A9846203B34D49B4653465A46E2
:10054000934042461F00534693401E00AF423BD8A3
:10055000AF4200D179E05B46A41BBD41002B00DA1D
:1005600076E0002200230092019301235A46934033
:100570000193012342469340009329E08242CFD960
:1005800000220023009201930C9B002B01D01C60E1
:100590005D600098019903B0F0BCBB46B246A94625
:1005A000A046F0BD42469B4620239B1A5246DA40A5
:1005B000414613004A468A40170042461F435346AD
:1005C00093401E00AF42C3D9002200230092019342
:1005D0004346002BD8D0FB0772081A4346467B08D7
:1005E0000EE0AB4201D1A2420CD8A41A9D410120D9
:1005F00024196D410021013E24184D41002E06D0E2
:10060000AB42EED9013E24196D41002EF8D100987D
:1006100001995B4600196941002B24DB2B005A46E7
:100620004646D3402A001C00F2405B461500002BD2
:100630002ADB26009E40330026004746BE4032009B
:10064000801A9941009001919EE7A342BCD882E7AD
:100650004246202300219B1A002200910192012290
:10066000DA40019285E7424620239B1A2A0046463B
:100670009A402300F340464613432A001C00F240F0
:100680005B461500002BD4DA202342462F009B1B2B
:1006900097402600DE403B003343CDE7F0B54646A9
:1006A0004F46D6464502C0B5C30F470098460E1CBC
:1006B0006D0A3F0E5BD0FF2F21D08023ED00DB04BD
:1006C0001D43002399469A467F3F74027300640AD3
:1006D0001B0EF60F002B20D0FF2B43D080220020D2
:1006E000E400D20414437F3B4246FF1A4B4672405B
:1006F0000F2B00D99DE071499B00CB589F46002DE0
:100700005AD108239946063B74029A467300FF2784
:10071000640A1B0EF60F002BDED1002C3BD1012307
:1007200042464946724019430E2918D86448890048
:1007300041588F465346022B00D1B8E0032B6ED0B0
:1007400042462C00012B40D100200024C00520434C
:10075000D2071043E0BCBA46B146A846F0BDFF2020
:100760000024F3E7002C20D10223FF3FD8E7002D1F
:1007700005D104239946033B00279A46A5E72800A4
:1007800000F0ECFC7627431F9D4000237F429946F2
:100790009A463F1A99E7200000F0E0FC431F9C4076
:1007A00076235B421B1A00209EE703234A461A4326
:1007B00091460320FC3397E70C239946093BFF271A
:1007C0009A4682E703282CD0320038007F30002878
:1007D00047DD630704D00F232340042B00D00434EB
:1007E000230103D53800374B80301C40FE28B6DC8F
:1007F000A401640AC0B2A9E780240022FF20E40318
:10080000A4E78023DB031D4201D01C420BD08024CF
:10081000E4032C4364024246FF20640A96E74646FE
:100820002C008023DB031C4364023200FF20640A97
:100830008CE76D01600185422DD21B230024013F0E
:100840000126290064006D00002901DB854201D3E7
:100850002D1A3443013B002BF3D16B1E9D412C43D9
:10086000B3E701231B1A1B2B00DD6DE721009E3728
:10087000D940BC400B00611E8C412343590704D072
:100880000F211940042900D00433590113D49B01CE
:1008900000205C0A5AE71A2301242D1AD0E7981E7B
:1008A00043425841404232000024C0B24EE7424623
:1008B000FF2000244AE70120002447E7905901085F
:1008C000D0590108FFFFFFF7F0B54F464646D64620
:1008D0004502C0B546000F1C6D0A360EC40F002E2F
:1008E00000D1CDE0FF2E72D08023ED00DB041D434C
:1008F000002399469A467F3E7B025B0A98467B001E
:100900001B0EFF0F002B72D0FF2B00D1A9E07F3B05
:10091000F6184B460A2B00DD85E043468022DB00BB
:10092000D2041A434B4690467C400022022B0FDD36
:10093000494601238B40A621C9000B4200D072E03A
:10094000902189000B4200D0DAE08821194267D15A
:10095000280C42462D042D0C4346290012041B0C82
:10096000120C51435D4342435843AD180B0C5B19C5
:100970009A4203D9802252029446604409041A0420
:10098000090C52189501691E8D411B0C920E1B1803
:1009900015439B011D431B0100D5CFE030007F3084
:1009A000002800DCB1E06B070BD00F2332002B4096
:1009B000042B06D004352B0103D5803210006A4B7E
:1009C0001D40FE2864DCAB015B0AC0B21FE0002DB5
:1009D00000D08FE008239946063B9A467B025B0ACB
:1009E00098467B00FF261B0EFF0F002B8CD1434641
:1009F000002B5CD14A4601331A43914613000A2A60
:100A000011DC01227C40022B92DC00200023C00577
:100A10001843E4072043E0BCBA46B146A846F0BDFF
:100A20003C00454692465346022B31D0032B11D051
:100A3000012BEAD030008030721C002866DD6B0785
:100A4000B9D00F232B40042BB4D1B4E70F2A7AD0AE
:100A50003C0045468023DB032B435B02FF205B0AFF
:100A6000D5E74346FF36002B34D14A4602331343C1
:100A70000A2BD8DC7C40002A0AD09946022257E78C
:100A8000002D08D104239946033B00269A4633E7FC
:100A9000FF200023BBE7280000F060FB7626431F01
:100AA0009D400023764299469A46361A24E74046EE
:100AB00000F054FB4B46361A763E0A2BB3DC434615
:100AC0000538834098464B4600227C40022B00DDCF
:100AD0002EE73DE703234A461A4313000A2AB5DCF2
:100AE00001229A40882113007C400322194200D140
:100AF0002EE795E70C239946093BFF269A46FBE62D
:100B000080230024FF20DB0381E7320001231B1A2E
:100B10001B2B00DD79E79E3229009540D9406A1EE3
:100B200095410D436B0704D00F232B40042B00D0BD
:100B300004356B0113D50120002368E701236A08FF
:100B40001D40154376E78023DB031D4282D04246D9
:100B50001A4200D07EE73C00FF20134357E7AB0169
:100B600000205B0A53E7C046FFFFFFF7F8B5474692
:100B7000CE464B02460080B5C40F4702580A844651
:100B800048007A0A360EBF09000ECD0F9B09FF28D8
:100B90006DD001214D40311AAC423AD0002900DC21
:100BA0009CE1002800D19EE0FF2E00D188E0802249
:100BB000D20413431B2900DCF6E0013F7A0100D484
:100BC00079E001277F42BF01BB099846404600F00B
:100BD000C5FA434605388340864200DCCCE0B44F7A
:100BE000311A1F405A0768D00F221340042B64D0DB
:100BF00004377B0161D5481CFE2900D081E0FF202D
:100C00000023C0051843E4072043C0BCB946B046E2
:100C1000F8BD002900DC79E1002876D1002B4CD00A
:100C2000481E012900D147E1FF2949D01B2871DC6A
:100C300001001A002020CA40411A8B40591E8B41E6
:100C40001343FF188023DB041F4200D1B8E0711C5E
:100C5000FE2ED4D0012297483A407F080740174320
:100C60007A0700D096E01F42C5D1FA0855E031005E
:100C7000FF398946002B2CD101214D40AC4200D1D7
:100C8000B4E0494600294CD0002E00D0F9E0FF2105
:100C9000002F00D108E14A1E012900D156E1FF29A9
:100CA00000D142E11B2A00DC24E15F1E2C0006007B
:100CB0007A0100D585E731000437FA08FF292CD1E5
:100CC000002A9CD08023DB0313435B02FF205B0AD6
:100CD00097E7AC4200D1A7E0002922D0002ED6D061
:100CE00062462C00EEE7002BE7D0481E012936D0E3
:100CF000FF29E5D001005DE701203B007A0100D427
:100D000057E1C0B2BB015B0A7BE7FF2ED8D01B299D
:100D100000DC9FE031000537FA0853025B0AC8B2D5
:100D20006FE7FE20711C084254D1002E00D0B1E0C4
:100D3000002F00D102E1002B00D1F9E08021FA1A46
:100D4000C9040A4200D13BE10124DF1B2C40002FE3
:100D500049D001200F42D5D10021FA08DDE7FF1A62
:100D60007B0100D4DEE0BD01AD09280000F0F6F9FA
:100D70002B000538834001262022811B0131521AA5
:100D80001F009340CF405A1E93411F432BD0002198
:100D90007B07B1D00F233B40042B00D028E77B0119
:100DA00000D528E7FA08B8E71A002020CA40411AFF
:100DB0008B40591E8B411343FF1A7B0100D502E77C
:100DC0007B0700D10DE10F2331003B40042B00D005
:100DD0000EE772E7FA1A9046520156D44346002BAA
:100DE00000D0F3E60024002000230AE7494600294A
:100DF0001CD0002E00D002E7FF21002F55D04A1E44
:100E0000012959D0FF2900D190E01B2A00DD91E093
:100E100011003A002025CA40691A8F40791E8F417F
:100E200017430600FF180DE7002926D1FE20711C8C
:100E3000084213D1002E00D096E0002F00D1B4E07C
:100E4000002B75D0FB185A0100D4B2E09B015B0A5D
:100E5000FD38D6E68022D2041343EAE6FF2900D10A
:100E6000CDE6FA185208530705D00F23171D13407B
:100E7000042B00D021E7D2084FE7002EBCD06246F9
:100E800020E72C00FF200023BBE60124DB1B984653
:100E90002C409BE6002F75D1002B00D096E08023DC
:100EA0000024FF20DB03ACE62C001F0005E7C04652
:100EB000FFFFFFFBFFFFFF7DFB185A0100D48DE011
:100EC0004A4A5B081A40590700D18CE00F210B40B9
:100ED0000D39042BCFD00221171DEEE6002900D1D9
:100EE0001FE7821B1100002E00D1D1E68021C9042A
:100EF0000F43D7E639002024D140A21A97407A1E2A
:100F000097410F432C000600DF1B56E700298DD0C8
:100F1000811B002E00D170E71B290BDC8022D2043C
:100F2000174376E70121FA08F7E62C006246C7E688
:100F30000021F2E605330100DA08EEE6002B00D1CD
:100F400050E70124002162462C40E6E6DA1B5301FB
:100F500032D592019409200000F000F923000538F1
:100F600083402C00012607E7002FDFD0002B17D08D
:100F70008023DB039A4200D2A4E69C4500D3A1E67D
:100F800062469FE6002B0BD08023DB039A4200D2FF
:100F900098E69C4500D395E6012462462C4091E6F4
:100FA0008023DB03FF2013432BE60020002B00D11E
:100FB00027E60021DA08B0E62C000121D208ACE6D1
:100FC000002A00D10EE70021D208A6E6802362465F
:100FD0000124DB03FF2013432C4012E60121DA0831
:100FE0009BE6310069E60221D20896E6FFFFFF7D0D
:100FF00041024200C30F490A0020120E7E2A03DD7F
:101000009D2A02DD094A9818704780200004014398
:10101000952A07DC9620821AD1404842002BF3D152
:101020000800F1E7963A9140F7E7C046FFFFFF7FDF
:1010300070B5002812D0C317C5185D40C40F280032
:1010400000F08CF89E231B1A962B0FDC082838D052
:10105000083885406D026D0AD8B202E000240020F5
:101060000025C0052843E407204370BD992B14DCFC
:10107000421F95402A001549114055071CD00F25E5
:101080002A40042A18D00431CA08490115D59F23E3
:101090005202181A550AC0B2E3E7020029001B32B7
:1010A00091404A1E91410522121AD5402A000A4356
:1010B000064911405507E2D1CA085202550AD8B272
:1010C000CFE76D026D0A8E30CBE7C046FFFFFFFB16
:1010D00010B5041E0DD000F041F89E231B1A962B6C
:1010E0000CDC082834D0083884406402640AD8B282
:1010F00001E000200024C005204310BD992B13DC23
:10110000421F9440144A224061071CD00F21214005
:10111000042918D00432D408520115D59F23640243
:10112000181A640AC0B2E6E7020021001B3291409F
:101130000A00511E8A410521091ACC401443064A6F
:1011400022406107E2D1D4086402640AD8B2D2E72F
:101150006402640A8E30CEE7FFFFFFFB1C210123EF
:101160001B04984201D3000C10391B0A984201D38A
:10117000000A08391B09984201D30009043902A268
:10118000105C40187047C0460403020201010101CF
:10119000000000000000000010B5002903D1FFF797
:1011A000DDFF203002E00800FFF7D8FF10BDC04689
:1011B0001FB56B4649BA99816423E021009303AAC5
:1011C000623B10F031FE05B000BD000037B50022D3
:1011D000124C0090236869469A62802320005B01CC
:1011E00001930FF0A5FF002802D00D4D28003EBD51
:1011F00020000FF0E7FE0028F7D10A2120000FF0B1
:101200002DFF002807D120000FF08EFF85B22000AF
:101210000FF004FFEAE7024DF9E7C0468C0D00200D
:10122000FFFF000010B5010000780822C043312400
:10123000C0B243B24000C0B2002B02DA5B00634090
:10124000D8B2013AD2B2002AF3D14B780822312128
:10125000584043B24000C0B2002B02DA5B004B4062
:10126000D8B2013AD2B2002AF3D110BDF0B587B09E
:101270000190029103920493002B1CD08023002440
:10128000244DDB032A68032013432B600FF09CFCE2
:10129000082726002048FFF799FF05901F48FFF711
:1012A00095FF059B1E4A013B9BB2934206D92B68D2
:1012B0001C4A13402B60012007B0F0BD1A4B984226
:1012C000F5D0059B013FE4183618002FE2D1174BEB
:1012D00017481B88E40858432100FEF74FFFF60823
:1012E000070014497043FEF749FF049B4000186053
:1012F000039B002B00D01F60019B002B00D01C60C3
:10130000029B002B00D01E602B68064A0020134071
:101310002B60D1E7082701400000024402000004CE
:10132000FDFF0000FFFFBFFFFFFF00007800F81F78
:10133000B80B0000FF0F000030B50D0004008BB0AB
:10134000684605F007FC2A002100684605F027FDE5
:10135000684605F02DFD0BB030BD000010B5044906
:10136000FFF726FF040001200FF02EFC200010BD27
:101370001735000010B50249FFF71AFF10BDC0462F
:1013800098B0000010B50449FFF712FF04000120D7
:101390000FF01AFC200010BD5D800000F0B585B094
:1013A00005000F00FFF7DAFF041E19D128000F49CE
:1013B000FFF7FEFE041E13D1642303AE0093320038
:1013C000E0212800613B10F0D3FD041E08D130005D
:1013D000FFF728FFB378834205D133885BBA3B809F
:1013E000200005B0F0BD0124FAE7C046C8EF0000B8
:1013F000F0B587B005000F00FFF7B0FF041E46D11F
:1014000028002549FFF7D4FE041E40D10F200FF01D
:10141000DBFB642304AE00933200E02128005E3B36
:1014200010F0A6FD041E32D13000FFF7FBFEB378AA
:1014300083422FD10B2302AA9B181800FFF7F2FE5C
:101440007379834226D102ABDA7A1B7B30881B0288
:1014500013435BBA40BA9BB280B20393FFF738FEE6
:101460000E49FFF71BF90E49FFF72EFA0D49FFF75A
:101470007DFB38600398FFF72BFE0849FFF70EF954
:101480000949FFF721FA78602800FFF773FF200071
:1014900007B0F0BD0124FAE76678000000FF7F473F
:1014A00000002F43000034420000C84273B56B4671
:1014B0009E1D002305003380FFF750FF041E16D148
:1014C0002800FFF75FFF041E11D101200FF07CFB05
:1014D00031002800FFF762FF041E08D13388064957
:1014E000064A0B40934204D12800FFF743FF200037
:1014F00076BD0124FBE7C0463F0800000708000056
:10150000030C434004485843044B420B42405343AE
:10151000180C58407047C0466BCAEB8535AEB2C256
:1015200070B52D4C8EB020220021200013F024F93C
:1015300038220021684613F01FF90C21274E284A53
:10154000F36868460B40D35C01222377336D9B051B
:10155000DB0F6370234B1B681340A36011F040FC4A
:101560000FF070FA099B636011F07AF8E06011F0F7
:1015700011FC206111F014FC606111F021FC237F4B
:10158000A061012B07D005203D22174901F0DAFFA9
:1015900005200EB070BD33689B0506D43E2212496B
:1015A000062001F0CFFF0620F3E76378012B02D07D
:1015B00040220D49F4E7079B012B02D041220A4942
:1015C000EEE7A02209991202914202D04222064976
:1015D000E6E700202370DCE7B000002000100240A6
:1015E000E8CB0108002002400C5A010810B594B065
:1015F0003422002107A801AC13F0BEF80021142208
:10160000200013F0B9F8102306930F3B0D93A0238D
:1016100006A81B020F9311F065F8011E07D05B228C
:101620000A49062001F08EFF062014B010BD0F23DA
:101630006060A060E06020612000019311F0DCFA9E
:101640000028F2D062220149EBE7C0460C5A01089B
:10165000014B18787047C046B00000200048704722
:10166000B0000020121A8B411000191E03DA00236B
:10167000014A801859417047005C260510B50FF0EB
:101680009DFA024B1B68C01810BDC046AC0000207C
:10169000F0B500260F008BB0039304AB01900292CB
:1016A00000211122D81D13F067F8039B05AD2B70A4
:1016B000109B04AC6B70119B0198AB70029B267061
:1016C000A37067706421FEF7C9FE074BE170290023
:1016D0001D003200180011F0DDFD3200210028004D
:1016E00011F040FE0BB0F0BDE80D0020F0B5040095
:1016F00087B0002807D101209C221D4901F022FF5C
:10170000012007B0F0BD0822002101AD13F034F82C
:1017100014220021280013F02FF80022154F290071
:101720003800009211F04EFF6E46031E06D0124A9A
:101730001249042004F096FC1F20E2E702006946EB
:10174000380011F067FF002803D003000C4A0B4952
:10175000EFE7FA22F378D2009B18238073782A8867
:10176000A370B378E370AB78A280A371C9E7C046D9
:101770000C5A0108E80D0020245A0108179C0108A2
:101780003C5A010830B58FB024216A46002307ACCB
:10179000521820001370FFF7A9FF051E17D1A17979
:1017A0002388049161790E4A0391217909A8029155
:1017B000E1780191A1780091142112F037FF0949D5
:1017C000132807D00420084A04F04CFC1F352800D9
:1017D0000FB030BD054A09AB022004F043FCF6E728
:1017E000269C0108179C0108545A01086C5A0108EC
:1017F000F0B51C4F87B001AE00223100380011F067
:10180000E1FE00226946380011F004FF0023164A69
:1018100000213078FEF748FE002304000D00134A33
:1018200000217078FEF740FEFA2224184D41002373
:101830000021B0789200FEF737FE24184D41F96878
:1018400000290BD0FA20029B8000CB1A58430131AB
:10185000FEF794FC00230200A4185D41200029003B
:1018600007B0F0BDE80D002080EE360060EA000011
:10187000F0B5184B18481E68184B87B01C68184BF9
:1018800070401F68FFF73CFE134B0500E018FFF7A0
:1018900037FE144B0090F818FFF732FE01900098C5
:1018A0006840FFF72DFE019B43401800FFF728FE1C
:1018B000050003903018FFF723FE0490E01940194B
:1018C000FFF71EFE0322059003A907480FF060FDF5
:1018D00007B0F0BD5000F81FB979379E5400F81FCB
:1018E0006400F81F72F36E3C680D0020002330B5D1
:1018F00004001800E25CDD00AA4001331043DAB2B4
:101900009142F7D830BDF7B5441801940F24130065
:10191000A446057864462F093E002C4037369F2D9B
:1019200000D8073E25001E703735092C01D8303409
:101930002500019C01305D700233A042E9D10023F3
:1019400049008B54F7BD000010B50C4C2378012BD7
:1019500011D00F220A4803681A629969073A0A43AC
:101960009A610849012212F063FDFD220A23104208
:1019700002D1093B23700023180010BD2001002074
:10198000B00B0020AC01002010B5114C50220021FA
:10199000200012F0F1FE0F4B0F4A1B68934206D055
:1019A00003200E490E4A01F0CDFD032010BD002397
:1019B00001210C4A617013700B4A217013800B4A8D
:1019C00013800B4A13600B4A1370FFF7BDFFEDE75E
:1019D000D0000020B00B0020003801407C5A0108E4
:1019E000FC050000AC0100202A0100202801002095
:1019F000240100202001002010B5154B0A001C789E
:101A0000012C07D002201349134A01F09BFD022448
:101A1000200010BD002809D1002901D10024F7E7DA
:101A200020000C490D4A01F08DFDF1E70029F5D0A9
:101A30000B4C01006423200012F01CFB0028EDD0A9
:101A400009200449074A01F07DFD0924E0E7C0466A
:101A5000D00000207C5A01082E0600002F0600004E
:101A6000B00B00203606000010B5041E07D1C822B6
:101A700001200649D20001F065FD012010BDFEF7EE
:101A80004DFB81B22000FFF7B7FFF7E77C5A010852
:101A900010B5FFF7E9FF002802D10248FFF7E4FF85
:101AA00010BDC04602A0010810B5B6B004AC2000BD
:101AB00005F0A4FC031E09D0C0210C4A06A812F0B0
:101AC000B5FD06A8FFF7E4FF36B010BD4821237826
:101AD0000391A188064A0291A17806A80191617834
:101AE0000091C02112F0A2FDEBE7C046945A010814
:101AF000B15A0108F0B5C3B00AAF380005F07EFC5A
:101B0000051E0CD00300C021374A12A812F08EFD2A
:101B100012A8FFF7BDFF0500280043B0F0BDBB7859
:101B20000600002B43D13148F3E7637AC0210893C4
:101B3000237A2F4A0793E37912A80693A379059392
:101B40006379049323790393E3780293A378019351
:101B500023880093330012F069FD12A8FFF798FF65
:101B6000002802D09122234939E0A17D6289A3890E
:101B70000591617D1B040491217D13430391E17C58
:101B80001D4A0291A17C0191218AE0890904014347
:101B9000009112A8C02112F049FD12A8FFF778FFAA
:101BA000002802D09E22134919E00136F6B2BB7814
:101BB000B342B1D90CAC2100300005F07DFB002808
:101BC000B3D000903300C0210C4A12A812F02EFDB1
:101BD00012A8FFF75DFF0028E7D07F220549092002
:101BE00001F0B0FC092597E7E35A0108005B010802
:101BF0002F5B01087C5A0108705B0108115B01082A
:101C0000F0B50024B5B002900191019B9C4201D334
:101C100000202FE02300C0211B4A04A812F006FD7B
:101C200000250600029B1F19019B1B1B9BB20393FF
:101C3000039B9D4201D0102D0BD104A8FFF728FF74
:101C400000281DD00920BE22104901F07BFC09208C
:101C500010E0C02104A83B780D4A891B801912F0BE
:101C6000E5FC0137002807DA1E20BA22074901F0F7
:101C700069FC1E2035B0F0BD01353618ADB2D7E78E
:101C80001034A4B2C1E7C046C25B01087C5A010807
:101C9000A5810108F0B5CA4C0600A5440CAC200093
:101CA00005F0ACFBC74A031E1BD1A378C648002B26
:101CB0001CD010A804F04EFF022802D110A804F096
:101CC00079FF10A80EAD2AAC04F0AEFF2B008022E5
:101CD000210010A8012E0FD104F02EFF031E0ED0FC
:101CE000BA4AC0214AA812F0A1FC4AA8FFF7D0FEC8
:101CF000AB239B009D44F0BD04F018FFEEE769792B
:101D00002B8803912979B24A0291E9784AA8019176
:101D1000A9780091C02112F089FC4AA8FFF7B8FE0B
:101D2000002806D0AB49AC4A092001F00BFC092081
:101D3000DEE720002988FFF763FF002802D0A549CD
:101D4000A64AF1E72D883D2D0ED82B00A44AC021CC
:101D50007AA812F06BFC7AA8FFF79AFE002800D050
:101D6000CEE1FFF7A1FEC3E72378022219009143D9
:101D7000A12901D09B4AEAE7A178702902D00B0083
:101D8000994AE4E701910093C0212B00974A7AA871
:101D900012F04CFC7AA8FFF77BFE002804D0C62284
:101DA0008C4952000920A9E129002000FFF728FFF3
:101DB000002803D08E228749FF32F3E723788C492D
:101DC000A32B00D18B4901910093C02100238A4AA3
:101DD0007AA812F02BFC7AA8FFF75AFE002802D04E
:101DE00098227C49E8E76378C0210093834A012365
:101DF0007AA812F01BFC7AA8FFF74AFE002802D04E
:101E0000CF227449CDE7A378C02100937C4A0223F6
:101E10007AA812F00BFC7AA8FFF73AFE002802D04D
:101E2000A6226C49C8E7932006AB1AAEC018320050
:101E30000821FFF768FD0323C021724A00967AA8A3
:101E400012F0F4FB7AA8FFF723FE002802D0D72275
:101E50006049A6E79B2006ABC01832000821FFF7B7
:101E600052FD0B23C021684A00967AA812F0DEFBCF
:101E70007AA8FFF70DFE002802D0DB22554990E733
:101E8000E37CC0210093614A13237AA812F0CEFBB1
:101E90007AA8FFF7FDFD002802D0DF224D4980E738
:101EA000237DC02100935A4A14237AA812F0BEFB66
:101EB0007AA8FFF7EDFD002802D0C62245497BE74E
:101EC000A52006AB0221C018FFF710FD15230090D6
:101ED000C021504A7AA812F0A9FB7AA8FFF7D8FDD2
:101EE000002802D0CE223B4966E7A72006AB02219C
:101EF000C018FFF7FBFC17230090C021464A7AA8C0
:101F000012F094FB7AA8FFF7C3FD002802D0D62276
:101F1000304951E7A92006AB0221C018FFF7E6FCC3
:101F200019230090C0213D4A7AA812F07FFB7AA8BD
:101F3000FFF7AEFD002802D0DE2226493CE7AB20A9
:101F400006AB0221C018FFF7D1FC1B230090C02173
:101F5000334A7AA812F06AFB7AA8FFF799FD0028A5
:101F600002D0E6221B4927E7AD2006ABC01832009D
:101F70000521FFF7C8FC1D23C0212A4A00967AA834
:101F800012F054FB7AA8FFF783FD002802D0F72255
:101F9000104906E72BABDB7F06A9019393235B185F
:101FA000DB7FC0210093204A22237AA812F03EFB57
:101FB0007AA8FFF76DFD002838D0F8220549FBE626
:101FC00054FDFFFFF85B0108155C0108215C010866
:101FD000395C01087C5A01080E0300000F03000061
:101FE000765C01088D5C0108A65C0108BC5C0108F8
:101FF000CE5B0108C95B0108E75C01080B5D0108C5
:102000002C5D01085D5D0108785D0108935D0108A4
:10201000B35D0108CE5D0108EA5D01080B5E0108B1
:102020002C5E01084C5E0108675E010895233F2481
:1020300006AA9B18DB7F0A211C402000DB090293C3
:10204000FEF722F9C9B2019120000A21FEF796F8A5
:10205000D14FC0B2009024233A00C0217AA812F0D8
:10206000E5FA7AA8FFF714FD002802D0CB49CC4A44
:1020700098E6B52006ABC01832000421FFF743FCF8
:102080002523C021C74A00967AA812F0CFFA7AA871
:10209000FFF7FEFC002802D0C049C34A82E6B923FC
:1020A00006A95B181B78C0210093C04A29237AA88F
:1020B00012F0BCFA7AA8FFF7EBFC002802D0B7496F
:1020C000BB4A6FE6BA230F2406AA9B181B78B949AE
:1020D0001C401B09013BDBB20B2B02D8B64A9B000C
:1020E000995800912A23C021B44A01947AA812F089
:1020F0009DFA002807DA1E20A849B14A01F022FA09
:10210000A649B04A10E67AA8FFF7C2FC002802D020
:10211000A249AD4A46E6BB23012006AA9B181B78BC
:10212000AA4A99080140049159090140039199096B
:1021300001400291D90901910093C0212B237AA873
:1021400012F074FA7AA8FFF7A3FC002802D0934992
:102150009F4A27E6BD2306A95B181B78C02101937F
:1021600035AB1B789B4A00937AA82C2312F05EFAB9
:102170007AA8FFF78DFC002803D08F2287499200B0
:1021800010E6BE2306AA9B18BF221B78079306AB56
:10219000D218117836AA12789446C122D218107833
:1021A000C222D2181678C322D21817780A00079BC9
:1021B0001A4063461A40FF2A10D100902E23C021F6
:1021C000854A029701967AA812F030FA7AA8FFF7AA
:1021D0005FFC002810D096227049D0E70293079B3D
:1021E000039001910093C0212E237C4A0597049609
:1021F0007AA812F01BFAE9E737AB1B78C0210093ED
:10220000774A34237AA812F011FA7AA8FFF740FC33
:10221000002802D06149734AC4E5C52306AA9B1869
:102220001B78C021099300936F4A35237AA812F0D6
:10223000FDF97AA8FFF72CFC002802D057496B4A19
:10224000B0E5C62306AA9B181B780A930A9A684B26
:10225000FF2A00D1674B01930A9BC0210093664A75
:1022600036237AA812F0E2F97AA8FFF711FC0028C9
:1022700002D04A49614A95E5C72006ABC01804213F
:10228000FFF734FB0300079001330DD13723C02142
:102290005B4A7AA812F0CAF97AA8FFF7F9FB071E81
:1022A0004AD03E49574A7DE5079BC0210093564AD4
:1022B000372301947AA812F0B9F9EDE7B21C0B921A
:1022C000934202D22300514A41E52AA802218019F3
:1022D000FFF70CFB4E4B82B29A420FD13300C02164
:1022E0004C4A00947AA812F0A1F97AA8FFF7D0FB23
:1022F000013400284ED0AC22284940E70A9AE3B2C4
:1023000080B293420FD3089B01330CD0089B0190FD
:102310001B1A08930293C02133003F4A00947AA805
:1023200012F084F9E1E701903300C0213B4A0094A8
:102330007AA812F07BF9D8E73B260400079B0893A4
:102340000999E2B26B1E0B928A42B7D302222AA8E5
:10235000115C01327F18FFB29342F9D8A422920097
:1023600006A99A1852182E49521814782D49A742D6
:1023700000D12D4902912D4AC021019700947AA8DD
:1023800012F054F97AA8FFF783FB002852D00349D2
:10239000274A07E50B9ED3E7865E01087C5A0108B1
:1023A00005020000AE5E01080F020000C95E0108D0
:1023B00016020000D35B0108F8CB0108E85E0108B3
:1023C0002202000012030000230200000F5F010838
:1023D000310200004D5F01086F5F0108A15F010835
:1023E000D95F010862020000F55F01086A0200007F
:1023F00004A00108DB5B0108106001087302000003
:102400002D600108870200005A60010883600108FE
:10241000FFFF00009F600108CC600108F860010820
:1024200000FEFFFFEF5B01088C8C010816610108BC
:10243000C3020000074BA74200D1074B0293079B42
:10244000C0210193099B054A00937AA82B0012F042
:10245000EDF880E4097E01088C8C010846610108D2
:1024600010B504210148FFF7C7FA10BD2BCC0108B5
:10247000F0B5BF4BCFB01B780E93012B06D0BD49F2
:10248000BD4A022001F05EF8022005E0FFF75CFA89
:1024900003000A20002B08D04FB0F0BD0021B44A41
:1024A0000B00907801281DD19170B449B4480A8876
:1024B000008893B2824201D100F08CFEB14AD25C16
:1024C00001339BB2D2B27F2B00D9002333200B8083
:1024D00008ABC01802700A2AE0D00D2A01D000F023
:1024E00034FE0E9B0022A24CA370A388E3181A743A
:1024F0006378012B04D1A448FFF7B6FA0028CBD1AA
:10250000237C002B00D1A1E10CF01EF80600FFF7A0
:10251000A5F8050001F01EF80F9001F083FC0400FF
:1025200005F0EAFB994B0700994918000D93FDF758
:10253000EBFD002800D0AEE09648FFF7A9FA00288E
:1025400000D0A6E09448FFF7A3FA002800D0A0E04E
:102550009248FFF79DFA002800D09AE09048FFF7D4
:1025600097FA002800D094E08E48FFF791FA0028EF
:1025700000D08EE08C48FFF78BFA002800D088E06E
:102580008A48FFF785FA002800D082E08848FFF7E4
:102590007FFA00287DD18748FFF77AFA002878D1A2
:1025A0008548FFF775FA002873D18448FFF770FA61
:1025B00000286ED18248FFF76BFA002869D1814864
:1025C000FFF766FA002864D17F48FFF761FA002818
:1025D0005FD17E48FFF75CFA00285AD17C48FFF7AC
:1025E00057FA002855D17B48FFF752FA002850D1FE
:1025F0007948FFF74DFA00284BD17848FFF748FAA1
:10260000002846D17648FFF743FA002841D17548A3
:10261000FFF73EFA00283CD17348FFF739FA00284B
:1026200037D17248FFF734FA002832D17048FFF7EB
:102630002FFA00282DD16F48FFF72AFA002828D159
:102640006D48FFF725FA002823D16C48FFF720FAE0
:1026500000281ED16A48FFF71BFA002819D16948E3
:10266000FFF716FA002814D16748FFF711FA00287F
:102670000FD16648FFF70CFA00280AD16448FFF72B
:1026800007FA002805D16348FFF702FA002800D1B5
:10269000DCE0092000E760490D98FDF735FD0028D2
:1026A00011D10BF055FFC02100905C4B5C4A1EA875
:1026B00011F0BCFF002856DA2E495A4A1E2000F0BD
:1026C00041FF1E20E8E658490D98FDF71DFD002842
:1026D0002ED1737A0D9333690F9373691093636AE4
:1026E000119302F003FE129005F000FB04000AF0C3
:1026F00047FDB3790500F76913930AF053FD139B67
:1027000008900693129BC0210393119B474A0293A2
:10271000109B079701930F9B0595009304940D9BC5
:102720001EA811F083FF00281DDA1249404AC5E7B0
:1027300040490D98FDF7E8FC002800D07EE0A9682C
:102740002B7F069169783C4A059169681EA804911F
:10275000A96903916969029129690191E968009168
:10276000C02111F063FF1EA8FFF792F996E2C04660
:10277000D00000207C5A0108150600002801002026
:102780002A0100202C01002002A00108E000002006
:102790009461010899610108C6610108F7610108A7
:1027A00026620108596201088B620108BD620108B6
:1027B000F362010823630108506301089063010874
:1027C000C5630108026401083364010868640108F4
:1027D000A0640108D264010804650108436501088A
:1027E00075650108AC650108DF6501081866010818
:1027F0004D66010889660108D26601081D67010857
:102800005367010899670108CB670108026801084E
:1028100038680108676801085E7A0108976801084E
:10282000F7B501083B04000049630108AF680108DF
:102830004E0400000269010808690108D8490D9892
:10284000FDF762FC00280ED1FEF79CFFD54B9A687D
:1028500001329A6000229A801A74FFF701FE002864
:1028600000D122E618E6D0490D98FDF74DFC00286E
:1028700012D10F990F9B89681B7801910F99CB4A50
:1028800049681EA80091C02111F0D0FE002800DB8D
:1028900069E7C749C74A11E7C7490D98FDF734FCF6
:1028A000002805D0C5490D98FDF72EFC002861D100
:1028B00001F0B8FA04000EF081F90D9002F016FD57
:1028C000050002F01DFD676A0600A46A05F00EFA15
:1028D0002B000390C021BA4A0294019700961EA8CB
:1028E00011F0A4FE002802DAB149B64AE6E61EA8B5
:1028F000FFF7CEF8051E10D0AD49B34A092000F00D
:1029000021FEC6E61EA8FFF7C3F8002802D0A8499A
:10291000AE4AF3E701350C2D98D0E8B201F086FA03
:10292000041EF7D04669002E01D00D9B9E1BA768A0
:10293000002F00D1A64F23690F93E3681093A0786E
:1029400001F07EFA237F069607932379C021059331
:10295000E378A04A0493109B039002930F9B009787
:1029600001931EA82B0011F061FE0028CADA9049DD
:10297000994AA3E699490D98FDF7C6FB002806D0B1
:10298000974D98492800FDF7BFFB00281BD102F0A6
:10299000ADFC050002F0B4FCA369C0210593636996
:1029A000914A049323690393E3680293A368009018
:1029B00001931EA82B0011F039FE002800DBD2E69F
:1029C0007B498A4A7AE628008949FDF79DFB002861
:1029D00005D028008749FDF797FB002810D17969B9
:1029E000FB7804913969844A0391F9681EA8029121
:1029F000B968019179680091C02111F017FEB2E623
:102A000028007E49FDF780FB00282FD10AF0B8FB93
:102A1000636A0D900F93B379F7691093337A346C2E
:102A20001193336AB5691293B36A13930AF0BAFB30
:102A3000F36CC0210A93336D714A0993139B08907C
:102A40000593129B07950393119B06940293109B89
:102A5000049701930F9B1EA800930D9B11F0E6FDB8
:102A6000002800DB7FE65249664A27E628006649CF
:102A7000FDF74AFB00281FD100F036FD040000F0EE
:102A800039FD050000F034FD060000F03FFD230095
:102A9000211E01D0A368E1680391029301902B00ED
:102AA000C0215A4A00961EA811F0C0FD002800DB84
:102AB00059E63F49564A01E628005649FDF724FBEE
:102AC000002856D1159016901790189017AB18AA99
:102AD00016A915A8FEF7CAFB4F4C002814D1179B66
:102AE00021000293189B4D4A0193169B02300093DC
:102AF0001EAD159B03F0B6FA29004948FEF778FC95
:102B0000002808D0474A00E0474A2100042003F08B
:102B1000A9FA1F20C0E41E9E301CFEF769FA6F68F8
:102B20000D90381CFEF764FA0500FEF781FA011CCF
:102B3000381CFEF71BF83D49FDF7C6FEFEF758FAB4
:102B400002900D980195FEF773FA011C301CFEF7F8
:102B50000DF83649FDF7B8FEFEF74AFAC317C0185C
:102B60005840009021000D9B314A022003F07AFA70
:102B70006CE6304E28003100FDF7C6FA002878D107
:102B800001300BF085FC0BF03FFD08F0D7F8002872
:102B900054D00749284A1F2000F0D4FCB9E7C046AA
:102BA000EF7F0108D0000020A66B01084E690108E4
:102BB0007C5A0108710400006E69010879690108F6
:102BC0007E6901089A0300009B030000B603000021
:102BD000E3CB0108A8690108B5030000F269010808
:102BE000E0000020F6690108FB6901088604000086
:102BF000AD6F0108496A01084F6A01089661010832
:102C00008C6A0108AA040000C0630108006B010877
:102C1000BB040000306B0108696B0108346B0108CC
:102C2000C00C00209B6B01086D6B01080000C842BE
:102C30007C6B0108AC6B0108FA0400000BF0E4FCAB
:102C400008F0BEF8041E02D0BA49BB4AA3E70BF055
:102C5000DBFC012008F036FA012008F07BFA0BF0CB
:102C6000D3FC08F0E3FA0BF0CFFC20000BF010FCD3
:102C7000ECE52800B149FDF747FA002806D1FEF738
:102C800013FF002815D0AB49AD4A37E62800AD49FF
:102C9000FDF73AFA002806D1FEF706FF002801D01A
:102CA000FFF7FAFBD2E52800A749FDF72DFA002827
:102CB00002D1FEF71FFFF1E72800A449FDF724FA2F
:102CC000002802D1FEF7E6FFE8E72800A049FDF75B
:102CD0001BFA002801D10130F4E728009D49FDF7D7
:102CE00013FA00280BD101F095F89B4A031E9B486C
:102CF00000D139E5C0211EA811F098FC33E5280069
:102D00009749FDF701FA00281FD100F0ABFB954A67
:102D1000031EEFD101F07EF8041E04D000F0BEFBCC
:102D20002300914AE6E700F0E9FB040000F0EAFB2B
:102D300023000090C0218D4A1EA811F077FC0028C6
:102D400000DB10E57B498A4AB8E428008949FDF791
:102D5000DBF9002806D028008749FDF7D5F90028BF
:102D600000D085E009F02EFB041E03D1D522714965
:102D7000FFF787FB03788148012B00D0F4E46278E9
:102D800023696069A569E6687D49012A03D07D4908
:102D9000022A00D07C49277A7C4A0697E778059773
:102DA000A77803910090C0210497029601951EA870
:102DB00011F03CFC1EA8FEF76BFE002802D0E822B2
:102DC0005C499BE5A17A23790491E179704A0391EA
:102DD000A1791EA80291617A019161790091C021C7
:102DE00011F024FC1EA8FEF753FE002802D0F422A6
:102DF000504983E5637A002B11D06648FEF748FE00
:102E0000002802D0F8224B4978E52000617A1C3076
:102E1000FEF7F6FE00280AD0F92246496EE55E4824
:102E2000FEF736FE002802D0FF22424966E5A37A6B
:102E3000002B14D05948FEF72BFE002803D0822225
:102E40003C4952005AE52000A17A5C30FEF7D8FEDA
:102E5000002800D1FAE406223649FF324EE55048F8
:102E6000FEF716FE002800D1F0E40C223149F4E709
:102E70004C4F28003900FDF747F9002806D00422FE
:102E80002800494911F0A3FC002816D1474B4848B7
:102E9000DB7C002B00D147481EACC022210002F091
:102EA00041FA031E07D02278002A04D1C021200055
:102EB000414A11F0BBFB200056E428003F49FDF7D2
:102EC00023F9002816D102F011FA050004F00EFFD4
:102ED000E378C0210293A378394A019300902B0034
:102EE0001EA811F0A3FB002800DB3CE41149354A81
:102EF000FFF7E4FB09222800334911F068FC2B4C52
:102F0000002807D008222800304911F060FC002872
:102F100000D0FFE0E37C2E490E9C662B01D00024FC
:102F20002C49280018AA11F0B5FB012856D02A48D0
:102F30001AE4C0467C5A0108FC040000B26B010888
:102F40000C050000B86B0108C36B0108CE6B0108CB
:102F5000D96B0108E36B01082D6C0108ED6B0108CA
:102F6000FE6B0108066C0108256C0108496C01081C
:102F70004A0500006F6C0108786C0108846C010838
:102F800007C4010820CB010874610108926C010894
:102F9000E06C0108186D01082C6D0108466D0108F0
:102FA0005B6D0108766D01087A6D0108D000002084
:102FB000E400002004A001087F6D0108F369010806
:102FC0009D6D01086B050000BE6D0108C86D01080C
:102FD0008661010879610108D16D01087F4918A84F
:102FE000FDF792F800285CD07D4918A8FDF78CF811
:102FF000002863D07B4918A8FDF786F800285DD02B
:10300000794918A8FDF780F8002859D0774918A801
:10301000FDF77AF8002853D0754918A8FDF774F821
:1030200000284FD0734918A8FDF76EF8002849D042
:10303000714918A8FDF768F8002845D06F4918A80D
:10304000FDF762F800283FD06D4918A8FDF75CF83D
:1030500000283BD0390018A8FDF756F8002837D0D3
:10306000310018A8FDF750F8002833D0654918A89A
:10307000FDF74AF800282FD0634918A8FDF744F857
:1030800000282BD0614918A8FDF73EF8002827D06A
:103090005F4918A8FDF738F8002821D05D48FFF7F0
:1030A00063FB0E9D002228001100012C1AD100F0B4
:1030B0004BFE594C031E1AD0584A1BE60225F1E775
:1030C0000325EFE70825EDE70525EBE70A25E9E706
:1030D0000E25E7E71525E5E71925E3E71C25E1E7D8
:1030E0002825DFE700F037FE4D4C031EE4D1280011
:1030F00000F0A6FE23000090C0214A4A1EA811F04D
:1031000095FA002801DBFFF72EFBB2224649D200D8
:10311000FFF7D4FA28004549FCF7F6FF002804D150
:10312000012343486370FFF71FFB28004149FCF768
:10313000EBFF002803D160703F48FFF715FBE36801
:103140003E480133E360FFF70FFB082A01D07F2AD6
:1031500016D13B4A9388002B01D1FFF7A6F9002135
:10316000013B9BB29380D31819745378012B01D083
:10317000FFF79BF933480331FEF73EFCFFF76FFB87
:103180001300203B5E2B01D9FFF78FF92C498B8868
:103190003E2B11D900232C488B800B74FEF778FC52
:1031A000002801D1FFF759FB0D201F49274A00F0E5
:1031B000C9F90D20FFF770F9CC18227400220133F1
:1031C0009BB28B80CB181A744978012901D0FFF784
:1031D0006CF9D1E70020FFF75FF9C046E86B010802
:1031E000246E0108296E01082E6E0108346E010854
:1031F000386E0108A9A601083E6E0108416E01085B
:103200004E6E0108546E0108AF7F0108A56E0108DB
:103210005B6E0108606E0108FC670108AB6E010877
:10322000C36F0108C66E01087C5A0108E16E0108EF
:10323000E96E0108F66E0108FF6E01080D6F0108C6
:10324000D000002028CC01082A6F0108E705000003
:10325000030070B5002820D0124883421DD11249C6
:10326000124C0A782388D2B29DB201339BB27F2BD5
:1032700000D900230E4E36889E420FD10D4A1368A6
:103280000133136000230C4C0122237011F0D0F89D
:10329000FD23184201D1FC3B237070BD074E7255CF
:1032A0002380EFE7B00B0020AC0100202A010020B2
:1032B0002801002024010020200100202C010020F2
:1032C00010B5002815D00B4B984212D10F2203687D
:1032D000094C1A629969073A0A439A61002301224C
:1032E0000649237011F0A4F8FD23184201D1FC3BDC
:1032F000237010BDB00B002020010020AC01002085
:1033000000487047D0000020012370B5050001215E
:103310003C355B420278534008221C005E080C409A
:103320000B4200D0054C3300013A6340002AF4D12F
:103330000130A842EED1D84370BDC0462083B8ED1D
:1033400070B5010094B0002808D14B220120224919
:1033500000F0F8F80125280014B070BD04AE40223A
:10336000300011F0A3FA3000FFF7CEFFF0630EF04B
:10337000FFF8041E05D0502217491F2000F0E2F884
:1033800010E0164B164A69469A61164B019002935B
:103390000123009001A803930EF0E2F9002803D066
:1033A0000EF018F91F25D6E70E4B02203259E1180E
:1033B0000EF058F90028F3D10434402CF4D10EF06B
:1033C00009F9051E02D06A220349D6E7220031001E
:1033D000054811F06BFABEE7756F01080020024046
:1033E000020F000000E00108B001002070B5174C8A
:1033F00040222000164911F059FA164D2368AB42BD
:1034000004D1802362685B029A4213D034220021E7
:10341000114811F0B1F980235B02636001232000A1
:103420002560A360FFF770FFE06301220B4B0020D3
:103430001A7070BDA368013B012BE7D82000E66B32
:10344000FFF762FF8642E1D1EFE7C046B0010020FE
:1034500000E0010854425544BC010020AD010020A9
:103460007047000000B50B4B91B01B78012B01D0C9
:10347000FFF7BCFF40220849684611F017FA022303
:1034800068460393013B04930593FFF759FF11B07E
:1034900000BDC046AD010020B001002000B50A4BC0
:1034A00091B01B78012B01D0FFF7A0FF4022074904
:1034B000684611F0FBF900236846039304930593D3
:1034C000FFF73EFF11B000BDAD010020B0010020AC
:1034D00010B5044B1B78012B01D0FFF787FF0020AC
:1034E00010BDC046AD01002000487047B00100206B
:1034F0000120704700487047906F010800487047EE
:10350000966F01080048704700000108044B054809
:103510005B69042B02D8044A9B0098587047C04648
:10352000B00100209C6F010830CC01080022034B41
:1035300003491A7059609A607047C0460000002025
:10354000C86F0108024B187059609A607047C046F6
:1035500000000020004870470000002072B6C046FE
:10356000FDE70000014B18707047C0460C000020BA
:1035700070B5041E28D085781F2306880B2D1DD812
:103580000122A521AA400901013B0A4216D10133BB
:10359000022D13D1033BB20710D164213000FCF798
:1035A00073FE89B21D23002908D191313000FF310B
:1035B000FCF76AFE8BB25A4253411C33E278013267
:1035C000D2B29A4201D8E27070BD0123ED18EDB27B
:1035D000E3700C2D01D8A570F6E70136A3702680A4
:1035E000F2E7000010B5041E06D1E5220949920059
:1035F000FFF7A8FF200010BD0279074B4179534324
:10360000064A4A439B188279FA20800050431818D2
:10361000F1E7C046CD6F010880EE360060EA000099
:10362000F8B507000D00141E06D11D491D4A0120E2
:10363000FFF788FF0120F8BD1B4B994202D91849BA
:103640001A4AF4E700261A49D671FCF797FD64215F
:1036500020803800FCF792FD6421FCF715FE38004D
:10366000A1706421FCF710FE2800E1701149FCF7FD
:1036700085FD104920712800FCF706FE08000E4960
:10368000FCF77CFD0C4960712800FCF7FDFD08008B
:10369000FA218900FCF772FDA0713000CBE7C0462B
:1036A000CD6F0108CA030000FF5B2605CB030000B5
:1036B0001027000080EE360060EA0000F0B589B007
:1036C00006000D0017000193282819D802AC182213
:1036D0000021200011F050F80123A6702370E5703E
:1036E0000DF06CFA019B6060A7602000E360012D83
:1036F00003D104F00DFA09B0F0BD04F043FAFAE783
:10370000B022012002499200FFF71CFF0120F2E7DE
:10371000CD6F0108F0B585B00C001F1E019202D0DC
:103720000A9B002B08D11549154A0120FFF70AFF13
:103730000125280005B0F0BD02AE3200FFF770FF92
:10374000019B0500E418002807D00C490D4AECE75E
:103750000D4B3000E418FFF70BFF0C4B9C42F7D8E1
:1037600032880B4BB178534364224A439B18F2785A
:103770009B183B600A9B1C60DBE7C046CD6F0108CD
:103780000A0400000D04000000A4D9FAFF5B26051E
:103790001027000073B5050010000E0003F05CF95F
:1037A000012806D00B490C4A0120FFF7CBFE01206F
:1037B00076BD0A4A310000922800094B094AFFF7FA
:1037C000A9FF002802D00349074AEDE7074BD8615B
:1037D000EEE7C046CD6F010866040000F402002049
:1037E000F0020020C0D4010072040000E8020020B2
:1037F000F0B5040085B00800002C07D11C491D4A13
:103800000120FFF79FFE012005B0F0BD03F024F971
:10381000012802D01649184AF2E702AD0822210019
:10382000280011F043F8E3782000A6782788019358
:10383000FFF7D8FE1149FCF7A1FC431C0F48584381
:103840000F4B984207D92800FFF792FE0020EB7833
:103850002F88AE78019364210A4B71437B435B1838
:103860000199094A5B18906053600020CCE7C0467C
:10387000CD6F0108E2030000E303000060EA0000EE
:10388000FF5B26051027000008030020F0B5394B28
:1038900093B0DB68DB060FD4374CE378002B04D001
:1038A0000320364A364902F0DDFB0023022523803F
:1038B000E370280013B0F0BD06A8FDF717FF051E42
:1038C00005D03049304A2800FFF73CFEF1E708A850
:1038D00003F040F9FD230500184216D102AAE03B8F
:1038E0009B18D87F022603F0C3F8234CFF362388A9
:1038F0000100B3420CD006A8A170FFF779FF051EA6
:103900000ED001201F49214ADEE71E49204ADAE78E
:10391000A3788342EFD1E378012BECD10025C8E7EF
:103920000123A768E370A37826803800194905931E
:10393000FCF7AAFC0800FA218900FCF71FFC1649D5
:1039400003903800FCF7A0FC08001249FCF716FCB5
:10395000114902903800FCF711FC019063680F4E8A
:10396000074D009332002900059B022002F07AFBEC
:10397000D4E7C0460028004008030020E36F010898
:10398000CBBA0108CD6F01089A040000AC04000016
:103990009D04000060EA000080EE36001F70010800
:1039A000F0B56C4B97B0DB68DB060FD46A4CE3785C
:1039B000002B04D00320694A694902F053FB00231D
:1039C0002380E3700224200017B0F0BD0AAF380056
:1039D000FDF78CFE041E05D06249634A2000FFF704
:1039E000B1FDF0E70CA803F0B5F8FD230400184280
:1039F00012D102AACF3B9B18D87F03F039F80600FA
:103A000003F02AF80500012809D05649574A012039
:103A1000FFF798FD0124D6E75249554ADEE74E4CA0
:103A20002379012B09D0FDF723FF3D21FCF72CFC66
:103A3000FA239B004B432571A36102222388FF32A6
:103A4000934205D1A378B34202D1E378012B7ED013
:103A5000A3693000A670079302F0FEFF06900128CC
:103A600007D04049434A0120FFF76CFD3D49424AD7
:103A7000CDE73B88414DBA785D4364235343ED184D
:103A8000FB783800ED18FFF7ADFD0CAB010000939B
:103A900028003B4A09ABFFF73DFE002802D0314920
:103AA000384AE0E7384D0C9B7543099F0693002D7B
:103AB00004D029001800FCF761FB0500FDF7D8FED3
:103AC000324B36066B437E40704058400B21FA263D
:103AD000FCF7DAFBB6007143079A0D0052182C4927
:103AE000380000912B4B0699FFF714FE002802D0F6
:103AF0001C49294AB7E70223FF332380013BFF3BE0
:103B0000E370A378E768E56105950693A36938003B
:103B100022490493FCF7B8FB08003100FCF72EFBA8
:103B2000194903903800FCF7AFFB08001B49FCF76C
:103B300025FB154902903800FCF720FB0190A36893
:103B400002200093164A069B054902F08BFA0024D6
:103B500039E7C04600280040E80200205F700108F5
:103B6000CBBA0108CD6F0108560500005A050000C8
:103B7000590500003E0400007205000010270000F7
:103B8000C0D401004A04000080EE3600B179379EAF
:103B9000F4020020F00200205204000060EA00005D
:103BA00092700108A02010B5C0050022042101F088
:103BB00057FE002010BD000070B51D4D2B78012B65
:103BC00034D01C4C1C4920000BF0F6F9002801D021
:103BD0001E2070BD194E21003000194B194A0BF000
:103BE00029FE0028F4D13200210017480CF0C4FB54
:103BF0000028EDD1154E210030000AF0ABFF021E67
:103C0000E6D1300012490AF0C1FF200008F0D4F9D3
:103C10000028DDD1FF220F4B0F4918700F4B0230E7
:103C20001A7001230E4A2B7002F01CFA0020D0E714
:103C3000F4010020C0020020140D002044020020E6
:103C400060CD010870CD01081C020020F8010020A1
:103C500065350008F5010020CBBA01080C000020F2
:103C6000F8700108012210B5034B02201A700349B5
:103C7000034A02F0F7F910BDF5010020CBBA0108A4
:103C80001C71010870B5051E07D101200B490C4AB3
:103C9000FFF758FC0124200070BDFFF7F7FD041E5C
:103CA00004D00649074AFFF74DFCF4E7064B2A000B
:103CB00099685868FFF7B4FC0400ECE7CD6F010881
:103CC000890800008C0800000803002070B5051E5C
:103CD00007D101200B490C4AFFF734FC01242000D6
:103CE00070BDFFF75DFE041E04D00649074AFFF7CA
:103CF00029FCF4E7064B2A00D9689868FFF790FC86
:103D00000400ECE7CD6F0108970800009A08000056
:103D1000E8020020002310B5074A02201380D37068
:103D200093605360054A06491380D3709360D36053
:103D3000044A02F097F910BD08030020E8020020B1
:103D4000CBBA01083771010810B513000A00012130
:103D5000FFF7B4FC10BD10B513000A000021FFF7F7
:103D6000ADFC10BDF7B5D822204C52000021200038
:103D7000F426FA2710F000FD00231D4AF600BF00CC
:103D80001C4899004158012091601B4998408C467D
:103D9000FA21654613704900284204D139003042A7
:103DA00001D159425941D1600221013311772032AA
:103DB0000C2BE5D1012525700024104B21001C702F
:103DC0000F4B10221C700F4B0F481C700F4B1C70B8
:103DD00010F0D2FC210020220D4810F0CDFC28006C
:103DE00022002100FFF7B7FFFEBDC04618030020E8
:103DF0001C030020E8CC01085A080000F301002051
:103E0000F2010020F101002008030020F001002051
:103E1000E802002010B5012200210820FFF79BFFD7
:103E200010BD0000004870479C04002003000020E3
:103E30000B2B02D801485B01181870471C030020A7
:103E400003000348282B02D8024A9B009858704769
:103E50009371010844CC0108F0B5224C8DB00B934E
:103E60004301E418A37915000893E3790700099347
:103E7000237AE2710A9300230E002372A1710CF0E1
:103E80009DFE01230B9A6371E318DA776369A061E1
:103E900001336361089BE061B34205D1099BAB42EA
:103EA00002D10A9B002B1AD00F4ABB0008989C58DD
:103EB000FFF7C6FF07003000FFF7C2FF0B9B019022
:103EC0000693002305930A9B02200493099B074A4B
:103ED0000293074923000395009702F0C3F80DB041
:103EE000F0BDC04618030020E8CC01089B71010812
:103EF000CBBA0108002310B51A0003211800FFF700
:103F0000ABFFFEF7B5FA0022040003000321100006
:103F1000FFF7A2FF200010BDF0B5A1B00D000A9080
:103F2000282801D900F0B8FF8623B74CFF33E054AE
:103F30000CF044FECE2301225B00E05000200C3345
:103F4000E250203BE0540AF0B9FA0990002807D06B
:103F50001E20AE49AE4AFFF7F5FA1E230993EDE0A5
:103F60000A9B581E272801D900F091FFFCF7FCF8A6
:103F700028008F07E900F600FD00F6001F0102018E
:103F800024012B013F01780126022C024602B502D2
:103F9000BF02CE02C902D802E602C503D503BC04A3
:103FA000C104CF04D304D8042A059E06A206A8069D
:103FB000B606D106D5061E07310786076B078A07A6
:103FC000002303211A001800FFF746FF00230421F5
:103FD0001A000120FFF740FF002307211A000220EA
:103FE000FFF73AFF002309211A000320FFF734FFEF
:103FF00000230D211A000420FFF72EFF00231121BA
:104000001A000520FFF728FF002314211A000620BC
:10401000FFF722FF002318211A000720FFF71CFFDB
:1040200000231B211A000820FFF716FF00231F2181
:104030001A000920FFF710FF002323211A000A208D
:10404000FFF70AFF002325211A000B20FFF704FFCA
:10405000002203201100FFF77EFE011E06D06B49EF
:104060006C4A1B20FFF76EFA1B2675E00200042045
:10407000FFF771FE011E02D06449674AF1E70200B2
:104080000720FFF768FE011E02D06049634AE8E797
:1040900002000920FFF75FFE011E02D05B49604A63
:1040A000DFE702000D20FFF756FE011E03D0D522E8
:1040B0005649D200D5E702001120FFF74CFE011E41
:1040C00002D05249574ACCE702001420FFF743FEC2
:1040D000011E02D04D49544AC3E702001820FFF7E1
:1040E0003AFE011E02D04949504ABAE702001B209D
:1040F000FFF731FE011E02D044494D4AB1E70200EC
:104100001F20FFF728FE002802D04049494AA8E7AF
:10411000012100222320FFF71EFE011E02D03B4991
:10412000454A9EE702002520FFF715FE002802D031
:104130003649424A95E7C2235B00E054099821B012
:10414000F0BDFFF7D7FE002800D1DAE10A202F49A1
:104150003B4AFFF7F7F90A260996EFE70023052106
:104160001A000120FFF778FECBE10122002306218F
:104170001000F7E7012D1AD1FA23324A9B00324989
:10418000032001F06FFF80212A0049002F480DF025
:1041900067FCFA2080000CF017FD72B6BFF34F8F5A
:1041A0002B4B2C4ADA60BFF34F8FC046FDE700234C
:1041B00008211A000220D5E7FFF7F4FC00230A21AA
:1041C0001A000320CEE7230068331D78012D0AD1A1
:1041D000002229000B20FFF7BEFD2A00031E04D099
:1041E0000A491D4A3DE700231A000B21E9E7002296
:1041F00001210C20FFF7AFFD031E02D00349174A2F
:104200002FE701220C21DCE718030020CD6F010805
:1042100092060000A4060000A5060000A606000005
:10422000A7060000A9060000AA060000AB060000D1
:10423000AC060000AD060000AE060000AF060000B0
:10424000B5060000D2710108CBBA01080004005085
:1042500000ED00E00400FA05EC060000F70600009F
:104260002022002116A810F087FAC44AC44902206F
:1042700001F0F8FEA02001220421C00501F0F0FAAF
:1042800032200CF0A1FCBF4DBF4B2A689A4212D0DD
:104290005E220320BD49FFF755F9A020002204212A
:1042A000C00501F0DDFA03242300B94AB449032014
:1042B00001F0D8FE76E00F27082601F0BFFB2800AA
:1042C0000FF060FA2B6814201F629A6932439A61DA
:1042D0000CF07AFC2B6864201F629A6932439A6161
:1042E0000CF072FC642305222800AA490FF0C2FEDC
:1042F000002806D0A1220920A449FFF723F90924A8
:10430000D2E72B6828001F629A6916A932439A6186
:1043100096231522DB000FF013FF0400032819D1A8
:1043200028000FF0C7F92B680A9C1F629A69164390
:104330009E6164200CF048FCA02000220421C005EE
:1043400001F08EFA002C0ED0AD2290492000FFF72C
:10435000F9F8A9E70028ECD08A220A208B49FFF758
:10436000F1F80A24E5E7864E1523310016AA02204B
:1043700001F0A4FE01F06CFF0500012001F060FFD8
:10438000152116A802F068F80400280001F058FF73
:10439000002C02D0B9227D49D8E7310002207E4AA4
:1043A00001F060FE2300002209210320FFF754FDE5
:1043B000C2220121794B52009954BFE608F0FAFF5E
:1043C00000230E211A0014E0230088331B78012BF0
:1043D00003D0734B1B78012B0DD1002201210F203C
:1043E000FFF7B9FC031E02D068496E4A39E6012284
:1043F0000F210420B6E607F065FEE1E76A4B1B7863
:10440000012B58D1664B1A78012A09D1002267483E
:104410001A700BF0D7F866480AF0ECFB00284AD176
:10442000644B1A78012ACBD1FE321A7007F0F0FDE6
:10443000002804D00320604A514901F013FE16AD54
:10444000280007F017FF061E35D12B78012B23D14A
:104450006978AB7803916979494F029129790220F3
:104460000191E978554A0091390001F0FBFD6D7822
:10447000012DA5D1320029001520FFF76CFC031E89
:104480009ED12A0015210620FFF7E6FC39004C4A90
:10449000022001F0E7FD93E74A4D28000BF078FB7E
:1044A00000280FD048480BF08FFF002888D0023832
:1044B000C0B2032884D93549444A1F20FFF742F887
:1044C0001F2649E6012128000BF0E8F9022800D850
:1044D00076E7042800D173E7EDE7002310211A00E6
:1044E0000420FFF7B9FCC22301225B00E2543848E4
:1044F000FCF7DCFF002804D00420364A364901F0DE
:10450000B1FDC22301225B00E25417E60022132012
:104510001100FFF720FC0028F3D01C492F4AA0E52A
:10452000002201211520FFF716FC021E02D01749B8
:104530002B4A96E503001521062013E6294B1B782C
:10454000012B00D1CCE0284B1B78012B00D0C7E019
:10455000FFF726FA022864D0002806D00B49234A28
:10456000FEF7F0FF0949224AA7E716AD2800FDF73C
:10457000BDF8002840D005491E4AF1E7F371010853
:10458000CBBA0108280B002000440040CD6F010881
:104590004972010858CD01081D7201081803002056
:1045A000F50100201B070000F4010020C0020020DC
:1045B000F80100200C0000207F720108A872010899
:1045C000DC720108440200201C02002029070000C0
:1045D000C00C0020FB720108696B01083C07000059
:1045E0004F070000F0010020F101002092050000BB
:1045F0005A070000950500002B88D04EAA785E432C
:1046000064235343F618EB782800F618FEF7EAFF08
:10461000CB4D0300A868B04203D8E96813D1994292
:1046200011D90022C74B14211A7006201300FFF77E
:1046300013FCC22301225B00E254C349C34A022097
:1046400001F010FD7AE52B69984202D16B6999421D
:10465000E7D0AA7828616961FFF79CF8002803D0A9
:104660000120BB49BB4A7BE7EF68AB783800BA4909
:104670006E690793FBF708FE0800FA218900FBF733
:104680007DFDB64906903800FBF7FEFD0800B249F3
:10469000FBF774FDB14905903800FBF76FFD0490FE
:1046A000AB683000AC490393FBF7EEFD0800FA213C
:1046B0008900FBF763FDA94902903000FBF7E4FD98
:1046C0000800A549FBF75AFDA44901903000FBF70B
:1046D00055FD00902B690220A14A9B4901F0C2FCC4
:1046E000002201211620FFF736FB031E02D0984955
:1046F0009C4AB6E4012216211EE7012009F0C8FEFB
:10470000002201211720FFF726FB031E02D090494B
:10471000954AA6E4012217210EE7944E3378012B27
:1047200055D1884D2B78012B0CD1914A8649022016
:1047300001F098FC08F018FE002802D084498D4A48
:10474000BBE62870002706F065FB051E00D1A0E03F
:1047500006F0D6FE7C4F884B3900884A060000954B
:10476000032001F07FFC06F0DBFD031E07D03900BB
:104770000320834A01F076FC002009F089FE002E18
:1047800009D0337D092B24D1390003207D4A01F063
:1047900069FC0123099300226A4B14211A70062038
:1047A0002B00FFF759FBC42301225B00E254099858
:1047B000043B9218E25409F09DFE061E00D1CBE4A2
:1047C0001E206349704AFEF7BDFE1E26C4E4012781
:1047D000B9E7082BDFD1FFF7E3F80600022852D033
:1047E00000280AD05A49694A3000FEF7ABFE300073
:1047F0005749674AFEF7A6FEAEE416AF3800FCF74D
:1048000075FF061E02D05249624AEDE73B884B4EC7
:10481000BA785E4364235343F618FB783800F618E1
:10482000FEF7E0FE5C4A0100009230005B4B5C4A00
:10483000FEF770FF061E03D001204549594AD4E710
:104840003F4E4549F768F0613800FBF71DFD080051
:10485000FA218900FBF792FC404903903800FBF7EE
:1048600013FD08003C49FBF789FC3C4902903800E5
:10487000FBF784FC0190B368032000934A4A30237D
:10488000314901F0EFFB494A2F49032001F0EAFBCF
:1048900081E7012006F016FC012006F05BFC012FE9
:1048A0000BD1434A2849022001F0DCFB08F05CFDF3
:1048B000002802D026493F4AFFE506F0B7FC06F083
:1048C0002FFD021E02D022493B4AF6E501253B4B53
:1048D00014211870030006203570FFF7BDFAC223BB
:1048E0005B00E554FFF72AFC002319211A0007207A
:1048F00038E4002201211A20FFF72DFA031E03D00D
:10490000F6221349FFF7D5FB01221A21EFE7002316
:1049100018211A00EBE700231C211A00082021E4CB
:1049200000221D201100FFF716FA021E03D00849CD
:10493000234AFFF796FB03001D21EFE71027000035
:10494000E8020020F2010020CBBA0108067301083A
:10495000CD6F0108B105000060EA000080EE36006E
:1049600031730108650700006D070000F1010020A8
:10497000967301087B070000C8730108D47301080F
:104980001A7401086074010882060000070600001E
:10499000730600000A060000F4020020F002002066
:1049A00000B84C0A1506000095740108EA74010865
:1049B00025750108940700009B070000F001002006
:1049C000CB07000008F0A6FC0C2302001A40184296
:1049D00000D13FE1820811000B3BC008194018408C
:1049E0000B910A901A4277D0FEF750FF041E0AD1AD
:1049F00016AE3000FCF77AFE041E09D0A122CD4984
:104A0000D200FEF79FFD022C58D01C2C56D02AE075
:104A10003388C94FB2785F4364235343FF18F37858
:104A20003000FF18FEF7DEFDC44D03006C68BC4289
:104A300044D8A86801D1834240D3FA23C0499B00DF
:104A40005C43FBF79BFBEB6827189F4236D0300096
:104A5000A978EF60FEF7CCFE041E0DD00120B54909
:104A6000B84AFEF76FFD2000B249B74AFEF76AFD6B
:104A7000B049B64AFFF7F5FAAC68B1492000FBF738
:104A800003FC0800FA218900FBF778FBB04903908A
:104A90002000FBF7F9FB0800A949FBF76FFBAC49C5
:104AA00002902000FBF76AFB01906B68A94E00930F
:104AB00032003B000220A84901F0D4FA0A9B002BE7
:104AC0000ED101210A200A9AFFF745F9002800D1EA
:104AD000B0E09849A14AC9E70A9B002B00D1A3E0A6
:104AE000FEF75EFF051E09D116AC2000FCF7FEFDA7
:104AF000051E08D08F499A4AFEF724FD022D6AD080
:104B00001C2D68D026E023888B4DA2785D4364235A
:104B10005343ED18E3782000ED18FEF763FD914C48
:104B20000300A068A84256D8E16801D18B4252D355
:104B30002369984202D163698B424CD0A2782061EC
:104B40006161FEF727FE051E08D001207949864ADB
:104B5000FEF7F8FC28007749844A87E7E768A378DE
:104B60003800774966690793FBF78EFB0800FA2146
:104B70008900FBF703FB764906903800FBF784FBBE
:104B800008006F49FBF7FAFA714905903800FBF706
:104B9000F5FA0490A368300069490393FBF774FBAE
:104BA0000800FA218900FBF7E9FA69490290300010
:104BB000FBF76AFB08006249FBF7E0FA64490190E1
:104BC0003000FBF7DBFA6A4D00902A0002202369CF
:104BD000614901F047FA0B9B002B00D164E10122EF
:104BE000644B3C201A700022634B1A7008F09AFB49
:104BF000031E04D00320614A574901F033FA002212
:104C000001210A20FFF7A7F8002802D049495C4A91
:104C10002CE7030001220A210320FFF71DF9594A5E
:104C200002204D4901F01EFA00231E211A0008201F
:104C3000FFF7BCFB01220A2103200A9BFFF70CF9B6
:104C4000514AEDE70300220015210620FFF704F981
:104C50004E4AE5E7474B1C78012C10D12100152066
:104C6000FFF779F8031E03D0FC223249FFF721FA3F
:104C7000220015210620FFF7EFF8454AD0E73E4B0A
:104C800019780129D0D00124152021001C70FFF7CC
:104C900062F8031E03D027493E4AFFF7E2F92200DB
:104CA00015210620FFF7D8F83B4AB9E700231E215B
:104CB0001A0033E6002320211A000920FFF752FAD8
:104CC000002201212120FFF746F8031E03D01949D5
:104CD000324AFFF7C6F901222121EEE7264B1A7866
:104CE000012A16D001250022290015201D70FFF78A
:104CF00032F8031E03D00F49294AFFF7B2F92A0000
:104D000015210620FFF7A8F80220264A124901F0D3
:104D1000A9F9002322211A00CFE700220121242033
:104D2000FFF719F80122031E4FD002491E4AFFF770
:104D300098F9C046CD6F0108102700000803002035
:104D400060EA000025050000BE080000DC07000046
:104D500080EE36006D750108CBBA0108E40800004A
:104D6000CE050000E8020020E9050000C7080000A9
:104D7000B4750108F0010020F2010020237601083B
:104D8000DA08000069760108B7760108057701089E
:104D900049770108E70700008C7701080108000047
:104DA0000F080000CF7701081E0800000122202113
:104DB00045480CF055FE01200BF006FF0022202193
:104DC00041480CF04DFE00231A0024210A20FFF771
:104DD000C9F916AD280002F0C3FD022802D128004F
:104DE00002F0E8FD169A2B79120A1B06134349229A
:104DF000013304A95218190A13705170190C1B0EB3
:104E00009170D370280002F0D5FD280002F0FEFD5D
:104E10000CA801F09FFE022802D10CA801F0CAFEE6
:104E20000CA801F001FF002201212620FEF793FFCC
:104E3000031E03D02549264AFFF713F90122262134
:104E40000B20FFF78FF9234B1A78012A16D0012582
:104E50000022290015201D70FEF77DFF031E03D0E0
:104E60001A491D4AFFF7FDF82A0015210620FEF712
:104E7000F3FF0220194A1A4901F0F4F80023272110
:104E80001A00DDE7C22303225B00FFF73DFBC223CC
:104E900002225B00FFF738FB01200C49114AFEF7A4
:104EA00051FB0123FFF75AF8012400220E4B210089
:104EB0001C700E4B15201A70FEF74DFF002800D114
:104EC000C0E602490A4AD1E500040050CD6F01084E
:104ED0003D080000F301002052080000107801088E
:104EE000CBBA01088A060000F0010020F201002080
:104EF000EE080000F0B5AF4C8FB02678012E08D038
:104F00000220AD49AD4AFEF71DFB022528000FB077
:104F1000F0BDD6225200A3580133A350D42300225F
:104F20005B00E250FEF7E6FF051E05D0A249A44A49
:104F30002800FEF707FBE9E708AF3900300002F070
:104F400059FE051E51D1BB781D1C282B00D92825E0
:104F5000BB68EDB2002B1DD0681F20281AD8FBF7C4
:104F6000EFF81212193E193C3C3C193A3A3A1938FA
:104F7000381936363619343419111111191919190D
:104F800042424000082601237601A61933720BF035
:104F900015FEF061C3235B00E5548823FA78FF33E4
:104FA000E2547A681133E250BA680833E250C822FA
:104FB000F96852000433E150A3580133A350043A76
:104FC000A3580133A3502800CAE00726DBE70626D2
:104FD000D9E70526D7E70426D5E70326D3E7022637
:104FE000D1E70B26CFE70A26CDE71C2802D072496D
:104FF000744A9DE7FEF74AFC0500022808D0002805
:105000002ED06D49704A2800FEF79CFA1C2D5DD108
:1050100000276E4BDD5D0B2D00D940E16E01A61916
:105020003369002B00D13AE10BF0C8FDB369002BC6
:1050300004D0C01A3369984200D230E1681E282596
:105040000A2800D997E0FBF78FF88F00AD00D70052
:10505000E000E900F200FB0004010D0117011F014F
:1050600006AF3800FCF742FB051E02D05249584AF1
:10507000C9E73B88574DBA785D4364235343ED1825
:10508000FB783800ED18FEF7ADFA534E0200736856
:10509000AB42BDD8B06801D19042B9D8FA254F498A
:1050A000AD005D43FBF76AF82B180593059AF3688A
:1050B0009A42ADD03800B178F260FEF799FB051E38
:1050C00007D001203C49464AFEF73CFA3A49454A96
:1050D0002EE72300012268331A700BF06FFDB768CA
:1050E000E0673E493800FBF7CFF80800FA21890055
:1050F000FBF744F83C4903903800FBF7C5F808007B
:105100003649FBF73BF8384902903800FBF736F890
:1051100001907368354E364A310000930220059B9A
:1051200000F0A0FF0A20FEF78BFE31000300314A99
:10513000022000F097FFC3230A265B00E6520BF023
:105140003DFDCC2301225B00E050290030000833F4
:10515000E2508C320433FF32E550A3580133A350A0
:10516000FEF7DAFE0500D1E6E31DDD7F042D02D057
:10517000062D00D00525C3235B00E55488230026B7
:10518000FF33E6540BF01AFDCC23C6225B00E0503F
:105190000833E65052000433E650A358310001337F
:1051A000A35010E7230046331D78072DE3D00825D0
:1051B000E1E7C04618030020CD6F0108FC0800009D
:1051C000020900001D090000CA0400005DCD0108AD
:1051D000CD040000102700000803002060EA000052
:1051E000EB0400002B09000080EE3600CBBA01086A
:1051F000507801089F780108230066331D782B0042
:10520000093B032BB7D90A25B5E7230086331D7860
:105210002B000D3B022BAED91025ACE72300A633A3
:105220001D78112DA7D0132DA5D01225A3E723009B
:10523000C6331D782B00143B032B9CD915259AE708
:105240002300E6331D78182D95D01A2D93D01925FB
:1052500091E72300FF33DD792B001B3B022B8AD91A
:105260001E2588E793235B00E55C2B001F3B032B87
:1052700000D880E720257EE7A3235B00E55C232D93
:1052800000D178E7242576E7B3235B00E55C252D84
:1052900000D170E7262D00D16DE727256BE7013798
:1052A000032F00D0B5E622000C23117A002918D173
:1052B000013B2032002BF8D186230225FF33E55431
:1052C0000BF07CFCCE23CA225B005200E050A358B6
:1052D00001200133A350C4235B00E054043BE55498
:1052E00000E0002009F0EAF83CE7C046862210B54D
:1052F000024BFF32985CFEF7A3FD10BD180300209F
:10530000C222054B52009B5C0448032B02D8044A7E
:105310009B0098587047C0461803002093710108FD
:1053200048CD0108F0B506000C00150091B0002929
:1053300006D1C149C14A0120FEF704F9012639E02E
:10534000002A03D19C22BC491201F4E700230B7010
:10535000984200D1BA4E3378202B0ED0002B05D0C6
:105360003000B849FAF7D0FE002808D12900200003
:10537000B54A0FF05BF900261CE00136EBE7300080
:10538000B249FAF7C1FE021E17D101210E20FEF725
:10539000E2FCAF4A0300061E00D1AE4A29002000FD
:1053A0000FF044F9002805DAA349AB4A1E20FEF7A6
:1053B000C9F81E26300011B0F0BD3000A749FAF739
:1053C000A3FE021E11D101210F20FEF7C4FCA44A46
:1053D0000300061E00D1A34A290020000FF026F981
:1053E0000028E7DA9449A04AE0E730009F49FAF73D
:1053F0008BFE9F4B1B78079300283DD19D4B9E4E03
:105400001B78DBB208939D4B1A78D3B2022A06D0E0
:105410009B4EFF2B03D09B4E012B00D09A4E9B4BF3
:10542000974A1B790692042B03D8994A9B009B58F4
:1054300006939848924F0379062B02D8964A9B0010
:105440009F580AF0A5FB099090480AF0B1F8099B13
:1054500005900493069B29000293089B200000936B
:105460008E4A079B039701960FF0E0F8002800DBB7
:1054700081E771498A4A99E7079B012B06D02900E9
:105480002000884A0FF0D2F8022693E786493000C0
:10549000FAF73AFE011E25D10AAF072238000FF0B5
:1054A0006BF93900794809F071FF061E07D0030037
:1054B000290020007D4A0FF0B9F81F267AE7B97954
:1054C0003B7805917979200004913979784A0391E4
:1054D000F9780291B97801917978009129000FF05B
:1054E000A5F867E773493000FAF70EFE011E29D1CF
:1054F0000AAE142230000FF03FF9644F310038003B
:105500000AF06CF83A795E4B042A02D8604B92009C
:10551000D358B168200003917168674A02910A99D3
:10552000002601917979009129000FF07FF8B042AF
:1055300000DB3FE7A222404912011E20FEF702F8DD
:105540001E3637E730005D49FAF7DEFD00282CD122
:10555000182200210AA80FF00FF94E4E0AA93000B8
:105560000AF09EFB3379464F062B02D84A4A9B002D
:105570009F5830000AF00CFB0D990B9B059103938B
:105580000C990A9B049102936C363378290001939D
:1055900000903B0020004A4A0FF048F80026B04235
:1055A00000DB07E72449474AC7E730004649FAF7D6
:1055B000ABFD00281AD1454E0A2137893800FAF789
:1055C00063FE89B2049138000A21FAF7D7FD80B250
:1055D0000390738929000293336A20000193F369D1
:1055E0003B4A0093B3690FF021F8C4E63949300013
:1055F000FAF78AFD011E73D10AAE142230000FF0B3
:10560000BBF83100344809F03BFB0D9F64213800A2
:10561000FAF73AFE380003916421FAF7AFFD0C9BCC
:10562000029001930B9B2900009320000A9B2B4AB8
:105630000EF0FCFF9FE6C046CD6F0108BF090000D9
:1056400004A00108946101086C790108C2BE010838
:10565000CE780108B8780108D9090000AE790108B0
:1056600009790108F5780108E50900004963010896
:10567000F4010020F5010020179C01080C00002017
:10568000937101082E79010835790108C0020020C4
:1056900034CD01084402002018CD0108B779010873
:1056A000F4090000F6790108147A0108187A010853
:1056B000367A01085B7A0108627A0108937A010858
:1056C000987A0108330A0000DC7A01081C020020E5
:1056D000E07A010896610108F80100201B7B0108AF
:1056E00030001049FAF710FD002815D10E480AF0D5
:1056F00065FA0E4A071E00D10D4A3B002900200022
:105700000EF094FF002802DA0A490B4A4EE61F26E3
:10571000002F00D04EE62EE629002000074A0EF0AA
:1057200085FF0BE69B7B01084402002050790108AD
:105730003C790108CD6F01085E0A0000507B01082A
:105740000121154B86B0DA6A0A43DA62DA6A0A4046
:105750000192019ADA6A49180A43DA62DA6A0A405F
:105760000292029ADA6A02310A43DA62DA6A0A407B
:105770000392039ADA6A04310A43DA62DA6A0A4067
:105780000492049ADA6A78310A43DA62DB6A0B40DF
:105790000593059B06B07047001002407FB50C22B0
:1057A000002103A80EF0E8FF1023A020019384231A
:1057B00001A99B03C00502930CF010F807B000BDCF
:1057C00030B587B004000D000C22002103A80EF0B4
:1057D000D3FF0323200001A9019502930BF0FEFFE4
:1057E00007B030BDA02010B50A49C005FFF7E8FF9B
:1057F00009490A48FFF7E4FF09490A48FFF7E0FFB3
:1058000009490A48FFF7DCFF09490A48FFF7D8FFB2
:1058100010BDC046619800001FF200000004005057
:10582000F03D000000080050FBFF0000000C00509D
:10583000FFFF0000001C005010B5084B1B7A012B25
:105840000BD1C021A020C901C005FFF7B9FFC021BD
:10585000A020C900C005FFF7B3FF10BDC804002099
:1058600030B50D0087B089B204000CF0F9F80C22B5
:10587000002103A80EF080FF0123200001A901955B
:1058800002930BF0ABFF07B030BD0000802110B5D4
:1058900000220B484900FFF7E3FF0A4B9C78012CDC
:1058A0000AD1220004210848FFF7DAFF220008216C
:1058B0000548FFF7D5FF10BD00220421F8E7C046D8
:1058C00000040050C80400200008005070B51B4CB4
:1058D000E378012B2CD01A4D1A4A2900022000F03F
:1058E000C1FB042118480022FFF7BAFF0421164823
:1058F0000CF0B0F800281CD029000420134A00F056
:10590000B1FB08211048FFF75BFF4022104BD9691B
:105910001142FCD004211A680B488A431A600139ED
:10592000FFF74EFFFA2080000BF04EF90123E370E1
:1059300070BD29000120074AE1E7C046C8040020E5
:105940005B7E01087B7E010800080050607E010834
:1059500000480040777E0108802370B52E4ADB02A4
:10596000916B86B00B439363042101222B48FFF710
:1059700077FF042129480CF06DF8294D012847D004
:1059800029000420274A082400F06CFB012208218A
:105990002248FFF765FF2200002103A80EF0ECFE6D
:1059A0000323022601A901931C48DB1805930296E4
:1059B0000BF014FF0A200BF007F921000022174812
:1059C0000CF04EF80A200BF0FFF8210001221348DA
:1059D0000CF046F80423144A0A2011680B431360A4
:1059E0000BF0F2F80F22114B05201B681A629A691E
:1059F000144310229C611A620BF0E6F800220C4B53
:105A00002900DA7030000B4A00F02CFB06B070BDA4
:105A10002900094AB7E7C0460010024000080050BC
:105A20005B7E01088C7E010800480040380C002095
:105A3000C8040020A67E0108A27E0108802330B59C
:105A40000824154A9B02916B87B00B439363002196
:105A5000220003A80EF090FE0C23A020042501A92B
:105A60000193C0050A3B029305950BF0B7FE0B4B63
:105A70000A201A6815431D600BF0A6F80F22084B88
:105A800005201B681A629A69144310229C611A62ED
:105A90000BF09AF807B030BD0010024000440040FF
:105AA000280B002010B5041E05D0082200210EF09E
:105AB00063FE014B636010BDFF01000070B5041E62
:105AC00006D1012009490A4AFDF73CFD012070BDBD
:105AD000084D1022002128000EF04EFE2B00083346
