:020000040800F2
:1000000000500020E929010853910008559100088B
:1000100000000000000000000000000000000000E0
:10002000000000000000000000000000110A0008AD
:1000300000000000000000005791000859910008DE
:10004000D1910008392A0108E1DD0008392A0108A8
:10005000392A0108699100086B9100086D91000828
:10006000392A0108392A0108392A0108392A0108E0
:10007000392A0108392A0108392A0108392A0108D0
:10008000392A0108392A0108392A0108000000002C
:10009000392A0108392A0108392A0108392A0108B0
:1000A000392A0108392A0108392A0108B9B000089B
:1000B000C9B00008D9B00008392A0108392A010856
:1000C00010B5064C2378002B07D1054B002B02D02E
:1000D000044800E000BF0123237010BD8000002011
:1000E00000000000BC3E0108044B10B5002B03D0FB
:1000F0000349044800E000BF10BDC04600000000F6
:1001000084000020BC3E0108030C434004485843CF
:10011000044B420B42405343180C58407047C046B2
:100120006BCAEB8535AEB2C20300102809DC092882
:1001300001DC002004E0D2204002D8400123184016
:100140007047383BFF3BD520072BF6D9F1E703007A
:100150000348092B02D8034A9B0098587047C046B1
:10016000D4420108D43E0108F0B5FA250400002667
:100170000027038887B00193ED00019BAB424BD869
:10018000A278511ECBB20B2B21D8344B49005B18FF
:100190000021188D36184F41022A18D9019A0B00F8
:1001A000920710D1019864310FF046FD89B2012306
:1001B000002908D191310198FF310FF03DFD8BB23C
:1001C0005A425341DBB21800002136184F41E37800
:1001D000234A013B1800D9178019794100230FF0F9
:1001E00059FEE1220591049000232079120100219B
:1001F0000FF050FE049E059F3C2236184F4100230D
:10020000607900210FF046FE002380197941A27920
:100210008018594107B0F0BD03220023154210D1C8
:10022000642128000FF008FD89B20123002908D1BC
:1002300091312800FF310FF0FFFC8BB25A4253413D
:10024000DBB26E33FF330293DB1703930135029A5F
:10025000039BADB2B6185F418FE7C046D43E01089C
:1002600080510100F8B583180D0017000126834264
:100270000BD3C0221201934207D8114BEF19C418B7
:1002800009F042F9061E13D01E263000F8BD23786F
:1002900029788B420AD020000EF084F9002805D07E
:1002A0000123084A51680B435360EDE701340135DF
:1002B000AF42ECD10123034A51680B435360E4E79A
:1002C000000008080020024030B5C3B06B46DD1DB9
:1002D0002A0002A904000EF07BFE2A78002A03D12E
:1002E000237AA281013BA37201230020A37343B0B0
:1002F00030BDF8B50400030001270F4D0F4E1878EC
:10030000002800D1F8BD2900180012F067FE00286F
:10031000F8D0844205D0431E1B780D2B01D00A2B48
:1003200006D143790D2B03D83200DA403A4201D18D
:10033000431DE4E70120E5E7DC4201080124000059
:10034000F0B504000D0016001F0087B020001A4908
:1003500012F044FE002801D103301FE0083003787A
:10036000202B1DD0092B1BD004002378002B20D07C
:100370000D2B01D00A2B15D103AB00930F4904AB11
:1003800005AA12F073FD03280ED1059BAB420BD1D9
:10039000049BB34208D10020039B3B6007B0F0BD33
:1003A0000130DCE70134E0E723785A1E9341E4187A
:1003B000CCE70920F2E7C046E242010854BD01083B
:1003C000002273B5564C0090236868469A628023D9
:1003D0005B0101930EF0FEF8002861D12568AB683F
:1003E0005B075DD4230050331A78012A58D00122CC
:1003F0001A70E36993423FD1626D4A4B1A408023E1
:100400005B0013432200636500235032A365137021
:100410001C332B60AA68183B1343AB606369082B3D
:100420005AD1E16D2A681A4265D08023626D9B0023
:1004300013436365C023EA681B011A4214D1631C8D
:10044000DB7F002B10D12B681B070DD5AB685B073A
:100450005DD40C226B6893436B60626D324B1A4023
:100460000433FF3313436365A369002B01D10C33BD
:100470002B602C6CA4B23BE00322AB681340012B31
:1004800002D12A681A42B7D1AA68284B1A420AD068
:100490001023626D134363650123A26D1343A365AB
:1004A000234C200076BD0126AB6830003343AB609F
:1004B00008F0D8FFE26D2B6833429DD1E36D9B1AA3
:1004C0000A2BF8D92B683342F5D11023626D134300
:1004D0006365A36D3343E2E7EA680C23D207A0D536
:1004E000626D143313436365002350342370104C42
:1004F0000EF040FBD5E7E26D521A0A2A00D891E7C8
:100500002A68134200D08DE70423626DEAE72023B6
:10051000626D134363650123A26D1343A365A3E7D3
:100520009C000020FEF0FFFFFEFEFFFF1700008092
:10053000FFFF000003000448012B03D00348022BF7
:1005400000D003487047C04632440108D27C0108FD
:10055000EB420108C022074B92021B6D02201340A0
:1005600080225202934204D0034A9B185A425341BC
:10057000D8B27047001002400000FEFFF0B5684F8F
:1005800091B020220021380002AD664E12F0F8FA38
:1005900038220021280012F0F3FA0C21624C634A41
:1005A000E3680B40D35C01223B770093236D9B05EE
:1005B000DB0F7B705E4B1B681340B3663F230293D7
:1005C00023685B0303D5A023DB026B6004E0802378
:1005D00022685B021A42F8D1012322681A4200D035
:1005E000EB606368DB04DB0E2B612368DB05DB0F4C
:1005F000019363681B0E2B62E02367681B021F4098
:100600006F62236D5B0503D5A023DB00AB6004E0C4
:100610008023226D5B001A42F8D10123226D1A4219
:1006200000D06B610122A368F0211340AB61236805
:100630008903DB01DB0F9B188022AB62E368520267
:100640001340EB62E3680B40C0212B63E3680904AD
:100650000B400C216B63E3680B40042B27D0082B65
:1006600046D0002B2BD1802563682D021B045B0F25
:1006700001339D40E3682F4A1B061B0FD35C77664E
:10068000DD402D4B1D6009F029FF3567F06609F04C
:10069000C1FF706709F0CEFF009BB0670520012BFA
:1006A00003D123689B0525D4062011B0F0BD256831
:1006B000224BED06ED171D40214BED18DAE7E368FC
:1006C0002048E1689B021B0FC35C0902E068890FA8
:1006D000013110420AD12268D20605D51A48584382
:1006E0000FF024FA0500C5E71548F8E71748F6E7C4
:1006F000164DBFE7164B60361B787377FFF72AFF5E
:10070000B077FFF727FF0028CED0019B012BCBD17C
:10071000A0231B029F42C7D1019B00203370C4E776
:10072000FC0000209C00002000100240143F010843
:10073000002002402A3F01080000002000E548FF99
:100740000024F400213F010800093D0000127A0056
:100750001C010020F0B585B002933E4B0090019241
:10076000DA7F3D4ECDB2012A71D00122DA77022321
:100770003A4AD37773689A68CA225A62773A5A62B9
:100780000DF046FA002823D10B9B7468D8B20AF00A
:100790005DF90A9B0390D8B20AF058F96B4607003E
:1007A000187A0AF053F93F02039B000438431843B8
:1007B0002B4B2C4A18402060A3681340A360A36809
:1007C000A3600DF049FA002802D10122234BDA7709
:1007D000FF220121204C63685A62621DD177A21D5D
:1007E0004918D1771022154203D095432A000A32C6
:1007F000D5B2CA225A62773A5A620DF009FA002835
:100800001FD16B4618790AF021F9019028000AF0EF
:100810001DF96421050000980FF018FBC8B20AF01A
:1008200015F92D02019B0004284318430E4B7768ED
:10083000184078600DF010FA002802D10122B31D93
:10084000DA77FF22636805345A620023E37705B044
:10085000F0BDC046210100201C0100202201002023
:100860007F7F7F00FFFFFBFF3FFFFF0070B586B07B
:1008700001AE30000CF0E8FD68460CF00FFE0023DE
:10088000154A002130780FF005FB002304000D000D
:10089000124A002170780FF0FDFAFA2224184D4117
:1008A00000230021B07892000FF0F4FA0C4B2418CA
:1008B0004D41196900290BD0FA20029B8000CB1A08
:1008C000584301310FF032F900230200A4185D41B2
:1008D0002000290006B070BD80EE360060EA0000FE
:1008E0001C010020284BF7B51D68284B28481F68BD
:1008F000284B68401B680093FFF706FC244B04005C
:10090000F818FFF701FC244A009B06009818FFF72F
:10091000FBFB019020007040FFF7F6FB019B43407A
:100920001800FFF7F1FB04002818FFF7EDFB022287
:100930001A4B1B4E5A770123B56AAA681343AB6062
:10094000B36C022B0CD0032B14D00020012B0DD143
:1009500063BA2402240E2B802C70B36A186805E059
:100960001023DC4180B22C602880286801232836BF
:100970007377FEBD009B2C602860F8180019FFF704
:10098000C3FB2860F1E7C0465000F81F5400F81F71
:10099000B979379E6400F81F72F36E3C4401002061
:1009A0001C01002070B5164C40221648164912F062
:1009B00033FB164DE36CAB4204D18023226D5B0206
:1009C0009A4210D0200034220021583012F0D8F87A
:1009D00080235B0223650123E56463650CF016FD4B
:1009E0008834206070BD636D013B012BEAD8230081
:1009F00088331E680CF00AFD8642E3D1F2E7C04658
:100A00001C0100206801002000E001085442554408
:100A10007047024BD868C006C00F704700280040DE
:100A200010B5262204000021013012F0A9F801239C
:100A3000032223706271A37110BD03000348052BCC
:100A400003D8034A9B00D218906E7047EB4201080E
:100A5000D43E010803000548022B06D00448FF2BB2
:100A600003D00448012B00D003487047C862010836
:100A7000EB4201087D760108F3420108021E0BD00B
:100A80000179064B40794B43054941435B18917905
:100A9000FA2292004A4398187047C04680EE36000A
:100AA00060EA000070B5041E28D085781F230688F0
:100AB0000B2D1DD80122A521AA400901013B0A42A4
:100AC00016D10133022D13D1033BB20710D164219B
:100AD00030000FF0B1F889B21D23002908D19131FF
:100AE0003000FF310FF0A8F88BB25A4253411C334B
:100AF000E2780132D2B29A4201D8E27070BD01238D
:100B0000ED18EDB2E3700C2D01D8A570F6E70136B3
:100B1000A3702680F2E7F8B506000D00140001204E
:100B2000002A2FD0184B99422CD800271749D7718B
:100B300030000EF0FBFF6421208030000EF0F6FF45
:100B400064210FF079F83000A17064210FF074F87F
:100B50002800E1700E490EF0E9FF0D4920712800D0
:100B60000FF06AF808000B490EF0E0FF09496071C8
:100B700028000FF061F80800FA2189000EF0D6FF76
:100B8000A0713800F8BDC046FF5B260510270000A5
:100B900080EE360060EA0000F0B585B00C001F1E44
:100BA000019203D10125280005B0F0BD0A9B002B5E
:100BB000F8D002AE3200FFF7AEFF051EF2D1019B66
:100BC000E4180B4B9C420CD832880A4BB178534343
:100BD00064224A439B18F2789B183B600A9B1C6076
:100BE000E1E7054B3000E418FFF75CFFE9E7C0469A
:100BF000FF5B26051027000000A4D9FA10B51022CB
:100C00000021024811F0BCFF10BDC046A801002021
:100C1000002310B51A00180003210BF0D5FD0023A6
:100C2000032118001A000BF0CFFD002010BDC222D6
:100C3000044B52009B5C0448032B02D8034A9B00E0
:100C40009858704728080020EB420108543F0108DB
:100C50000121154B86B0DA6A0A43DA62DA6A0A4081
:100C60000192019ADA6A49180A43DA62DA6A0A409A
:100C70000292029ADA6A02310A43DA62DA6A0A40B6
:100C80000392039ADA6A04310A43DA62DA6A0A40A2
:100C90000492049ADA6A78310A43DA62DB6A0B401A
:100CA0000593059B06B070470010024030B587B031
:100CB00004000D000C22002103A811F061FF0323A2
:100CC000200001A90195029308F036FC07B030BD61
:100CD00030B504000D0087B0002A0ED0A1610C22AF
:100CE000002103A811F04CFF0123200001A9019568
:100CF000029308F021FC07B030BDA162EFE780232A
:100D000030B50824154A9B02916B87B00B4393635F
:100D10000021220003A811F033FF0C23A02004259A
:100D200001A90193C0050A3B0293059508F004FC54
:100D30000B4B0A201A6815431D6008F0FFFA0F22BA
:100D4000084B05201B681A629A69144310229C61A3
:100D50001A6208F0F3FA07B030BDC0460010024036
:100D600000440040740A002010B5084BDB7F012BC3
:100D70000BD1C021A020C901C005FFF797FFC021FA
:100D8000A020C900C005FFF791FF10BDA101002000
:100D9000A02010B50A49C005FFF788FF09490A4895
:100DA000FFF784FF09490A48FFF780FF09490A480D
:100DB000FFF77CFF09490A48FFF778FF10BDC046DE
:100DC000619800001FF2000000040050F03D000098
:100DD00000080050FBFF0000000C0050FFFF000067
:100DE000001C0050802110B500220B484900FFF77D
:100DF0006FFF0A4B9C7F012C0AD122000421084876
:100E0000FFF766FF220008210548FFF761FF10BDCC
:100E100000220421F8E7C046000400509C01002095
:100E2000000800507FB50C22002103A811F0A8FE95
:100E30001023A0200193842301A99B03C0050293E2
:100E400008F07AFB07B000BDF0B5B9B00692394A98
:100E5000059111780300384C0220012953D15278B2
:100E600000209A424FD8FA21344A9B00D2181369C5
:100E700089000493324BDF6D236BFF1838000EF0AE
:100E800055FE3C2106000EF051FE3C2105000EF0FF
:100E90004DFEFA210790890038000EF0CDFE30009B
:100EA00002913C210EF0C8FE280001913C210EF079
:100EB000C3FE079B234A00912348102111F0A2FF93
:100EC000224B234A0393069BC0210293059B08A84B
:100ED0000193049B00931C4B11F094FF02001E2011
:100EE000002A10DB44342378BF2A18D92E22AF30D1
:100EF00004A909180A700130164A04A909180A80C1
:100F0000012B02D0022039B0F0BD6423C022124868
:100F100008A909F0EDFE002809D10020F3E792B2FC
:100F2000012BEFD1002AF8D00B486333F0E70920FA
:100F3000E9E7C046C80100209C010020543F010899
:100F40009C000020FA420108D0010020077F010820
:100F5000104301080D0A0000140600200CB430B53F
:100F6000B3B036AB04CB04000D0002A8C02101933E
:100F700011F0D2FF03001E20002B04DB290020000B
:100F800002AAFFF761FF33B030BC08BC02B01847BB
:100F900070B5040086B00120002C15D00822002175
:100FA000200011F0EDFD01AE0822002104A811F08F
:100FB000E7FD30000CF048FA031E07D00F4A104935
:100FC0000520FFF7CBFF1F2006B070BD68466D46B9
:100FD0000CF064FA002803D003000A4A0849EFE73E
:100FE000FA22EB78D2009B1823806B783288A370AA
:100FF000AB78E370B378A280A371E5E722430108E0
:10100000C86201083A43010880218022F0B5414CB2
:101010008900236D920087B01940134215D13E4BD1
:101020003E4ADB6D50693E4C1B1AA3420BD9117628
:10103000FFF790FAFFF77EFA23000090394A042068
:101040003949FFF78BFF07B0F0BD9620400008F04C
:1010500075F9FFF77FFA06008020FF2140020CF0AF
:1010600085FE00283ED1FFF775FA2B4F0500FB6D7A
:1010700030000593FFF75EFA04902800FA25FFF789
:1010800059FA236D284EED000193009031000320A2
:10109000264A049B0295FFF761FFFB6D059A9B1A98
:1010A000AB4223D380238025226D9B0113438022F2
:1010B0002365236912032B4323611D4BA024196868
:1010C000E40511431960996802200A439A60FA23E3
:1010D0003100184ADB00FFF741FF5020A56108F0FE
:1010E0002DF9A56200220D4B1A76ACE7322008F0EC
:1010F00025F98022236D92001342CED190218020C9
:10110000490080020CF032FE31000B4A0420FFF748
:1011100025FFE7E7001002409C0000201C02002091
:1011200010270000524301088C4301089043010836
:1011300000040140DD43010806440108054B10B5D9
:101140001871FFF787FC0300034A02200349FFF7E9
:1011500005FF10BD000000203644010834B201082C
:10116000F0B591B02022002108A811F009FDA94B8B
:10117000A94DDB7F18009C46431E9841A74B404277
:1011800018402B6B2D30FF30002B19D0A44EF26D80
:10119000D71A874232D29B1A1C18A24BA24A059337
:1011A0006346A24903930290059B03200197009494
:1011B000FFF7D4FE200008F0C1F8F36D2A6B9B1AEC
:1011C0009A499B4A03200691FFF7C8FEA0200122FE
:1011D0000421C005FFF77CFD642008F0AFF8954DB1
:1011E000954B2A689A420BD0A02000220421C0050A
:1011F000FFF76EFD0324200011B0F0BD3B00DFE7D8
:101200000F270826FFF77BFD28000DF0A5FD2C68B1
:1012100014202762A3693343A36108F08FF8276283
:10122000A36964203343A36108F088F8642305228E
:101230002800824909F05CFD041E00D0E7E02B0085
:1012400004CB176291690E439661DA6F202A00D0B1
:10125000DBE029000831C8672221D967704B286676
:10126000DB6D29000793152358310B8029005A3173
:101270000B808023AA685B019A4204D12B69002B62
:1012800012D0FF230EE0002A04D12B69002BF8D0E6
:101290007F2307E080235B059A4237D12B69002B1F
:1012A000F6D03F23059333E00600654B08AF059366
:1012B000644A1380644B5F4D1B88002B2BD104358F
:1012C0002033EB67642008F039F8A02000220421C5
:1012D000C005FFF7FDFC002C00D08CE71522069816
:1012E00008A90DF067FC0123584D08A86E796B71B1
:1012F0000CF0F8F8731E9E41041E6E7100D07AE760
:10130000534A06990320FFF729FE74E7030005906E
:10131000270008AECCE7962320212800079ADB009F
:101320000DF000F9002850D020222B1DDA67EFF3D2
:1013300010801F3A82F310882968464C0B682340BE
:101340000B6080F31088EFF3108082F31088296817
:101350008B6893438B6080F310882B6E93420AD185
:10136000EFF3108183F3108810202A6813688343F9
:10137000136081F3108840212B689B680B4234D0A6
:10138000EFF31080012383F310882A6893688B435E
:10139000936080F310886C6F002C26D0002320000F
:1013A000A36308F075F800281FD0E36B202B1CD135
:1013B0002B0010220833DA670F222B680C241A62E4
:1013C0009969073A0A439A617CE72B68059A5B6A38
:1013D0001340002E06D13B8002371B4A1388013B85
:1013E0009BB266E733700136F7E72B0000205A33D3
:1013F00018802B000F2104CB116294690739214317
:1014000091612022DA672866D6E70A245AE7092480
:10141000F1E6C0461D0200201C02002098080000D2
:101420009C000020514401085F44010834B20108C7
:10143000BD440108740A0020004400407C3F0108BC
:10144000FF010000D00A0020CE0A0020000000208A
:101450000B450108DFFEFFFFF0B58BB0051E0691BE
:10146000079203D1012420000BB0F0BD08AE30007C
:10147000FFF78EFD041EF6D133881F4CB2785C4313
:1014800064235343E418F3783000E418FFF7F6FAC6
:101490002B00069A194E0C33010000932000724372
:1014A000043BFFF779FB041EDCD1EF68686228611A
:1014B0006861134938000EF0BFFB0800FA2189006B
:1014C0000EF034FB3100049038000EF0B5FB08003C
:1014D0000B490EF02BFB3100039038000EF026FB79
:1014E0000290AB68074A0193069B074900930420CA
:1014F000079BFFF733FDB6E71027000080EE3600AC
:1015000060EA00003745010834B2010870B51A4C92
:10151000E37F012B2AD0194D194E2900194A0220C8
:10152000FFF71CFD002204213000FFF7D1FB3369D7
:101530005B071CD529000520134AFFF70FFD082182
:101540000F48FFF7B3FB4022104BD9691142FCD082
:1015500004211A680A488A431A600139FFF7A6FB7A
:10156000FA20800007F0EAFE0123E37770BD29002E
:101570000120074AE1E7C0469C01002078450108A8
:1015800000080050984501087D45010800480040CA
:10159000944501088023F0B52D4A2E4D916BDB0256
:1015A0000B4389B00421936328000122FFF790FBCD
:1015B0002B69294E5B0747D531000120274A0824B3
:1015C000FFF7CCFC012208212248FFF781FB220013
:1015D000002105A811F0D4FA0323022703A90393DD
:1015E0001C48DB180793049707F0A6FF0A2007F0B2
:1015F000A5FEAC62C82007F0A1FE0423184AAC6126
:1016000011680A200B43136007F098FE0F22154B58
:1016100005201B681A629A69144310229C611A62A1
:1016200007F08CFE0023104C310038000F4AE3779E
:10163000FFF794FCE07FA37F0D4A00900D49032043
:10164000FFF78CFC09B0F0BD310005200A4AB6E76F
:10165000001002400008005078450108A945010823
:10166000004800409C0600209C010020AD45010878
:10167000D3450108FB450108BD45010870B50A4D79
:1016800004002B7F0220012B07D1AC77FFF7E0FA93
:10169000002C03D1FFF73AFF002070BDEB7F002B39
:1016A000FAD0FFF777FFF7E79C010020F0B587B08D
:1016B000FFF7CEFA634F644C3B6ADA0704D5802209
:1016C000616B92000A4362639A0708D58021226BFE
:1016D00049010A432263226B0A400092009A5A078A
:1016E00004D58022616BD2010A4362631A0704D5D4
:1016F0008022A16B92020A43A263DA0604D58022FB
:10170000A16BD2020A43A2639A0604D58022A16B80
:10171000D2030A43A2635A0604D58022A16BD205E4
:101720000A43A263DB0503D50123626B13436363A2
:10173000FB7F012B0CD1002204214448FFF7C8FA9B
:1017400008214248FFF7B2FA03214048FFF7AEFAFA
:10175000FFF71EFBFFF746FBFFF764FB8023626B7E
:10176000DB0113436363C023DB000193A02002234A
:101770000025042601A90293C005013304930596B0
:10178000039507F0D9FE324B0A201A6816431E60F3
:1017900007F0D4FD0F2208262E4B05201B681A6285
:1017A0009A6932439A6110221A6207F0C7FDFFF767
:1017B000A6FA8023A26BDB03134329003200A36344
:1017C00003A811F0DDF9C0231B010193122301A925
:1017D000029321480C3B059307F0AEFE8023A26BD9
:1017E000DB05134329003200A36303A811F0C8F9F5
:1017F0008023A0205B000193EE3B029301A90B3BE9
:10180000C005059307F098FE802301A99B000F48AF
:10181000019307F091FEA0202A008021C005FFF768
:1018200057FA2A0020210C48FFF752FAFFF79CFADA
:101830000A4A0B4903207D77FFF790FB280007B089
:10184000F0BDC0469C01002000100240000800507E
:101850000038014014060020000400500146010831
:1018600078450108010000230F2070B50A00DA4016
:101870000240092A11D80433202BF7D10023012478
:1018800018000F260A250A00DA403240624304336A
:101890006C438018202BF6D170BD0020FCE70300BC
:1018A0000020182B03D80248D84001231840704765
:1018B0005E110001F0B5461DF37F9DB01393831DAB
:1018C000DB7F04001493C31DDB7F119303000833F7
:1018D000DD7F20331B781593030029331B78169383
:1018E00003002A331B78179303002B331B781398BC
:1018F0001893FFF7D4FF01231293984201D1139B51
:101900001293129B1498F377FFF7C9FF0126B04298
:1019100000D1149E0027A31DDE77119BBB4206D089
:101920001800FFF7BCFF0137B84200D1119FE31D3B
:10193000DF77002D00D06BE00023199354226B4613
:101940009B18159A1B78002A00D00123DBB21A934A
:10195000169B0A20002B00D01800179A0523002A96
:1019600000D01300FA21642289005A4341431B939B
:101970008A4205D90A234343DBB2002B56D01B937E
:1019800021001A9A28310A70189A4870013A8B700F
:1019900051424A412B34D2B2944622701399129A82
:1019A0008A4213D1149A964210D1119A97420DD1BE
:1019B000199A95420AD1169A904207D1179A9A42DB
:1019C00004D1159A18990A43012A1ED964460C932A
:1019D000179B0E940B93169B189C09931A9B0A90C5
:1019E0000893159B04200793199B114A0693119B9A
:1019F00010490393149B04970193129B0296009342
:101A0000139B0D940595FFF7A9FA00201DB0F0BDBA
:101A10002800FFF744FF012803D11995AE4200D3F7
:101A20008CE7230000220833DA7785E70123A6E755
:101A300044460108D046010810B5002104002A22BE
:101A4000023011F09DF8A32308222370333B63700A
:101A5000E31CDA77231D1C32DA770123621DD3776A
:101A6000A21DD377E21DD3772132137023000A22FF
:101A700029331A70053A20005A70FFF71BFF10BD7A
:101A800073B50400484D02202900484AFFF766FA62
:101A900023784749A12B03D04649A32B00D14649BF
:101AA000464A009102202900FFF758FAA61C6378E5
:101AB0002900434A0220FFF751FA0A223100414827
:101AC00009F082FB210010223F480C3109F07CFB19
:101AD000210005223D481C3109F076FBE11CC97F3D
:101AE000F37F3B4A009102202900FFF737FA231DBC
:101AF000DB7F384AD90901919906890E00910220AD
:101B00002900FFF72BFA631D2900DB7F324A0220F0
:101B1000FFF724FAA31D2900DB7F02202F4AFFF7DD
:101B20001DFAE31DDB7F2E49002B00D12D490091CA
:101B3000022029002C4AFFF711FA23000833DB7F2B
:101B40002A49002B00D12A4900912A4A2900022063
:101B5000FFF704FA2300283329001B78264A0220C5
:101B6000FFF7FCF92300293329001B78234A0220C0
:101B7000FFF7F4F923002A3329001B78204A2B347D
:101B80000220FFF7EBF9290023781E4A0220FFF715
:101B9000E5F91D491D4A8B7C898A022000912900A4
:101BA000FFF7DCF973BDC046D046010802470108C3
:101BB000D4460108E0460108D94601082347010838
:101BC000424701085C4701086C4701087847010853
:101BD00088470108A1470108D9470108F7470108CC
:101BE000895D0108D2B3010815480108F7460108CC
:101BF000E8460108394801085C48010872480108B4
:101C0000884801089E48010800000020B4480108E7
:101C100070B5082403004118094D0A481A781202C9
:101C20005040220006B2400080B2002E00DA684028
:101C3000013AD2B2002AF5D101339942EED170BDFA
:101C400021100000FFFF0000030070B5C0249D18A4
:101C5000080024010121A54204D80349591811F0B4
:101C6000DBF90021080070BD000C0808F8B5C0239E
:101C7000861805000F0001201B019E4212D807F0B4
:101C800043FC00280DD12C007B1B195D0A4BE0188A
:101C90000CF088FC002806D00123084A51680B4349
:101CA00053601E20F8BD0134A642EDD10123034A42
:101CB00051680B435360F5E7000C08080020024010
:101CC0007FB56C4609220021E01D10F059FF134B2F
:101CD000134D0093012323716B7C10216371AB7C46
:101CE0006846A371AB8A2381EE8A0136B6B266815B
:101CF000FFF78EFFA081287E502101300DF09CFF60
:101D00001022297608016946FFF7B0FF002802D1AA
:101D1000EE8204B070BD1E20FBE7C0464754534D11
:101D20009C020020F0B500242600270097B00A226C
:101D300021004148009401940494029410F020FF83
:101D4000102221000EA810F01BFF059407940894A0
:101D50000394069B0AAD0A93009B10226B71019BB2
:101D60002900AB71029B38016B81049B2C71AB8104
:101D7000FFF76AFF0A9B099006936B792C79009311
:101D8000AB7901936B890293AB890493002834D11A
:101D9000069B2A4A934230D1012C2ED1009B472B1F
:101DA0002BD8019B482B28D81022290012A811F00B
:101DB00033F9099A102112A8AA85FFF729FF049B7D
:101DC00098421AD1039B002B03D0029B9B1B1B0440
:101DD00013D41A4B0AAD0A930123102229000EA82E
:101DE0002B7111F019F92B89029E0593144B039462
:101DF0001F76019B0793009B08930137502FA8D1B2
:101E0000039A0F4B002A08D101329A821A74FFF705
:101E100057FF00280CD01E200BE0089ADE825A746F
:101E2000079A9A74059A9A8201221A74002EEED0AB
:101E3000002017B0F0BDC046AC0200204754534DFF
:101E40009C02002070B5154E0500337C0C00012B60
:101E500005D0FFF767FF002801D01E2070BDB37CBE
:101E60000120AB42FAD9707C482140190DF0E4FE04
:101E70001822A0235143DB00C8182100FFF7E4FE1D
:101E80000028EAD103002100A27D16340D7801312B
:101E90006B40A142FAD19A42E0D0DEE79C020020DA
:101EA00070B50F4C0500237C012B05D0FFF73AFFDE
:101EB000002801D01E2070BD0021A67C0B00AE4280
:101EC00007D9607C483140190DF0B6FE761BC9B2C7
:101ED000F3B26174A374FFF7F3FE0028EBD0E9E7D7
:101EE0009C02002003000800991870B50124994253
:101EF00008D3C0252D01A94204D80349002459184C
:101F000011F08AF8200070BD00000808012310B508
:101F1000002805D0027A002A02D0FEF7D5F9002366
:101F2000180010BDF0B5CDB0040003910120002CC5
:101F30003DD0A37B83423CD1237A06AE0193A07AA5
:101F4000190001300DF078FE6B4604911B7C3200C5
:101F5000059300230893A389677A01339BB2029308
:101F60001D4B7771069301233371029BF38009ABFC
:101F700023CA23C33A001800039911F04DF8390021
:101F800009A80C31FFF744FE0199070060680DF0C5
:101F9000CDFD049B0C224343180023683100C51873
:101FA00028003781FEF75EF9002808D01E204DB0CA
:101FB000F0BD2000FFF7AAFF0028BDD0F6E72800FB
:101FC000627A03990C30FEF74DF90028EED1059B9B
:101FD000A372029BA381EAE74746435300B58DB045
:101FE00001002C2201A811F017F801A8FFF762FCEC
:101FF00001A90248FFF796FF0DB000BD08000020C0
:1020000070B5837B04000D001600012B06D1200063
:10201000320029000CF0DCFF002070BDFFF776FFD6
:102020000028F4D01E20F8E773B56B460500DE1DCE
:10203000320029000948FFF7E3FF041E0BD1337873
:102040002800002B04D1FFF7F7FC0234200076BDF6
:10205000FFF730FCFAE71E24F8E7C046080000202E
:10206000F0B591B0060001250291002835D0002975
:1020700033D005A8FFF7D8FFFD2305001D40184207
:102080002AD102AAEC3B9B18DF7F154C3800FFF7E2
:1020900006FC012817D0134F029B21001B68180073
:1020A00003930DF0C9FD7A1AB94203D3641ABC42F6
:1020B00013D2E219029B0399009330683300FEF7B4
:1020C0006BFD050009E07C43002C06D0054B1F008A
:1020D0009C42E1D86708DFE71E25280011B0F0BD5B
:1020E00080EE3600C0D40100F0B5434C0025637F7C
:1020F0008FB0012B7DD1230044335B78012B78D145
:10210000E76A266B3B003343AB4201D1676AA66A9C
:10211000E36C0025BB426CD1236D0C93B34268D9AC
:10212000364A9B1B934264D8354B310000933800EC
:10213000344B354AFEF730FD051E5AD1304931483F
:10214000FFF78EFF051E54D1236D30000D932E4BEB
:102150002E490B930DF070FD0800FA2189000DF057
:10216000E5FC2B490A9030000DF066FD0800274978
:102170000DF0DCFC2649099030000DF0D7FC234916
:1021800008900D9807970DF057FD0800FA21890077
:102190000DF0CCFC1E4906900D980DF04DFD080089
:1021A0001A490DF0C3FC1A4905900D980DF0BEFCBC
:1021B0000490E36C15490C9803930DF03DFD080065
:1021C000FA2189000DF0B2FC114902900C980DF033
:1021D00033FD08000D490DF0A9FC0D4901900C9844
:1021E0000DF0A4FC3B0000900A4A03200A49FEF7C8
:1021F000B5FE28000FB0F0BD9C020020BFD4010046
:10220000EC020020E8020020C0D4010060EA0000D7
:1022100080EE3600CB48010834B20108F0B595B025
:10222000FEF7F7FB0590012811D0374B374CDB78D0
:10223000002B04D00420364A3649FEF78FFE0022D8
:102240006C342280E2700224200015B0F0BD07A893
:10225000FEF79EFE041EF7D109A8FFF7E5FEFD2359
:1022600004001C40184249D1DC3B02AA9B18DD7FC8
:102270002800FFF714FB012842D10221224BFF3135
:102280001A88224F8A4205D19A78AA4202D1DB7875
:10229000012BD9D03E0029006C3607A8B5700AF092
:1022A00043FD00282ED10223FF333380013B7D6F95
:1022B000FF3BF370B3782800174905930DF0BCFC81
:1022C0000800FA2189000DF031FC14490390280020
:1022D0000DF0B2FC080010490DF028FC0F490290E7
:1022E00028000DF023FC01903B6F0D4E009332004F
:1022F000059B08490320FEF731FEA5E71E24A3E74E
:10230000059DBAE7059C9FE7080300209C0200207A
:102310005549010834B2010860EA000080EE360039
:102320009149010810B58EB003A8FFF77DFEFD238B
:1023300002001E201A4216D1EB3B6B44DC7F2000CA
:10234000FFF7ADFA012800D00124084B21000193CA
:10235000074B08480093084A084B0AF0C3FA0028C4
:1023600001D1FFF7C1FE0EB010BDC046D149010832
:10237000EE490108B80200204356525320BF020024
:1023800000B58FB003A8FFF74FFEFD2302001E200B
:102390001A420FD1EA3B6B44D97F074B07480193A0
:1023A000074B084A0093084B0AF09CFA002801D119
:1023B000FFF79AFE0FB000BD044A0108E0020020BA
:1023C000244A0108544D474D00530700F0B595B01D
:1023D0000F90002802D1012015B0F0BDFFF7A2FF39
:1023E000FD230A901842F7D1FFF7CAFF071E04D059
:1023F0000228F1D10A9B002BEED112AC2000FEF78F
:10240000C7FD0028E8D12288864BA1785343642277
:102410004A439B18E27820009B180B93FEF72EFB93
:102420000A9B0E90002B07D0002F00D1DBE07E4BE3
:102430000F9A196DD86CEDE00A9B0C937A4C0B9BAC
:10244000656AA66A9D4203D35CD80E9B9E4259D80A
:102450002200236C403201922200200010932300BE
:1024600028320092290032001C3024330AF02AFB63
:102470000028B1D10C9B6D4901330C93A36A0D93D5
:102480000C9B0D980893109B07930DF0D5FB08004B
:10249000FA2189000DF04AFB654906900D980DF070
:1024A000CBFB080061490DF041FB614905900D9897
:1024B0000DF03CFB0490636A30005C4903930DF01F
:1024C000BBFB0800FA2189000DF030FB584902904F
:1024D00030000DF0B1FB080054490DF027FB5449C2
:1024E000019030000DF022FB2B00524A009052491F
:1024F0000420FEF733FD80230C9ADB009A429DD125
:102500001F2069E7002F00D081E0012310930025F0
:10251000454C0B9AE36C0D93236D0C930D9B9342EA
:1025200004D362D80C9B0E9A93425ED826002700F3
:10253000A36E4C3650371193404A33000E990B98D6
:102540000097FEF729FB002800D044E7390030004F
:10255000FFF786FD002800D03EE7384B266DA066C9
:102560000893119B300031490135079309950DF00F
:1025700063FB0800FA2189000DF0D8FA2C49069077
:1025800030000DF059FB080028490DF0CFFA28491A
:10259000059030000DF0CAFA0490E36C0C982349C2
:1025A00003930DF049FB0800FA2189000DF0BEFAF3
:1025B0001F4902900C980DF03FFB08001B490DF0DD
:1025C000B5FA1B4901900C980DF0B0FA1A4F0D9B0B
:1025D0000090390004201A4AFEF7C0FC8023DB007B
:1025E0009D4295D18CE7109791E70A9B002B14D060
:1025F000109B012B00D01AE7E36C656A9D4200D95D
:1026000015E7A66A03D3236D9E4200D30FE731007E
:1026100028000F9AFEF77FFADEE6FFF765FD002837
:10262000E6D0D9E6102700009C02002060EA0000F6
:1026300080EE3600374A010834B2010830750000D8
:10264000C34A010837B56B460400DD1D2A0021008E
:102650000748FFF7D5FC002807D12B78002B03D1C2
:102660002000FEF7DDF902203EBD1E20FCE7C0463B
:1026700018000020F7B505006424104B104E00939D
:10268000104BF76D0193F36DDB1BAB420CD20122B3
:10269000019B1A70F36DFB1A5B19A34209D2F46D0A
:1026A0003C1B6419002C04D10122009B7C331A705E
:1026B000F7BD200006F042FEE5E7C0469C02002080
:1026C0009C00002018030020F0B50124344B354E47
:1026D00087B0039333780590A34250D1324B334DEA
:1026E000DB6D334A0293039B7E331B78A34204D0F5
:1026F000304B9B7F012B17D12F4A29000220FEF778
:102700002DFC00270026284B029A0493DB6D9B1AB0
:10271000059A9A421ED83B0029000520274A0096B8
:10272000FEF71CFC0C242AE029000220244A254B39
:10273000FEF714FC3778012F09D109F0B5FA00280B
:1027400005D129003800204AFEF708FCDAE71F4AC5
:102750001649D3E709F0A6FF0400031E12D1012297
:10276000039B02997E331A70049B0220DB6D184A8A
:102770005B1A019329003B000096FEF7EFFB200057
:1027800007B0F0BD01361E2E05D12900114A0520E3
:10279000FEF7E4FBC6E7C820FFF76CFFB3E7C046CF
:1027A0009C020020190300209C000020FB4501082A
:1027B000584B01081C020020944B0108294C0108C9
:1027C000C84B010810270000EC4B0108014C010820
:1027D000544C0108874C010870B50124194B1B7833
:1027E000A34216D109F042FB174D184A29000320D5
:1027F000FEF7B4FBFA230822154916485B0008F0DF
:1028000077FA002807D029000420134AFEF7A6FB18
:102810000834200070BD96204000FFF72BFF0F48C2
:10282000FFF752FF041E06D0030029000C4A0420C3
:10283000FEF794FBEDE729000A4A0320FEF78EFB22
:10284000E7E7C04619030020FB450108AF4C01082B
:10285000C74C01089C060020D04C0108A86100006C
:10286000EF4C0108224D0108F8B5040001270E4D78
:102870000E4E0378002B01D11800F8BD290010F08E
:10288000ADFB0028F9D0844205D0431E1B780D2BE8
:1028900001D00A2B06D183780D2B03D83200DA4001
:1028A0003A42EAD10230E4E7AE9D0108012400007B
:1028B00070B50500002405291ED9FFF7D5FF0134A6
:1028C000002819D12800FDF714FD0400012813D0B9
:1028D00028000A4910F082FB00280DD00A212800A8
:1028E00010F034FB0124002806D10D21280010F03F
:1028F0002DFB431E9841C4B2200070BD3D4D010820
:1029000070B505000C1E01D000230B602B7802204F
:10291000002B09D02800114910F060FB00280ED0D0
:102920000B30002C02D1072070BD01300378202B22
:10293000FBD0092BF9D010F080F82060F3E72800D5
:10294000FDF7D7FC03000620012BEDD02800FFF790
:102950008BFF43425841C000E6E7C0463D4D0108A9
:10296000F0B50126002589B07642040003960120C7
:102970000295AC423AD029005822200010F000F90C
:10298000FF23A3706B46A3486670991DDD8009F094
:10299000A1FEA84206D103A808F094FFA8420DD1D9
:1029A000039B6370039B002B22DB012B20D00123B0
:1029B0002370994BDB6DE364002017E00728F1D109
:1029C000964802A9FFF79CFF029D2800FDF7ACFB8B
:1029D0000128E7D12B00924A92490430FEF7BEFA53
:1029E00002231F2023708C4BDB6DE36409B0F0BD24
:1029F0006A4600238C48911DD38009F06BFE0028A5
:102A00003CD1864D04A92800FFF77AFF002835D174
:102A10002800864910F0E2FA051E2FD007352B78E2
:102A2000202B10D0092B0ED02800814906AB05AA17
:102A300010F01CFA022821D1069B032B00D087E05E
:102A40002B00202102E00135E9E701331A788A439F
:102A5000FBD118000278854277D22C2A73D1451C0D
:102A6000AB4274D900230A22280007A9079310F06B
:102A700079F80323079AE37095426BD16A460023E5
:102A80006C48911DD38009F025FE00281BD1634DB1
:102A9000069006A92800FFF733FF002813D128006D
:102AA000654910F09BFA00280DD007300378202BE1
:102AB00058D0092B56D0614907AA10F0D7F9012840
:102AC00001D1079BA3700422E3789343012B67D1C4
:102AD0006A4600235A48911DD38009F0FBFD002867
:102AE0005ED14E4D207207A92800FFF709FF00288C
:102AF00056D12800534910F071FA002850D00930FF
:102B00000378202B30D0092B2ED025002C2108351E
:102B100010F01CFA002838D001224B4E0130037807
:102B2000093BDBB2192B23D83100D9400B001340ED
:102B300011421BD1E71DC25C0D2A1BD9222A22D0CB
:102B40002C2A1CD11FE0013884E72C2A87D00323CC
:102B5000E37093E78022520290428FD20123A0803B
:102B6000A3718BE70130A1E70130C9E70130D6E757
:102B70000023DFE7354E012116410E4203D0013319
:102B8000FA543F2BD7D10022EA54237A002B07D0E6
:102B900028002F490CF0B8FF002801D00123E37171
:102BA0006378FF2B0CD0012B0AD0012323701A4B22
:102BB0005822DB6D2100E364264810F02DFAFBE675
:102BC000E378032B05D004229343012B12D0032377
:102BD000ECE7A17901290BD1A2880823132AE5D0BB
:102BE0001A2A05D81C4BD3400B4201D00923DDE73C
:102BF0000723DBE7A378012B01D02270D7E7E37925
:102C0000012B01D00523D1E7062222702200483291
:102C10001370CCE7494D01089C00002024070020D8
:102C2000544D0108FB4501086F4D01087B4D01081B
:102C300057BD0108834D01088F4D0108F6B9010801
:102C4000974D0108A44D010801008002FEDBFFFF43
:102C5000AE4D01081C03002004010004024B80005B
:102C60001B18186B7047C046543F010837B5002346
:102C70006A460124D380184B1B78A34213D1174D09
:102C8000174A29000220FEF769F96B4615481649D4
:102C90009A1D09F0D7FC041E07D003002900052067
:102CA000124AFEF75BF920003EBD21001048FFF7F5
:102CB00027FE041E09D0FFF7D1FF290003000D4AAB
:102CC0000520FEF74BF91F24EDE729000A4A0220F0
:102CD000FEF744F9E7E7C04619030020FB45010869
:102CE000B64D0108D94D0108905F0100E54D01087E
:102CF00024070020024E01081B4E0108F0B5A7B0C2
:102D00000C1E0A9004D05822002120000FF038FF3A
:102D100000252E005822002110A80FF031FF7E4B15
:102D20000220DB6D7D4A0E937D490A9BFEF716F962
:102D30000A9B0B950C930D9508950795764B10AF54
:102D4000DB6D38000F93FFF70BFE079B09900133F3
:102D500007933B65089B7B651F2811D13878FDF7E9
:102D6000F6F903006F4A6E490520FEF7F7F8002CCC
:102D700004D05822200010A910F04EF91F2327E09C
:102D8000099B002B26D00120674A6549079B0090CC
:102D9000FEF7E4F8604B0E9ADB6D9F1A0C9B9F4286
:102DA00000D2B3E02800FDF7D2F90B9B009003930B
:102DB00005205E4A5A49079B02960197FEF7CEF816
:102DC000002C04D05822200010A910F025F90C2363
:102DD00009936CE03878A8421DD0FDF7B8F9FA786D
:102DE0008446534B7878052A03D8524B92009B189F
:102DF0009B6D12AF10AD0597AF884F4A0497AF781F
:102E0000029363460190009301204549079B039775
:102E1000FEF7A4F82D780F9B0E9A9F1A032D2BD145
:102E200010AB9A79012A57D05B78012B54D1731CCF
:102E30005A1E9341F6180B9B012BABD00A9BBB4249
:102E4000A8D810AB1A78032AA4D19B79012BA1D062
:102E5000072E9FD9394A0A9B944663440C930293E8
:102E6000079B04200093364A63462D490196FEF7DE
:102E700075F801230B938DE7681E08282CD80CF0F9
:102E8000E1FE27192B2B2B05351F2300079B032061
:102E9000019312AB00932B4A3B002149FEF75EF8E9
:102EA000002C04D05822200010A910F0B5F8099881
:102EB00027B0F0BD244A1A490520FEF74FF856E71F
:102EC00010AB9B88214A4EE710AB9B88204A4AE70B
:102ED0000D9B012B02D10D950026ACE71D4A104930
:102EE0000120FEF73BF8FFF7C1FEF4E7089B0C4911
:102EF00001330893022B01D9174A35E70323174AF8
:102F000000930120089BFEF729F8E5E7FA20C000AE
:102F1000FFF7B0FB12E7C0469C000020274E0108D7
:102F2000FB4501084B4E0108714E0108675001082E
:102F3000D4420108543F01088E4E0108C0D401005C
:102F400010500108D84E0108124F01083B4F0108EC
:102F5000714F0108A84F0108BF4F0108F14F010848
:102F6000F0B5254C1600A5446A4600230124538180
:102F7000224A050012780F00A2421BD19E4200D0C7
:102F80003370AF212B001E4AC90004A80FF03AFF8E
:102F90000A236B441A001B4904A809F053FB041EC2
:102FA0000CD0012F06D000902B000220164A1749A2
:102FB000FDF7D4FF2000164B9D44F0BD154803A932
:102FC000FFF79EFC0400002E00D0307000280CD0CB
:102FD000012F08D0FFF742FE2B0000900E4A02207E
:102FE0000A49FDF7BBFF1F24E4E72B000B4A074902
:102FF0000120FDF7B3FFDDE774FAFFFF190300209E
:10300000D050010888130000DF500108FB4501087B
:103010008C050000240700200551010827510108F4
:10302000F0B50024260027002500204B89B0059329
:10303000022006231E4A0599FDF790FF0494002301
:1030400002AAD37517339B181A0001212800FFF735
:1030500087FF002813D1049B013304930122154BF1
:10306000AD181A70072DEAD1134A049B05990294F2
:10307000019600970220FDF771FF09B0F0BD1F28EF
:1030800009D1022202ABDB7D063B9343DBB2002B6E
:103090000AD10137E2E70300093BDBB2012B01D97A
:1030A0000C2801D10136D9E70134D7E7FB450108E7
:1030B0003E5101081803002063510108F0B50024B7
:1030C000654B9DB0DC770123644F654E7B77654B84
:1030D00031000293DB6D644A0320FB62FDF73EFF83
:1030E000FFF79EFF614B1B78012B00D09CE03A7FDD
:1030F000032A00D08BE05E4A5E495F4809F01AFB64
:103100000500A04200D07BE002237B77029BDB6DB1
:103110000593544B059ADB6D9B1A584A93422BD961
:103120003100574A0420FDF719FF0C233100042019
:10313000544AFDF713FF0C25534A5449544809F0EB
:10314000F9FA041E05D00300524A04204449FDF751
:1031500005FF0323414E00207377FEF78FFA4049A5
:10316000071E68D0022305204B4AFDF7F7FE022315
:10317000F37738001DB0F0BD06AC582200212000C6
:103180000FF0FEFC2000FFF7EBFB354A031E049214
:103190002CD138002100582238300FF03DFF207824
:1031A000FCF7D5FFE57803003C4C052D03D83C4ADD
:1031B000A9005218946D04AA927A032003920399ED
:1031C000384A019100940499FDF7C8FE002D03D000
:1031D00004AB5B7A012B0ED0039B03200093324A91
:1031E00023001F49FDF7BAFE0025A5E704202F4A5A
:1031F0000499FDF7B3FEFA208000FFF73BFA88E759
:10320000030031002A4A0420FDF7A8FE94E7234B6F
:10321000062A03D8224B92009B181B6F3100254AC7
:103220000320FDF79BFEDFE731000420224AFDF773
:1032300095FE25008DE704237377029BF077DB6D05
:103240001E4A3363731CDC7703201D4B01940095E9
:10325000FDF784FE8DE7C0461D0200201C02002001
:10326000FB4501089C000020B6510108190300200D
:103270000B5201081652010821520108973A00002A
:10328000A8520108CB52010869530108765301087E
:10329000805301088C530108FE530108D4420108F1
:1032A000543F01082E5201085A5201088152010868
:1032B0000053010839530108C45301082C54010874
:1032C000224E0108F0B56C4C89B003006B4A0691A0
:1032D000009104202100FDF741FEFFF7EFFE0028DA
:1032E00008D0022321000420654AFDF737FE0020A4
:1032F0000BF09EFD634B1D78082D26D0A827092DC5
:1033000024D0FDF77BFC00245F4B22001421062013
:103310001C70069B09F058FAC42201215B4B520035
:1033200099545B4D043A49189954AB7904200093A1
:10333000584A23005849FDF711FE2000EC7105F0B2
:1033400077FEA0425ED01E205CE03027FDF756FCE1
:103350000123524C2373A573FDF75BFB012866D153
:10336000FEF7E0FF022844D1FFF70AF802284BD10C
:10337000012363734A4B5A7F012A4FD00022190060
:103380004431497801294ED1D96C1B6D012A06D1EF
:103390002269914203D304D862699A4201D3216120
:1033A00063612800FCF7D3FE656907903D4928005A
:1033B0000CF042FC0800FA2189000CF0B7FB3A49F6
:1033C000049028000CF038FC080036490CF0AEFBE5
:1033D0003549039028000CF0A9FB02902369334E75
:1033E00001933200079B244900970420FDF7B6FDA6
:1033F00089E7002806D139002D4A2E48FEF72CF81F
:103400000028B1D009B0F0BD0028FBD139002A4A0C
:103410002A48FEF721F80028AAD0F3E7596A21616B
:10342000996A6161ABE7012A00D06AE7B9E7002336
:103430006373E12380221B017B43A361204B520273
:103440001A6080231F4A20495B020320FDF786FD96
:10345000A6691E4B2800F618A661FCF778FE03004B
:103460008020400201901A4A0349029600970420E6
:10347000FDF774FD47E7C04634B201086654010801
:10348000AC54010854020020D40300202808002076
:103490007403002004560108305601089C010020E6
:1034A0009C02002060EA000080EE3600F254010821
:1034B000EE490108B8020020244A0108E002002079
:1034C000B00300205D550108C86201080000FFFF3D
:1034D00095550108F0B5FA27A54D93B0EB6D7F0027
:1034E0000593A44BA44A0393039903000690009705
:1034F0000220FDF733FD3800FFF7BCF8059AEB6DAD
:1035000000269B1A069A9A4209D89C4A05200399DC
:10351000FDF724FD01229A4B1A701F2462E001235B
:103520005B420493974B03960793002106ABD98126
:10353000079B0A911F78012F65D10CAC082220004F
:103540000FF01EFB09F0AEF88A4D061E15D00300E1
:10355000290003208C4AFDF701FD1F2E00D09DE0BD
:1035600000241F260122864B82491A700520330051
:10357000864A0094FDF7F2FCCFE7854A85498648E4
:10358000277009F0D7F8854A061E0BD10E2306AA2C
:103590009B181A0082488349677009F053F8061E89
:1035A00004D0814A330029000520D4E77F4E0EAFB6
:1035B00038700BA93000FFF7A3F9041E15D13800AD
:1035C00008F047F8041E10D12900794A0320FDF7BE
:1035D000C5FC674B059ADB6D29009B1A0220754AD2
:1035E000FDF7BCFC200013B0F0BD072C4CD130001F
:1035F0000AA9FFF785F90A9C052023006E4A5D4958
:10360000FDF7ACFC0C262000FCF78EFD0500012820
:10361000A8D0002C00DC81E0049B0125A34202D14C
:10362000039D0135EDB20420524F644A2300390056
:1036300001900095FDF792FC01220494042D71D1B4
:10364000002306AA13820122524239000B920E93E4
:103650005B4A23002800FDF781FC5A4851490AAA19
:1036600008F0F0FF031E03901AD039002800564AD4
:103670000094FDF773FC554A3E49039B00940420D7
:10368000FDF76CFC0C24ADE72000FFF7E7FA2900FA
:1036900003004F4A0520FDF761FC61E70024B2E713
:1036A0000BA808F00FF907280DD140480EA9FFF725
:1036B00027F9484A0E9B009439002800FDF74EFC7C
:1036C0000C230393D7E7002805D0FFF7C7FA2300A0
:1036D000414A0090F0E70B9B390003203F4A0094D9
:1036E0000393FDF73BFC039B002B13D1284A3C4975
:1036F0003C4809F01FF803900028BCD139003A4A31
:103700000320FDF72BFC3948FEF7B4FF01235B4291
:1037100004930AE7364A039B0094CDE70123020095
:103720005B420493124B0699D86D059BC31A9942CC
:1037300010D81049012A03D100932E4A23009EE796
:1037400001200F4A10702C4A019400960430FDF7B6
:1037500005FCE2E6059B181A069BC018FA235B00DD
:10376000984200D91800FEF785FF0395DDE6C046B4
:103770009C000020FB450108335601087D560108D6
:10378000D503002019030020B5560108355801085B
:10379000DD560108EC560108F656010802570108EB
:1037A0002E570108B80B00003857010824070020E5
:1037B000695701089D570108C55701085E5801085F
:1037C0008D580108494D0108E4580108CB5A0108F9
:1037D0000A5801083B5901088E590108E7590108A8
:1037E000B54F0108D94D01082D5A0108DC0500002C
:1037F0006B5A0108345B01089B5B0108F0B5D04BA4
:10380000AFB01B78012B01D00BF01CFB7422002100
:10381000CC48CD4C0FF0B4F900220120CB4B2077DF
:103820001A70CB4BCB49DA6DCB4B626202900230FF
:103830000093CA4ACA4B0190FDF790FB5822002121
:1038400018A80FF09DF9C74ABF4F1378C649013336
:10385000DBB21370BE4ABF4E0692D26D0320BA622D
:1038600001223A77C14A00913100FDF777FBFA2037
:103870008001FEF729FFBE4A051E0ED1B04B1C7811
:10388000012C59D1BB48FFF725FE051E56D0BA4B77
:10389000BA4A1B78012B59D1B94A31000520FDF7EE
:1038A0005DFB2C00A84BDD773B00582236331D789A
:1038B00002AB9B181878FCF74AFC5B2202AB9B1802
:1038C0001A78B04B052A03D8AF4B92009B189B6D1A
:1038D0001AA9049118A989789E4EAC4A03910293C3
:1038E00031002B00019000940420FDF737FB984B2A
:1038F000954DA1496A6ADB6D09789B1AA44A012992
:1039000000D0AEE0A34A31000520FDF727FB1F24BD
:103910000623AA7F9B492B77EC77022A03D89E4B7C
:1039200092009B18D96800919C4B31009C4A0194ED
:103930000520FDF713FB61E00125A8E7994A9A49A4
:103940009A4808F0F7FE051E06D0994A2B00310070
:103950000520FDF703FBA4E731000220954AFDF79F
:10396000FDFA02233B77764B1B78012B49D03800B8
:103970005822383018A90FF04FFBFC77002C93D158
:10398000032308AA8C488D4914803B7708F05AFE1F
:10399000704E031E3BD031000220894AFDF7DEFA4B
:1039A0000BF09CFA31000220864B874AFDF7D6FACD
:1039B0000125844B08A91800079308F0C3FC0028D0
:1039C00038D108AB0193079B310000937F4A2B004D
:1039D0000230FDF7C3FA069B1AAEDD6D7B6A3637FF
:1039E000ED1A18AB1878FCF7B2FB3B78784A0190D7
:1039F0005849032002960095FDF7B0FA20002FB039
:103A0000F0BD574818A9FFF779F90400AFE7210086
:103A10007048FEF775FF002806D0FFF71FF9310048
:103A200003006D4A0120B9E731006C4A0220FDF71E
:103A300095FAB5E7474B022007930323684A0093A2
:103A400007992B00FDF78AFA032D05D1654A0799DE
:103A50000220FDF783FABEE75848FEF70BFE01355A
:103A6000A7E7290038310978082902D1AB8F5E4ACF
:103A700049E7092902D1AB8F5C4A44E70C2C1FD1DE
:103A800003291DD129003E310978012918D03A3285
:103A90001178012914D00123137002222A77002201
:103AA0003100AA770420524AFDF758FA3D4A3E49B0
:103AB0003E480BF03DF9FA20C000FEF7DBFDBDE605
:103AC0002A004C483432117883420BD928000294E2
:103AD00035300078484A0190009131000520FDF70B
:103AE0003DFA15E7022900D9A1E0012004240327AB
:103AF0000918C9B211702C77A877404A20000193A9
:103B000000970B003100FDF729FA310020003C4AF4
:103B1000FDF724FA3B4A3C493C4808F00BFE041EE2
:103B200000D0F5E63A48FEF7A5FDFFF79FF8041E22
:103B300072D003003100374A0520FDF70FFAE7E69F
:103B400019030020380200201C020020D6030020A8
:103B50009C000020FB450108C0270900D95B010833
:103B600060EA000052020020405C0108215C01086C
:103B70004A5C010844480000D5030020795C010834
:103B80005E5C0108D4420108543F0108435E01080D
:103B90009C030020895E0108D43F0108B26101083E
:103BA000B86101089F5C0108AA5C0108B55C0108C6
:103BB000C25C0108EF5C0108FC5C0108B80B000066
:103BC000085D0108915D0108A05D0108B55D01086F
:103BD000085E0108240700202F5D0108725D0108BE
:103BE000D75D0108F35D0108C95E01081A5F01088D
:103BF0006C5F0108BF270900C75F01080760010863
:103C00003C60010877600108765301088053010881
:103C1000DC050000816001081D48FEF72BFD0BF05C
:103C200011F91C4A31000320FDF798F906E62A0035
:103C300035321778002F24D1052101242977033943
:103C4000A97714703100144A0193042023000094D2
:103C5000FDF784F93100114A0420FDF77FF9104A7D
:103C600031002000FDF77AF93800FDF707FDC82084
:103C700005F064FB2000FDF701FD0BF0E3F8094AB5
:103C8000D0E70193084A0B000294009725E7C0464D
:103C9000DC050000A8600108CD6001080261010890
:103CA00032610108486101086D61010810B5002802
:103CB00005DB05300A210BF0E3FF00B210BD05382B
:103CC000F8E7F0B514000F27094D461803781B09D3
:103CD000EB181B7E2370037801303B40EB181B7EF2
:103CE00063700234B042F1D1002349008B54F0BD1F
:103CF000D43F0108F0B504008BB00120002C00D1A6
:103D00008BE0637A002B00D187E02388444A9342FA
:103D100000D882E008202056424A0590A079424906
:103D200004906079039020790290E0780190A07867
:103D300000900220FDF712F92000FCF715FA0600AA
:103D40000F00FCF766FE394B0693002835D11900A9
:103D5000374A0230FDF702F923880693E378A57805
:103D6000079326796779A47933002900079A069882
:103D700001940097FCF7EEFC079B2E4A2B49019318
:103D80000320069B0494039702960095FDF7E6F83E
:103D90000022294B29491A67CA700A80991DCA87CF
:103DA00019004431CA705A679A83DA775A629A6264
:103DB000DA641A652249234A2BE008A8FDF7E8F8DF
:103DC000002803D00420204A0699C3E708A8FCF77E
:103DD000CBF9361A8F41FA1739001500514075405A
:103DE00013000F002E00B61A9F4102203300174A1D
:103DF0000699FDF7B3F8002F02DC08D11E2E06D974
:103E00001E23134A06990220FDF7A8F8A4E7114AD9
:103E100006990320FDF7A2F800200BB0F0BDC046C4
:103E2000E3070000E5610108FB450108C8620108DD
:103E300023620108CC6201089C02002008030020D4
:103E400034B20108F96201084D6201086F6201088D
:103E500089620108A7620108F7B5314B0192C55A82
:103E60000400954205D90025C5522E4BC552643B2E
:103E7000C5544B190093019BAB4203D8284B019AC0
:103E8000E252F7BD009B1978264BE35A0D2901D069
:103E90000A2936D1002B26D090210022C900E31830
:103EA0005B181A70635C934218D060261E4F5F3215
:103EB000E35D61185E43A61930000FF07BF8002225
:103EC0005F363270E05D0C2101300BF0B5FE174A11
:103ED000E155A35C0B2B0BD80133A3540023114AEB
:103EE000A352643AA354009B0135ADB20133C1E73C
:103EF0009C26F600A05D0C2101300BF09DFEA15523
:103F0000ECE75E2BEFD807485A1C92B22252E31816
:103F100064381B1819700023A21812181370E2E7F6
:103F2000E6040000E4040000E1040000E2040000F4
:103F3000F7B5040008000E000BF0F0FD0025602727
:103F40000D4B0190E35C0093009AEBB29A4201D8CA
:103F50000020FEBD9C23DB00E05C0C2140190BF02F
:103F60006BFE7943019A601831000FF012F80135A9
:103F70000028E9D10120ECE7E2040000F7B5041EB7
:103F800024D0002560271A4BC65C1A4B0193EBB274
:103F9000B3420BD300256027174B0193EBB29E422F
:103FA00015D820001549FFF7C3FF0FE09C23DB0065
:103FB000E05C0C2140190BF03FFE79436018019939
:103FC0000BF0A2FD01350028E1D10120FEBD9C23AC
:103FD000DB00E05C0C2140190BF02EFE79436018E9
:103FE00001990BF091FD01350028D7D1EDE7C046CE
:103FF000E2040000AE9D0108DC4201083D4D0108CD
:104000000023F0B597B0160004AA09270490059183
:104010001372082E00D1023F0024250040235B1BB1
:10402000039306AB5819059B0E491B5DA74200D9A7
:104030000D4900910D4A03990EF0E4FE039B834263
:1040400005D901342D18A64201D03E2DE6D906AB84
:104050000093074A0749049B0220FCF77FFF17B033
:10406000F0BDC046097F01089DC201086A630108CE
:104070005F630108FB450108F0B50126ABB00D9365
:10408000E34BE44A09930A9003000C0002200999CB
:10409000FCF764FF1422002119A80EF071FD76428E
:1040A0000622FF2116A815960EF06AFD462006ABE3
:1040B0000622FF21C0180EF063FD4D2006AB04223E
:1040C000FF21C0180EF05CFD532306A81B18042224
:1040D000FF2118000EF054FD5B2006AB0222FF21E9
:1040E000C0180EF04DFDCC4B15AD5D21AB83FF2309
:1040F00006AA521813705E2206AB9B181E701FAFE3
:10410000C64B0021323A3800AB84AE756E750EF0A6
:1041100037FD3800FDF790FC3800FDF785FFFD23E3
:1041200006001E40184217D120ABDA7F412306A9B2
:104130005B188121DA7706ABC918532306A81B1830
:10414000042218000EF068FFBB199B78002B00D0EA
:1041500047E201360A2EF7D1B14E337C012B10D144
:10416000B07C2874002810D00138C0B20FA9FDF728
:1041700069FE002809D128000FA904F05BFE012385
:1041800004E0FDF7CFFD0028EAD00023A54AA649A8
:104190001278012A00D0EEE028003C3104F04AFEFB
:1041A0006023422706A9C9180B78A04A059306ABDD
:1041B000FF18FB7F099904932B7C032003930123B1
:1041C000029301930F3300930A9BFCF7C7FE4D2126
:1041D0004F20159B1ABA0C9206AA52181378013177
:1041E00006AA5218127806A9091812021A430B7867
:1041F00050211B04134306AA521816785B22360678
:104200001E4306ABD21813005B7812781B021343CF
:104210005BBA9AB209990B924D38854AFCF79EFE1B
:10422000297C36BA2B7803960491E978814A029169
:10423000A97802200191697816AE00910999FCF7DE
:104240008DFE697A2B790491297A7B4A0391E97969
:1042500002200291A9790191697900910999FCF7ED
:104260007DFEE97BAB7A0491A97B744A0391697B5B
:1042700002200291297B0191E97A00910999FCF7CA
:104280006DFEE9786B7C0691A9786D4A0591697895
:104290000220049129780391297D0291E97C019102
:1042A000A97C00910999FCF759FEA97FAB7D01918A
:1042B000697D644A009102200999FCF74FFE697FED
:1042C000EB7D0591297F604A0491E97E02200391EC
:1042D000A97E0291697E0191297E00910999FCF7DE
:1042E0003DFEFB7F06A904936023CB181B78574A39
:1042F0000393F37F022002933F235B18DB7F01933C
:104300003E235B18DB7F099900930B9BFCF726FE8D
:104310001E23A97FEB5688064906C00FC90F4C4AD9
:10432000DB0F0190009102200999FCF717FEFA7F3C
:10433000484B012A00D1484B354F0C99474A009110
:104340000220390015ADFCF709FE262229003800AD
:104350000AF030FCD52323700A9B6370062B00D92A
:10436000E6E018000BF082FC7C003B0110003B01F2
:104370007C003B01BA00012B00D111E761210F2322
:1043800006AA521813700BE7A71C04222900380054
:104390000EF042FE06223100A01D0EF03DFE200070
:1043A000462106ABC91806220C300EF035FE2B7CD8
:1043B0002000A3744D2306A95B18190004221330B2
:1043C0000EF02AFE200053216B7D0422E375AB7DA5
:1043D0001930237606ABC9180EF01EFE20005721B7
:1043E00006AB0222C9181D300EF016FE6B7F06AA1E
:1043F000E37741239B18DB7F0134E37742239B184B
:10440000DB7FFB77222300200D9A13702BB0F0BDC9
:10441000866301087563010808100000FF010000B1
:104420009C020020D70300209C0300208A6301081F
:10443000EA630108056401083C6401086564010839
:104440008F640108CD64010807650108376501081C
:104450008565010871630108708F0108B065010866
:1044600004222900A01C0EF0D7FD06223100A01D59
:104470000EF0D2FD2000462106ABC91806220C30F2
:104480000EF0CAFD2B7C2000A3744D2306A95B18F7
:104490001900042213300EF0BFFD20005B216B7D5C
:1044A0000222E375AB7F1930237606ABC9180EF0F4
:1044B000B3FD3E2306AA9B18DB7FE3763F239B18C0
:1044C000DB7F2377F37F637741239B18DB7FA37721
:1044D00042239B18DB7FE377202394E70422290003
:1044E000A01C0EF099FD06223100A01D0EF094FDD7
:1044F0002000462106ABC91806220C300EF08CFDB8
:104500002B7C2000A3744D2306A95B1804221900FC
:1045100013300EF081FD6B7D06AAE37541239B18D5
:10452000DB7F237642239B18DB7F63761A236AE7BF
:10453000A71D04222900A01C0EF06EFD06223100EA
:1045400038000EF069FD2000462106ABC91806228E
:104550000C300EF061FD20004D212B7C0422A37451
:1045600006ABC91813300EF057FD200053216B7DA8
:104570000422E375AB7D1930237606ABC9180EF023
:104580004BFD2000572106ABC91802221D300EF04A
:1045900043FD20005B216B7FAA7FE377631CDA7702
:1045A00006ABC918022221300EF036FD3E2206A9C4
:1045B0005218D27F231DDA773F225218D27F631D13
:1045C000DA774122F37F5218D27FFB77E31DDA7747
:1045D00042235B18DB7F0834E377282313E70120AD
:1045E00014E7FB8806A91A0AEA773D225218D37706
:1045F000B2E50021F0B5DFB03EAE402212903000AF
:1046000016910EF0BDFAC64C16AF3A003D212000BF
:1046100005F04CFEC34D00280AD000903D23290030
:104620000420C14AFCF79AFC002420005FB0F0BDD2
:10463000F9783B780291B978022001917978BB4AE8
:1046400000912900FCF78AFC3B78F52B05D1FB781B
:104650005F2B02D1BB78002B05D1B54AB1490220AE
:10466000FCF77CFCE0E7102B05D929000420B14AB7
:10467000FCF774FCD8E77A78022011929A00D2B243
:1046800013921399AC4A019100932900119BFCF7F6
:1046900065FC2000BB783200119905F0DFFEBB7885
:1046A000041E08D0019000932900A44A119B042005
:1046B000FCF754FCB8E7F17802200491B178A04AE5
:1046C000039171780291317800930191119B290037
:1046D000FCF744FC3378FF2B00D0B5E0B278737858
:1046E0001343F278134301D001F0C5FC119B29005C
:1046F0000220944AFCF732FCBB78012B06D0012142
:1047000004200091904A2900FCF728FC844C8F4A31
:104710002000119905F086FC002808D08C4A119BD6
:10472000009029000420FCF719FC1E247DE7F423E7
:104730004EAE3370119B05207370864B738004F06E
:10474000FDFD32003D21200005F06CFC071E03D06A
:104750003D23814A0090E4E7F17833780291B17803
:10476000724A01917178022000912900FCF7F6FB52
:10477000FE230193FD3B794A00932900119B0220FF
:10478000049703970297FCF7E9FBB422744B377048
:10479000DB6D139306AB9B181F7033AF3A000021FB
:1047A000200008F02DFC5F4E031E6E4A08D1012147
:1047B00020004EAA08F024FC031E129022D06A4A60
:1047C00031000420FCF7CAFB0A2004F0B7FD644B5B
:1047D000139ADB6D9B1A962252009342DDD34EA9A9
:1047E000097806AB783A9B181B78604A0091042040
:1047F0002900FCF7B3FB29005D4A119B0420FCF75C
:10480000ADFB92E7902006A94000091809781F38EF
:104810003B78584A0091FF383100FCF79FFB082293
:104820003B781342D0D03100534A0220FCF796FB6C
:1048300085211822129B4901200008F07DFC3100DF
:104840004E4A119B022013E7012B00D079E17378C7
:10485000D42B01D001F00FFCB3780E2B01D901F05D
:104860000AFC474ADA40D20701D401F004FC2900CF
:10487000444A0220FCF772FB0622002112980EF037
:104880007FF913993EAC23780391E1783E4F029172
:10489000A1780220019161783C4A00913900FCF72F
:1048A0005DFB6378D42B02D0394A3900CAE7129AEB
:1048B000A5789370D5700E2D2CD828000BF0C2F976
:1048C000092D2A082A202A2A2A2A2A2A2A2A2500C1
:1048D000042517AE3300402228004EA9FFF7CCFB79
:1048E000041E00D0A1E6337829AA149314991FABB3
:1048F0004EA805F0E4FC041E50D0264B1C7294E632
:104900000123129A06255370E3E70123129A0F251B
:104910005370DEE72B00204AC7E70225D9E7C046DF
:10492000F003002034B20108CF650108FE650108DC
:10493000296601085166010881660108AE66010812
:10494000DF6601081D67010842670108FD3F010895
:1049500070670108014F0000A0670108D4670108D3
:104960009C0000201B68010847680108FD680108D9
:104970003569010873680108A4680108D86801084E
:104980002B4000005F690108866301088C690108FB
:10499000B7690108D8090020E2690108914B33AEDC
:1049A0003380914BB57011931B78F070012B25D19A
:1049B0008E4D2868002821D03200202105F032FBDE
:1049C000002808D020238A4A009039000520FCF7EF
:1049D000C5FA1E2491E7F378864F0393B378390024
:1049E00002937378022001933378834A0093202343
:1049F000FCF7B4FA119B1B78012B01D002247CE751
:104A000028680028FAD029217C4A05F00BFB0028F1
:104A100003D029237A4A0090D7E703230394029412
:104A200001940093390026330220764AFCF796FA67
:104A3000119B1C78012CE1D12D68002DDED01FAB1D
:104A40001B78002B00D158E76F4B052033AC339314
:104A500004F074FC3D212800220005F0E3FA6549CA
:104A6000051E03D03D23694A0090AFE7E078237824
:104A70000290A078664A0190607800900220FCF7CE
:104A80006DFA25700825634EF76D584B186800289D
:104A900048D033AC2200002108F0B2FA002841D1FE
:104AA00023782B423ED05C4A52490230FCF756FA3A
:104AB0000123129A4EAD13702B78584C13716B78FA
:104AC0003EAE5371564B32002380524B5549DB6D3D
:104AD0005548E36023690133236100236380E38049
:104AE0002372139B04F0F8F93388129AA380129B67
:104AF000280014995B78127808F05EFC1298129BDB
:104B000040789B7803901298484A4079394902903E
:104B10001298007901901298C07800900220FCF75A
:104B20001DFA81E50A2004F009FC9622F36D52007B
:104B3000DB1B9342A9D333AB04201B783C4A2D499D
:104B4000B4E7102B00D0C3E373785A1E032A01D9AF
:104B500001F091FA16AFB978364A01911199022005
:104B600000912900FCF7FAF9204E307AFBF765FF37
:104B70003100603109780300029131003431097845
:104B8000022001913100623109782B4A00912900FD
:104B9000FCF7E4F9330061331B78002B00D17AE392
:104BA0003EA90B78134D254A102B00D070E3BA783C
:104BB000C8784F781392049089780193139B0391DE
:104BC0000093290003201E4A119B0297FCF7C6F9A7
:104BD000781E032800D959E30BF048F8340050033D
:104BE000E201560301D4FFFF180400201C0400203A
:104BF0000C6A010886630108376A01080140010850
:104C00006E6A0108986A0108F420014FCE6A010813
:104C1000FE6A01089C000020296B0108D8090020C9
:104C200001030000E1090020F4090020776B01086E
:104C30004C6B0108AD6B0108E96B0108236C01089E
:104C4000556C0108102200214EA80DF099FF307A12
:104C5000FBF7F3FEED4C030021000320EC4AFCF7C8
:104C60007DF9330034331B78002B08D0307AFBF702
:104C7000E4FE21000300E74A0320FCF76FF9E64C4D
:104C8000002520000127E54B102229001C301D7053
:104C90000DF076FFA36B3800DB19A363277209F0D0
:104CA000E9FFA36BDE4AD9490320FCF757F923003B
:104CB000DC4E62331F70F36D07222900636629A85A
:104CC00064680DF05DFF0822290033A81F950DF0E0
:104CD00057FFAC4235D002233900200033AA05F03B
:104CE000BDFBA8422DD1B8229021339B299306AB5E
:104CF0009B181B8806AA52181380BA2206AB9B1871
:104D00001B7806AA023152181370A37BAB4205D15F
:104D10000722E01D29A90EF07FF9A77329A885793C
:104D2000037805954579C04A04950579B7490395F7
:104D3000C578029585780195407800900120FCF7B0
:104D40000DF9FF2120001FAA05F0B0FA1F9DFF21D9
:104D5000200001351FAA1F9505F064F9F26D0027A8
:104D6000D10953034B4053402A0059045A404A404A
:104D70005B095A40AD4BA84C12921493149B380017
:104D80000721FE180BF062F88C20129A06ABFA404D
:104D90001B185B5C1FA9534003223A408A5C5340B6
:104DA0006B227A43013753403372102FE6D1237BB5
:104DB0000295A17B954E0191617B9D4A00918A38B5
:104DC0003100FCF7CBF8042321219A4A606805F0F2
:104DD00032F900280BD031000520974AFCF7BEF8C5
:104DE00000228D4B05241A7262331A7047E00423A7
:104DF0003100924A009303201D334EADFCF7AEF80C
:104E000004232A002121606805F028FB002872D0C5
:104E10000090212331000420894AFCF79FF80224E6
:104E20007D4D20002C7209F025FF200009F0FCFECA
:104E30001399119808F098F8041ED1D108F048F998
:104E4000724E804A31000320FCF788F8287AFBF77D
:104E5000F4FDE97B03000591A97B03200491697BA4
:104E6000794A0391297B0291696E62350191297813
:104E700000913100FCF772F8744809F02BF8664D88
:104E8000287AFBF7DAFD2900E1232F006031097849
:104E900006AAD218137804916049623709786C4EDB
:104EA000039139786B4A02910190310002200094FD
:104EB000FCF754F8E12306AAD3181B78012B00D085
:104EC000EBE1002C00D0F9E1287A022801D0FFF7AD
:104ED000ABFB3B78002B01D1FFF7A6FBE97B2B7BDB
:104EE0000291A97B5C4A0191697B00913100FCF73A
:104EF00035F8FFF799FB3A004E4928000EF018F8F4
:104F000007007B427B41E97B544A0F91A97B032038
:104F10000E91697B0D91297B0C91E97A0B91A97A0D
:104F20000A91697A0991297A0891E9790791A97911
:104F300006916979059129790491E9780391A97815
:104F4000029169780191297800913100FCF706F807
:104F5000002F00D163E7E17E237B0E91A17E404AC2
:104F60000D91617E04200C91217E0B91E17D0A91CF
:104F7000A17D0991617D0891217D0791E17C0691D8
:104F8000A17C0591617C0491217C0391E17B0291DC
:104F9000A17B0191617B00913100FBF7DFFF3EE7D0
:104FA00033AD1022002128004EAE0DF0E9FD102295
:104FB000002130000DF0E4FD174C207AFBF73DFD99
:104FC00012490300274A03201291FBF7C7FF154B34
:104FD000E07BD96D230062331B780490A07B224ACA
:104FE0000390607B0290207B0190606E091A009113
:104FF00003201299FBF7B2FF237A022B38D0052049
:105000001A4A1299FBF7AAFF042438E786630108BD
:10501000A26C0108CF6C01081C0400205004002081
:10502000106D01089C0000203B6D01082004002049
:105030006A6D0108280400209A6D0108B16D01080D
:10504000E86D01082A6F0108486F0108AA6F01087E
:1050500034B20108ED7201083E730108216E0108A7
:10506000AD6E0108B96F0108E16F01082E700108EB
:1050700003232A00237225216068013305F0EEF92D
:10508000071E07D000902523EA4A12990520FBF756
:1050900065FFA5E6E9782B780291A978E64A0191A7
:1050A0006978032000911299FBF758FF2000310026
:1050B0000C3007F073FEE17E237B0E91A17EDF4A68
:1050C0000D91617E03200C91217E0B91E17D0A916F
:1050D000A17D0991617D0891217D0791E17C069177
:1050E000A17C0591617C0491217C0391E17B02917B
:1050F000A17B0191617B00911299FBF72FFFE97B66
:105100002B780E91A97BCE4A0D91697B03200C91DF
:10511000297B0B91E97A0A91A97A0991697A089118
:10512000297A0791E9790691A9790591697904911C
:1051300029790391E9780291A97801916978009120
:105140001299FBF70BFFF17B33780E91B17BBD4ACF
:105150000D91717B03200C91317B0B91F17A0A91B7
:10516000B17A0991717A0891317A0791F1790691B2
:10517000B17905917179049131790391F1780291B6
:10518000B1780191717800911299FBF7E7FE3B002D
:10519000EA5CF15C01334A401743FFB2102BF7D1B0
:1051A000A94AAA4E002F39D1330060331F70F36B28
:1051B00004240133F363D36DD26DB364A44BA549CA
:1051C0001B6B28009B18F3623300012234331A70E2
:1051D0003472376307F0E2FD032009F04BFD200035
:1051E00009F022FD1399119807F0BEFE041E00D0AD
:1051F000F6E507F06DFF33006233974A97491F7059
:105200000320F36BFBF7AAFE954808F063FEB36E2C
:10521000002B00D133E68F48984730E6340005254F
:1052200060342378316CD26D01310133DBB23164EB
:10523000F2648A498B4A280023703572FBF78EFE90
:10524000280009F017FD042009F0EEFC13991198CD
:1052500007F08AFE002800D0C2E507F039FFF36EA0
:10526000002B01D0207898470022784B7E481A7294
:1052700062331A70012408F02DFE00E67B4A2900F3
:105280000320FBF76BFEFAE5794AF8E73B00794A21
:1052900029000420B6E60624F1E5032B0ED1287A76
:1052A000FBF7CBFB744B31001B78744A02933B78BD
:1052B0000090019302202300FBF750FE14235B4271
:1052C0002341DB0701D4FFF7AFF91F24FFF7ADF946
:1052D000202B01D000F0CFFE3EAB5B78013B022BD0
:1052E00001D900F0C8FE16AB9B782900009302207C
:1052F000119B634AFBF732FE624B544DDB7F002B60
:1053000001D100F0B5FE2B6F002B01D100F0B0FEF3
:105310006A6F002A01D100F0ABFE137930321178A8
:10532000042B01D1002910D14C4C574A0091042084
:105330002100FBF713FE2A0090321368210001338D
:1053400013600420514AFBF709FE002202210120CC
:1053500007F042FE119000281BD11FAC010025224E
:1053600020000DF00DFC22003021286F04F09EFF7C
:105370003A4E00282BD03023454A009031000520BA
:10538000FBF7ECFD00220621032007F025FE072392
:1053900011932E4D287AFBF750FB34352B783D4C7A
:1053A00001930090119B210002203B4AFBF7D6FDA0
:1053B000119B062B01D8FFF737F9082B01D1FFF716
:1053C00033F92100354A0520FBF7C8FD7DE70823A6
:1053D0003121286F20AA05F041F81390002803D04E
:1053E00031232F4A0090C9E78821202306AA5218AA
:1053F0001370E17923780691A179022005916179F2
:10540000284A049121790391E1780291A1780191D0
:10541000617800913100FBF7A1FD23781493202BD4
:1054200044D00323204A11931368012401331360ED
:10543000B9E0C0464A7001087E700108B0700108EA
:10544000177101087D7101089C0000201C040020D8
:105450009C01002038040020E371010886630108E4
:105460000D7201081A720108537201085D72010879
:1054700094720108C3720108500400208D73010862
:10548000D173010891040020FF73010825740108FD
:105490003F74010834B201086D7501089875010860
:1054A0006674010891740108A8040020E378119340
:1054B000002BB6D163781293013B022BB1D817AF02
:1054C000149A11993800A5780DF05AFB119B310000
:1054D0000293129B02200093C94A149B0195FBF78B
:1054E0003DFD129B022B00D12DE1032B00D1F6E1F3
:1054F000022D0ED02B00103B042B92D8280011381F
:10550000032800D97FE00AF0B1FBBB00CC00030107
:1055100013012379012B01D900F0B1FD4EA803F04E
:1055200002FE002866D003F0C1FD0025040035E02E
:105530004E9B1B0ADAB2B34B9B7F012B03D0023B7D
:1055400059424B415B002A24A521FF3406A80019CB
:105550000170952006A9400009180A702C2106AA9E
:10556000FF315218A84813704EA9FCF7DBFC041E4B
:10557000D9D1A64E27224EA9A5480DF04DFD3300E6
:1055800001213F33197033004033197064231FAA7F
:10559000507939704343736413797B709D4A139536
:1055A0001368013313604EAD2022002128000DF056
:1055B000E7FA139B0127002B08D01A00280017A92F
:1055C0000DF02AFD139BDF1CFFB2BF08924E3B007B
:1055D0002A003121306F04F02EFD002801D100F0A7
:1055E000ECFC009031238D4A8D4901970520FBF793
:1055F000B5FCCCE6942206AB52009B181B78002B1E
:1056000096D10324CAE74EA803F098FD00288AD15A
:1056100028221FAB1D795C7906A9FF32521850ABC6
:1056200021002800DB7FD27F03F055FD002801D147
:1056300000F025FD262306AAFF339B18DD77932370
:105640005B009B18DC774EA8FCF734F94EA8FCF7FA
:10565000C5FC0126041E08D16C4D2C2271484EA9B0
:1056600074350DF0D9FC2E7026004EAA928C17AB23
:1056700020001A809E7003F019FD032504008DE7B9
:105680004EA803F05BFD0025A84206D1A22206AB7E
:1056900052009B181B883B80023503F007FD040075
:1056A0007CE74EA803F04AFD002800D03BE71FAB83
:1056B0001C79200003F004FD002801D100F0DFFC7C
:1056C000002C08D0932306AA5B009B18DB7FA34223
:1056D00001D200F0D4FC50AEF4774EA8FCF7EAF803
:1056E0004EA8FCF77BFC0125041E08D12C224D4856
:1056F0004EA90DF091FC454B74331D702500200020
:10570000F37F7D703B7003F0D1FC0225040045E778
:105710004EA803F013FD0025A842BED150ABDB7F9D
:1057200006AA3B7093235B009B18DB7F7B70B3E77B
:105730004EA803F003FD0025A842AED158AB1B785C
:1057400004353B70A9E7681E052800D969E60AF010
:1057500079FA0303216F8DAB334A2C4C1378013354
:10576000191CDBB2002B00D10121117003F0CFFB1B
:10577000230075331B783B70002801D0032312935C
:10578000129B08347B70E36FBB7003F08FFC040046
:10579000042503E70023254C1A00210001251B489E
:1057A0000E7D002E03D02E009E40324392B2013374
:1057B00008310A2BF4D1002301251900267D002E83
:1057C00006D0667D002E03D02E009E40314389B264
:1057D000013308340A2BF1D1030075331B787A703A
:1057E0003B7003000833DB6FF970120A090ABA70C4
:1057F00039717B717830037C00240825BB71CDE6BC
:10580000CB7401081C020020180000209C0400201A
:10581000B4040020A40400201C040020EB74010840
:1058200086630108E404002011050020140500200F
:105830001FAB1A79092A01D900F021FCD24B3A702A
:105840000232D2009B1819790024797059799B791A
:105850000925FB70CD4BB9709B18DB6F1A0A7B7161
:10586000BA711A0C1B0EFA713B7297E61FAB1E79C8
:10587000092E01D900F003FCC54AC64C1378013348
:10588000191CDBB2002B00D10121117003F03FFB8A
:105890003E7002367834F600A41923797B70637960
:1058A000BB70A379FB70F8E61FAB1B79A52B00D06A
:1058B000E5E3B84D00242800502200218C30B24E80
:1058C0000DF05EF92A1DD4672A000832D467B24A67
:1058D0007470D26D3474EA6701253D705EE6681E0F
:1058E000072800D99DE50AF0C1F9080013009700C8
:1058F000B1005B016D01F001A70233A803F01EFCAB
:105900000025A84200D0C8E63C9B05351793C4E6A5
:1059100033A803F013FC002800D004E61FAB1A7A6A
:10592000D10704D5B921187906AC0919C8779107B0
:1059300004D5BA21587906AC0919C877BB2706A93E
:105940007F18510701D59979F97735AE120701D53E
:10595000DB79F377D920D82406A9091806A80019FD
:10596000F37FFA7F0978007803F0B5FB002800D1B7
:1059700085E333A8FBF79EFF33A8FCF72FFBD73C4A
:10598000051E38D14EA8FCF74FFB051E33D1262348
:10599000D82106AAFF339B185218DB7F12780131F9
:1059A0009A1A531E9A4106AB06A85B184D31091886
:1059B000C97F1B78FC7F5B1A591E8B41D3182822A4
:1059C000FF321218D27F7548A41A621E944150AA61
:1059D000D27F1C19F37F6F4E9B1A5A1E934133A935
:1059E000E4182C220DF018FB631E9C4133000122A9
:1059F0007433E4B21A703C9B179317AB1C71002CE4
:105A000007D0002D00D15EE1280003F04FFB040019
:105A100000E000240525C1E533AC200003F08EFB37
:105A20000025A84200D038E6DD2306AA9B180A22EA
:105A30001B7853431A1CFF2B00D9FF223DAB1B7868
:105A400005253B70638D7A707B8026E633A803F0D2
:105A500075FB002800D066E51FAC257A3DAEEB074C
:105A600001D523793370AB070BD56079002804D0BA
:105A70000A2109300AF05AF8C0B2DD2306AA9B18A1
:105A800018706B0704D5DE23A27906A95B181A707B
:105A9000DF2206ABD2182D0701D5E37913703378D6
:105AA00012781343012B00D9E9E2DD2306AA9B18E3
:105AB0000A221B785343002B00D1E0E206A9D4321E
:105AC00052181178002900D1D9E21A1CFF2B00D9F5
:105AD000FF22D2B28A4200D2D1E233A8FCF77EFA8A
