:020000040800F2
:1000000000500020750B010821090108230901088F
:1000100000000000000000000000000000000000E0
:100020000000000000000000000000002509010899
:10003000000000000000000027090108290901084C
:10004000850A0108C50B010831090108C50B010823
:10005000C50B0108150A0108170A0108190A010849
:10006000C50B0108C50B0108C50B0108C50B01082C
:10007000C50B0108CD090108C50B0108C50B010816
:10008000C50B0108C50B0108C50B010800000000E5
:10009000C50B0108C50B0108C50B0108C50B0108FC
:1000A000C50B0108C50B0108C50B0108550A01085D
:1000B000650A0108750A0108C50B0108C50B01088E
:1000C00010B5064C2378002B07D1054B002B02D02E
:1000D000044800E000BF0123237010BD9000002001
:1000E00000000000A0580108044B10B5002B03D0FD
:1000F0000349044800E000BF10BDC04600000000F6
:1001000094000020A058010802780B78002A03D040
:10011000013001319A42F7D0D01A70470023C25CF7
:100120000133002AFBD1581E7047000002B471460B
:1001300049084900095C49008E4402BC7047C0462A
:1001400003B47146490840004900095E49008E44E5
:1001500003BC704703B47146490840004900095A7E
:1001600049008E4403BC7047002243088B4274D37D
:1001700003098B425FD3030A8B4244D3030B8B42A8
:1001800028D3030C8B420DD3FF22090212BA030CB1
:100190008B4202D31212090265D0030B8B4219D392
:1001A00000E0090AC30B8B4201D3CB03C01A5241B2
:1001B000830B8B4201D38B03C01A5241430B8B42FA
:1001C00001D34B03C01A5241030B8B4201D30B03E3
:1001D000C01A5241C30A8B4201D3CB02C01A52410A
:1001E000830A8B4201D38B02C01A5241430A8B42CD
:1001F00001D34B02C01A5241030A8B4201D30B02B6
:10020000C01A5241CDD2C3098B4201D3CB01C01ACF
:10021000524183098B4201D38B01C01A52414309D9
:100220008B4201D34B01C01A524103098B4201D3C7
:100230000B01C01A5241C3088B4201D3CB00C01A34
:10024000524183088B4201D38B00C01A52414308AC
:100250008B4201D34B00C01A5241411A00D20146D1
:10026000524110467047FFE701B5002000F0F0F85A
:1002700002BDC0460029F7D076E7704703460B431E
:100280007FD4002243088B4274D303098B425FD38F
:10029000030A8B4244D3030B8B4228D3030C8B42BB
:1002A0000DD3FF22090212BA030C8B4202D31212A1
:1002B000090265D0030B8B4219D300E0090AC30B76
:1002C0008B4201D3CB03C01A5241830B8B4201D323
:1002D0008B03C01A5241430B8B4201D34B03C01A0C
:1002E0005241030B8B4201D30B03C01A5241C30A84
:1002F0008B4201D3CB02C01A5241830A8B4201D3F5
:100300008B02C01A5241430A8B4201D34B02C01ADE
:100310005241030A8B4201D30B02C01A5241CDD283
:10032000C3098B4201D3CB01C01A524183098B42CE
:1003300001D38B01C01A524143098B4201D34B01B7
:10034000C01A524103098B4201D30B01C01A52411A
:10035000C3088B4201D3CB00C01A524183088B42A1
:1003600001D38B00C01A524143088B4201D34B008A
:10037000C01A5241411A00D20146524110467047FC
:100380005DE0CA0F00D04942031000D34042534001
:1003900000229C4603098B422DD3030A8B4212D3C1
:1003A000FC22890112BA030A8B420CD389019211F3
:1003B0008B4208D3890192118B4204D389013AD030
:1003C000921100E08909C3098B4201D3CB01C01A05
:1003D000524183098B4201D38B01C01A5241430918
:1003E0008B4201D34B01C01A524103098B4201D306
:1003F0000B01C01A5241C3088B4201D3CB00C01A73
:10040000524183088B4201D38B00C01A5241D9D28A
:1004100043088B4201D34B00C01A5241411A00D20B
:100420000146634652415B10104601D34042002B07
:1004300000D54942704763465B1000D3404201B586
:10044000002000F005F802BD0029F8D016E770473B
:100450007047C046002B11D1002A0FD1002900D1CE
:10046000002802D00021C943080007B4024802A1B5
:100470004018029003BDC046D9FFFFFF03B4684691
:1004800001B5029800F034F8019B9E4602B00CBC06
:100490007047C046F0B5CE469946030C9C461304FF
:1004A00047461B0C1D000E0061460404240C80B559
:1004B0000700100C4B436543414360432C0CC018AC
:1004C00024188C46A34203D980235B029846C44477
:1004D000494679435643230C2D042D0C8919634456
:1004E00024046019C918C0BCB946B046F0BDC04666
:1004F000F0B557464E464546DE46E0B504000D00D1
:100500009246994683B08B4230D82DD0494650460A
:1005100000F038FE29000600200000F033FE331AF8
:100520009846203B34D49B4653465A469340424615
:100530001F00534693401E00AF423BD8AF4200D14C
:1005400079E05B46A41BBD41002B00DA76E0002277
:1005500000230092019301235A4693400193012303
:1005600042469340009329E08242CFD900220023E3
:10057000009201930C9B002B01D01C605D600098E1
:10058000019903B0F0BCBB46B246A946A046F0BDF7
:1005900042469B4620239B1A5246DA4041461300AE
:1005A0004A468A40170042461F43534693401E0066
:1005B000AF42C3D900220023009201934346002B8F
:1005C000D8D0FB0772081A4346467B080EE0AB42C0
:1005D00001D1A2420CD8A41A9D41012024196D41D9
:1005E0000021013E24184D41002E06D0AB42EED929
:1005F000013E24196D41002EF8D1009801995B4607
:1006000000196941002B24DB2B005A464646D34093
:100610002A001C00F2405B461500002B2ADB260056
:100620009E40330026004746BE403200801A994162
:10063000009001919EE7A342BCD882E74246202366
:1006400000219B1A0022009101920122DA400192BE
:1006500085E7424620239B1A2A0046469A402300FB
:10066000F340464613432A001C00F2405B46150047
:10067000002BD4DA202342462F009B1B97402600F4
:10068000DE403B003343CDE7F0B546464F46D64605
:100690004502C0B5C30F470098460E1C6D0A3F0EB9
:1006A0005BD0FF2F21D08023ED00DB041D4300230E
:1006B00099469A467F3F74027300640A1B0EF60F38
:1006C000002B20D0FF2B43D080220020E400D20456
:1006D00014437F3B4246FF1A4B4672400F2B00D912
:1006E0009DE071499B00CB589F46002D5AD10823AD
:1006F0009946063B74029A467300FF27640A1B0E54
:10070000F60F002BDED1002C3BD101234246494697
:10071000724019430E2918D86448890041588F4601
:100720005346022B00D1B8E0032B6ED042462C007A
:10073000012B40D100200024C0052043D2071043E4
:10074000E0BCBA46B146A846F0BDFF200024F3E75E
:10075000002C20D10223FF3FD8E7002D05D1042330
:100760009946033B00279A46A5E7280000F0ECFCD9
:100770007627431F9D4000237F4299469A463F1AA1
:1007800099E7200000F0E0FC431F9C4076235B4289
:100790001B1A00209EE703234A461A439146032072
:1007A000FC3397E70C239946093BFF279A4682E7DB
:1007B00003282CD0320038007F30002847DD630743
:1007C00004D00F232340042B00D00434230103D58D
:1007D0003800374B80301C40FE28B6DCA401640A88
:1007E000C0B2A9E780240022FF20E403A4E780230D
:1007F000DB031D4201D01C420BD08024E4032C43B8
:1008000064024246FF20640A96E746462C00802395
:10081000DB031C4364023200FF20640A8CE76D0195
:10082000600185422DD21B230024013F01262900AF
:1008300064006D00002901DB854201D32D1A344389
:10084000013B002BF3D16B1E9D412C43B3E70123E9
:100850001B1A1B2B00DD6DE721009E37D940BC40E1
:100860000B00611E8C412343590704D00F2119400E
:10087000042900D00433590113D49B0100205C0AE1
:100880005AE71A2301242D1AD0E7981E43425841F3
:10089000404232000024C0B24EE74246FF2000240E
:1008A0004AE70120002447E7C45801080459010819
:1008B000FFFFFFF7F0B54F464646D6464502C0B5A6
:1008C00046000F1C6D0A360EC40F002E00D1CDE07D
:1008D000FF2E72D08023ED00DB041D4300239946D8
:1008E0009A467F3E7B025B0A98467B001B0EFF0FF9
:1008F000002B72D0FF2B00D1A9E07F3BF6184B46AE
:100900000A2B00DD85E043468022DB00D2041A4337
:100910004B4690467C400022022B0FDD49460123C6
:100920008B40A621C9000B4200D072E090218900C3
:100930000B4200D0DAE08821194267D1280C4246E8
:100940002D042D0C4346290012041B0C120C51439C
:100950005D4342435843AD180B0C5B199A4203D9CF
:10096000802252029446604409041A04090C521869
:100970009501691E8D411B0C920E1B1815439B019E
:100980001D431B0100D5CFE030007F30002800DC84
:10099000B1E06B070BD00F2332002B40042B06D0A5
:1009A00004352B0103D5803210006A4B1D40FE2810
:1009B00064DCAB015B0AC0B21FE0002D00D08FE009
:1009C00008239946063B9A467B025B0A98467B00C1
:1009D000FF261B0EFF0F002B8CD14346002B5CD152
:1009E0004A4601331A43914613000A2A11DC0122B8
:1009F0007C40022B92DC00200023C0051843E40752
:100A00002043E0BCBA46B146A846F0BD3C0045468E
:100A100092465346022B31D0032B11D0012BEAD042
:100A200030008030721C002866DD6B07B9D00F23C0
:100A30002B40042BB4D1B4E70F2A7AD03C004546B2
:100A40008023DB032B435B02FF205B0AD5E7434691
:100A5000FF36002B34D14A46023313430A2BD8DC2D
:100A60007C40002A0AD09946022257E7002D08D17F
:100A700004239946033B00269A4633E7FF200023D0
:100A8000BBE7280000F060FB7626431F9D40002353
:100A9000764299469A46361A24E7404600F054FBBF
:100AA0004B46361A763E0A2BB3DC43460538834064
:100AB00098464B4600227C40022B00DD2EE73DE7A6
:100AC00003234A461A4313000A2AB5DC01229A403E
:100AD000882113007C400322194200D12EE795E7BC
:100AE0000C239946093BFF269A46FBE68023002407
:100AF000FF20DB0381E7320001231B1A1B2B00DDE3
:100B000079E79E3229009540D9406A1E95410D43F0
:100B10006B0704D00F232B40042B00D004356B014E
:100B200013D50120002368E701236A081D401543FF
:100B300076E78023DB031D4282D042461A4200D072
:100B40007EE73C00FF20134357E7AB0100205B0A20
:100B500053E7C046FFFFFFF7F8B54746CE464B02C6
:100B6000460080B5C40F4702580A844648007A0AF6
:100B7000360EBF09000ECD0F9B09FF286DD0012155
:100B80004D40311AAC423AD0002900DC9CE10028EB
:100B900000D19EE0FF2E00D188E08022D2041343D2
:100BA0001B2900DCF6E0013F7A0100D479E001273F
:100BB0007F42BF01BB099846404600F0C5FA434654
:100BC00005388340864200DCCCE0B44F311A1F4028
:100BD0005A0768D00F221340042B64D004377B01DE
:100BE00061D5481CFE2900D081E0FF200023C0050C
:100BF0001843E4072043C0BCB946B046F8BD0029FD
:100C000000DC79E1002876D1002B4CD0481E012968
:100C100000D147E1FF2949D01B2871DC01001A00EF
:100C20002020CA40411A8B40591E8B411343FF18A4
:100C30008023DB041F4200D1B8E0711CFE2ED4D00B
:100C4000012297483A407F08074017437A0700D0AF
:100C500096E01F42C5D1FA0855E03100FF398946B8
:100C6000002B2CD101214D40AC4200D1B4E04946CB
:100C700000294CD0002E00D0F9E0FF21002F00D138
:100C800008E14A1E012900D156E1FF2900D142E1C5
:100C90001B2A00DC24E15F1E2C0006007A0100D52F
:100CA00085E731000437FA08FF292CD1002A9CD0AF
:100CB0008023DB0313435B02FF205B0A97E7AC4210
:100CC00000D1A7E0002922D0002ED6D062462C0009
:100CD000EEE7002BE7D0481E012936D0FF29E5D0EA
:100CE00001005DE701203B007A0100D457E1C0B26A
:100CF000BB015B0A7BE7FF2ED8D01B2900DC9FE0FD
:100D000031000537FA0853025B0AC8B26FE7FE20CC
:100D1000711C084254D1002E00D0B1E0002F00D148
:100D200002E1002B00D1F9E08021FA1AC9040A423D
:100D300000D13BE10124DF1B2C40002F49D00120D2
:100D40000F42D5D10021FA08DDE7FF1A7B0100D45C
:100D5000DEE0BD01AD09280000F0F6F92B000538F2
:100D6000834001262022811B0131521A1F0093402B
:100D7000CF405A1E93411F432BD000217B07B1D097
:100D80000F233B40042B00D028E77B0100D528E748
:100D9000FA08B8E71A002020CA40411A8B40591EB1
:100DA0008B411343FF1A7B0100D502E77B0700D17B
:100DB0000DE10F2331003B40042B00D00EE772E71A
:100DC000FA1A9046520156D44346002B00D0F3E65F
:100DD0000024002000230AE7494600291CD0002EE9
:100DE00000D002E7FF21002F55D04A1E012959D01B
:100DF000FF2900D190E01B2A00DD91E011003A00AC
:100E00002025CA40691A8F40791E8F41174306007A
:100E1000FF180DE7002926D1FE20711C084213D1CE
:100E2000002E00D096E0002F00D1B4E0002B75D04A
:100E3000FB185A0100D4B2E09B015B0AFD38D6E6EC
:100E40008022D2041343EAE6FF2900D1CDE6FA1846
:100E50005208530705D00F23171D1340042B00D051
:100E600021E7D2084FE7002EBCD0624620E72C00D5
:100E7000FF200023BBE60124DB1B98462C409BE6A9
:100E8000002F75D1002B00D096E080230024FF2096
:100E9000DB03ACE62C001F0005E7C046FFFFFFFBAD
:100EA000FFFFFF7DFB185A0100D48DE04A4A5B0822
:100EB0001A40590700D18CE00F210B400D39042B4B
:100EC000CFD00221171DEEE6002900D11FE7821BBB
:100ED0001100002E00D1D1E68021C9040F43D7E6CE
:100EE00039002024D140A21A97407A1E97410F431F
:100EF0002C000600DF1B56E700298DD0811B002E39
:100F000000D170E71B290BDC8022D204174376E75F
:100F10000121FA08F7E62C006246C7E60021F2E656
:100F200005330100DA08EEE6002B00D150E701247A
:100F3000002162462C40E6E6DA1B530132D59201CD
:100F40009409200000F000F92300053883402C00AC
:100F5000012607E7002FDFD0002B17D08023DB030B
:100F60009A4200D2A4E69C4500D3A1E662469FE6E1
:100F7000002B0BD08023DB039A4200D298E69C45DD
:100F800000D395E6012462462C4091E68023DB03E2
:100F9000FF2013432BE60020002B00D127E6002181
:100FA000DA08B0E62C000121D208ACE6002A00D114
:100FB0000EE70021D208A6E6802362460124DB0367
:100FC000FF2013432C4012E60121DA089BE6310092
:100FD00069E60221D20896E6FFFFFF7D410242004A
:100FE000C30F490A0020120E7E2A03DD9D2A02DD6E
:100FF000094A98187047802000040143952A07DCAD
:101000009620821AD1404842002BF3D10800F1E724
:10101000963A9140F7E7C046FFFFFF7F70B5002882
:1010200012D0C317C5185D40C40F280000F08CF81B
:101030009E231B1A962B0FDC082838D008388540D1
:101040006D026D0AD8B202E0002400200025C00520
:101050002843E407204370BD992B14DC421F9540C0
:101060002A001549114055071CD00F252A40042A93
:1010700018D00431CA08490115D59F235202181A05
:10108000550AC0B2E3E7020029001B3291404A1E14
:1010900091410522121AD5402A000A4306491140FF
:1010A0005507E2D1CA085202550AD8B2CFE76D02FD
:1010B0006D0A8E30CBE7C046FFFFFFFB10B5041E64
:1010C0000DD000F041F89E231B1A962B0CDC08284B
:1010D00034D0083884406402640AD8B201E00020A9
:1010E0000024C005204310BD992B13DC421F9440FF
:1010F000144A224061071CD00F212140042918D036
:101100000432D408520115D59F236402181A640AC8
:10111000C0B2E6E7020021001B3291400A00511ED6
:101120008A410521091ACC401443064A224061072E
:10113000E2D1D4086402640AD8B2D2E76402640A35
:101140008E30CEE7FFFFFFFB1C2101231B049842DA
:1011500001D3000C10391B0A984201D3000A083948
:101160001B09984201D30009043902A2105C4018FF
:101170007047C046040302020101010100000000A3
:101180000000000010B5002903D1FFF7DDFF20307B
:1011900002E00800FFF7D8FF10BDC0461FB56B4640
:1011A00049BA99816423E021009303AA623B10F0BD
:1011B000D5FD05B000BD000037B50022124C0090EF
:1011C000236869469A62802320005B0101930FF037
:1011D000F9FF002802D00D4D28003EBD20000FF081
:1011E0003BFF0028F7D10A2120000FF081FF0028E3
:1011F00007D120000FF0E2FF85B220000FF058FF6A
:10120000EAE7024DF9E7C046440D0020FFFF000069
:1012100010B5010000780822C0433124C0B243B2A7
:101220004000C0B2002B02DA5B006340D8B2013A42
:10123000D2B2002AF3D14B7808223121584043B270
:101240004000C0B2002B02DA5B004B40D8B2013A3A
:10125000D2B2002AF3D110BDF0B587B0019002914F
:1012600003920493002B1CD080230024244DDB0325
:101270002A68032013432B600FF0F0FC0827260098
:101280002048FFF799FF05901F48FFF795FF059B42
:101290001E4A013B9BB2934206D92B681C4A13405D
:1012A0002B60012007B0F0BD1A4B9842F5D0059B8A
:1012B000013FE4183618002FE2D1174B17481B885E
:1012C000E40858432100FEF74FFFF60807001449D1
:1012D0007043FEF749FF049B40001860039B002BFE
:1012E00000D01F60019B002B00D01C60029B002BD4
:1012F00000D01E602B68064A002013402B60D1E707
:10130000082701400000024402000004FDFF000025
:10131000FFFFBFFFFFFF00007800F81FB80B0000C1
:10132000FF0F000030B50D0004008BB0684604F0DC
:10133000B3FB2A002100684604F0E9FC684604F08B
:10134000EFFC0BB030BD000010B50449FFF726FFDD
:10135000040001200FF082FC200010BD17350000B2
:1013600010B50249FFF71AFF10BDC04698B0000043
:1013700010B50449FFF712FF040001200FF06EFCC6
:10138000200010BD5D800000F0B585B005000F00A5
:10139000FFF7DAFF041E19D128000F49FFF7FEFE00
:1013A000041E13D1642303AE00933200E021280011
:1013B000613B10F077FD041E08D13000FFF728FFD5
:1013C000B378834205D133885BBA3B80200005B0F7
:1013D000F0BD0124FAE7C046C8EF0000F0B587B0C1
:1013E00005000F00FFF7B0FF041E46D12800254975
:1013F000FFF7D4FE041E40D10F200FF02FFC642312
:1014000004AE00933200E02128005E3B10F04AFD5C
:10141000041E32D13000FFF7FBFEB37883422FD198
:101420000B2302AA9B181800FFF7F2FE7379834280
:1014300026D102ABDA7A1B7B30881B0213435BBADE
:1014400040BA9BB280B20393FFF738FE0E49FFF714
:101450001BF90E49FFF72EFA0D49FFF77DFB3860A7
:101460000398FFF72BFE0849FFF70EF90949FFF72C
:1014700021FA78602800FFF773FF200007B0F0BD65
:101480000124FAE76678000000FF7F4700002F4341
:10149000000034420000C84273B56B469E1D002315
:1014A00005003380FFF750FF041E16D12800FFF718
:1014B0005FFF041E11D101200FF0D0FB3100280086
:1014C000FFF762FF041E08D133880649064A0B4025
:1014D000934204D12800FFF743FF200076BD01248A
:1014E000FBE7C0463F08000007080000030C43402C
:1014F00004485843044B420B42405343180C584095
:101500007047C0466BCAEB8535AEB2C270B52D4C84
:101510008EB020220021200013F0C8F838220021CC
:10152000684613F0C3F80C21274E284AF368684632
:101530000B40D35C01222377336D9B05DB0F637077
:10154000234B1B681340A36011F0E4FB0FF0C4FAB7
:10155000099B636011F01EF8E06011F0B5FB20619B
:1015600011F0B8FB606111F0C5FB237FA061012B76
:1015700007D005203D22174900F064FA05200EB07F
:1015800070BD33689B0506D43E221249062000F048
:1015900059FA0620F3E76378012B02D040220D4967
:1015A000F4E7079B012B02D041220A49EEE7A02273
:1015B00009991202914202D042220649E6E7002030
:1015C0002370DCE7B00000200010024028CA0108A8
:1015D000002002404059010810B594B03422002187
:1015E00007A801AC13F062F800211422200013F0C8
:1015F0005DF8102306930F3B0D93A02306A81B0252
:101600000F9311F009F8011E07D05B220A4906204A
:1016100000F018FA062014B010BD0F236060A0601F
:10162000E06020612000019311F080FA0028F2D0E0
:1016300062220149EBE7C04640590108014B187886
:101640007047C046B000002000487047B00000203E
:10165000121A8B411000191E03DA0023014A801868
:1016600059417047005C260510B50FF0F1FA024BA6
:101670001B68C01810BDC046AC000020F0B50026A5
:101680000F008BB0039304AB019002920021112252
:10169000D81D13F00BF8039B05AD2B70109B04AC09
:1016A0006B70119B0198AB70029B2670A3706770E2
:1016B0006421FEF7C9FE074BE17029001D003200CE
:1016C000180011F081FD32002100280011F0E4FD26
:1016D0000BB0F0BDA00D0020F0B5040087B00028CD
:1016E00007D101209C221D4900F0ACF9012007B070
:1016F000F0BD0822002101AD12F0D8FF1422002114
:10170000280012F0D3FF0022154F29003800009264
:1017100011F0F2FE6E46031E06D0124A1249042052
:1017200003F084FA1F20E2E702006946380011F056
:101730000BFF002803D003000C4A0B49EFE7FA2205
:10174000F378D2009B18238073782A88A370B3782B
:10175000E370AB78A280A371C9E7C0464059010885
:10176000A00D0020585901083C910108705901084A
:10177000F0B51C4F87B001AE00223100380011F0E7
:10178000BBFE00226946380011F0DEFE0023164A37
:1017900000213078FEF77EFE002304000D00134A7E
:1017A00000217078FEF776FEFA2224184D410023BE
:1017B0000021B0789200FEF76DFE24184D41F968C3
:1017C00000290BD0FA20029B8000CB1A584301312C
:1017D000FEF7CAFC00230200A4185D412000290086
:1017E00007B0F0BDA00D002080EE360060EA0000DA
:1017F000F0B5184B18481E68184B87B01C68184B7A
:1018000070401F68FFF772FE134B0500E018FFF7EA
:101810006DFE144B0090F818FFF768FE01900098D9
:101820006840FFF763FE019B43401800FFF75EFE30
:10183000050003903018FFF759FE0490E019401995
:10184000FFF754FE0322059003A907480FF0EAFDB5
:1018500007B0F0BD5000F81FB979379E5400F81F4B
:101860006400F81F72F36E3C200D002010B50B4C85
:1018700050220021200012F019FF094B094A1B6871
:10188000934206D003200849084A00F0DBF8032001
:1018900010BD012300202370FAE7C046D0000020CD
:1018A000680B00200038014088590108FC05000041
:1018B0000020704710B5154B0A001C78012C07D08A
:1018C00002201349134A00F0BDF80224200010BD85
:1018D000002809D1002901D10024F7E720000C4994
:1018E0000D4A00F0AFF8F1E70029F5D00B4C0100EC
:1018F0006423200012F058FB0028EDD00920044991
:10190000074A00F09FF80924E0E7C046D000002015
:10191000885901082E0600002F060000680B0020E1
:10192000360600007047704700487047D00000201E
:10193000012370B5050001213C355B42027853401C
:1019400008221C005E080C400B4200D0054C3300FE
:10195000013A6340002AF4D10130A842EED1D843C5
:1019600070BDC0462083B8ED70B5174C40222000F2
:10197000164912F035FF164D2368AB4204D180237F
:1019800062685B029A4213D034220021114812F09F
:101990008DFE80235B026360012320002560A3602D
:1019A000FFF7C6FFE06301220B4B00201A7070BDE9
:1019B000A368013B012BE7D82000E66BFFF7B8FFD7
:1019C0008642E1D1EFE7C0462401002000E0010893
:1019D000544255443001002020010020704700008F
:1019E00010B5044B1B78012B01D0FFF7BDFF002081
:1019F00010BDC0462001002000487047240100208F
:101A00000120704700487047A0590108044B054861
:101A10005B69042B02D8044A9B0098587047C04663
:101A200024010020A659010838CA01080022034BEE
:101A300003491A7059609A607047C0460000002040
:101A4000D7590108024B187059609A607047C04618
:101A50000000002072B6C046FDE70000014B187080
:101A60007047C0460C00002070B5041E28D0857851
:101A70001F2306880B2D1DD80122A521AA4009018C
:101A8000013B0A4216D10133022D13D1033BB207A9
:101A900010D164213000FEF7EDFB89B21D2300292F
:101AA00008D191313000FF31FEF7E4FB8BB25A428E
:101AB00053411C33E2780132D2B29A4201D8E2702B
:101AC00070BD0123ED18EDB2E3700C2D01D8A570A7
:101AD000F6E70136A3702680F2E7000010B5102269
:101AE0000021024812F0E2FD10BDC0465C02002059
:101AF00010B5041E05D10949094AFFF7A3FF2000CC
:101B000010BD0279074B41795343074A4A439B185A
:101B10008279FA20800050431818F1E7DC59010857
:101B20004F04000080EE360060EA0000F8B50700C0
:101B30000D00141E06D11D491D4A0120FFF782FF2A
:101B40000120F8BD1B4B994202D918491A4AF4E703
:101B500000261A49D671FEF707FB64212080380061
:101B6000FEF702FB6421FEF785FB3800A1706421BB
:101B7000FEF780FB2800E1701149FEF7F5FA1049E5
:101B800020712800FEF776FB08000E49FEF7ECFAFC
:101B90000C4960712800FEF76DFB0800FA218900EE
:101BA000FEF7E2FAA0713000CBE7C046DC5901082D
:101BB00085040000FF5B2605860400001027000056
:101BC00080EE360060EA0000F0B589B006000D0036
:101BD00017000193282819D802AC182200212000F0
:101BE00012F064FD0123A6702370E5700FF030F849
:101BF000019B6060A7602000E360012D03D105F028
:101C000007F809B0F0BD05F03DF8FAE701200349F7
:101C1000034AFFF717FF0120F3E7C046DC5901082C
:101C20007B030000F0B585B00C001F1E019202D0AE
:101C30000A9B002B08D11549154A0120FFF702FF26
:101C40000125280005B0F0BD02AE3200FFF76EFF9F
:101C5000019B0500E418002808D099220B49D20006
:101C6000EBE70C4B3000E418FFF7FEFE0A4B9C42FA
:101C7000F7D83288094BB178534364224A439B1802
:101C8000F2789B183B600A9B1C60DAE7DC5901087C
:101C9000C504000000A4D9FAFF5B26051027000048
:101CA000F0B505000E008FB0002801D0002906D144
:101CB0002449254A0120FFF7C5FE012411E004A8AC
:101CC00003F0EAFEFD23040018420DD102AAF03B06
:101CD0009B18D87F03F022FD1C4C4443002C08D1F4
:101CE000002420000FB0F0BD1649194AFFF7AAFEE4
:101CF000F7E7184B1F009C4200D8670833682100A3
:101D000018000393FEF7B6FAB9420BD200967A1A7E
:101D10002B0003992868FFF785FF0028E0D00949C8
:101D20000D4AC7E7641ABC42DAD200962B00039929
:101D30002868E219FFF776FF0028D1D00149074A49
:101D4000B8E7C046DC5901080705000080EE360000
:101D50000A050000C0D40100250500002D05000083
:101D600073B5154A00245378012B1AD1134B5978B7
:101D7000012916D19D689068D168854203D310D897
:101D8000DB688B420DD80E4D0E4E2B000E4A00968E
:101D9000FFF748FF041E06D001200C490C4AFFF74C
:101DA00051FE200076BD31002800FFF779FF041EA8
:101DB000F7D00649074AF2E7900200206C020020A3
:101DC0007402002078020020C0D40100DC59010810
:101DD0004B0600004F060000F7B5089F06001C00E8
:101DE0000800099D1100002E03D0002B01D0002F08
:101DF00007D11749174A0120FFF724FE01242000CC
:101E0000FEBDB378002B08D1114C134A21000120EC
:101E1000FFF718FE2100114AEDE7114A00975A43D7
:101E20002300FFF7FFFE002802D009490D4AE2E730
:101E300020003900FFF734FF041E04D004490A4A89
:101E4000FFF700FEDBE7002DD9D02860D7E7C046BA
:101E5000DC5901086C050000DB0400006F05000080
:101E600080EE36007605000079050000F0B504002C
:101E70000E0085B0002807D11E491F4A0120FFF738
:101E8000E1FD012005B0F0BD080003F03BFC012896
:101E900002D01849194AF1E702AD082221002800B2
:101EA00012F09EFCA37820000193E378278800932A
:101EB000134B5E43FFF71CFE3100FEF755F901306E
:101EC0007043104B984208D92800FFF7CDFD002041
:101ED000AB782F880193EB78009364210A4B019C27
:101EE0007B4361435B180099084A5B18906053601C
:101EF0000020C7E7DC5901089D0400009E04000093
:101F000080EE3600FF5B260510270000B40200209B
:101F1000F0B5394B93B0DB68DB060FD4374CE37870
:101F2000002B04D00320364A364902F07FFE0023FE
:101F300002252380E370280013B0F0BD06A8FFF748
:101F4000CBFB051E05D03049304A2800FFF77AFD4B
:101F5000F1E708A803F0A0FDFD230500184216D103
:101F600002AAE03B9B18D87F022603F0D7FB234C44
:101F7000FF3623880100B3420CD006A8A170FFF7FA
:101F800075FF051E0ED001201F49214ADEE71E49BC
:101F9000204ADAE7A3788342EFD1E378012BECD132
:101FA0000025C8E70123A768E370A37826803800DE
:101FB00019490593FEF75EF90800FA218900FEF73A
:101FC000D3F8164903903800FEF754F90800124977
:101FD000FEF7CAF8114902903800FEF7C5F80190E3
:101FE00063680F4E074D009332002900059B0220C5
:101FF00002F01CFED4E7C04600280040B4020020D6
:10200000F25901080BB90108DC590108A1050000CB
:10201000B3050000A405000060EA000080EE360071
:102020002E5A01080023F0B58FB00CAE04000B70DF
:1020300030000F000B92FFF74FFB0A90002806D0EC
:102040003B493C4AFFF7FEFC0A980FB0F0BD3388CD
:10205000394DB2785D4364235343ED18F378300073
:10206000ED18FFF745FDA368AB42EDD802D1E26859
:102070009042E9D32269934203D16269E3689A42AC
:10208000E2D001233B702300A168E2682033216184
:1020900062610193143B00932000043BFFF79CFE18
:1020A000051E05D02249254AFFF7CCFC0A95CBE74F
:1020B000E668A3783000224965690893FEF7DAF8EC
:1020C0000800FA218900FEF74FF81E4907903000FA
:1020D000FEF7D0F808001A49FEF746F819490690AD
:1020E0003000FEF741F80590A368280014490493D6
:1020F000FEF7C0F80800FA218900FEF735F811490B
:1021000003902800FEF7B6F808000D49FEF72CF8FA
:102110000C4902902800FEF727F8019023690A4F26
:1021200000933A000B9B0949022002F07FFD8BE7E8
:10213000DC59010845070000102700006207000075
:1021400060EA000080EE36006E5A01080BB9010803
:102150000023F0B58FB00CAE04000B7030000A9174
:102160000B92FFF7B9FA071E06D03D493D4AFFF72B
:1021700069FC38000FB0F0BD33883B4DB2785D4349
:1021800064235343ED18F3783000ED18FFF7B0FCEB
:10219000A368AB4261D802D1E26890425DD3226964
:1021A000934203D16269E3689A42E2D001230A9A1A
:1021B000200013702300A168E2682033216162616E
:1021C0000193143B0093043BFFF706FE051E05D068
:1021D0002349264AFFF736FC2F00CAE7E668A378B2
:1021E0003000234965690893FEF744F80800FA2196
:1021F0008900FDF7B9FF1F4907903000FEF73AF854
:1022000008001B49FDF7B0FF1A4906903000FDF7A2
:10221000ABFF0590A368280015490493FEF72AF840
:102220000800FA218900FDF79FFF1249039028005A
:10223000FEF720F808000E49FDF796FF0D490290C1
:102240002800FDF791FF019023690B4A00930B4989
:102250000B9B022002F0EAFC8BE71C2789E7C046B3
:10226000DC590108B207000010270000CF0700006A
:1022700060EA000080EE3600C75A01080BB9010879
:10228000F0B58BB0051E0691079206D12B492C4A5A
:102290000120FFF7D7FB012409E008AE3000FFF76B
:1022A0001BFA041E06D02549264AFFF7CBFB200067
:1022B0000BB0F0BD3388244CB2785C4364235343A5
:1022C000E418F3783000E418FFF712FC2B00069AAC
:1022D0001E4E0C330100009320007243043BFFF7B5
:1022E000A1FC041E02D01549194AD1E7EF68286203
:1022F0002861686117493800FDF7BCFF0800FA2122
:102300008900FDF731FF310004903800FDF7B2FF7E
:1023100008001049FDF728FF310003903800FDF751
:1023200023FF0290AB680C4A0193069B0B49009374
:102330000320079B02F07AFCB9E7C046DC5901088C
:10234000190800001C0800001027000080EE36006D
:102350002708000060EA00002A5B01080BB90108A9
:10236000F0B51F00764B91B0DB68040016000991B0
:10237000DB061AD4C378002B07D0179B03200093E9
:10238000704A7149169B02F051FC00232380E370D0
:10239000A360E36023616361A361E361237123624E
:1023A00002330893089811B0F0BD099B002B09D1A6
:1023B0004378012BE9D1654A6349169B022002F05C
:1023C00035FCE2E70EAD2800FFF786F908900028FB
:1023D00004D05F495F4AFFF735FBE3E72379A76144
:1023E000012B0BD0FFF704FA3D217040FDF742FFAF
:1023F000FA239B004B43E3610123237102222388CC
:10240000FF3293422FD1A378099A93422BD1E378DC
:10241000012BC7D0230008330A934F4E2B88AA788C
:102420005E4364235343F618EB782800F618FFF751
:102430005FFB2700494D099A0DAB01000093300066
:102440006A430CAB0C37FFF7EDFB00280ED0404978
:10245000434A0120FFF7F6FA01230893DE223C49A4
:102460000898D200B7E7099BA370D3E70C9B0993A8
:102470000D9B0B93A6787543002D04D029001800FE
:10248000FDF772FE0500FFF7B3F9099B36065E40C3
:10249000344B70406B430B215840FA26FDF7EAFE9F
:1024A000B6004E43E369A2690B99D21809980A9BBA
:1024B00092190097FFF7B6FB002802D024492A4A58
:1024C000C7E739000A98FFF7EBFB051E06D0AB22E1
:1024D0001F49D200FFF7B6FA0895BFE70223FF3382
:1024E0002380013BFF3BE768E37026620796E369C0
:1024F00038000693A3691D490593FDF7BBFE08004C
:10250000FA218900FDF730FE144904903800FDF7E8
:10251000B1FE08001549FDF727FE10490390380069
:10252000FDF722FE0290A368074D0193A3782900CE
:1025300000930F4A169B022002F078FB32E7C04658
:10254000002800406B5B01080BB90108805B0108A3
:10255000DC590108D30600001027000080EE360089
:102560004B050000B179379E5505000060EA000078
:10257000975B010810B58CB002A803F08DFAFD231B
:102580000400184211D1EE3B6B44D97F0E4B0F482B
:1025900001930F4B0F4A00930F4BFFF7E1FE041E10
:1025A0000BD0E6220D49D20001E00C490C4A200074
:1025B000FFF748FA20000CB010BDFFF7D1FB041E56
:1025C000F8D00649074AF2E7015C01086C020020D6
:1025D000215C0108544D474D00530700DC590108A8
:1025E000230700003307000010B58CB002A803F0E9
:1025F00053FAFD230400184214D1EF3B6B44D87FFB
:1026000003F08CF80F4B104C0193104B010000931A
:1026100020000F4B0F4AFFF7A3FE041E0AD00E49FD
:102620000E4A01E00C490E4A2000FFF70BFA200089
:102630000CB010BDFFF794FB041EF8D00649094A00
:10264000F2E7C046345C010890020020515C0108AA
:1026500020BF020043565253DC5901081607000000
:102660000907000019070000A02010B5C0050022CE
:10267000042101F0D9FE002010BD000070B51D4DF1
:102680002B78012B34D01C4C1C4920000CF0FAFC98
:10269000002801D01E2070BD194E21003000194BBA
:1026A000194A0DF01FF90028F4D132002100174813
:1026B0000DF0ACFE0028EDD1154E210030000CF0DD
:1026C000BBFA021EE6D1300012490CF0D1FA20000C
:1026D00009F01AFD0028DDD1FF220F4B0F491870B9
:1026E0000F4B02301A7001230E4A2B7002F09EFA33
:1026F0000020D0E76A01002034020020CC0C00202A
:10270000B801002038CB010848CB01089001002017
:102710006C0100205D1A00086B0100200BB9010854
:102720000C000020675C0108012210B5034B022059
:102730001A700349034A02F079FA10BD6B010020B8
:102740000BB901088B5C010870B5051E07D101208B
:102750000B490C4AFFF776F90124200070BDFFF702
:10276000D7FB041E04D00649074AFFF76BF9F4E7CC
:10277000064B2A0099685868FFF7D8F90400ECE77F
:10278000DC590108990B00009C0B0000B4020020EA
:10279000F0B595B00F90002806D1A549A54A0120B3
:1027A000FFF750F901240AE0FFF71EFFFD230A900E
:1027B000184207D09E49A04AFFF744F90A9C20001E
:1027C00015B0F0BDFFF7D6FE041E109000D121E138
:1027D000022800D11AE19649984A2000FFF732F901
:1027E000EDE72A88964BA978534364224A439B1805
:1027F000EA7828009B180B93FFF77AF90A9B0E9052
:10280000002B4ED0002C00D1C3E0FAE00C9BEC680A
:1028100001330C9308930D9B20008A490793FDF721
:1028200029FD0800FA218900FDF79EFC86490690E3
:102830002000FDF71FFD08008249FDF795FC824945
:1028400005902000FDF790FC0490AB6838007D49AE
:102850000393FDF70FFD0800FA218900FDF784FCC2
:10286000794902903800FDF705FD08007549FDF72C
:102870007BFC754901903800FDF776FC3300734A04
:1028800000907349032002F0D1F980230C9ADB00F9
:102890009A4208D166496F4A1F20FFF7D3F81F24D8
:1028A0008DE70A9B0C936C4D0B9BAE68EF689E42C4
:1028B00003D313D80E9B9F4210D8684A2B6A01920B
:1028C000674A0D93009231003A002800654BFFF7EC
:1028D00083FA041E9AD05649634A7EE7109B002B68
:1028E00056D0390030000F9AFFF720F9040066E750
:1028F00030001099FFF7D4F9061E02D04C495B4A0C
:1029000091E05B4BEE6828620893119B30004D49C3
:10291000013707930997FDF7ADFC0800FA218900FC
:10292000FDF722FC484906903000FDF7A3FC0800A3
:102930004449FDF719FC444905903000FDF714FCAB
:102940000490AB680C983F490393FDF793FC080093
:10295000FA218900FDF708FC3B4902900C98FDF72D
:1029600089FC08003749FDF7FFFB374901900C98B7
:10297000FDF7FAFB0D9B00903E4A0320344902F01C
:1029800055F98023DB009F4204D129493A4A83E765
:1029900001240027394D0B9AAB680D93EB680C931B
:1029A0000D9B934204D314D80C9B0E9A934210D8DB
:1029B0002B6A334E1193334B2D4A109300930E998B
:1029C00033000B98FFF72EF9002891D018492E4AB2
:1029D000E5E60A9B002B06D1FFF7C2F9061E02D0DE
:1029E00013492A4A1FE0012C0BD11B4AAB68966899
:1029F0009E4206D8D76800D273E7EB689F4200D2A8
:102A00006FE71E4B0F9AD96898686DE70A9B002BF9
:102A100000D0D4E612AD2800FEF75EFE061E00D1FF
:102A2000DFE603491A4A3000FFF70CF83400C6E627
:102A3000DC590108B10B0000B40B0000B70B00001B
:102A40001027000060EA000080EE3600A65C010856
:102A50000BB90108E60B000090020020B002002034
:102A60009C02002098020020D90B0000FE0B000001
:102A700030750000325D01080D0C00006C02002072
:102A80007402002078020020FB0B0000140C0000F0
:102A9000BF0B000000230B4A10B51380D370936066
:102AA0005360094A02201380D3709360D360074AB1
:102AB00007491380D3709360D360064A02F0B6F8DA
:102AC00010BDC046B4020020900200206C0200201D
:102AD0000BB90108C75D010810B513000A000121F8
:102AE000FFF772F810BD10B513000A000021FFF7C0
:102AF0006BF810BDF7B5D822254C520000212000FC
:102B0000F426FA2711F0D2FD0023224AF600BF0076
:102B100021489900415801209160204998408C46F5
:102B2000FA21654613704900284204D13900304229
:102B300001D159425941D16002210133117720322C
:102B40000C2BE5D1012525700024154B21001C70AC
:102B5000144B10221C70144B14481C70144B1C7026
:102B6000144B1C70144B1C7011F0A0FD210024228A
:102B7000124811F09BFD21002422114811F096FD0E
:102B8000FEF7ACFF280022002100FFF7ACFFFEBDDE
:102B9000C4020020C8020020F0CA01085A08000040
:102BA000690100206801002067010020B4020020B4
:102BB00066010020650100206401002090020020D1
:102BC0006C020020004870474804002003000348BE
:102BD000282B02D8024A9B00985870472D5E0108A6
:102BE0004CCA0108F0B5224C8DB00B934301E41898
:102BF000A37915000893E37907000993237AE2711A
:102C00000A9300230E002372A1710EF021F8012314
:102C10000B9A6371E318DA776369A061013363612A
:102C2000089BE061B34205D1099BAB4202D10A9BEC
:102C3000002B1AD00F4ABB0008989C58FFF7C6FF1C
:102C400007003000FFF7C2FF0B9B019006930023A3
:102C500005930A9B02200493099B074A02930749A4
:102C600023000395009701F0E1FF0DB0F0BDC046D1
:102C7000C4020020F0CA0108355E01080BB9010842
:102C8000F0B589B00500079108F0E2FC764B774A71
:102C90000693079B0699009304002B00032001F084
:102CA000C5FF08F0DBFB031E07D00320704A06991E
:102CB00001F0BCFF00200BF065FC002C07D0267F44
:102CC000082E21D0A827092E1FD0FEF707FF0024C9
:102CD000684B22001C7014210620079BFFF782FF1F
:102CE000C4220121644B520099542000043A49182F
:102CF00099540BF079FC041E2AD01E205F49604ACB
:102D0000FEF7A0FE1E2423E03027FEF7E7FE012396
:102D10005C4D2B705C4BAE70DA68102311001940CB
:102D20001A4200D17EE0FFF75FFC0400022819D0B0
:102D3000002810D05149554AFEF784FE4F49544AA5
:102D40002000FEF77FFE20004C49524AFEF77AFE33
:102D5000200009B0F0BD39004F4A5048FFF790FA03
:102D6000041EEBD1FFF706FC0400022811D0002856
:102D700006D042494A4AFEF765FE4049494ADFE724
:102D80003900494A4948FFF77BFAFD2304001842FD
:102D9000F3D10123414A6B705378012B3CD19168E8
:102DA000D2686960AA6041494A78012A36D18A68A6
:102DB000C968012B06D16B68934203D804D3AB6872
:102DC0008B4201D36A60A960300006F065F9AC68F7
:102DD000069037492000FDF74DFA0800FA218900D6
:102DE000FDF7C2F9334904902000FDF743FA0800CB
:102DF0002F49FDF7B9F92F4903902000FDF7B4F9E9
:102E000002906B682C4E01933200069B1649009786
:102E1000032001F00BFF5AE70023C4E7012B00D089
:102E200053E7D1E7E12380201B017B434002697017
:102E3000EB600AF009FB041E02D010491F4A7FE72D
:102E4000EB681F4A30009B18EB6006F025F9E96833
:102E5000030002918021490201911A4A06990097C4
:102E6000032001F0E3FE32E70BB901086C5E0108B4
:102E7000B25E010868010020C4020020DC5901088C
:102E8000560900005C0200200028004042080000B3
:102E90007C0800004A090000515C010890020020F3
:102EA000530800007F080000215C01086C0200202C
:102EB00060EA000080EE3600F85E0108AD08000010
:102EC0000000FFFF635F0108002310B51A00032113
:102ED0001800FFF787FEFEF7EBFC0022040003005A
:102EE00003211000FFF77EFE200010BDF0B59FB05B
:102EF0000D000690282801D900F0BAFF8623B74CB0
:102F0000FF33E0540DF0A4FECE2301225B00E0501D
:102F100000200C33E250203BE0540BF049FB0590BD
:102F2000002807D01E20AE49AE4AFEF78BFD1E23B7
:102F30000593EDE0069B581E272801D900F093FF6A
:102F4000FDF708F928009107E900F500FC00F500FD
:102F50001E01010123012A013E01760150025602A1
:102F60007002DF02E902F802F302020348034E0492
:102F70005F0438053E054C0550055605640594066A
:102F800098069E06AC06100714072007330788072B
:102F90006D078C07002303211A001800FFF722FE9B
:102FA000002304211A000120FFF71CFE0023072143
:102FB0001A000220FFF716FE002309211A00032041
:102FC000FFF710FE00230D211A000420FFF70AFE70
:102FD000002311211A000520FFF704FE002314210D
:102FE0001A000620FFF7FEFD002318211A00072013
:102FF000FFF7F8FD00231B211A000820FFF7F2FD60
:1030000000231F211A000920FFF7ECFD00232321D4
:103010001A000A20FFF7E6FD002325211A000B20E5
:10302000FFF7E0FD002203201100FFF75CFD011E09
:1030300006D06B496C4A1B20FEF704FD1B2377E783
:1030400002000420FFF74FFD011E02D06449674AC9
:10305000F1E702000720FFF746FD011E02D060499C
:10306000634AE8E702000920FFF73DFD011E02D098
:103070005B49604ADFE702000D20FFF734FD011EC7
:1030800002D057495C4AD6E702001120FFF72BFD1A
:10309000011E02D05249594ACDE702001420FFF721
:1030A00022FD011E02D04E49554AC4E702001820F5
:1030B000FFF719FD011E02D04949524ABBE7020041
:1030C0001B20FFF710FD011E03D098224449120176
:1030D000B1E702001F20FFF706FD002802D040499B
:1030E000494AA8E7012100222320FFF7FCFC011E2A
:1030F00002D03B49454A9EE702002520FFF7F3FC3A
:10310000002802D03649424A95E7C2235B00E054CA
:1031100005981FB0F0BDFFF7D7FE002800D104E2EC
:103120000A202F493B4AFEF78DFC0A2300E70023C3
:1031300005211A000120FFF755FDF6E101220023C9
:1031400006211000F7E7012D1AD1FA23324A9B001D
:103150003249032001F06AFD80212A0049003048ED
:103160000EF018FCFA2080000DF078FD72B6BFF367
:103170004F8F2C4B2C4ADA60BFF34F8FC046FDE7D0
:10318000002308211A000220D5E7FFF76DFA00237B
:103190000A211A000320CEE7230068331D78012D91
:1031A0000AD1002229000B20FFF79DFC2A00031EF4
:1031B00004D09C220A498AE700231A000B21E9E780
:1031C000002201210C20FFF78EFC031E02D00449CF
:1031D000164A30E701220C21DCE7C046C402002079
:1031E000DC5901086609000078090000790900002F
:1031F0007A0900007B0900007C0900007D090000BD
:103200007E0900007F09000081090000820900009A
:103210008309000089090000D25F01080BB9010889
:103220000004005000ED00E00400FA05CB090000A6
:103230002022002114A811F039FA08F009FA05003B
:10324000031E25D00479631E9C41C64B64421C407A
:1032500043692D34FF34002B1AD00DF0F9FC6E6950
:10326000831BA34214D236192F79361ABE48BF4A9F
:10327000BF4901930397030002940220009601F0D6
:10328000D5FC30000DF0EAFC0DF0E2FC6B69C31ACE
:10329000B84AB749022001F0C9FCA020012204214C
:1032A000C00501F0C1F864200DF0D8FCB24DB34B5D
:1032B0002A689A4212D091220320B149FEF7C2FB3C
:1032C000A02000220421C00501F0AEF80324230051
:1032D000AC4AA749032001F0A9FC77E00F27082694
:1032E00001F090F9280010F0E7F92B6814201F6214
:1032F0009A6932439A610DF0B1FC2B6864201F6219
:103300009A6932439A610DF0A9FC642305222800D2
:103310009D4910F049FE002806D0F722092098495F
:10332000FEF790FB0924D2E72B6828001F629A69F8
:1033300014A932439A6196231522DB0010F09AFEFD
:10334000040003281AD1280010F04EF92B68069CBF
:103350001F629A6916439E6164200DF07FFCA020D5
:1033600000220421C00501F05FF8002C0FD00422D8
:1033700083492000FF32FEF765FBA8E70028EBD069
:10338000BD220A207E49FEF75DFB0A24E4E7784E61
:103390001523310014AA022001F074FC01F0B0FDE5
:1033A0000500012001F0A4FD152114A801F0ACFED8
:1033B0000400280001F09CFD002C02D0102270496E
:1033C000D7E731000220714A01F030FC23000022CF
:1033D00009210320FFF706FCC22201216C4B520099
:1033E000995495E60AF078F800230E211A0014E0AB
:1033F000230088331B78012B03D0664B1B78012BED
:103400000DD1002201210F20FFF76DFB031E02D01A
:103410005B49614A0FE601220F2104208BE608F088
:10342000F9FEE1E75D4B1B78012B58D1594B1A7817
:10343000012A09D100225A481A700CF029F959487A
:103440000BF04AFC00284AD1574B1A78012ACBD1FD
:10345000FE321A7008F084FE002804D00320534A7C
:10346000434901F0E3FB14AD280008F0ABFF061E52
:1034700035D12B78012B23D16978AB780391697909
:103480003B4F0291297902200191E978484A009145
:10349000390001F0CBFB6D78012DA5D13200290058
:1034A0001520FFF720FB031E9ED12A0015210620C0
:1034B000FFF798FB39003F4A022001F0B7FB93E782
:1034C0003D4D28000CF0BCFB00280FD03B480CF011
:1034D000C5FF002888D00238C0B2032884D9284903
:1034E000374A1F20FEF7AEFA1F2321E501212800ED
:1034F0000CF02CFA022800D876E7042800D173E7F4
:10350000EDE7002310211A000420FFF76BFBC22314
:1035100001225B00E2542B48FDF7BEFF002804D0D7
:103520000420294A294901F081FBC22301225B00C2
:10353000E254EDE5002213201100FFF7D4FA002831
:10354000F3D0A1220E49C2E5002201211520FFF788
:10355000CAFA021E02D00A491D4A6CE50300152171
:103560000620E8E598080000F35F01080160010803
:103570000BB901085F600108E00A00200044004028
:10358000DC590108D960010830CB0108AD600108A1
:10359000C40200206B010020EF0900006A01002036
:1035A000340200206C0100200C0000200F61010893
:1035B000386101086C610108B80100209001002009
:1035C000FD090000780C00208B610108966101085C
:1035D000230A0000172704ABFF180023C34D04AAD9
:1035E0003B7013762B78012B71D16B78012B00D0B7
:1035F00082E0BF4BDB68DB0614D4A87805F04CFDF5
:10360000BC4A0300BC49032001F010FB0022BB4B65
:1036100014211A70BA4B1A70BA4B1A70BA4B1A703E
:1036200013009DE714AE3000FEF756F8002806D0D0
:10363000B649B74AFEF706FAB449B64A51E73288A6
:10364000B54BB178534364224A439B18F27830005B
:103650009B180693FEF74CFA6B68069A934203D8C0
:103660002AD1AB68984227D2A04EB07805F014FD5D
:10367000B7680690A9493800FCF7FCFD0800FA215C
:103680008900FCF771FDA64903903800FCF7F2FDB4
:103690000800A249FCF768FDA14902903800FCF738
:1036A00063FD019073689F4D00932A00069B924929
:1036B000022001F0BBFAA9E7A87805F0EDFC0300B1
:1036C000994A8D49022001F0B1FAFEF707FA8C4DB4
:1036D0002B78012B76D0954B1B78012B72D1FEF7FE
:1036E00083FF022836D000282DD08849904AFEF763
:1036F000A9F986498F4AF4E6EE68002E1DD0802392
:103700005B029E4200D91E00300009F09DFE002899
:1037100003D08F227D4912018CE7EB68A8789B1BB0
:10372000EB6005F0B9FC0300E868834A0190724938
:103730000096022001F07AFA68E7A87805F0ACFC60
:103740007E4A0300BDE739007D4A7E48FEF76AFCE9
:103750000028CED1FEF70EFF02280FD0002806D099
:103760006A49794AFEF76EF96849784AB9E6784AB3
:1037700078480AA9FEF756FC0028F5D13A7804AB40
:103780001B7E012A13D0012B11D000225B4B142188
:103790001A7006201300FFF725FAC22301225B00EE
:1037A000E25455496C4A022001F040FAB0E4554910
:1037B0000A7055490B70012A03D0013B5A4253410C
:1037C000DAB22A70002201211620FFF78CF9031EBD
:1037D00003D04E49614AFFF72EFC01221621BFE6B5
:1037E00001200AF0CFFE002201211720FFF77BF90C
:1037F000031E03D045495A4AFFF71DFC0122172139
:10380000AEE64A4B14A802251E78069302F044F94E
:10381000A843C0B2002803D0A6223C49120160E6AA
:10382000472304AA9B18DF7F012E0ED0324E4D4A4B
:103830003100280001F0FAF907F0A4FB011E1BD0AB
:103840004948FFF71DFA059062E42C4E3378012BAE
:103850000CD1464A2849280001F0E8F909F016FE83
:10386000002802D02949424A3BE6307006F036FF74
:10387000011E0DD03F48E4E731003F4A280001F027
:10388000D5F909F003FE00281FD020493B4A28E65D
:103890007B425F411B4EFDB23378012B06D11A4BA0
:1038A0001B78012B18D0280007F054F9164F3878F0
:1038B000012801D107F0BCFD3378012B05D03B78FE
:1038C000012B02D0280007F045F907F0C7FD051EBF
:1038D0005AD00E492A4A04E603202A4A064901F032
:1038E000A5F93378012BE1D1DDE7C0465C02002069
:1038F000002800409A6101080BB901086801002006
:10390000660100206501002064010020DC590108E7
:10391000D30800002E0A00001027000060EA000013
:1039200080EE3600E26101083E6201086701002076
:103930007E0700003C0A000070620108CB620108AB
:10394000515C010890020020970700003D0A00002A
:10395000215C01086C020020066301084C0A00008B
:10396000540A00003E630108B06301087E63010849
:10397000670A000003640108C6630108860A0000A4
:10398000A50A00000F6401080126FEF7A7F8069BB0
:103990002A001E70CA4B14211D70CA4B06201D70D0
:1039A000C94B1D702B00FFF71DF9C2235B00E654C5
:1039B000FFF7AEFB002319211A000720FFF7BBFB1E
:1039C000002201211A20FFF78EF8031E03D0BF4901
:1039D000BF4AFFF730FB01221A21EEE7002318212E
:1039E0001A00EAE700231C211A000820FFF7A3FBB6
:1039F00000221D201100FFF776F8021E03D0B34904
:103A0000B44AFFF718FB03001D21EEE709F014FD8F
:103A10000C2302001A40184200D1FBE0002304AA44
:103A2000D3751376820811000133C008194018407D
:103A3000069107901A4276D0FEF76AFA041E09D161
:103A400014AE3000FDF748FE041E08D09F49A24A7C
:103A5000FDF7F8FF022C59D01C2C57D02BE03388EF
:103A60009E4CB2785C4364235343E418F3783000EF
:103A7000E418FEF73DF89A4D03006F68A74245D859
:103A8000A86801D1984241D8AC7896496143FCF7C7
:103A90006BFB64235F43EB68C7199F4236D021005C
:103AA0003000EF60FEF7E2F9041E0DD001208749D7
:103AB0008D4AFDF7C7FF200084498C4AFDF7C2FFFD
:103AC00082498B4AFFF7B7FAAC688A492000FCF7B5
:103AD000D1FB0800FA218900FCF746FB81490390DD
:103AE0002000FCF7C7FB08008249FCF73DFB7D493D
:103AF00002902000FCF738FB01906B687E4E00932B
:103B000032003B0002207D4901F090F8079B002B1A
:103B10000CD101210A20079AFEF7E5FF002869D0A1
:103B20006A49774ACAE7079B002B5DD0FEF75CFD28
:103B3000002806D1172104AB724A7348C918FEF752
:103B400007FB1C2804D8714C2300C340DB0702D4B8
:103B50005E496F4AB2E7FEF70DFD002804D16D4AB9
:103B60006D480AA9FEF7F4FA1C2802D8C440E407FD
:103B700002D45649694AA1E7172304AA9B181A7868
:103B8000504B51491A700AAB1B780B70012A03D0B5
:103B9000013B5A425341DAB2494B1A70069A002A45
:103BA00000D16DE100225E4B3C201A7009F04CFC04
:103BB000031E04D003205B4A504901F037F800226D
:103BC00001210A20FEF78FFF002802D03F49564A04
:103BD00074E7030001220A210320FFF703F8534A88
:103BE0000220464901F022F800231E211A00082075
:103BF000FFF7F0FB01220A210320079BFEF7F2FFEB
:103C00004B4AEDE7220015210620069BFEF7EAFF4E
:103C1000484AE5E72A4B1C78012C10D121001520D9
:103C2000FEF761FF031E03D02849434AFFF703FA5A
:103C3000220015210620FEF7D5FF404AD0E7384B79
:103C400019780129D0D00124152021001C70FEF71D
:103C50004AFF031E03D01D49394AFFF7ECF9220041
:103C600015210620FEF7BEFF364AB9E700231E21C4
:103C70001A00BAE6002320211A000920FFF75BFA98
:103C8000002201212120FEF72EFF031E03D00F4941
:103C90002D4AFFF7D0F901222121EEE7204B1A78B7
:103CA000012A5FD001250022290015201D70FEF792
:103CB0001AFF031E4CD00549244AFFF7BCF9C04641
:103CC000660100206501002064010020DC59010824
:103CD000BC0A0000D70A00000F06000010270000F1
:103CE000B402002080EE36002C060000520C0000CA
:103CF000E80A000060EA0000656401080BB90108E9
:103D0000810C0000515C01089002002005000010A9
:103D10005B0C0000215C01086C020020610C0000BB
:103D200068010020AC640108770C0000FF64010802
:103D30005A650108A8650108EC0A0000F46501084D
:103D4000F30A00003F6601080D0B00001B0B00008A
:103D50002A0015210620FEF745FF0220514A52494C
:103D600000F064FF002322211A0086E700220121CF
:103D70002420FEF7B8FE0122031E12D04B494C4A04
:103D8000FFF759F9012220214A480DF003FE0120D6
:103D90000CF064FF0022202146480DF0FBFD0023BB
:103DA0001A0024210A20FFF7C6F90AAD280002F004
:103DB00057FE022802D1280002F07CFE0A9A2B79D5
:103DC000120A1B0613431922013304A95218190AB7
:103DD00013705170190C1B0E9170D370280002F0F3
:103DE00069FE280002F092FE14A801F055FE022898
:103DF00002D114A801F082FE14A801F0BBFE00223B
:103E000001212620FEF76FFE031E03D027492A4A10
:103E1000FFF711F9012226210B20FFF78CF9274B20
:103E20001A78012A16D001250022290015201D70BC
:103E3000FEF759FE031E03D01C49214AFFF7FBF889
:103E40002A0015210620FEF7CDFE02201D4A164944
:103E500000F0ECFE002327211A00DDE7C223032235
:103E60005B00FFF765FBC22302225B00FFF760FBEC
:103E700001200E49144AFDF7E5FD0123FFF758F82C
:103E80001C78012C00D0AFE6104B069A21001520BB
:103E90001A70FEF728FE002800D1B3E603490C4A49
:103EA0000CE6C046826601080BB90108DC5901081E
:103EB0002A0B000000040050490B0000690100209B
:103EC0005E0B0000C36601085E0900006801002067
:103ED0008A0C0000F0B5B04C8FB02678012E08D0C7
:103EE0000220AE49AE4AFDF7ADFD022528000FB015
:103EF000F0BDD6225200A3580133A350D423002290
:103F00005B00E250FEF7E0FF051E05D0A349A54A7D
:103F10002800FDF797FDE9E708AF3900300002F00F
:103F2000E9FE051E51D1BB781D1C282B00D9282580
:103F3000BB68EDB2002B1DD0681F20281AD8FCF7F3
:103F4000F5F81212193E193C3C3C193A3A3A193824
:103F5000381936363619343419111111191919193D
:103F600042424000082601237601A61933720CF064
:103F70006FFEF061C3235B00E5548823FA78FF33BA
:103F8000E2547A681133E250BA680833E250C8222A
:103F9000F96852000433E150A3580133A350043AA6
:103FA000A3580133A3502800CDE00726DBE70626FF
:103FB000D9E70526D7E70426D5E70326D3E7022667
:103FC000D1E70B26CFE70A26CDE71C2802D073499C
:103FD000754A9DE7FDF79CFF0500022808D00028E0
:103FE0002ED06E49714A2800FDF72CFD1C2D60D1A2
:103FF00000276F4BDD5D0B2D00D942E16E01A61944
:104000003369002B00D13CE10CF022FEB369002B98
:1040100004D0C01A3369984200D232E1681E2825C4
:104020000A2800D99AE0FCF795F89200B000D90070
:10403000E200EB00F400FD0006010F01190121016F
:1040400006AE3000FDF748FB051E02D05349594A21
:10405000C9E73388584DB2785D4364235343ED1864
:10406000F3783000ED18FDF743FD544F03007A68F4
:104070000592AA42BCD8B86801D18342B8D3BD78B2
:104080004F496943FCF770F86423059A5343C318FA
:104090000593059AFB689A42AAD029003000FA607D
:1040A000FDF7E4FE051E07D001203C49454AFDF717
:1040B000C9FC3A49444A2BE72300012268331A70AD
:1040C0000CF0C6FDBE68E06740493000FCF7D2F84E
:1040D0000800FA218900FCF747F8394903903000BD
:1040E000FCF7C8F808003949FCF73EF8344902905B
:1040F0003000FCF739F80190354E7B683100354AC5
:1041000000930220059B00F091FD0A20FEF75EFD62
:1041100031000300304A022000F088FDC3230A2644
:104120005B00E6520CF094FDCC2301225B00E050D2
:10413000290030000833E2508C320433FF32E5505E
:10414000A3580133A350FEF7D1FE0500CEE6E31DD0
:10415000DD7F042D02D0062D00D00525C3235B0092
:10416000E55488230026FF33E6540CF071FDCC2380
:10417000C6225B00E0500833E65052000433E6509C
:10418000A35831000133A3500DE7230046331D78B7
:10419000072DE3D00825E1E7C4020020DC5901081F
:1041A000980C00009E0C0000B90C0000D105000026
:1041B00035CB0108D405000010270000B402002010
:1041C00080EE3600F2050000C70C000060EA000037
:1041D0000BB9010803670108526701082300663321
:1041E0001D782B00093B032BB8D90A25B6E723001D
:1041F00086331D782B000D3B022BAFD91025ADE780
:104200002300A6331D78112DA8D0132DA6D012257A
:10421000A4E72300C6331D782B00143B032B9DD944
:1042200015259BE72300E6331D78182D96D01A2D0F
:1042300094D0192592E72300FF33DD792B001B3B37
:10424000022B8BD91E2589E793235B00E55C2B00AD
:104250001F3B032B00D881E720257FE7A3235B00CA
:10426000E55C232D00D179E7242577E7B3235B00B4
:10427000E55C252D00D171E7262D00D16EE72725BD
:104280006CE70137032F00D0B3E622000C23117A2C
:10429000002918D1013B2032002BF8D186230225BA
:1042A000FF33E5540CF0D4FCCE23CA225B0052004D
:1042B000E050A35801200133A350C4235B00E05415
:1042C000043BE55400E000200AF072F93DE7C046E7
:1042D000862210B5024BFF32985CFEF777FC10BDCA
:1042E000C4020020C222054B52009B5C0448032BF1
:1042F00002D8044A9B0098587047C046C402002068
:104300002D5E010820CB01080121154B86B0DA6A29
:104310000A43DA62DA6A0A400192019ADA6A4918B3
:104320000A43DA62DA6A0A400292029ADA6A0231CF
:104330000A43DA62DA6A0A400392039ADA6A0431BB
:104340000A43DA62DA6A0A400492049ADA6A783135
:104350000A43DA62DB6A0B400593059B06B070479F
:10436000001002407FB50C22002103A810F09EF936
:104370001023A0200193842301A99B03C00502936D
:104380000DF0C6F907B000BD30B587B004000D00D0
:104390000C22002103A810F089F90323200001A9B1
:1043A000019502930DF0B4F907B030BDA02010B50F
:1043B0000A49C005FFF7E8FF09490A48FFF7E4FF8B
:1043C00009490A48FFF7E0FF09490A48FFF7DCFFFF
:1043D00009490A48FFF7D8FF10BDC04661980000A0
:1043E0001FF2000000040050F03D000000080050E3
:1043F000FBFF0000000C0050FFFF0000001C0050FD
:1044000010B5084B1B7A012B0BD1C021A020C9018C
:10441000C005FFF7B9FFC021A020C900C005FFF704
:10442000B3FF10BD7404002030B50D0087B089B211
:1044300004000DF0AFFA0C22002103A810F036F9A9
:104440000123200001A9019502930DF061F907B045
:1044500030BD0000802110B500220B484900FFF755
:10446000E3FF0A4B9C78012C0AD122000421084862
:10447000FFF7DAFF220008210548FFF7D5FF10BD3E
:1044800000220421F8E7C046000400507404002014
:104490000008005070B51B4CE378012B2CD01A4D4E
:1044A0001A4A2900022000F0C1FB0421184800220A
:1044B000FFF7BAFF042116480DF066FA00281CD059
:1044C00029000420134A00F0B1FB08211048FFF72F
:1044D0005BFF4022104BD9691142FCD004211A68BD
:1044E0000B488A431A600139FFF74EFFFA2080001B
:1044F0000CF0B4FB0123E37070BD29000120074AD2
:10450000E1E7C04674040020586A0108786A01088F
:10451000000800505D6A010800480040746A010804
:10452000802370B52E4ADB02916B86B00B439363F8
:10453000042101222B48FFF777FF042129480DF0C1
:1045400023FA294D012847D029000420274A0824AE
:1045500000F06CFB012208212248FFF765FF2200D2
:10456000002103A810F0A2F80323022601A9019359
:104570001C48DB18059302960DF0CAF80A200CF0CF
:104580006DFB2100002217480DF004FA0A200CF000
:1045900065FB2100012213480DF0FCF90423144AA5
:1045A0000A2011680B4313600CF058FB0F22114BCB
:1045B00005201B681A629A69144310229C611A62D2
:1045C0000CF04CFB00220C4B2900DA7030000B4A37
:1045D00000F02CFB06B070BD2900094AB7E7C046C1
:1045E0000010024000080050586A0108896A01085A
:1045F00000480040F00B002074040020A36A01086A
:104600009F6A0108802330B50824154A9B02916BEC
:1046100087B00B4393630021220003A810F046F8F3
:104620000C23A020042501A90193C0050A3B029395
:1046300005950DF06DF80B4B0A201A6815431D60A7
:104640000CF00CFB0F22084B05201B681A629A69BC
:10465000144310229C611A620CF000FB07B030BDBD
:104660000010024000440040E00A002010B5041E83
:1046700005D00822002110F019F8014B636010BD2D
:10468000FF01000070B5041E06D1012009490A4A45
:10469000FDF7D8F9012070BD084D10220021280037
:1046A00010F004F82B00083306CC06C301230020C9
:1046B0002B70F0E7B36A01083D020000740400208B
:1046C00010B5114C2378012B06D002200F49104A57
:1046D000FDF7B8F9022010BDFFF716FEFFF766FEE2
:1046E000FFF7B8FEFFF73EFEFFF78AFEA378002B28
:1046F00003D1FFF7CFFE0020EDE7E378002BFAD0DF
:10470000FFF70EFFF7E7C04674040020B36A010804
:104710004A02000070B5124E05003478012C08D012
:10472000982202200F499200FDF78CF90224200004
:1047300070BD012805D920000A490B4AFDF782F90E
:10474000F5E7B070FFF7E0FD002D03D1FFF7A2FE03
:104750000024ECE7F378002BFAD0FFF7E1FEF7E74F
:1047600074040020B36A01086102000010B5524CC5
:104770002378012B06D002205049514AFDF762F9F7
:10478000022010BD6378012B00D192E04D4A4E49C2
:10479000022000F04BFAFFF7B7FDFFF707FEFFF727
:1047A00059FEFFF7DFFDFFF72BFE4022474BD9698B
:1047B0001142FCD00421A0201A68C0058A431A6067
:1047C0000022FFF731FEA0200821C005FFF7DCFD25
:1047D000C0213F480901FFF7D7FD8021A0204900F3
:1047E000C005FFF7D1FD80213A488900FFF7CCFDD5
:1047F000A02000228021C005FFF716FE20213448AA
:10480000FFF7C2FDA378002B01D1FFF743FE402242
:10481000314BD9691142FCD004211A68A0208A4387
:10482000C0211A60C900C005FFF7AEFDE368DA07D2
:1048300004D52A492A484A6B02404A639A0704D59C
:10484000264928480A6B02400A635A0704D52349BF
:1048500025484A6B02404A631A0704D51F4923487A
:104860008A6B02408A63DA0604D51C4920488A6BA9
:1048700002408A639A0604D518491E488A6B024092
:104880008A635A0604D515491B488A6B02408A631D
:104890001A0604D511498A6B520052088A63DA0558
:1048A00004D501200D494A6B82434A6363600123AA
:1048B0006370002065E7C04674040020B36A0108F5
:1048C00075020000CD6A0108586A010800440040E2
:1048D0000004005000080050003801400010024061
:1048E000FFFDFFFFFFEFFFFFFFBFFFFFFFFFFDFF2C
:1048F000FFFFFBFFFFFFBFFFFFFFFFBFF0B56B4EEA
:1049000087B03578012D07D002206949694AFDF743
:1049100099F8022007B0F0BDFFF7F6FC7368664C0B
:104920002B4204D08022616B92000A4362639A0793
:1049300008D58021226B49010A432263226B0A4079
:104940000092009A5A0704D58022616BD2010A4373
:1049500062631A0704D58022A16B92020A43A26304
:10496000DA0604D58022A16BD2020A43A2639A061A
:1049700004D58022A16BD2030A43A2635A0604D550
:104980008022A16BD2050A43A263DB0503D5012374
:10499000626B13436363F378012B0CD10022042173
:1049A0004648FFF741FD08214448FFF7EDFC03218D
:1049B0004248FFF7E9FCFFF7F9FCFFF74BFDFFF773
:1049C000D1FC8023626BDB0113436363C023DB00F4
:1049D0000193A02002230025042701A90293C0050A
:1049E00001330493059703950CF092FE344B0A2093
:1049F0001A6817431F600CF031F90F220821314B60
:104A000005201B6812271A629A690A439A611022CC
:104A10001A620CF023F9FFF7F5FD8023A26BDB038C
:104A20001343A3630822290003A80FF03FFEC0230D
:104A30001B0101930623244801A9059302970CF05A
:104A400067FE8023A26BDB051343A36308222900C2
:104A500003A80FF02BFE8023A02007245B0001A9F0
:104A6000C0050193029705940CF052FE8023134871
:104A70009B0001A9019302970395049505940CF0FE
:104A800047FEA0202A008021C005FFF7CDFC2A00A8
:104A900020210D48FFF7C8FCFFF7B2FC02200B4AAB
:104AA0000B49757000F0C2F8280033E77404002049
:104AB000B36A0108D702000000100240000800504D
:104AC00000380140680B002000040050026B010810
:104AD000586A010870B502250A4C2A0000212000FE
:104AE0000FF0E4FDFCF720FF0378012B06D008202F
:104AF00052220549FCF7A6FF082070BD0020657012
:104B00002370FAE7940400203F6B010800487047C7
:104B100094040020F0B53B4B0E001D781400B9B092
:104B2000012D08D0712202203749FCF78BFF0225A6
:104B3000280039B0F0BD052805D972222800324975
:104B4000FCF780FFF4E75B7800258342F0D8052866
:104B5000EED02E4B8000C3580693A94200D12C4EB4
:104B6000002C00D12B4CFCF77FFDFA2189000700B7
:104B7000FBF7FAFA3C210590FBF7F6FA3C21050019
:104B8000FBF7F2FAFA21079089003800FBF772FB75
:104B9000059802913C21FBF76DFB280001913C2117
:104BA000FBF768FB1C4D079B1C4A00912800102155
:104BB0000FF0D6FC1A4BC0210393069B194A0093B1
:104BC00002942B00019608A80FF0CAFC002806DA10
:104BD00085221E200C49FCF735FF1E25A8E781B26F
:104BE000BF280AD9CD212E2304AA521813700131EF
:104BF0000D4B04AA521813800E3908A8FCF75AFE70
:104C0000050095E7940400203F6B010858CB01088C
:104C1000556B01088F9D010884040020596B010821
:104C20008D9D01086F6B01080D0A00000CB430B5B2
:104C3000B3B0369B04000D00002B0AD1012098224E
:104C40000F49FCF7FFFE012033B030BC08BC02B0B6
:104C5000184737ABC021369A02A801930FF00CFD1C
:104C6000002806DA1E209E220549FCF7EBFE1E20D6
:104C7000EAE72900200002AAFFF74CFFE4E7C0465C
:104C80003F6B0108F0B50024B5B015000290039108
:104C90000093A24238D10120A7221E49FCF7D2FE80
:104CA000012035B0F0BD009B1B1B1A1C9BB2102BC2
:104CB00000D9102293B20193C0212300164A04A800
:104CC0000FF04EFC002604AF3800FBF727FAC02196
:104CD0002B199B5D114A091A38180FF041FC013657
:104CE000019AB3B29A42EED83A0003990298FFF7BC
:104CF00011FF002806D00920C4220649FCF7A2FEB5
:104D00000920CEE71034A4B2009B9C42CBD30020F4
:104D1000C7E7C0463F6B0108816B0108A26D01081F
:104D20004278037812021A438378C0781B04134335
:104D30000006184370470000F0B589B003AE142296
:104D400001910400002130000FF0B0FC1B4B002249
:104D5000D96810230D0002AF02921D40194208D1FC
:104D60000420174A1749FFF761FF019B1D7009B026
:104D7000F0BD154D310028000EF0BEFB021E13D110
:104D8000390028000EF0E0FB00280DD10125FB784A
:104D900023707B786370BB78A3703378E37073788B
:104DA0002371B3786371E0E7FF2323706370A3700E
:104DB00000231D00E3702371F4E7C0460028004083
:104DC0009E6B0108B06B0108A00D002001000023BC
:104DD0000F2070B50A00DA400240092A11D80433C6
:104DE000202BF7D10023012418000F260A250A00E2
:104DF000DA403240624304336C438018202BF6D1F2
:104E000070BD0020FCE70000F0B58BB004000091FD
:104E1000002907D10120D1223249FCF713FE0120DD
:104E20000BB0F0BD04AF1822002138000FF03EFC9B
:104E300002ABDE1D310005A8FFF77EFF2000083021
:104E4000FFF76EFF050020000F30FFF769FF0190AC
:104E50002800FFF7BBFF05000198FFF7B7FF0F22FF
:104E60000021A37B36781340627B9C46B9701209FF
:104E70000831012E00D10431F970122102ABC9189A
:104E80000D802D0C4D801621C91863461201088033
:104E90001343000C48807B75237B7F2219009143CC
:104EA0000A0040210B4200D00A4320210B4200D0CF
:104EB0000A431F2504AC2B40E37401232000A27495
:104EC000237501F043FB1822210000980FF088FCA5
:104ED0000020012EA4D0044A04490330FFF7A6FEA7
:104EE00028009DE7B66B0108CE6B0108B06B010886
:104EF000421E9041014B18707047C0460D000020C3
:104F0000014B18787047C0460D000020020041791F
:104F100003795B1881795B18D8B2D31D13321978E5
:104F200001334018C0B29342F9D1704710B5040064
:104F3000142A17D915220FF053FC2378682B14D1AB
:104F4000E378682B11D16278A3789A420FD1237D40
:104F5000162B0ED12000FFF7D9FFE37C83420AD144
:104F6000002010BD01204042FBE70220FBE70320A8
:104F7000F9E70420F7E70520F5E70000F0B50400A5
:104F80004C4D85B0002806D1290004204A4AFFF77D
:104F90004DFE05B0F0BD0830FFF7C2FE070020004F
:104FA0000F30FFF7BDFE29000600444A0220FFF73C
:104FB0003DFE29002378424A0220FFF737FE2900F0
:104FC0006378404A0220FFF731FE2900A3783E4A69
:104FD0000220FFF72BFE2900E3783C4A0220FFF76E
:104FE00025FE290023793A4A0220FFF71FFE2900F7
:104FF0006379384A0220FFF719FE2900A379364A5F
:105000000220FFF713FE2900E379344A0220FFF75C
:105010000DFEE17A237A0291A17A314A0191617AF7
:10502000022000912900FFF701FE2900237B2D4A71
:105030000220FFF7FBFD2900637B2B4A0220FFF7CC
:10504000F5FD2900A37B294A0220FFF7EFFDA17C93
:10505000E37B0291617C264A0191217C0220009130
:105060002900FFF7E3FD2900E37C224A0220FFF735
:10507000DDFD237D2900204A0220FFF7D7FD29000E
:105080001E4A0220FFF7D2FD3800FFF79FFE3B00CB
:1050900029001B4A00900220FFF7C8FD3000FFF7EF
:1050A00095FE330000902900164A0220FFF7BEFD4E
:1050B0006FE7C046B06B0108416C0108606C0108E5
:1050C0007D6C0108926C0108A76C0108BC6C01089A
:1050D000D16C0108E66C0108FB6C0108106D010839
:1050E000256D0108476D01085C6D0108716D0108AF
:1050F000866D0108A86D0108BD6D0108D26D01081B
:10510000EF6D01080C6E010830B504000D008DB084
:105110001522002168460FF0C9FA1822002106A8BE
:105120000FF0C4FA21002A006846FFF7FFFE1D4970
:10513000031E31D11C4A0120FFF778FD6846FFF7B6
:105140001DFF684606A9FFF75FFE041E09D0D122A5
:10515000164952001F20FCF775FC1F2420000DB0DB
:1051600030BD134B1D78012D08D106A800F0CEFFED
:10517000002803D0A8220D49FF32EBE702200D4A98
:105180000D49FFF753FD012D02D107F045F8E5E782
:1051900006A807F0D1F8E1E7084A0420FFF746FD2A
:1051A000DBE7C046B06B0108296E0108B66B010849
:1051B0000D000020096C0108206C0108406E0108F8
:1051C00070B50E00190004AB14001D88002801D032
:1051D000002A06D1012093220D49FCF733FC01205F
:1051E00070BD13885A19B24206D90D20942208497D
:1051F000FCF728FC0D20F3E7002D06D02A00C0188C
:105200000FF0EEFA2388ED1825800020E8E7C0466D
:10521000576E0108F0B500241600250093B002ABCC
:10522000029003911C733121039B05AF1B5D0D4A56
:10523000491B78190FF094F90F2301341C4202D056
:105240002D18B442EFD100250220074A0749029BDE
:1052500001970095FFF7EAFCB44201D03D70E2E708
:1052600013B0F0BD7D6E0108836E0108956E0108D4
:10527000F0B585B001AC06000D000A220021200027
:105280000FF014FA092730000A21FAF7F3FF300073
:10529000E1550A21FAF768FF0600013FF3D220002A
:1052A0002A1D8378C4781B0123432B7001350230FB
:1052B000AA42F6D105B0F0BDF0B59FB0049324AB7F
:1052C0001B7805000B9325AB0F001E780392002876
:1052D00004D0002902D0049B002B08D1D822C24957
:1052E0000120FCF7AFFB012420001FB0F0BD02221B
:1052F00003789343A12B02D0BB49D732F0E710AC1F
:10530000200001F0FBF80790002805D0DE22B64906
:10531000FCF798FB079CE7E7A378B448002B00D084
:10532000B3480090B34A0220B349FFF77FFC10ABAB
:105330009B780693002B02D1E022AB49D0E7012EE7
:1053400036D100232AE0059818A900F073FF041E47
:1053500005D0EA22A4492000FCF774FBC4E73B22F5
:105360000AAB9B181B78393A134214D1059A3400C2
:1053700016000AAB9B7E9B1ADBB206939F4B0093F1
:1053800002209F4A9C49069BFFF750FC012C0FD03E
:10539000F6229549A4E7059B0133DBB205930AABDE
:1053A0009B7E059A9342CED80026964B3400E6E7C2
:1053B0002B78A12B1ED0A33B5A4253411B010793CC
:1053C0000A230A930E336946069A0A759A4200D94F
:1053D0000B756B461B7D12A90893F318013BDBB2DA
:1053E0001800099300F026FF041E07D084227E498E
:1053F0005200B0E702230A930A33E4E70E260100C5
:10540000062204980FF052F92100039A38000FF099
:105410004DF92B787C703B700AABF6180323338070
:105420006B783200BB70079B380000932B00039908
:105430000C33FFF7C5FE041E03D022226A49FF3257
:1054400089E70A9A3800009203993200AB1CFFF7F3
:10545000B7FE041E02D02A226349F0E70523009319
:105460002B003200380003991C33FFF7A9FE041EFD
:1054700002D032225C49E2E7022300932B00320083
:10548000380003992133FFF79BFE041E02D0382217
:105490005549D4E733880EA95A1C32802A1DD27F81
:1054A000FA540AAA908D0AAB5B8D00041843FFF7EB
:1054B000DFFE042332000093380003990EABFFF7A0
:1054C0007FFE041E02D09F22474991E734213520F8
:1054D0000AAB5B181B7832880AA9BB5409180978F3
:1054E000531C9BB2F95403380AA909180978931C74
:1054F0009BB2F9546B1D0693D97FD31C9BB2F95410
:10550000531D3380AB1DDB7F043292B2BB540623A4
:10551000320000933800039913ABFFF751FE041ECD
:1055200002D0A522304963E76A46069B3588DB7FB7
:10553000127D7B55AB1C9BB2079333806B1C9BB2D7
:10554000FA54089B9C4206D101235B420693013327
:10555000FF3305931AE0099B18AE181B3100C0B247
:1055600000F068FE0590002806D0AC221E495200CB
:10557000FCF768FA059CB7E60822F37813421FD0BF
:10558000338AF2891B041343069305940E220AAB57
:105590000599D218079B0335F954069B15800F9384
:1055A00004233800009303990FABFFF709FE002690
:1055B000069B04000793B0425BD068220A493EE78D
:1055C0000134E4B2BDE7099B18A9981BC0B200F0F2
:1055D00031FE051E18D0742203492800FF32FCF763
:1055E00031FA2C0080E6C046576E0108996E01081A
:1055F0009E6E0108DD6E0108FD6E0108AE6E0108A9
:10560000036F0108C66E0108059BFF2B2DD09E423B
:105610002BD328D03B220AAB9B181B78333A13427A
:1056200023D048213E320AAB9B181A880AAB5B187C
:105630001B881B041343079A9A4216D3D51A2E4A85
:10564000954212D8079302220DAB1D800AA9009241
:105650000C32521838000399FFF7B2FD051E06D030
:10566000A2222649B9E7069BECE7254DEBE7013678
:10567000F6B2089B9E42A6D10E230AAA9B181A884E
:105680003800931E7B7000230130411CC91B89B276
:105690008A420DD80499DBB20B7103998A420AD36E
:1056A000D7220D2015495200FCF7CCF90D241BE63A
:1056B00041785B18E8E7BB547B78511C049A89B2A7
:1056C000937013001180089A0E20DA700023049A58
:1056D0000AAD53710B9B40190180012B00D003E6EA
:1056E00000F0ECFE051E02D0BC22044975E7049BC5
:1056F0000B9A5A71F8E5C046FEFF0000576E01088C
:10570000FFFF000003000020182B03D80248D840F8
:10571000012318407047C0465E11000110B5040017
:10572000FFF7F0FF012800D00124200010BD000089
:10573000F0B589B0002807D1013033221849FCF7B1
:1057400081F9012009B0F0BD831D471DFC7F0730A2
:105750000793DE7FC37F200006930125FFF7D2FF6A
:10576000A84200D125003000FD77FFF7CBFF0123D1
:10577000984200D13300079AD377A54203D1B342B0
:1057800001D10020DEE706980293049003902300E5
:10579000044A0549019600950320FFF747FAF0E710
:1057A000576E0108246F0108956E010810B5041E9C
:1057B00019D02522002102300EF078FFA323072202
:1057C0002370333B6370E31CDA77231D1D32DA77D5
:1057D0000123621DD377A21DD3773022E31D200061
:1057E000DA77FFF7A5FF10BD13B5002401940094EC
:1057F000FFF762FD16BD13B5012401940024009447
:10580000FFF75AFD16BD0000F0B589B007000E0085
:1058100015000293002806D0002904D0002A02D0E7
:105820000E9B002B09D1F222914952000120FCF776
:1058300009F90124200009B0F0BD0378A12B05D09F
:10584000A32B2CD0E6228A49FF32EFE70223002463
:105850000393062200210E980EF028FF0021029AE1
:1058600028000EF023FF3B7802AA2B7000236B70F8
:105870000333D3817B780E22AB703B0002A90094E6
:105880005218280002990C33FFF79AFC041E0AD024
:10589000FC227749FF322000FCF7D4F8CAE70A233C
:1058A00010240393D5E7039A02A900920E22280040
:1058B0005218BB1C0299FFF783FC041E03D0FF2281
:1058C0006B495200E7E705230E2200933B0002A933
:1058D0005218280002991C33FFF772FC041E02D0F4
:1058E0006349644AD7E702230E2200933B0002A9D2
:1058F0005218280002992133FFF762FC041E03D0DE
:1059000081225B499200C6E702ABDB8902A95A1CDF
:10591000CA813A1DD27F06A9EA54F27AB37A1202FA
:105920001A43337B707B1B04134300061843FFF7B5
:105930009FFC04230E2202A900935218280002990A
:1059400006ABFFF73DFC041E02D049494A4AA2E7D4
:1059500002ABDA89337D2800AB54717D531C9BB2B6
:10596000E954B17C931C9BB2E9547B1D0393D97F0E
:10597000D31C9BB2E954531D02A9CB81BB1DDB7F15
:10598000043292B2AB540622009208325218331DF0
:105990000299FFF715FC041E02D085223449B1E7B5
:1059A000012002ABDA89039B911CDB7F89B2AB54E7
:1059B000531C9BB2E854F3781B071ED52700F37BDA
:1059C000B07B1B020343307C00041843737C1B062E
:1059D00003430E260793042302A8361803326C549F
:1059E0003280280000933200029907ABFFF7E8FBF2
:1059F000041E07D01E49214A4DE70123FF24204FF2
:105A00005B42E6E7022205AB1F8028000092029964
:105A10003200FFF7D5FB041E02D01549194A3AE7B8
:105A2000338828009A1E6A7022000130411C491BED
:105A300089B28B420DD80E99D2B20A7102998B426B
:105A40000AD38D220D200A499200FBF7FBFF0D249B
:105A5000F0E641785218E8E70E99EA5401336A7883
:105A60000B800123CB7000238A704B71E2E6C046A5
:105A7000576E0108010200000A0200002A0200001D
:105A8000FFFF00002E02000010B5024800F00CFFDE
:105A900010BDC0461000002073B5051E06D1124986
:105AA000124A0120FBF7CEFF01240CE06B46DE1DFD
:105AB000320029000E4800F011FF041E05D00A49EB
:105AC0000C4AFBF7BFFF200076BD33782800002B7F
:105AD00003D1FFF76BFE0224F5E7FFF729FE041E52
