:020000040800F2
:1000000000500020DD1E0108891C01088B1C01081E
:1000100000000000000000000000000000000000E0
:100020000000000000000000000000008D1C01081E
:1000300000000000000000008F1C0108911C010856
:10004000ED1D01082D1F0108991C01082D1F010835
:100050002D1F01087D1D01087F1D0108811D01085C
:100060002D1F01082D1F01082D1F01082D1F01083C
:100070002D1F0108351D01082D1F01082D1F010826
:100080002D1F01082D1F01082D1F01080000000071
:100090002D1F01082D1F01082D1F01082D1F01080C
:1000A0002D1F01082D1F01082D1F0108BD1D01086E
:1000B000CD1D0108DD1D01082D1F01082D1F0108A0
:1000C00010B5064C2378002B07D1054B002B02D02E
:1000D000044800E000BF0123237010BD9000002001
:1000E00000000000686D0108044B10B5002B03D020
:1000F0000349044800E000BF10BDC04600000000F6
:1001000094000020686D010802780B78002A03D063
:10011000013001319A42F7D0D01A70470023C25CF7
:100120000133002AFBD1581E7047000002B471460B
:1001300049084900095C49008E4402BC7047C0462A
:1001400003B47146490840004900095E49008E44E5
:1001500003BC704703B47146490840004900095A7E
:1001600049008E4403BC7047002243088B4274D37D
:1001700003098B425FD3030A8B4244D3030B8B42A8
:1001800028D3030C8B420DD3FF22090212BA030CB1
:100190008B4202D31212090265D0030B8B4219D392
:1001A00000E0090AC30B8B4201D3CB03C01A5241B2
:1001B000830B8B4201D38B03C01A5241430B8B42FA
:1001C00001D34B03C01A5241030B8B4201D30B03E3
:1001D000C01A5241C30A8B4201D3CB02C01A52410A
:1001E000830A8B4201D38B02C01A5241430A8B42CD
:1001F00001D34B02C01A5241030A8B4201D30B02B6
:10020000C01A5241CDD2C3098B4201D3CB01C01ACF
:10021000524183098B4201D38B01C01A52414309D9
:100220008B4201D34B01C01A524103098B4201D3C7
:100230000B01C01A5241C3088B4201D3CB00C01A34
:10024000524183088B4201D38B00C01A52414308AC
:100250008B4201D34B00C01A5241411A00D20146D1
:10026000524110467047FFE701B5002000F0F0F85A
:1002700002BDC0460029F7D076E7704703460B431E
:100280007FD4002243088B4274D303098B425FD38F
:10029000030A8B4244D3030B8B4228D3030C8B42BB
:1002A0000DD3FF22090212BA030C8B4202D31212A1
:1002B000090265D0030B8B4219D300E0090AC30B76
:1002C0008B4201D3CB03C01A5241830B8B4201D323
:1002D0008B03C01A5241430B8B4201D34B03C01A0C
:1002E0005241030B8B4201D30B03C01A5241C30A84
:1002F0008B4201D3CB02C01A5241830A8B4201D3F5
:100300008B02C01A5241430A8B4201D34B02C01ADE
:100310005241030A8B4201D30B02C01A5241CDD283
:10032000C3098B4201D3CB01C01A524183098B42CE
:1003300001D38B01C01A524143098B4201D34B01B7
:10034000C01A524103098B4201D30B01C01A52411A
:10035000C3088B4201D3CB00C01A524183088B42A1
:1003600001D38B00C01A524143088B4201D34B008A
:10037000C01A5241411A00D20146524110467047FC
:100380005DE0CA0F00D04942031000D34042534001
:1003900000229C4603098B422DD3030A8B4212D3C1
:1003A000FC22890112BA030A8B420CD389019211F3
:1003B0008B4208D3890192118B4204D389013AD030
:1003C000921100E08909C3098B4201D3CB01C01A05
:1003D000524183098B4201D38B01C01A5241430918
:1003E0008B4201D34B01C01A524103098B4201D306
:1003F0000B01C01A5241C3088B4201D3CB00C01A73
:10040000524183088B4201D38B00C01A5241D9D28A
:1004100043088B4201D34B00C01A5241411A00D20B
:100420000146634652415B10104601D34042002B07
:1004300000D54942704763465B1000D3404201B586
:10044000002000F005F802BD0029F8D016E770473B
:100450007047C046002B11D1002A0FD1002900D1CE
:10046000002802D00021C943080007B4024802A1B5
:100470004018029003BDC046D9FFFFFF03B4684691
:1004800001B5029800F034F8019B9E4602B00CBC06
:100490007047C046F0B5CE469946030C9C461304FF
:1004A00047461B0C1D000E0061460404240C80B559
:1004B0000700100C4B436543414360432C0CC018AC
:1004C00024188C46A34203D980235B029846C44477
:1004D000494679435643230C2D042D0C8919634456
:1004E00024046019C918C0BCB946B046F0BDC04666
:1004F000F0B557464E464546DE46E0B504000D00D1
:100500009246994683B08B4230D82DD0494650460A
:1005100000F038FE29000600200000F033FE331AF8
:100520009846203B34D49B4653465A469340424615
:100530001F00534693401E00AF423BD8AF4200D14C
:1005400079E05B46A41BBD41002B00DA76E0002277
:1005500000230092019301235A4693400193012303
:1005600042469340009329E08242CFD900220023E3
:10057000009201930C9B002B01D01C605D600098E1
:10058000019903B0F0BCBB46B246A946A046F0BDF7
:1005900042469B4620239B1A5246DA4041461300AE
:1005A0004A468A40170042461F43534693401E0066
:1005B000AF42C3D900220023009201934346002B8F
:1005C000D8D0FB0772081A4346467B080EE0AB42C0
:1005D00001D1A2420CD8A41A9D41012024196D41D9
:1005E0000021013E24184D41002E06D0AB42EED929
:1005F000013E24196D41002EF8D1009801995B4607
:1006000000196941002B24DB2B005A464646D34093
:100610002A001C00F2405B461500002B2ADB260056
:100620009E40330026004746BE403200801A994162
:10063000009001919EE7A342BCD882E74246202366
:1006400000219B1A0022009101920122DA400192BE
:1006500085E7424620239B1A2A0046469A402300FB
:10066000F340464613432A001C00F2405B46150047
:10067000002BD4DA202342462F009B1B97402600F4
:10068000DE403B003343CDE7F0B546464F46D64605
:100690004502C0B5C30F470098460E1C6D0A3F0EB9
:1006A0005BD0FF2F21D08023ED00DB041D4300230E
:1006B00099469A467F3F74027300640A1B0EF60F38
:1006C000002B20D0FF2B43D080220020E400D20456
:1006D00014437F3B4246FF1A4B4672400F2B00D912
:1006E0009DE071499B00CB589F46002D5AD10823AD
:1006F0009946063B74029A467300FF27640A1B0E54
:10070000F60F002BDED1002C3BD101234246494697
:10071000724019430E2918D86448890041588F4601
:100720005346022B00D1B8E0032B6ED042462C007A
:10073000012B40D100200024C0052043D2071043E4
:10074000E0BCBA46B146A846F0BDFF200024F3E75E
:10075000002C20D10223FF3FD8E7002D05D1042330
:100760009946033B00279A46A5E7280000F0ECFCD9
:100770007627431F9D4000237F4299469A463F1AA1
:1007800099E7200000F0E0FC431F9C4076235B4289
:100790001B1A00209EE703234A461A439146032072
:1007A000FC3397E70C239946093BFF279A4682E7DB
:1007B00003282CD0320038007F30002847DD630743
:1007C00004D00F232340042B00D00434230103D58D
:1007D0003800374B80301C40FE28B6DCA401640A88
:1007E000C0B2A9E780240022FF20E403A4E780230D
:1007F000DB031D4201D01C420BD08024E4032C43B8
:1008000064024246FF20640A96E746462C00802395
:10081000DB031C4364023200FF20640A8CE76D0195
:10082000600185422DD21B230024013F01262900AF
:1008300064006D00002901DB854201D32D1A344389
:10084000013B002BF3D16B1E9D412C43B3E70123E9
:100850001B1A1B2B00DD6DE721009E37D940BC40E1
:100860000B00611E8C412343590704D00F2119400E
:10087000042900D00433590113D49B0100205C0AE1
:100880005AE71A2301242D1AD0E7981E43425841F3
:10089000404232000024C0B24EE74246FF2000240E
:1008A0004AE70120002447E78C6D0108CC6D010860
:1008B000FFFFFFF7F0B54F464646D6464502C0B5A6
:1008C00046000F1C6D0A360EC40F002E00D1CDE07D
:1008D000FF2E72D08023ED00DB041D4300239946D8
:1008E0009A467F3E7B025B0A98467B001B0EFF0FF9
:1008F000002B72D0FF2B00D1A9E07F3BF6184B46AE
:100900000A2B00DD85E043468022DB00D2041A4337
:100910004B4690467C400022022B0FDD49460123C6
:100920008B40A621C9000B4200D072E090218900C3
:100930000B4200D0DAE08821194267D1280C4246E8
:100940002D042D0C4346290012041B0C120C51439C
:100950005D4342435843AD180B0C5B199A4203D9CF
:10096000802252029446604409041A04090C521869
:100970009501691E8D411B0C920E1B1815439B019E
:100980001D431B0100D5CFE030007F30002800DC84
:10099000B1E06B070BD00F2332002B40042B06D0A5
:1009A00004352B0103D5803210006A4B1D40FE2810
:1009B00064DCAB015B0AC0B21FE0002D00D08FE009
:1009C00008239946063B9A467B025B0A98467B00C1
:1009D000FF261B0EFF0F002B8CD14346002B5CD152
:1009E0004A4601331A43914613000A2A11DC0122B8
:1009F0007C40022B92DC00200023C0051843E40752
:100A00002043E0BCBA46B146A846F0BD3C0045468E
:100A100092465346022B31D0032B11D0012BEAD042
:100A200030008030721C002866DD6B07B9D00F23C0
:100A30002B40042BB4D1B4E70F2A7AD03C004546B2
:100A40008023DB032B435B02FF205B0AD5E7434691
:100A5000FF36002B34D14A46023313430A2BD8DC2D
:100A60007C40002A0AD09946022257E7002D08D17F
:100A700004239946033B00269A4633E7FF200023D0
:100A8000BBE7280000F060FB7626431F9D40002353
:100A9000764299469A46361A24E7404600F054FBBF
:100AA0004B46361A763E0A2BB3DC43460538834064
:100AB00098464B4600227C40022B00DD2EE73DE7A6
:100AC00003234A461A4313000A2AB5DC01229A403E
:100AD000882113007C400322194200D12EE795E7BC
:100AE0000C239946093BFF269A46FBE68023002407
:100AF000FF20DB0381E7320001231B1A1B2B00DDE3
:100B000079E79E3229009540D9406A1E95410D43F0
:100B10006B0704D00F232B40042B00D004356B014E
:100B200013D50120002368E701236A081D401543FF
:100B300076E78023DB031D4282D042461A4200D072
:100B40007EE73C00FF20134357E7AB0100205B0A20
:100B500053E7C046FFFFFFF7F8B54746CE464B02C6
:100B6000460080B5C40F4702580A844648007A0AF6
:100B7000360EBF09000ECD0F9B09FF286DD0012155
:100B80004D40311AAC423AD0002900DC9CE10028EB
:100B900000D19EE0FF2E00D188E08022D2041343D2
:100BA0001B2900DCF6E0013F7A0100D479E001273F
:100BB0007F42BF01BB099846404600F0C5FA434654
:100BC00005388340864200DCCCE0B44F311A1F4028
:100BD0005A0768D00F221340042B64D004377B01DE
:100BE00061D5481CFE2900D081E0FF200023C0050C
:100BF0001843E4072043C0BCB946B046F8BD0029FD
:100C000000DC79E1002876D1002B4CD0481E012968
:100C100000D147E1FF2949D01B2871DC01001A00EF
:100C20002020CA40411A8B40591E8B411343FF18A4
:100C30008023DB041F4200D1B8E0711CFE2ED4D00B
:100C4000012297483A407F08074017437A0700D0AF
:100C500096E01F42C5D1FA0855E03100FF398946B8
:100C6000002B2CD101214D40AC4200D1B4E04946CB
:100C700000294CD0002E00D0F9E0FF21002F00D138
:100C800008E14A1E012900D156E1FF2900D142E1C5
:100C90001B2A00DC24E15F1E2C0006007A0100D52F
:100CA00085E731000437FA08FF292CD1002A9CD0AF
:100CB0008023DB0313435B02FF205B0A97E7AC4210
:100CC00000D1A7E0002922D0002ED6D062462C0009
:100CD000EEE7002BE7D0481E012936D0FF29E5D0EA
:100CE00001005DE701203B007A0100D457E1C0B26A
:100CF000BB015B0A7BE7FF2ED8D01B2900DC9FE0FD
:100D000031000537FA0853025B0AC8B26FE7FE20CC
:100D1000711C084254D1002E00D0B1E0002F00D148
:100D200002E1002B00D1F9E08021FA1AC9040A423D
:100D300000D13BE10124DF1B2C40002F49D00120D2
:100D40000F42D5D10021FA08DDE7FF1A7B0100D45C
:100D5000DEE0BD01AD09280000F0F6F92B000538F2
:100D6000834001262022811B0131521A1F0093402B
:100D7000CF405A1E93411F432BD000217B07B1D097
:100D80000F233B40042B00D028E77B0100D528E748
:100D9000FA08B8E71A002020CA40411A8B40591EB1
:100DA0008B411343FF1A7B0100D502E77B0700D17B
:100DB0000DE10F2331003B40042B00D00EE772E71A
:100DC000FA1A9046520156D44346002B00D0F3E65F
:100DD0000024002000230AE7494600291CD0002EE9
:100DE00000D002E7FF21002F55D04A1E012959D01B
:100DF000FF2900D190E01B2A00DD91E011003A00AC
:100E00002025CA40691A8F40791E8F41174306007A
:100E1000FF180DE7002926D1FE20711C084213D1CE
:100E2000002E00D096E0002F00D1B4E0002B75D04A
:100E3000FB185A0100D4B2E09B015B0AFD38D6E6EC
:100E40008022D2041343EAE6FF2900D1CDE6FA1846
:100E50005208530705D00F23171D1340042B00D051
:100E600021E7D2084FE7002EBCD0624620E72C00D5
:100E7000FF200023BBE60124DB1B98462C409BE6A9
:100E8000002F75D1002B00D096E080230024FF2096
:100E9000DB03ACE62C001F0005E7C046FFFFFFFBAD
:100EA000FFFFFF7DFB185A0100D48DE04A4A5B0822
:100EB0001A40590700D18CE00F210B400D39042B4B
:100EC000CFD00221171DEEE6002900D11FE7821BBB
:100ED0001100002E00D1D1E68021C9040F43D7E6CE
:100EE00039002024D140A21A97407A1E97410F431F
:100EF0002C000600DF1B56E700298DD0811B002E39
:100F000000D170E71B290BDC8022D204174376E75F
:100F10000121FA08F7E62C006246C7E60021F2E656
:100F200005330100DA08EEE6002B00D150E701247A
:100F3000002162462C40E6E6DA1B530132D59201CD
:100F40009409200000F000F92300053883402C00AC
:100F5000012607E7002FDFD0002B17D08023DB030B
:100F60009A4200D2A4E69C4500D3A1E662469FE6E1
:100F7000002B0BD08023DB039A4200D298E69C45DD
:100F800000D395E6012462462C4091E68023DB03E2
:100F9000FF2013432BE60020002B00D127E6002181
:100FA000DA08B0E62C000121D208ACE6002A00D114
:100FB0000EE70021D208A6E6802362460124DB0367
:100FC000FF2013432C4012E60121DA089BE6310092
:100FD00069E60221D20896E6FFFFFF7D410242004A
:100FE000C30F490A0020120E7E2A03DD9D2A02DD6E
:100FF000094A98187047802000040143952A07DCAD
:101000009620821AD1404842002BF3D10800F1E724
:10101000963A9140F7E7C046FFFFFF7F70B5002882
:1010200012D0C317C5185D40C40F280000F08CF81B
:101030009E231B1A962B0FDC082838D008388540D1
:101040006D026D0AD8B202E0002400200025C00520
:101050002843E407204370BD992B14DC421F9540C0
:101060002A001549114055071CD00F252A40042A93
:1010700018D00431CA08490115D59F235202181A05
:10108000550AC0B2E3E7020029001B3291404A1E14
:1010900091410522121AD5402A000A4306491140FF
:1010A0005507E2D1CA085202550AD8B2CFE76D02FD
:1010B0006D0A8E30CBE7C046FFFFFFFB10B5041E64
:1010C0000DD000F041F89E231B1A962B0CDC08284B
:1010D00034D0083884406402640AD8B201E00020A9
:1010E0000024C005204310BD992B13DC421F9440FF
:1010F000144A224061071CD00F212140042918D036
:101100000432D408520115D59F236402181A640AC8
:10111000C0B2E6E7020021001B3291400A00511ED6
:101120008A410521091ACC401443064A224061072E
:10113000E2D1D4086402640AD8B2D2E76402640A35
:101140008E30CEE7FFFFFFFB1C2101231B049842DA
:1011500001D3000C10391B0A984201D3000A083948
:101160001B09984201D30009043902A2105C4018FF
:101170007047C046040302020101010100000000A3
:101180000000000010B5002903D1FFF7DDFF20307B
:1011900002E00800FFF7D8FF10BDC0461FB56B4640
:1011A00049BA99816423E021009303AA623B12F0BB
:1011B00039F805B000BD000037B50022124C009090
:1011C000236869469A62802320005B01019311F035
:1011D000ADF9002802D00D4D28003EBD200011F0D1
:1011E000EFF80028F7D10A21200011F035F9002886
:1011F00007D1200011F096F985B2200011F00CF90A
:10120000EAE7024DF9E7C046CC0D0020FFFF0000E1
:1012100010B5010000780822C0433124C0B243B2A7
:101220004000C0B2002B02DA5B006340D8B2013A42
:10123000D2B2002AF3D14B7808223121584043B270
:101240004000C0B2002B02DA5B004B40D8B2013A3A
:10125000D2B2002AF3D110BDF0B587B0019002914F
:1012600003920493002B1CD080230024244DDB0325
:101270002A68032013432B6010F0A4FE08272600E1
:101280002048FFF799FF05901F48FFF795FF059B42
:101290001E4A013B9BB2934206D92B681C4A13405D
:1012A0002B60012007B0F0BD1A4B9842F5D0059B8A
:1012B000013FE4183618002FE2D1174B17481B885E
:1012C000E40858432100FEF74FFFF60807001449D1
:1012D0007043FEF749FF049B40001860039B002BFE
:1012E00000D01F60019B002B00D01C60029B002BD4
:1012F00000D01E602B68064A002013402B60D1E707
:10130000082701400000024402000004FDFF000025
:10131000FFFFBFFFFFFF00007800F81FB80B0000C1
:10132000FF0F000030B50D0004008BB0684606F0DA
:101330001BFC2A002100684606F051FD684606F0B5
:1013400057FD0BB030BD000010B50449FFF726FF74
:101350000400012010F036FE200010BD17350000FB
:1013600010B50249FFF71AFF10BDC04698B0000043
:1013700010B50449FFF712FF0400012010F022FE0F
:10138000200010BD5D800000F0B585B005000F00A5
:10139000FFF7DAFF041E19D128000F49FFF7FEFE00
:1013A000041E13D1642303AE00933200E021280011
:1013B000613B11F0DBFF041E08D13000FFF728FF6E
:1013C000B378834205D133885BBA3B80200005B0F7
:1013D000F0BD0124FAE7C046C8EF0000F0B587B0C1
:1013E00005000F00FFF7B0FF041E46D12800254975
:1013F000FFF7D4FE041E40D10F2010F0E3FD64235C
:1014000004AE00933200E02128005E3B11F0AEFFF5
:10141000041E32D13000FFF7FBFEB37883422FD198
:101420000B2302AA9B181800FFF7F2FE7379834280
:1014300026D102ABDA7A1B7B30881B0213435BBADE
:1014400040BA9BB280B20393FFF738FE0E49FFF714
:101450001BF90E49FFF72EFA0D49FFF77DFB3860A7
:101460000398FFF72BFE0849FFF70EF90949FFF72C
:1014700021FA78602800FFF773FF200007B0F0BD65
:101480000124FAE76678000000FF7F4700002F4341
:10149000000034420000C84273B56B469E1D002315
:1014A00005003380FFF750FF041E16D12800FFF718
:1014B0005FFF041E11D1012010F084FD31002800CF
:1014C000FFF762FF041E08D133880649064A0B4025
:1014D000934204D12800FFF743FF200076BD01248A
:1014E000FBE7C0463F08000007080000030C43402C
:1014F00004485843044B420B42405343180C584095
:101500007047C0466BCAEB8535AEB2C270B52D4C84
:101510008EB020220021200014F02CFB3822002164
:10152000684614F027FB0C21274E284AF3686846CA
:101530000B40D35C01222377336D9B05DB0F637077
:10154000234B1B681340A36012F048FE10F078FC98
:10155000099B636012F082FAE06012F019FE2061CC
:1015600012F01CFE606112F029FE237FA061012BA6
:1015700007D005203D22174901F0DAFF05200EB003
:1015800070BD33689B0506D43E221249062001F047
:10159000CFFF0620F3E76378012B02D040220D49EC
:1015A000F4E7079B012B02D041220A49EEE7A02273
:1015B00009991202914202D042220649E6E7002030
:1015C0002370DCE7B00000200010024037E801087B
:1015D00000200240086E010810B594B034220021AA
:1015E00007A801AC14F0C6FA00211422200014F060
:1015F000C1FA102306930F3B0D93A02306A81B02EC
:101600000F9312F06DFA011E07D05B220A490620E3
:1016100001F08EFF062014B010BD0F236060A060A3
:10162000E06020612000019312F0E4FC0028F2D079
:1016300062220149EBE7C046086E0108014B1878A9
:101640007047C046B000002000487047B00000203E
:10165000121A8B411000191E03DA0023014A801868
:1016600059417047005C260510B510F0A5FC024BEF
:101670001B68C01810BDC046AC000020F0B50026A5
:101680000F008BB0039304AB019002920021112252
:10169000D81D14F06FFA039B05AD2B70109B04ACA2
:1016A0006B70119B0198AB70029B2670A3706770E2
:1016B0006421FEF7C9FE074BE17029001D003200CE
:1016C000180012F0E5FF32002100280013F048F85E
:1016D0000BB0F0BD280E0020F0B5040087B0002844
:1016E00007D101209C221D4901F022FF012007B0F3
:1016F000F0BD0822002101AD14F03CFA14220021B3
:10170000280014F037FA0022154F29003800009203
:1017100013F056F96E46031E06D0124A12490420F1
:1017200005F09AFA1F20E2E702006946380013F03C
:101730006FF9002803D003000C4A0B49EFE7FA22A7
:10174000F378D2009B18238073782A88A370B3782B
:10175000E370AB78A280A371C9E7C046086E0108A8
:10176000280E0020206E010806B80108386E010816
:1017700030B58FB024216A46002307AC52182000F0
:101780001370FFF7A9FF051E17D1A17923880491D3
:1017900061790E4A0391217909A80291E1780191BA
:1017A000A1780091142114F03FF90949132807D0BA
:1017B0000420084A05F050FA1F3528000FB030BD4C
:1017C000054A09AB022005F047FAF6E715B801080B
:1017D00006B80108506E0108686E0108F0B51C4F8C
:1017E00087B001AE00223100380013F0E9F8002282
:1017F0006946380013F00CF90023164A00213078AE
:10180000FEF748FE002304000D00134A0021707803
:10181000FEF740FEFA2224184D4100230021B07843
:101820009200FEF737FE24184D41F96800290BD0CD
:10183000FA20029B8000CB1A58430131FEF794FC3A
:1018400000230200A4185D412000290007B0F0BD6C
:10185000280E002080EE360060EA0000F0B5184B3C
:1018600018481E68184B87B01C68184B70401F68DA
:10187000FFF73CFE134B0500E018FFF737FE144B53
:101880000090F818FFF732FE019000986840FFF7CB
:101890002DFE019B43401800FFF728FE0500039032
:1018A0003018FFF723FE0490E0194019FFF71EFEE1
:1018B0000322059003A9074810F068FF07B0F0BDA8
:1018C0005000F81FB979379E5400F81F6400F81FC4
:1018D00072F36E3CA80D0020002330B50400180000
:1018E000E25CDD00AA4001331043DAB29142F7D83E
:1018F00030BDF7B5441801940F241300A4460578B1
:1019000064462F093E002C4037369F2D00D8073EF5
:1019100025001E703735092C01D830342500019C74
:1019200001305D700233A042E9D1002349008B549D
:10193000F7BD000010B50C4C2378012B11D00F22FD
:101940000A4803681A629969073A0A439A61084982
:10195000012213F06BFFFD220A23104202D1093B42
:1019600023700023180010BD20010020F00B002080
:10197000AC01002010B5114C50220021200014F0C1
:10198000F9F80F4B0F4A1B68934206D003200E490B
:101990000E4A01F0CDFD032010BD002301210C4AA9
:1019A000617013700B4A217013800B4A13800B4A2D
:1019B00013600B4A1370FFF7BDFFEDE7D000002066
:1019C000F00B002000380140786E0108FC05000093
:1019D000AC0100202A010020280100202401002061
:1019E0002001002010B5154B0A001C78012C07D0EF
:1019F00002201349134A01F09BFD0224200010BD70
:101A0000002809D1002901D10024F7E720000C4962
:101A10000D4A01F08DFDF1E70029F5D00B4C0100D6
:101A20006423200013F024FD0028EDD00920044990
:101A3000074A01F07DFD0924E0E7C046D000002000
:101A4000786E01082E0600002F060000F00B002023
:101A50003606000010B5041E07D1C8220120064931
:101A6000D20001F065FD012010BDFEF757FB81B2E9
:101A70002000FFF7B7FFF7E7786E010810B5FFF712
:101A8000E9FF002802D10248FFF7E4FF10BDC0467D
:101A90001DBD010810B5B6B004AC200006F096FDDF
:101AA000031E09D0C0210C4A06A813F0BDFF06A8EA
:101AB000FFF7E4FF36B010BD482123780391A188D9
:101AC000064A0291A17806A8019161780091C0218F
:101AD00013F0AAFFEBE7C046906E0108AD6E010857
:101AE000F0B5C3B00AAF380006F070FD051E0CD08B
:101AF0000300C021374A12A813F096FF12A8FFF77F
:101B0000BDFF0500280043B0F0BDBB780600002BE8
:101B100043D13148F3E7637AC0210893237A2F4AEF
:101B20000793E37912A80693A37905936379049345
:101B300023790393E3780293A37801932388009396
:101B4000330013F071FF12A8FFF798FF002802D0AE
:101B50009122234939E0A17D6289A3890591617DA4
:101B60001B040491217D13430391E17C1D4A0291E2
:101B7000A17C0191218AE08909040143009112A806
:101B8000C02113F051FF12A8FFF778FF002802D000
:101B90009E22134919E00136F6B2BB78B342B1D99F
:101BA0000CAC2100300006F0ADFB0028B3D0009053
:101BB0003300C0210C4A12A813F036FF12A8FFF719
:101BC0005DFF0028E7D07F220549092001F0B0FC25
:101BD000092597E7DF6E0108FC6E01082B6F0108ED
:101BE000786E01086C6F01080D6F0108F0B50024D4
:101BF000B5B002900191019B9C4201D300202FE0DF
:101C00002300C0211B4A04A813F00EFF0025060084
:101C1000029B1F19019B1B1B9BB20393039B9D42BD
:101C200001D0102D0BD104A8FFF728FF00281DD0EC
:101C30000920BE22104901F07BFC092010E0C021E0
:101C400004A83B780D4A891B801913F0EDFE01377B
:101C5000002807DA1E20BA22074901F069FC1E207D
:101C600035B0F0BD01353618ADB2D7E71034A4B2A7
:101C7000C1E7C046BE6F0108786E0108F79A0108F7
:101C8000F0B5CA4C0600A5440CAC200006F09EFC42
:101C9000C74A031E1BD1A378C648002B1CD010A82E
:101CA00005F062FF022802D110A805F08FFF10A8EE
:101CB0000EAD2AAC05F0C6FF2B008022210010A833
:101CC000012E0FD105F040FF031E0ED0BA4AC021ED
:101CD0004AA813F0A9FE4AA8FFF7D0FEAB239B0049
:101CE0009D44F0BD05F0E1FDEEE769792B88039195
:101CF0002979B24A0291E9784AA80191A97800911C
:101D0000C02113F091FE4AA8FFF7B8FE002806D0C4
:101D1000AB49AC4A092001F00BFC0920DEE72000AA
:101D20002988FFF763FF002802D0A549A64AF1E7FA
:101D30002D883D2D0ED82B00A44AC0217AA813F07F
:101D400073FE7AA8FFF79AFE002800D0CEE1FFF7D5
:101D5000A1FEC3E72378022219009143A12901D0F3
:101D60009B4AEAE7A178702902D00B00994AE4E780
:101D700001910093C0212B00974A7AA813F054FEDA
:101D80007AA8FFF77BFE002804D0C6228C495200B7
:101D90000920A9E129002000FFF728FF002803D02F
:101DA0008E228749FF32F3E723788C49A32B00D199
:101DB0008B4901910093C02100238A4A7AA813F02D
:101DC00033FE7AA8FFF75AFE002802D098227C49F9
:101DD000E8E76378C0210093834A01237AA813F0CF
:101DE00023FE7AA8FFF74AFE002802D0CF227449CA
:101DF000CDE7A378C02100937C4A02237AA813F090
:101E000013FE7AA8FFF73AFE002802D0A6226C49FA
:101E1000C8E7932006AB1AAEC01832000821FFF7BE
:101E200068FD0323C021724A00967AA813F0FCFDD6
:101E30007AA8FFF723FE002802D0D7226049A6E740
:101E40009B2006ABC01832000821FFF752FD0B2380
:101E5000C021684A00967AA813F0E6FD7AA8FFF739
:101E60000DFE002802D0DB22554990E7E37CC0211B
:101E70000093614A13237AA813F0D6FD7AA8FFF7DE
:101E8000FDFD002802D0DF224D4980E7237DC021DF
:101E900000935A4A14237AA813F0C6FD7AA8FFF7D4
:101EA000EDFD002802D0C62245497BE7A52006AB00
:101EB0000221C018FFF710FD15230090C021504AE1
:101EC0007AA813F0B1FD7AA8FFF7D8FD002802D058
:101ED000CE223B4966E7A72006AB0221C018FFF7D8
:101EE000FBFC17230090C021464A7AA813F09CFD02
:101EF0007AA8FFF7C3FD002802D0D622304951E767
:101F0000A92006AB0221C018FFF7E6FC19230090B8
:101F1000C0213D4A7AA813F087FD7AA8FFF7AEFDED
:101F2000002802D0DE2226493CE7AB2006AB022186
:101F3000C018FFF7D1FC1B230090C021334A7AA8B8
:101F400013F072FD7AA8FFF799FD002802D0E6226F
:101F50001B4927E7AD2006ABC01832000521FFF76B
:101F6000C8FC1D23C0212A4A00967AA813F05CFD04
:101F70007AA8FFF783FD002802D0F722104906E770
:101F80002BABDB7F06A9019393235B18DB7FC0217A
:101F90000093204A22237AA813F046FD7AA8FFF77F
:101FA0006DFD002838D0F8220549FBE654FDFFFFFF
:101FB000F46F0108117001081D70010835700108E7
:101FC000786E01080E0300000F0300007270010814
:101FD00089700108A2700108B8700108CA6F010871
:101FE000C56F0108E3700108077101082871010835
:101FF00059710108747101088F710108AF710108EE
:10200000CA710108E6710108077201082872010807
:10201000487201086372010895233F2406AA9B18A1
:10202000DB7F0A211C402000DB090293FEF722F926
:10203000C9B2019120000A21FEF796F8D14FC0B233
:10204000009024233A00C0217AA813F0EDFC7AA86E
:10205000FFF714FD002802D0CB49CC4A98E6B52002
:1020600006ABC01832000421FFF743FC2523C02132
:10207000C74A00967AA813F0D7FC7AA8FFF7FEFCAF
:10208000002802D0C049C34A82E6B92306A95B18DA
:102090001B78C0210093C04A29237AA813F0C4FCFE
:1020A0007AA8FFF7EBFC002802D0B749BB4A6FE6DD
:1020B000BA230F2406AA9B181B78B9491C401B0998
:1020C000013BDBB20B2B02D8B64A9B00995800911A
:1020D0002A23C021B44A01947AA813F0A5FC002851
:1020E00007DA1E20A849B14A01F022FAA649B04AEF
:1020F00010E67AA8FFF7C2FC002802D0A249AD4A38
:1021000046E6BB23012006AA9B181B78AA4A990819
:10211000014004915909014003919909014002913C
:10212000D90901910093C0212B237AA813F07CFCDC
:102130007AA8FFF7A3FC002802D093499F4A27E61C
:10214000BD2306A95B181B78C021019335AB1B7812
:102150009B4A00937AA82C2313F066FC7AA8FFF719
:102160008DFC002803D08F228749920010E6BE2301
:1021700006AA9B18BF221B78079306ABD2181178CA
:1021800036AA12789446C122D2181078C222D218E8
:102190001678C322D21817780A00079B1A406346A4
:1021A0001A40FF2A10D100902E23C021854A0297A1
:1021B00001967AA813F038FC7AA8FFF75FFC002894
:1021C00010D096227049D0E70293079B03900191AB
:1021D0000093C0212E237C4A059704967AA813F019
:1021E00023FCE9E737AB1B78C0210093774A3423FF
:1021F0007AA813F019FC7AA8FFF740FC002802D057
:102200006149734AC4E5C52306AA9B181B78C021FF
:10221000099300936F4A35237AA813F005FC7AA836
:10222000FFF72CFC002802D057496B4AB0E5C623C3
:1022300006AA9B181B780A930A9A684BFF2A00D1BA
:10224000674B01930A9BC0210093664A36237AA804
:1022500013F0EAFB7AA8FFF711FC002802D04A49E4
:10226000614A95E5C72006ABC0180421FFF734FB8F
:102270000300079001330DD13723C0215B4A7AA8B0
:1022800013F0D2FB7AA8FFF7F9FB071E4AD03E49AC
:10229000574A7DE5079BC0210093564A3723019496
:1022A0007AA813F0C1FBEDE7B21C0B92934202D265
:1022B0002300514A41E52AA802218019FFF70CFBAF
:1022C0004E4B82B29A420FD13300C0214C4A009447
:1022D0007AA813F0A9FB7AA8FFF7D0FB01340028F5
:1022E0004ED0AC22284940E70A9AE3B280B293422A
:1022F0000FD3089B01330CD0089B01901B1A089345
:102300000293C02133003F4A00947AA813F08CFB5B
:10231000E1E701903300C0213B4A00947AA813F012
:1023200083FBD8E73B260400079B08930999E2B298
:102330006B1E0B928A42B7D302222AA8115C01328B
:102340007F18FFB29342F9D8A422920006A99A18E6
:1023500052182E49521814782D49A74200D12D4900
:1023600002912D4AC021019700947AA813F05CFBDA
:102370007AA8FFF783FB002852D00349274A07E5D4
:102380000B9ED3E782720108786E010805020000F7
:10239000AA7201080F020000C572010816020000AF
:1023A000CF6F010844E80108E4720108220200002E
:1023B00012030000230200000B7301083102000029
:1023C000497301086B7301089D730108D5730108F7
:1023D00062020000F17301086A0200001FBD0108DB
:1023E000D76F01080C7401087302000029740108FA
:1023F00087020000567401087F740108FFFF000087
:102400009B740108C8740108F474010800FEFFFF02
:10241000EB6F01087DA5010812750108C3020000D9
:10242000074BA74200D1074B0293079BC0210193A2
:10243000099B054A00937AA82B0013F0F5FA80E473
:10244000059701087DA501084275010810B5042112
:102450000148FFF7C7FA10BD77E80108F0B5BF4B98
:10246000CFB01B780E93012B06D0BD49BD4A022088
:1024700001F05EF8022005E0FFF75CFA03000A2095
:10248000002B08D04FB0F0BD0021B44A0B0090786B
:1024900001281DD19170B449B4480A88008893B2CC
:1024A000824201D100F08CFEB14AD25C01339BB272
:1024B000D2B27F2B00D9002333200B8008ABC01889
:1024C00002700A2AE0D00D2A01D000F034FE0E9BE3
:1024D0000022A24CA370A388E3181A746378012B1E
:1024E00004D1A448FFF7B6FA0028CBD1237C002BF7
:1024F00000D1A1E10DF026FA0600FFF7A5F80500CE
:1025000001F01EF80F9002F06BF9040006F0DCFCFD
:10251000994B0700994918000D93FDF7F5FD002828
:1025200000D0AEE09648FFF7A9FA002800D0A6E058
:102530009448FFF7A3FA002800D0A0E09248FFF7E4
:102540009DFA002800D09AE09048FFF797FA0028FB
:1025500000D094E08E48FFF791FA002800D08EE07A
:102560008C48FFF78BFA002800D088E08A48FFF7F4
:1025700085FA002800D082E08848FFF77FFA00281B
:102580007DD18748FFF77AFA002878D18548FFF790
:1025900075FA002873D18448FFF770FA00286ED1CD
:1025A0008248FFF76BFA002869D18148FFF766FA85
:1025B000002864D17F48FFF761FA00285FD17E4888
:1025C000FFF75CFA00285AD17C48FFF757FA002839
:1025D00055D17B48FFF752FA002850D17948FFF7D0
:1025E0004DFA00284BD17848FFF748FA002846D129
:1025F0007648FFF743FA002841D17548FFF73EFAC5
:1026000000283CD17348FFF739FA002837D17248C7
:10261000FFF734FA002832D17048FFF72FFA00286C
:102620002DD16F48FFF72AFA002828D16D48FFF70F
:1026300025FA002823D16C48FFF720FA00281ED184
:102640006A48FFF71BFA002819D16948FFF716FA04
:10265000002814D16748FFF711FA00280FD1664807
:10266000FFF70CFA00280AD16448FFF707FA0028A0
:1026700005D16348FFF702FA002800D1DCE0092009
:1026800000E760490D98FDF73FFD002811D10DF0DE
:102690005DF9C02100905C4B5C4A1EA813F0C4F9A0
:1026A000002856DA2E495A4A1E2000F041FF1E200B
:1026B000E8E658490D98FDF727FD00282ED1737ADA
:1026C0000D9333690F9373691093636A119303F049
:1026D00005FC129006F0F2FB04000BF04FFFB379FB
:1026E0000500F76913930BF05BFF139B08900693AB
:1026F000129BC0210393119B474A0293109B07979B
:1027000001930F9B0595009304940D9B1EA813F055
:102710008BF900281DDA1249404AC5E740490D9857
:10272000FDF7F2FC002800D07EE0A9682B7F06911F
:1027300069783C4A059169681EA80491A9690391CA
:102740006969029129690191E9680091C02113F03A
:102750006BF91EA8FFF792F996E2C046D000002060
:10276000786E010815060000280100202A010020CB
:102770002C0100201DBD0108E0000020907501081B
:1027800095750108C2750108F375010822760108E4
:102790005576010887760108B9760108EF760108B9
:1027A0001F7701084C7701088C770108C177010871
:1027B000FE7701082F780108647801089C780108E9
:1027C000CE780108007901083F7901087179010884
:1027D000A8790108DB790108147A0108497A01080F
:1027E000857A0108CE7A0108197B01084F7B010820
:1027F000957B0108C77B0108FE7B0108347C01083A
:10280000637C010862930108937C010846D20108A9
:102810003B04000045770108AB7C01084E04000032
:10282000FE7C0108047D0108D8490D98FDF76CFC79
:1028300000280ED1FEF79CFFD54B9A6801329A60B2
:1028400000229A801A74FFF701FE002800D122E6C8
:1028500018E6D0490D98FDF757FC002812D10F99C2
:102860000F9B89681B7801910F99CB4A49681EA874
:102870000091C02113F0D8F8002800DB69E7C749B0
:10288000C74A11E7C7490D98FDF73EFC002805D05F
:10289000C5490D98FDF738FC002861D101F0A0FF73
:1028A00004000FF089FB0D9003F018FB050003F006
:1028B0001FFB676A0600A46A06F000FB2B0003906A
:1028C000C021BA4A0294019700961EA813F0ACF8F2
:1028D000002802DAB149B64AE6E61EA8FFF7CEF8AC
:1028E000051E10D0AD49B34A092000F021FEC6E60E
:1028F0001EA8FFF7C3F8002802D0A849AE4AF3E7A4
:1029000001350C2D98D0E8B201F06EFF041EF7D00F
:102910004669002E01D00D9B9E1BA768002F00D199
:10292000A64F23690F93E3681093A07801F066FF28
:10293000237F069607932379C0210593E378A04A65
:102940000493109B039002930F9B009701931EA882
:102950002B0013F069F80028CADA9049994AA3E6D7
:1029600099490D98FDF7D0FB002806D0974D98495E
:102970002800FDF7C9FB00281BD103F0AFFA0500C2
:1029800003F0B6FAA369C02105936369914A0493E1
:1029900023690393E3680293A368009001931EA840
:1029A0002B0013F041F8002800DBD2E67B498A4A6D
:1029B0007AE628008949FDF7A7FB002805D0280002
:1029C0008749FDF7A1FB002810D17969FB780491B4
:1029D0003969844A0391F9681EA80291B968019186
:1029E00079680091C02113F01FF8B2E628007E49F3
:1029F000FDF78AFB00282FD10BF0C0FD636A0D9014
:102A00000F93B379F7691093337A346C1193336A67
:102A1000B5691293B36A13930BF0C2FDF36CC02136
:102A20000A93336D714A0993139B08900593129B87
:102A300007950393119B06940293109B04970193AF
:102A40000F9B1EA800930D9B12F0EEFF002800DBE9
:102A50007FE65249664A27E628006649FDF754FB9F
:102A600000281FD100F036FD040000F039FD0500FC
:102A700000F034FD060000F03FFD2300211E01D0D0
:102A8000A368E1680391029301902B00C0215A4A88
:102A900000961EA812F0C8FF002800DB59E63F4947
:102AA000564A01E628005649FDF72EFB002856D16C
:102AB000159016901790189017AB18AA16A915A87C
:102AC000FEF7CAFB4F4C002814D1179B210002933C
:102AD000189B4D4A0193169B023000931EAD159B27
:102AE00004F0BAF829004948FEF778FC002808D01D
:102AF000474A00E0474A2100042004F0ADF81F20B7
:102B0000C0E41E9E301CFEF769FA6F680D90381CF9
:102B1000FEF764FA0500FEF781FA011C381CFEF787
:102B20001BF83D49FDF7C6FEFEF758FA02900D98D6
:102B30000195FEF773FA011C301CFEF70DF83649BB
:102B4000FDF7B8FEFEF74AFAC317C01858400090C8
:102B500021000D9B314A022004F07EF86CE6304ED5
:102B600028003100FDF7D0FA002878D101300CF0B0
:102B70008DFE0CF047FF09F095FA002854D0074964
:102B8000284A1F2000F0D4FCB9E7C046E6980108A7
:102B9000D0000020A27F01084A7D0108786E01085C
:102BA000710400006A7D0108757D01087A7D0108C5
:102BB0009A0300009B030000B603000032E80108FE
:102BC000A47D0108B5030000EE7D0108E0000020AF
:102BD000F27D0108F77D010886040000A983010841
:102BE000457E01084B7E010892750108887E010828
:102BF000AA040000BC770108FC7E0108BB040000A9
:102C00002C7F0108657F0108307F0108000D00203E
:102C1000977F0108697F01080000C842787F01089A
:102C2000A87F0108FA0400000CF0ECFE09F000FB9C
:102C3000041E02D0BA49BB4AA3E70CF0E3FE012010
:102C400009F078FC012009F0BDFC0CF0DBFE09F076
:102C500055FD0CF0D7FE20000CF018FEECE5280026
:102C6000B149FDF751FA002806D1FEF713FF0028FD
:102C700015D0AB49AD4A37E62800AD49FDF744FA17
:102C8000002806D1FEF706FF002801D0FFF7FAFB67
:102C9000D2E52800A749FDF737FA002802D1FEF750
:102CA0001FFFF1E72800A449FDF72EFA002802D102
:102CB000FEF7E6FFE8E72800A049FDF725FA00281F
:102CC00001D10130F4E728009D49FDF71DFA0028E5
:102CD0000BD101F07DFD9B4A031E9B4800D139E5D5
:102CE000C0211EA812F0A0FE33E528009749FDF789
:102CF0000BFA00281FD100F0ABFB954A031EEFD161
:102D000001F066FD041E04D000F0BEFB2300914AD2
:102D1000E6E700F0E9FB040000F0EAFB2300009086
:102D2000C0218D4A1EA812F07FFE002800DB10E5AE
:102D30007B498A4AB8E428008949FDF7E5F900286B
:102D400006D028008749FDF7DFF9002800D085E08C
:102D50000AF036FD041E03D1D5227149FFF787FB27
:102D600003788148012B00D0F4E46278236960691C
:102D7000A569E6687D49012A03D07D49022A00D071
:102D80007C49277A7C4A0697E7780597A7780391CC
:102D90000090C0210497029601951EA812F044FEEF
:102DA0001EA8FEF76BFE002802D0E8225C499BE5D6
:102DB000A17A23790491E179704A0391A1791EA83F
:102DC0000291617A019161790091C02112F02CFE8B
:102DD0001EA8FEF753FE002802D0F422504983E5D6
:102DE000637A002B11D06648FEF748FE002802D017
:102DF000F8224B4978E52000617A1C30FEF7F6FE98
:102E000000280AD0F92246496EE55E48FEF736FEF4
:102E1000002802D0FF22424966E5A37A002B14D095
:102E20005948FEF72BFE002803D082223C4952006D
:102E30005AE52000A17A5C30FEF7D8FE002800D1C8
:102E4000FAE406223649FF324EE55048FEF716FEF8
:102E5000002800D1F0E40C223149F4E74C4F28005F
:102E60003900FDF751F9002806D00422280049490D
:102E700012F0ABFE002816D1474B4848DB7C002BF4
:102E800000D147481EACC022210003F043F8031EC6
:102E900007D02278002A04D1C0212000414A12F034
:102EA000C3FD200056E428003F49FDF72DF9002816
:102EB00016D103F013F8050006F000F8E378C021FE
:102EC0000293A378394A019300902B001EA812F0B8
:102ED000ABFD002800DB3CE41149354AFFF7E4FB79
:102EE00009222800334912F070FE2B4C002807D02D
:102EF00008222800304912F068FE002800D0FFE0C8
:102F0000E37C2E490E9C662B01D000242C4928001E
:102F100018AA12F0BDFD012856D02A481AE4C0466E
:102F2000786E0108FC040000AE7F01080C0500006B
:102F3000B47F0108BF7F0108CA7F0108D57F01085F
:102F4000DF7F010829800108E97F0108FA7F010875
:102F50000280010821800108458001084A0500001F
:102F60006B800108748001088080010856E0010828
:102F70006FE70108707501088E800108DC80010888
:102F80001481010828810108428101085781010844
:102F90007281010876810108D0000020E400002041
:102FA0001FBD01087B810108EF7D0108998101089F
:102FB0006B050000BA810108C4810108827501080F
:102FC00075750108CD8101087F4918A8FDF79CF8A7
:102FD00000285CD07D4918A8FDF796F8002863D03A
:102FE0007B4918A8FDF790F800285DD0794918A80A
:102FF000FDF78AF8002859D0774918A8FDF784F81A
:10300000002853D0754918A8FDF77EF800284FD046
:10301000734918A8FDF778F8002849D0714918A815
:10302000FDF772F8002845D06F4918A8FDF76CF835
:1030300000283FD06D4918A8FDF766F800283BD05E
:10304000390018A8FDF760F8002837D0310018A81B
:10305000FDF75AF8002833D0654918A8FDF754F851
:1030600000282FD0634918A8FDF74EF800282BD070
:10307000614918A8FDF748F8002827D05F4918A82B
:10308000FDF742F8002821D05D48FFF763FB0E9D55
:10309000002228001100012C1AD101F023FB594C09
:1030A000031E1AD0584A1BE60225F1E70325EFE775
:1030B0000825EDE70525EBE70A25E9E70E25E7E713
:1030C0001525E5E71925E3E71C25E1E72825DFE7D6
:1030D00001F00FFB4D4C031EE4D1280001F08EFBE4
:1030E00023000090C0214A4A1EA812F09DFC00282F
:1030F00001DBFFF72EFBB2224649D200FFF7D4FADC
:1031000028004549FDF700F8002804D10123434871
:103110006370FFF71FFB28004149FCF7F5FF00280B
:1031200003D160703F48FFF715FBE3683E48013369
:10313000E360FFF70FFB082A01D07F2A16D13B4A34
:103140009388002B01D1FFF7A6F90021013B9BB228
:103150009380D31819745378012B01D0FFF79BF992
:1031600033480331FEF73EFCFFF76FFB1300203BB3
:103170005E2B01D9FFF78FF92C498B883E2B11D993
:1031800000232C488B800B74FEF778FC002801D1BB
:10319000FFF759FB0D201F49274A00F0C9F90D2000
:1031A000FFF770F9CC182274002201339BB28B8098
:1031B000CB181A744978012901D0FFF76CF9D1E7CF
:1031C0000020FFF75FF9C046E47F01082082010874
:1031D000258201082A820108308201083482010810
:1031E000F8C201083A8201083D8201084A820108BA
:1031F00050820108AB980108A1820108578201089A
:103200005C820108F87B0108A7820108BF830108DE
:10321000C2820108786E0108DD820108E58201089A
:10322000F2820108FB82010809830108D000002016
:1032300074E8010826830108E7050000030070B563
:10324000002820D0124883421DD11249124C0A781E
:103250002388D2B29DB201339BB27F2B00D90023C9
:103260000E4E36889E420FD10D4A1368013313600B
:1032700000230C4C0122237012F0D8FAFD231842CF
:1032800001D1FC3B237070BD074E72552380EFE7E0
:10329000F00B0020AC0100202A01002028010020B2
:1032A00024010020200100202C01002010B500285E
:1032B00015D00B4B984212D10F220368094C1A62A9
:1032C0009969073A0A439A6100230122064923704B
:1032D00012F0ACFAFD23184201D1FC3B237010BD63
:1032E000F00B002020010020AC01002000487047B6
:1032F000D0000020012370B5050001213C355B4260
:103300000278534008221C005E080C400B4200D09B
:10331000054C3300013A6340002AF4D10130A84241
:10332000EED1D84370BDC0462083B8ED70B5010022
:1033300094B0002808D14B220120224900F0F8F86F
:103340000125280014B070BD04AE4022300012F0F8
:10335000ABFC3000FFF7CEFFF0630FF007FB041E5D
:1033600005D0502217491F2000F0E2F810E0164B5C
:10337000164A69469A61164B019002930123009008
:1033800001A803930FF0EAFB002803D00FF020FB05
:103390001F25D6E70E4B02203259E1180FF060FBD3
:1033A0000028F3D10434402CF4D10FF011FB051E9A
:1033B00002D06A220349D6E722003100054812F004
:1033C00073FCBEE77183010800200240020F000079
:1033D00000E00108B001002070B5174C4022200029
:1033E000164912F061FC164D2368AB4204D18023CC
:1033F00062685B029A4213D034220021114812F015
:10340000B9FB80235B026360012320002560A36079
:10341000FFF770FFE06301220B4B00201A7070BDB4
:10342000A368013B012BE7D82000E66BFFF762FFA2
:103430008642E1D1EFE7C046B001002000E001087C
:1034400054425544BC010020AD01002070470000EB
:1034500000B50B4B91B01B78012B01D0FFF7BCFFDF
:1034600040220849684612F01FFC02236846039375
:10347000013B04930593FFF759FF11B000BDC0460F
:10348000AD010020B001002000B50A4B91B01B78BF
:10349000012B01D0FFF7A0FF40220749684612F038
:1034A00003FC00236846039304930593FFF73EFF54
:1034B00011B000BDAD010020B001002010B5044BDB
:1034C0001B78012B01D0FFF787FF002010BDC046FD
:1034D000AD01002000487047B00100200120704776
:1034E000004870478C8301080048704792830108A8
:1034F0000048704700000108044B05485B69042B35
:1035000002D8044A9B0098587047C046B00100207A
:10351000988301087CE801080022034B03491A70D4
:1035200059609A607047C04600000020C4830108BB
:10353000024B187059609A607047C0460000002026
:10354000004870470000002072B6C046FDE700004A
:10355000014B18707047C0460C00002070B5041E67
:1035600028D085781F2306880B2D1DD80122A52180
:10357000AA400901013B0A4216D10133022D13D1A1
:10358000033BB20710D164213000FCF773FE89B20F
:103590001D23002908D191313000FF31FCF76AFE6C
:1035A0008BB25A4253411C33E2780132D2B29A4272
:1035B00001D8E27070BD0123ED18EDB2E3700C2D5F
:1035C00001D8A570F6E70136A3702680F2E7000067
:1035D00010B510220021024812F0CCFA10BDC046EE
:1035E000E8020020F0B585B0070009F087F9051E54
:1035F00025D004794069631E9C41124B64421C40F3
:103600002D34FF3400281AD00EF0D6FC6E6903006A
:10361000801B844213D93619F61A2B790A4A0B49B2
:10362000039301903B0002200294009603F014FBE8
:1036300030000EF0C7FC0EF0BFFC6B69C01A05B07D
:10364000F0BDC04698080000C98301081AD70108D8
:1036500010B5041E05D10949094AFFF769FF20008A
:1036600010BD0279074B41795343074A4A439B18DF
:103670008279FA20800050431818F1E72784010866
:103680004F04000080EE360060EA0000F8B5070045
:103690000D00141E06D11D491D4A0120FFF748FFE9
:1036A0000120F8BD1B4B994202D918491A4AF4E788
:1036B00000261A49D671FCF757FD64212080380096
:1036C000FCF752FD6421FCF7D5FD3800A1706421A0
:1036D000FCF7D0FD2800E1701149FCF745FD1049C9
:1036E00020712800FCF7C6FD08000E49FCF73CFDE0
:1036F0000C4960712800FCF7BDFD0800FA21890023
:10370000FCF732FDA0713000CBE7C04627840108EA
:1037100085040000FF5B26058604000010270000DA
:1037200080EE360060EA0000F0B589B006000D00BA
:1037300017000193282819D802AC18220021200074
:1037400012F018FA0123A6702370E5700EF034FC15
:10375000019B6060A7602000E360012D03D105F0AC
:10376000BFFA09B0F0BD05F0F5FAFAE70120034908
:10377000034AFFF7DDFE0120F3E7C0462784010876
:103780007B03000070B50F260824114D01002B6843
:1037900028001E629A6922439A6196231522DB0053
:1037A00011F0CCFE032809D1280011F081F90C207A
:1037B0002B681E629A6914439C6170BD0028FCD07E
:1037C0000A20BD220349FFF7B3FE0A20F5E7C046F1
:1037D000680B00202784010870B5124D124B2A682F
:1037E0009A4206D0032091221049FFF7A1FE032040
:1037F00070BD0F26082402F01BFF280011F0C0F94D
:103800002B6814201E629A6922439A610EF0DAFB3B
:103810002B6864201E629A6914439C610EF0D2FBEF
:103820000020E5E7680B00200044004027840108E1
:10383000F0B585B00C001F1E019202D00A9B002B30
:1038400008D11549154A0120FFF772FE012528000D
:1038500005B0F0BD02AE3200FFF718FF019B050076
:10386000E418002808D099220B49D200EBE70C4B52
:103870003000E418FFF772FE0A4B9C42F7D83288FA
:10388000094BB178534364224A439B18F2789B1842
:103890003B600A9B1C60DAE727840108C50400002E
:1038A00000A4D9FAFF5B260510270000F0B505003B
:1038B0000E008FB0002801D0002906D12449254AE6
:1038C0000120FFF735FE012411E004A804F04CF9B3
:1038D000FD23040018420DD102AAF03B9B18D87FAB
:1038E00003F080FF1C4C4443002C08D1002420002E
:1038F0000FB0F0BD1649194AFFF71AFEF7E7184B4B
:103900001F009C4200D86708336821001800039309
:10391000FCF7B0FCB9420BD200967A1A2B0003993F
:103920002868FFF785FF0028E0D009490D4AC7E75E
:10393000641ABC42DAD200962B0003992868E21977
:10394000FFF776FF0028D1D00149074AB8E7C04603
:10395000278401080705000080EE36000A050000F4
:10396000C0D40100250500002D05000073B5154ADF
:1039700000245378012B1AD1134B5978012916D101
:103980009D689068D168854203D310D8DB688B426C
:103990000DD80E4D0E4E2B000E4A0096FFF748FF35
:1039A000041E06D001200C490C4AFFF7C1FD20007F
:1039B00076BD31002800FFF779FF041EF7D00649D5
:1039C000074AF2E71C030020F80200200003002051
:1039D00004030020C0D40100278401084B06000026
:1039E0004F060000F7B5089F06001C000800099D5F
:1039F0001100002E03D0002B01D0002F07D1174952
:103A0000174A0120FFF794FD01242000FEBDB37882
:103A1000002B08D1114C134A21000120FFF788FD2B
:103A20002100114AEDE7114A00975A432300FFF79E
:103A3000FFFE002802D009490D4AE2E720003900C4
:103A4000FFF734FF041E04D004490A4AFFF770FD53
:103A5000DBE7002DD9D02860D7E7C04627840108CE
:103A60006C050000DB0400006F05000080EE3600EE
:103A70007605000079050000F0B504000E0085B061
:103A8000002807D11E491F4A0120FFF751FD0120E0
:103A900005B0F0BD080003F099FE012802D01849D6
:103AA000194AF1E702AD08222100280012F0FCF8C3
:103AB000A37820000193E37827880093134B5E439B
:103AC000FFF7C6FD3100FCF74FFB01307043104B90
:103AD000984208D92800FFF741FD0020AB782F88D5
:103AE0000193EB78009364210A4B019C7B43614373
:103AF0005B180099084A5B18906053600020C7E784
:103B0000278401089D0400009E04000080EE36001A
:103B1000FF5B26051027000040030020F0B5394B5D
:103B200093B0DB68DB060FD4374CE378002B04D06E
:103B30000320364A364903F08FF8002302252380FC
:103B4000E370280013B0F0BD06A8FDF7C5FD051E03
:103B500005D03049304A2800FFF7EAFCF1E708A811
:103B600004F002F8FD230500184216D102AAE03B3A
:103B70009B18D87F022603F035FE234CFF3623889E
:103B80000100B3420CD006A8A170FFF775FF051E17
:103B90000ED001201F49214ADEE71E49204ADAE7FC
:103BA000A3788342EFD1E378012BECD10025C8E75D
:103BB0000123A768E370A37826803800194905938C
:103BC000FCF758FB0800FA218900FCF7CDFA1649EA
:103BD00003903800FCF74EFB08001249FCF7C4FACA
:103BE000114902903800FCF7BFFA019063680F4E4C
:103BF000074D009332002900059B022003F02CF8AA
:103C0000D4E7C04600280040400300203D8401085E
:103C10001AD7010827840108A1050000B305000098
:103C2000A405000060EA000080EE360079840108F7
:103C30000023F0B58FB00CAE04000B7030000F0005
:103C40000B92FDF749FD0A90002806D03B493C4AFB
:103C5000FFF76EFC0A980FB0F0BD3388394DB2788B
:103C60005D4364235343ED18F3783000ED18FFF7FC
:103C7000EFFCA368AB42EDD802D1E2689042E9D3F1
:103C80002269934203D16269E3689A42E2D0012338
:103C90003B702300A168E2682033216162610193D7
:103CA000143B00932000043BFFF79CFE051E05D04B
:103CB0002249254AFFF73CFC0A95CBE7E668A37842
:103CC0003000224965690893FCF7D4FA0800FA210C
:103CD0008900FCF749FA1E4907903000FCF7CAFA40
:103CE00008001A49FCF740FA194906903000FCF721
:103CF0003BFA0590A368280014490493FCF7BAFA2C
:103D00000800FA218900FCF72FFA114903902800D6
:103D1000FCF7B0FA08000D49FCF726FA0C490290AE
:103D20002800FCF721FA019023690A4F00933A001A
:103D30000B9B0949022002F08FFF8BE727840108C3
:103D400045070000102700006207000060EA00003D
:103D500080EE3600B98401081AD701080023F0B5B7
:103D60008FB00CAE04000B7030000A910B92FDF77F
:103D7000B3FC071E06D03D493D4AFFF7D9FB38008A
:103D80000FB0F0BD33883B4DB2785D43642353439D
:103D9000ED18F3783000ED18FFF75AFCA368AB423A
:103DA00061D802D1E26890425DD32269934203D187
:103DB0006269E3689A42E2D001230A9A20001370F4
:103DC0002300A168E2682033216162610193143B02
:103DD0000093043BFFF706FE051E05D02349264A43
:103DE000FFF7A6FB2F00CAE7E668A3783000234957
:103DF00065690893FCF73EFA0800FA218900FCF790
:103E0000B3F91F4907903000FCF734FA08001B494A
:103E1000FCF7AAF91A4906903000FCF7A5F90590BD
:103E2000A368280015490493FCF724FA0800FA2136
:103E30008900FCF799F9124903902800FCF71AFA57
:103E400008000E49FCF790F90D4902902800FCF794
:103E50008BF9019023690B4A00930B490B9B0220BD
:103E600002F0FAFE8BE71C2789E7C0462784010889
:103E7000B207000010270000CF07000060EA000032
:103E800080EE3600128501081AD70108F0B58BB014
:103E9000051E0691079206D12B492C4A0120FFF7F7
:103EA00047FB012409E008AE3000FDF715FC041EB5
:103EB00006D02549264AFFF73BFB20000BB0F0BD9A
:103EC0003388244CB2785C4364235343E418F3787A
:103ED0003000E418FFF7BCFB2B00069A1E4E0C3393
:103EE0000100009320007243043BFFF7A1FC041E75
:103EF00002D01549194AD1E7EF6828622861686144
:103F000017493800FCF7B6F90800FA218900FCF7D8
:103F10002BF9310004903800FCF7ACF90800104987
:103F2000FCF722F9310003903800FCF71DF90290EC
:103F3000AB680C4A0193069B0B4900930320079B37
:103F400002F08AFEB9E7C04627840108190800007C
:103F50001C0800001027000080EE36002708000033
:103F600060EA0000758501081AD70108F0B51F0046
:103F7000764B91B0DB68040016000991DB061AD479
:103F8000C378002B07D0179B03200093704A714918
:103F9000169B02F061FE00232380E370A360E360C0
:103FA00023616361A361E361237123620233089398
:103FB000089811B0F0BD099B002B09D14378012B63
:103FC000E9D1654A6349169B022002F045FEE2E70B
:103FD0000EAD2800FDF780FB0890002804D05F4953
:103FE0005F4AFFF7A5FAE3E72379A761012B0BD01E
:103FF000FDF734FC3D217040FCF73CF9FA239B00AF
:104000004B43E3610123237102222388FF32934251
:104010002FD1A378099A93422BD1E378012BC7D0F3
:10402000230008330A934F4E2B88AA785E436423FB
:104030005343F618EB782800F618FFF709FB270022
:10404000494D099A0DAB0100009330006A430CAB57
:104050000C37FFF7EDFB00280ED04049434A012002
:10406000FFF766FA01230893DE223C490898D20044
:10407000B7E7099BA370D3E70C9B09930D9B0B93A8
:10408000A6787543002D04D029001800FCF76CF8C1
:104090000500FDF7E3FB099B36065E40344B70409C
:1040A0006B430B215840FA26FCF7E4F8B6004E4368
:1040B000E369A2690B99D21809980A9B9219009793
:1040C000FFF7B6FB002802D024492A4AC7E7390087
:1040D0000A98FFF7EBFB051E06D0AB221F49D20062
:1040E000FFF726FA0895BFE70223FF332380013B41
:1040F000FF3BE768E37026620796E36938000693A2
:10410000A3691D490593FCF7B5F80800FA21890059
:10411000FCF72AF8144904903800FCF7ABF80800C3
:104120001549FCF721F8104903903800FCF71CF8FA
:104130000290A368074D0193A378290000930F4ACA
:10414000169B022002F088FD32E7C046002800409E
:10415000B68501081AD70108CB8501082784010814
:10416000D30600001027000080EE36004B0500004B
:10417000B179379E5505000060EA0000E28501082C
:1041800010B58CB002A803F0EFFCFD230400184228
:1041900011D1EE3B6B44D97F0E4B0F4801930F4B6F
:1041A0000F4A00930F4BFFF7E1FE041E0BD0E622EF
:1041B0000D49D20001E00C490C4A2000FFF7B8F984
:1041C00020000CB010BDFFF7D1FB041EF8D006494B
:1041D000074AF2E74C860108F80200206C860108C5
:1041E000544D474D00530700278401082307000062
:1041F0003307000010B58CB002A803F0B5FCFD2316
:104200000400184214D1EF3B6B44D87F03F0EAFA64
:104210000F4B104C0193104B0100009320000F4BEB
:104220000F4AFFF7A3FE041E0AD00E490E4A01E012
:104230000C490E4A2000FFF77BF920000CB010BD9E
:10424000FFF794FB041EF8D00649094AF2E7C0467E
:104250007F8601081C0300209C86010820BF020005
:10426000435652532784010816070000090700002F
:1042700019070000A02010B5C0050022042102F09B
:10428000E9F8002010BD000070B51D4D2B78012B02
:1042900034D01C4C1C4920000CF08CF8002801D0B4
:1042A0001E2070BD194E21003000194B194A0CF028
:1042B000BFFC0028F4D13200210017480DF05AFA53
:1042C0000028EDD1154E210030000BF041FE021EFA
:1042D000E6D1300012490BF057FE200009F06AF8D1
:1042E0000028DDD1FF220F4B0F4918700F4B023011
:1042F0001A7001230E4A2B7002F0AEFC0020D0E7AA
:10430000F6010020C0020020540D002044020020CD
:10431000B1E90108C1E901081C020020F8010020F0
:1043200051350008F70100201AD701080C000020C1
:10433000B2860108012210B5034B02201A7003490E
:10434000034A02F089FC10BDF70100201AD70108CA
:10435000D686010870B5051E08D1B92201200C4986
:104360001201FFF7E5F80124200070BDFFF7D6FB2E
:10437000041E04D00649074AFFF7DAF8F4E7064BB3
:104380002A0099685868FFF781F90400ECE7C046F5
:1043900027840108930B000040030020F0B595B07E
:1043A0000F90002806D1A649A64A0120FFF7C0F8C1
:1043B00001240AE0FFF71EFFFD230A90184207D0F0
:1043C0009F49A14AFFF7B4F80A9C200015B0F0BD40
:1043D000FFF7D6FE041E109000D122E1022800D182
:1043E0001BE19749994A2000FFF7A2F8EDE72A88D8
:1043F000974BA978534364224A439B18EA782800D4
:104400009B180B93FFF724F90A9B0E90002B4ED0BC
:10441000002C00D1C4E0FBE00C9BEC6801330C9352
:1044200008930D9B20008B490793FBF723FF08009F
:10443000FA218900FBF798FE874906902000FBF7D8
:1044400019FF08008349FBF78FFE83490590200080
:10445000FBF78AFE0490AB6838007E490393FBF7B4
:1044600009FF0800FA218900FBF77EFE7A490290D5
:104470003800FBF7FFFE08007649FBF775FE76492A
:1044800001903800FBF770FE3300744A00907449C5
:10449000032002F0E1FB80230C9ADB009A4208D152
:1044A0006749704A1F20FFF743F81F248DE70A9BD6
:1044B0000C936D4D0B9BAE68EF689E4203D314D8EE
:1044C0000E9B9F4211D8694A2B6A0192684A0D934C
:1044D000009231003A002800664BFFF783FA041E71
:1044E0009AD0BD22564912017DE7109B002B56D071
:1044F000390030000F9AFFF7C9F8040065E7300073
:104500001099FFF7D3F9061E02D04D495A4A91E09F
:104510005A4BEE6828620893119B30004D490137D1
:1045200007930997FBF7A6FE0800FA218900FBF71D
:104530001BFE494906903000FBF79CFE08004549E8
:10454000FBF712FE444905903000FBF70DFE049086
:10455000AB680C983F490393FBF78CFE0800FA21E7
:104560008900FBF701FE3C4902900C98FBF782FEA4
:1045700008003849FBF7F8FD374901900C98FBF724
:10458000F3FD0D9B00903E4A0320354902F064FB89
:104590008023DB009F4204D129493A4A82E7012463
:1045A0000027394D0B9AAB680D93EB680C930D9B6C
:1045B000934204D314D80C9B0E9A934210D82B6AC2
:1045C000324E1193324B2D4A109300930E993300C3
:1045D0000B98FFF72DF9002891D019492D4AE4E6F0
:1045E0000A9B002B06D1FFF7C1F9061E02D0144921
:1045F000294A1FE0012C0BD11B4AAB6896689E42EA
:1046000006D8D76800D273E7EB689F4200D26FE705
:104610001D4B0F9AD96898686DE70A9B002B00D054
:10462000D3E612AD2800FDF757F8061E00D1DEE6EE
:1046300003491A4A3000FEF77BFF3400C5E6C04646
:1046400027840108A80B0000AB0B0000AE0B000094
:104650001027000060EA000080EE3600F1860108B5
:104660001AD70108DD0B00001C0300203C030020CA
:104670002803002024030020F50B00003075000003
:104680007D870108040C0000F802002000030020D0
:1046900004030020F20B00000B0C0000B60B00001E
:1046A00000230B4A10B51380D37093605360094AFE
:1046B00002201380D3709360D360074A07491380A8
:1046C000D3709360D360064A02F0C6FA10BDC046AC
:1046D000400300201C030020F80200201AD7010824
:1046E0001288010810B513000A000121FFF71CF819
:1046F00010BD10B513000A000021FFF715F810BD1A
:10470000F7B5D822254C520000212000F426FA27C4
:1047100011F030FA0023224AF600BF002148990028
:10472000415801209160204998408C46FA21654605
:1047300013704900284204D13900304201D1594256
:104740005941D16002210133117720320C2BE5D180
:10475000012525700024154B21001C70144B1022DC
:104760001C70144B14481C70144B1C70144B1C70A0
:10477000144B1C7011F0FEF921002422124811F094
:10478000F9F921002422114811F0F4F9FEF720FF75
:10479000280022002100FFF7ACFFFEBD50030020DF
:1047A0005403002034E901085A080000F5010020F4
:1047B000F4010020F301002040030020F20100205A
:1047C000F1010020F00100201C030020F80200206D
:1047D00010B5012200210820FFF78BFF10BD00005B
:1047E00000487047D4040020030000200B2B02D89F
:1047F00001485B0118187047540300200300034868
:10480000282B02D8024A9B009858704778880108E4
:1048100090E80108F0B5224C8DB00B934301E418E9
:10482000A37915000893E37907000993237AE271CD
:104830000A9300230E002372A1710DF0BDFB01232A
:104840000B9A6371E318DA776369A06101336361DE
:10485000089BE061B34205D1099BAB4202D10A9BA0
:10486000002B1AD00F4ABB0008989C58FFF7C6FFD0
:1048700007003000FFF7C2FF0B9B01900693002357
:1048800005930A9B02200493099B074A0293074958
:1048900023000395009702F0DFF90DB0F0BDC0468C
:1048A0005003002034E90108808801081AD7010864
:1048B000002310B51A0003211800FFF7ABFFFDF726
:1048C000CDFD00220400030003211000FFF7A2FF2A
:1048D000200010BDF0B505000E00A1B0282801D9B8
:1048E00001F0ADF88623B64CFF33E0540DF064FBC5
:1048F000CE2301225B00E05000200C33E250203B2D
:10490000E0540AF0D9FF0790002806D0AD49AE4A1E
:104910001E20FEF70DFE1E2383E0681E272801D906
:1049200001F088F8FBF716FC28008608EA00F6007C
:10493000FD00F6001F01020124012B013F01760159
:10494000E701ED010702760280028F028A029902D6
:10495000A702FB030B0425062B0639063D0643067A
:104960005106D207D607DC07EA070508090815082B
:1049700028087D0862088108002303211A00180016
:10498000FFF748FF002304211A000120FFF742FF30
:10499000002307211A000220FFF73CFF0023092112
:1049A0001A000320FFF736FF00230D211A00042010
:1049B000FFF730FF002311211A000520FFF72AFF1F
:1049C000002314211A000620FFF724FF00231821DA
:1049D0001A000720FFF71EFF00231B211A000820E2
:1049E000FFF718FF00231F211A000920FFF712FF0D
:1049F000002323211A000A20FFF70CFF00232521A2
:104A00001A000B20FFF706FF002203201100FFF71A
:104A100070FE011E07D06B496C4A1B20FEF788FD13
:104A20001B23079367E002000420FFF762FE011ECC
:104A300002D06449664AF0E702000720FFF759FEFA
:104A4000011E02D05F49634AE7E702000920FFF731
:104A500050FE011E02D05B495F4ADEE702000D20D6
:104A6000FFF747FE011E02D056495C4AD5E7020017
:104A70001120FFF73EFE011E02D05249584ACCE7F2
:104A800002001420FFF735FE011E02D04D49554AA1
:104A9000C3E702001820FFF72CFE011E02D049498F
:104AA000514ABAE702001B20FFF723FE011E03D084
:104AB000982244491201B0E702001F20FFF719FEB7
:104AC000002802D03F49494AA7E7012100222320BC
:104AD000FFF70FFE011E02D03A49454A9DE702004A
:104AE0002520FFF706FE002802D03649414A94E708
:104AF000C2235B00E054079821B0F0BDFFF7D8FE59
:104B0000002800D19AE10A202E493B4AFEF710FD09
:104B10000A2386E7002305211A000120FFF77AFE09
:104B20008CE10122002306211000F7E7012E1AD1A3
:104B3000FA23324A9B003249032002F08DF880218B
:104B4000320049002F480EF089F9FA2080000DF05C
:104B500039FA72B6BFF34F8F2B4B2C4ADA60BFF392
:104B60004F8FC046FDE7002308211A000220D5E739
:104B7000FFF780FB00230A211A000320CEE7230061
:104B800068331D78012D0AD1002229000B20FFF780
:104B9000B0FD2A00031E04D09C220A498AE70023A4
:104BA0001A000B21E9E7002201210C20FFF7A1FDEB
:104BB000031E02D00349164A2FE701220C21DCE72D
:104BC00050030020278401086609000078090000CE
:104BD000790900007A0900007B0900007C090000C7
:104BE0007D0900007E0900007F09000081090000A6
:104BF000820900008309000089090000B7880108C4
:104C00001AD701080004005000ED00E00400FA0586
:104C1000CB0900002022002116A810F0ABFFD048DD
:104C2000FEF7E0FCCF4F03003900CF4A022002F02C
:104C300013F8A02001220421C00501F00BFC642020
:104C40000DF0C0F9FEF7C8FD00280DD0A02000220D
:104C50000421C00501F0FEFB03252B00C34AC14916
:104C6000032001F0F9FF42E064230522C049C14856
:104C700010F0FEFB061E06D0F7220920BE49FEF703
:104C800057FC0925E9E716A8FEF77CFD050064201E
:104C90000DF098F9A02032000421C00501F0DAFBE4
:104CA000002D06D00422B4492800FF32FEF740FC54
:104CB000D3E71523390016AA022001F0F9FF02F00C
:104CC00035F90600012002F029F9152116A802F095
:104CD00031FA0500300002F021F9002D02D0102237
:104CE000A549E1E739000220A44A01F0B5FF2B00F5
:104CF0000022092141E709F05BFD00230E211A0083
:104D000014E0230088331B78012B03D09C4B1B78C5
:104D1000012B0DD1002201210F20FFF7EAFC031E19
:104D200002D09549974A78E601220F210420F5E642
:104D300008F0C6FBE1E7944B1B78012B58D1904B50
:104D40001A78012A09D1002290481A700BF038FE17
:104D50008F480BF04DF900284AD18E4B1A78012A62
:104D6000CBD1FE321A7008F051FB002804D003208A
:104D7000894A7C4901F070FF16AD280008F078FCE4
:104D8000061E35D12B78012B23D16978AB7803919E
:104D90006979744F0291297902200191E9787F4A5B
:104DA0000091390001F058FF6D78012DA5D1320036
:104DB00029001520FFF79DFC031E9ED12A00152116
:104DC0000620FFF727FD3900754A022001F044FF55
:104DD00093E7744D28000CF0D9F800280FD07248E2
:104DE0000CF0F0FC002888D00238C0B2032884D927
:104DF00061496E4A1F20FEF79BFB1F2311E601212C
:104E000028000BF049FF022800D876E7042800D1DB
:104E100073E7EDE7002310211A000420FFF7FAFCE6
:104E2000C22301225B00E2546148FCF735FB0028F5
:104E300004D004205F4A604901F00EFFC223012222
:104E40005B00E25457E6002213201100FFF751FCEB
:104E50000028F3D0A12248492CE600220121152088
:104E6000FFF747FC021E02D04349544AD5E5030030
:104E70001521062052E61F2704AB2021FF1800232E
:104E80004F4D04AA52183B7013702B78012B00D0A1
:104E9000BBE06B78012B00D0CCE04A4BDB68DB0633
:104EA00014D4A87805F040FE474A03002D4903209A
:104EB00001F0D2FE0022454B14211A70444B1A70A7
:104EC000444B1A70444B1A701300D2E716AE3000F0
:104ED000FCF702FC002806D02749404AFEF728FBD1
:104EE00025493F4A86E732883E4BB17853436422D6
:104EF0004A439B18F27830009B180893FEF7A8FBF2
:104F00006B68089A934203D874D1AB68984271D207
:104F10002B4DA87805F008FEAE68089032493000A5
:104F2000FBF7A8F90800FA218900FBF71DF92F49C2
:104F300003903000FBF79EF908002B49FBF714F9AA
:104F40002A4902903000FBF70FF901906B68284F57
:104F500000933A00089B0349022001F07DFEA9E777
:104F6000D88801081AD70108E68801086089010875
:104F7000A9E90108680B0020278401083489010889
:104F8000F7010020EF090000F6010020C002002018
:104F9000F80100200C00002096890108BF89010853
:104FA000F3890108440200201C020020FD090000D2
:104FB000000D0020128A0108657F0108230A000005
:104FC000E8020020002800401D8A0108F4010020AA
:104FD000F2010020F1010020F0010020D3080000C0
:104FE0002E0A00001027000060EA000080EE360064
:104FF000658A0108A87805F097FD0300CB4ACC49E3
:10500000022001F029FEFEF7E3FACA4D2B78012BAE
:1050100078D0C94B1B78012B74D1FFF7EBF802282D
:1050200036D000282DD0C549C54AFEF781FAC349BC
:10503000C44ADFE6EE68002E1DD080235B029E424C
:1050400000D91E00300009F06BFB002803D08F222E
:10505000BA49120142E7EB68A8789B1BEB6005F0A8
:1050600063FD0300E868B84A0190B1490096022048
:1050700001F0F2FD1EE7A87805F056FDB34A0300E3
:10508000BDE73900B24AB348FEF7D2FD0028CED1C1
:10509000FFF776F802280FD0002806D0A749AE4ABD
:1050A000FEF746FAA549AD4AA4E6AD4AAD480CA9BB
:1050B000FEF7BEFD0028F5D1202104AB3A785B183D
:1050C0001B78012A13D0012B11D00022A64B0620F9
:1050D0001A700C391300FFF79DFBC22301225B00FD
:1050E000E2549349A14A022001F0B6FD03E5A0492C
:1050F0000A70A0490B70012A03D0013B5A42534168
:10510000DAB22A70002201211620FFF7F2FA031EFC
:1051100002D08A49984A80E401221621A9E601209A
:105120000AF0B4FB002201211720FFF7E2FA031E68
:1051300002D08249914A70E40122172199E67E4B00
:1051400016A81E7802F010FD02239843C5B2002D68
:1051500003D0A622794912014CE64F2204A9521825
:10516000D27F0992012E10D17F4F3A78012A0CD1BB
:105170001800834A6E4901F06FFD09F0F3FA002828
:1051800002D06E497F4A35E63D7007F07BF8089003
:10519000002800D138E107F0B1FB65497A4B09914D
:1051A00008997A4A009104000999032001F054FDFE
:1051B00007F0AAFA031E07D00320754A099901F0E7
:1051C0004BFD00200AF062FB002C07D0267F082E42
:1051D00020D0A827092E1ED0FEF7FAF90024624B32
:1051E0002200142106201C70089BFFF713FBC42229
:1051F0000121684B520099542000043A49189954EF
:105200000AF076FB0790A04200D174E44B49624A51
:10521000FFF77EFB3027FEF7DBF901235F4C23709D
:105220005F4BA670DA681023110019401A4200D1B2
:10523000C8E0FEF7DFFF0790022818D000280ED044
:105240003E49584AFEF774F93C49574A0798FEF719
:105250006FF93A49554A0798FEF76AF94BE4390065
:105260003B4A3C48FEF712FE07900028ECD1FEF7BF
:1052700087FF0790022811D0002806D02F494C4AFA
:10528000FEF756F92D494B4AE0E73900344A3548D4
:10529000FEF7FCFDFD2307901842F3D10123637054
:1052A0002C4B5A78012A04D115009968DB6861609B
:1052B000A3602C4A5378012B34D19368D268012D16
:1052C00006D16168994203D804D3A1688A4201D803
:1052D0006360A260300005F027FCA568079036499E
:1052E0002800FAF7C7FF0800FA218900FAF73CFF07
:1052F000324904902800FAF7BDFF08002E49FAF75A
:1053000033FF2E4903902800FAF72EFF02906368BE
:105310002B4E01933200079B05490097032001F0B3
:105320009BFC5BE7012D00D056E7D3E7C18A01085B
:105330001AD70108F2010020F30100202784010898
:105340007E0700003C0A0000F38A01084E8B01082A
:105350009C8601081C030020970700003D0A0000FE
:105360006C860108F8020020F4010020898B0108F6
:10537000F1010020F00100204C0A0000540A000056
:10538000C18B0108670A0000F38B0108FF8B01083D
:10539000458C01085003002056090000E802002057
:1053A00000280040420800007C0800004A09000074
:1053B000530800007F08000060EA000080EE36001D
:1053C0008B8C0108E12380251B017B436D022800A3
:1053D0006170E36009F0A4F90790002802D0CF497A
:1053E000CF4A34E7E368CF4A30009B18E36005F00A
:1053F0009BFBE16803000291CB4A09990195009754
:10540000032001F029FCE9E6012007F093F80120D0
:1054100007F0D8F8012E0CD0C44DC54A290002204F
:1054200001F01AFC09F09EF9061E1DD0BB49C14AC5
:10543000E0E4099DC04F6B425D413B78EDB2012B2A
:1054400002D1280007F02AF9BC4E3078012801D19A
:1054500007F030F93B78012B6ED03378012B6BD0FD
:10546000280007F01BF967E02900B54A022001F087
:10547000F3FB2022310016A810F07CFBB148FEF7A8
:10548000B1F829000300B04A022001F0E5FBA0209A
:1054900001220421C00500F0DDFF64200CF092FD24
:1054A000FEF79AF9002808D0A02032000421C00598
:1054B00000F0D0FF9949A54A9CE464230522A44941
:1054C000A4480FF0D5FF071E06D0AF22092093494C
:1054D0005200FEF72DF8EDE716A8FEF753F9060087
:1054E00064200CF06FFDA0203A000421C00500F0FC
:1054F000B1FF002E04D0B522300088495200E8E701
:10550000290016AA1523022001F0D2FB15210CAAAE
:1055100016A801F06BFE002803D0BA227F49520082
:10552000D7E729008C4A022001F096FB0CA807F06F
:10553000CDF80CA807F0D6F807F0E6F8051E02D063
:105540007649864A56E40126FEF742F8844B2A0043
:105550001E70844B14211D70774B06201D70774BF5
:105560001D702B00FFF756F9C2235B00E654FFF7CE
:10557000C2FA002319211A000720FFF7CFFA0022F0
:1055800001211A20FFF7B5F8031E03D06349764ABC
:10559000FFF743FA01221A21EEE7002318211A002F
:1055A000EAE700231C211A000820FFF7B7FA0022BF
:1055B0001D201100FFF79DF8021E03D057496B4ACA
:1055C000FFF72BFA03001D21EEE709F0A1F80C23E9
:1055D00002001A40184200D14CE10023202104AA05
:1055E000D37752181370820811000133C008194094
:1055F0001840089109901A4277D0FEF78FFA041EDE
:1056000009D116AD2800FCF767F8041E08D04349FD
:10561000574AFDF78DFF022C59D01C2C57D02BE098
:105620002B88544CAA785C4364235343E418EB78EA
:105630002800E418FEF70CF84F4F03007E68A642DE
:1056400045D8B86801D1984241D8BC784B496143EC
:10565000FAF78AFD64235E43FB6886199E4236D0C2
:1056600021002800FE60FEF707FA041E0DD001207D
:105670002A49434AFDF75CFF20002849414AFDF7CB
:1056800057FF2649404AFFF7C8F9BC683F49200048
:10569000FAF7F0FD0800FA218900FAF765FD3749AD
:1056A00003902000FAF7E6FD08003849FAF75CFDA0
:1056B000324902902000FAF757FD01907B68344D83
:1056C00000932A0033000220184901F0C5FA099B13
:1056D000002B0ED101210A20099AFFF70AF80028B1
:1056E00000D1B7E00D492B4AC9E7099B002B00D137
:1056F000A3E0FEF77FFD002806D11F2104AB264A58
:105700002648C918FEF72AFB1C2804D8244C23007D
:10571000C340DB0748D40149224AB0E72784010887
:10572000AD0800000000FFFFF68C01081AD7010841
:10573000658D01087F0A0000F1010020F0010020C2
:10574000AD8D0108028E0108118E0108880A000043
:10575000A4E90108680B0020688E01089C0A00007B
:10576000F3010020F2010020B30A0000CE0A00007D
:105770000F060000102700004003002080EE3600D6
:105780002C060000490C0000DF0A000060EA00005F
:10579000B68E0108780C00009C8601081C030020CE
:1057A00005000010520C0000FEF7EAFC002804D1AE
:1057B000AF4AB0480CA9FEF7D1FA1C2802D8C44061
:1057C000E40702D4AC49AD4A59E71F2304AA9B1849
:1057D0001A78AB4BAB491A700CAB1B780B70012AD3
:1057E00003D0013B5A425341DAB2A74B1A70089AD0
:1057F000002A00D12BE10022A44B3C201A7008F0B3
:105800008FFF031E04D00320A14AA24901F024FA0D
:10581000002201210A20FEF76CFF002802D09649E1
:105820009D4A2CE7030001220A210320FEF7F2FF24
:105830009A4A0220974901F00FFA00231E211A000C
:105840000820FEF7E7FFC2220121954B5200995430
:10585000FFF751F901220A210320099BFEF7DAFF25
:10586000904AE6E7220015210620089BFEF7D2FFAA
:105870008D4ADEE7844B1C78012C10D121001520C5
:10588000FEF737FF031E03D07B49884AFFF7C5F8B0
:10589000220015210620FEF7BDFF854AC9E77B4B94
:1058A00019780129C9D00124152021001C70FEF7A8
:1058B00020FF031E03D070497E4AFFF7AEF8220096
:1058C00015210620FEF7A6FF7B4AB2E700231E2122
:1058D0001A0069E6002320211A000920FFF71EF9AB
:1058E000002201212120FEF704FF031E03D062499C
:1058F000724AFFF792F801222121EEE7634B1A78F2
:10590000012A16D001250022290015201D70FEF75E
:10591000F0FE031E03D05849694AFFF77EF82A00BB
:1059200015210620FEF776FF0220664A594901F04C
:1059300093F9002322211A00CFE70022012124201D
:10594000FEF7D7FE0122031E12D04B495E4AFFF735
:1059500064F8012220215D480DF080FA01200CF04E
:1059600031FB0022202159480DF078FA00231A005B
:1059700024210A20FFF7D2F80CAD280003F0D8F854
:10598000022802D1280003F0FDF80C9A2B79120AA4
:105990001B0613432122013304A95218190A13705C
:1059A0005170190C1B0E9170D370280003F0EAF8A7
:1059B000280003F013F916A802F0D6F8022802D145
:1059C00016A802F003F916A802F03CF90022012102
:1059D0002620FEF78EFE031E03D0B4222649FFF7D1
:1059E00069F8012226210B20FFF798F8384B1A7826
:1059F000012A16D001250022290015201D70FEF76E
:105A000078FE031E03D01C49324AFFF706F82A002D
:105A100015210620FEF7FEFE02202F4A1D4901F047
:105A20001BF9002327211A00DDE7C22303225B00B4
:105A3000FFF707FAC22302225B00FFF702FA0120F8
:105A40000D49264AFDF774FD0123FEF7EAFF1C7895
:105A5000012C00D0F1E60D4B089A210015201A7098
:105A6000FEF747FE002800D1FCE603491C4A06E683
:105A70006C860108F802002027840108580C0000F9
:105A8000F1010020F0010020F2010020F4010020CB
:105A9000FD8E01081AD701086E0C0000508F010816
:105AA00050030020AB8F0108F98F0108E30A0000C2
:105AB00045900108EA0A000090900108040B0000DC
:105AC000120B0000D3900108210B000000040050CD
:105AD000F5010020550B0000149101085E0900003B
