:020000040800F2
:100000000050002025350108D5950008D795000837
:1000100000000000000000000000000000000000E0
:10002000000000000000000000000000450A000879
:100030000000000000000000D9950008DB950008D2
:100040004597000875350108E995000875350108E0
:1000500075350108DD960008DF960008E196000876
:1000600075350108753501087535010875350108C4
:1000700075350108753501087535010875350108B4
:100080007535010875350108753501080000000057
:100090007535010875350108753501087535010894
:1000A00075350108753501087535010881B50008F9
:1000B00091B50008A1B5000875350108753501082E
:1000C00010B5064C2378002B07D1054B002B02D02E
:1000D000044800E000BF0123237010BD8000002011
:1000E00000000000F8490108044B10B5002B03D0B4
:1000F0000349044800E000BF10BDC04600000000F6
:1001000084000020F8490108030C43400448584388
:10011000044B420B42405343180C58407047C046B2
:100120006BCAEB8535AEB2C24278037812021A432D
:100130008378C0781B0413430006184370470100FE
:1001400000230F2070B50A00DA400240092A11D8B6
:100150000433202BF7D10023012418000F260A2591
:100160000A00DA403240624304336C438018202B8B
:10017000F6D170BD0020FCE7B0235B01C340012134
:100180001800064A08400B4205D01378FF2B01D017
:100190005B18137070471070FCE7C0469C0000208D
:1001A0000300102809DC092801DC002004E0D2202B
:1001B0004002D840012318407047383BFF3BD52010
:1001C000072BF6D9F1E7F0B5FA2504000026002741
:1001D000038887B00193ED00019BAB4249D8A57815
:1001E000691ECBB20B2B1FD8002332484900425A5C
:1001F000B6185F41022D17D9019A920710D16421D8
:10020000019810F059FA89B20123002908D19131DF
:100210000198FF3110F050FA8BB25A425341DBB2D1
:100220001800002136184F41E378234A013B18009B
:10023000D91780197941002310F06CFBE122059158
:100240000490002320791201002110F063FB049E2A
:10025000059F3C2236184F4100236079002110F0A1
:1002600059FB002380197941A2798018594107B0C0
:10027000F0BD03220023154210D16421280010F0A4
:100280001BFA89B20123002908D191312800FF31DE
:1002900010F012FA8BB25A425341DBB26E33FF3385
:1002A0000293DB1703930135029A039BADB2B61894
:1002B0005F4191E7104A010880510100F8B5C02361
:1002C000861805000F0001201B019E4212D809F07C
:1002D00017FD00280DD12C007B1B195D0A4BE0187F
:1002E0000DF00CFE002806D00123084A51680B438C
:1002F00053601E20F8BD0134A642EDD10123034A0C
:1003000051680B435360F5E7000C080800200240D9
:10031000F8B583180D001700012683420BD3C022C5
:100320001201934207D8114BEF19C41809F0E8FCE9
:10033000061E13D01E263000F8BD237829788B4284
:100340000AD020000DF0DAFD002805D00123084A6C
:1003500051680B435360EDE701340135AF42ECD1F6
:100360000123034A51680B435360E4E70000080887
:100370000020024030B5C3B06B46DD1D2A0002A943
:1003800004000FF085FD2A78002A03D1237AA28188
:10039000013BA37201230020A37343B030BDF8B525
:1003A0000400030001270F4D0F4E1878002800D1DC
:1003B000F8BD2900180013F0AFFB0028F8D08442E4
:1003C00005D0431E1B780D2B01D00A2B06D1437993
:1003D0000D2B03D83200DA403A4201D1431DE4E745
:1003E0000120E5E7244E010801240000002273B536
:1003F000564C0090636868469A6280235B010193C3
:100400000DF0AEFF002861D16568AB685B075DD475
:10041000230054331A78012A58D001221A70236A13
:1004200093423FD1A26D4A4B1A4080235B00134395
:100430002200A36500235432E36513701C332B6044
:10044000AA68183B1343AB60A369082B5AD1216EED
:100450002A681A4265D08023A26D9B001343A365CE
:10046000C023EA681B011A4214D1631DDB7F002BF5
:1004700010D12B681B070DD5AB685B075DD40C2230
:100480006B6893436B60A26D324B1A400433FF33A9
:100490001343A365E369002B01D10C332B602C6C53
:1004A000A4B23BE00322AB681340012B02D12A68BF
:1004B0001A42B7D1AA68284B1A420AD01023A26D5B
:1004C0001343A3650123E26D1343E365234C20002E
:1004D00076BD0126AB6830003343AB6009F0BEFB4C
:1004E000226E2B6833429DD1236E9B1A0A2BF8D9BA
:1004F0002B683342F5D11023A26D1343A365E36D3E
:100500003343E2E7EA680C23D207A0D5A26D143387
:100510001343A365002354342370104C0EF022F8CB
:10052000D5E7226E521A0A2A00D891E72A681342A8
:1005300000D08DE70423A26DEAE72023A26D1343C8
:10054000A3650123E26D1343E365A3E79C0000204C
:10055000FEF0FFFFFEFEFFFF17000080FFFF000020
:1005600003000448012B03D00348022B00D00348AA
:100570007047C046714F0108938E01082A4E01084A
:10058000C022074B92021B6D0220134080225202B0
:10059000934204D0034A9B185A425341D8B2704741
:1005A000001002400000FEFFF0B5694F91B020221C
:1005B0000021380002AD674E13F080F83822002188
:1005C000280013F07BF80C21634C644BE2680A406E
:1005D0009B1801221B7E3B770093236D9B05DB0F4D
:1005E0007B705F4B1B681340F3663F2302932368C5
:1005F0005B0303D5A023DB026B6004E08023226849
:100600005B021A42F8D1012322681A4200D0EB6043
:100610006368DB04DB0E2B612368DB05DB0F0193D2
:1006200063681B0E2B62E02367681B021F406F622A
:10063000236D5B0503D5A023DB00AB6004E08023C2
:10064000226D5B001A42F8D10123226D1A4200D0BC
:100650006B610122A368F0211340AB612368890319
:10066000DB01DB0F9B188022AB62E3685202134070
:10067000EB62E3680B40C0212B63E36809040B4085
:100680000C216B63E3680B40042B27D0082B46D06A
:10069000002B2BD1802563682D021B045B0F0133D7
:1006A0009D40E3682F4A1B061B0FD35CB766DD40F5
:1006B0002D4B1D600AF0CEF8756730670AF00CF913
:1006C000B0670AF019F9009BF0670520012B03D1F0
:1006D00023689B0525D4062011B0F0BD2568234B67
:1006E000ED06ED171D40224BED18DAE7E3682148CF
:1006F000E1689B021B0FC35C0902E068890F0131AE
:1007000010420AD12268D20605D51B4858430FF083
:100710004DFF0500C5E71648F8E71848F6E7174DFE
:10072000BFE7174B64361B797377FFF729FFB07764
:10073000FFF726FF0028CED0019B012BCBD1A023B1
:100740001B029F42C7D1019B00203370C4E7C04603
:10075000000100209C00002000100240104A010807
:10076000002002403E4A01080000002000E548FF4A
:100770000024F400354A010800093D0000127A0007
:100780001C010020F0B585B002933F4B0090019210
:100790001A783E4ECDB2012A74D001221A7002237B
:1007A0003B4A1370B3689A68CA225A62773A5A620F
:1007B0000CF0D4FE002823D10B9BB468D8B20AF009
:1007C000A9FB0A9B0390D8B20AF0A4FB6B46070072
:1007D000187A0AF09FFB3F02039B0004384318433A
:1007E0002C4B2D4A18402060A3681340A360A368D7
:1007F000A3600CF0D7FE002802D10122244B1A700E
:10080000FF22224C0121A3685A6222002832117073
:1008100022004918293211701022154203D0954345
:100820002A000A32D5B2CA225A62773A5A620CF0CA
:1008300095FE002820D16B4618790AF06BFB0190D9
:1008400028000AF067FB64210500009810F03EF8CC
:10085000C8B20AF05FFB2D02019B00042843184335
:100860000E4BB768184078600CF09CFE002803D14E
:100870003300012229331A70FF22A36828345A62F8
:100880000023237005B0F0BD440100201C010020AE
:10089000450100207F7F7F00FFFFFBFF3FFFFF0040
:1008A00070B586B001AE30000CF00AFE68460CF060
:1008B00031FE0023154A0021307810F02BF8002378
:1008C00004000D00124A0021707810F023F8FA227B
:1008D00024184D4100230021B078920010F01AF83E
:1008E0000C4B24184D41596900290BD0FA20029B6A
:1008F0008000CB1A584301310FF058FE002302004C
:10090000A4185D412000290006B070BD80EE3600BD
:1009100060EA00001C010020284BF7B51D68284B39
:1009200028481F68284B68401B680093FFF7ECFBC2
:10093000244B0400F818FFF7E7FB244A009B06004D
:100940009818FFF7E1FB019020007040FFF7DCFBF7
:10095000019B43401800FFF7D7FB04002818FFF75E
:10096000D3FB02221A4B1B4E5A770123F56AAA6861
:100970001343AB60F36C022B0CD0032B14D000207C
:10098000012B0DD163BA2402240E2B802C70F36A44
:10099000186805E01023DC4180B22C6028802868AC
:1009A00001232C367377FEBD009B2C602860F8185D
:1009B0000019FFF7A9FB2860F1E7C0465000F81FB7
:1009C0005400F81FB979379E6400F81F72F36E3C2B
:1009D000480100201C01002070B5164C402216482A
:1009E000164913F0B7F8164D236DAB4204D180239E
:1009F000626D5B029A4210D02000342200215C30EC
:100A000012F05CFE80235B02636501232565A3650C
:100A10000CF038FD8C34206070BDA36D013B012BC0
:100A2000EAD823008C331E680CF02CFD8642E3D1FB
:100A3000F2E7C0461C0100206C01002000E0010824
:100A4000544255447047024BD868C006C00F7047E7
:100A50000028004010B5262204000021013012F0C9
:100A60002DFE0123032223706271A37110BD0300C8
:100A70000548022B06D00548FF2B03D00448012B64
:100A800000D004487047C0462F8401082A4E010850
:100A9000C9880108324E010803000448052B03D819
:100AA000034A9B00D218106C7047C0462A4E0108BA
:100AB000104A0108021E0BD00179064B40794B43C6
:100AC000054941435B189179FA2292004A439818EC
:100AD0007047C04680EE360060EA000070B5041E24
:100AE00028D085781F2306880B2D1DD80122A5212B
:100AF000AA400901013B0A4216D10133022D13D14C
:100B0000033BB20710D1642130000FF0D5FD89B24C
:100B10001D23002908D191313000FF310FF0CCFDA9
:100B20008BB25A4253411C33E2780132D2B29A421C
:100B300001D8E27070BD0123ED18EDB2E3700C2D09
:100B400001D8A570F6E70136A3702680F2E7F8B564
:100B500006000D0014000120002A2FD0184B9942E6
:100B60002CD800271749D77130000FF01FFD6421E2
:100B7000208030000FF01AFD64210FF09DFD300041
:100B8000A17064210FF098FD2800E1700E490FF06C
:100B90000DFD0D49207128000FF08EFD08000B4956
:100BA0000FF004FD0949607128000FF085FD080071
:100BB000FA2189000FF0FAFCA0713800F8BDC04698
:100BC000FF5B26051027000080EE360060EA00007B
:100BD000F0B585B00C001F1E019203D1012528003D
:100BE00005B0F0BD0A9B002BF8D002AE3200FFF733
:100BF000AEFF051EF2D1019BE4180B4B9C420CD8B2
:100C000032880A4BB178534364224A439B18F278E6
:100C10009B183B600A9B1C60E1E7054B3000E41821
:100C2000FFF75CFFE9E7C046FF5B260510270000E1
:100C300000A4D9FA10B510220021024812F03EFD9E
:100C400010BDC046AC010020002310B51A001800EA
:100C500003210AF0C5FF0023032118001A000AF03F
:100C6000BFFF002010BDC222054B52009A5C054810
:100C7000032A03D8044B92009B18986D7047C04616
:100C8000B00800202A4E0108104A01080121154B26
:100C900086B0DA6A0A43DA62DA6A0A400192019A95
:100CA000DA6A49180A43DA62DA6A0A400292029A58
:100CB000DA6A02310A43DA62DA6A0A400392039A74
:100CC000DA6A04310A43DA62DA6A0A400492049A60
:100CD000DA6A78310A43DA62DB6A0B400593059BD6
:100CE00006B070470010024030B587B004000D0018
:100CF0000C22002103A812F0E1FC0323200001A92B
:100D00000195029309F014F807B030BD30B5040026
:100D10000D0087B0002A0ED0A1610C22002103A88B
:100D200012F0CCFC0123200001A90195029308F0E8
:100D3000FFFF07B030BDA162EFE7802330B5082484
:100D4000154A9B02916B87B00B43936300212200ED
:100D500003A812F0B3FC0C23A020042501A90193E1
:100D6000C0050A3B0293059508F0E2FF0B4B0A20F1
:100D70001A6815431D6008F0BDFD0F22084B0520C1
:100D80001B681A629A69144310229C611A6208F067
:100D9000B1FD07B030BDC046001002400044004025
:100DA0002408002010B5084BDB7F012B0BD1C0219C
:100DB000A020C901C005FFF797FFC021A020C900EE
:100DC000C005FFF791FF10BDA5010020A02010B5C0
:100DD0000A49C005FFF788FF09490A48FFF784FF61
:100DE00009490A48FFF780FF09490A48FFF77CFFD5
:100DF00009490A48FFF778FF10BDC0466198000016
:100E00001FF2000000040050F03D000000080050F8
:100E1000FBFF0000000C0050FFFF0000001C005012
:100E2000802110B500220B484900FFF76FFF0A4BE5
:100E3000DC7F012C0AD1220004210848FFF766FF5D
:100E4000220008210548FFF761FF10BD00220421A0
:100E5000F8E7C046000400509F0100200008005041
:100E60007FB50C22002103A812F028FC1023A0203B
:100E70000193842301A99B03C005029308F058FF46
:100E800007B000BDF0B5B9B00692394A05911178A6
:100E90000300384C0220012953D1527800209A4295
:100EA0004FD8FA21344A9B00D218936E89000493DC
:100EB000324B1F6E636BFF1838000FF077FB3C213D
:100EC00006000FF073FB3C2105000FF06FFBFA21C9
:100ED0000790890038000FF0EFFB300002913C21B1
:100EE0000FF0EAFB280001913C210FF0E5FB079B86
:100EF000234A00912348102112F022FD224B234A5D
:100F00000393069BC0210293059B08A80193049BB1
:100F100000931C4B12F014FD02001E20002A10DB6F
:100F200048342378BF2A18D92E22AF3004A90918D3
:100F30000A700130164A04A909180A80012B02D050
:100F4000022039B0F0BD6423C022124808A90AF07B
:100F500033F9002809D10020F3E792B2012BEFD139
:100F6000002AF8D00B486333F0E70920E9E7C046D0
:100F7000CC0100209C010020104A01089C000020A8
:100F8000394E0108D40100205B8E01084F4E010844
:100F90000D0A0000140600200CB430B5B3B036AB17
:100FA00004CB04000D0002A8C021019312F052FDF1
:100FB00003001E20002B04DB2900200002AAFFF7FB
:100FC00061FF33B030BC08BC02B0184770B50400F4
:100FD00086B00120002C15D008220021200012F03C
:100FE0006DFB01AE0822002104A812F067FB30005F
:100FF0000CF066FA031E07D00F4A10490520FFF7D0
:10100000CBFF1F2006B070BD68466D460CF082FA1B
:10101000002803D003000A4A0849EFE7FA22EB78D8
:10102000D2009B1823806B783288A370AB78E37072
:10103000B378A280A371E5E7614E01082F8401080F
:10104000794E010880218022F0B53E4C8900236D45
:10105000920087B01940134215D13B4B3B4A1B6E9F
:1010600090693B4C1B1AA3420BD91177FFF788FA02
:10107000FFF776FA23000090364A04203649FFF73E
:101080008BFF07B0F0BD9620400008F033FCFFF75F
:1010900077FA06008020FF2140020CF00DFB0028AB
:1010A00037D1FFF76DFA284F05003B6E30000593EE
:1010B000FFF756FA04902800FA25FFF751FA236D3E
:1010C000254EED000193009031000320234A049B3C
:1010D0000295FFF761FF3B6E059A9B1AAB421CD34A
:1010E0008023226D9B011343236580232269022004
:1010F0001343802223611A4B1203196811431960AC
:1011000099680A439A60FA233100164ADB00FFF718
:1011100043FF00220D4B1A77B3E7322008F0EAFBB9
:101120008022236D92001342D5D190218020490066
:1011300080020CF0C1FA31000B4A0420FFF72CFFAB
:10114000E7E7C046001002409C0000201C0200207F
:1011500010270000914E0108CB4E0108CF4E010828
:10116000000401401C4F0108454F0108054B10B514
:101170001871FFF77CFC0300034A02200349FFF7C4
:101180000BFF10BD00000020754F010895B7010846
:10119000F0B5174A87B00590D27F164E15009446D9
:1011A0006A1E9541144A6D421540706B2D35FF350E
:1011B000002818D0114F396E0A1A954215D9634686
:1011C000401A44190E480F4903930192059B0200EF
:1011D000029503200094FFF7DFFE200008F08AFB51
:1011E000386E736BC01A07B0F0BD1000FBE7C04645
:1011F000210200201C020020980800009C00002012
:10120000904F010895B70108F0B5184C89B0267DBC
:10121000A769E5690790002E02D13B002B431FD040
:10122000280013490FF048FA0800FA2189000FF04E
:10123000BDF91049049028000FF03EFA08000C494F
:101240000FF0B4F90B49039028000FF0AFF9079B9A
:101250000290094A0320094901970096FFF79CFE76
:1012600000232375A361E36109B0F0BD9C02002057
:1012700060EA000080EE3600EE4F010895B70108E5
:10128000F0B58BB0051E0691079203D10124200012
:101290000BB0F0BD08AE3000FFF798FE041EF6D18B
:1012A00033881F4CB2785C4364235343E418F378CB
:1012B0003000E418FFF7FEFB2B00069A194E0C33A2
:1012C0000100009320007243043BFFF781FC041EE1
:1012D000DCD1EF68686228616861134938000FF05B
:1012E000EBF90800FA2189000FF060F93100049051
:1012F00038000FF0E1F908000B490FF057F9310001
:10130000039038000FF052F90290AB68074A01933E
:10131000069B074900930420079BFFF73DFEB6E7B5
:101320001027000080EE360060EA000045500108FA
:1013300095B7010870B51B4B1B4CDB7F012B2BD0E5
:101340001A4D1B4E29001B4A0220FFF725FE0022E2
:1013500004213000FFF7DAFC33695B071DD5290053
:101360000520154AFFF718FE08211148FFF7BCFCBD
:101370004022124BD9691142FCD004211A680C4852
:101380008A431A600139FFF7AFFCFA20800008F0A9
:10139000B1FA01230434E37770BD29000120084A23
:1013A000E0E7C046A00100209C0100208650010813
:1013B00000080050A65001088B500108004800406A
:1013C000A25001088023F0B52E4A2F4D916BDB020D
:1013D0000B4389B00421936328000122FFF796FC98
:1013E0002B692A4E5B0749D531000120284A082481
:1013F000FFF7D2FD012208212348FFF787FC2200D6
:10140000002105A812F05AF90323022703A9039328
:101410001D48DB180793049708F08AFC0A2008F09F
:1014200069FAAC62C82008F065FA0423194AAC6175
:1014300011680A200B43136008F05CFA0F22164B68
:1014400005201B681A629A69144310229C611A6273
:1014500008F050FA0023114C31003800104D114AA9
:10146000E377FFF799FDE07F0335EB7F0E4A0090AD
:101470000E490320FFF790FD09B0F0BD31000520B3
:101480000B4AB4E7001002400008005086500108E3
:10149000B7500108004800409C060020A001002031
:1014A0009C010020BB500108E150010809510108CE
:1014B000CB5001080C4B70B5DB7F05000B4C0220B4
:1014C000012B08D1E31CDD77FFF7E0FB002D03D1F2
:1014D000FFF730FF002070BD0434E37F002BF9D00C
:1014E000FFF770FFF6E7C0469D0100209C01002039
:1014F000F0B587B0FFF7CAFB644E654C736ADA0734
:1015000004D58022616B92000A4362639A0708D572
:101510008021226B49010A432263226B0A40009218
:10152000009A5A0704D58022616BD2010A43626394
:101530001A0704D58022A16B92020A43A263DA063D
:1015400004D58022A16BD2020A43A2639A0604D575
:101550008022A16BD2030A43A2635A0604D58022DB
:10156000A16BD2050A43A263DB0503D50123626B9D
:1015700013436363331DDB7F012B0CD10022042155
:101580004448FFF7C3FB08214248FFF7ADFB0321A6
:101590004048FFF7A9FBFFF719FCFFF741FCFFF7F5
:1015A0005FFC8023626BDB0113436363C023DB00BA
:1015B0000193A02002230025042701A90293C0055E
:1015C000013304930597039508F0B2FB324B0A20D0
:1015D0001A68023617431F6008F08CF90F2208279B
:1015E0002E4B05201B681A629A693A439A611022B1
:1015F0001A6208F07FF9FFF7A0FB8023A26BDB03E0
:10160000134329003A00A36303A812F057F8C0233C
:101610001B010193122301A9029321480C3B05935E
:1016200008F086FB8023A26BDB05134329003A00F8
:10163000A36303A812F042F88023A0205B0001936B
:10164000EE3B029301A90B3BC005059308F070FB2C
:10165000802301A99B000F48019308F069FBA0209B
:101660002A008021C005FFF751FB2A0020210C48E9
:10167000FFF74CFBFFF796FB0A4A0B490320F5776F
:10168000FFF78AFC280007B0F0BDC0469C0100208F
:1016900000100240000800500038014014060020ED
:1016A000000400500F51010886500108F0B58BB0BE
:1016B00005AE1422039104000021300011F0FEFF5A
:1016C00000230493FFF7BFF904AF0190002809D16C
:1016D0000520154A1549FFF75FFC039B019A1A7014
:1016E0000BB0F0BD30000BF0EBFE002813D1737887
:1016F000380002933578B6780BF00CFF00280AD139
:101700007978BA78FB782370029B6170A270E570DB
:1017100023716671E1E70025FF232E0019001A00EE
:1017200002950195EFE7C046525101086451010846
:1017300010B50400142A24D9152212F00BFA2378CC
:10174000682B21D1E378682B1ED16278A3789A4266
:101750001CD1237D162B1BD12100627923791331F3
:101760009B18A2799B18DBB2E21D107801321B187E
:10177000DBB28A42F9D1E27C00209A4203D00520F4
:1017800000E00120404210BD0220FBE70320F9E702
:101790000420F7E7F0B5040085B00830FEF7C4FC7C
:1017A000070020000F30FEF7BFFC444D0600290063
:1017B000434A0220FFF7F0FB29002378414A022028
:1017C000FFF7EAFB290063783F4A0220FFF7E4FBBA
:1017D0002900A3783D4A0220FFF7DEFB2900E378C9
:1017E0003B4A0220FFF7D8FB29002379394A02201F
:1017F000FFF7D2FB29006379374A0220FFF7CCFBC1
:101800002900A379354A0220FFF7C6FB2900E379B6
:10181000334A0220FFF7C0FBE17A237A0291A17AD2
:10182000304A0191617A022000912900FFF7B4FB50
:101830002900237B2C4A0220FFF7AEFB2900637BA3
:101840002A4A0220FFF7A8FB2900A37B284A02208E
:10185000FFF7A2FBA17CE37B0291617C254A019109
:10186000217C022000912900FFF796FB2900E37CF0
:10187000214A0220FFF790FB237D29001F4A022006
:10188000FFF78AFB29001E4A0220FFF785FB38007C
:10189000FEF755FC3B0029001A4A00900220FFF792
:1018A0007BFB3000FEF74BFC330000902900164A0A
:1018B0000220FFF771FB05B0F0BDC046645101087E
:1018C0006A510108875101089C510108B151010872
:1018D000C6510108DB510108F05101080552010809
:1018E0001A5201082F52010851520108665201088C
:1018F0007B52010890520108B2520108C7520108F8
:10190000DC520108F952010816530108182806D8BC
:10191000002803D0044BC3400120184070474838CA
:1019200043425841C0B2F9E75E110001F0B5461DCF
:10193000F37F9DB01393831DDB7F04001493C31DBD
:10194000DB7F119303000833DD7F20331B78159371
:10195000030029331B78169303002A331B7817934F
:1019600003002B331B7813981893FFF7CFFF012345
:101970001293984201D1139B1293129B1498F37700
:10198000FFF7C4FF0126B04200D1149E0027A31D1B
:10199000DE77119BBB4206D01800FFF7B7FF013777
:1019A000B84200D1119FE31DDF77002D00D06BE01E
:1019B0000023199354226B469B18159A1B78002A12
:1019C00000D00123DBB21A93169B0A20002B00D013
:1019D0001800179A0523002A00D01300FA21642268
:1019E00089005A4341431B938A4205D90A23434342
:1019F000DBB2002B56D01B9321001A9A28310A70B3
:101A0000189A4870013A8B7051424A412B34D2B235
:101A1000944622701399129A8A4213D1149A9642CC
:101A200010D1119A97420DD1199A95420AD1169A5E
:101A3000904207D1179A9A4204D1159A18990A43ED
:101A4000012A1ED964460C93179B0E940B93169B88
:101A5000189C09931A9B0A900893159B04200793DE
:101A6000199B114A0693119B10490393149B0497E9
:101A70000193129B02960093139B0D940595FFF71B
:101A80008BFA00201DB0F0BD2800FFF73FFF0128B2
:101A900003D11995AE4200D38CE72300002208330E
:101AA000DA7785E70123A6E733530108BF5301081E
:101AB00070B504002D220021023011F0FFFDA32398
:101AC000052520002370333B2A00637010491C3029
:101AD00012F040F80A21E31CD9773F23201DC27F72
:101AE0009A431B3B1343C37701236219D377A21D8B
:101AF000D377E21DD3772132137053712300957091
:101B0000517004222E3320001A70FFF70FFF70BDB2
:101B1000C353010873B50400504D02202900504AF8
:101B2000FFF73AFA23784F49A12B03D04E49A32B54
:101B300000D14E494E4A009102202900FFF72CFAAD
:101B4000A61C637829004B4A0220FFF725FA0A22D7
:101B5000310049480BF026F82100102247480C318B
:101B60000BF020F82100052245481C310BF01AF833
:101B7000E11CC97FF37F434A009102202900FFF74F
:101B80000BFA231DDB7F404AD90901919906890E82
:101B9000009102202900FFF7FFF9631D2900DB7F78
:101BA0003A4A0220FFF7F8F9A31D2900DB7F022043
:101BB000374AFFF7F1F9E31DDB7F3649002B00D1EF
:101BC0003549009102202900344AFFF7E5F9230046
:101BD0000833DB7F3249002B00D132490091324A71
:101BE00029000220FFF7D8F92300283329001B78A9
:101BF0002E4A0220FFF7D0F92300293329001B7851
:101C00002B4A0220FFF7C8F923002A3329001B784A
:101C1000284A0220FFF7C0F923002B3329001B7844
:101C2000254A0220FFF7B8F92449254A8B7C898A86
:101C3000022000912900FFF7AFF9210023002E3187
:101C400009782C331B782D34019121781D4A00919D
:101C500002202900FFF7A0F973BDC046BF53010859
:101C6000F7530108C9530108D5530108CE530108A1
:101C700018540108375401085154010861540108EF
:101C80006D5401087D54010896540108CE54010892
:101C9000EC5401080C78010833B901080A55010811
:101CA000EC530108DD5301082E5501085155010878
:101CB000675501087D550108935501080000002073
:101CC000A9550108C055010870B508240300411842
:101CD000094D0A481A7812025040220006B240000C
:101CE00080B2002E00DA6840013AD2B2002AF5D163
:101CF00001339942EED170BD21100000FFFF0000BA
:101D0000F0B585B06C4609220021E01D11F0D6FC2B
:101D1000144B154E009301232371144B1021DB7FCC
:101D200068466371F31CDB7F3700A371B38C0937FE
:101D30002381F58C0135ADB26581FFF7C5FFA08128
:101D4000F87F502101300EF0B7FC1022F97708011E
:101D50006946FEF7B3FA002802D1F58405B0F0BD5C
:101D60001E20FBE74754534D9C0200209E0200209A
:101D7000F0B50024260095B00A220021394811F060
:101D80009DFC102200210CA811F098FC05940494ED
:101D900003940094344B3501ED1808AF102229004C
:101DA000380011F0D7FE314A2B68934238D12A7996
:101DB0000192012A34D16A790692472A30D8AA7949
:101DC0000792482A2CD86A890893AD89019B39006B
:101DD00002927A8110A810223B71BD8111F0BAFEE7
:101DE0000023102110A8BB85FFF76EFFA84217D172
:101DF000009B002B03D0029B1B1B1B0410D408ACC0
:101E0000210010220CA811F0A5FE2389029C059345
:101E1000174BDE77079B0493069B0393019B00936C
:101E20000136502EB6D1009A124B002A09D1013248
:101E30009A849B18DA77FFF763FF00280FD01E20E3
:101E40000EE00398991CC8770498D91CC8770599A7
:101E50005A1C9984DC840123D377002CEBD000201A
:101E600015B0F0BDBC020020000C08084754534DCB
:101E7000A50200209C020020F0B5394B0600DB7F54
:101E8000384C39498BB0482B00D138490191482151
:101E90003748009103900100364A0120FFF77CF893
:101EA000631CDB7F012B41D104AD182231002800D7
:101EB00011F050FE0123EA781343EB70A38C2B80C2
:101EC00000231A00AB75A95C01324B40162AFAD1E7
:101ED000AB75E71CFB7FA61CF07F472B2ED818188C
:101EE00048210EF0E9FB1822A0235143DB00C8185B
:101EF0002900FEF7E3F900281CD1FB7F0133FB77B3
:101F0000A38C0133A384FFF7FBFE051E12D103341B
:101F1000E37F1549482B00D1144901914821164A05
:101F2000009102200399FFF737F804E0FFF720FF44
:101F30000028B9D01E2528000BB0F0BD1822A02320
:101F40005043DB002900C018FEF7B8F90028F1D192
:101F5000F07F482101300EF0AFFBF177D0E7C046AB
:101F60009F0200209C020020F7550108EF55010850
:101F700023560108FE550108295601081A4B70B571
:101F8000DB7F05000C00194E012B05D0FFF7F0FE9A
:101F9000002801D01E2070BD731C0336F27F012083
:101FA000AA42F8D91B18D87F482140190EF084FBAB
:101FB0001822A0235143DB00C8189B18CB18984265
:101FC000E8D80B4B2000C91811F0C4FD21002000F7
:101FD0000023A27D16310478013063408142FAD19A
:101FE0009A42D7D10020D6E79D0200209C02002013
:101FF0000011080803000800991870B501249942DF
:1020000008D3C0252D01A94204D80349002459183A
:1020100011F0A0FD200070BD00000808012310B5DC
:10202000002805D0027A002A02D0FEF7A3F9002387
:10203000180010BDF0B5CDB0040003910120002CB4
:102040003DD0A37B83423CD1237A06AE0193A07A94
:10205000190001300EF030FB6B4604911B7C3200FE
:10206000059300230893A389677A01339BB20293F7
:102070001D4B7771069301233371029BF38009ABEB
:1020800023CA23C33A001800039911F063FD3900F5
:1020900009A80C31FFF718FE0199070060680EF0DF
:1020A00085FA049B0C224343180023683100C518AD
:1020B00028003781FEF72CF9002808D01E204DB0EB
:1020C000F0BD2000FFF7AAFF0028BDD0F6E72800EA
:1020D000627A03990C30FEF71BF90028EED1059BBC
:1020E000A372029BA381EAE74746435300B58DB034
:1020F00001002F22684611F02DFD6846FFF716FCFF
:1021000069460248FFF796FF0DB000BD08000020A9
:1021100070B5837B04000D001600012B06D1200052
:10212000320029000DF0B4FE002070BDFFF776FFED
:102130000028F4D01E20F8E773B56B460500DE1DBD
:10214000320029000948FFF7E3FF041E0BD1337862
:102150002800002B04D1FFF7ABFC0234200076BD31
:10216000FFF7E4FBFAE71E24F8E7C046080000206A
:10217000F0B591B0060001250291002835D0002964
:1021800033D004A8FFF7D8FFFD2305001D401842F7
:102190002AD102AAF03B9B18DF7F154C3800FFF7CD
:1021A000B5FB012817D0134F029B21001B681800B4
:1021B00003930EF081FA7A1AB94203D3641ABC422F
:1021C00013D2E219029B0399009330683300FEF7A3
:1021D000FFFC050009E07C43002C06D0054B1F00E6
:1021E0009C42E1D86708DFE71E25280011B0F0BD4A
:1021F00080EE3600C0D40100F0B56F4B6F4D5B78B8
:1022000091B0012B05D12B0054335B780F93012B38
:1022100005D06B48FEF7F8FF002011B0F0BDEE6B63
:102220002C6C3300234301D16E6BAC6BEB6DB3426E
:10223000F2D12B6E0E93A342EED90E9B614A1B1B6B
:102240009342E9D8AB69B34202D1EB69A3423CD0D7
:102250002F7D012F3BD920005B490EF02DFA08009D
:10226000FA2189000EF0A2F95849079020000EF0DB
:1022700023FA080054490EF099F9544906902000B9
:102280000EF094F9504905900E9804960EF014FA49
:102290000800FA2189000EF089F94C4903900E9844
:1022A0000EF00AFA080048490EF080F947490290FA
:1022B0000E980EF07BF9464D01903B002900454AEF
:1022C00000960420FEF768FEA6E700230F932F0078
:1022D000603721003000404B404A0097FEF778FC01
:1022E00000289AD139003C48FFF742FF002800D06F
:1022F00093E70F9B012B04D12B7DAE6101332B752E
:10230000EC612E4D0F9B2F6E0D932B7D20000C93B7
:10231000324B2D490B930EF0CFF90800FA218900BA
:102320000EF044F929490A9020000EF0C5F9080082
:1023300025490EF03BF92549099020000EF036F9A9
:1023400021490890380007960EF0B6F90800FA21E6
:1023500089000EF02BF91D49069038000EF0ACF9FB
:10236000080019490EF022F91849059038000EF0BE
:102370001DF90490EB6D0E98134903930EF09CF930
:102380000800FA2189000EF011F9104902900E9808
:102390000EF092F908000C490EF008F90B49019073
:1023A0000E980EF003F9330000900D4A08490320FF
:1023B000FEF7F2FD30E7C046C80200209C02002074
:1023C00095570108BFD4010060EA000080EE360096
:1023D00095B7010845560108F8020020C0D4010055
:1023E000C8560108F0B595B0FEF72DFB0590012801
:1023F00011D0394B394CDB78002B04D00420384AFB
:102400003849FEF7C9FD00227C342280E2700224A4
:10241000200015B0F0BD06A8FEF7D8FD041EF7D1C8
:1024200008A8FFF789FEFD2304001C4018424CD188
:10243000E03B02AA9B18DE7F3000FFF767FA012815
:1024400045D10221244BFF311A88244D8A4205D1FF
:102450009A78B24202D1DB78012BD9D02F0031001B
:102460007C3706A8BE700AF079FA002831D1022321
:10247000FF333B80013BFF3BFB702B000833DE6FDB
:10248000BB783000184905930EF016F90800FA21C0
:1024900089000EF08BF81549039030000EF00CF90E
:1024A000080011490EF082F81049029030000EF039
:1024B0007DF804350190EB6F0D4F00933A00059BBA
:1024C00008490320FEF768FDA2E71E24A0E7059E49
:1024D000B7E7059C9CE7C046180300209C0200203B
:1024E0006B57010895B7010860EA000080EE3600DE
:1024F000A757010810B58EB002A8FFF71DFEFD23F7
:1025000002001E201A4216D1EF3B6B44DC7F2000F4
:10251000FFF7FCF9012800D00124084B21000193AA
:10252000074B08480093084A084B09F0F5FF0028BC
:1025300001D1FFF761FE0EB010BDC046E75701089C
:1025400004580108C80200204356525320BF02001D
:1025500000B58FB002A8FFF7EFFDFD2302001E209B
:102560001A420FD1EE3B6B44D97F074B07480193CA
:10257000074B084A0093084B09F0CEFF002801D111
:10258000FFF73AFE0FB000BD1A580108F002002014
:102590003A580108544D474D00530700F0B595B027
:1025A0000F90002802D1012015B0F0BDFFF7A2FF67
:1025B000FD230A901842F7D1FFF7CAFF071E04D087
:1025C0000228F1D10A9B002BEED112AC2000FEF7BD
:1025D000FDFC0028E8D12288864BA1785343642271
:1025E0004A439B18E27820009B180B93FEF762FA8F
:1025F0000A9B0E90002B07D0002F00D1DBE07E4B12
:102600000F9A196ED86DEDE00A9B0C937A4C0B9BD8
:10261000656BA66B9D4203D35CD80E9B9E4259D836
:102620002200236D503201922200200010932300DB
:1026300038320092290032002C3034330AF05CF832
:102640000028B1D10C9B6D4901330C93A36B0D9302
:102650000C9B0D980893109B07930EF02DF8080023
:10266000FA2189000DF0A2FF654906900D980EF041
:1026700023F8080061490DF099FF614905900D9814
:102680000DF094FF0490636B30005C4903930EF0EF
:1026900013F80800FA2189000DF088FF58490290CC
:1026A00030000EF009F8080054490DF07FFF54493E
:1026B000019030000DF07AFF2B00524A00905249F1
:1026C0000420FEF769FC80230C9ADB009A429DD11E
:1026D0001F2069E7002F00D081E00123109300251F
:1026E000454C0B9AE36D0D93236E0C930D9B934217
:1026F00004D362D80C9B0E9A93425ED82600270022
:10270000A36F5C3660371193404A33000E990B98E3
:102710000097FEF75DFA002800D044E7390030004A
:10272000FFF726FD002800D03EE7384B266EA06755
:102730000893119B300031490135079309950DF03D
:10274000BBFF0800FA2189000DF030FF2C490690EC
:1027500030000DF0B1FF080028490DF027FF28498F
:10276000059030000DF022FF0490E36D0C98234992
:1027700003930DF0A1FF0800FA2189000DF016FF68
:102780001F4902900C980DF097FF08001B490DF0AF
:102790000DFF1B4901900C980DF008FF1A4F0D9B7F
:1027A0000090390004201A4AFEF7F6FB8023DB0074
:1027B0009D4295D18CE7109791E70A9B002B14D08E
:1027C000109B012B00D01AE7E36D656B9D4200D989
:1027D00015E7A66B03D3236E9E4200D30FE73100AB
:1027E00028000F9AFEF7B3F9DEE6FFF705FD002893
:1027F000E6D0D9E6102700009C02002060EA000025
:1028000080EE36004D58010895B70108307500007C
:10281000D958010837B56B460400DD1D2A00210098
:102820000748FFF775FC002807D12B78002B03D150
:102830002000FEF70FF902203EBD1E20FCE7C04637
:10284000180000200021F0B5E1B040AE4022129007
:102850003000179110F032FFC54C17AF3A003D2100
:10286000200006F082FEC34D00280AD000903D23D0
:1028700029000420C04AFEF78FFB0024200061B02D
:10288000F0BDF9783B780291B9780220019179780E
:10289000BA4A00912900FEF77FFB3B78F52B05D162
:1028A000FB785F2B02D1BB78002B05D1B44AB1492C
:1028B0000220FEF771FBE0E7102B05D92900042068
:1028C000B04AFEF769FBD8E77A78022011929A00A5
:1028D000D2B213921399AC4A019100932900119B33
:1028E000FEF75AFB2000BB783200119907F036F949
:1028F000BB78041E08D0019000932900A34A119BC5
:102900000420FEF749FBB8E7F17802200491B17882
:102910009F4A039171780291317800930191119B44
:102920002900FEF739FB3378FF2B00D0B5E0B278F1
:1029300073781343F278134301D001F07DFC119BAF
:1029400029000220934AFEF727FBBB78012B06D013
:10295000012104200091904A2900FEF71DFB844CC0
:102960008E4A2000119906F009FE002808D08C4AF2
:10297000119B009029000420FEF70EFB1E247DE72A
:10298000F42350AE3370119B05207370854B738018
:1029900006F0B0FF32003D21200006F0EFFD071EDB
:1029A00003D03D23804A0090E4E7F1783378029128
:1029B000B178724A01917178022000912900FEF7E6
:1029C000EBFAFE230193FD3B784A00932900119B0B
:1029D0000220049703970297FEF7DEFAB822744BA1
:1029E00037701B6E139306AB9B181F7034AF3A0001
:1029F000002120000BF0E4FB5E4E031E6D4A08D15F
:102A00000121200050AA0BF0DBFB031E129022D004
:102A1000694A31000420FEF7BFFA0A2006F06AFF77
:102A2000634B139A1B6E9B1A962252009342DDD37E
:102A300050A9097806AB743A9B181B785F4A00913D
:102A400004202900FEF7A8FA29005D4A119B042002
:102A5000FEF7A2FA92E7942006A940000918097827
:102A600027383B78574A0091FF383100FEF794FA37
:102A700008223B781342D0D03100534A0220FEF79F
:102A80008BFA85211822129B490120000AF0A4FC30
:102A900031004E4A119B022013E7012B00D078E150
:102AA0007378D42B01D001F0C7FBB3780E2B01D97A
:102AB00001F0C2FB464ADA40D20701D401F0BCFB68
:102AC0002900444A0220FEF767FA062200211298E4
:102AD00010F0F4FD139940AC23780391E1783E4F58
:102AE0000291A1780220019161783C4A009139005D
:102AF000FEF752FA6378D42B02D0394A3900CAE77C
:102B0000129AA5789370D5700E2D2CD828000DF050
:102B1000D9FD092D2A082A202A2A2A2A2A2A2A2ADD
:102B20002500042518AE33004022280050A906F0E5
:102B30005FF8041E00D0A1E633782AAA14931499F2
:102B400020AB50A806F0E4FE041E4FD0254B1C72AB
:102B500094E60123129A06255370E3E70123129AA3
:102B60000F255370DEE72B001F4AC7E70225D9E780
:102B70002803002095B701086E5901089D590108E6
:102B8000C8590108F0590108205A01084D5A010896
:102B90007E5A0108BC5A0108E15A0108904A01080E
:102BA0000F5B0108014F00003F5B0108735B0108E8
:102BB0009C000020BA5B0108E65B01089C5C0108F0
:102BC000D45C0108125C0108435C0108775C0108D1
:102BD0002B400000FE5C0108565D01082B5D0108DA
:102BE0005A5D0108600A0020855D0108914B34AEF2
:102BF0003380914BB57011931B78904DF070012B81
:102C000024D1A86B002821D03200202106F0B6FC88
:102C1000002808D020238A4A009039000520FEF7BA
:102C2000BBF91E2492E7F378864F0393B3783900FB
:102C300002937378022001933378834A0093202310
:102C4000FEF7AAF9119B1B78012B01D002247DE726
:102C5000A86B0028FAD029217C4A06F08FFC0028B6
:102C600003D029237A4A0090D7E7032303940294E0
:102C700001940093390026330220764AFEF78CF93E
:102C8000119B1C78012CE1D1AD6B002DDED020AB67
:102C90001B78002B00D159E76F4B052034AC3493DF
:102CA00006F028FE3D212800220006F067FC654959
:102CB000051E03D03D23694A0090AFE7E0782378F2
:102CC0000290A078664A0190607800900220FEF79A
:102CD00063F925700825634E376E584B986B0028B2
:102CE00048D034AC220000210BF06AFA002841D110
:102CF00023782B423ED05C4A52490230FEF74CF911
:102D00000123129A50AD13702B78584C13716B78C5
:102D100040AE5371564B32002380524B55491B6EC7
:102D20005548E36023690133236100236380E38016
:102D30002372139B06F019FA3388129AA380129B10
:102D4000280014995B78127809F05AFF1298129BA8
:102D500040789B7803901298484A4079394902900C
:102D60001298007901901298C07800900220FEF726
:102D700013F982E50A2006F0BDFD9622336E52005B
:102D8000DB1B9342A9D334AB04201B783C4A2D496A
:102D9000B4E7102B00D0D6E373785A1E032A01D96A
:102DA00001F04AFA17AFB978364A01911199022019
:102DB00000912900FEF7F0F8334B204E1879FDF70B
:102DC0006BFE3100983109780300029131006C31BB
:102DD00009780220019131009A3109782B4A00913B
:102DE00099362900FEF7D8F83378002B00D18DE30F
:102DF00040A90B78134D264A102B00D083E3BA78F4
:102E0000C8784E781392049089780193139B0391AC
:102E10000093290003201F4A119B0296FEF7BCF87D
:102E2000701E032800D96CE30DF060FC36006303CC
:102E3000E101690301D4FFFF500300201C030020BF
:102E4000AF5D0108565D0108DA5D0108944A01088A
:102E5000115E01083B5E0108F420014F715E01081C
:102E6000A15E01089C000020CC5E0108600A0020E1
:102E700001030000690A00207C0A00201A5F010893
:102E8000EF5E0108505F0108580300208C5F0108C5
:102E9000C65F0108F85F01081022002150A810F059
:102EA0000DFCF04EF04C3079FDF7F6FDEF4D0300D0
:102EB00029000320EE4AFEF76FF823006C331B78DD
:102EC000002B08D03079FDF7E7FD29000300E94A1F
:102ED0000320FEF761F800272300200001252600CB
:102EE000102239006C3354301F7010F0E7FB236F51
:102EF00028005B193C36236735710BF079FB236F93
:102F0000DD4ADA490320FEF747F823009A331D70A3
:102F10002300DA4E9C33326E3900E46B1A602AA823
:102F2000072210F0CBFB0822390034A8209710F0BC
:102F3000C5FBBC4228D002232900200034AA06F099
:102F40000DFEB84220D1072234A92AA810F002FEB3
:102F5000A37BBB4205D10722E01D2AA910F0FAFD90
:102F6000A5732AA88579037805954579C44A0495FF
:102F70000579BE490395C578029585780195407815
:102F800000900120FEF708F8FF21200020AA06F09B
:102F9000ECFA209DFF212000013520AA209506F0A3
:102FA000EDFA326E0026D10953034B4029005340FD
:102FB0005A0459404A405B095A40AB4BA94C149201
:102FC0001293300007210DF081FC9020149A06AB7B
:102FD000F2401B185B5C20A95340032232408A5CFC
:102FE000371953406B227243013653403B72102E07
:102FF000E7D1237A0295A17A9C4F0191617AA14A87
:1030000000918E383900FDF7C7FF12980423212163
:103010009D4AC06B06F0E2FD00280BD03900052068
:103020009A4AFDF7B9FF00228E4B05241A71984B7E
:103030001A704BE004233900964A009303201D3395
:10304000FDF7AAFF129850AD04232A002121C06B7E
:1030500006F084FD002875D000902123390004205B
:103060008D4AFDF799FF02247E4D20002C717E4E83
:103070000BF0BEFA20000BF095FA1399119809F0A5
:10308000CDFE041ECFD10BF037F9784F834A3900BB
:103090000320FDF781FF2879FDF7FEFCE97A0300A4
:1030A0000591A97A03200491697A7D4A0391297ACE
:1030B000029131009C3109689A3601913178009172
:1030C0003900FDF769FF77480DF02AFA654E664D25
:1030D0003079FDF7E1FC2900E9239831097806AA47
:1030E000D2181378049170499A3509786F4F03917B
:1030F00029786F4A02910190390002200094FDF76F
:103100004BFFE92306AAD3181B78012B00D0FFE15F
:10311000002C00D00DE23079022801D0FFF7ADFB82
:103120002B78002B01D1FFF7A8FBF17A337A0291BB
:10313000B17A604A0191717A00913900FDF72CFF54
:10314000FFF79BFB32005049280010F08FFC06006F
:1031500073427341E97B584A0F91A97B03200E917A
:10316000697B0D91297B0C91E97A0B91A97A0A91DF
:10317000697A0991297A0891E9790791A9790691E3
:103180006979059129790491E9780391A9780291E7
:1031900069780191297800913900FDF7FDFE002E34
:1031A00000D160E7E17D237A0E91A17D434A0D9124
:1031B000617D04200C91217D0B91E17C0A91A17C21
:1031C0000991617C0891217C0791E17B0691A17BAB
:1031D0000591617B0491217B0391E17A0291A17AAF
:1031E0000191617A00913900FDF7D6FE3BE734ACDE
:1031F00010220021200050AE10F060FA10220021B1
:10320000300010F05BFA184B164D14932879FDF737
:1032100043FC164903002A4A03201291FDF7BCFE25
:10322000164BE87A196E149B264A9A331B78049041
:10323000A87A0390687A0290287A019014989C30BA
:103240000068091A009103201299FDF7A5FE2B7959
:10325000022B3BD005201C4A1299FDF79DFE042449
:1032600034E7C046580300201C030020565D0108C7
:103270004560010872600108B36001089C000020ED
:10328000DE6001080D610108600300203D61010856
:10329000B6030020546101088B610108CD6201086A
:1032A000EB6201084D6301088803002095B701080F
:1032B00090660108E1660108C461010850620108D6
:1032C0005C63010884630108D16301080323149837
:1032D0002B7122002521C06B013306F03FFC071E35
:1032E00007D000902523E44A12990520FDF754FEEB
:1032F00099E6E17823780291A178E04A019161781A
:10330000032000911299FDF747FE149831004430D4
:1033100009F0A0FCE97D2B7A0E91A97DD84A0D9188
:10332000697D03200C91297D0B91E97C0A91A97C90
:103330000991697C0891297C0791E97B0691A97B19
:103340000591697B0491297B0391E97A0291A97A1D
:103350000191697A00911299FDF71EFEE17B2378B5
:103360000E91A17BC74A0D91617B03200C91217BBB
:103370000B91E17A0A91A17A0991617A0891217AF7
:103380000791E1790691A1790591617904912179FB
:103390000391E1780291A1780191617800911299ED
:1033A000FDF7FAFDF17B33780E91B17BB64A0D91B2
:1033B000717B03200C91317B0B91F17A0A91B17AE8
:1033C0000991717A0891317A0791F1790691B17971
:1033D00005917179049131790391F1780291B17875
:1033E0000191717800911299FDF7D6FD3B00E25CE6
:1033F000F15C01334A401743FFB2102BF7D1A34DC4
:10340000002F3ED12B0004263C331E712B00983335
:103410001F706B6FAA1901336B679D4B2000196EEB
:10342000AF66D1671A6E9B4B9B495B6B9B186B66B3
:103430002B0001226C331A7009F00CFC03200BF0F6
:10344000D7F830000BF0AEF81399119809F0E6FCAC
:10345000041E00D0E7E50AF04FFF2B009A338F4A95
:103460008F491F7003206B6FFDF796FDA0358D48C7
:103470000DF056F82B68002B00D127E686489847B8
:1034800024E62C00AA6F983401322378AA67804A78
:103490002900106E2A0005263C3108320133DBB2C8
:1034A000D0670E71804A7E4930002370FDF774FDAD
:1034B00030000BF09DF804200BF074F8139911986C
:1034C00009F0ACFC002800D0ADE50AF015FF2B0098
:1034D000A4331B68002B01D0207898472A000023D2
:1034E0003C3272489A3513712B7001240DF018F894
:1034F000ECE56F4A29000320FDF74EFDE6E56D4A35
:10350000F8E733006C4A29000420A6E60624DDE52E
:10351000032B0ED13079FDF7BFFA684B39001B78C9
:10352000674A02932B780090019302202300FDF755
:1035300033FD14235B422341DB0701D4FFF79DF9E0
:103540001F24FFF79BF9202B01D000F075FE40AB44
:103550005B78013B022B01D900F06EFE2900432568
:1035600017AB9B7802200093564A119BFDF714FD80
:1035700006ABED1801232B70534B544CDB7F002B13
:1035800001D100F056FEA36A002B01D100F051FEDC
:10359000E36A002B01D100F04CFE1A79303313920C
:1035A0001B78042A01D1002B38D1494A3C490093A9
:1035B0000420139BFDF7F0FC0021A36C2A000133CB
:1035C0000800A36409F080FD012009F0C9FD2878F6
:1035D00009F0E8FD0AF05CFE022311933D4B2B4DF0
:1035E0001879FDF759FA2B006C331B783A4C01938C
:1035F0000090119B21000220384AFDF7CDFC119B61
:10360000062B01D8FFF739F9082B01D1FFF735F95F
:103610002100334A0520FDF7BFFC91E7022009F0A5
:103620009FFD11900028D9D120AD0100252228004E
:1036300010F044F82A003021A06A05F096FF184ED9
:1036400000280BD03023274A009031000520FDF7D9
:10365000A3FC062009F084FD0723BEE708233121DF
:10366000A06A21AA06F07AFA149000283ED03123ED
:103670001D4A0090E9E7C046ED6301082164010896
:1036800053640108BA640108206501081C03002086
:103690009C0000209C01002070030020866501082A
:1036A000565D0108B0650108BD650108F6650108B1
:1036B0000066010837660108666601088803002075
:1036C0003067010874670108C90300209C030020CB
:1036D000A26701085803002095B701087468010823
:1036E0009F680108C8670108EF6701088C21202343
:1036F00006AA52181370E9792B780691A97902204D
:1037000005916979CB4A049129790391E97802916D
:10371000A9780191697800913100FDF73DFC2B7883
:10372000202B07D00323C44A1193536C0127013384
:10373000536448E020AEF3781193002BF2D17378F4
:103740001293013B022BEDD818AF202211993800BB
:10375000B5780FF0B3FF119B02200293129BB74A7A
:103760000093B74920230195FDF716FC129B022B0D
:1037700000D13AE1032B00D1FFE1022D0FD02B0045
:10378000103B042BCED82800113850AC032800D9A8
:103790007FE00CF0ABFFBC00C900080118013379D1
:1037A000012B01D900F04CFD50AE300005F0C7FEF2
:1037B000002867D005F086FE002507009E4A149574
:1037C000136C01331364432406ABE41822001499EC
:1037D00018A809F079FC002800D03DE7380009F06E
:1037E000BFFC002800D037E7207809F0DBFC002878
:1037F00000D031E70AF04CFD119B002B00D0EDE624
:10380000904B119819788C4A1870002900D1E5E680
:10381000D06F002801D006F06DF8BFF34F8F8A4BB0
:103820008A4ADA60BFF34F8FC046FDE7509B1B0A00
:10383000DAB2874BDB7F012B03D0023B59424B416D
:103840005B00A52183487172B2723100F372FEF7FA
:10385000F1FB071EAED1200027223100503010F0BE
:1038600079F92300012277331A70230078331A7014
:10387000642320A948794343E36718AB1A700A7997
:103880005A709BE7337A002BD0D1119B3B800327E2
:1038900094E7200005F05EFE00288BD130223379BA
:1038A00006A912937579FF32521852AB2900DB7FBB
:1038B000D27F129805F01BFE002801D100F0C0FC59
:1038C0002E2306AAFF339B18129A2000DA7797233B
:1038D00006AA5B009B18DD77FEF728F82000FEF7AC
:1038E00005FC0123061E09D15B4D2F222800210073
:1038F00010F030F901232F352B700023A28CBB7000
:103900003A80300005F0DEFD0325070056E7200071
:1039100005F020FE0025A84202D1A38C3B80023591
:1039200005F0D0FD070049E7200005F013FE002850
:1039300000D03FE720AB1D79280005F0CDFD002821
:1039400001D100F07DFC002D08D0972306AA5B0072
:103950009B18DB7FAB4201D200F072FC502206AB19
:10396000FF329B181D702000FDF7E0FF2000FEF7DE
:10397000BDFB0126051E09D1374B21001C002F225B
:1039800018002F3410F0E6F826702E005022280080
:1039900006ABFF329B181B787E703B7005F092FDE2
:1039A000022507000AE7200005F0D4FD0025A84203
:1039B000B6D152ABDB7F06AA3B7097235B009B1806
:1039C000DB7F7B70ABE7200005F0C4FD002809D148
:1039D0005AAB1B7878703B70788005F073FD070058
:1039E000139DEBE600231393F7E7681E052800D923
:1039F00098E60CF067FE0303356B8AA9174A164C4C
:103A000013780133191CDBB2002B00D10121117096
:103A100005F0E2FB230030331B783B70002801D017
:103A200003231293129B7B70236CBB700023FB70EB
:103A3000D3E7C0461A6801089C03002054680108B7
:103A4000565D01081404002000ED00E00400FA05B2
:103A50001F020020180000201C0400204C0400203D
:103A60000023A34C1A0021000125A2480E7D002E40
:103A700003D02E009E40324392B2013308310B2B0B
:103A8000F4D1002301251900267D002E06D0667D85
:103A9000002E03D02E009E40314389B201330834FA
:103AA0000B2BF1D1030030331B787A703B70036C21
:103AB000F970120A090ABA7039717B713430037CCB
:103AC0000825BB710023FB711F0077E620AB1A7934
:103AD0000A2A00D9B4E33A70854B0232D2009B180F
:103AE00018798449787058799B79B8700020FB70F8
:103AF0008B18DB6B38711A0A7B71BA711A0C1B0EAA
:103B0000FA713B720925070058E620AB1E790A2E90
:103B100000D995E3784A774C13780133191CDBB24E
:103B2000002B00D10121117005F056FB3E700236CA
:103B30003434F600A41923797B706379BB70A379C0
:103B4000FB7000233B71EBE620AB1B79A52B00D06B
:103B500076E3684C5822200000214830644D0FF075
:103B6000ADFD00226A702A740125644B3D701B6E06
:103B70001700E2632264A36320E6681E072800D9C9
:103B8000D0E50CF0B3FD080014009800BD00590109
:103B90006D01E201980234A805F0DCFC0025A84282
:103BA00000D0BDE63D9B053518933871B8E634A8C2
:103BB00005F0D0FC002800D0FCE520AB1A7AD10734
:103BC00004D5BD21187906AC0919C877910704D529
:103BD000BE21587906AC0919C877BF2706A97F18F6
:103BE000510701D59979F97736AE120701D5DB79FE
:103BF000F377DD20DC2406A9091806A80019F37F55
:103C0000FA7F0978007805F072FC002800D117E3EC
:103C100034A8FDF78BFE34A8FEF768FADB3C051EDE
:103C200038D150A8FEF788FA051E33D12E23DC21A7
:103C300006AAFF339B185218DB7F1278DD209A1AF0
:103C4000531E9A41972306A95B005B18091809784F
:103C5000DB7F5B1A591E8B41D318302206A9FF3235
:103C60005218D47FFA7F34A9A41A621E944152AA32
:103C7000D27F1C19F37F1F4E9B1A5A1E93413000AE
:103C8000E4182F22631E9C410FF064FF01232F369E
:103C9000E4B233703D9B189318AB1C71002C07D015
:103CA000002D00D14FE1280005F00CFC070000E0DA
:103CB0000027052582E534AC200005F04BFC0025EB
:103CC000A84200D02CE6E12306AA9B180A221B7802
:103CD00053431A1CFF2B00D9FF223EAB1B7805254E
:103CE0003B70638D7A707B8000233B7118E6C04681
:103CF000500400201C0400204C0400209C000020E4
:103D000034A805F027FC002800D053E520AC257A24
:103D10003EAEEB0701D523793370AB070BD5607945
:103D2000002804D00A2109300CF040FCC0B2E12385
:103D300006AA9B1818706B0704D5E223A27906A97E
:103D40005B181A70E32206ABD2182D0701D5E37970
:103D50001370337812781343012B00D970E2E123FA
:103D600006AA9B180A221B785343002B00D167E256
:103D700006A9D83252181178002900D160E21A1C25
:103D8000FF2B00D9FF22D2B28A4200D258E234A8D7
:103D9000FEF7ACF90124051E39D150A8FEF7CCF985
:103DA000051E34D15AAB1B78347806AAE41A631E78
:103DB0009C41E1239B18522206A9FF325218127827
:103DC0001B78C94E9B1A5A1E9341A922E418E2237C
:103DD00052005B18521812781B7830009B1A5A1E3A
:103DE00093415422E418E323FF325B1852181278EF
:103DF0001B7834A99B1A5A1E93412F22E418631E84
:103E00009C410FF0A7FE01232F36E4B233703EAB86
:103E10001B7806AA3B70E1239B180A221B785343A8
:103E20001A1CFF2B00D9FF227A70E22206AB9B18E6
:103E30001B883C717B8031E734AC200005F07FFBB0
:103E400000280BD163793B70A3797B70E379BB7059
:103E5000237A38715A1E9341FB7061E500255FE5B6
:103E600034AD280005F06BFB002800D0A2E420ABA5
:103E70001A7AD10701D519796971910701D5597954
:103E8000A971510701D59979E971120703D5DB7939
:103E90005A1E93412B726B79052B00D9D0E1AB7977
:103EA000012B00D9CCE1EB79032B00D9C8E1290023
:103EB0008E48FEF7BFF82B7A07005A1E9341DBB2FB
:103EC00012936B7901241393AB791493EB791593C7
:103ED000002828D150AE3000FEF79CFC071E22D1EE
:103EE000139B7479149AE41A631E9C41B3792900D8
:103EF0009B1A5A1E9341159AE418F3797C489B1A31
:103F00005A1E9341E418337A7A4E5A1E9341129AFC
:103F100077365340E4182722631E9C410FF01AFEA7
:103F20000123E4B23370139A18AB1A70149A1C71FF
:103F30005A70159A9A70129ADA70002C00D1B7E66E
:103F4000381E00D0B0E60527B3E66D2206AB9B18FD
:103F50001B78A52B00D073E106AB013A9B181B78A8
:103F6000022B6ED834AD280005F0F4FA061E00D0FE
:103F700095E00100952006AB40002C22C0180FF000
:103F80009DFB5D4B50AC05225C49238057A80FF088
:103F9000E1FD56210122FF31AB2006AB5B181A7000
:103FA0000423400006A909180B70638C54499B0B2D
:103FB0009B030B43638402233026FF33A384FF3625
:103FC00006ABF6184F4BF2772385A92305215B003A
:103FD00006AAD21811702000FDF7A8FCA9236C20B6
:103FE00006AA5B00D3181A7806AB1B181B78218D24
:103FF000012B5DD8A08CF67FA884BF2006AC0019E9
:10400000C67752A8C47F36A8C477002B0BD1E22311
:10401000298506A95B181A705423FF335B181A7898
:10402000E3235B181A702800FEF760F8061E36D1ED
:104030002D4C2F22200029000FF08CFD01232F345E
:10404000237020AB1B79002B02D00026032B26D136
:10405000912006AB26220021C0180FF02FFB9022E2
:10406000012506AB9B1895211D70032306AA521843
:104070001370962206AB9B181D70023206AB9B187C
:104080001A481D702AA9FDF7D5FF061E07D1194C45
:10409000272217482AA977340FF05CFD257020AB42
:1040A0001B7930003B7033005A1E93417B7075E4DE
:1040B000022BB8D1ABE720AB1E79032E00D9BFE0AD
:1040C00000D183E050A805F045FA051E1CD005F08C
:1040D000F9F9002407000125002E7AD0002218AB40
:1040E0001C705D705A807BE41C04002018000020C6
:1040F000EC0300209C030020A3700000C3530108C0
:104100000A240000010A00004F4A504B1478002C8A
:1041100059D0022E55D02E2106A8FF315A1D09185C
:10412000D27FCC7F991DA41A621E9441972252001F
:104130001218C97FD27F2F00521A511E8A41A4182B
:104140003022FF32D91D1218C97FD27F0833521A8C
:10415000511E8A41A41852AAD27FDB7FD31A5A1E5D
:104160009341E418002EB9D1394A5AA91278097836
:10417000364B891A4A1E91415222180006AFFF326F
:10418000D219293000781278121A501E82418A18EA
:10419000A92118004900C9192A30007809782B3361
:1041A000091A481E814152185421FF31C919097852
:1041B0001B780027CB1A591E8B41D318E418E4B2A0
:1041C0008AE70400D0E70225129F85E700273D001B
:1041D0003C0034AE300005F0B2F9002804D005F000
:1041E00071F9129D070079E71A4B1B4A1B78002BC7
:1041F0001CD050325179737990795B1A591E8B41DA
:10420000B179091A481E8141D0795B18F179127A87
:10421000091A481E81415B18511E8A41317A481E95
:1042200081414A409B18E418E4B257E7129F139D5E
:1042300054E70823FFF7D1F92900084AFEF738FBB5
:104240000823FFF770FAC0464B0400201C0400202E
:1042500044040020130400209C030020BB680108D4
:1042600070B543780278040080781B0231498AB027
:104270001343002803D03049012800D02F49667A23
:104280002F4D0896267A2F4A0796E6790696A67944
:1042900005966679049626790396E6780190009152
:1042A000029629000220FCF777FEE37AA27A1B022D
:1042B0001343227BE17D12041A43637B0691A17DA7
:1042C0001B060591217D13430491E17C1E4A039155
:1042D000A17C0291617D0191E17BA07B09020143F8
:1042E000207C00040843617C090601430091022000
:1042F0002900FCF751FE0123A17CE078CC06E40FF5
:1043000006948C06E40F05944C06C9090391010735
:10431000C90F0340029141078007E40FC90FC00F86
:10432000019100902900094A04940220FCF734FE10
:104330000AB070BDE9680108F66801082A4E010854
:1043400023560108FD68010841690108A2690108B6
:10435000F0B58FB0182205910400002108A80FF0D5
:10436000ADF906ABDD1D290009A8FDF79FF92B78F3
:1043700008270193012B00D104370F21637BA27B17
:104380001B091B010A4013430293257B7F232E0048
:104390009E433F3B1D4200D01E4320231D4200D0C0
:1043A0001E4320000830FBF7BFFE039020000F30B3
:1043B000FBF7BAFE002308AC04900398A370E770E3
:1043C000FBF7BDFE122306AA9B181880000C58802C
:1043D0000498FBF7B4FE162306AA9B181880000C5D
:1043E00058801F231D401E3B2375029B20006375D0
:1043F000A674E574FFF734FF1822210005980FF02A
:10440000A9FB019B012B04D00420034A0349FCF7BC
:10441000C3FD00200FB0F0BD086A01086451010817
:10442000F7B505006424104B104E0093104B376E07
:104430000193336EDB1BAB420CD20122019BDA7776
:10444000336EFB1A5B19A34209D2346E3C1B64190C
:10445000002C04D10122009B0133DA77F7BD200044
:1044600005F048FAE5E7C0469C0400209C000020C7
:104470009D040020F7B5041E17D000256027244BAB
:10448000C65C244B0193EBB29E420FD800256027F7
:10449000214B0193EBB2B34219D3002560271F4B88
:1044A0000193EBB29E4222D80020FEBD9C23DB008C
:1044B000E05C0C2140190CF0FFF879436018019979
:1044C0000CF062F801350028DDD10120EDE79C23D6
:1044D000DB00E05C0C2140190CF0EEF87943601829
:1044E00001990CF051F801350028D3D1EDE79C2358
:1044F000DB00E05C0C2140190CF0DEF879430B2264
:10450000601801990FF0E3FA01350028C9D1DCE702
:10451000E2040000D2AD0108244E0108406A0108FF
:10452000F8B5040001270E4D0E4E0378002B01D183
:104530001800F8BD29000FF0EFFA0028F9D08442E6
:1045400005D0431E1B780D2B01D00A2B06D1837892
:104550000D2B03D83200DA403A42EAD10230E4E7C8
:10456000D2AD01080124000070B505000024052922
:104570001ED9FFF7D5FF0134002819D12800FBF719
:104580000EFF0400012813D028000A490FF0C4FAD6
:1045900000280DD00A2128000FF076FA0124002807
:1045A00006D10D2128000FF06FFA431E9841C4B2C6
:1045B000200070BD406A010870B505000C1E01D0D6
:1045C00000230B602B780220002B09D02800114912
:1045D0000FF0A2FA00280ED00B30002C02D10720D9
:1045E00070BD01300378202BFBD0092BF9D00EF0E1
:1045F000C2FF2060F3E72800FBF7D1FE030006208E
:10460000012BEDD02800FFF78BFF43425841C0003B
:10461000E6E7C046406A0108F0B50124344B354E48
:1046200087B00393F37F0590A34250D1324B334DB3
:104630001B6E334A0293039B0333DB7FA34204D0F8
:10464000304BDB7F012B17D12F4A29000220FCF7CA
:10465000A3FC00270026284B029A04931B6E9B1A8A
:10466000059A9A421ED83B0029000520274A009649
:10467000FCF792FC0C242AE029000220244A254B56
:10468000FCF78AFCF77F012F09D107F009F8002811
:1046900005D129003800204AFCF77EFCDAE71F4AE2
:1046A0001649D3E707F0DEF80400031E12D10122F9
:1046B000039B02990333DA77049B02201B6E184A8E
:1046C0005B1A019329003B000096FCF765FC200073
:1046D00007B0F0BD01361E2E05D12900114A052074
:1046E000FCF75AFCC6E7C820FFF79AFEB3E7C046BE
:1046F0009C0400209E0400209C0000200951010819
:104700004C6A01081F020020886A01081D6B01081D
:10471000BC6A010810270000E06A0108F56A010878
:10472000486B01087B6B0108024B80001B189868DE
:104730007047C046904A0108F0B5CA4BCA4ADB7FB1
:104740009BB0D17F0C90012B2FD0012933D10222B5
:1047500009920892F332FF32C44D0692C448C54E06
:1047600007900998326E059003930898069B0A9269
:104770000490C14A0291019307990C9B0220009575
:10478000FCF70AFC2800FFF74BFE0A9A336E9B1ACF
:104790000C9A9A4218D8B94A05200799FCF7FCFBF5
:1047A0000122B74BDA771F27B6E10222099296223F
:1047B0000893D200D0E70122099203320892F13225
:1047C000FF3215000692C9E701235B420B930023D9
:1047D0001E000D93AB4B0E93AB4B0F930DE1AB4A09
:1047E000AB49AC48257007F0B1F9AB4A071E00D0C1
:1047F000CCE01E230AAA9B181A00A848A849657095
:104800000AF0F6FA9A4D071EA64A00D089E0A6489B
:1048100012A9FFF7D1FE07284ED1129C29002300D0
:10482000A24A0238FCF7B8FB0C272000FBF7B8FCC3
:10483000079001284CD0002C00DCC1E10B9BA34267
:1048400000D06CE1FF2E01D00136F6B2089B884DF6
:104850000193290023000420954A0096FCF79CFB55
:1048600001230D93089B0B94B34200D9AEE10023C2
:104870000AAA1384012252422900139216938D4AE8
:1048800023000420FCF788FB8B48854912AA0AF014
:10489000AFFA061E00D144E1030029000420874A34
:1048A0000094FCF779FB3300854A71490094042099
:1048B000FCF772FB0C272FE1002814D0FFF734FF20
:1048C0000300804A29000520FCF766FB00241F270F
:1048D00001226B4B6649DA7705203B007A4A009447
:1048E000FCF75AFB5FE707F011F8784A07900128B8
:1048F00033D10E9B0533DB7F012B04D00E9B043399
:10490000DB7F012B38D1C820FFF78AFD1E220AABBE
:1049100062486349D2180AF06BFA554D071E04D05D
:104920006B4A3B00290005207EE05F4812A9FFF793
:1049300043FE072805D1129C29002300654A03384D
:1049400070E7002804D0FFF7EFFE634A0300B9E7E1
:1049500006F0DCFF012806D0604A29000420FCF79D
:104960001BFB3C0060E73F4BDB7F012B04D1474A38
:104970005B495C480BF014F91E220AAB5A484849BF
:10498000D2180AF035FA071E03D0584A3B003849BE
:10499000C9E716AC207013A94348FFF70DFE071EA8
:1049A00049D1200008F014F8071E44D12A21012320
:1049B0002F4D0AAA5218137029004D4A0320FCF704
:1049C000EBFA0D9B2B4C0133DBB20A990D93236E4E
:1049D000484A5B1A0193099B2900009302200D9B12
:1049E000FCF7DAFA099B0D9A934200D88AE0069800
:1049F000FFF716FD3C00079B0D9300210AABD983FE
:104A00000F9B1291DD7F012D00D00EE714AC082220
:104A100020000EF053FE06F025FF071E00D1DEE653
:104A200003000320344A1249FCF7B6FA1F2F00D1C5
:104A30004CE70024F9E6072F0CD112A91A48FFF71A
:104A4000BBFD129C052023002C4A0949FCF7A4FA5F
:104A50000537EAE63800FFF767FE294A03000449F4
:104A600031E7C046A0040020A1040020C4090000D2
:104A7000095101089C000020A36B0108376C010854
:104A8000A20400209C0400209E040020976C0108D2
:104A9000A66C0108B06C0108BC6C0108E86C010848
:104AA000B80B0000F36C010824070020246D0108F6
:104AB0005570010884700108DB700108E670010878
:104AC00089730108666D01082C700108916D010859
:104AD000CE6D01080E6E01084F6E0108836E01084D
:104AE000B46E0108BE6E0108CA6E0108D46E0108DA
:104AF000166F0108566F01086F6C01088F6F01086F
:104B0000C86F0108434B0A9ADF77236E29009B1A6E
:104B10000220414AFCF740FA38001BB0F0BD0126E4
:104B200094E613A806F0B0FF07280CD13B4816A95D
:104B3000FFF742FD3A4A169B009429000420FCF737
:104B40002BFA0C26AFE6002805D0FFF7EDFD230079
:104B5000344A0090F1E7139E29003300324A0320C3
:104B60000094FCF719FA01212A4A304BD1770792B9
:104B7000DA1D0533D177D977002E1DD12C4A2D4966
:104B80002D4806F0E3FF061E0FD129002B4A042012
:104B9000FCF702FA0122079B2948DA77FFF740FC6D
:104BA00001235B4207960B9325E703002900254A62
:104BB0000420FCF7F1F976E63300234A0094BCE7C1
:104BC000079B1E000D9301235B420B931F4B0C9A16
:104BD000186E0A9BC31A9A4211D80D9A1C49012AD1
:104BE00003D100931B4A230061E601201A4AD077C3
:104BF0001A4A019400970430FCF7CEF9D3E50A9BDA
:104C0000181A0C9BC018069B834200D21800FFF7AD
:104C100007FCF0E6A004002004700108240700202F
:104C20003D71010890710108E97101089C040020A0
:104C3000976C010842A201082F7201083B7201081B
:104C4000C409000093720108077301089C0000204A
:104C500009510108EC730108A204002053740108F3
:104C600010B5002805DB05300A210BF049FD00B224
:104C700010BD0538F8E737B500236A460124D38014
:104C8000174BDB7FA34213D1164D174A2900022090
:104C9000FCF782F96B46154815499A1D0AF0A8F8E9
:104CA000041E07D0030029000520124AFCF774F9FE
:104CB00020003EBD21001048FFF77EFC041E09D0F5
:104CC000FFF732FD290003000C4A0520FCF764F9C8
:104CD0001F24EDE729000A4A0220FCF75DF9E7E707
:104CE0009E04002009510108917401082F720108E7
:104CF000905F0100B474010824070020D1740108FA
:104D0000EA740108F0B50126002589B07642040056
:104D1000039601200295AC423AD029005822200087
:104D20000EF0CCFCFF23A3706B46A3486670991D60
:104D3000DD8006F0DBFEA84206D103A806F0A4FE43
:104D4000A8420DD1039B6370039B002B22DB012B38
:104D500020D001232370994B1B6EE364002017E0E1
:104D60000728F1D1964802A9FFF726FC029D2800EA
:104D7000FBF716FA0128E7D12B00924A924904303A
:104D8000FCF70AF902231F2023708C4B1B6EE3648F
:104D900009B0F0BD6A4600238C48911DD38006F00F
:104DA000A5FE00283CD1864D04A92800FFF704FC8D
:104DB000002835D1280086490EF0AEFE051E2FD002
:104DC00007352B78202B10D0092B0ED028008149D5
:104DD00006AB05AA0EF0E8FD022821D1069B032BA5
:104DE00000D087E02B00202102E00135E9E7013304
:104DF0001A788A43FBD118000278854277D22C2A90
:104E000073D1451CAB4274D900230A22280007A99C
:104E100007930EF045FC0323079AE37095426BD18C
:104E20006A4600236C48911DD38006F05FFE00287F
:104E30001BD1634D069006A92800FFF7BDFB002893
:104E400013D1280065490EF067FE00280DD0073009
:104E50000378202B58D0092B56D0614907AA0EF0B1
:104E6000A3FD012801D1079BA3700422E37893439B
:104E7000012B67D16A4600235A48911DD38006F062
:104E800035FE00285ED14E4D207207A92800FFF79D
:104E900093FB002856D1280053490EF03DFE002810
:104EA00050D009300378202B30D0092B2ED025008C
:104EB0002C2108350EF0E8FD002838D001224B4E99
:104EC00001300378093BDBB2192B23D83100D940DC
:104ED0000B00134011421BD1E71DC25C0D2A1BD9E8
:104EE000222A22D02C2A1CD11FE0013884E72C2A48
:104EF00087D00323E37093E78022520290428FD23F
:104F00000123A080A3718BE70130A1E70130C9E73D
:104F10000130D6E70023DFE7354E012116410E426E
:104F200003D00133FA543F2BD7D10022EA54237A1D
:104F3000002B07D028002F490BF026FB002801D0BA
:104F40000123E3716378FF2B0CD0012B0AD00123DE
:104F500023701A4B58221B6E2100E36426480EF082
:104F6000F9FDFBE6E378032B05D004229343012BE4
:104F700012D00323ECE7A17901290BD1A2880823E1
:104F8000132AE5D01A2A05D81C4BD3400B4201D076
:104F90000923DDE70723DBE7A378012B01D022708B
:104FA000D7E7E379012B01D00523D1E70622227050
:104FB000220048321370CCE7DB7001089C0000200F
:104FC00024070020F6740108095101081175010831
:104FD0001D7501083BD401082575010831750108CC
:104FE00057BF0108397501084675010801008002A4
:104FF000FEDBFFFF50750108C4040020040100041B
:1050000003000448092B03D8034A9B00D218106BF5
:105010007047C04658750108904A0108F0B5D14B59
:10502000B1B0DB7F012B01D00AF072FE74220021A7
:10503000CD48CE4C0EF042FB0022CD4B01201A7021
:10504000CC4BCD491A6E23000133D877CB4BA262EB
:10505000029002300093CA4ACA4B0190FBF79CFFB2
:10506000582200211AA80EF029FBC04DC64A29007B
:105070003A310B78C04C0133DBB20B70BD490320D1
:10508000096EE9620121D177C049C14A009121002E
:10509000FBF782FFFA208001FFF7BEFABD4A0690B7
:1050A00000281DD1BC4B0793BC4BD87F079B5E1DCE
:1050B000F0770138431E9841B94B40421840B94B34
:1050C000C018079B0233DF7F012F59D0069BF3776F
:1050D00001230693079B0633DB7F012B68D1B24A7D
:1050E00021000520FBF758FF069B04351F00EB77D6
:1050F00000230693AD4B1AAE1B7830780793FFF769
:105100007FFFF278994CAA4B052A03D8A94B92004D
:105110009B189B6D0699984D05911CA90491B17837
:10512000A54A039102930190079B29000420009750
:10513000FBF732FF8F4BA26A1B6E9B1A9F4AD27FEE
:10514000012A00D0FEE09E4A29000520FBF724FF3B
:105150001F270622631CDA77231DDF770334E27FE3
:105160009349022A03D8934B92009B18196F009120
:10517000944B2900944A01970520FBF70DFF87E027
:10518000924BC018FFF7D8FA00230690F377002857
:10519000A0D18F4B8F4E08938F4B32001800089987
:1051A000099306F0D3FC031E069008D08B4A01E059
:1051B0008B4A069B21000520FBF7EEFE94E72100B9
:1051C0000220884AFBF7E8FE079D0735EB7F012B9D
:1051D00061D06C4802226C4B644CDA77614B6E4DA7
:1051E000DB7F012B03D11AA903F0D2FB07002000BB
:1051F00058223C301AA90EF0ADFC221D631CD77753
:10520000002F00D076E70322DA770AAA0435764821
:1052100076491780EF7709F0EBFD574D031E69D0F3
:1052200029000220724AFBF7B7FE0AF0B9FD2900F7
:105230000220704B704AFBF7AFFE01266D4B0AA9A6
:105240001800079309F054FC4B4D002865D10AABB8
:105250000193079B29000093684A33000230FBF753
:105260009BFE5822434B1D6EA36A3A34ED1A04ABE1
:105270009B181878FFF7C4FE2378069C01900394CE
:105280001CAC03205E4A3C4902940095FBF784FE67
:10529000380031B0F0BD21005A4A0420FBF77CFEF3
:1052A0002100594A0420FBF777FE3200089909983B
:1052B00009F0F2F932005549554809F0EDF9554821
:1052C000FFF7AEF832005449544809F0E5F9354883
:1052D000FFF7A6F82100524A0420FBF75DFE069B6B
:1052E0002100EB7704204F4A4F4BFBF755FE4E4809
:1052F00006976FE739004D48FFF75EF9002806D0A2
:10530000FFF712FA29000300494A01208BE7290020
:10531000484A0220FBF740FE87E703232900009359
:1053200002203300444AFBF737FE032E05D1290043
:10533000424A0220FBF730FE93E72C48FFF770F853
:1053400001367BE722003C321278611C082A03D127
:10535000A31CDB8F3A4AF7E6092A75D1A31CDB8F21
:10536000384AF1E69E0400203C0200201C02002086
:105370001C0500209C00002009510108C0270900DD
:105380006075010860EA00001D020020C775010871
:10539000A8750108D17501089C0400209F04002015
:1053A00030F8FFFFC4090000E5750108560200202F
:1053B00058750108904A0108D5780108A204002018
:1053C0002A790108697C01086F7C010814500000EB
:1053D00031760108267601083C76010849760108F5
:1053E00000760108767601087F770108B80B000087
:1053F0008B770108147801082378010838780108B0
:105400008B78010883760108C6760108F1760108D9
:10541000FC760108DC050000097701081477010813
:10542000217701084B770108307500002407002020
:10543000B2770108F57701085A78010876780108F3
:105440006A790108BB7901080C2F2ED1032A2CD1CF
:10545000220042321278012A27D0524A10780128BD
:1054600023D0012313700222CA77002203342900BB
:10547000E27704204C4AFBF78FFD4C4C4C4922004C
:105480004C4809F009F922004B494C4809F004F94D
:105490004B48FEF7C5FF22004A494B4809F0FCF88B
:1054A000FA20C000FEF7BCFFDAE52200474E383292
:1054B0001178601CB3420BD9200002973930007874
:1054C000434A0190009129000520FBF765FD40E665
:1054D000022936D804270126C7778919E01CC67728
:1054E000C9B20236117038003A4A019300960B0097
:1054F0002900FBF751FD29003800374AFBF74CFD26
:10550000364A3749374806F021FB071E00D020E60F
:105510002B48FEF785FFFFF7AEFB071E06D0030002
:105520002900314A0520FBF737FD12E62448FEF733
:1055300077FF0AF0EDFB2D4A29000320FBF72CFD35
:105540008EE5220039321678002E25D1052103344C
:10555000C1770339E1770124290014700420244A1B
:10556000019300942300FBF717FD2900214A042032
:10557000FBF712FD204A29002000FBF70DFD30004B
:10558000FBF798FFC82004F0B5F92000FBF792FF65
:105590000AF0BEFB194ACFE70193194A0B000297A4
:1055A000009690E71C0500200D7A01082676010878
:1055B000317601083C760108F1760108FC76010895
:1055C000DC0500000977010814770108BF270900EE
:1055D000687A0108A87A0108DD7A0108187B0108B9
:1055E000227B01082C7B0108387B01085F7B0108C6
:1055F000847B0108B97B0108E97B0108FF7B010876
:10560000247C0108F0B5254C1600A5446A46002309
:1056100001245381224A0500D27F0F00A2421BD1F0
:105620009E4200D03370AF212B001E4AC90004A84F
:105630000EF086F90A236B441A001B4904A809F0EE
:10564000D7FB041E0CD0012F06D000902B000220A7
:10565000164A1749FBF7A0FC2000164B9D44F0BDED
:10566000154803A9FEF7A8FF0400002E00D03070F3
:1056700000280CD0012F08D0FFF756F82B0000901F
:105680000E4A02200A49FBF787FC1F24E4E72B009F
:105690000B4A07490120FBF77FFCDDE774FAFFFFA7
:1056A0009E0400209C7C010888130000AB7C01084C
:1056B000095101088C05000024070020D17C010855
:1056C000F37C0108F0B500242600250089B00623EC
:1056D0000220284A2849FBF75FFC04940594172709
:1056E00002ABFF1800233A00012128003B70FFF7AE
:1056F00089FF00281CD1059B01330593FAF73CFD77
:105700001E4B681C1B78022B28D801221C4BDA7711
:1057100007280BD1049B1B4A01931749059B029450
:1057200000960220FBF738FC09B0F0BD0500D6E773
:105730001F2806D1FD223B78063B13420CD10136CF
:10574000DCE70300093BDBB2012B01D90C2803D1B4
:10575000049B01330493D1E70134CFE7062700907F
:1057600001970420084A04497F1BFBF715FCE41944
:10577000D0E7C0460A7D0108095101089C000020BD
:105780009D040020867D01082F7D0108F0B50024CE
:10579000844B854F9DB002931C707B1DDC77834B3F
:1057A000834E03930123039A3100D377029B814AEE
:1057B0001B6E03203B63804DFBF7EEFBFFF782FF80
:1057C000029B1B78022B0AD97C4A31000420FBF78C
:1057D000E3FB0222FB1CDA770C34250026E0784B31
:1057E000DB7F012B00D0C4E0EA7F032A00D0ABE0CE
:1057F000744A7549754806F0A9F90500FAF7BCFC2A
:10580000029B1B78022B08D8002D24D02B003100DE
:105810006F4A0420FBF7C0FB75E0310004206D4A9D
:10582000FBF7BAFBFB1C02222C00DA7703225F4B4A
:105830000020DA77FBF73EFE5D49061E00D19EE0B0
:105840000223654A0520FBF7A7FB0223634AD377AF
:1058500030001DB0F0BD0223039AD377029B1B6E6C
:105860000593504B059A1B6E51499B1A5C4A039154
:10587000934205D904205B4AFBF78EFB0C2636E0E9
:1058800006AC5822002120000DF018FF2000FFF781
:1058900039FA0600031E4DD13800210058223C3051
:1058A0000EF058F92078FFF7ABFBE57803004E4C7B
:1058B000052D03D84D4AA9005218946D04AA927A76
:1058C0000320049204994A4A019100940399FBF73A
:1058D00063FB002D03D004AB5B7A012B2FD0049B1C
:1058E00003200093434A23003149FBF755FB300066
:1058F000FAF742FC002E33D00C2304203E4A2C49F8
:10590000FBF74AFB0C25274B294E1B78022B29D885
:105910003A4A3B493B4806F019F90400FAF72CFCD7
:10592000002C00D182E723003100374A0420FBF726
:1059300033FB7BE70420354A0399FBF72DFBFA2064
:105940008000FEF76DFD8CE7274B062A03D8274B16
:1059500092009B18DB6F310003202D4AFBF71CFBE4
:105960000025D0E7310004202A4AFBF715FB2A4B1B
:1059700059E73100294A0420FBF70EFB2DE70423E9
:105980000A4AD377029B264A1B6E7B637B1DDC771A
:10599000124BD877234B019400950320FBF7FCFAB8
:1059A00056E7C0469C0000201C0200201E0200207A
:1059B00009510108D97D01081D0200202E7E010831
:1059C0009E040020987E0108F1760108FC7601080B
:1059D000D37F0108A37E010817810108200200205F
:1059E000973A00007B7F010858750108904A01082A
:1059F000017F01082D7F01089E7F01083C8001087E
:105A0000227B01082C7B0108A5800108547F010836
:105A10000C800108498001081F020020DD80010878
:105A200045810108F1740108F0B56C4C89B00300A0
:105A30006B4A0691009104202100FBF7ADFAFFF7B5
:105A4000A5FE002808D0022321000420654AFBF7A8
:105A5000A3FA00200AF0E8F8634B1D78082D26D041
:105A6000A827092D24D0FBF7E5F800245F4B22007E
:105A7000142106201C70069B5D4D06F0B1F8C4226F
:105A800001215C4B52009954043A49189954EB7A1D
:105A900004200093584A23005849FBF77DFA200060
:105AA0002C7303F0D1FCA0425FD01E205DE03027B4
:105AB000FBF7C0F80123524C2374A574FAF7C3FF17
:105AC000012867D1FCF716FD022845D1FCF740FDFF
:105AD00002284CD101234B4A637452784A4B012A65
