:020000040800F2
:1000000000500020891C0108351A0108371A010820
:1000100000000000000000000000000000000000E0
:10002000000000000000000000000000391A010874
:1000300000000000000000003B1A01083D1A010802
:10004000991B0108D91C0108451A0108D91C01088F
:10005000D91C0108291B01082B1B01082D1B0108B5
:10006000D91C0108D91C0108D91C0108D91C010898
:10007000D91C0108E11A0108D91C0108D91C010882
:10008000D91C0108D91C0108D91C01080000000076
:10009000D91C0108D91C0108D91C0108D91C010868
:1000A000D91C0108D91C0108D91C0108691B0108C9
:1000B000791B0108891B0108D91C0108D91C0108FA
:1000C00010B5064C2378002B07D1054B002B02D02E
:1000D000044800E000BF0123237010BD9000002001
:1000E00000000000146B0108044B10B5002B03D076
:1000F0000349044800E000BF10BDC04600000000F6
:1001000094000020146B010802780B78002A03D0B9
:10011000013001319A42F7D0D01A70470023C25CF7
:100120000133002AFBD1581E7047000002B471460B
:1001300049084900095649008E4402BC7047C04630
:1001400002B4714649084900095C49008E4402BC6A
:100150007047C04603B47146490840004900095E33
:1001600049008E4403BC704703B4714649084000FF
:100170004900095A49008E4403BC704700224308D5
:100180008B4274D303098B425FD3030A8B4244D35F
:10019000030B8B4228D3030C8B420DD3FF220902A1
:1001A00012BA030C8B4202D31212090265D0030B60
:1001B0008B4219D300E0090AC30B8B4201D3CB0356
:1001C000C01A5241830B8B4201D38B03C01A524198
:1001D000430B8B4201D34B03C01A5241030B8B429A
:1001E00001D30B03C01A5241C30A8B4201D3CB0285
:1001F000C01A5241830A8B4201D38B02C01A52416A
:10020000430A8B4201D34B02C01A5241030A8B426C
:1002100001D30B02C01A5241CDD2C3098B4201D384
:10022000CB01C01A524183098B4201D38B01C01A02
:10023000524143098B4201D34B01C01A5241030979
:100240008B4201D30B01C01A5241C3088B4201D328
:10025000CB00C01A524183088B4201D38B00C01AD5
:10026000524143088B4201D34B00C01A5241411AFC
:1002700000D20146524110467047FFE701B5002009
:1002800000F0F0F802BDC0460029F7D076E77047CD
:1002900003460B437FD4002243088B4274D30309E7
:1002A0008B425FD3030A8B4244D3030B8B4228D388
:1002B000030C8B420DD3FF22090212BA030C8B42AE
:1002C00002D31212090265D0030B8B4219D300E04E
:1002D000090AC30B8B4201D3CB03C01A5241830BD3
:1002E0008B4201D38B03C01A5241430B8B4201D383
:1002F0004B03C01A5241030B8B4201D30B03C01AAC
:100300005241C30A8B4201D3CB02C01A5241830A25
:100310008B4201D38B02C01A5241430A8B4201D354
:100320004B02C01A5241030A8B4201D30B02C01A7E
:100330005241CDD2C3098B4201D3CB01C01A5241E5
:1003400083098B4201D38B01C01A524143098B426E
:1003500001D34B01C01A524103098B4201D30B0157
:10036000C01A5241C3088B4201D3CB00C01A52417C
:1003700083088B4201D38B00C01A524143088B4241
:1003800001D34B00C01A5241411A00D201465241DA
:10039000104670475DE0CA0F00D04942031000D3F9
:1003A0004042534000229C4603098B422DD3030A4E
:1003B0008B4212D3FC22890112BA030A8B420CD35E
:1003C000890192118B4208D3890192118B4204D387
:1003D00089013AD0921100E08909C3098B4201D307
:1003E000CB01C01A524183098B4201D38B01C01A41
:1003F000524143098B4201D34B01C01A52410309B8
:100400008B4201D30B01C01A5241C3088B4201D366
:10041000CB00C01A524183088B4201D38B00C01A13
:100420005241D9D243088B4201D34B00C01A5241EA
:10043000411A00D20146634652415B10104601D377
:100440004042002B00D54942704763465B1000D301
:10045000404201B5002000F005F802BD0029F8D0A7
:1004600016E770477047C046002B11D1002A0FD104
:10047000002900D1002802D00021C943080007B498
:10048000024802A14018029003BDC046D9FFFFFFF9
:1004900003B4684601B5029800F034F8019B9E460B
:1004A00002B00CBC7047C046F0B5CE469946030C6E
:1004B0009C46130447461B0C1D000E0061460404B5
:1004C000240C80B50700100C4B4365434143604347
:1004D0002C0CC01824188C46A34203D980235B023D
:1004E0009846C444494679435643230C2D042D0CA9
:1004F0008919634424046019C918C0BCB946B046C0
:10050000F0BDC046F0B557464E464546DE46E0B51E
:1005100004000D009246994683B08B4230D82DD00E
:100520004946504600F038FE29000600200000F041
:1005300033FE331A9846203B34D49B4653465A46E2
:10054000934042461F00534693401E00AF423BD8A3
:10055000AF4200D179E05B46A41BBD41002B00DA1D
:1005600076E0002200230092019301235A46934033
:100570000193012342469340009329E08242CFD960
:1005800000220023009201930C9B002B01D01C60E1
:100590005D600098019903B0F0BCBB46B246A94625
:1005A000A046F0BD42469B4620239B1A5246DA40A5
:1005B000414613004A468A40170042461F435346AD
:1005C00093401E00AF42C3D9002200230092019342
:1005D0004346002BD8D0FB0772081A4346467B08D7
:1005E0000EE0AB4201D1A2420CD8A41A9D410120D9
:1005F00024196D410021013E24184D41002E06D0E2
:10060000AB42EED9013E24196D41002EF8D100987D
:1006100001995B4600196941002B24DB2B005A46E7
:100620004646D3402A001C00F2405B461500002BD2
:100630002ADB26009E40330026004746BE4032009B
:10064000801A9941009001919EE7A342BCD882E7AD
:100650004246202300219B1A002200910192012290
:10066000DA40019285E7424620239B1A2A0046463B
:100670009A402300F340464613432A001C00F240F0
:100680005B461500002BD4DA202342462F009B1B2B
:1006900097402600DE403B003343CDE7F0B54646A9
:1006A0004F46D6464502C0B5C30F470098460E1CBC
:1006B0006D0A3F0E5BD0FF2F21D08023ED00DB04BD
:1006C0001D43002399469A467F3F74027300640AD3
:1006D0001B0EF60F002B20D0FF2B43D080220020D2
:1006E000E400D20414437F3B4246FF1A4B4672405B
:1006F0000F2B00D99DE071499B00CB589F46002DE0
:100700005AD108239946063B74029A467300FF2784
:10071000640A1B0EF60F002BDED1002C3BD1012307
:1007200042464946724019430E2918D86448890048
:1007300041588F465346022B00D1B8E0032B6ED0B0
:1007400042462C00012B40D100200024C00520434C
:10075000D2071043E0BCBA46B146A846F0BDFF2020
:100760000024F3E7002C20D10223FF3FD8E7002D1F
:1007700005D104239946033B00279A46A5E72800A4
:1007800000F0ECFC7627431F9D4000237F429946F2
:100790009A463F1A99E7200000F0E0FC431F9C4076
:1007A00076235B421B1A00209EE703234A461A4326
:1007B00091460320FC3397E70C239946093BFF271A
:1007C0009A4682E703282CD0320038007F30002878
:1007D00047DD630704D00F232340042B00D00434EB
:1007E000230103D53800374B80301C40FE28B6DC8F
:1007F000A401640AC0B2A9E780240022FF20E40318
:10080000A4E78023DB031D4201D01C420BD08024CF
:10081000E4032C4364024246FF20640A96E74646FE
:100820002C008023DB031C4364023200FF20640A97
:100830008CE76D01600185422DD21B230024013F0E
:100840000126290064006D00002901DB854201D3E7
:100850002D1A3443013B002BF3D16B1E9D412C43D9
:10086000B3E701231B1A1B2B00DD6DE721009E3728
:10087000D940BC400B00611E8C412343590704D072
:100880000F211940042900D00433590113D49B01CE
:1008900000205C0A5AE71A2301242D1AD0E7981E7B
:1008A00043425841404232000024C0B24EE7424623
:1008B000FF2000244AE70120002447E7386B0108A5
:1008C000786B0108FFFFFFF7F0B54F464646D64666
:1008D0004502C0B546000F1C6D0A360EC40F002E2F
:1008E00000D1CDE0FF2E72D08023ED00DB041D434C
:1008F000002399469A467F3E7B025B0A98467B001E
:100900001B0EFF0F002B72D0FF2B00D1A9E07F3B05
:10091000F6184B460A2B00DD85E043468022DB00BB
:10092000D2041A434B4690467C400022022B0FDD36
:10093000494601238B40A621C9000B4200D072E03A
:10094000902189000B4200D0DAE08821194267D15A
:10095000280C42462D042D0C4346290012041B0C82
:10096000120C51435D4342435843AD180B0C5B19C5
:100970009A4203D9802252029446604409041A0420
:10098000090C52189501691E8D411B0C920E1B1803
:1009900015439B011D431B0100D5CFE030007F3084
:1009A000002800DCB1E06B070BD00F2332002B4096
:1009B000042B06D004352B0103D5803210006A4B7E
:1009C0001D40FE2864DCAB015B0AC0B21FE0002DB5
:1009D00000D08FE008239946063B9A467B025B0ACB
:1009E00098467B00FF261B0EFF0F002B8CD1434641
:1009F000002B5CD14A4601331A43914613000A2A60
:100A000011DC01227C40022B92DC00200023C00577
:100A10001843E4072043E0BCBA46B146A846F0BDFF
:100A20003C00454692465346022B31D0032B11D051
:100A3000012BEAD030008030721C002866DD6B0785
:100A4000B9D00F232B40042BB4D1B4E70F2A7AD0AE
:100A50003C0045468023DB032B435B02FF205B0AFF
:100A6000D5E74346FF36002B34D14A4602331343C1
:100A70000A2BD8DC7C40002A0AD09946022257E78C
:100A8000002D08D104239946033B00269A4633E7FC
:100A9000FF200023BBE7280000F060FB7626431F01
:100AA0009D400023764299469A46361A24E74046EE
:100AB00000F054FB4B46361A763E0A2BB3DC434615
:100AC0000538834098464B4600227C40022B00DDCF
:100AD0002EE73DE703234A461A4313000A2AB5DCF2
:100AE00001229A40882113007C400322194200D140
:100AF0002EE795E70C239946093BFF269A46FBE62D
:100B000080230024FF20DB0381E7320001231B1A2E
:100B10001B2B00DD79E79E3229009540D9406A1EE3
:100B200095410D436B0704D00F232B40042B00D0BD
:100B300004356B0113D50120002368E701236A08FF
:100B40001D40154376E78023DB031D4282D04246D9
:100B50001A4200D07EE73C00FF20134357E7AB0169
:100B600000205B0A53E7C046FFFFFFF7F8B5474692
:100B7000CE464B02460080B5C40F4702580A844651
:100B800048007A0A360EBF09000ECD0F9B09FF28D8
:100B90006DD001214D40311AAC423AD0002900DC21
:100BA0009CE1002800D19EE0FF2E00D188E0802249
:100BB000D20413431B2900DCF6E0013F7A0100D484
:100BC00079E001277F42BF01BB099846404600F00B
:100BD000C5FA434605388340864200DCCCE0B44F7A
:100BE000311A1F405A0768D00F221340042B64D0DB
:100BF00004377B0161D5481CFE2900D081E0FF202D
:100C00000023C0051843E4072043C0BCB946B046E2
:100C1000F8BD002900DC79E1002876D1002B4CD00A
:100C2000481E012900D147E1FF2949D01B2871DC6A
:100C300001001A002020CA40411A8B40591E8B41E6
:100C40001343FF188023DB041F4200D1B8E0711C5E
:100C5000FE2ED4D0012297483A407F080740174320
:100C60007A0700D096E01F42C5D1FA0855E031005E
:100C7000FF398946002B2CD101214D40AC4200D1D7
:100C8000B4E0494600294CD0002E00D0F9E0FF2105
:100C9000002F00D108E14A1E012900D156E1FF29A9
:100CA00000D142E11B2A00DC24E15F1E2C0006007B
:100CB0007A0100D585E731000437FA08FF292CD1E5
:100CC000002A9CD08023DB0313435B02FF205B0AD6
:100CD00097E7AC4200D1A7E0002922D0002ED6D061
:100CE00062462C00EEE7002BE7D0481E012936D0E3
:100CF000FF29E5D001005DE701203B007A0100D427
:100D000057E1C0B2BB015B0A7BE7FF2ED8D01B299D
:100D100000DC9FE031000537FA0853025B0AC8B2D5
:100D20006FE7FE20711C084254D1002E00D0B1E0C4
:100D3000002F00D102E1002B00D1F9E08021FA1A46
:100D4000C9040A4200D13BE10124DF1B2C40002FE3
:100D500049D001200F42D5D10021FA08DDE7FF1A62
:100D60007B0100D4DEE0BD01AD09280000F0F6F9FA
:100D70002B000538834001262022811B0131521AA5
:100D80001F009340CF405A1E93411F432BD0002198
:100D90007B07B1D00F233B40042B00D028E77B0119
:100DA00000D528E7FA08B8E71A002020CA40411AFF
:100DB0008B40591E8B411343FF1A7B0100D502E77C
:100DC0007B0700D10DE10F2331003B40042B00D005
:100DD0000EE772E7FA1A9046520156D44346002BAA
:100DE00000D0F3E60024002000230AE7494600294A
:100DF0001CD0002E00D002E7FF21002F55D04A1E44
:100E0000012959D0FF2900D190E01B2A00DD91E093
:100E100011003A002025CA40691A8F40791E8F417F
:100E200017430600FF180DE7002926D1FE20711C8C
:100E3000084213D1002E00D096E0002F00D1B4E07C
:100E4000002B75D0FB185A0100D4B2E09B015B0A5D
:100E5000FD38D6E68022D2041343EAE6FF2900D10A
:100E6000CDE6FA185208530705D00F23171D13407B
:100E7000042B00D021E7D2084FE7002EBCD06246F9
:100E800020E72C00FF200023BBE60124DB1B984653
:100E90002C409BE6002F75D1002B00D096E08023DC
:100EA0000024FF20DB03ACE62C001F0005E7C04652
:100EB000FFFFFFFBFFFFFF7DFB185A0100D48DE011
:100EC0004A4A5B081A40590700D18CE00F210B40B9
:100ED0000D39042BCFD00221171DEEE6002900D1D9
:100EE0001FE7821B1100002E00D1D1E68021C9042A
:100EF0000F43D7E639002024D140A21A97407A1E2A
:100F000097410F432C000600DF1B56E700298DD0C8
:100F1000811B002E00D170E71B290BDC8022D2043C
:100F2000174376E70121FA08F7E62C006246C7E688
:100F30000021F2E605330100DA08EEE6002B00D1CD
:100F400050E70124002162462C40E6E6DA1B5301FB
:100F500032D592019409200000F000F923000538F1
:100F600083402C00012607E7002FDFD0002B17D08D
:100F70008023DB039A4200D2A4E69C4500D3A1E67D
:100F800062469FE6002B0BD08023DB039A4200D2FF
:100F900098E69C4500D395E6012462462C4091E6F4
:100FA0008023DB03FF2013432BE60020002B00D11E
:100FB00027E60021DA08B0E62C000121D208ACE6D1
:100FC000002A00D10EE70021D208A6E6802362465F
:100FD0000124DB03FF2013432C4012E60121DA0831
:100FE0009BE6310069E60221D20896E6FFFFFF7D0D
:100FF00041024200C30F490A0020120E7E2A03DD7F
:101000009D2A02DD094A9818704780200004014398
:10101000952A07DC9620821AD1404842002BF3D152
:101020000800F1E7963A9140F7E7C046FFFFFF7FDF
:1010300070B5002812D0C317C5185D40C40F280032
:1010400000F08CF89E231B1A962B0FDC082838D052
:10105000083885406D026D0AD8B202E000240020F5
:101060000025C0052843E407204370BD992B14DCFC
:10107000421F95402A001549114055071CD00F25E5
:101080002A40042A18D00431CA08490115D59F23E3
:101090005202181A550AC0B2E3E7020029001B32B7
:1010A00091404A1E91410522121AD5402A000A4356
:1010B000064911405507E2D1CA085202550AD8B272
:1010C000CFE76D026D0A8E30CBE7C046FFFFFFFB16
:1010D00010B5041E0DD000F041F89E231B1A962B6C
:1010E0000CDC082834D0083884406402640AD8B282
:1010F00001E000200024C005204310BD992B13DC23
:10110000421F9440144A224061071CD00F21214005
:10111000042918D00432D408520115D59F23640243
:10112000181A640AC0B2E6E7020021001B3291409F
:101130000A00511E8A410521091ACC401443064A6F
:1011400022406107E2D1D4086402640AD8B2D2E72F
:101150006402640A8E30CEE7FFFFFFFB1C210123EF
:101160001B04984201D3000C10391B0A984201D38A
:10117000000A08391B09984201D30009043902A268
:10118000105C40187047C0460403020201010101CF
:10119000000000000000000010B5002903D1FFF797
:1011A000DDFF203002E00800FFF7D8FF10BDC04689
:1011B0001FB56B4649BA99816423E021009303AAC5
:1011C000623B11F005FF05B000BD000037B50022FD
:1011D000124C0090236869469A62802320005B01CC
:1011E000019311F079F8002802D00D4D28003EBD82
:1011F000200010F0BBFF0028F7D10A21200011F0D9
:1012000001F8002807D1200011F062F885B2200013
:1012100010F0D8FFEAE7024DF9E7C046BC0D002008
:10122000FFFF000010B5010000780822C043312400
:10123000C0B243B24000C0B2002B02DA5B00634090
:10124000D8B2013AD2B2002AF3D14B780822312128
:10125000584043B24000C0B2002B02DA5B004B4062
:10126000D8B2013AD2B2002AF3D110BDF0B587B09E
:101270000190029103920493002B1CD08023002440
:10128000244DDB032A68032013432B6010F070FD0C
:10129000082726002048FFF799FF05901F48FFF711
:1012A00095FF059B1E4A013B9BB2934206D92B68D2
:1012B0001C4A13402B60012007B0F0BD1A4B984226
:1012C000F5D0059B013FE4183618002FE2D1174BEB
:1012D00017481B88E40858432100FEF74FFFF60823
:1012E000070014497043FEF749FF049B4000186053
:1012F000039B002B00D01F60019B002B00D01C60C3
:10130000029B002B00D01E602B68064A0020134071
:101310002B60D1E7082701400000024402000004CE
:10132000FDFF0000FFFFBFFFFFFF00007800F81F78
:10133000B80B0000FF0F000030B50D0004008BB0AB
:10134000684606F04BFB2A002100684606F081FC47
:10135000684606F087FC0BB030BD000010B50449AC
:10136000FFF726FF0400012010F002FD200010BD51
:101370001735000010B50249FFF71AFF10BDC0462F
:1013800098B0000010B50449FFF712FF04000120D7
:1013900010F0EEFC200010BD5D800000F0B585B0BF
:1013A00005000F00FFF7DAFF041E19D128000F49CE
:1013B000FFF7FEFE041E13D1642303AE0093320038
:1013C000E0212800613B11F0A7FE041E08D1300087
:1013D000FFF728FFB378834205D133885BBA3B809F
:1013E000200005B0F0BD0124FAE7C046C8EF0000B8
:1013F000F0B587B005000F00FFF7B0FF041E46D11F
:1014000028002549FFF7D4FE041E40D10F2010F01C
:10141000AFFC642304AE00933200E02128005E3B61
:1014200011F07AFE041E32D13000FFF7FBFEB378D4
:1014300083422FD10B2302AA9B181800FFF7F2FE5C
:101440007379834226D102ABDA7A1B7B30881B0288
:1014500013435BBA40BA9BB280B20393FFF738FEE6
:101460000E49FFF71BF90E49FFF72EFA0D49FFF75A
:101470007DFB38600398FFF72BFE0849FFF70EF954
:101480000949FFF721FA78602800FFF773FF200071
:1014900007B0F0BD0124FAE76678000000FF7F473F
:1014A00000002F43000034420000C84273B56B4671
:1014B0009E1D002305003380FFF750FF041E16D148
:1014C0002800FFF75FFF041E11D1012010F050FC2F
:1014D00031002800FFF762FF041E08D13388064957
:1014E000064A0B40934204D12800FFF743FF200037
:1014F00076BD0124FBE7C0463F0800000708000056
:10150000030C434004485843044B420B42405343AE
:10151000180C58407047C0466BCAEB8535AEB2C256
:1015200070B52D4C8EB020220021200014F0F8F967
:1015300038220021684614F0F3F90C21274E284A7E
:10154000F36868460B40D35C01222377336D9B051B
:10155000DB0F6370234B1B681340A36012F014FD74
:1015600010F044FB099B636012F04EF9E06012F04A
:10157000E5FC206112F0E8FC606112F0F5FC237FCD
:10158000A061012B07D005203D22174901F0DAFFA9
:1015900005200EB070BD33689B0506D43E2212496B
:1015A000062001F0CFFF0620F3E76378012B02D07D
:1015B00040220D49F4E7079B012B02D041220A4942
:1015C000EEE7A02209991202914202D04222064976
:1015D000E6E700202370DCE7B000002000100240A6
:1015E000DAE3010800200240B46B010810B594B0A2
:1015F0003422002107A801AC14F092F90021142232
:10160000200014F08DF9102306930F3B0D93A023B7
:1016100006A81B020F9312F039F9011E07D05B22B6
:101620000A49062001F08EFF062014B010BD0F23DA
:101630006060A060E06020612000019312F0B0FBC8
:101640000028F2D062220149EBE7C046B46B0108E2
:10165000014B18787047C046B00000200048704722
:10166000B0000020121A8B411000191E03DA00236B
:10167000014A801859417047005C260510B510F0EA
:1016800071FB024B1B68C01810BDC046AC000020A7
:10169000F0B500260F008BB0039304AB01900292CB
:1016A00000211122D81D14F03BF9039B05AD2B70CE
:1016B000109B04AC6B70119B0198AB70029B267061
:1016C000A37067706421FEF7C9FE074BE170290023
:1016D0001D003200180012F0B1FE32002100280077
:1016E00012F014FF0BB0F0BD180E0020F0B504008E
:1016F00087B0002807D101209C221D4901F022FF5C
:10170000012007B0F0BD0822002101AD14F008F956
:1017100014220021280014F003F90022154F29009B
:101720003800009213F022F86E46031E06D0124ACB
:101730001249042005F0B2F91F20E2E702006946D1
:10174000380013F03BF8002803D003000C4A0B4983
:10175000EFE7FA22F378D2009B18238073782A8867
:10176000A370B378E370AB78A280A371C9E7C046D9
:10177000B46B0108180E0020CC6B0108D5B4010829
:10178000E46B010830B58FB024216A46002307AC12
:10179000521820001370FFF7A9FF051E17D1A17979
:1017A0002388049161790E4A0391217909A8029155
:1017B000E1780191A1780091142114F00BF8094906
:1017C000132807D00420084A05F068F91F352800BF
:1017D0000FB030BD054A09AB022005F05FF9F6E70E
:1017E000E4B40108D5B40108FC6B0108146C0108CD
:1017F000F0B51C4F87B001AE00223100380012F066
:10180000B5FF00226946380012F0D8FF0023164ABF
:1018100000213078FEF748FE002304000D00134A33
:1018200000217078FEF740FEFA2224184D41002373
:101830000021B0789200FEF737FE24184D41F96878
:1018400000290BD0FA20029B8000CB1A58430131AB
:10185000FEF794FC00230200A4185D41200029003B
:1018600007B0F0BD180E002080EE360060EA0000E0
:10187000F0B5184B18481E68184B87B01C68184BF9
:1018800070401F68FFF73CFE134B0500E018FFF7A0
:1018900037FE144B0090F818FFF732FE01900098C5
:1018A0006840FFF72DFE019B43401800FFF728FE1C
:1018B000050003903018FFF723FE0490E01940194B
:1018C000FFF71EFE0322059003A9074810F034FE1F
:1018D00007B0F0BD5000F81FB979379E5400F81FCB
:1018E0006400F81F72F36E3C980D0020002330B5A1
:1018F00004001800E25CDD00AA4001331043DAB2B4
:101900009142F7D830BDF7B5441801940F24130065
:10191000A446057864462F093E002C4037369F2D9B
:1019200000D8073E25001E703735092C01D8303409
:101930002500019C01305D700233A042E9D10023F3
:1019400049008B54F7BD000010B50C4C2378012BD7
:1019500011D00F220A4803681A629969073A0A43AC
:101960009A610849012213F037FEFD220A23104232
:1019700002D1093B23700023180010BD2001002074
:10198000E00B0020AC01002010B5114C50220021CA
:10199000200013F0C5FF0F4B0F4A1B68934206D07F
:1019A00003200E490E4A01F0CDFD032010BD002397
:1019B00001210C4A617013700B4A217013800B4A8D
:1019C00013800B4A13600B4A1370FFF7BDFFEDE75E
:1019D000D0000020E00B002000380140246C0108FA
:1019E000FC050000AC0100202A0100202801002095
:1019F000240100202001002010B5154B0A001C789E
:101A0000012C07D002201349134A01F09BFD022448
:101A1000200010BD002809D1002901D10024F7E7DA
:101A200020000C490D4A01F08DFDF1E70029F5D0A9
:101A30000B4C01006423200013F0F0FB0028EDD0D4
:101A400009200449074A01F07DFD0924E0E7C0466A
:101A5000D0000020246C01082E0600002F06000094
:101A6000E00B00203606000010B5041E07D1C82286
:101A700001200649D20001F065FD012010BDFEF7EE
:101A80004DFB81B22000FFF7B7FFF7E7246C010898
:101A900010B5FFF7E9FF002802D10248FFF7E4FF85
:101AA00010BDC046C0B8010810B5B6B004AC2000E7
:101AB00006F0C8FC031E09D0C0210C4A06A813F08A
:101AC00089FE06A8FFF7E4FF36B010BD4821237851
:101AD0000391A188064A0291A17806A80191617834
:101AE0000091C02113F076FEEBE7C0463C6C010884
:101AF000596C0108F0B5C3B00AAF380006F0A2FC7B
:101B0000051E0CD00300C021374A12A813F062FE54
:101B100012A8FFF7BDFF0500280043B0F0BDBB7859
:101B20000600002B43D13148F3E7637AC0210893C4
:101B3000237A2F4A0793E37912A80693A379059392
:101B40006379049323790393E3780293A378019351
:101B500023880093330013F03DFE12A8FFF798FF8F
:101B6000002802D09122234939E0A17D6289A3890E
:101B70000591617D1B040491217D13430391E17C58
:101B80001D4A0291A17C0191218AE0890904014347
:101B9000009112A8C02113F01DFE12A8FFF778FFD4
:101BA000002802D09E22134919E00136F6B2BB7814
:101BB000B342B1D90CAC2100300006F0DFFA0028A6
:101BC000B3D000903300C0210C4A12A813F002FEDB
:101BD00012A8FFF75DFF0028E7D07F220549092002
:101BE00001F0B0FC092597E78B6C0108A86C01088F
:101BF000D76C0108246C0108186D0108B96C010844
:101C0000F0B50024B5B002900191019B9C4201D334
:101C100000202FE02300C0211B4A04A813F0DAFDA6
:101C200000250600029B1F19019B1B1B9BB20393FF
:101C3000039B9D4201D0102D0BD104A8FFF728FF74
:101C400000281DD00920BE22104901F07BFC09208C
:101C500010E0C02104A83B780D4A891B801913F0BD
:101C6000B9FD0137002807DA1E20BA22074901F022
:101C700069FC1E2035B0F0BD01353618ADB2D7E78E
:101C80001034A4B2C1E7C0466A6D0108246C010893
:101C90000C980108F0B5CA4C0600A5440CAC200015
:101CA00006F0D0FBC74A031E1BD1A378C648002B01
:101CB0001CD010A805F092FE022802D110A805F051
:101CC000BFFE10A80EAD2AAC05F0F6FE2B00802258
:101CD000210010A8012E0FD105F070FE031E0ED0BA
:101CE000BA4AC0214AA813F075FD4AA8FFF7D0FEF2
:101CF000AB239B009D44F0BD05F00DFDEEE7697937
:101D00002B8803912979B24A0291E9784AA8019176
:101D1000A9780091C02113F05DFD4AA8FFF7B8FE35
:101D2000002806D0AB49AC4A092001F00BFC092081
:101D3000DEE720002988FFF763FF002802D0A549CD
:101D4000A64AF1E72D883D2D0ED82B00A44AC021CC
:101D50007AA813F03FFD7AA8FFF79AFE002800D07A
:101D6000CEE1FFF7A1FEC3E72378022219009143D9
:101D7000A12901D09B4AEAE7A178702902D00B0083
:101D8000994AE4E701910093C0212B00974A7AA871
:101D900013F020FD7AA8FFF77BFE002804D0C622AE
:101DA0008C4952000920A9E129002000FFF728FFF3
:101DB000002803D08E228749FF32F3E723788C492D
:101DC000A32B00D18B4901910093C02100238A4AA3
:101DD0007AA813F0FFFC7AA8FFF75AFE002802D079
:101DE00098227C49E8E76378C0210093834A012365
:101DF0007AA813F0EFFC7AA8FFF74AFE002802D079
:101E0000CF227449CDE7A378C02100937C4A0223F6
:101E10007AA813F0DFFC7AA8FFF73AFE002802D078
:101E2000A6226C49C8E7932006AB1AAEC018320050
:101E30000821FFF768FD0323C021724A00967AA8A3
:101E400013F0C8FC7AA8FFF723FE002802D0D7229F
:101E50006049A6E79B2006ABC01832000821FFF7B7
:101E600052FD0B23C021684A00967AA813F0B2FCF9
:101E70007AA8FFF70DFE002802D0DB22554990E733
:101E8000E37CC0210093614A13237AA813F0A2FCDB
:101E90007AA8FFF7FDFD002802D0DF224D4980E738
:101EA000237DC02100935A4A14237AA813F092FC90
:101EB0007AA8FFF7EDFD002802D0C62245497BE74E
:101EC000A52006AB0221C018FFF710FD15230090D6
:101ED000C021504A7AA813F07DFC7AA8FFF7D8FDFC
:101EE000002802D0CE223B4966E7A72006AB02219C
:101EF000C018FFF7FBFC17230090C021464A7AA8C0
:101F000013F068FC7AA8FFF7C3FD002802D0D622A0
:101F1000304951E7A92006AB0221C018FFF7E6FCC3
:101F200019230090C0213D4A7AA813F053FC7AA8E7
:101F3000FFF7AEFD002802D0DE2226493CE7AB20A9
:101F400006AB0221C018FFF7D1FC1B230090C02173
:101F5000334A7AA813F03EFC7AA8FFF799FD0028CF
:101F600002D0E6221B4927E7AD2006ABC01832009D
:101F70000521FFF7C8FC1D23C0212A4A00967AA834
:101F800013F028FC7AA8FFF783FD002802D0F7227F
:101F9000104906E72BABDB7F06A9019393235B185F
:101FA000DB7FC0210093204A22237AA813F012FC81
:101FB0007AA8FFF76DFD002838D0F8220549FBE626
:101FC00054FDFFFFA06D0108BD6D0108C96D01083A
:101FD000E16D0108246C01080E0300000F030000EE
:101FE0001E6E0108356E01084E6E0108646E010810
:101FF000766D0108716D01088F6E0108B36E0108DE
:10200000D46E0108056F0108206F01083B6F0108BD
:102010005B6F0108766F0108926F0108B36F0108CA
:10202000D46F0108F46F01080F70010895233F2455
:1020300006AA9B18DB7F0A211C402000DB090293C3
:10204000FEF722F9C9B2019120000A21FEF796F8A5
:10205000D14FC0B2009024233A00C0217AA813F0D7
:10206000B9FB7AA8FFF714FD002802D0CB49CC4A6F
:1020700098E6B52006ABC01832000421FFF743FCF8
:102080002523C021C74A00967AA813F0A3FB7AA89B
:10209000FFF7FEFC002802D0C049C34A82E6B923FC
:1020A00006A95B181B78C0210093C04A29237AA88F
:1020B00013F090FB7AA8FFF7EBFC002802D0B74999
:1020C000BB4A6FE6BA230F2406AA9B181B78B949AE
:1020D0001C401B09013BDBB20B2B02D8B64A9B000C
:1020E000995800912A23C021B44A01947AA813F088
:1020F00071FB002807DA1E20A849B14A01F022FA34
:10210000A649B04A10E67AA8FFF7C2FC002802D020
:10211000A249AD4A46E6BB23012006AA9B181B78BC
:10212000AA4A99080140049159090140039199096B
:1021300001400291D90901910093C0212B237AA873
:1021400013F048FB7AA8FFF7A3FC002802D09349BC
:102150009F4A27E6BD2306A95B181B78C02101937F
:1021600035AB1B789B4A00937AA82C2313F032FBE3
:102170007AA8FFF78DFC002803D08F2287499200B0
:1021800010E6BE2306AA9B18BF221B78079306AB56
:10219000D218117836AA12789446C122D218107833
:1021A000C222D2181678C322D21817780A00079BC9
:1021B0001A4063461A40FF2A10D100902E23C021F6
:1021C000854A029701967AA813F004FB7AA8FFF7D4
:1021D0005FFC002810D096227049D0E70293079B3D
:1021E000039001910093C0212E237C4A0597049609
:1021F0007AA813F0EFFAE9E737AB1B78C021009318
:10220000774A34237AA813F0E5FA7AA8FFF740FC5E
:10221000002802D06149734AC4E5C52306AA9B1869
:102220001B78C021099300936F4A35237AA813F0D5
:10223000D1FA7AA8FFF72CFC002802D057496B4A44
:10224000B0E5C62306AA9B181B780A930A9A684B26
:10225000FF2A00D1674B01930A9BC0210093664A75
:1022600036237AA813F0B6FA7AA8FFF711FC0028F3
:1022700002D04A49614A95E5C72006ABC01804213F
:10228000FFF734FB0300079001330DD13723C02142
:102290005B4A7AA813F09EFA7AA8FFF7F9FB071EAB
:1022A0004AD03E49574A7DE5079BC0210093564AD4
:1022B000372301947AA813F08DFAEDE7B21C0B9244
:1022C000934202D22300514A41E52AA802218019F3
:1022D000FFF70CFB4E4B82B29A420FD13300C02164
:1022E0004C4A00947AA813F075FA7AA8FFF7D0FB4D
:1022F000013400284ED0AC22284940E70A9AE3B2C4
:1023000080B293420FD3089B01330CD0089B0190FD
:102310001B1A08930293C02133003F4A00947AA805
:1023200013F058FAE1E701903300C0213B4A0094D2
:102330007AA813F04FFAD8E73B260400079B0893CE
:102340000999E2B26B1E0B928A42B7D302222AA8E5
:10235000115C01327F18FFB29342F9D8A422920097
:1023600006A99A1852182E49521814782D49A742D6
:1023700000D12D4902912D4AC021019700947AA8DD
:1023800013F028FA7AA8FFF783FB002852D00349FC
:10239000274A07E50B9ED3E72E700108246C01083D
:1023A00005020000567001080F020000717001085C
:1023B000160200007B6D0108E8E301089070010837
:1023C000220200001203000023020000B77001087F
:1023D00031020000F5700108177101084971010808
:1023E00081710108620200009D7101086A0200000B
:1023F000C2B80108836D0108B871010873020000BA
:10240000D571010887020000027201082B720108D1
:10241000FFFF00004772010874720108A0720108F2
:1024200000FEFFFF976D01089AA30108BE72010824
:10243000C3020000074BA74200D1074B0293079B42
:10244000C0210193099B054A00937AA82B0013F041
:10245000C1F980E41A9401089AA30108EE720108F8
:1024600010B504210148FFF7C7FA10BD1BE40108AD
:10247000F0B5BF4BCFB01B780E93012B06D0BD49F2
:10248000BD4A022001F05EF8022005E0FFF75CFA89
:1024900003000A20002B08D04FB0F0BD0021B44A41
:1024A0000B00907801281DD19170B449B4480A8876
:1024B000008893B2824201D100F08CFEB14AD25C16
:1024C00001339BB2D2B27F2B00D9002333200B8083
:1024D00008ABC01802700A2AE0D00D2A01D000F023
:1024E00034FE0E9B0022A24CA370A388E3181A743A
:1024F0006378012B04D1A448FFF7B6FA0028CBD1AA
:10250000237C002B00D1A1E10DF0F2F80600FFF7CB
:10251000A5F8050001F01EF80F9002F059F804002C
:1025200006F00EFC994B0700994918000D93FDF732
:10253000EBFD002800D0AEE09648FFF7A9FA00288E
:1025400000D0A6E09448FFF7A3FA002800D0A0E04E
:102550009248FFF79DFA002800D09AE09048FFF7D4
:1025600097FA002800D094E08E48FFF791FA0028EF
:1025700000D08EE08C48FFF78BFA002800D088E06E
:102580008A48FFF785FA002800D082E08848FFF7E4
:102590007FFA00287DD18748FFF77AFA002878D1A2
:1025A0008548FFF775FA002873D18448FFF770FA61
:1025B00000286ED18248FFF76BFA002869D1814864
:1025C000FFF766FA002864D17F48FFF761FA002818
:1025D0005FD17E48FFF75CFA00285AD17C48FFF7AC
:1025E00057FA002855D17B48FFF752FA002850D1FE
:1025F0007948FFF74DFA00284BD17848FFF748FAA1
:10260000002846D17648FFF743FA002841D17548A3
:10261000FFF73EFA00283CD17348FFF739FA00284B
:1026200037D17248FFF734FA002832D17048FFF7EB
:102630002FFA00282DD16F48FFF72AFA002828D159
:102640006D48FFF725FA002823D16C48FFF720FAE0
:1026500000281ED16A48FFF71BFA002819D16948E3
:10266000FFF716FA002814D16748FFF711FA00287F
:102670000FD16648FFF70CFA00280AD16448FFF72B
:1026800007FA002805D16348FFF702FA002800D1B5
:10269000DCE0092000E760490D98FDF735FD0028D2
:1026A00011D10DF029F8C02100905C4B5C4A1EA8A6
:1026B00013F090F8002856DA2E495A4A1E2000F0EE
:1026C00041FF1E20E8E658490D98FDF71DFD002842
:1026D0002ED1737A0D9333690F9373691093636AE4
:1026E000119303F01DFB129006F024FB04000BF085
:1026F0001BFEB3790500F76913930BF027FE139BBC
:1027000008900693129BC0210393119B474A0293A2
:10271000109B079701930F9B0595009304940D9BC5
:102720001EA813F057F800281DDA1249404AC5E7E1
:1027300040490D98FDF7E8FC002800D07EE0A9682C
:102740002B7F069169783C4A059169681EA804911F
:10275000A96903916969029129690191E968009168
:10276000C02113F037F81EA8FFF792F996E2C04691
:10277000D0000020246C010815060000280100206C
:102780002A0100202C010020C0B80108E000002030
:102790003C730108417301086E7301089F730108BF
:1027A000CE730108017401083374010865740108CF
:1027B0009B740108CB740108F8740108387501088E
:1027C0006D750108AA750108DB750108107601080E
:1027D000487601087A760108AC760108EB760108A4
:1027E0001D7701085477010887770108C077010831
:1027F000F5770108317801087A780108C578010871
:10280000FB7801084179010873790108AA79010868
:10281000E07901080F7A0108779001083F7A0108F2
:10282000E9CD01083B040000F1740108577A010862
:102830004E040000AA7A0108B07A0108D8490D9820
:10284000FDF762FC00280ED1FEF79CFFD54B9A687D
:1028500001329A6000229A801A74FFF701FE002864
:1028600000D122E618E6D0490D98FDF74DFC00286E
:1028700012D10F990F9B89681B7801910F99CB4A50
:1028800049681EA80091C02112F0A4FF002800DBB7
:1028900069E7C749C74A11E7C7490D98FDF734FCF6
:1028A000002805D0C5490D98FDF72EFC002861D100
:1028B00001F08EFE04000FF055FA0D9003F030FA8F
:1028C000050003F037FA676A0600A46A06F032FAD8
:1028D0002B000390C021BA4A0294019700961EA8CB
:1028E00012F078FF002802DAB149B64AE6E61EA8DF
:1028F000FFF7CEF8051E10D0AD49B34A092000F00D
:1029000021FEC6E61EA8FFF7C3F8002802D0A8499A
:10291000AE4AF3E701350C2D98D0E8B201F05CFE29
:10292000041EF7D04669002E01D00D9B9E1BA768A0
:10293000002F00D1A64F23690F93E3681093A0786E
:1029400001F054FE237F069607932379C021059357
:10295000E378A04A0493109B039002930F9B009787
:1029600001931EA82B0012F035FF0028CADA904907
:10297000994AA3E699490D98FDF7C6FB002806D0B1
:10298000974D98492800FDF7BFFB00281BD103F0A5
:10299000C7F9050003F0CEF9A369C0210593636967
:1029A000914A049323690393E3680293A368009018
:1029B00001931EA82B0012F00DFF002800DBD2E6C9
:1029C0007B498A4A7AE628008949FDF79DFB002861
:1029D00005D028008749FDF797FB002810D17969B9
:1029E000FB7804913969844A0391F9681EA8029121
:1029F000B968019179680091C02112F0EBFEB2E64E
:102A000028007E49FDF780FB00282FD10BF08CFCBD
:102A1000636A0D900F93B379F7691093337A346C2E
:102A20001193336AB5691293B36A13930BF08EFC5A
:102A3000F36CC0210A93336D714A0993139B08907C
:102A40000593129B07950393119B06940293109B89
:102A5000049701930F9B1EA800930D9B12F0BAFEE2
:102A6000002800DB7FE65249664A27E628006649CF
:102A7000FDF74AFB00281FD100F036FD040000F0EE
:102A800039FD050000F034FD060000F03FFD230095
:102A9000211E01D0A368E1680391029301902B00ED
:102AA000C0215A4A00961EA812F094FE002800DBAE
:102AB00059E63F49564A01E628005649FDF724FBEE
:102AC000002856D1159016901790189017AB18AA99
:102AD00016A915A8FEF7CAFB4F4C002814D1179B66
:102AE00021000293189B4D4A0193169B02300093DC
:102AF0001EAD159B03F0D2FF29004948FEF778FC74
:102B0000002808D0474A00E0474A2100042003F08B
:102B1000C5FF1F20C0E41E9E301CFEF769FA6F68D7
:102B20000D90381CFEF764FA0500FEF781FA011CCF
:102B3000381CFEF71BF83D49FDF7C6FEFEF758FAB4
:102B400002900D980195FEF773FA011C301CFEF7F8
:102B50000DF83649FDF7B8FEFEF74AFAC317C0185C
:102B60005840009021000D9B314A022003F096FF4F
:102B70006CE6304E28003100FDF7C6FA002878D107
:102B800001300CF059FD0CF013FE09F0E7F90028B4
:102B900054D00749284A1F2000F0D4FCB9E7C046AA
:102BA000FB950108D00000204E7D0108F67A01084F
:102BB000246C010871040000167B0108217B0108C8
:102BC000267B01089A0300009B030000B603000067
:102BD000D5E30108507B0108B50300009A7B01088A
:102BE000E00000209E7B0108A37B01088604000012
:102BF00055810108F17B0108F77B01083E7301084C
:102C0000347C0108AA04000068750108A87C01084A
:102C1000BB040000D87C0108117D0108DC7C0108A0
:102C2000F00C0020437D0108157D01080000C8421A
:102C3000247D0108547D0108FA0400000CF0B8FD61
:102C400009F0CEF9041E02D0BA49BB4AA3E70CF042
:102C5000AFFD012009F046FB012009F08BFB0CF0D1
:102C6000A7FD09F023FC0CF0A3FD20000CF0E4FC10
:102C7000ECE52800B149FDF747FA002806D1FEF738
:102C800013FF002815D0AB49AD4A37E62800AD49FF
:102C9000FDF73AFA002806D1FEF706FF002801D01A
:102CA000FFF7FAFBD2E52800A749FDF72DFA002827
:102CB00002D1FEF71FFFF1E72800A449FDF724FA2F
:102CC000002802D1FEF7E6FFE8E72800A049FDF75B
:102CD0001BFA002801D10130F4E728009D49FDF7D7
:102CE00013FA00280BD101F06BFC9B4A031E9B4892
:102CF00000D139E5C0211EA812F06CFD33E5280093
:102D00009749FDF701FA00281FD100F0ABFB954A67
:102D1000031EEFD101F054FC041E04D000F0BEFBF2
:102D20002300914AE6E700F0E9FB040000F0EAFB2B
:102D300023000090C0218D4A1EA812F04BFD0028F0
:102D400000DB10E57B498A4AB8E428008949FDF791
:102D5000DBF9002806D028008749FDF7D5F90028BF
:102D600000D085E00AF002FC041E03D1D52271498F
:102D7000FFF787FB03788148012B00D0F4E46278E9
:102D800023696069A569E6687D49012A03D07D4908
:102D9000022A00D07C49277A7C4A0697E778059773
:102DA000A77803910090C0210497029601951EA870
:102DB00012F010FD1EA8FEF76BFE002802D0E822DC
:102DC0005C499BE5A17A23790491E179704A0391EA
:102DD000A1791EA80291617A019161790091C021C7
:102DE00012F0F8FC1EA8FEF753FE002802D0F422D1
:102DF000504983E5637A002B11D06648FEF748FE00
:102E0000002802D0F8224B4978E52000617A1C3076
:102E1000FEF7F6FE00280AD0F92246496EE55E4824
:102E2000FEF736FE002802D0FF22424966E5A37A6B
:102E3000002B14D05948FEF72BFE002803D0822225
:102E40003C4952005AE52000A17A5C30FEF7D8FEDA
:102E5000002800D1FAE406223649FF324EE55048F8
:102E6000FEF716FE002800D1F0E40C223149F4E709
:102E70004C4F28003900FDF747F9002806D00422FE
:102E80002800494912F077FD002816D1474B4848E1
:102E9000DB7C002B00D147481EACC022210002F091
:102EA0005BFF031E07D02278002A04D1C021200036
:102EB000414A12F08FFC200056E428003F49FDF7FC
:102EC00023F9002816D102F02BFF050005F032FF90
:102ED000E378C0210293A378394A019300902B0034
:102EE0001EA812F077FC002800DB3CE41149354AAB
:102EF000FFF7E4FB09222800334912F03CFD2B4C7C
:102F0000002807D008222800304912F034FD00289C
:102F100000D0FFE0E37C2E490E9C662B01D00024FC
:102F20002C49280018AA12F089FC012856D02A48FA
:102F30001AE4C046246C0108FC0400005A7D010814
:102F40000C050000607D01086B7D0108767D01089D
:102F5000817D01088B7D0108D57D0108957D0108E3
:102F6000A67D0108AE7D0108CD7D0108F17D010837
:102F70004A050000177E0108207E01082C7E01080A
:102F8000F9DB010812E301081C7301083A7E01080D
:102F9000887E0108C07E0108D47E0108EE7E01080B
:102FA000037F01081E7F0108227F0108D000002056
:102FB000E4000020C2B80108277F01089B7B0108BC
:102FC000457F01086B050000667F0108707F0108DE
:102FD0002E73010821730108797F01087F4918A821
:102FE000FDF792F800285CD07D4918A8FDF78CF811
:102FF000002863D07B4918A8FDF786F800285DD02B
:10300000794918A8FDF780F8002859D0774918A801
:10301000FDF77AF8002853D0754918A8FDF774F821
:1030200000284FD0734918A8FDF76EF8002849D042
:10303000714918A8FDF768F8002845D06F4918A80D
:10304000FDF762F800283FD06D4918A8FDF75CF83D
:1030500000283BD0390018A8FDF756F8002837D0D3
:10306000310018A8FDF750F8002833D0654918A89A
:10307000FDF74AF800282FD0634918A8FDF744F857
:1030800000282BD0614918A8FDF73EF8002827D06A
:103090005F4918A8FDF738F8002821D05D48FFF7F0
:1030A00063FB0E9D002228001100012C1AD101F0B3
:1030B00011FA594C031E1AD0584A1BE60225F1E7B3
:1030C0000325EFE70825EDE70525EBE70A25E9E706
:1030D0000E25E7E71525E5E71925E3E71C25E1E7D8
:1030E0002825DFE701F0FDF94D4C031EE4D128004F
:1030F00001F07CFA23000090C0214A4A1EA812F079
:1031000069FB002801DBFFF72EFBB2224649D20003
:10311000FFF7D4FA28004549FCF7F6FF002804D150
:10312000012343486370FFF71FFB28004149FCF768
:10313000EBFF002803D160703F48FFF715FBE36801
:103140003E480133E360FFF70FFB082A01D07F2AD6
:1031500016D13B4A9388002B01D1FFF7A6F9002135
:10316000013B9BB29380D31819745378012B01D083
:10317000FFF79BF933480331FEF73EFCFFF76FFB87
:103180001300203B5E2B01D9FFF78FF92C498B8868
:103190003E2B11D900232C488B800B74FEF778FC52
:1031A000002801D1FFF759FB0D201F49274A00F0E5
:1031B000C9F90D20FFF770F9CC18227400220133F1
:1031C0009BB28B80CB181A744978012901D0FFF784
:1031D0006CF9D1E70020FFF75FF9C046907D010848
:1031E000CC7F0108D17F0108D67F0108DC7F010870
:1031F000E07F01089BBE0108E67F0108E97F010826
:10320000F67F0108FC7F0108C09501084D80010888
:103210000380010808800108A4790108538001088F
:103220006B8101086E800108246C01088980010807
:10323000918001089E800108A7800108B5800108DF
:10324000D000002018E40108D2800108E705000042
:10325000030070B5002820D0124883421DD11249C6
:10326000124C0A782388D2B29DB201339BB27F2BD5
:1032700000D900230E4E36889E420FD10D4A1368A6
:103280000133136000230C4C0122237012F0A4F9C7
:10329000FD23184201D1FC3B237070BD074E7255CF
:1032A0002380EFE7E00B0020AC0100202A01002082
:1032B0002801002024010020200100202C010020F2
:1032C00010B5002815D00B4B984212D10F2203687D
:1032D000094C1A629969073A0A439A61002301224C
:1032E0000649237012F078F9FD23184201D1FC3B06
:1032F000237010BDE00B002020010020AC01002055
:1033000000487047D0000020012370B5050001215E
:103310003C355B420278534008221C005E080C409A
:103320000B4200D0054C3300013A6340002AF4D12F
:103330000130A842EED1D84370BDC0462083B8ED1D
:1033400070B5010094B0002808D14B220120224919
:1033500000F0F8F80125280014B070BD04AE40223A
:10336000300012F077FB3000FFF7CEFFF0630FF074
:10337000D3F9041E05D0502217491F2000F0E2F8AF
:1033800010E0164B164A69469A61164B019002935B
:103390000123009001A803930FF0B6FA002803D090
:1033A0000FF0ECF91F25D6E70E4B02203259E11839
:1033B0000FF02CFA0028F3D10434402CF4D10FF094
:1033C000DDF9051E02D06A220349D6E7220031004A
:1033D000054812F03FFBBEE71D81010800200240B6
:1033E000020F000000E00108B001002070B5174C8A
:1033F00040222000164912F02DFB164D2368AB42E7
:1034000004D1802362685B029A4213D034220021E7
:10341000114812F085FA80235B02636001232000CB
:103420002560A360FFF770FFE06301220B4B0020D3
:103430001A7070BDA368013B012BE7D82000E66B32
:10344000FFF762FF8642E1D1EFE7C046B0010020FE
:1034500000E0010854425544BC010020AD010020A9
:103460007047000000B50B4B91B01B78012B01D0C9
:10347000FFF7BCFF40220849684612F0EBFA02232E
:1034800068460393013B04930593FFF759FF11B07E
:1034900000BDC046AD010020B001002000B50A4BC0
:1034A00091B01B78012B01D0FFF7A0FF4022074904
:1034B000684612F0CFFA00236846039304930593FD
:1034C000FFF73EFF11B000BDAD010020B0010020AC
:1034D00010B5044B1B78012B01D0FFF787FF0020AC
:1034E00010BDC046AD01002000487047B00100206B
:1034F0000120704700487047388101080048704734
:103500003E8101080048704700000108044B05484F
:103510005B69042B02D8044A9B0098587047C04648
:10352000B00100204481010820E401080022034B7F
:1035300003491A7059609A607047C0460000002025
:1035400070810108024B187059609A607047C0463C
:1035500000000020004870470000002072B6C046FE
:10356000FDE70000014B18707047C0460C000020BA
:1035700070B5041E28D085781F2306880B2D1DD812
:103580000122A521AA400901013B0A4216D10133BB
:10359000022D13D1033BB20710D164213000FCF798
:1035A00073FE89B21D23002908D191313000FF310B
:1035B000FCF76AFE8BB25A4253411C33E278013267
:1035C000D2B29A4201D8E27070BD0123ED18EDB27B
:1035D000E3700C2D01D8A570F6E70136A3702680A4
:1035E000F2E7000010B510220021024812F098F90D
:1035F00010BDC046E802002010B5041E05D10949DF
:10360000094AFFF79FFF200010BD0279074B41795F
:103610005343074A4A439B188279FA20800050435B
:103620001818F1E7758101081A04000080EE3600D1
:1036300060EA0000F8B507000D00141E07D18A22C9
:103640001C49D2000120FFF77DFF0120F8BD1A4B75
:10365000994202D91749194AF4E700261849D67148
:10366000FCF78CFD642120803800FCF787FD642185
:10367000FCF70AFE3800A1706421FCF705FE280063
:10368000E1701049FCF77AFD0E4920712800FCF723
:10369000FBFD08000C49FCF771FD0B496071280027
:1036A000FCF7F2FD0800FA218900FCF767FDA07124
:1036B0003000CBE775810108FF5B2605510400004F
:1036C0001027000080EE360060EA0000F0B589B0F7
:1036D00006000D0017000193282819D802AC182203
:1036E0000021200012F01CF90123A6702370E57060
:1036F0000EF038FB019B6060A7602000E360012DA5
:1037000003D105F029FA09B0F0BD05F05FFAFAE738
:1037100001200349034AFFF715FF0120F3E7C046E4
:10372000758101084603000070B50F260824114D6D
:1037300001002B6828001E629A6922439A61962331
:103740001522DB0011F0D0FD032809D1280011F06B
:1037500085F80C202B681E629A6914439C6170BD29
:103760000028FCD00A20A5220349FFF7EBFE0A201F
:10377000F5E7C046580B00207581010870B5124D61
:10378000124B2A689A4206D0032079221049FFF78B
:10379000D9FE032070BD0F26082402F06BFE28001E
:1037A00011F0C4F82B6814201E629A6922439A61B2
:1037B0000EF0DEFA2B6864201E629A6914439C6145
:1037C0000EF0D6FA0020E5E7580B00200044004038
:1037D00075810108F0B585B00C001F1E019202D062
:1037E0000A9B002B09D192221449D2000120FFF735
:1037F000A9FE0125280005B0F0BD02AE3200FFF79A
:1038000019FF019B0500E418002807D00B490C4A5A
:10381000ECE70C4B3000E418FFF7AAFE0A4B9C4281
:10382000F7D83288094BB178534364224A439B1836
:10383000F2789B183B600A9B1C60DBE775810108EE
:103840009304000000A4D9FAFF5B260510270000AE
:10385000F7B51E00089B05000F001000002B02D0DA
:10386000099B002B07D19E220F49D2000120FFF7B0
:1038700069FE0120FEBD03F0CBFE012802D00A49FB
:103880000A4AF3E7099B3200009339002800089B9D
:10389000FFF7A0FF002802D00349054AE6E70A9B8C
:1038A000002BE7D01860E5E775810108F1040000FE
:1038B00001050000F0B5040085B00800002C08D117
:1038C0008D221C49D2000120FFF73CFE012005B0EB
:1038D000F0BD03F09DFE012802D01649164AF2E71A
:1038E00002AD08222100280012F0B4F8E37820008D
:1038F000A67827880193FFF77FFE1049FCF73EFC6E
:10390000431C0E4858430E4B984207D92800FFF736
:103910002FFE0020EB782F88AE7801936421094BAD
:1039200071437B435B180199074A5B1890605360B1
:103930000020CCE7758101086904000060EA0000FE
:10394000FF5B26051027000038030020F0B5394B37
:1039500093B0DB68DB060FD4374CE378002B04D040
:103960000320364A364903F099F8002302252380C4
:10397000E370280013B0F0BD06A8FDF7B7FE051EE2
:1039800005D03049304A2800FFF7DCFDF1E708A8F0
:1039900004F024F8FD230500184216D102AAE03BEA
:1039A0009B18D87F022603F03FFE234CFF36238866
:1039B0000100B3420CD006A8A170FFF77BFF051EE3
:1039C0000ED001201F49214ADEE71E49204ADAE7CE
:1039D000A3788342EFD1E378012BECD10025C8E72F
:1039E0000123A768E370A37826803800194905935E
:1039F000FCF74AFC0800FA218900FCF7BFFB1649D6
:103A000003903800FCF740FC08001249FCF7B6FBB5
:103A1000114902903800FCF7B1FB019063680F4E2A
:103A2000074D009332002900059B022003F036F871
:103A3000D4E7C04600280040380300208B810108ED
:103A4000BDD2010875810108290500003B05000071
:103A50002C05000060EA000080EE3600C7810108F6
:103A6000F0B591B0041E0B910C920D9306D101207C
:103A70004449454AFFF766FD01270CE000230B9AF5
:103A80000EAE30001370FDF731FE071E06D03D4923
:103A90003E4AFFF757FD380011B0F0BD33883C4D6A
:103AA000B2785D4364235343ED18F3783000ED188A
:103AB000FFF7A2FDA368AB4261D802D1E26882425F
:103AC0005DD82269934203D16269E3689A42E2D0E9
:103AD00001250B9B1D702300A068E1681C33A278B0
:103AE000206161610293103B0193043B00930D9BA5
:103AF000FFF7AEFE002803D028002249254AB9E787
:103B0000E668A3783000244965690893FCF7BCFB9C
:103B10000800FA218900FCF731FB204907903000AA
:103B2000FCF7B2FB08001C49FCF728FB1B49069078
:103B30003000FCF723FB0590A36828001649049386
:103B4000FCF7A2FB0800FA218900FCF717FB1349D8
:103B500003902800FCF798FB08000F49FCF70EFBC8
:103B60000E4902902800FCF709FB019023690C4ADA
:103B700000930C490C9B022002F090FF8BE71C275E
:103B800089E7C046758101080507000009070000A4
:103B9000102700002607000060EA000080EE3600D3
:103BA00007820108BDD20108F0B591B004000F00F2
:103BB0000C920D9300280AD1D3224449D20001204F
:103BC000FFF7C0FC01230B930B9811B0F0BD00234D
:103BD0000EAE30000B70FDF789FD0B90002804D06D
:103BE0003A493B4AFFF7AEFCEEE73388394DB278ED
:103BF0005D4364235343ED18F3783000ED18FFF76D
:103C0000FBFCA368AB42DFD802D1E2688242DBD87A
:103C10002269934203D16269E3689A42D4D00125B4
:103C200023003D70A068E1681C33A27820616161C7
:103C30000293103B0193043B00930D9BFFF708FE9A
:103C4000002802D02149244AB9E7E668A378300069
:103C5000224965690893FCF717FB0800FA218900DF
:103C6000FCF78CFA1E4907903000FCF70DFB0800AA
:103C70001A49FCF783FA1A4906903000FCF77EFADD
:103C80000590A368280015490493FCF7FDFA080085
:103C9000FA218900FCF772FA114903902800FCF719
:103CA000F3FA08000D49FCF769FA0D490290280063
:103CB000FCF764FA019023690A4F00933A000C9BC9
:103CC0000949022002F0EAFE7EE7C046758101083C
:103CD0009C06000010270000B906000060EA000002
:103CE00080EE36006A820108BDD20108F0B58BB0C3
:103CF000051E0691079207D1EE222B49D200012022
:103D0000FFF720FC012409E008AE3000FDF7EEFCCF
:103D1000041E06D02449254AFFF714FC20000BB0EE
:103D2000F0BD3388224CB2785C4364235343E418DB
:103D3000F3783000E418FFF75FFC2B00069A1D4E65
:103D40000C330100009320007243043BFFF742FD57
:103D5000041E02D01449184AD1E7EF68E8612861CF
:103D6000686116493800FCF78FFA0800FA218900CB
:103D7000FCF704FA310004903800FCF785FA0800DB
:103D80000E49FCF7FBF9310003903800FCF7F6F917
:103D90000290AB680A4A0193069B0A4900930320EC
:103DA000079B02F07BFEB9E77581010873070000ED
:103DB0001027000080EE36007E07000060EA000059
:103DC000C3820108BDD20108F0B593B004000F0012
:103DD0000A920B93002806D16D496E4A0120FFF725
:103DE000B1FB012317E06C4BDB68DB0615D4C3780D
:103DF000002B07D0189B03200093684A68490B9B4F
:103E000002F04CFE00232380E370A360E360236193
:103E10006361E3610233099316E0002909D1437815
:103E2000012BEFD15F4A5E490B9B022002F036FE68
:103E3000E8E710AD2800FDF759FC0990002806D0EE
:103E40005349594AFFF77EFB099813B0F0BD38007B
:103E500003F0DEFB0600012802D04D49534ABDE7BE
:103E60002379012B0BD0FDF703FD0A9B3D21584020
:103E7000FCF70AFAFA239B004B432671A361022246
:103E80002388FF32934205D1A378BB4202D1E37865
:103E9000012BD9D0A3693800A7700D9303F0B8FBAC
:103EA0000A90012807D03A49414A0120FFF74AFB0E
:103EB0003749404A92E72B883F4EAA785E436423F5
:103EC0005343F618EB782800F618FFF795FB0FAB75
:103ED000010000933000199A0EABFFF77BFC00281D
:103EE00002D02B49354AE0E70F9B3549180079434A
:103EF0000C93FCF743F905000E9EFDF7B9FC314A1F
:103F00003B066A437340534058400B21FA25FCF7A7
:103F1000BBF9AD004D430D9B30005A1923000C3303
:103F200000930C99043BFFF755FC002802D0184978
:103F3000254ABAE70223FF3323800A9BE768E37030
:103F4000E5610695A369380020490593FCF79CF9C3
:103F50000800FA218900FCF711F91949049038008A
:103F6000FCF792F908001949FCF708F91449039085
:103F70003800FCF703F90290A368154E0193A3786B
:103F80003200009306490B9B022002F087FD5BE79D
:103F90007581010822060000002800400483010802
:103FA000BDD2010819830108390600003B06000054
:103FB000C50400005406000010270000D4040000CF
:103FC00080EE3600B179379EDC04000060EA000024
:103FD0003083010810B58CB002A803F0FFFCFD236C
:103FE0000400184213D1EF3B6B44D87F03F01CFB55
:103FF000094A0A4C01920A4A010000922000094B2A
:10400000094AFFF7E1FE040020000CB010BD07498B
:10401000074AFFF797FAF7E7C0D40100180300201A
:10402000A08301088A830108435652537581010811
:104030006C06000010B58CB002A803F0CFFCFD2385
:104040000400184213D1EE3B6B44D87F002801D006
:1040500003F0EAFA0A4A0B4C01920B4A0100009263
:1040600020000A4B0A4AFFF7AFFE040004E0D0220A
:104070000849D200FFF766FA20000CB010BDC04618
:10408000E0930400F8020020D0830108BD830108FA
:10409000544D474D75810108A02010B5C005002280
:1040A000042102F0F9F8002010BD000070B51D4D8C
:1040B0002B78012B34D01C4C1C4920000CF050F8FC
:1040C000002801D01E2070BD194E21003000194B70
:1040D000194A0CF083FC0028F4D132002100174863
:1040E0000DF01EFA0028EDD1154E210030000BF026
:1040F00005FE021EE6D1300012490BF01BFE200027
:1041000009F02EF80028DDD1FF220F4B0F4918705F
:104110000F4B02301A7001230E4A2B7002F0BEFCC6
:104120000020D0E7F6010020C0020020440D00204E
:104130004402002055E5010865E501081C02002045
:10414000F801002065350008F7010020BDD2010804
:104150000C000020F0830108012210B5034B02205F
:104160001A700349034A02F099FC10BDF7010020C0
:10417000BDD201081484010870B5051E07D10120C5
:104180000B490C4AFFF7DEF90124200070BDFFF750
:10419000DDFB041E04D00649074AFFF7D3F9F4E714
:1041A000064B2A0099685868FFF744FA0400ECE7C8
:1041B00075810108E70A0000EA0A000038030020C0
:1041C000F0B593B00D90002806D19849984A012087
:1041D000FFF7B8F901240AE0FFF7FCFEFD23050014
:1041E000184207D09149934AFFF7ACF92C00200000
:1041F00013B0F0BDFFF71EFF041E0F9000D107E1C2
:10420000022800D101E189498B4AFFF79BF9EEE7CB
:1042100032888A4BB178534364224A439B18F27820
:1042200030009B180B93FFF7E7F90E90002D4CD050
:10423000002C00D1BBE0E3E0EB6881490A930C9BC2
:104240000A98013707930897FCF71EF80800FA212F
:104250008900FBF793FF7B4906900A98FCF714F856
:1042600008007749FBF78AFF764905900A98FBF723
:1042700085FF0490AB68300071490393FCF704F8A4
:104280000800FA218900FBF779FF6E49029030009F
:10429000FBF7FAFF08006A49FBF770FF69490190D4
:1042A0003000FBF76BFF23000090674A032067494B
:1042B00002F0F4FB8023DB009F4207D15B49644A94
:1042C0001F20FFF73FF91F2491E72F00614D0B9B43
:1042D000AC68EE689C4203D315D80E9B9E4212D860
:1042E000EB6931000C935C4BAA7802935B4B200086
:1042F00001935B4B00935B4BFFF7AAFA00289BD01E
:104300004A49594A63E70F9B002B4FD031002000E8
:104310000D9AFFF78FF9040069E70A9B48490133BA
:104320000A93F3680C930A9B0C9808930F9B0793CE
:10433000FBF7AAFF0800FA218900FBF71FFF41499C
:1043400006900C98FBF7A0FF08003D49FBF716FF0D
:104350003C4905900C98FBF711FF0490B3682800C6
:1043600037490393FBF790FF0800FA218900FBF718
:1043700005FF344902902800FBF786FF080030490A
:10438000FBF7FCFE2F4901902800FBF7F7FE3B00EE
:10439000364A00902D49032002F080FB80230A9AC0
:1043A000DB009A4205D12149314A89E701240023E3
:1043B0000A93304E0B9BB768F5689F4203D315D81C
:1043C0000E9B9D4212D8F36929000F932A4BB278B5
:1043D00002932A4B38000193294B0093294BFFF796
:1043E00037FA002899D01149274AF0E6012C07D165
:1043F000184B9C68A74203D3DE6887D8B54285D89E
:104400001C4B0D9AD968986883E7002D00D0EEE622
:1044100010AE3000FDF76AF9071E00D1F8E6034937
:104420001A4AFFF78FF83C00E1E6C04675810108A3
:10443000FF0A0000020B0000050B0000102700001F
:1044400060EA000080EE36002F840108BDD201082A
:10445000340B000018030020340300202403002044
:1044600020030020C0D40100270B0000BB840108FA
:104470005C0B0000F802002014030020040300205D
:1044800000030020E09304004F0B00000D0B000020
:1044900000230B4A10B51380D37093605360094A10
:1044A00002201380D3709360D360074A07491380BA
:1044B000D3709360D360064A02F0F0FA10BDC04694
:1044C0003803002018030020F8020020BDD20108A4
:1044D0004485010810B513000A000121FFF7F6F822
:1044E00010BD10B513000A000021FFF7EFF810BD52
:1044F000F7B5D822254C520000212000F426FA27D7
:1045000011F00EFA0023224AF600BF00214899005C
:10451000415801209160204998408C46FA21654617
:1045200013704900284204D13900304201D1594268
:104530005941D16002210133117720320C2BE5D192
:10454000012525700024154B21001C70144B1022EE
:104550001C70144B14481C70144B1C70144B1C70B2
:10456000144B1C7011F0DCF921002022124811F0CC
:10457000D7F921002022114811F0D2F9FFF732F8C3
:10458000280022002100FFF7ACFFFEBD48030020F9
:104590004C030020D8E401085A080000F50100206F
:1045A000F4010020F301002038030020F201002074
:1045B000F1010020F001002018030020F802002083
:1045C00010B5012200210820FFF78BFF10BD00006D
:1045D00000487047CC040020030000200B2B02D8B9
:1045E00001485B01181870474C0300200300034882
:1045F000282B02D8024A9B0098587047AA850108C8
:1046000034E40108F0B5224C8DB00B934301E4185B
:10461000A37915000893E37907000993237AE271DF
:104620000A9300230E002372A1710DF09BFB01235E
:104630000B9A6371E318DA776369A06101336361F0
:10464000089BE061B34205D1099BAB4202D10A9BB2
:10465000002B1AD00F4ABB0008989C58FFF7C6FFE2
:1046600007003000FFF7C2FF0B9B01900693002369
:1046700005930A9B02200493099B074A029307496A
:1046800023000395009702F009FA0DB0F0BDC04673
:1046900048030020D8E40108B2850108BDD2010812
:1046A000002310B51A0003211800FFF7ABFFFDF738
:1046B000DFFE00220400030003211000FFF7A2FF29
:1046C000200010BDF0B505000E00A1B0282801D9CA
:1046D00001F005F98623B74CFF33E0540DF042FB9F
:1046E000CE2301225B00E05000200C33E250203B3F
:1046F000E0540AF0B7FF0690002806D0AE49AF4A52
:104700001E20FEF71FFF1E2383E0681E272801D905
:1047100001F0E0F8FBF728FD2800DE08EA00F700CA
:10472000FE00F7002001030125012C014001780162
:10473000F001F60110027F02890298029302A202A0
:10474000B002020412043E064406520656065C06F7
:104750006A06DC07E007E607F4070F0813081F08DE
:104760003208D508BA08D908002303211A00180016
:10477000FFF748FF002304211A000120FFF742FF42
:10478000002307211A000220FFF73CFF0023092124
:104790001A000320FFF736FF00230D211A00042022
:1047A000FFF730FF002311211A000520FFF72AFF31
:1047B000002314211A000620FFF724FF00231821EC
:1047C0001A000720FFF71EFF00231B211A000820F4
:1047D000FFF718FF00231F211A000920FFF712FF1F
:1047E000002323211A000A20FFF70CFF00232521B4
:1047F0001A000B20FFF706FF002203201100FFF72D
:1048000070FE011E07D06C496D4A1B20FEF79AFE10
:104810001B23069367E002000420FFF762FE011EDF
:1048200003D08D2264491201EFE702000720FFF751
:1048300058FE011E02D06049624AE6E702000920E4
:10484000FFF74FFE011E02D05B495F4ADDE7020021
:104850000D20FFF746FE011E02D057495B4AD4E700
:1048600002001120FFF73DFE011E02D05249584AB6
:10487000CBE702001420FFF734FE011E02D04E49A0
:10488000544AC2E702001820FFF72BFE011E02D097
:104890004949514AB9E702001B20FFF722FE011ED9
:1048A00002D045494D4AB0E702001F20FFF719FE2C
:1048B000002802D040494A4AA7E7012100222320CC
:1048C000FFF70FFE011E02D03B49464A9DE702005A
:1048D0002520FFF706FE002802D03749424A94E718
:1048E000C2235B00E054069821B0F0BDFFF7D8FE6C
:1048F000002800D1A3E18E220A202F491201FEF7E1
:1049000021FE0A2385E7002305211A000120FFF775
:1049100079FE94E10122002306211000F7E7012E21
:104920001AD1FA23314A9B003149032002F0B6F82C
:104930008021320049002F480EF066F9FA208000ED
:104940000DF016FA72B6BFF34F8F2B4B2B4ADA607D
:10495000BFF34F8FC046FDE7002308211A00022055
:10496000D5E7FFF799FB00230A211A000320CEE7C1
:10497000230068331D78012D0AD1002229000B2065
:10498000FFF7AFFD2A00031E04D00B491C4A3CE789
:1049900000231A000B21E9E7002201210C20FFF778
:1049A000A0FD031E02D00449164A2EE701220C2165
:1049B000DCE7C0464803002075810108BD080000FF
:1049C000CF080000D1080000D2080000D308000082
:1049D000D4080000D5080000D6080000D708000061
:1049E000D8080000D9080000DA080000E9850108AD
:1049F000BDD201080004005000ED00E00400FA05FB
:104A000017090000220900002022002116A810F03A
:104A100087FF07F049FE0500031E06D00369002B3F
:104A200003D00DF09FF92B69C31ACB4FCB4A390045
:104A3000022002F033F8A02001220421C00501F079
:104A40002BFC32200DF094F9FEF798FE00280DD0D3
:104A5000A02000220421C00501F01EFC03252B002C
:104A6000BF4ABD49032002F019F841E06423052242
:104A7000BC49BD4810F0D2FB061E06D0C322092057
:104A8000BA49FEF75FFD0925E9E716A8FEF74CFED7
:104A9000050064200DF06CF9A02032000421C0054F
:104AA00001F0FAFB002D05D0CF22B0492800FEF717
:104AB00049FDD4E71523390016AA022002F01AF89E
:104AC00002F056F90600012002F04AF9152116A855
:104AD00002F052FA0500300002F042F9002D02D037
:104AE000DB22A249E2E739000220A14A01F0D6FF09
:104AF0002B000022092139E709F030FD00230E21A7
:104B00001A0014E0230088331B78012B03D0994B43
:104B10001B78012B0DD1002201210F20FFF7E1FCB2
:104B2000031E02D09149944A6FE601220F2104200E
:104B3000EDE608F09BFBE1E7904B1B78012B58D189
:104B40008C4B1A78012A09D100228D481A700BF07B
:104B50000DFE8C480BF022F900284AD18A4B1A78B6
:104B6000012ACBD1FE321A7008F026FB002804D0AF
:104B70000320864A784901F091FF16AD280008F01D
:104B80004DFC061E35D12B78012B23D16978AB78EB
:104B900003916979704F0291297902200191E97896
:104BA0007B4A0091390001F079FF6D78012DA5D184
:104BB000320029001520FFF794FC031E9ED12A0025
:104BC00015210620FFF71EFD3900724A022001F070
:104BD00065FF93E7704D28000CF0AEF800280FD069
:104BE0006E480CF0C5FC002888D00238C0B20328FB
:104BF00084D95E496A4A1F20FEF7A4FC1F2308E6F9
:104C0000012128000BF01EFF022800D876E70428B7
:104C100000D173E7EDE7002310211A000420FFF70D
:104C2000F1FCC22301225B00E2545E48FCF73EFC2B
:104C3000002804D004205C4A5C4901F02FFFC22305
:104C400001225B00E2544EE6002213201100FFF720
:104C500048FC0028F3D04549554AD6E500220121F9
:104C60001520FFF73EFC021E02D04049514ACCE518
:104C70000300152106204AE60023202104AA4E4DF8
:104C8000D377521813702B78012B00D0B9E06B78D2
:104C9000012B00D0CAE0494BDB68DB0614D4A878AE
:104CA00005F0A0FE464A03002B49032001F0F6FE62
:104CB0000022444B14211A70434B1A70434B1A7054
:104CC000434B1A701300D5E716AF3800FCF70EFD02
:104CD000002806D025493F4AFEF734FC23493E4AC6
:104CE00089E73B883D4EBA785E4364235343F61808
:104CF000FB783800F618FEF77FFC6B68B34203D8E8
:104D000074D1AB68984271D22B4DA87805F06AFE39
:104D1000AE68079032493000FBF7B6FA0800FA2176
:104D20008900FBF72BFA2F4903903000FBF7ACFA10
:104D300008002B49FBF722FA2A4902903000FBF7C2
:104D40001DFA01906B68284F00933A00079B0249B7
:104D5000022001F0A3FEABE7BDD201080A860108DC
:104D6000848601084DE50108580B00207581010873
:104D700058860108F701002046090000F6010020CE
:104D8000C0020020F80100200C000020BA860108B3
:104D9000E386010817870108440200201C02002056
:104DA00054090000F00C002036870108117D01082D
:104DB000670900007A090000E8020020002800408E
:104DC00041870108F4010020F2010020F1010020D8
:104DD000F00100202A0800008509000010270000CB
:104DE00060EA000080EE360089870108A87805F0A7
:104DF000F9FD0300A84AA949022001F04FFEFEF781
:104E0000F1FBA74D2B78012B7BD0A64B1B78012BF8
:104E100077D1FFF7DFF8022838D000282CD0A2493C
:104E2000A24AFEF78FFBA049A14AE4E6EE68002EF5
:104E30001CD080235B029E4200D91E00300009F086
:104E400045FB002802D098499A4A45E7EB68A878C4
:104E50009B1BEB6005F0C6FD0300E868964A0190D5
:104E60008E490096022001F019FE21E7A87805F08E
:104E7000B9FD924A0300BEE71F2104AE904A914853
:104E8000914B8919FEF790FE0028CCD1FFF7D2F89C
:104E9000022810D0002806D083498C4AFEF752FB26
:104EA00081498B4AA7E68B4A8B488C4B0CA9FEF7AD
:104EB0007BFE0028F4D1202104ABDA7F5B181B783D
:104EC000012A13D0012B11D00022854B06201A7025
:104ED0000C391300FFF796FBC22301225B00E2545A
:104EE0006E49804A022001F0D9FDFCE47E490A7037
:104EF0007E490B70012A03D0013B5A425341DAB27A
:104F00002A70002201211620FFF7EBFA031E02D0BF
:104F10006549774A79E401221621ABE601200AF0BF
:104F20008BFB002201211720FFF7DBFA031E02D0C2
:104F30005D49704A69E4012217219BE6594B16A886
:104F400009931B78089302F049FDFD2306001E40DB
:104F5000184202D05449684A4DE64F2304AA9B18D0
:104F6000DD7F002D03D0280002F05EFB0500089BCA
:104F7000012B10D15A4F3B78012B0CD15F4A474986
:104F8000022001F08BFD09F0C3FA002802D0464947
:104F90005B4A30E6387007F04DF80790002800D1E2
:104FA0003BE107F081FB3D49564B08910799564A72
:104FB000009104000899032001F070FD07F07CFACD
:104FC000031E07D00320514A089901F067FD002015
:104FD0000AF032FB002C07D0257E082D20D0A82710
:104FE000092D1ED0FEF7FEFA00243D4B22001421AD
:104FF00006201C70079BFFF705FBC4220121444BD0
:10500000520099542000043A491899540AF046FB7A
:105010000690A04200D166E423493E4AFFF770FBA8
:105020003027FEF7DFFA01233B4C23703B4BA57082
:10503000DA681023110019401A4200D1CBE0FEF7C4
:10504000C9FF0690022818D000280ED01649344A0D
:10505000FEF778FA1449334A0698FEF773FA1249B4
:10506000314A0698FEF76EFA3DE43900144A1548B5
:10507000FEF73CFE06900028ECD1FEF7DBFF069021
:10508000022860D0002855D00749284AFEF75AFA6E
:105090000549274AE0E7C046E5870108BDD2010877
:1050A000F2010020F301002075810108D5060000FF
:1050B000930900004708000017880108728801085A
:1050C0008A83010818030020C0D40100EE06000006
:1050D00094090000BD830108F8020020E093040059
:1050E000F4010020AD880108F1010020F00100204A
:1050F000A3090000AB090000B7090000E58801081A
:10510000BE0900001789010823890108698901087F
:1051100048030020AD080000E802002000280040FD
:1051200099070000D3070000A1080000AA070000AB
:10513000D60700003900C44AC448FEF7D7FDFD2356
:1051400006901842A4D101236370C14B5A78012AFA
:1051500004D116009968DB686160A360BB4A53788C
:10516000012B34D19368D268012E06D1616899422F
:1051700003D804D3A168914201D36360A2602800E0
:1051800005F030FCA5680690B2492800FBF77CF8D2
:105190000800FA218900FAF7F1FFAF4904902800CE
:1051A000FBF772F80800AB49FAF7E8FFAA49039049
:1051B0002800FAF7E3FF02906368A84E01933200DB
:1051C000069BA7490097032001F068FC0CE7012E1D
:1051D00000D007E7D3E7E12380261B017B4376025B
:1051E00030006170E36009F071F90690002802D088
:1051F0009C499D4A31E7E3689C4A28009B18E3607C
:1052000005F0F0FBE16803000291994A08990196C4
:105210000097032001F042FCE6E6012007F062F867
:10522000012007F0A7F8089B012B0CD08C4D914A68
:105230002900022001F032FC09F06AF9061E1CD098
:1052400088498D4AD7E46B425D418C4FEDB23B7883
:10525000012B02D1280007F0F9F8894E3078012897
:1052600001D107F0FFF83B78012B76D03378012B82
:1052700073D0280007F0EAF86FE02900814A022085
:1052800001F00CFC3100202216A810F049FB07F0B9
:105290000BFA0600031E06D00369002B03D00CF0A6
:1052A00061FD3369C31A2900774A022001F0F6FB39
:1052B000A02001220421C00500F0EEFF32200CF0F6
:1052C00057FDFEF75BFA002808D0A0200022042139
:1052D000C00500F0E1FF63496C4A8CE464230522B9
:1052E0006B496C480FF09AFF071E06D096220920E2
:1052F0005C495200FEF726F9EDE716A8FEF714FA0E
:10530000060064200CF034FDA0203A000421C00502
:1053100000F0C2FF002E04D09C2230005149520000
:10532000E8E7290016AA1523022001F0E3FB152166
:105330000CAA16A801F07CFE002803D0A12249493E
:105340005200D7E72900544A022001F0A7FB0CA81D
:1053500007F094F80CA807F09DF807F0ADF8051ECB
:1053600002D040494D4A46E40126FEF73BF9099B2D
:105370002A001E704A4B14211D70404B06201D70E0
:105380003F4B1D702B00FFF73DF9C2235B00E65435
:10539000FFF7A9FA002319211A000720FFF7B7FA2F
:1053A000002201211A20FFF79CF8031E03D02D498B
:1053B0003C4AFFF72AFA01221A21EEE700231821BE
:1053C0001A00EAE700231C211A000820FFF79FFAC1
:1053D00000221D201100FFF784F8021E03D021498E
:1053E000314AFFF712FA03001D21EEE709F066F8D3
:1053F0000C2302001A40184200D13DE10023202175
:1054000004AAD37752181370820811000133C00820
:1054100019401840079108901A4200D1ABE0FEF7FE
:1054200095FA041E09D116AE3000FCF75FF9041E90
:105430003ED00C491D4AFEF785F8022C00D18DE0C4
:105440001C2C00D18AE05EE0BD830108F802002038
:105450001803002060EA000080EE3600AF890108E2
:10546000BDD2010875810108040800000000FFFF9B
:105470001A8A0108898A0108D6090000F101002072
:10548000F0010020D18A0108268B0108DF09000005
:1054900048E50108580B00207D8B0108F309000046
:1054A000F20100200A0A0000250A0000970500000A
:1054B0003388CF4FB2785F4364235343FF18F378A8
:1054C0003000FF18FEF798F8CA4D03006C68BC4224
:1054D00044D8A86801D1834240D3FA23C6499B002F
:1054E0005C43FAF74BFEEB6827189F4236D030003A
:1054F000A978EF60FEF7DEF9041E0DD00120BF4948
:10550000BF4AFEF71FF82000BC49BE4AFEF71AF852
:10551000BA49BD4AFFF779F9AC68B7492000FAF7F4
:10552000B3FE0800FA218900FAF728FEB749039074
:105530002000FAF7A9FE0800AF49FAF71FFEB349A9
:1055400002902000FAF71AFE01906B68B04E0093AB
:1055500032003B000220AF4901F0A0FA089B002B6B
:105560000CD101210A20089AFEF7BBFF002873D056
:10557000A249A94ACAE7089B002B60D0FEF72AFD82
:10558000002807D11F2104ACA44AA548A54B09193E
:10559000FEF766FA1C2804D8A34C2300C340DB079F
:1055A00002D49649A14AB1E7FEF744FD002805D18F
:1055B0009F4AA048A04B0CA9FEF752FA1C2802D81B
:1055C000C440E40702D48D499C4A9FE71F2304AAE4
:1055D0009B181A789A4B9B491A700CAB1B780B706E
:1055E000012A03D0013B5A425341DAB2964B1A705A
:1055F000079A002A00D17AE10022944B3C201A70CD
:1056000008F064FF031E04D00320914A814901F091
:1056100045FA002201210A20FEF763FF002803D08B
:10562000BC227649120171E7030001220A210320FE
:10563000FEF7E8FF874A0220764901F02FFA00239F
:105640001E211A000820FEF7DDFFC2220121824B35
:1056500052009954FFF747F901220A210320089BC1
:10566000FEF7D0FF7D4AE6E7220015210620079BC2
:10567000FEF7C8FF7A4ADEE7734B1C78012C10D185
:1056800021001520FEF72DFF031E03D05B49754A4C
:10569000FFF7BBF8220015210620FEF7B3FF724A80
:1056A000C9E76A4B19780129C9D0012415202100C6
:1056B0001C70FEF716FF031E03D050496B4AFFF71C
:1056C000A4F8220015210620FEF79CFF684AB2E7E5
:1056D00000231E211A0078E6002320211A00092049
:1056E000FFF715F9002201212120FEF7FAFE031E23
:1056F00003D042495F4AFFF788F801222121EEE7F3
:10570000524B1A78012A16D00125002229001520B3
:105710001D70FEF7E6FE031E03D03849564AFFF718
:1057200074F82A0015210620FEF76CFF0220534A68
:10573000384901F0B3F9002322211A00CFE70022F3
:1057400001212420FEF7CDFE0122031E12D02B4999
:105750004B4AFFF75AF8012220214A480DF054FA2B
:1057600001200CF005FB0022202146480DF04CFAE8
:1057700000231A0024210A20FFF7C9F80CAD2800E5
:1057800003F012F9022802D1280003F037F90C9A2D
:105790002B79120A1B0613432122013304A9521844
:1057A000190A13705170190C1B0E9170D3702800D8
:1057B00003F024F9280003F04DF916A802F00EF9C1
:1057C000022802D116A802F03BF916A802F074F9DB
:1057D000002201212620FEF784FE031E03D0074984
:1057E000294AFFF712F8012226210B20FFF78FF834
:1057F000102700003803002060EA000075810108CE
:10580000B40500009B0B0000360A000080EE360055
:10581000CB8B0108BDD20108CA0B00008A830108A6
:1058200018030020C0D4010005000010A40B0000E4
:10583000BD830108F8020020E0930400AA0B0000D9
:10584000F1010020F0010020F2010020F40100200D
:10585000128C0108658C010848030020C08C0108E7
:105860000E8D01083A0A00005A8D0108410A000015
:10587000A58D01085B0A0000690A0000E88D010897
:10588000780A000000040050970A0000204B1A78A4
:10589000012A16D001250022290015201D70FEF7CF
:1058A00020FE031E03D01B491B4AFEF7AEFF2A0051
:1058B00015210620FEF7A6FE0220184A184901F01D
:1058C000EDF8002327211A008FE7C22303225B0093
:1058D000FFF7B8F9C22302225B00FFF7B3F90120FA
:1058E0000C49104AFDF72EFE0123FEF792FF1C78AB
:1058F000012C00D0A3E60C4B079A210015201A704A
:10590000FEF7EFFD002800D1AEE60249074AFDE5AB
:10591000F501002075810108AC0A0000298E0108FC
:10592000BDD20108B5080000F4010020D30B00002F
:10593000F0B5AF4C8FB02678012E08D00220AD49CB
:10594000AD4AFDF7FFFD022528000FB0F0BDD622BD
:105950005200A3580133A350D42300225B00E2502D
:10596000FEF79EFE051E05D0A249A44A2800FDF7B9
:10597000E9FDE9E708AF3900300003F05FF9051EE3
:1059800051D1BB781D1C282B00D92825BB68EDB24E
:10599000002B1DD0681F20281AD8FAF7D1FB12124D
:1059A000193E193C3C3C193A3A3A193838193636FE
:1059B00036193434191111111919191942424000BC
:1059C000082601237601A61933720CF0CBF9F06199
:1059D000C3235B00E5548823FA78FF33E2547A68E6
:1059E0001133E250BA680833E250C822F968520015
:1059F0000433E150A3580133A350043AA3580133B0
:105A0000A3502800CBE00726DBE70626D9E70526CA
:105A1000D7E70426D5E70326D3E70226D1E70B26EE
:105A2000CFE70A26CDE71C2802D07249744A9DE7C9
:105A3000FDF78CFF0500022808D000282ED06D4904
:105A4000704A2800FDF77EFD1C2D5DD100276E4BAE
:105A5000DD5D0B2D00D93DE16E01A6193369002BE8
:105A600000D137E10CF07EF9B369002B04D0C01AE5
:105A70003369984200D22DE1681E28250A2800D9F2
:105A800098E0FAF771FB9000AE00D500DE00E70069
:105A9000F000F90002010B0114011C0106AF3800EF
:105AA000FBF724FE051E02D05249584AC9E73B883D
:105AB000574DBA785D4364235343ED18FB783800A3
:105AC000ED18FDF799FD534E02007368AB42BDD847
:105AD000B06801D19042B9D8FA254F49AD005D4375
