:020000040800F2
:100000000050002095140108411201084312010814
:1000100000000000000000000000000000000000E0
:100020000000000000000000000000004512010870
:1000300000000000000000004712010849120108FA
:10004000A5130108E514010851120108E51401087F
:10005000E5140108351301083713010839130108A5
:10006000E5140108E5140108E5140108E514010888
:10007000E5140108ED120108E5140108E514010872
:10008000E5140108E5140108E5140108000000006A
:10009000E5140108E5140108E5140108E514010858
:1000A000E5140108E5140108E514010875130108B9
:1000B0008513010895130108E5140108E5140108EA
:1000C00010B5064C2378002B07D1054B002B02D02E
:1000D000044800E000BF0123237010BD9000002001
:1000E0000000000020630108044B10B5002B03D072
:1000F0000349044800E000BF10BDC04600000000F6
:10010000940000202063010802780B78002A03D0B5
:10011000013001319A42F7D0D01A70470023C25CF7
:100120000133002AFBD1581E7047000002B471460B
:1001300049084900095649008E4402BC7047C04630
:1001400002B4714649084900095C49008E4402BC6A
:100150007047C04603B47146490840004900095E33
:1001600049008E4403BC704703B4714649084000FF
:100170004900095A49008E4403BC704700224308D5
:100180008B4274D303098B425FD3030A8B4244D35F
:10019000030B8B4228D3030C8B420DD3FF220902A1
:1001A00012BA030C8B4202D31212090265D0030B60
:1001B0008B4219D300E0090AC30B8B4201D3CB0356
:1001C000C01A5241830B8B4201D38B03C01A524198
:1001D000430B8B4201D34B03C01A5241030B8B429A
:1001E00001D30B03C01A5241C30A8B4201D3CB0285
:1001F000C01A5241830A8B4201D38B02C01A52416A
:10020000430A8B4201D34B02C01A5241030A8B426C
:1002100001D30B02C01A5241CDD2C3098B4201D384
:10022000CB01C01A524183098B4201D38B01C01A02
:10023000524143098B4201D34B01C01A5241030979
:100240008B4201D30B01C01A5241C3088B4201D328
:10025000CB00C01A524183088B4201D38B00C01AD5
:10026000524143088B4201D34B00C01A5241411AFC
:1002700000D20146524110467047FFE701B5002009
:1002800000F0F0F802BDC0460029F7D076E77047CD
:1002900003460B437FD4002243088B4274D30309E7
:1002A0008B425FD3030A8B4244D3030B8B4228D388
:1002B000030C8B420DD3FF22090212BA030C8B42AE
:1002C00002D31212090265D0030B8B4219D300E04E
:1002D000090AC30B8B4201D3CB03C01A5241830BD3
:1002E0008B4201D38B03C01A5241430B8B4201D383
:1002F0004B03C01A5241030B8B4201D30B03C01AAC
:100300005241C30A8B4201D3CB02C01A5241830A25
:100310008B4201D38B02C01A5241430A8B4201D354
:100320004B02C01A5241030A8B4201D30B02C01A7E
:100330005241CDD2C3098B4201D3CB01C01A5241E5
:1003400083098B4201D38B01C01A524143098B426E
:1003500001D34B01C01A524103098B4201D30B0157
:10036000C01A5241C3088B4201D3CB00C01A52417C
:1003700083088B4201D38B00C01A524143088B4241
:1003800001D34B00C01A5241411A00D201465241DA
:10039000104670475DE0CA0F00D04942031000D3F9
:1003A0004042534000229C4603098B422DD3030A4E
:1003B0008B4212D3FC22890112BA030A8B420CD35E
:1003C000890192118B4208D3890192118B4204D387
:1003D00089013AD0921100E08909C3098B4201D307
:1003E000CB01C01A524183098B4201D38B01C01A41
:1003F000524143098B4201D34B01C01A52410309B8
:100400008B4201D30B01C01A5241C3088B4201D366
:10041000CB00C01A524183088B4201D38B00C01A13
:100420005241D9D243088B4201D34B00C01A5241EA
:10043000411A00D20146634652415B10104601D377
:100440004042002B00D54942704763465B1000D301
:10045000404201B5002000F005F802BD0029F8D0A7
:1004600016E770477047C046002B11D1002A0FD104
:10047000002900D1002802D00021C943080007B498
:10048000024802A14018029003BDC046D9FFFFFFF9
:1004900003B4684601B5029800F034F8019B9E460B
:1004A00002B00CBC7047C046F0B5CE469946030C6E
:1004B0009C46130447461B0C1D000E0061460404B5
:1004C000240C80B50700100C4B4365434143604347
:1004D0002C0CC01824188C46A34203D980235B023D
:1004E0009846C444494679435643230C2D042D0CA9
:1004F0008919634424046019C918C0BCB946B046C0
:10050000F0BDC046F0B557464E464546DE46E0B51E
:1005100004000D009246994683B08B4230D82DD00E
:100520004946504600F038FE29000600200000F041
:1005300033FE331A9846203B34D49B4653465A46E2
:10054000934042461F00534693401E00AF423BD8A3
:10055000AF4200D179E05B46A41BBD41002B00DA1D
:1005600076E0002200230092019301235A46934033
:100570000193012342469340009329E08242CFD960
:1005800000220023009201930C9B002B01D01C60E1
:100590005D600098019903B0F0BCBB46B246A94625
:1005A000A046F0BD42469B4620239B1A5246DA40A5
:1005B000414613004A468A40170042461F435346AD
:1005C00093401E00AF42C3D9002200230092019342
:1005D0004346002BD8D0FB0772081A4346467B08D7
:1005E0000EE0AB4201D1A2420CD8A41A9D410120D9
:1005F00024196D410021013E24184D41002E06D0E2
:10060000AB42EED9013E24196D41002EF8D100987D
:1006100001995B4600196941002B24DB2B005A46E7
:100620004646D3402A001C00F2405B461500002BD2
:100630002ADB26009E40330026004746BE4032009B
:10064000801A9941009001919EE7A342BCD882E7AD
:100650004246202300219B1A002200910192012290
:10066000DA40019285E7424620239B1A2A0046463B
:100670009A402300F340464613432A001C00F240F0
:100680005B461500002BD4DA202342462F009B1B2B
:1006900097402600DE403B003343CDE7F0B54646A9
:1006A0004F46D6464502C0B5C30F470098460E1CBC
:1006B0006D0A3F0E5BD0FF2F21D08023ED00DB04BD
:1006C0001D43002399469A467F3F74027300640AD3
:1006D0001B0EF60F002B20D0FF2B43D080220020D2
:1006E000E400D20414437F3B4246FF1A4B4672405B
:1006F0000F2B00D99DE071499B00CB589F46002DE0
:100700005AD108239946063B74029A467300FF2784
:10071000640A1B0EF60F002BDED1002C3BD1012307
:1007200042464946724019430E2918D86448890048
:1007300041588F465346022B00D1B8E0032B6ED0B0
:1007400042462C00012B40D100200024C00520434C
:10075000D2071043E0BCBA46B146A846F0BDFF2020
:100760000024F3E7002C20D10223FF3FD8E7002D1F
:1007700005D104239946033B00279A46A5E72800A4
:1007800000F0ECFC7627431F9D4000237F429946F2
:100790009A463F1A99E7200000F0E0FC431F9C4076
:1007A00076235B421B1A00209EE703234A461A4326
:1007B00091460320FC3397E70C239946093BFF271A
:1007C0009A4682E703282CD0320038007F30002878
:1007D00047DD630704D00F232340042B00D00434EB
:1007E000230103D53800374B80301C40FE28B6DC8F
:1007F000A401640AC0B2A9E780240022FF20E40318
:10080000A4E78023DB031D4201D01C420BD08024CF
:10081000E4032C4364024246FF20640A96E74646FE
:100820002C008023DB031C4364023200FF20640A97
:100830008CE76D01600185422DD21B230024013F0E
:100840000126290064006D00002901DB854201D3E7
:100850002D1A3443013B002BF3D16B1E9D412C43D9
:10086000B3E701231B1A1B2B00DD6DE721009E3728
:10087000D940BC400B00611E8C412343590704D072
:100880000F211940042900D00433590113D49B01CE
:1008900000205C0A5AE71A2301242D1AD0E7981E7B
:1008A00043425841404232000024C0B24EE7424623
:1008B000FF2000244AE70120002447E744630108A1
:1008C00084630108FFFFFFF7F0B54F464646D64662
:1008D0004502C0B546000F1C6D0A360EC40F002E2F
:1008E00000D1CDE0FF2E72D08023ED00DB041D434C
:1008F000002399469A467F3E7B025B0A98467B001E
:100900001B0EFF0F002B72D0FF2B00D1A9E07F3B05
:10091000F6184B460A2B00DD85E043468022DB00BB
:10092000D2041A434B4690467C400022022B0FDD36
:10093000494601238B40A621C9000B4200D072E03A
:10094000902189000B4200D0DAE08821194267D15A
:10095000280C42462D042D0C4346290012041B0C82
:10096000120C51435D4342435843AD180B0C5B19C5
:100970009A4203D9802252029446604409041A0420
:10098000090C52189501691E8D411B0C920E1B1803
:1009900015439B011D431B0100D5CFE030007F3084
:1009A000002800DCB1E06B070BD00F2332002B4096
:1009B000042B06D004352B0103D5803210006A4B7E
:1009C0001D40FE2864DCAB015B0AC0B21FE0002DB5
:1009D00000D08FE008239946063B9A467B025B0ACB
:1009E00098467B00FF261B0EFF0F002B8CD1434641
:1009F000002B5CD14A4601331A43914613000A2A60
:100A000011DC01227C40022B92DC00200023C00577
:100A10001843E4072043E0BCBA46B146A846F0BDFF
:100A20003C00454692465346022B31D0032B11D051
:100A3000012BEAD030008030721C002866DD6B0785
:100A4000B9D00F232B40042BB4D1B4E70F2A7AD0AE
:100A50003C0045468023DB032B435B02FF205B0AFF
:100A6000D5E74346FF36002B34D14A4602331343C1
:100A70000A2BD8DC7C40002A0AD09946022257E78C
:100A8000002D08D104239946033B00269A4633E7FC
:100A9000FF200023BBE7280000F060FB7626431F01
:100AA0009D400023764299469A46361A24E74046EE
:100AB00000F054FB4B46361A763E0A2BB3DC434615
:100AC0000538834098464B4600227C40022B00DDCF
:100AD0002EE73DE703234A461A4313000A2AB5DCF2
:100AE00001229A40882113007C400322194200D140
:100AF0002EE795E70C239946093BFF269A46FBE62D
:100B000080230024FF20DB0381E7320001231B1A2E
:100B10001B2B00DD79E79E3229009540D9406A1EE3
:100B200095410D436B0704D00F232B40042B00D0BD
:100B300004356B0113D50120002368E701236A08FF
:100B40001D40154376E78023DB031D4282D04246D9
:100B50001A4200D07EE73C00FF20134357E7AB0169
:100B600000205B0A53E7C046FFFFFFF7F8B5474692
:100B7000CE464B02460080B5C40F4702580A844651
:100B800048007A0A360EBF09000ECD0F9B09FF28D8
:100B90006DD001214D40311AAC423AD0002900DC21
:100BA0009CE1002800D19EE0FF2E00D188E0802249
:100BB000D20413431B2900DCF6E0013F7A0100D484
:100BC00079E001277F42BF01BB099846404600F00B
:100BD000C5FA434605388340864200DCCCE0B44F7A
:100BE000311A1F405A0768D00F221340042B64D0DB
:100BF00004377B0161D5481CFE2900D081E0FF202D
:100C00000023C0051843E4072043C0BCB946B046E2
:100C1000F8BD002900DC79E1002876D1002B4CD00A
:100C2000481E012900D147E1FF2949D01B2871DC6A
:100C300001001A002020CA40411A8B40591E8B41E6
:100C40001343FF188023DB041F4200D1B8E0711C5E
:100C5000FE2ED4D0012297483A407F080740174320
:100C60007A0700D096E01F42C5D1FA0855E031005E
:100C7000FF398946002B2CD101214D40AC4200D1D7
:100C8000B4E0494600294CD0002E00D0F9E0FF2105
:100C9000002F00D108E14A1E012900D156E1FF29A9
:100CA00000D142E11B2A00DC24E15F1E2C0006007B
:100CB0007A0100D585E731000437FA08FF292CD1E5
:100CC000002A9CD08023DB0313435B02FF205B0AD6
:100CD00097E7AC4200D1A7E0002922D0002ED6D061
:100CE00062462C00EEE7002BE7D0481E012936D0E3
:100CF000FF29E5D001005DE701203B007A0100D427
:100D000057E1C0B2BB015B0A7BE7FF2ED8D01B299D
:100D100000DC9FE031000537FA0853025B0AC8B2D5
:100D20006FE7FE20711C084254D1002E00D0B1E0C4
:100D3000002F00D102E1002B00D1F9E08021FA1A46
:100D4000C9040A4200D13BE10124DF1B2C40002FE3
:100D500049D001200F42D5D10021FA08DDE7FF1A62
:100D60007B0100D4DEE0BD01AD09280000F0F6F9FA
:100D70002B000538834001262022811B0131521AA5
:100D80001F009340CF405A1E93411F432BD0002198
:100D90007B07B1D00F233B40042B00D028E77B0119
:100DA00000D528E7FA08B8E71A002020CA40411AFF
:100DB0008B40591E8B411343FF1A7B0100D502E77C
:100DC0007B0700D10DE10F2331003B40042B00D005
:100DD0000EE772E7FA1A9046520156D44346002BAA
:100DE00000D0F3E60024002000230AE7494600294A
:100DF0001CD0002E00D002E7FF21002F55D04A1E44
:100E0000012959D0FF2900D190E01B2A00DD91E093
:100E100011003A002025CA40691A8F40791E8F417F
:100E200017430600FF180DE7002926D1FE20711C8C
:100E3000084213D1002E00D096E0002F00D1B4E07C
:100E4000002B75D0FB185A0100D4B2E09B015B0A5D
:100E5000FD38D6E68022D2041343EAE6FF2900D10A
:100E6000CDE6FA185208530705D00F23171D13407B
:100E7000042B00D021E7D2084FE7002EBCD06246F9
:100E800020E72C00FF200023BBE60124DB1B984653
:100E90002C409BE6002F75D1002B00D096E08023DC
:100EA0000024FF20DB03ACE62C001F0005E7C04652
:100EB000FFFFFFFBFFFFFF7DFB185A0100D48DE011
:100EC0004A4A5B081A40590700D18CE00F210B40B9
:100ED0000D39042BCFD00221171DEEE6002900D1D9
:100EE0001FE7821B1100002E00D1D1E68021C9042A
:100EF0000F43D7E639002024D140A21A97407A1E2A
:100F000097410F432C000600DF1B56E700298DD0C8
:100F1000811B002E00D170E71B290BDC8022D2043C
:100F2000174376E70121FA08F7E62C006246C7E688
:100F30000021F2E605330100DA08EEE6002B00D1CD
:100F400050E70124002162462C40E6E6DA1B5301FB
:100F500032D592019409200000F000F923000538F1
:100F600083402C00012607E7002FDFD0002B17D08D
:100F70008023DB039A4200D2A4E69C4500D3A1E67D
:100F800062469FE6002B0BD08023DB039A4200D2FF
:100F900098E69C4500D395E6012462462C4091E6F4
:100FA0008023DB03FF2013432BE60020002B00D11E
:100FB00027E60021DA08B0E62C000121D208ACE6D1
:100FC000002A00D10EE70021D208A6E6802362465F
:100FD0000124DB03FF2013432C4012E60121DA0831
:100FE0009BE6310069E60221D20896E6FFFFFF7D0D
:100FF00041024200C30F490A0020120E7E2A03DD7F
:101000009D2A02DD094A9818704780200004014398
:10101000952A07DC9620821AD1404842002BF3D152
:101020000800F1E7963A9140F7E7C046FFFFFF7FDF
:1010300070B5002812D0C317C5185D40C40F280032
:1010400000F08CF89E231B1A962B0FDC082838D052
:10105000083885406D026D0AD8B202E000240020F5
:101060000025C0052843E407204370BD992B14DCFC
:10107000421F95402A001549114055071CD00F25E5
:101080002A40042A18D00431CA08490115D59F23E3
:101090005202181A550AC0B2E3E7020029001B32B7
:1010A00091404A1E91410522121AD5402A000A4356
:1010B000064911405507E2D1CA085202550AD8B272
:1010C000CFE76D026D0A8E30CBE7C046FFFFFFFB16
:1010D00010B5041E0DD000F041F89E231B1A962B6C
:1010E0000CDC082834D0083884406402640AD8B282
:1010F00001E000200024C005204310BD992B13DC23
:10110000421F9440144A224061071CD00F21214005
:10111000042918D00432D408520115D59F23640243
:10112000181A640AC0B2E6E7020021001B3291409F
:101130000A00511E8A410521091ACC401443064A6F
:1011400022406107E2D1D4086402640AD8B2D2E72F
:101150006402640A8E30CEE7FFFFFFFB1C210123EF
:101160001B04984201D3000C10391B0A984201D38A
:10117000000A08391B09984201D30009043902A268
:10118000105C40187047C0460403020201010101CF
:10119000000000000000000010B5002903D1FFF797
:1011A000DDFF203002E00800FFF7D8FF10BDC04689
:1011B0001FB56B4649BA99816423E021009303AAC5
:1011C000623B11F00BFB05B000BD000037B50022FB
:1011D000124C0090236869469A62802320005B01CC
:1011E000019310F07FFC002802D00D4D28003EBD79
:1011F000200010F0C1FB0028F7D10A21200010F0D8
:1012000007FC002807D1200010F068FC85B2200000
:1012100010F0DEFBEAE7024DF9E7C046BC0D002006
:10122000FFFF000010B5010000780822C043312400
:10123000C0B243B24000C0B2002B02DA5B00634090
:10124000D8B2013AD2B2002AF3D14B780822312128
:10125000584043B24000C0B2002B02DA5B004B4062
:10126000D8B2013AD2B2002AF3D110BDF0B587B09E
:101270000190029103920493002B1CD08023002440
:10128000244DDB032A68032013432B6010F076F90A
:10129000082726002048FFF799FF05901F48FFF711
:1012A00095FF059B1E4A013B9BB2934206D92B68D2
:1012B0001C4A13402B60012007B0F0BD1A4B984226
:1012C000F5D0059B013FE4183618002FE2D1174BEB
:1012D00017481B88E40858432100FEF74FFFF60823
:1012E000070014497043FEF749FF049B4000186053
:1012F000039B002B00D01F60019B002B00D01C60C3
:10130000029B002B00D01E602B68064A0020134071
:101310002B60D1E7082701400000024402000004CE
:10132000FDFF0000FFFFBFFFFFFF00007800F81F78
:10133000B80B0000FF0F000030B50D0004008BB0AB
:10134000684606F09FF82A002100684606F0D1F9A9
:10135000684606F0D7F90BB030BD000010B504495F
:10136000FFF726FF0400012010F008F9200010BD4F
:101370001735000010B50249FFF71AFF10BDC0462F
:1013800098B0000010B50449FFF712FF04000120D7
:1013900010F0F4F8200010BD5D800000F0B585B0BD
:1013A00005000F00FFF7DAFF041E19D128000F49CE
:1013B000FFF7FEFE041E13D1642303AE0093320038
:1013C000E0212800613B11F0ADFA041E08D1300085
:1013D000FFF728FFB378834205D133885BBA3B809F
:1013E000200005B0F0BD0124FAE7C046C8EF0000B8
:1013F000F0B587B005000F00FFF7B0FF041E46D11F
:1014000028002549FFF7D4FE041E40D10F2010F01C
:10141000B5F8642304AE00933200E02128005E3B5F
:1014200011F080FA041E32D13000FFF7FBFEB378D2
:1014300083422FD10B2302AA9B181800FFF7F2FE5C
:101440007379834226D102ABDA7A1B7B30881B0288
:1014500013435BBA40BA9BB280B20393FFF738FEE6
:101460000E49FFF71BF90E49FFF72EFA0D49FFF75A
:101470007DFB38600398FFF72BFE0849FFF70EF954
:101480000949FFF721FA78602800FFF773FF200071
:1014900007B0F0BD0124FAE76678000000FF7F473F
:1014A00000002F43000034420000C84273B56B4671
:1014B0009E1D002305003380FFF750FF041E16D148
:1014C0002800FFF75FFF041E11D1012010F056F82D
:1014D00031002800FFF762FF041E08D13388064957
:1014E000064A0B40934204D12800FFF743FF200037
:1014F00076BD0124FBE7C0463F0800000708000056
:10150000030C434004485843044B420B42405343AE
:10151000180C58407047C0466BCAEB8535AEB2C256
:1015200070B52D4C8EB020220021200013F0FEFD5E
:1015300038220021684613F0F9FD0C21274E284A75
:10154000F36868460B40D35C01222377336D9B051B
:10155000DB0F6370234B1B681340A36012F01AF972
:101560000FF04AFF099B636011F054FDE06012F038
:10157000EBF8206112F0EEF8606112F0FBF8237FC7
:10158000A061012B07D005203D22174901F0DAFFA9
:1015900005200EB070BD33689B0506D43E2212496B
:1015A000062001F0CFFF0620F3E76378012B02D07D
:1015B00040220D49F4E7079B012B02D041220A4942
:1015C000EEE7A02209991202914202D04222064976
:1015D000E6E700202370DCE7B000002000100240A6
:1015E00081D9010800200240C063010810B594B001
:1015F0003422002107A801AC13F098FD0021142229
:10160000200013F093FD102306930F3B0D93A023AE
:1016100006A81B020F9311F03FFD011E07D05B22AD
:101620000A49062001F08EFF062014B010BD0F23DA
:101630006060A060E06020612000019311F0B6FFBF
:101640000028F2D062220149EBE7C046C0630108DE
:10165000014B18787047C046B00000200048704722
:10166000B0000020121A8B411000191E03DA00236B
:10167000014A801859417047005C260510B50FF0EB
:1016800077FF024B1B68C01810BDC046AC0000209D
:10169000F0B500260F008BB0039304AB01900292CB
:1016A00000211122D81D13F041FD039B05AD2B70C5
:1016B000109B04AC6B70119B0198AB70029B267061
:1016C000A37067706421FEF7C9FE074BE170290023
:1016D0001D003200180012F0B7FA32002100280075
:1016E00012F01AFB0BB0F0BD180E0020F0B504008C
:1016F00087B0002807D101209C221D4901F022FF5C
:10170000012007B0F0BD0822002101AD13F00EFD4D
:1017100014220021280013F009FD0022154F290092
:101720003800009212F028FC6E46031E06D0124AC2
:101730001249042005F014F91F20E2E7020069466F
:10174000380012F041FC002803D003000C4A0B497A
:10175000EFE7FA22F378D2009B18238073782A8867
:10176000A370B378E370AB78A280A371C9E7C046D9
:10177000C0630108180E0020D86301087CAA010884
:10178000F063010830B58FB024216A46002307AC0E
:10179000521820001370FFF7A9FF051E17D1A17979
:1017A0002388049161790E4A0391217909A8029155
:1017B000E1780191A1780091142113F011FC0949FD
:1017C000132807D00420084A05F0CAF81F3528005E
:1017D0000FB030BD054A09AB022005F0C1F8F6E7AD
:1017E0008BAA01087CAA010808640108206401088A
:1017F000F0B51C4F87B001AE00223100380012F066
:10180000BBFB00226946380012F0DEFB0023164ABB
:1018100000213078FEF748FE002304000D00134A33
:1018200000217078FEF740FEFA2224184D41002373
:101830000021B0789200FEF737FE24184D41F96878
:1018400000290BD0FA20029B8000CB1A58430131AB
:10185000FEF794FC00230200A4185D41200029003B
:1018600007B0F0BD180E002080EE360060EA0000E0
:10187000F0B5184B18481E68184B87B01C68184BF9
:1018800070401F68FFF73CFE134B0500E018FFF7A0
:1018900037FE144B0090F818FFF732FE01900098C5
:1018A0006840FFF72DFE019B43401800FFF728FE1C
:1018B000050003903018FFF723FE0490E01940194B
:1018C000FFF71EFE0322059003A9074810F03AFA1D
:1018D00007B0F0BD5000F81FB979379E5400F81FCB
:1018E0006400F81F72F36E3C980D0020002330B5A1
:1018F00004001800E25CDD00AA4001331043DAB2B4
:101900009142F7D830BDF7B5441801940F24130065
:10191000A446057864462F093E002C4037369F2D9B
:1019200000D8073E25001E703735092C01D8303409
:101930002500019C01305D700233A042E9D10023F3
:1019400049008B54F7BD000010B50C4C2378012BD7
:1019500011D00F220A4803681A629969073A0A43AC
:101960009A610849012213F03DFAFD220A23104230
:1019700002D1093B23700023180010BD2001002074
:10198000E00B0020AC01002010B5114C50220021CA
:10199000200013F0CBFB0F4B0F4A1B68934206D07D
:1019A00003200E490E4A01F0CDFD032010BD002397
:1019B00001210C4A617013700B4A217013800B4A8D
:1019C00013800B4A13600B4A1370FFF7BDFFEDE75E
:1019D000D0000020E00B00200038014030640108F6
:1019E000FC050000AC0100202A0100202801002095
:1019F000240100202001002010B5154B0A001C789E
:101A0000012C07D002201349134A01F09BFD022448
:101A1000200010BD002809D1002901D10024F7E7DA
:101A200020000C490D4A01F08DFDF1E70029F5D0A9
:101A30000B4C01006423200012F0F6FF0028EDD0CB
:101A400009200449074A01F07DFD0924E0E7C0466A
:101A5000D0000020306401082E0600002F06000090
:101A6000E00B00203606000010B5041E07D1C82286
:101A700001200649D20001F065FD012010BDFEF7EE
:101A80004DFB81B22000FFF7B7FFF7E73064010894
:101A900010B5FFF7E9FF002802D10248FFF7E4FF85
:101AA00010BDC04667AE010810B5B6B004AC20004A
:101AB00006F04CF9031E09D0C0210C4A06A813F009
:101AC0008FFA06A8FFF7E4FF36B010BD482123784F
:101AD0000391A188064A0291A17806A80191617834
:101AE0000091C02113F07CFAEBE7C046486401087E
:101AF00065640108F0B5C3B00AAF380006F026F9F6
:101B0000051E0CD00300C021374A12A813F068FA52
:101B100012A8FFF7BDFF0500280043B0F0BDBB7859
:101B20000600002B43D13148F3E7637AC0210893C4
:101B3000237A2F4A0793E37912A80693A379059392
:101B40006379049323790393E3780293A378019351
:101B500023880093330013F043FA12A8FFF798FF8D
:101B6000002802D09122234939E0A17D6289A3890E
:101B70000591617D1B040491217D13430391E17C58
:101B80001D4A0291A17C0191218AE0890904014347
:101B9000009112A8C02113F023FA12A8FFF778FFD2
:101BA000002802D09E22134919E00136F6B2BB7814
:101BB000B342B1D90CAC2100300006F025F8002862
:101BC000B3D000903300C0210C4A12A813F008FAD9
:101BD00012A8FFF75DFF0028E7D07F220549092002
:101BE00001F0B0FC092597E797640108B464010887
:101BF000E36401083064010824650108C564010834
:101C0000F0B50024B5B002900191019B9C4201D334
:101C100000202FE02300C0211B4A04A813F0E0F9A4
:101C200000250600029B1F19019B1B1B9BB20393FF
:101C3000039B9D4201D0102D0BD104A8FFF728FF74
:101C400000281DD00920BE22104901F07BFC09208C
:101C500010E0C02104A83B780D4A891B801913F0BD
:101C6000BFF90137002807DA1E20BA22074901F020
:101C700069FC1E2035B0F0BD01353618ADB2D7E78E
:101C80001034A4B2C1E7C04676650108306401088B
:101C9000D08E0108F0B5CA4C0600A5440CAC20005B
:101CA00006F054F8C74A031E1BD1A378C648002B80
:101CB0001CD010A805F0E6FB022802D110A805F000
:101CC00011FC10A80EAD2AAC05F046FC2B008022BA
:101CD000210010A8012E0FD105F0C5FB031E0ED068
:101CE000BA4AC0214AA813F07BF94AA8FFF7D0FEF0
:101CF000AB239B009D44F0BD05F0AFFBEEE7697997
:101D00002B8803912979B24A0291E9784AA8019176
:101D1000A9780091C02113F063F94AA8FFF7B8FE33
:101D2000002806D0AB49AC4A092001F00BFC092081
:101D3000DEE720002988FFF763FF002802D0A549CD
:101D4000A64AF1E72D883D2D0ED82B00A44AC021CC
:101D50007AA813F045F97AA8FFF79AFE002800D078
:101D6000CEE1FFF7A1FEC3E72378022219009143D9
:101D7000A12901D09B4AEAE7A178702902D00B0083
:101D8000994AE4E701910093C0212B00974A7AA871
:101D900013F026F97AA8FFF77BFE002804D0C622AC
:101DA0008C4952000920A9E129002000FFF728FFF3
:101DB000002803D08E228749FF32F3E723788C492D
:101DC000A32B00D18B4901910093C02100238A4AA3
:101DD0007AA813F005F97AA8FFF75AFE002802D076
:101DE00098227C49E8E76378C0210093834A012365
:101DF0007AA813F0F5F87AA8FFF74AFE002802D077
:101E0000CF227449CDE7A378C02100937C4A0223F6
:101E10007AA813F0E5F87AA8FFF73AFE002802D076
:101E2000A6226C49C8E7932006AB1AAEC018320050
:101E30000821FFF768FD0323C021724A00967AA8A3
:101E400013F0CEF87AA8FFF723FE002802D0D7229D
:101E50006049A6E79B2006ABC01832000821FFF7B7
:101E600052FD0B23C021684A00967AA813F0B8F8F7
:101E70007AA8FFF70DFE002802D0DB22554990E733
:101E8000E37CC0210093614A13237AA813F0A8F8D9
:101E90007AA8FFF7FDFD002802D0DF224D4980E738
:101EA000237DC02100935A4A14237AA813F098F88E
:101EB0007AA8FFF7EDFD002802D0C62245497BE74E
:101EC000A52006AB0221C018FFF710FD15230090D6
:101ED000C021504A7AA813F083F87AA8FFF7D8FDFA
:101EE000002802D0CE223B4966E7A72006AB02219C
:101EF000C018FFF7FBFC17230090C021464A7AA8C0
:101F000013F06EF87AA8FFF7C3FD002802D0D6229E
:101F1000304951E7A92006AB0221C018FFF7E6FCC3
:101F200019230090C0213D4A7AA813F059F87AA8E5
:101F3000FFF7AEFD002802D0DE2226493CE7AB20A9
:101F400006AB0221C018FFF7D1FC1B230090C02173
:101F5000334A7AA813F044F87AA8FFF799FD0028CD
:101F600002D0E6221B4927E7AD2006ABC01832009D
:101F70000521FFF7C8FC1D23C0212A4A00967AA834
:101F800013F02EF87AA8FFF783FD002802D0F7227D
:101F9000104906E72BABDB7F06A9019393235B185F
:101FA000DB7FC0210093204A22237AA813F018F87F
:101FB0007AA8FFF76DFD002838D0F8220549FBE626
:101FC00054FDFFFFAC650108C9650108D56501082E
:101FD000ED650108306401080E0300000F030000E6
:101FE0002A660108416601085A6601087066010800
:101FF000826501087D6501089B660108BF660108CE
:10200000E0660108116701082C67010847670108AD
:1020100067670108826701089E670108BF670108BA
:10202000E0670108006801081B68010895233F2448
:1020300006AA9B18DB7F0A211C402000DB090293C3
:10204000FEF722F9C9B2019120000A21FEF796F8A5
:10205000D14FC0B2009024233A00C0217AA812F0D8
:10206000BFFF7AA8FFF714FD002802D0CB49CC4A65
:1020700098E6B52006ABC01832000421FFF743FCF8
:102080002523C021C74A00967AA812F0A9FF7AA892
:10209000FFF7FEFC002802D0C049C34A82E6B923FC
:1020A00006A95B181B78C0210093C04A29237AA88F
:1020B00012F096FF7AA8FFF7EBFC002802D0B74990
:1020C000BB4A6FE6BA230F2406AA9B181B78B949AE
:1020D0001C401B09013BDBB20B2B02D8B64A9B000C
:1020E000995800912A23C021B44A01947AA812F089
:1020F00077FF002807DA1E20A849B14A01F022FA2A
:10210000A649B04A10E67AA8FFF7C2FC002802D020
:10211000A249AD4A46E6BB23012006AA9B181B78BC
:10212000AA4A99080140049159090140039199096B
:1021300001400291D90901910093C0212B237AA873
:1021400012F04EFF7AA8FFF7A3FC002802D09349B3
:102150009F4A27E6BD2306A95B181B78C02101937F
:1021600035AB1B789B4A00937AA82C2312F038FFDA
:102170007AA8FFF78DFC002803D08F2287499200B0
:1021800010E6BE2306AA9B18BF221B78079306AB56
:10219000D218117836AA12789446C122D218107833
:1021A000C222D2181678C322D21817780A00079BC9
:1021B0001A4063461A40FF2A10D100902E23C021F6
:1021C000854A029701967AA812F00AFF7AA8FFF7CB
:1021D0005FFC002810D096227049D0E70293079B3D
:1021E000039001910093C0212E237C4A0597049609
:1021F0007AA812F0F5FEE9E737AB1B78C02100930F
:10220000774A34237AA812F0EBFE7AA8FFF740FC55
:10221000002802D06149734AC4E5C52306AA9B1869
:102220001B78C021099300936F4A35237AA812F0D6
:10223000D7FE7AA8FFF72CFC002802D057496B4A3A
:10224000B0E5C62306AA9B181B780A930A9A684B26
:10225000FF2A00D1674B01930A9BC0210093664A75
:1022600036237AA812F0BCFE7AA8FFF711FC0028EA
:1022700002D04A49614A95E5C72006ABC01804213F
:10228000FFF734FB0300079001330DD13723C02142
:102290005B4A7AA812F0A4FE7AA8FFF7F9FB071EA2
:1022A0004AD03E49574A7DE5079BC0210093564AD4
:1022B000372301947AA812F093FEEDE7B21C0B923B
:1022C000934202D22300514A41E52AA802218019F3
:1022D000FFF70CFB4E4B82B29A420FD13300C02164
:1022E0004C4A00947AA812F07BFE7AA8FFF7D0FB44
:1022F000013400284ED0AC22284940E70A9AE3B2C4
:1023000080B293420FD3089B01330CD0089B0190FD
:102310001B1A08930293C02133003F4A00947AA805
:1023200012F05EFEE1E701903300C0213B4A0094C9
:102330007AA812F055FED8E73B260400079B0893C5
:102340000999E2B26B1E0B928A42B7D302222AA8E5
:10235000115C01327F18FFB29342F9D8A422920097
:1023600006A99A1852182E49521814782D49A742D6
:1023700000D12D4902912D4AC021019700947AA8DD
:1023800012F02EFE7AA8FFF783FB002852D00349F3
:10239000274A07E50B9ED3E73A6801083064010835
:1023A00005020000626801080F0200007D68010854
:1023B000160200008765010890D901089C68010891
:1023C000220200001203000023020000C36801087B
:1023D00031020000016901082369010855690108FB
:1023E0008D69010862020000A96901086A02000003
:1023F00069AE01088F650108C46901087302000015
:10240000E1690108870200000E6A0108376A0108C5
:10241000FFFF0000536A0108806A0108AC6A0108E6
:1024200000FEFFFFA3650108E7990108CA6A0108D9
:10243000C3020000074BA74200D1074B0293079B42
:10244000C0210193099B054A00937AA82B0012F042
:10245000C7FD80E4348B0108E7990108FA6A010896
:1024600010B504210148FFF7C7FA10BDC3D9010810
:10247000F0B5BF4BCFB01B780E93012B06D0BD49F2
:10248000BD4A022001F05EF8022005E0FFF75CFA89
:1024900003000A20002B08D04FB0F0BD0021B44A41
:1024A0000B00907801281DD19170B449B4480A8876
:1024B000008893B2824201D100F08CFEB14AD25C16
:1024C00001339BB2D2B27F2B00D9002333200B8083
:1024D00008ABC01802700A2AE0D00D2A01D000F023
:1024E00034FE0E9B0022A24CA370A388E3181A743A
:1024F0006378012B04D1A448FFF7B6FA0028CBD1AA
:10250000237C002B00D1A1E10CF0F8FC0600FFF7C2
:10251000A5F8050001F01EF80F9002F009F804007C
:1025200006F092F8994B0700994918000D93FDF7B2
:10253000EBFD002800D0AEE09648FFF7A9FA00288E
:1025400000D0A6E09448FFF7A3FA002800D0A0E04E
:102550009248FFF79DFA002800D09AE09048FFF7D4
:1025600097FA002800D094E08E48FFF791FA0028EF
:1025700000D08EE08C48FFF78BFA002800D088E06E
:102580008A48FFF785FA002800D082E08848FFF7E4
:102590007FFA00287DD18748FFF77AFA002878D1A2
:1025A0008548FFF775FA002873D18448FFF770FA61
:1025B00000286ED18248FFF76BFA002869D1814864
:1025C000FFF766FA002864D17F48FFF761FA002818
:1025D0005FD17E48FFF75CFA00285AD17C48FFF7AC
:1025E00057FA002855D17B48FFF752FA002850D1FE
:1025F0007948FFF74DFA00284BD17848FFF748FAA1
:10260000002846D17648FFF743FA002841D17548A3
:10261000FFF73EFA00283CD17348FFF739FA00284B
:1026200037D17248FFF734FA002832D17048FFF7EB
:102630002FFA00282DD16F48FFF72AFA002828D159
:102640006D48FFF725FA002823D16C48FFF720FAE0
:1026500000281ED16A48FFF71BFA002819D16948E3
:10266000FFF716FA002814D16748FFF711FA00287F
:102670000FD16648FFF70CFA00280AD16448FFF72B
:1026800007FA002805D16348FFF702FA002800D1B5
:10269000DCE0092000E760490D98FDF735FD0028D2
:1026A00011D10CF02FFCC02100905C4B5C4A1EA89D
:1026B00012F096FC002856DA2E495A4A1E2000F0E5
:1026C00041FF1E20E8E658490D98FDF71DFD002842
:1026D0002ED1737A0D9333690F9373691093636AE4
:1026E000119303F07FFA129005F0A8FF04000BF09D
:1026F00021FAB3790500F76913930BF02DFA139BB8
:1027000008900693129BC0210393119B474A0293A2
:10271000109B079701930F9B0595009304940D9BC5
:102720001EA812F05DFC00281DDA1249404AC5E7D8
:1027300040490D98FDF7E8FC002800D07EE0A9682C
:102740002B7F069169783C4A059169681EA804911F
:10275000A96903916969029129690191E968009168
:10276000C02112F03DFC1EA8FFF792F996E2C04688
:10277000D000002030640108150600002801002068
:102780002A0100202C01002067AE0108E000002093
:10279000486B01084D6B01087A6B0108AB6B0108AF
:1027A000DA6B01080D6C01083F6C0108716C0108BF
:1027B000A76C0108D76C0108046D0108446D01087D
:1027C000796D0108B66D0108E76D01081C6E0108FE
:1027D000546E0108866E0108B86E0108F76E010894
:1027E000296F0108606F0108936F0108CC6F010821
:1027F000017001083D70010886700108D170010860
:10280000077101084D7101087F710108B671010857
:10281000EC7101081B720108898701084B720108DD
:1028200090C301083B040000FD6C010863720108BD
:102830004E040000B6720108BC720108D8490D9818
:10284000FDF762FC00280ED1FEF79CFFD54B9A687D
:1028500001329A6000229A801A74FFF701FE002864
:1028600000D122E618E6D0490D98FDF74DFC00286E
:1028700012D10F990F9B89681B7801910F99CB4A50
:1028800049681EA80091C02112F0AAFB002800DBB5
:1028900069E7C749C74A11E7C7490D98FDF734FCF6
:1028A000002805D0C5490D98FDF72EFC002861D100
:1028B00001F03EFE04000EF05BFE0D9003F092F975
:1028C000050003F099F9676A0600A46A05F0B6FEF0
:1028D0002B000390C021BA4A0294019700961EA8CB
:1028E00012F07EFB002802DAB149B64AE6E61EA8DD
:1028F000FFF7CEF8051E10D0AD49B34A092000F00D
:1029000021FEC6E61EA8FFF7C3F8002802D0A8499A
:10291000AE4AF3E701350C2D98D0E8B201F00CFE79
:10292000041EF7D04669002E01D00D9B9E1BA768A0
:10293000002F00D1A64F23690F93E3681093A0786E
:1029400001F004FE237F069607932379C0210593A7
:10295000E378A04A0493109B039002930F9B009787
:1029600001931EA82B0012F03BFB0028CADA904905
:10297000994AA3E699490D98FDF7C6FB002806D0B1
:10298000974D98492800FDF7BFFB00281BD103F0A5
:1029900029F9050003F030F9A369C02105936369A3
:1029A000914A049323690393E3680293A368009018
:1029B00001931EA82B0012F013FB002800DBD2E6C7
:1029C0007B498A4A7AE628008949FDF79DFB002861
:1029D00005D028008749FDF797FB002810D17969B9
:1029E000FB7804913969844A0391F9681EA8029121
:1029F000B968019179680091C02112F0F1FAB2E64C
:102A000028007E49FDF780FB00282FD10BF092F8BB
:102A1000636A0D900F93B379F7691093337A346C2E
:102A20001193336AB5691293B36A13930BF094F858
:102A3000F36CC0210A93336D714A0993139B08907C
:102A40000593129B07950393119B06940293109B89
:102A5000049701930F9B1EA800930D9B12F0C0FAE0
:102A6000002800DB7FE65249664A27E628006649CF
:102A7000FDF74AFB00281FD100F036FD040000F0EE
:102A800039FD050000F034FD060000F03FFD230095
:102A9000211E01D0A368E1680391029301902B00ED
:102AA000C0215A4A00961EA812F09AFA002800DBAC
:102AB00059E63F49564A01E628005649FDF724FBEE
:102AC000002856D1159016901790189017AB18AA99
:102AD00016A915A8FEF7CAFB4F4C002814D1179B66
:102AE00021000293189B4D4A0193169B02300093DC
:102AF0001EAD159B03F034FF29004948FEF778FC12
:102B0000002808D0474A00E0474A2100042003F08B
:102B100027FF1F20C0E41E9E301CFEF769FA6F6875
:102B20000D90381CFEF764FA0500FEF781FA011CCF
:102B3000381CFEF71BF83D49FDF7C6FEFEF758FAB4
:102B400002900D980195FEF773FA011C301CFEF7F8
:102B50000DF83649FDF7B8FEFEF74AFAC317C0185C
:102B60005840009021000D9B314A022003F0F8FEEE
:102B70006CE6304E28003100FDF7C6FA002878D107
:102B800001300CF05FF90CF019FA08F009FE00288A
:102B900054D00749284A1F2000F0D4FCB9E7C046AA
:102BA0001A8D0108D00000205A750108027301082F
:102BB0003064010871040000227301082D730108BC
:102BC000327301089A0300009B030000B603000063
:102BD0007CD901085C730108B5030000A6730108E5
:102BE000E0000020AA730108AF730108860400000A
:102BF00061790108FD730108037401084A6B01083B
:102C000040740108AA040000746D0108B47401083E
:102C1000BB040000E47401081D750108E874010894
:102C2000F00C00204F750108217501080000C84212
:102C30003075010860750108FA0400000CF0BEF957
:102C400008F0F0FD041E02D0BA49BB4AA3E70CF01D
:102C5000B5F9012008F068FF012008F0ADFF0CF085
:102C6000ADF909F029F80CF0A9F920000CF0EAF808
:102C7000ECE52800B149FDF747FA002806D1FEF738
:102C800013FF002815D0AB49AD4A37E62800AD49FF
:102C9000FDF73AFA002806D1FEF706FF002801D01A
:102CA000FFF7FAFBD2E52800A749FDF72DFA002827
:102CB00002D1FEF71FFFF1E72800A449FDF724FA2F
:102CC000002802D1FEF7E6FFE8E72800A049FDF75B
:102CD0001BFA002801D10130F4E728009D49FDF7D7
:102CE00013FA00280BD101F01BFC9B4A031E9B48E2
:102CF00000D139E5C0211EA812F072F933E5280091
:102D00009749FDF701FA00281FD100F0ABFB954A67
:102D1000031EEFD101F004FC041E04D000F0BEFB42
:102D20002300914AE6E700F0E9FB040000F0EAFB2B
:102D300023000090C0218D4A1EA812F051F90028EE
:102D400000DB10E57B498A4AB8E428008949FDF791
:102D5000DBF9002806D028008749FDF7D5F90028BF
:102D600000D085E00AF008F8041E03D1D52271498D
:102D7000FFF787FB03788148012B00D0F4E46278E9
:102D800023696069A569E6687D49012A03D07D4908
:102D9000022A00D07C49277A7C4A0697E778059773
:102DA000A77803910090C0210497029601951EA870
:102DB00012F016F91EA8FEF76BFE002802D0E822DA
:102DC0005C499BE5A17A23790491E179704A0391EA
:102DD000A1791EA80291617A019161790091C021C7
:102DE00012F0FEF81EA8FEF753FE002802D0F422CF
:102DF000504983E5637A002B11D06648FEF748FE00
:102E0000002802D0F8224B4978E52000617A1C3076
:102E1000FEF7F6FE00280AD0F92246496EE55E4824
:102E2000FEF736FE002802D0FF22424966E5A37A6B
:102E3000002B14D05948FEF72BFE002803D0822225
:102E40003C4952005AE52000A17A5C30FEF7D8FEDA
:102E5000002800D1FAE406223649FF324EE55048F8
:102E6000FEF716FE002800D1F0E40C223149F4E709
:102E70004C4F28003900FDF747F9002806D00422FE
:102E80002800494912F07DF9002816D1474B4848DF
:102E9000DB7C002B00D147481EACC022210002F091
:102EA000BDFE031E07D02278002A04D1C0212000D5
:102EB000414A12F095F8200056E428003F49FDF7FA
:102EC00023F9002816D102F08DFE050005F0B6FBAF
:102ED000E378C0210293A378394A019300902B0034
:102EE0001EA812F07DF8002800DB3CE41149354AA9
:102EF000FFF7E4FB09222800334912F042F92B4C7A
:102F0000002807D008222800304912F03AF900289A
:102F100000D0FFE0E37C2E490E9C662B01D00024FC
:102F20002C49280018AA12F08FF8012856D02A48F8
:102F30001AE4C04630640108FC040000667501080C
:102F40000C0500006C750108777501088275010891
:102F50008D75010897750108E1750108A1750108D3
:102F6000B2750108BA750108D9750108FD75010827
:102F70004A050000237601082C76010838760108FE
:102F8000A0D10108B9D80108286B010846760108CC
:102F900094760108CC760108E0760108FA760108FB
:102FA0000F7701082A7701082E770108D00000204A
:102FB000E400002069AE010833770108A773010817
:102FC000517701086B050000727701087C770108D2
:102FD0003A6B01082D6B0108857701087F4918A815
:102FE000FDF792F800285CD07D4918A8FDF78CF811
:102FF000002863D07B4918A8FDF786F800285DD02B
:10300000794918A8FDF780F8002859D0774918A801
:10301000FDF77AF8002853D0754918A8FDF774F821
:1030200000284FD0734918A8FDF76EF8002849D042
:10303000714918A8FDF768F8002845D06F4918A80D
:10304000FDF762F800283FD06D4918A8FDF75CF83D
:1030500000283BD0390018A8FDF756F8002837D0D3
:10306000310018A8FDF750F8002833D0654918A89A
:10307000FDF74AF800282FD0634918A8FDF744F857
:1030800000282BD0614918A8FDF73EF8002827D06A
:103090005F4918A8FDF738F8002821D05D48FFF7F0
:1030A00063FB0E9D002228001100012C1AD101F0B3
:1030B000C1F9594C031E1AD0584A1BE60225F1E704
:1030C0000325EFE70825EDE70525EBE70A25E9E706
:1030D0000E25E7E71525E5E71925E3E71C25E1E7D8
:1030E0002825DFE701F0ADF94D4C031EE4D128009F
:1030F00001F02CFA23000090C0214A4A1EA811F0CA
:103100006FFF002801DBFFF72EFBB2224649D200F9
:10311000FFF7D4FA28004549FCF7F6FF002804D150
:10312000012343486370FFF71FFB28004149FCF768
:10313000EBFF002803D160703F48FFF715FBE36801
:103140003E480133E360FFF70FFB082A01D07F2AD6
:1031500016D13B4A9388002B01D1FFF7A6F9002135
:10316000013B9BB29380D31819745378012B01D083
:10317000FFF79BF933480331FEF73EFCFFF76FFB87
:103180001300203B5E2B01D9FFF78FF92C498B8868
:103190003E2B11D900232C488B800B74FEF778FC52
:1031A000002801D1FFF759FB0D201F49274A00F0E5
:1031B000C9F90D20FFF770F9CC18227400220133F1
:1031C0009BB28B80CB181A744978012901D0FFF784
:1031D0006CF9D1E70020FFF75FF9C0469C75010844
:1031E000D8770108DD770108E2770108E877010860
:1031F000EC77010842B40108F2770108F57701087D
:103200000278010808780108DA8C01085978010869
:103210000F78010814780108B07101085F7801087F
:10322000777901087A7801083064010895780108F7
:103230009D780108AA780108B3780108C1780108CF
:10324000D0000020C0D90108DE780108E7050000A1
:10325000030070B5002820D0124883421DD11249C6
:10326000124C0A782388D2B29DB201339BB27F2BD5
:1032700000D900230E4E36889E420FD10D4A1368A6
:103280000133136000230C4C0122237011F0AAFDBE
:10329000FD23184201D1FC3B237070BD074E7255CF
:1032A0002380EFE7E00B0020AC0100202A01002082
:1032B0002801002024010020200100202C010020F2
:1032C00010B5002815D00B4B984212D10F2203687D
:1032D000094C1A629969073A0A439A61002301224C
:1032E0000649237011F07EFDFD23184201D1FC3BFD
:1032F000237010BDE00B002020010020AC01002055
:1033000000487047D0000020012370B5050001215E
:103310003C355B420278534008221C005E080C409A
:103320000B4200D0054C3300013A6340002AF4D12F
:103330000130A842EED1D84370BDC0462083B8ED1D
:1033400070B5010094B0002808D14B220120224919
:1033500000F0F8F80125280014B070BD04AE40223A
:10336000300011F07DFF3000FFF7CEFFF0630EF06C
:10337000D9FD041E05D0502217491F2000F0E2F8A5
:1033800010E0164B164A69469A61164B019002935B
:103390000123009001A803930EF0BCFE002803D087
:1033A0000EF0F2FD1F25D6E70E4B02203259E11830
:1033B0000EF032FE0028F3D10434402CF4D10EF08C
:1033C000E3FD051E02D06A220349D6E72200310040
:1033D000054811F045FFBEE72979010800200240A9
:1033E000020F000000E00108B001002070B5174C8A
:1033F00040222000164911F033FF164D2368AB42DE
:1034000004D1802362685B029A4213D034220021E7
:10341000114811F08BFE80235B02636001232000C2
:103420002560A360FFF770FFE06301220B4B0020D3
:103430001A7070BDA368013B012BE7D82000E66B32
:10344000FFF762FF8642E1D1EFE7C046B0010020FE
:1034500000E0010854425544BC010020AD010020A9
:103460007047000000B50B4B91B01B78012B01D0C9
:10347000FFF7BCFF40220849684611F0F1FE022325
:1034800068460393013B04930593FFF759FF11B07E
:1034900000BDC046AD010020B001002000B50A4BC0
:1034A00091B01B78012B01D0FFF7A0FF4022074904
:1034B000684611F0D5FE00236846039304930593F4
:1034C000FFF73EFF11B000BDAD010020B0010020AC
:1034D00010B5044B1B78012B01D0FFF787FF0020AC
:1034E00010BDC046AD01002000487047B00100206B
:1034F0000120704700487047447901080048704730
:103500004A7901080048704700000108044B05484B
:103510005B69042B02D8044A9B0098587047C04648
:10352000B001002050790108C8D901080022034BDE
:1035300003491A7059609A607047C0460000002025
:103540007C790108024B187059609A607047C04638
:1035500000000020004870470000002072B6C046FE
:10356000FDE70000014B18707047C0460C000020BA
:1035700070B5041E28D085781F2306880B2D1DD812
:103580000122A521AA400901013B0A4216D10133BB
:10359000022D13D1033BB20710D164213000FCF798
:1035A00073FE89B21D23002908D191313000FF310B
:1035B000FCF76AFE8BB25A4253411C33E278013267
:1035C000D2B29A4201D8E27070BD0123ED18EDB27B
:1035D000E3700C2D01D8A570F6E70136A3702680A4
:1035E000F2E7000010B510220021024811F09EFD04
:1035F00010BDC046E802002010B5041E05D10949DF
:10360000094AFFF79FFF200010BD0279074B41795F
:103610005343074A4A439B188279FA20800050435B
:103620001818F1E781790108B503000080EE360033
:1036300060EA0000F8B507000D00141E06D11D4910
:103640001D4A0120FFF77EFF0120F8BD1B4B994268
:1036500003D9FB2217499200F3E700261849D671D7
:10366000FCF78CFD642120803800FCF787FD642185
:10367000FCF70AFE3800A1706421FCF705FE280063
:10368000E1701049FCF77AFD0E4920712800FCF723
:10369000FBFD08000C49FCF771FD0B496071280027
:1036A000FCF7F2FD0800FA218900FCF767FDA07124
:1036B0003000CAE781790108EB030000FF5B2605B3
:1036C0001027000080EE360060EA0000F0B589B0F7
:1036D00006000D0017000193282819D802AC182203
:1036E0000021200011F022FD0123A6702370E57057
:1036F0000DF03EFF019B6060A7602000E360012D9C
:1037000003D104F0ADFE09B0F0BD04F0E3FEFAE72A
:1037100001200349034AFFF715FF0120F3E7C046E4
:1037200081790108E1020000F0B585B00C001F1E90
:10373000019202D00A9B002B08D11549154A01209D
:10374000FFF700FF0125280005B0F0BD02AE3200F2
:10375000FFF770FF019B0500E418002807D00C4913
:103760000D4AECE70D4B3000E418FFF701FF0C4B5E
:103770009C42F7D832880B4BB178534364224A43BA
:103780009B18F2789B183B600A9B1C60DBE7C046E5
:10379000817901082B0400002E04000000A4D9FA4E
:1037A000FF5B260510270000F7B51E00089B0500EB
:1037B0000F001000002B02D0099B002B06D11049EE
:1037C000104A0120FFF7BEFE0120FEBD03F0C2FD3E
:1037D000012802D00A490C4AF3E7099B3200009302
:1037E00039002800089BFFF79FFF002802D00449FA
:1037F000064AE6E70A9B002BE7D01860E5E7C046DB
:10380000817901088B0400008C0400009C040000F6
:10381000F0B5040085B00800002C07D11C491D4AF2
:103820000120FFF78FFE012005B0F0BD03F092FDEF
:10383000012802D01649184AF2E702AD08222100F9
:10384000280011F00DFDE3782000A6782788019369
:10385000FFF7D2FE1149FCF791FC431C0F48584377
:103860000F4B984207D92800FFF782FE0020EB7823
:103870002F88AE78019364210A4B71437B435B1818
:103880000199094A5B18906053600020CCE7C0465C
:1038900081790108030400000404000060EA0000CC
:1038A000FF5B26051027000038030020F0B5394BD8
:1038B00093B0DB68DB060FD4374CE378002B04D0E1
:1038C0000320364A364903F04BF8002302252380B3
:1038D000E370280013B0F0BD06A8FDF707FF051E32
:1038E00005D03049304A2800FFF72CFEF1E708A840
:1038F00003F0C8FDFD230500184216D102AAE03BE3
:103900009B18D87F022603F031FD234CFF36238815
:103910000100B3420CD006A8A170FFF779FF051E85
:103920000ED001201F49214ADEE71E49204ADAE76E
:10393000A3788342EFD1E378012BECD10025C8E7CF
:103940000123A768E370A3782680380019490593FE
:10395000FCF79AFC0800FA218900FCF70FFC1649D5
:1039600003903800FCF790FC08001249FCF706FCB5
:10397000114902903800FCF701FC019063680F4E7A
:10398000074D009332002900059B022002F0E8FF5A
:10399000D4E7C0460028004038030020977901088A
:1039A00064C8010881790108C4040000D60400003D
:1039B000C704000060EA000080EE3600D3790108F9
:1039C000F0B591B0041E0B910C920D9307D1D42247
:1039D00001204449D200FFF7B5FD01270CE0002388
:1039E0000B9A0EAE30001370FDF780FE071E06D056
:1039F0003C493D4AFFF7A6FD380011B0F0BD3388C1
:103A00003A4DB2785D4364235343ED18F3783000A8
:103A1000ED18FFF7F1FDA368AB4261D802D1E2686F
:103A200082425DD82269934203D16269E3689A4277
:103A3000E2D001250B9B1D702300A068E1681C33B8
:103A4000A278206161610293103B0193043B0093D3
:103A50000D9BFFF7A9FE002803D028002149244A26
:103A6000B9E7E668A3783000224965690893FCF756
:103A70000BFC0800FA218900FCF780FB1E49079027
:103A80003000FCF701FC08001A49FCF777FB1A49E3
:103A900006903000FCF772FB0590A36828001549DA
:103AA0000493FCF7F1FB0800FA218900FCF766FBA0
:103AB000114903902800FCF7E7FB08000D49FCF7CB
:103AC0005DFB0D4902902800FCF758FB019023692B
:103AD0000A4A00930A490C9B022002F041FF8BE73F
:103AE0001C2789E781790108A4060000102700003F
:103AF000C106000060EA000080EE3600137A01087B
:103B000064C80108F0B591B004000F000C920D9349
:103B1000002809D14349444A0120FFF713FD01233E
:103B20000B930B9811B0F0BD00230EAE30000B705C
:103B3000FDF7DCFD0B90002804D03A493B4AFFF723
:103B400001FDEEE733883A4DB2785D436423534379
:103B5000ED18F3783000ED18FFF74EFDA368AB4287
:103B6000DFD802D1E2688242DBD82269934203D1D6
:103B70006269E3689A42D4D0012523003D70A068B1
:103B8000E1681C33A278206161610293103B0193CC
:103B9000043B00930D9BFFF707FE002802D021494C
:103BA000244AB9E7E668A378300023496569089399
:103BB000FCF76AFB0800FA218900FCF7DFFA1F49CD
:103BC00007903000FCF760FB08001B49FCF7D6FAB1
:103BD0001A4906903000FCF7D1FA0590A368280036
:103BE00015490493FCF750FB0800FA218900FCF703
:103BF000C5FA124903902800FCF746FB08000E495D
:103C0000FCF7BCFA0D4902902800FCF7B7FA0190C6
:103C100023690B4F00933A000C9B0A49022002F0E3
:103C20009FFE7EE781790108330600003706000019
:103C3000102700005406000060EA000080EE360005
:103C4000767A010864C80108F0B58BB0051E0691AC
:103C5000079206D12B492C4A0120FFF773FC01245F
:103C600009E008AE3000FDF741FD041E06D02549ED
:103C7000264AFFF767FC20000BB0F0BD3388244CC8
:103C8000B2785C4364235343E418F3783000E418BB
:103C9000FFF7B2FC2B00069A1E4E0C330100009376
:103CA00020007243043BFFF73FFD041E02D015497C
:103CB000194AD1E7EF68E86128616861174938005F
:103CC000FCF7E2FA0800FA218900FCF757FA310004
:103CD00004903800FCF7D8FA08001049FCF74EFAB7
:103CE000310003903800FCF749FA0290AB680C4AA7
:103CF0000193069B0B4900930320079B02F030FEC3
:103D0000B9E7C046817901080B0700000E070000E3
:103D10001027000080EE36001907000060EA00005E
:103D2000CF7A010864C80108F0B593B004000F0011
:103D30000A920B93002806D16E496F4A0120FFF7C3
:103D400001FC012317E06D4BDB68DB0615D4C3785B
:103D5000002B07D0189B03200093694A69490B9BED
:103D600002F0FEFD00232380E370A360E360236183
:103D70006361E3610233099316E0002909D14378B6
:103D8000012BEFD1604A5F490B9B022002F0E8FD56
:103D9000E8E710AD2800FDF7A9FC0990002806D03F
:103DA00054495A4AFFF7CEFB099813B0F0BD3800CA
:103DB00003F0D0FA0600012802D04E49544ABDE76C
:103DC0002379012B0BD0FDF753FD0A9B3D21584071
:103DD000FCF75AFAFA239B004B432671A361022297
:103DE0002388FF32934205D1A378BB4202D1E37806
:103DF000012BD9D0A3693800A7700D9303F0AAFA5C
:103E00000A90012808D08C223A49D2000120FFF7FD
:103E100099FB38493F4A91E72B883F4EAA785E4389
:103E200064235343F618EB782800F618FFF7E4FBF9
:103E30000FAB010000933000199A0EABFFF774FC32
:103E4000002802D02B49354AE0E70F9B344918007F
:103E500079430C93FCF792F905000E9EFDF708FDDF
:103E6000304A3B066A437340534058400B21FA25C1
:103E7000FCF70AFAAD004D430D9B30005A192300A0
:103E80000C3300930C99043BFFF74EFC002802D042
:103E90001849254ABAE70223FF3323800A9BE768C3
:103EA000E370E5610695A369380020490593FCF7A6
:103EB000EBF90800FA218900FCF760F91849049031
:103EC0003800FCF7E1F908001849FCF757F91449E4
:103ED00003903800FCF752F90290A368144E019346
:103EE000A3783200009307490B9B022002F038FDB3
:103EF0005AE7C04681790108BD050000002800404E
:103F0000107B010864C80108257B0108D405000066
:103F1000D6050000EF050000102700006F04000028
:103F200080EE3600B179379E7704000060EA000029
:103F30003C7B010810B58CB002A803F0A3FAFD2366
:103F40000400184213D1EF3B6B44D87F03F00EFA04
:103F5000094A0A4C01920A4A010000922000094BCA
:103F6000094AFFF7E1FE040020000CB010BD07492C
:103F7000074AFFF7E7FAF7E7C0D40100180300206B
:103F8000AC7B0108967B01084356525381790108A6
:103F90000706000010B58CB002A803F073FAFD23E9
:103FA0000400184213D1EE3B6B44D87F002801D0A7
:103FB00003F0DCF9094A0A4C01920A4A0100009216
:103FC0002000094B094AFFF7AFFE040003E008494F
:103FD000084AFFF7B7FA20000CB010BDE0930400C8
:103FE000F8020020DC7B0108C97B0108544D474DD5
:103FF000817901081B060000A02010B5C005002231
:10400000042102F0ABF8002010BD000070B51D4D7A
:104010002B78012B34D01C4C1C4920000BF0A6FC43
:10402000002801D01E2070BD194E21003000194B10
:10403000194A0CF0D9F80028F4D1320021001748B1
:104040000CF074FE0028EDD1154E210030000BF06D
:104050005BFA021EE6D1300012490BF071FA200023
:1040600008F084FC0028DDD1FF220F4B0F491870A7
:104070000F4B02301A7001230E4A2B7002F070FCB5
:104080000020D0E7F6010020C0020020440D0020EF
:1040900044020020F8DA010808DB01081C020020B5
:1040A000F801002065350008F701002064C8010808
:1040B0000C000020FC7B0108012210B5034B0220FC
:1040C0001A700349034A02F04BFC10BDF7010020AF
:1040D00064C80108207C010870B5051E07D10120C5
:1040E0000B490C4AFFF72EFA0124200070BDFFF7A0
:1040F000DDFB041E04D00649074AFFF723FAF4E764
:10410000064B2A0099685868FFF794FA0400ECE718
:1041100081790108770A00007A0A0000380300203C
:10412000F0B593B00D90002806D19849984A012027
:10413000FFF708FA01240AE0FFF7FCFEFD23050063
:10414000184207D09149934AFFF7FCF92C00200050
:1041500013B0F0BDFFF71EFF041E0F9000D107E162
:10416000022800D101E189498B4AFFF7EBF9EEE71C
:1041700032888A4BB178534364224A439B18F278C1
:1041800030009B180B93FFF737FA0E90002D4CD0A0
:10419000002C00D1BBE0E3E0EB6881490A930C9B63
:1041A0000A98013707930897FCF76EF80800FA2180
:1041B0008900FBF7E3FF7B4906900A98FCF764F857
:1041C00008007749FBF7DAFF764905900A98FBF774
:1041D000D5FF0490AB68300071490393FCF754F8A5
:1041E0000800FA218900FBF7C9FF6E4902903000F0
:1041F000FCF74AF808006A49FBF7C0FF69490190DB
:104200003000FBF7BBFF23000090674A032067499B
:1042100002F0A6FB8023DB009F4207D15B49644A82
:104220001F20FFF78FF91F2491E72F00614D0B9B93
:10423000AC68EE689C4203D315D80E9B9E4212D800
:10424000EB6931000C935C4BAA7802935B4B200026
:1042500001935B4B00935B4BFFF7A6FA00289BD0C2
:104260004A49594A63E70F9B002B4FD03100200089
:104270000D9AFFF7DFF9040069E70A9B484901330B
:104280000A93F3680C930A9B0C9808930F9B07936F
:10429000FBF7FAFF0800FA218900FBF76FFF41499D
:1042A00006900C98FBF7F0FF08003D49FBF766FF0E
:1042B0003C4905900C98FBF761FF0490B368280017
:1042C00037490393FBF7E0FF0800FA218900FBF769
:1042D00055FF344902902800FBF7D6FF080030490B
:1042E000FBF74CFF2F4901902800FBF747FF3B00ED
:1042F000364A00902D49032002F032FB80230A9AAF
:10430000DB009A4205D12149314A89E70124002383
:104310000A93304E0B9BB768F5689F4203D315D8BC
:104320000E9B9D4212D8F36929000F932A4BB27855
:1043300002932A4B38000193294B0093294BFFF736
:1043400033FA002899D01149274AF0E6012C07D109
:10435000184B9C68A74203D3DE6887D8B54285D83E
:104360001C4B0D9AD968986883E7002D00D0EEE6C3
:1043700010AE3000FDF7BAF9071E00D1F8E6034988
:104380001A4AFFF7DFF83C00E1E6C04681790108F0
:104390008F0A0000920A0000950A00001027000012
:1043A00060EA000080EE36003B7C010864C801082A
:1043B000C40A000018030020340300202403002056
:1043C00020030020C0D40100B70A0000C77C010808
:1043D000EC0A0000F802002014030020040300206F
:1043E00000030020E0930400DF0A00009D0A0000A3
:1043F00000230B4A10B51380D37093605360094AB1
:1044000002201380D3709360D360074A074913805A
:10441000D3709360D360064A02F0A2FA10BDC04682
:104420003803002018030020F802002064C80108A7
:10443000507D010810B513000A000121FFF746F96D
:1044400010BD10B513000A000021FFF73FF910BDA1
:10445000F7B5D822254C520000212000F426FA2777
:1044600010F064FE0023224AF600BF0021489900A4
:10447000415801209160204998408C46FA216546B8
:1044800013704900284204D13900304201D1594209
:104490005941D16002210133117720320C2BE5D133
:1044A000012525700024154B21001C70144B10228F
:1044B0001C70144B14481C70144B1C70144B1C7053
:1044C000144B1C7010F032FE21002022124810F014
:1044D0002DFE21002022114810F028FEFFF782F85F
:1044E000280022002100FFF7ACFFFEBD480300209A
:1044F0004C03002080DA01085A080000F501002072
:10450000F4010020F301002038030020F201002014
:10451000F1010020F001002018030020F802002023
:1045200010B5012200210820FFF78BFF10BD00000D
:1045300000487047CC040020030000200B2B02D859
:1045400001485B01181870474C0300200300034822
:10455000282B02D8024A9B0098587047B67D010864
:10456000DCD90108F0B5224C8DB00B934301E4185F
:10457000A37915000893E37907000993237AE27180
:104580000A9300230E002372A1710CF0F1FF0123A6
:104590000B9A6371E318DA776369A0610133636191
:1045A000089BE061B34205D1099BAB4202D10A9B53
:1045B000002B1AD00F4ABB0008989C58FFF7C6FF83
:1045C00007003000FFF7C2FF0B9B0190069300230A
:1045D00005930A9B02200493099B074A029307490B
:1045E00023000395009702F0BBF90DB0F0BDC04663
:1045F0004803002080DA0108BE7D010864C8010874
:10460000002310B51A0003211800FFF7ABFFFDF7D8
:104610002FFF00220400030003211000FFF7A2FF78
:10462000200010BDF0B5A1B00D000790282801D9D9
:1046300001F08EF88623B74CFF33E0540CF098FF5E
:10464000CE2301225B00E05000200C33E250203BDF
:10465000E0540AF00DFC0690002806D0AE49AF4A9F
:104660001E20FEF76FFF1E2384E0079B581E27289D
:1046700001D901F068F8FBF777FD28006608EA0029
:10468000F600FD00F6001F01020124012B013F018D
:104690007901330239025302C202CC02DB02D60294
:1046A000E502F302410452041206180626062A0601
:1046B00030063E06B207B607BC07CA07E507E9079A
:1046C000F50708085D0842086108002303211A0065
:1046D0001800FFF747FF002304211A000120FFF70D
:1046E00041FF002307211A000220FFF73BFF0023B0
:1046F00009211A000320FFF735FF00230D211A00BE
:104700000420FFF72FFF002311211A000520FFF7D7
:1047100029FF002314211A000620FFF723FF00239E
:1047200018211A000720FFF71DFF00231B211A0084
:104730000820FFF717FF00231F211A000920FFF7A9
:1047400011FF002323211A000A20FFF70BFF00238B
:1047500025211A000B20FFF705FF0022032011007E
:10476000FFF76FFE011E07D06B496D4A1B20FEF755
:10477000E9FE1B23069367E002000420FFF761FEB9
:10478000011E02D06449674AF0E702000720FFF7E4
:1047900058FE011E02D06049634AE7E70200092083
:1047A000FFF74FFE011E02D05B49604ADEE70200C0
:1047B0000D20FFF746FE011E02D057495C4AD5E79F
:1047C00002001120FFF73DFE011E02D05249594A56
:1047D000CCE702001420FFF734FE011E03D087222D
:1047E0004D491201C2E702001820FFF72AFE011E00
:1047F00002D04949504AB9E702001B20FFF721FEC9
:10480000011E02D044494D4AB0E702001F20FFF7C5
:1048100018FE002802D04049494AA7E7012100229A
:104820002320FFF70EFE011E02D03B49454A9DE7BB
:1048300002002520FFF705FE002802D03649424A33
:1048400094E7C2235B00E054069821B0F0BDFFF767
:10485000D7FE002800D1E6E10A202F493B4AFEF7A7
:1048600071FE0A2386E7002305211A000120FFF7C5
:1048700079FED8E10122002306211000F7E7012D7F
:104880001AD1FA23324A9B003249032002F068F819
:1048900080212A00490030480DF0BCFDFA2080003C
:1048A0000CF06CFE72B6BFF34F8F2C4B2C4ADA60C3
:1048B000BFF34F8FC046FDE7002308211A000220F6
:1048C000D5E7FFF799FB00230A211A000320CEE762
:1048D000230068331D78012D0AD1002229000B2006
:1048E000FFF7AFFD2A00031E04D00B491D4A3DE728
:1048F00000231A000B21E9E7002201210C20FFF719
:10490000A0FD031E02D00449174A2FE701220C2103
:10491000DCE7C04648030020817901085808000000
:104920006A0800006B0800006C0800006D080000B9
:104930006E0800006F080000710800007208000097
:104940007308000074080000750800007B08000070
:10495000F57D010864C801080004005000ED00E086
:104960000400FA05B2080000BD0800002022002162
:1049700016A810F0DBFB07F09DFA0400031E06D01A
:104980000369002B03D00CF0F3FD2369C31ACF4A4F
:10499000CF49022001F0E4FFA02001220421C0053C
:1049A00001F0DCFB32200CF0E9FDCA4DCA4B2A684D
:1049B0009A4212D078220320C849FEF7C3FDA020F6
:1049C00000220421C00501F0C9FB03242300C44ACE
:1049D000BF49032001F0C4FF76E00F27082601F04D
:1049E000ABFC28000FF0A8FB2B6814201F629A690B
:1049F00032439A610CF0C2FD2B6864201F629A69F1
:104A000032439A610CF0BAFD642305222800B549AF
:104A100010F00AF8002806D0C2220920AF49FEF79C
:104A200091FD0924D2E72B6828001F629A6916A914
:104A300032439A6196231522DB0010F05BF80400E4
:104A4000032819D128000FF00FFB2B68079C1F6269
:104A50009A6916439E6164200CF090FDA02000220C
:104A60000421C00501F07AFB002C0ED0CE229B4918
:104A70002000FEF767FDA9E70028ECD0A4220A2059
:104A80009649FEF75FFD0A24E5E7914E15233100B4
:104A900016AA022001F090FF02F058F8050001204C
:104AA00002F04CF8152116A802F054F90400280071
:104AB00002F044F8002C02D0DA228849D8E731000D
:104AC0000220894A01F04CFF230000220921032023
:104AD000FFF748FDC2220121844B52009954B3E6EE
:104AE00009F042F900230E211A0014E02300883354
:104AF0001B78012B03D07E4B1B78012B0DD100229C
:104B000001210F20FFF79DFC031E02D07349794A53
:104B10002CE601220F210420A9E607F0ADFFE1E712
:104B2000754B1B78012B58D1714B1A78012A09D18A
:104B3000002272481A700BF01FFA71480AF034FD17
:104B400000284AD16F4B1A78012ACBD1FE321A7055
:104B500007F038FF002804D003206B4A5C4901F0BD
:104B6000FFFE16AD280008F05FF8061E35D12B7841
:104B7000012B23D16978AB7803916979544F029165
:104B8000297902200191E978604A0091390001F009
:104B9000E7FE6D78012DA5D1320029001520FFF721
:104BA00050FC031E9ED12A0015210620FFF7DAFCD7
:104BB0003900574A022001F0D3FE93E7554D2800F3
:104BC0000BF0C0FC00280FD053480CF0D7F8002899
:104BD00088D00238C0B2032884D940494F4A1F20E8
:104BE000FEF7B0FC1F23C5E5012128000BF030FBC8
:104BF000022800D876E7042800D173E7EDE7002308
:104C000010211A000420FFF7ADFCC22301225B0033
:104C1000E2544348FCF74AFC002804D00420414AEF
:104C2000414901F09DFEC22301225B00E2540BE6E4
:104C3000002213201100FFF704FC0028F3D02749BD
:104C40003A4A93E5002201211520FFF7FAFB021EE4
:104C500002D02249364A89E503001521062006E6DE
:104C60000023202104AA334DD377521813702B78D8
:104C7000012B00D0B4E06B78012B00D0C6E02E4BA6
:104C8000DB68DB0614D4A87805F030FB2B4A030060
:104C90000F49032001F064FE0022294B14211A70F1
:104CA000284B1A70284B1A70284B1A701300D5E73E
:104CB00016AF3800FCF71AFD00284BD00749244AEC
:104CC000FEF740FC92220549120188E7167E010892
:104CD00064C80108580B0020004400408179010895
:104CE000907E0108F0DA0108647E01084803002084
:104CF000F7010020E1080000F6010020C0020020BA
:104D0000F80100200C000020C67E0108EF7E01089B
:104D1000237F0108440200201C020020EF0800004D
:104D2000F00C0020427F01081D75010802090000F7
:104D300015090000E8020020002800404D7F01080E
:104D4000F4010020F2010020F1010020F001002018
:104D5000C50700003B88C94EBA785E4364235343BD
:104D6000F618FB783800F618FEF746FC6B68B3427D
:104D700003D82AD1AB68984227D2C14DA87805F054
:104D8000B5FAAE680790BF493000FBF77DFA08001E
:104D9000FA218900FBF7F2F9BB4903903000FBF7D9
:104DA00073FA0800B749FBF7E9F9B74902903000F8
:104DB000FBF7E4F901906B68B44F00933A00079B4E
:104DC000B349022001F0CCFD66E7A87805F08EFA21
:104DD0000300B04AAE49022001F0C2FDFEF702FC1A
:104DE000AD4D2B78012B7CD0AC4B1B78012B78D1AF
:104DF000FFF7A0F8022839D000282DD0CE22A849EC
:104E0000D200FEF79FFBA649A64AE8E6EE68002E10
:104E10001CD080235B029E4200D91E00300008F0A7
:104E20005BFF002802D09E499F4A49E7EB68A878BB
:104E30009B1BEB6005F05AFA0300E8689B4A01905F
:104E400093490096022001F08BFD25E7A87805F034
:104E50004DFA974A0300BDE71F2104AE954A9648D4
:104E6000964B8919FEF74EFE0028CCD1FFF792F839
:104E7000022810D0002806D08949914AFEF762FB2B
:104E80008749904AABE6904A9048914B0CA9FEF7AF
:104E900039FE0028F4D1202104ABDA7F5B181B789F
:104EA000012A13D0012B11D000228A4B06201A7040
:104EB0000C391300FFF756FBC22301225B00E254BA
:104EC0007349854A022001F04BFDBDE483490A7015
:104ED00083490B70012A03D0013B5A425341DAB295
:104EE0002A70002201211620FFF7ABFA031E02D020
:104EF0006B497C4A3AE401221621AFE6012009F011
:104F0000A1FF002201211720FFF79BFA031E03D007
:104F10006349754AFFF72AFC012217219EE65F4B81
:104F200016A809931B78089302F0ACFAFD2306003B
:104F30001E40184202D05A496C4A50E64F2304AA38
:104F40009B18DD7F002D03D0280002F00FFA05002A
:104F5000089B012B10D15F4F3B78012B0CD1644A89
:104F60004B49022001F0FCFC08F0D8FE002802D0DA
:104F70004B49604A33E6387006F07EFC0790002803
:104F800000D142E106F096FF41495B4B0891079939
:104F90005A4A009104000899032001F0E1FC06F050
:104FA00091FE031E07D00320554A089901F0D8FC52
:104FB000002009F047FF002C07D0257E082D21D0C6
:104FC000A827092D1FD0FEF70DFB0024414B22001E
:104FD000142106201C70079BFFF7C4FAC42201218C
:104FE000484B520099542000043A4918995409F04A
:104FF0005BFF0690A04201D1FFF726FC2849424AF8
:10500000FFF72EFB3027FEF7EDFA01231C4C23702F
:105010003E4BA570DA681023110019401A4200D1E6
:10502000D1E0FEF787FF0690022819D000280FD0A4
:105030001B49374AFEF786FA1949364A0698FEF7A1
:1050400081FA1749344A0698FEF77CFAFFF7FCFB11
:105050003900184A1848FEF7F7FD06900028EBD1F2
:10506000FEF798FF0690022865D000285AD00C4918
:105070002A4AFEF767FA0A49294ADFE710270000A3
:10508000E802002060EA000080EE3600957F01080B
:1050900064C80108F17F0108F2010020F30100203B
:1050A000817901082E090000E20700002380010831
:1050B0007E800108967B010818030020C0D40100FF
:1050C000890600002F090000C97B0108F8020020B2
:1050D000E0930400F4010020B9800108F1010020F0
:1050E000F00100203E0900004609000052090000BE
:1050F000F180010859090000238101082F8101086E
:10510000758101084803002048080000002800407D
:10511000340700006E0700003C080000450700004F
:10512000710700003900C84AC848FEF78DFDFD230D
:10513000069018429FD101236370C54B5A78012A0B
:1051400004D116009968DB686160A360BF4A537898
:10515000012B34D19368D268012E06D1616899423F
:1051600003D804D3A168914201D36360A2602800F0
:1051700005F0BCF8A5680690B6492800FBF784F84E
:105180000800FA218900FAF7F9FFB34904902800D2
:10519000FBF77AF80800AF49FAF7F0FFAE49039041
:1051A0002800FAF7EBFF02906368AC4E01933200DF
:1051B000069BAB490097032001F0D2FB05E7012EC7
:1051C00000D000E7D3E7E12380261B017B43760272
:1051D00030006170E36008F07FFD0690002802D087
:1051E000A049A14A2BE7E368A04A28009B18E36086
:1051F00005F07CF8E168030002919D4A0899019648
:105200000097032001F0ACFBDFE6012006F08CFCE8
:10521000012006F0D1FC089B012B0BD0954A904948
:10522000022001F09DFB08F079FD002802D08D4995
:10523000914AD4E46B425D41904EEDB23378012B3C
:1052400002D1280006F024FD8D4F3878012801D1C5
:1052500006F028FD3378012B05D03B78012B02D0D6
:10526000280006F015FD06F02DFD051E02D07D4933
:10527000844AB4E40127FEF7B5F9099B2A001F70A0
:10528000814B14211D707E4B06201D702B00357044
:10529000FFF768F9C2235B00E754FFF7D5FA002354
:1052A00019211A000720FFF7E2FA002201211A2033
:1052B000FFF7C7F8031E03D06A49744AFFF756FA8E
:1052C00001221A21EEE7002318211A00EAE7002341
:1052D0001C211A000820FFF7CAFA00221D20110025
:1052E000FFF7AFF8021E03D05E49694AFFF73EFAA6
:1052F00003001D21EEE708F0E7FC0C2302001A4032
:10530000184200D13FE10023202104AAD37752188C
:105310001370820811000133C0081940184007912A
:1053200008901A4276D0FEF7C1FA041E09D116AED3
:105330003000FCF7DBF9041E08D04A49554AFEF755
:1053400001F9022C58D01C2C56D02AE03388524F39
:10535000B2785F4364235343FF18F3783000FF189B
:10536000FEF74AF94D4D03006C68BC4244D8A8686A
:1053700001D1834240D3FA2336499B005C43FAF7BC
:10538000FDFEEB6827189F4236D03000A978EF6009
:10539000FEF73EFA041E0DD001203249404AFEF7C6
:1053A000D1F820002F493F4AFEF7CCF82D493E4A5C
:1053B000FFF7DCF9AC6827492000FAF765FF080021
:1053C000FA218900FAF7DAFE234903902000FAF760
:1053D0005BFF08001F49FAF7D1FE1F490290200029
:1053E000FAF7CCFE01906B68304E009332003B0020
:1053F00002201B4901F0B4FA089B002B0ED10121B9
:105400000A20089AFFF71DF8002800D1ABE01549E3
:10541000274AC9E7089B002B00D19EE0FEF78AFDD2
:10542000002807D11F2104AC224A0948224B091940
:10543000FEF7C6FA1C2804D8204C2300C340DB0723
:1054400040D408491E4AAFE7C97B0108F802002092
:105450001803002060EA000080EE3600BB810108DE
:1054600064C80108817901089F0700000000FFFF60
:10547000268201089582010871090000F1010020CF
:10548000F001002083090000F20100209A090000C9
:10549000B509000032050000102700003803002085
:1054A0004F0500002B0B0000C6090000DD8201083B
:1054B0005A0B0000967B0108C0D4010005000010C3
:1054C000340B0000FEF766FD002805D1AD4AAE485A
:1054D000AE4B0CA9FEF774FA1C2802D8C440E407AE
:1054E00002D4AB49AB4A5FE71F2304AA9B181A7882
:1054F000A94BAA491A700CAB1B780B70012A03D078
:10550000013B5A425341DAB2A54B1A70079A002A5E
:1055100000D126E10022A34B3C201A7008F0DCFBEE
:10552000031E04D00320A04AA04901F019FA00226A
:1055300001210A20FEF785FF002803D0B5229449F7
:10554000120131E7030001220A210320FFF70AF8C4
:10555000974A0220954901F003FA00231E211A0000
:105560000820FFF7B5FA01220A210320089BFEF765
:10557000F9FF904AEDE7220015210620079BFEF770
:10558000F1FF8D4AE5E7864B1C78012C10D12100F4
:105590001520FEF756FF031E03D07D49874AFFF70B
:1055A000E5F8220015210620FEF7DCFF844AD0E74B
:1055B0007C4B19780129D0D00124152021001C70C2
:1055C000FEF73FFF031E03D071497E4AFFF7CEF876
:1055D000220015210620FEF7C5FF7B4AB9E700230C
:1055E0001E211A0076E6002320211A000920FFF769
:1055F0003EF9002201212120FEF723FF031E03D0E4
:105600006349724AFFF7B2F801222121EEE7654BA8
:105610001A78012A16D001250022290015201D70B4
:10562000FEF70FFF031E03D05949694AFFF79EF8A2
:105630002A0015210620FEF795FF0220654A5B49E6
:1056400001F08EF9002322211A00CFE70022012168
:105650002420FEF7F6FE0122031E12D04C495E4ABA
:10566000FFF784F8012220215C480CF0D3FE0120D2
:105670000BF084FF0022202158480CF0CBFE0023C1
:105680001A0024210A20FFF7F2F80CAD280002F0DE
:105690000FFE022802D1280002F034FE0C9A2B796A
:1056A000120A1B0613432122013304A95218190AB6
:1056B00013705170190C1B0E9170D370280002F0FA
:1056C00021FE280002F04AFE16A801F0DBFE0228A7
:1056D00002D116A801F006FF16A801F03DFF002236
:1056E00001212620FEF7ADFE031E03D028493C4AC7
:1056F000FFF73CF8012226210B20FFF7B8F8394BC1
:105700001A78012A16D001250022290015201D70C3
:10571000FEF797FE031E03D01D49334AFFF726F814
:105720002A0015210620FEF71DFF02202F4A1F49DF
:1057300001F016F9002327211A00DDE7C223032216
:105740005B00FFF773FAC22302225B00FFF76EFAD9
:10575000852201200E491201FDF7F4FE0123FFF717
:1057600009F81C78012C00D0F7E60E4B079A2100AF
:1057700015201A70FEF765FE002800D1FBE60449EB
:105780001B4A11E6C97B0108F8020020E0930400DF
:10579000817901083A0B0000F1010020F00100209E
:1057A000F2010020F40100202483010864C80108EC
:1057B00077830108D283010820840108CA09000008
:1057C0006C840108D1090000B7840108EB090000CE
:1057D000F9090000FA840108080A000000040050DA
:1057E000270A0000F50100203C0A00003B85010863
:1057F000630B0000F0B5AF4C8FB02678012E08D0B7
:105800000220AD49AD4AFDF79DFE022528000FB0EC
:10581000F0BDD6225200A3580133A350D423002256
:105820005B00E250FEF7ECFE051E05D0A249A44A3B
:105830002800FDF787FEE9E708AF3900300002F0E5
:1058400081FE051E51D1BB781D1C282B00D92825AF
:10585000BB68EDB2002B1DD0681F20281AD8FAF7BC
:105860006FFC1212193E193C3C3C193A3A3A19386D
:105870003819363636193434191111111919191904
:1058800042424000082601237601A61933720BF02C
:105890006FFEF061C3235B00E5548823FA78FF3381
:1058A000E2547A681133E250BA680833E250C822F1
:1058B000F96852000433E150A3580133A350043A6D
:1058C000A3580133A3502800CBE00726DBE70626C8
:1058D000D9E70526D7E70426D5E70326D3E702262E
:1058E000D1E70B26CFE70A26CDE71C2802D0724964
:1058F000744A9DE7FDF7DAFF0500022808D000286A
:105900002ED06D49704A2800FDF71CFE1C2D5DD17C
:1059100000276E4BDD5D0B2D00D93DE16E01A61910
:105920003369002B00D137E10BF022FEB369002B65
:1059300004D0C01A3369984200D22DE1681E282590
:105940000A2800D998E0FAF70FFC9000AE00D500C5
:10595000DE00E700F000F90002010B0114011C0158
:1059600006AF3800FBF7C2FE051E02D05249584A66
:10597000C9E73B88574DBA785D4364235343ED181C
:10598000FB783800ED18FDF737FE534E02007368C0
:10599000AB42BDD8B06801D19042B9D8FA254F4981
:1059A000AD005D43FAF7EAFB2B180593059AF368FF
:1059B0009A42ADD03800B178F260FDF729FF051E9C
:1059C00008D001203C49464AFDF7BCFDBA223A49BD
:1059D00012012DE72300012268331A700BF0C8FD75
:1059E000B768E0673D493800FAF74EFC0800FA2135
:1059F0008900FAF7C3FB3B4903903800FAF744FCEF
:105A000008003649FAF7BAFB364902903800FAF72F
:105A1000B5FB01907368344E344A31000093022084
:105A2000059B00F09DFF0A20FEF790FD310003006A
:105A30002F4A022000F094FFC3230A265B00E6529F
:105A40000BF096FDCC2301225B00E05029003000D2
:105A50000833E2508C320433FF32E550A35801334F
:105A6000A350FEF7DFFD0500D0E6E31DDD7F042D2A
:105A700002D0062D00D00525C3235B00E554882302
:105A80000026FF33E6540BF073FDCC23C6225B00E7
:105A9000E0500833E65052000433E650A35831007A
:105AA0000133A3500FE7230046331D78072DE3D0C1
:105AB0000825E1E74803002081790108710B000007
:105AC000770B0000920B0000F4040000F5DA0108E7
:105AD000F7040000102700003803002060EA0000EF
