:020000040800F2
:1000000000500020911D01083D1B01083F1B010805
:1000100000000000000000000000000000000000E0
:10002000000000000000000000000000411B01086B
:100030000000000000000000431B0108451B0108F0
:10004000A11C0108E11D01084D1B0108E11D01086B
:10005000E11D0108311C0108331C0108351C010891
:10006000E11D0108E11D0108E11D0108E11D010874
:10007000E11D0108E91B0108E11D0108E11D01085E
:10008000E11D0108E11D0108E11D0108000000005B
:10009000E11D0108E11D0108E11D0108E11D010844
:1000A000E11D0108E11D0108E11D0108711C0108A5
:1000B000811C0108911C0108E11D0108E11D0108D6
:1000C00010B5064C2378002B07D1054B002B02D02E
:1000D000044800E000BF0123237010BD9000002001
:1000E000000000001C6C0108044B10B5002B03D06D
:1000F0000349044800E000BF10BDC04600000000F6
:10010000940000201C6C010802780B78002A03D0B0
:10011000013001319A42F7D0D01A70470023C25CF7
:100120000133002AFBD1581E7047000002B471460B
:1001300049084900095C49008E4402BC7047C0462A
:1001400003B47146490840004900095E49008E44E5
:1001500003BC704703B47146490840004900095A7E
:1001600049008E4403BC7047002243088B4274D37D
:1001700003098B425FD3030A8B4244D3030B8B42A8
:1001800028D3030C8B420DD3FF22090212BA030CB1
:100190008B4202D31212090265D0030B8B4219D392
:1001A00000E0090AC30B8B4201D3CB03C01A5241B2
:1001B000830B8B4201D38B03C01A5241430B8B42FA
:1001C00001D34B03C01A5241030B8B4201D30B03E3
:1001D000C01A5241C30A8B4201D3CB02C01A52410A
:1001E000830A8B4201D38B02C01A5241430A8B42CD
:1001F00001D34B02C01A5241030A8B4201D30B02B6
:10020000C01A5241CDD2C3098B4201D3CB01C01ACF
:10021000524183098B4201D38B01C01A52414309D9
:100220008B4201D34B01C01A524103098B4201D3C7
:100230000B01C01A5241C3088B4201D3CB00C01A34
:10024000524183088B4201D38B00C01A52414308AC
:100250008B4201D34B00C01A5241411A00D20146D1
:10026000524110467047FFE701B5002000F0F0F85A
:1002700002BDC0460029F7D076E7704703460B431E
:100280007FD4002243088B4274D303098B425FD38F
:10029000030A8B4244D3030B8B4228D3030C8B42BB
:1002A0000DD3FF22090212BA030C8B4202D31212A1
:1002B000090265D0030B8B4219D300E0090AC30B76
:1002C0008B4201D3CB03C01A5241830B8B4201D323
:1002D0008B03C01A5241430B8B4201D34B03C01A0C
:1002E0005241030B8B4201D30B03C01A5241C30A84
:1002F0008B4201D3CB02C01A5241830A8B4201D3F5
:100300008B02C01A5241430A8B4201D34B02C01ADE
:100310005241030A8B4201D30B02C01A5241CDD283
:10032000C3098B4201D3CB01C01A524183098B42CE
:1003300001D38B01C01A524143098B4201D34B01B7
:10034000C01A524103098B4201D30B01C01A52411A
:10035000C3088B4201D3CB00C01A524183088B42A1
:1003600001D38B00C01A524143088B4201D34B008A
:10037000C01A5241411A00D20146524110467047FC
:100380005DE0CA0F00D04942031000D34042534001
:1003900000229C4603098B422DD3030A8B4212D3C1
:1003A000FC22890112BA030A8B420CD389019211F3
:1003B0008B4208D3890192118B4204D389013AD030
:1003C000921100E08909C3098B4201D3CB01C01A05
:1003D000524183098B4201D38B01C01A5241430918
:1003E0008B4201D34B01C01A524103098B4201D306
:1003F0000B01C01A5241C3088B4201D3CB00C01A73
:10040000524183088B4201D38B00C01A5241D9D28A
:1004100043088B4201D34B00C01A5241411A00D20B
:100420000146634652415B10104601D34042002B07
:1004300000D54942704763465B1000D3404201B586
:10044000002000F005F802BD0029F8D016E770473B
:100450007047C046002B11D1002A0FD1002900D1CE
:10046000002802D00021C943080007B4024802A1B5
:100470004018029003BDC046D9FFFFFF03B4684691
:1004800001B5029800F034F8019B9E4602B00CBC06
:100490007047C046F0B5CE469946030C9C461304FF
:1004A00047461B0C1D000E0061460404240C80B559
:1004B0000700100C4B436543414360432C0CC018AC
:1004C00024188C46A34203D980235B029846C44477
:1004D000494679435643230C2D042D0C8919634456
:1004E00024046019C918C0BCB946B046F0BDC04666
:1004F000F0B557464E464546DE46E0B504000D00D1
:100500009246994683B08B4230D82DD0494650460A
:1005100000F038FE29000600200000F033FE331AF8
:100520009846203B34D49B4653465A469340424615
:100530001F00534693401E00AF423BD8AF4200D14C
:1005400079E05B46A41BBD41002B00DA76E0002277
:1005500000230092019301235A4693400193012303
:1005600042469340009329E08242CFD900220023E3
:10057000009201930C9B002B01D01C605D600098E1
:10058000019903B0F0BCBB46B246A946A046F0BDF7
:1005900042469B4620239B1A5246DA4041461300AE
:1005A0004A468A40170042461F43534693401E0066
:1005B000AF42C3D900220023009201934346002B8F
:1005C000D8D0FB0772081A4346467B080EE0AB42C0
:1005D00001D1A2420CD8A41A9D41012024196D41D9
:1005E0000021013E24184D41002E06D0AB42EED929
:1005F000013E24196D41002EF8D1009801995B4607
:1006000000196941002B24DB2B005A464646D34093
:100610002A001C00F2405B461500002B2ADB260056
:100620009E40330026004746BE403200801A994162
:10063000009001919EE7A342BCD882E74246202366
:1006400000219B1A0022009101920122DA400192BE
:1006500085E7424620239B1A2A0046469A402300FB
:10066000F340464613432A001C00F2405B46150047
:10067000002BD4DA202342462F009B1B97402600F4
:10068000DE403B003343CDE7F0B546464F46D64605
:100690004502C0B5C30F470098460E1C6D0A3F0EB9
:1006A0005BD0FF2F21D08023ED00DB041D4300230E
:1006B00099469A467F3F74027300640A1B0EF60F38
:1006C000002B20D0FF2B43D080220020E400D20456
:1006D00014437F3B4246FF1A4B4672400F2B00D912
:1006E0009DE071499B00CB589F46002D5AD10823AD
:1006F0009946063B74029A467300FF27640A1B0E54
:10070000F60F002BDED1002C3BD101234246494697
:10071000724019430E2918D86448890041588F4601
:100720005346022B00D1B8E0032B6ED042462C007A
:10073000012B40D100200024C0052043D2071043E4
:10074000E0BCBA46B146A846F0BDFF200024F3E75E
:10075000002C20D10223FF3FD8E7002D05D1042330
:100760009946033B00279A46A5E7280000F0ECFCD9
:100770007627431F9D4000237F4299469A463F1AA1
:1007800099E7200000F0E0FC431F9C4076235B4289
:100790001B1A00209EE703234A461A439146032072
:1007A000FC3397E70C239946093BFF279A4682E7DB
:1007B00003282CD0320038007F30002847DD630743
:1007C00004D00F232340042B00D00434230103D58D
:1007D0003800374B80301C40FE28B6DCA401640A88
:1007E000C0B2A9E780240022FF20E403A4E780230D
:1007F000DB031D4201D01C420BD08024E4032C43B8
:1008000064024246FF20640A96E746462C00802395
:10081000DB031C4364023200FF20640A8CE76D0195
:10082000600185422DD21B230024013F01262900AF
:1008300064006D00002901DB854201D32D1A344389
:10084000013B002BF3D16B1E9D412C43B3E70123E9
:100850001B1A1B2B00DD6DE721009E37D940BC40E1
:100860000B00611E8C412343590704D00F2119400E
:10087000042900D00433590113D49B0100205C0AE1
:100880005AE71A2301242D1AD0E7981E43425841F3
:10089000404232000024C0B24EE74246FF2000240E
:1008A0004AE70120002447E7406C0108806C0108FA
:1008B000FFFFFFF7F0B54F464646D6464502C0B5A6
:1008C00046000F1C6D0A360EC40F002E00D1CDE07D
:1008D000FF2E72D08023ED00DB041D4300239946D8
:1008E0009A467F3E7B025B0A98467B001B0EFF0FF9
:1008F000002B72D0FF2B00D1A9E07F3BF6184B46AE
:100900000A2B00DD85E043468022DB00D2041A4337
:100910004B4690467C400022022B0FDD49460123C6
:100920008B40A621C9000B4200D072E090218900C3
:100930000B4200D0DAE08821194267D1280C4246E8
:100940002D042D0C4346290012041B0C120C51439C
:100950005D4342435843AD180B0C5B199A4203D9CF
:10096000802252029446604409041A04090C521869
:100970009501691E8D411B0C920E1B1815439B019E
:100980001D431B0100D5CFE030007F30002800DC84
:10099000B1E06B070BD00F2332002B40042B06D0A5
:1009A00004352B0103D5803210006A4B1D40FE2810
:1009B00064DCAB015B0AC0B21FE0002D00D08FE009
:1009C00008239946063B9A467B025B0A98467B00C1
:1009D000FF261B0EFF0F002B8CD14346002B5CD152
:1009E0004A4601331A43914613000A2A11DC0122B8
:1009F0007C40022B92DC00200023C0051843E40752
:100A00002043E0BCBA46B146A846F0BD3C0045468E
:100A100092465346022B31D0032B11D0012BEAD042
:100A200030008030721C002866DD6B07B9D00F23C0
:100A30002B40042BB4D1B4E70F2A7AD03C004546B2
:100A40008023DB032B435B02FF205B0AD5E7434691
:100A5000FF36002B34D14A46023313430A2BD8DC2D
:100A60007C40002A0AD09946022257E7002D08D17F
:100A700004239946033B00269A4633E7FF200023D0
:100A8000BBE7280000F060FB7626431F9D40002353
:100A9000764299469A46361A24E7404600F054FBBF
:100AA0004B46361A763E0A2BB3DC43460538834064
:100AB00098464B4600227C40022B00DD2EE73DE7A6
:100AC00003234A461A4313000A2AB5DC01229A403E
:100AD000882113007C400322194200D12EE795E7BC
:100AE0000C239946093BFF269A46FBE68023002407
:100AF000FF20DB0381E7320001231B1A1B2B00DDE3
:100B000079E79E3229009540D9406A1E95410D43F0
:100B10006B0704D00F232B40042B00D004356B014E
:100B200013D50120002368E701236A081D401543FF
:100B300076E78023DB031D4282D042461A4200D072
:100B40007EE73C00FF20134357E7AB0100205B0A20
:100B500053E7C046FFFFFFF7F8B54746CE464B02C6
:100B6000460080B5C40F4702580A844648007A0AF6
:100B7000360EBF09000ECD0F9B09FF286DD0012155
:100B80004D40311AAC423AD0002900DC9CE10028EB
:100B900000D19EE0FF2E00D188E08022D2041343D2
:100BA0001B2900DCF6E0013F7A0100D479E001273F
:100BB0007F42BF01BB099846404600F0C5FA434654
:100BC00005388340864200DCCCE0B44F311A1F4028
:100BD0005A0768D00F221340042B64D004377B01DE
:100BE00061D5481CFE2900D081E0FF200023C0050C
:100BF0001843E4072043C0BCB946B046F8BD0029FD
:100C000000DC79E1002876D1002B4CD0481E012968
:100C100000D147E1FF2949D01B2871DC01001A00EF
:100C20002020CA40411A8B40591E8B411343FF18A4
:100C30008023DB041F4200D1B8E0711CFE2ED4D00B
:100C4000012297483A407F08074017437A0700D0AF
:100C500096E01F42C5D1FA0855E03100FF398946B8
:100C6000002B2CD101214D40AC4200D1B4E04946CB
:100C700000294CD0002E00D0F9E0FF21002F00D138
:100C800008E14A1E012900D156E1FF2900D142E1C5
:100C90001B2A00DC24E15F1E2C0006007A0100D52F
:100CA00085E731000437FA08FF292CD1002A9CD0AF
:100CB0008023DB0313435B02FF205B0A97E7AC4210
:100CC00000D1A7E0002922D0002ED6D062462C0009
:100CD000EEE7002BE7D0481E012936D0FF29E5D0EA
:100CE00001005DE701203B007A0100D457E1C0B26A
:100CF000BB015B0A7BE7FF2ED8D01B2900DC9FE0FD
:100D000031000537FA0853025B0AC8B26FE7FE20CC
:100D1000711C084254D1002E00D0B1E0002F00D148
:100D200002E1002B00D1F9E08021FA1AC9040A423D
:100D300000D13BE10124DF1B2C40002F49D00120D2
:100D40000F42D5D10021FA08DDE7FF1A7B0100D45C
:100D5000DEE0BD01AD09280000F0F6F92B000538F2
:100D6000834001262022811B0131521A1F0093402B
:100D7000CF405A1E93411F432BD000217B07B1D097
:100D80000F233B40042B00D028E77B0100D528E748
:100D9000FA08B8E71A002020CA40411A8B40591EB1
:100DA0008B411343FF1A7B0100D502E77B0700D17B
:100DB0000DE10F2331003B40042B00D00EE772E71A
:100DC000FA1A9046520156D44346002B00D0F3E65F
:100DD0000024002000230AE7494600291CD0002EE9
:100DE00000D002E7FF21002F55D04A1E012959D01B
:100DF000FF2900D190E01B2A00DD91E011003A00AC
:100E00002025CA40691A8F40791E8F41174306007A
:100E1000FF180DE7002926D1FE20711C084213D1CE
:100E2000002E00D096E0002F00D1B4E0002B75D04A
:100E3000FB185A0100D4B2E09B015B0AFD38D6E6EC
:100E40008022D2041343EAE6FF2900D1CDE6FA1846
:100E50005208530705D00F23171D1340042B00D051
:100E600021E7D2084FE7002EBCD0624620E72C00D5
:100E7000FF200023BBE60124DB1B98462C409BE6A9
:100E8000002F75D1002B00D096E080230024FF2096
:100E9000DB03ACE62C001F0005E7C046FFFFFFFBAD
:100EA000FFFFFF7DFB185A0100D48DE04A4A5B0822
:100EB0001A40590700D18CE00F210B400D39042B4B
:100EC000CFD00221171DEEE6002900D11FE7821BBB
:100ED0001100002E00D1D1E68021C9040F43D7E6CE
:100EE00039002024D140A21A97407A1E97410F431F
:100EF0002C000600DF1B56E700298DD0811B002E39
:100F000000D170E71B290BDC8022D204174376E75F
:100F10000121FA08F7E62C006246C7E60021F2E656
:100F200005330100DA08EEE6002B00D150E701247A
:100F3000002162462C40E6E6DA1B530132D59201CD
:100F40009409200000F000F92300053883402C00AC
:100F5000012607E7002FDFD0002B17D08023DB030B
:100F60009A4200D2A4E69C4500D3A1E662469FE6E1
:100F7000002B0BD08023DB039A4200D298E69C45DD
:100F800000D395E6012462462C4091E68023DB03E2
:100F9000FF2013432BE60020002B00D127E6002181
:100FA000DA08B0E62C000121D208ACE6002A00D114
:100FB0000EE70021D208A6E6802362460124DB0367
:100FC000FF2013432C4012E60121DA089BE6310092
:100FD00069E60221D20896E6FFFFFF7D410242004A
:100FE000C30F490A0020120E7E2A03DD9D2A02DD6E
:100FF000094A98187047802000040143952A07DCAD
:101000009620821AD1404842002BF3D10800F1E724
:10101000963A9140F7E7C046FFFFFF7F70B5002882
:1010200012D0C317C5185D40C40F280000F08CF81B
:101030009E231B1A962B0FDC082838D008388540D1
:101040006D026D0AD8B202E0002400200025C00520
:101050002843E407204370BD992B14DC421F9540C0
:101060002A001549114055071CD00F252A40042A93
:1010700018D00431CA08490115D59F235202181A05
:10108000550AC0B2E3E7020029001B3291404A1E14
:1010900091410522121AD5402A000A4306491140FF
:1010A0005507E2D1CA085202550AD8B2CFE76D02FD
:1010B0006D0A8E30CBE7C046FFFFFFFB10B5041E64
:1010C0000DD000F041F89E231B1A962B0CDC08284B
:1010D00034D0083884406402640AD8B201E00020A9
:1010E0000024C005204310BD992B13DC421F9440FF
:1010F000144A224061071CD00F212140042918D036
:101100000432D408520115D59F236402181A640AC8
:10111000C0B2E6E7020021001B3291400A00511ED6
:101120008A410521091ACC401443064A224061072E
:10113000E2D1D4086402640AD8B2D2E76402640A35
:101140008E30CEE7FFFFFFFB1C2101231B049842DA
:1011500001D3000C10391B0A984201D3000A083948
:101160001B09984201D30009043902A2105C4018FF
:101170007047C046040302020101010100000000A3
:101180000000000010B5002903D1FFF7DDFF20307B
:1011900002E00800FFF7D8FF10BDC0461FB56B4640
:1011A00049BA99816423E021009303AA623B11F0BC
:1011B00093FF05B000BD000037B50022124C00902F
:1011C000236869469A62802320005B01019311F035
:1011D00007F9002802D00D4D28003EBD200011F077
:1011E00049F80028F7D10A21200011F08FF80028D3
:1011F00007D1200011F0F0F885B2200011F066F858
:10120000EAE7024DF9E7C046C40D0020FFFF0000E9
:1012100010B5010000780822C0433124C0B243B2A7
:101220004000C0B2002B02DA5B006340D8B2013A42
:10123000D2B2002AF3D14B7808223121584043B270
:101240004000C0B2002B02DA5B004B40D8B2013A3A
:10125000D2B2002AF3D110BDF0B587B0019002914F
:1012600003920493002B1CD080230024244DDB0325
:101270002A68032013432B6010F0FEFD0827260088
:101280002048FFF799FF05901F48FFF795FF059B42
:101290001E4A013B9BB2934206D92B681C4A13405D
:1012A0002B60012007B0F0BD1A4B9842F5D0059B8A
:1012B000013FE4183618002FE2D1174B17481B885E
:1012C000E40858432100FEF74FFFF60807001449D1
:1012D0007043FEF749FF049B40001860039B002BFE
:1012E00000D01F60019B002B00D01C60029B002BD4
:1012F00000D01E602B68064A002013402B60D1E707
:10130000082701400000024402000004FDFF000025
:10131000FFFFBFFFFFFF00007800F81FB80B0000C1
:10132000FF0F000030B50D0004008BB0684606F0DA
:1013300073FB2A002100684606F0A9FC684606F007
:10134000AFFC0BB030BD000010B50449FFF726FF1D
:101350000400012010F090FD200010BD17350000A2
:1013600010B50249FFF71AFF10BDC04698B0000043
:1013700010B50449FFF712FF0400012010F07CFDB6
:10138000200010BD5D800000F0B585B005000F00A5
:10139000FFF7DAFF041E19D128000F49FFF7FEFE00
:1013A000041E13D1642303AE00933200E021280011
:1013B000613B11F035FF041E08D13000FFF728FF14
:1013C000B378834205D133885BBA3B80200005B0F7
:1013D000F0BD0124FAE7C046C8EF0000F0B587B0C1
:1013E00005000F00FFF7B0FF041E46D12800254975
:1013F000FFF7D4FE041E40D10F2010F03DFD642302
:1014000004AE00933200E02128005E3B11F008FF9B
:10141000041E32D13000FFF7FBFEB37883422FD198
:101420000B2302AA9B181800FFF7F2FE7379834280
:1014300026D102ABDA7A1B7B30881B0213435BBADE
:1014400040BA9BB280B20393FFF738FE0E49FFF714
:101450001BF90E49FFF72EFA0D49FFF77DFB3860A7
:101460000398FFF72BFE0849FFF70EF90949FFF72C
:1014700021FA78602800FFF773FF200007B0F0BD65
:101480000124FAE76678000000FF7F4700002F4341
:10149000000034420000C84273B56B469E1D002315
:1014A00005003380FFF750FF041E16D12800FFF718
:1014B0005FFF041E11D1012010F0DEFC3100280076
:1014C000FFF762FF041E08D133880649064A0B4025
:1014D000934204D12800FFF743FF200076BD01248A
:1014E000FBE7C0463F08000007080000030C43402C
:1014F00004485843044B420B42405343180C584095
:101500007047C0466BCAEB8535AEB2C270B52D4C84
:101510008EB020220021200014F086FA382200210B
:10152000684614F081FA0C21274E284AF368684671
:101530000B40D35C01222377336D9B05DB0F637077
:10154000234B1B681340A36012F0A2FD10F0D2FBE6
:10155000099B636012F0DCF9E06012F073FD20611A
:1015600012F076FD606112F083FD237FA061012BF4
:1015700007D005203D22174901F0DAFF05200EB003
:1015800070BD33689B0506D43E221249062001F047
:10159000CFFF0620F3E76378012B02D040220D49EC
:1015A000F4E7079B012B02D041220A49EEE7A02273
:1015B00009991202914202D042220649E6E7002030
:1015C0002370DCE7B000002000100240DBE60108D9
:1015D00000200240BC6C010810B594B034220021F8
:1015E00007A801AC14F020FA00211422200014F006
:1015F0001BFA102306930F3B0D93A02306A81B0292
:101600000F9312F0C7F9011E07D05B220A4906208A
:1016100001F08EFF062014B010BD0F236060A060A3
:10162000E06020612000019312F03EFC0028F2D01F
:1016300062220149EBE7C046BC6C0108014B1878F7
:101640007047C046B000002000487047B00000203E
:10165000121A8B411000191E03DA0023014A801868
:1016600059417047005C260510B510F0FFFB024B96
:101670001B68C01810BDC046AC000020F0B50026A5
:101680000F008BB0039304AB019002920021112252
:10169000D81D14F0C9F9039B05AD2B70109B04AC49
:1016A0006B70119B0198AB70029B2670A3706770E2
:1016B0006421FEF7C9FE074BE17029001D003200CE
:1016C000180012F03FFF32002100280012F0A2FFA4
:1016D0000BB0F0BD200E0020F0B5040087B000284C
:1016E00007D101209C221D4901F022FF012007B0F3
:1016F000F0BD0822002101AD14F096F9142200215A
:10170000280014F091F90022154F290038000092AA
:1017100013F0B0F86E46031E06D0124A1249042098
:1017200005F0DAF91F20E2E702006946380013F0FD
:10173000C9F8002803D003000C4A0B49EFE7FA224E
:10174000F378D2009B18238073782A88A370B3782B
:10175000E370AB78A280A371C9E7C046BC6C0108F6
:10176000200E0020D46C0108AAB60108EC6C010818
:1017700030B58FB024216A46002307AC52182000F0
:101780001370FFF7A9FF051E17D1A17923880491D3
:1017900061790E4A0391217909A80291E1780191BA
:1017A000A1780091142114F099F80949132807D061
:1017B0000420084A05F090F91F3528000FB030BD0D
:1017C000054A09AB022005F087F9F6E7B9B601082A
:1017D000AAB60108046D01081C6D0108F0B51C4F84
:1017E00087B001AE00223100380013F043F8002228
:1017F0006946380013F066F80023164A0021307855
:10180000FEF748FE002304000D00134A0021707803
:10181000FEF740FEFA2224184D4100230021B07843
:101820009200FEF737FE24184D41F96800290BD0CD
:10183000FA20029B8000CB1A58430131FEF794FC3A
:1018400000230200A4185D412000290007B0F0BD6C
:10185000200E002080EE360060EA0000F0B5184B44
:1018600018481E68184B87B01C68184B70401F68DA
:10187000FFF73CFE134B0500E018FFF737FE144B53
:101880000090F818FFF732FE019000986840FFF7CB
:101890002DFE019B43401800FFF728FE0500039032
:1018A0003018FFF723FE0490E0194019FFF71EFEE1
:1018B0000322059003A9074810F0C2FE07B0F0BD4F
:1018C0005000F81FB979379E5400F81F6400F81FC4
:1018D00072F36E3CA00D0020002330B50400180008
:1018E000E25CDD00AA4001331043DAB29142F7D83E
:1018F00030BDF7B5441801940F241300A4460578B1
:1019000064462F093E002C4037369F2D00D8073EF5
:1019100025001E703735092C01D830342500019C74
:1019200001305D700233A042E9D1002349008B549D
:10193000F7BD000010B50C4C2378012B11D00F22FD
:101940000A4803681A629969073A0A439A61084982
:10195000012213F0C5FEFD220A23104202D1093BE9
:1019600023700023180010BD20010020E80B002088
:10197000AC01002010B5114C50220021200014F0C1
:1019800053F80F4B0F4A1B68934206D003200E49B1
:101990000E4A01F0CDFD032010BD002301210C4AA9
:1019A000617013700B4A217013800B4A13800B4A2D
:1019B00013600B4A1370FFF7BDFFEDE7D000002066
:1019C000E80B0020003801402C6D0108FC050000E8
:1019D000AC0100202A010020280100202401002061
:1019E0002001002010B5154B0A001C78012C07D0EF
:1019F00002201349134A01F09BFD0224200010BD70
:101A0000002809D1002901D10024F7E720000C4962
:101A10000D4A01F08DFDF1E70029F5D00B4C0100D6
:101A20006423200013F07EFC0028EDD00920044937
:101A3000074A01F07DFD0924E0E7C046D000002000
:101A40002C6D01082E0600002F060000E80B002078
:101A50003606000010B5041E07D1C8220120064931
:101A6000D20001F065FD012010BDFEF757FB81B2E9
:101A70002000FFF7B7FFF7E72C6D010810B5FFF75F
:101A8000E9FF002802D10248FFF7E4FF10BDC0467D
:101A9000C1BB010810B5B6B004AC200006F0F0FCE4
:101AA000031E09D0C0210C4A06A813F017FF06A890
:101AB000FFF7E4FF36B010BD482123780391A188D9
:101AC000064A0291A17806A8019161780091C0218F
:101AD00013F004FFEBE7C046446D0108616D010897
:101AE000F0B5C3B00AAF380006F0CAFC051E0CD032
:101AF0000300C021374A12A813F0F0FE12A8FFF726
:101B0000BDFF0500280043B0F0BDBB780600002BE8
:101B100043D13148F3E7637AC0210893237A2F4AEF
:101B20000793E37912A80693A37905936379049345
:101B300023790393E3780293A37801932388009396
:101B4000330013F0CBFE12A8FFF798FF002802D055
:101B50009122234939E0A17D6289A3890591617DA4
:101B60001B040491217D13430391E17C1D4A0291E2
:101B7000A17C0191218AE08909040143009112A806
:101B8000C02113F0ABFE12A8FFF778FF002802D0A7
:101B90009E22134919E00136F6B2BB78B342B1D99F
:101BA0000CAC2100300006F007FB0028B3D00090F9
:101BB0003300C0210C4A12A813F090FE12A8FFF7C0
:101BC0005DFF0028E7D07F220549092001F0B0FC25
:101BD000092597E7936D0108B06D0108DF6D0108D5
:101BE0002C6D0108206E0108C16D0108F0B50024BC
:101BF000B5B002900191019B9C4201D300202FE0DF
:101C00002300C0211B4A04A813F068FE002506002B
:101C1000029B1F19019B1B1B9BB20393039B9D42BD
:101C200001D0102D0BD104A8FFF728FF00281DD0EC
:101C30000920BE22104901F07BFC092010E0C021E0
:101C400004A83B780D4A891B801913F047FE013721
:101C5000002807DA1E20BA22074901F069FC1E207D
:101C600035B0F0BD01353618ADB2D7E71034A4B2A7
:101C7000C1E7C046726E01082C6D01089B990108EE
:101C8000F0B5CA4C0600A5440CAC200006F0F8FBE9
:101C9000C74A031E1BD1A378C648002B1CD010A82E
:101CA00005F0BAFE022802D110A805F0E7FE10A840
:101CB0000EAD2AAC05F01EFF2B008022210010A8DB
:101CC000012E0FD105F098FE031E0ED0BA4AC02196
:101CD0004AA813F003FE4AA8FFF7D0FEAB239B00EF
:101CE0009D44F0BD05F035FDEEE769792B88039141
:101CF0002979B24A0291E9784AA80191A97800911C
:101D0000C02113F0EBFD4AA8FFF7B8FE002806D06B
:101D1000AB49AC4A092001F00BFC0920DEE72000AA
:101D20002988FFF763FF002802D0A549A64AF1E7FA
:101D30002D883D2D0ED82B00A44AC0217AA813F07F
:101D4000CDFD7AA8FFF79AFE002800D0CEE1FFF77C
:101D5000A1FEC3E72378022219009143A12901D0F3
:101D60009B4AEAE7A178702902D00B00994AE4E780
:101D700001910093C0212B00974A7AA813F0AEFD81
:101D80007AA8FFF77BFE002804D0C6228C495200B7
:101D90000920A9E129002000FFF728FF002803D02F
:101DA0008E228749FF32F3E723788C49A32B00D199
:101DB0008B4901910093C02100238A4A7AA813F02D
:101DC0008DFD7AA8FFF75AFE002802D098227C49A0
:101DD000E8E76378C0210093834A01237AA813F0CF
:101DE0007DFD7AA8FFF74AFE002802D0CF22744971
:101DF000CDE7A378C02100937C4A02237AA813F090
:101E00006DFD7AA8FFF73AFE002802D0A6226C49A1
:101E1000C8E7932006AB1AAEC01832000821FFF7BE
:101E200068FD0323C021724A00967AA813F056FD7C
:101E30007AA8FFF723FE002802D0D7226049A6E740
:101E40009B2006ABC01832000821FFF752FD0B2380
:101E5000C021684A00967AA813F040FD7AA8FFF7DF
:101E60000DFE002802D0DB22554990E7E37CC0211B
:101E70000093614A13237AA813F030FD7AA8FFF784
:101E8000FDFD002802D0DF224D4980E7237DC021DF
:101E900000935A4A14237AA813F020FD7AA8FFF77A
:101EA000EDFD002802D0C62245497BE7A52006AB00
:101EB0000221C018FFF710FD15230090C021504AE1
:101EC0007AA813F00BFD7AA8FFF7D8FD002802D0FE
:101ED000CE223B4966E7A72006AB0221C018FFF7D8
:101EE000FBFC17230090C021464A7AA813F0F6FCA9
:101EF0007AA8FFF7C3FD002802D0D622304951E767
:101F0000A92006AB0221C018FFF7E6FC19230090B8
:101F1000C0213D4A7AA813F0E1FC7AA8FFF7AEFD94
:101F2000002802D0DE2226493CE7AB2006AB022186
:101F3000C018FFF7D1FC1B230090C021334A7AA8B8
:101F400013F0CCFC7AA8FFF799FD002802D0E62216
:101F50001B4927E7AD2006ABC01832000521FFF76B
:101F6000C8FC1D23C0212A4A00967AA813F0B6FCAB
:101F70007AA8FFF783FD002802D0F722104906E770
:101F80002BABDB7F06A9019393235B18DB7FC0217A
:101F90000093204A22237AA813F0A0FC7AA8FFF726
:101FA0006DFD002838D0F8220549FBE654FDFFFFFF
:101FB000A86E0108C56E0108D16E0108E96E01081E
:101FC0002C6D01080E0300000F030000266F0108AE
:101FD0003D6F0108566F01086C6F01087E6E0108A5
:101FE000796E0108976F0108BB6F0108DC6F01086B
:101FF0000D70010828700108437001086370010822
:102000007E7001089A700108BB700108DC7001083D
:10201000FC7001081771010895233F2406AA9B183C
:10202000DB7F0A211C402000DB090293FEF722F926
:10203000C9B2019120000A21FEF796F8D14FC0B233
:10204000009024233A00C0217AA813F047FC7AA814
:10205000FFF714FD002802D0CB49CC4A98E6B52002
:1020600006ABC01832000421FFF743FC2523C02132
:10207000C74A00967AA813F031FC7AA8FFF7FEFC55
:10208000002802D0C049C34A82E6B92306A95B18DA
:102090001B78C0210093C04A29237AA813F01EFCA4
:1020A0007AA8FFF7EBFC002802D0B749BB4A6FE6DD
:1020B000BA230F2406AA9B181B78B9491C401B0998
:1020C000013BDBB20B2B02D8B64A9B00995800911A
:1020D0002A23C021B44A01947AA813F0FFFB0028F8
:1020E00007DA1E20A849B14A01F022FAA649B04AEF
:1020F00010E67AA8FFF7C2FC002802D0A249AD4A38
:1021000046E6BB23012006AA9B181B78AA4A990819
:10211000014004915909014003919909014002913C
:10212000D90901910093C0212B237AA813F0D6FB83
:102130007AA8FFF7A3FC002802D093499F4A27E61C
:10214000BD2306A95B181B78C021019335AB1B7812
:102150009B4A00937AA82C2313F0C0FB7AA8FFF7C0
:102160008DFC002803D08F228749920010E6BE2301
:1021700006AA9B18BF221B78079306ABD2181178CA
:1021800036AA12789446C122D2181078C222D218E8
:102190001678C322D21817780A00079B1A406346A4
:1021A0001A40FF2A10D100902E23C021854A0297A1
:1021B00001967AA813F092FB7AA8FFF75FFC00283B
:1021C00010D096227049D0E70293079B03900191AB
:1021D0000093C0212E237C4A059704967AA813F019
:1021E0007DFBE9E737AB1B78C0210093774A3423A6
:1021F0007AA813F073FB7AA8FFF740FC002802D0FE
:102200006149734AC4E5C52306AA9B181B78C021FF
:10221000099300936F4A35237AA813F05FFB7AA8DD
:10222000FFF72CFC002802D057496B4AB0E5C623C3
:1022300006AA9B181B780A930A9A684BFF2A00D1BA
:10224000674B01930A9BC0210093664A36237AA804
:1022500013F044FB7AA8FFF711FC002802D04A498A
:10226000614A95E5C72006ABC0180421FFF734FB8F
:102270000300079001330DD13723C0215B4A7AA8B0
:1022800013F02CFB7AA8FFF7F9FB071E4AD03E4952
:10229000574A7DE5079BC0210093564A3723019496
:1022A0007AA813F01BFBEDE7B21C0B92934202D20B
:1022B0002300514A41E52AA802218019FFF70CFBAF
:1022C0004E4B82B29A420FD13300C0214C4A009447
:1022D0007AA813F003FB7AA8FFF7D0FB013400289B
:1022E0004ED0AC22284940E70A9AE3B280B293422A
:1022F0000FD3089B01330CD0089B01901B1A089345
:102300000293C02133003F4A00947AA813F0E6FA02
:10231000E1E701903300C0213B4A00947AA813F012
:10232000DDFAD8E73B260400079B08930999E2B23F
:102330006B1E0B928A42B7D302222AA8115C01328B
:102340007F18FFB29342F9D8A422920006A99A18E6
:1023500052182E49521814782D49A74200D12D4900
:1023600002912D4AC021019700947AA813F0B6FA81
:102370007AA8FFF783FB002852D00349274A07E5D4
:102380000B9ED3E7367101082C6D01080502000091
:102390005E7101080F020000797101081602000049
:1023A000836E0108E8E60108987101082202000026
:1023B0001203000023020000BF7101083102000077
:1023C000FD7101081F72010851720108897201082C
:1023D00062020000A57201086A020000C3BB010886
:1023E0008B6E0108C072010873020000DD720108E3
:1023F000870200000A73010833730108FFFF000021
:102400004F7301087C730108A873010800FEFFFFE9
:102410009F6E010821A40108C6730108C3020000D1
:10242000074BA74200D1074B0293079BC0210193A2
:10243000099B054A00937AA82B0013F04FFA80E419
:10244000A995010821A40108F673010810B504211B
:102450000148FFF7C7FA10BD1BE70108F0B5BF4BF5
:10246000CFB01B780E93012B06D0BD49BD4A022088
:1024700001F05EF8022005E0FFF75CFA03000A2095
:10248000002B08D04FB0F0BD0021B44A0B0090786B
:1024900001281DD19170B449B4480A88008893B2CC
:1024A000824201D100F08CFEB14AD25C01339BB272
:1024B000D2B27F2B00D9002333200B8008ABC01889
:1024C00002700A2AE0D00D2A01D000F034FE0E9BE3
:1024D0000022A24CA370A388E3181A746378012B1E
:1024E00004D1A448FFF7B6FA0028CBD1237C002BF7
:1024F00000D1A1E10DF080F90600FFF7A5F8050075
:1025000001F01EF80F9002F08BF8040006F036FC84
:10251000994B0700994918000D93FDF7F5FD002828
:1025200000D0AEE09648FFF7A9FA002800D0A6E058
:102530009448FFF7A3FA002800D0A0E09248FFF7E4
:102540009DFA002800D09AE09048FFF797FA0028FB
:1025500000D094E08E48FFF791FA002800D08EE07A
:102560008C48FFF78BFA002800D088E08A48FFF7F4
:1025700085FA002800D082E08848FFF77FFA00281B
:102580007DD18748FFF77AFA002878D18548FFF790
:1025900075FA002873D18448FFF770FA00286ED1CD
:1025A0008248FFF76BFA002869D18148FFF766FA85
:1025B000002864D17F48FFF761FA00285FD17E4888
:1025C000FFF75CFA00285AD17C48FFF757FA002839
:1025D00055D17B48FFF752FA002850D17948FFF7D0
:1025E0004DFA00284BD17848FFF748FA002846D129
:1025F0007648FFF743FA002841D17548FFF73EFAC5
:1026000000283CD17348FFF739FA002837D17248C7
:10261000FFF734FA002832D17048FFF72FFA00286C
:102620002DD16F48FFF72AFA002828D16D48FFF70F
:1026300025FA002823D16C48FFF720FA00281ED184
:102640006A48FFF71BFA002819D16948FFF716FA04
:10265000002814D16748FFF711FA00280FD1664807
:10266000FFF70CFA00280AD16448FFF707FA0028A0
:1026700005D16348FFF702FA002800D1DCE0092009
:1026800000E760490D98FDF73FFD002811D10DF0DE
:10269000B7F8C02100905C4B5C4A1EA813F01EF9ED
:1026A000002856DA2E495A4A1E2000F041FF1E200B
:1026B000E8E658490D98FDF727FD00282ED1737ADA
:1026C0000D9333690F9373691093636A119303F049
:1026D00047FB129006F04CFB04000BF0A9FEB37907
:1026E0000500F76913930BF0B5FE139B0890069352
:1026F000129BC0210393119B474A0293109B07979B
:1027000001930F9B0595009304940D9B1EA813F055
:10271000E5F800281DDA1249404AC5E740490D98FE
:10272000FDF7F2FC002800D07EE0A9682B7F06911F
:1027300069783C4A059169681EA80491A9690391CA
:102740006969029129690191E9680091C02113F03A
:10275000C5F81EA8FFF792F996E2C046D000002007
:102760002C6D010815060000280100202A01002018
:102770002C010020C1BB0108E000002044740108C6
:102780004974010876740108A7740108D674010819
:10279000097501083B7501086D750108A3750108ED
:1027A000D3750108007601084076010875760108A6
:1027B000B2760108E376010818770108507701081E
:1027C00082770108B4770108F377010825780108BA
:1027D0005C7801088F780108C8780108FD78010845
:1027E0003979010882790108CD790108037A010855
:1027F000497A01087B7A0108B27A0108E87A01086F
:10280000177B010806920108477B0108EAD00108FE
:102810003B040000F97501085F7B01084E040000CD
:10282000B27B0108B87B0108D8490D98FDF76CFC14
:1028300000280ED1FEF79CFFD54B9A6801329A60B2
:1028400000229A801A74FFF701FE002800D122E6C8
:1028500018E6D0490D98FDF757FC002812D10F99C2
:102860000F9B89681B7801910F99CB4A49681EA874
:102870000091C02113F032F8002800DB69E7C74956
:10288000C74A11E7C7490D98FDF73EFC002805D05F
:10289000C5490D98FDF738FC002861D101F0C0FE54
:1028A00004000FF0E3FA0D9003F05AFA050003F06C
:1028B00061FA676A0600A46A06F05AFA2B000390D0
:1028C000C021BA4A0294019700961EA813F006F898
:1028D000002802DAB149B64AE6E61EA8FFF7CEF8AC
:1028E000051E10D0AD49B34A092000F021FEC6E60E
:1028F0001EA8FFF7C3F8002802D0A849AE4AF3E7A4
:1029000001350C2D98D0E8B201F08EFE041EF7D0F0
:102910004669002E01D00D9B9E1BA768002F00D199
:10292000A64F23690F93E3681093A07801F086FE09
:10293000237F069607932379C0210593E378A04A65
:102940000493109B039002930F9B009701931EA882
:102950002B0012F0C3FF0028CADA9049994AA3E677
:1029600099490D98FDF7D0FB002806D0974D98495E
:102970002800FDF7C9FB00281BD103F0F1F9050081
:1029800003F0F8F9A369C02105936369914A0493A0
:1029900023690393E3680293A368009001931EA840
:1029A0002B0012F09BFF002800DBD2E67B498A4A0D
:1029B0007AE628008949FDF7A7FB002805D0280002
:1029C0008749FDF7A1FB002810D17969FB780491B4
:1029D0003969844A0391F9681EA80291B968019186
:1029E00079680091C02112F079FFB2E628007E4993
:1029F000FDF78AFB00282FD10BF01AFD636A0D90BA
:102A00000F93B379F7691093337A346C1193336A67
:102A1000B5691293B36A13930BF01CFDF36CC021DC
:102A20000A93336D714A0993139B08900593129B87
:102A300007950393119B06940293109B04970193AF
:102A40000F9B1EA800930D9B12F048FF002800DB8F
:102A50007FE65249664A27E628006649FDF754FB9F
:102A600000281FD100F036FD040000F039FD0500FC
:102A700000F034FD060000F03FFD2300211E01D0D0
:102A8000A368E1680391029301902B00C0215A4A88
:102A900000961EA812F022FF002800DB59E63F49ED
:102AA000564A01E628005649FDF72EFB002856D16C
:102AB000159016901790189017AB18AA16A915A87C
:102AC000FEF7CAFB4F4C002814D1179B210002933C
:102AD000189B4D4A0193169B023000931EAD159B27
:102AE00003F0FAFF29004948FEF778FC002808D0D7
:102AF000474A00E0474A2100042003F0EDFF1F2071
:102B0000C0E41E9E301CFEF769FA6F680D90381CF9
:102B1000FEF764FA0500FEF781FA011C381CFEF787
:102B20001BF83D49FDF7C6FEFEF758FA02900D98D6
:102B30000195FEF773FA011C301CFEF70DF83649BB
:102B4000FDF7B8FEFEF74AFAC317C01858400090C8
:102B500021000D9B314A022003F0BEFF6CE6304E8F
:102B600028003100FDF7D0FA002878D101300CF0B0
:102B7000E7FD0CF0A1FE09F0EFF9002854D0074959
:102B8000284A1F2000F0D4FCB9E7C0468A97010804
:102B9000D0000020567E0108FE7B01082C6D010844
:102BA000710400001E7C0108297C01082E7C0108AC
:102BB0009A0300009B030000B6030000D6E601085C
:102BC000587C0108B5030000A27C0108E000002049
:102BD000A67C0108AB7C0108860400005D82010828
:102BE000F97C0108FF7C0108467401083C7D01085E
:102BF000AA04000070760108B07D0108BB04000043
:102C0000E07D0108197E0108E47D0108F80C002030
:102C10004B7E01081D7E01080000C8422C7E010881
:102C20005C7E0108FA0400000CF046FE09F05AFA36
:102C3000041E02D0BA49BB4AA3E70CF03DFE0120B6
:102C400009F0D2FB012009F017FC0CF035FE09F069
:102C5000AFFC0CF031FE20000CF072FDECE528001A
:102C6000B149FDF751FA002806D1FEF713FF0028FD
:102C700015D0AB49AD4A37E62800AD49FDF744FA17
:102C8000002806D1FEF706FF002801D0FFF7FAFB67
:102C9000D2E52800A749FDF737FA002802D1FEF750
:102CA0001FFFF1E72800A449FDF72EFA002802D102
:102CB000FEF7E6FFE8E72800A049FDF725FA00281F
:102CC00001D10130F4E728009D49FDF71DFA0028E5
:102CD0000BD101F09DFC9B4A031E9B4800D139E5B6
:102CE000C0211EA812F0FAFD33E528009749FDF730
:102CF0000BFA00281FD100F0ABFB954A031EEFD161
:102D000001F086FC041E04D000F0BEFB2300914AB3
:102D1000E6E700F0E9FB040000F0EAFB2300009086
:102D2000C0218D4A1EA812F0D9FD002800DB10E555
:102D30007B498A4AB8E428008949FDF7E5F900286B
:102D400006D028008749FDF7DFF9002800D085E08C
:102D50000AF090FC041E03D1D5227149FFF787FBCE
:102D600003788148012B00D0F4E46278236960691C
:102D7000A569E6687D49012A03D07D49022A00D071
:102D80007C49277A7C4A0697E7780597A7780391CC
:102D90000090C0210497029601951EA812F09EFD96
:102DA0001EA8FEF76BFE002802D0E8225C499BE5D6
:102DB000A17A23790491E179704A0391A1791EA83F
:102DC0000291617A019161790091C02112F086FD32
:102DD0001EA8FEF753FE002802D0F422504983E5D6
:102DE000637A002B11D06648FEF748FE002802D017
:102DF000F8224B4978E52000617A1C30FEF7F6FE98
:102E000000280AD0F92246496EE55E48FEF736FEF4
:102E1000002802D0FF22424966E5A37A002B14D095
:102E20005948FEF72BFE002803D082223C4952006D
:102E30005AE52000A17A5C30FEF7D8FE002800D1C8
:102E4000FAE406223649FF324EE55048FEF716FEF8
:102E5000002800D1F0E40C223149F4E74C4F28005F
:102E60003900FDF751F9002806D00422280049490D
:102E700012F005FE002816D1474B4848DB7C002B9A
:102E800000D147481EACC022210002F085FF031E7E
:102E900007D02278002A04D1C0212000414A12F034
:102EA0001DFD200056E428003F49FDF72DF90028BC
:102EB00016D102F055FF050005F05AFFE378C02156
:102EC0000293A378394A019300902B001EA812F0B8
:102ED00005FD002800DB3CE41149354AFFF7E4FB1F
:102EE00009222800334912F0CAFD2B4C002807D0D4
:102EF00008222800304912F0C2FD002800D0FFE06F
:102F0000E37C2E490E9C662B01D000242C4928001E
:102F100018AA12F017FD012856D02A481AE4C04614
:102F20002C6D0108FC040000627E01080C05000005
:102F3000687E0108737E01087E7E0108897E010893
:102F4000937E0108DD7E01089D7E0108AE7E0108AA
:102F5000B67E0108D57E0108F97E01084A05000009
:102F60001F7F0108287F0108347F0108FADE01086D
:102F700013E6010824740108427F0108907F0108CC
:102F8000C87F0108DC7F0108F67F01080B8001087B
:102F9000268001082A800108D0000020E4000020DB
:102FA000C3BB01082F800108A37C01084D800108E4
:102FB0006B0500006E8001087880010836740108F6
:102FC00029740108818001087F4918A8FDF79CF841
:102FD00000285CD07D4918A8FDF796F8002863D03A
:102FE0007B4918A8FDF790F800285DD0794918A80A
:102FF000FDF78AF8002859D0774918A8FDF784F81A
:10300000002853D0754918A8FDF77EF800284FD046
:10301000734918A8FDF778F8002849D0714918A815
:10302000FDF772F8002845D06F4918A8FDF76CF835
:1030300000283FD06D4918A8FDF766F800283BD05E
:10304000390018A8FDF760F8002837D0310018A81B
:10305000FDF75AF8002833D0654918A8FDF754F851
:1030600000282FD0634918A8FDF74EF800282BD070
:10307000614918A8FDF748F8002827D05F4918A82B
:10308000FDF742F8002821D05D48FFF763FB0E9D55
:10309000002228001100012C1AD101F043FA594CEA
:1030A000031E1AD0584A1BE60225F1E70325EFE775
:1030B0000825EDE70525EBE70A25E9E70E25E7E713
:1030C0001525E5E71925E3E71C25E1E72825DFE7D6
:1030D00001F02FFA4D4C031EE4D1280001F0AEFAA6
:1030E00023000090C0214A4A1EA812F0F7FB0028D6
:1030F00001DBFFF72EFBB2224649D200FFF7D4FADC
:1031000028004549FDF700F8002804D10123434871
:103110006370FFF71FFB28004149FCF7F5FF00280B
:1031200003D160703F48FFF715FBE3683E48013369
:10313000E360FFF70FFB082A01D07F2A16D13B4A34
:103140009388002B01D1FFF7A6F90021013B9BB228
:103150009380D31819745378012B01D0FFF79BF992
:1031600033480331FEF73EFCFFF76FFB1300203BB3
:103170005E2B01D9FFF78FF92C498B883E2B11D993
:1031800000232C488B800B74FEF778FC002801D1BB
:10319000FFF759FB0D201F49274A00F0C9F90D2000
:1031A000FFF770F9CC182274002201339BB28B8098
:1031B000CB181A744978012901D0FFF76CF9D1E7CF
:1031C0000020FFF75FF9C046987E0108D48001080F
:1031D000D9800108DE800108E4800108E880010848
:1031E0009CC10108EE800108F1800108FE80010801
:1031F000048101084F970108558101080B810108DE
:1032000010810108AC7A01085B8101087382010812
:10321000768101082C6D01089181010899810108CE
:10322000A6810108AF810108BD810108D0000020FE
:1032300018E70108DA810108E7050000030070B50E
:10324000002820D0124883421DD11249124C0A781E
:103250002388D2B29DB201339BB27F2B00D90023C9
:103260000E4E36889E420FD10D4A1368013313600B
:1032700000230C4C0122237012F032FAFD23184275
:1032800001D1FC3B237070BD074E72552380EFE7E0
:10329000E80B0020AC0100202A01002028010020BA
:1032A00024010020200100202C01002010B500285E
:1032B00015D00B4B984212D10F220368094C1A62A9
:1032C0009969073A0A439A6100230122064923704B
:1032D00012F006FAFD23184201D1FC3B237010BD09
:1032E000E80B002020010020AC01002000487047BE
:1032F000D0000020012370B5050001213C355B4260
:103300000278534008221C005E080C400B4200D09B
:10331000054C3300013A6340002AF4D10130A84241
:10332000EED1D84370BDC0462083B8ED70B5010022
:1033300094B0002808D14B220120224900F0F8F86F
:103340000125280014B070BD04AE4022300012F0F8
:1033500005FC3000FFF7CEFFF0630FF061FA041EAA
:1033600005D0502217491F2000F0E2F810E0164B5C
:10337000164A69469A61164B019002930123009008
:1033800001A803930FF044FB002803D00FF07AFA52
:103390001F25D6E70E4B02203259E1180FF0BAFA7A
:1033A0000028F3D10434402CF4D10FF06BFA051E41
:1033B00002D06A220349D6E722003100054812F004
:1033C000CDFBBEE72582010800200240020F00006D
:1033D00000E00108B001002070B5174C4022200029
:1033E000164912F0BBFB164D2368AB4204D1802373
:1033F00062685B029A4213D034220021114812F015
:1034000013FB80235B026360012320002560A3601F
:10341000FFF770FFE06301220B4B00201A7070BDB4
:10342000A368013B012BE7D82000E66BFFF762FFA2
:103430008642E1D1EFE7C046B001002000E001087C
:1034400054425544BC010020AD01002070470000EB
:1034500000B50B4B91B01B78012B01D0FFF7BCFFDF
:1034600040220849684612F079FB0223684603931C
:10347000013B04930593FFF759FF11B000BDC0460F
:10348000AD010020B001002000B50A4B91B01B78BF
:10349000012B01D0FFF7A0FF40220749684612F038
:1034A0005DFB00236846039304930593FFF73EFFFB
:1034B00011B000BDAD010020B001002010B5044BDB
:1034C0001B78012B01D0FFF787FF002010BDC046FD
:1034D000AD01002000487047B00100200120704776
:1034E0000048704740820108004870474682010842
:1034F0000048704700000108044B05485B69042B35
:1035000002D8044A9B0098587047C046B00100207A
:103510004C82010820E701080022034B03491A707E
:1035200059609A607047C046000000207882010808
:10353000024B187059609A607047C0460000002026
:10354000004870470000002072B6C046FDE700004A
:10355000014B18707047C0460C00002070B5041E67
:1035600028D085781F2306880B2D1DD80122A52180
:10357000AA400901013B0A4216D10133022D13D1A1
:10358000033BB20710D164213000FCF773FE89B20F
:103590001D23002908D191313000FF31FCF76AFE6C
:1035A0008BB25A4253411C33E2780132D2B29A4272
:1035B00001D8E27070BD0123ED18EDB2E3700C2D5F
:1035C00001D8A570F6E70136A3702680F2E7000067
:1035D00010B510220021024812F026FA10BDC04694
:1035E000E8020020F0B585B0070009F0E1F8051EFB
:1035F00025D004794069631E9C41124B64421C40F3
:103600002D34FF3400281AD00EF030FC6E69030010
:10361000801B844213D93619F61A2B790A4A0B49B2
:10362000039301903B0002200294009603F054FAA9
:1036300030000EF021FC0EF019FC6B69C01A05B0C9
:10364000F0BDC046980800007D820108BED5010883
:1036500010B5041E05D10949094AFFF769FF20008A
:1036600010BD0279074B41795343074A4A439B18DF
:103670008279FA20800050431818F1E7DB820108B4
:103680003A04000080EE360060EA0000F8B507005A
:103690000D00141E07D18E221C49D2000120FFF715
:1036A00047FF0120F8BD1A4B994202D91749194A20
:1036B000F4E700261849D671FCF756FD64212080F6
:1036C0003800FCF751FD6421FCF7D4FD3800A170EF
:1036D0006421FCF7CFFD2800E1701049FCF744FDA0
:1036E0000E4920712800FCF7C5FD08000C49FCF7C5
:1036F0003BFD0B4960712800FCF7BCFD0800FA2176
:103700008900FCF731FDA0713000CBE7DB820108B6
:10371000FF5B2605710400001027000080EE3600D4
:1037200060EA0000F0B589B006000D0017000193B3
:10373000282819D802AC18220021200012F074F9B0
:103740000123A6702370E5700EF090FB019B606072
:10375000A7602000E360012D03D105F01BFA09B03A
:10376000F0BD05F051FAFAE701200349034AFFF7DB
:10377000DFFE0120F3E7C046DB820108660300009C
:1037800070B50F260824114D01002B6828001E6219
:103790009A6922439A6196231522DB0011F028FED4
:1037A000032809D1280011F0DDF80C202B681E62D7
:1037B0009A6914439C6170BD0028FCD00A20A8229D
:1037C0000349FFF7B5FE0A20F5E7C046600B00206D
:1037D000DB82010870B5124D124B2A689A4206D05E
:1037E00003207C221049FFF7A3FE032070BD0F26A3
:1037F000082402F05DFE280011F01CF92B6814204B
:103800001E629A6922439A610EF036FB2B6864208F
:103810001E629A6914439C610EF02EFB0020E5E7BE
:10382000600B002000440040DB820108F0B585B049
:103830000C001F1E019202D00A9B002B09D1962278
:103840001449D2000120FFF773FE0125280005B0BE
:10385000F0BD02AE3200FFF719FF019B0500E4182E
:10386000002807D00B490C4AECE70C4B3000E41859
:10387000FFF774FE0A4B9C42F7D83288094BB178A7
:10388000534364224A439B18F2789B183B600A9B7F
:103890001C60DBE7DB820108B304000000A4D9FA56
:1038A000FF5B260510270000F7B51E00089B0500EA
:1038B0000F001000002B02D0099B002B07D1A22281
:1038C0000F49D2000120FFF733FE0120FEBD03F0B7
:1038D000BDFE012802D00A490A4AF3E7099B3200DB
:1038E000009339002800089BFFF7A0FF002802D0B2
:1038F0000349054AE6E70A9B002BE7D01860E5E795
:10390000DB8201081105000021050000F0B504006C
:1039100085B00800002C08D191221C49D20001205A
:10392000FFF706FE012005B0F0BD03F08FFE012871
:1039300002D01649164AF2E702AD082221002800FB
:1039400012F00CF9E3782000A67827880193FFF79E
:103950007FFE1049FCF708FC431C0E4858430E4BF1
:10396000984207D92800FFF7F9FD0020EB782F884F
:10397000AE7801936421094B71437B435B18019935
:10398000074A5B18906053600020CCE7DB82010897
:103990008904000060EA0000FF5B26051027000094
:1039A00038030020F0B5394B93B0DB68DB060FD449
:1039B000374CE378002B04D00320364A364903F015
:1039C0008BF8002302252380E370280013B0F0BD9C
:1039D00006A8FDF781FE051E05D03049304A2800B3
:1039E000FFF7A6FDF1E708A804F016F8FD2305008F
:1039F000184216D102AAE03B9B18D87F022603F09A
:103A000031FE234CFF3623880100B3420CD006A8B8
:103A1000A170FFF77BFF051E0ED001201F49214A30
:103A2000DEE71E49204ADAE7A3788342EFD1E37844
:103A3000012BECD10025C8E70123A768E370A37828
:103A40002680380019490593FCF714FC0800FA2178
:103A50008900FCF789FB164903903800FCF70AFC43
:103A600008001249FCF780FB114902903800FCF76E
:103A70007BFB019063680F4E074D009332002900D5
:103A8000059B022003F028F8D4E7C0460028004038
:103A900038030020F1820108BED50108DB8201084D
:103AA000490500005B0500004C05000060EA0000CD
:103AB00080EE36002D830108F0B591B0041E0B9105
:103AC0000C920D9306D101204449454AFFF730FD81
:103AD00001270CE000230B9A0EAE30001370FDF7A7
:103AE000FBFD071E06D03D493E4AFFF721FD380089
:103AF00011B0F0BD33883C4DB2785D43642353432D
:103B0000ED18F3783000ED18FFF7A2FDA368AB4283
:103B100061D802D1E26882425DD82269934203D122
:103B20006269E3689A42E2D001250B9B1D70230075
:103B3000A068E1681C33A278206161610293103BA8
:103B40000193043B00930D9BFFF7AEFE002803D0CA
:103B500028002249254AB9E7E668A37830002449BD
:103B600065690893FCF786FB0800FA218900FCF7D9
:103B7000FBFA204907903000FCF77CFB08001C4949
:103B8000FCF7F2FA1B4906903000FCF7EDFA0590BD
:103B9000A368280016490493FCF76CFB0800FA217F
:103BA0008900FCF7E1FA134903902800FCF762FB57
:103BB00008000F49FCF7D8FA0E4902902800FCF7DC
:103BC000D3FA019023690C4A00930C490C9B022004
:103BD00002F082FF8BE71C2789E7C046DB820108E1
:103BE00025070000290700001027000046070000F5
:103BF00060EA000080EE36006D830108BED5010842
:103C0000F0B591B004000F000C920D9300280AD17A
:103C1000D7224449D2000120FFF78AFC01230B93ED
:103C20000B9811B0F0BD00230EAE30000B70FDF705
:103C300053FD0B90002804D03A493B4AFFF778FC2B
:103C4000EEE73388394DB2785D4364235343ED1872
:103C5000F3783000ED18FFF7FBFCA368AB42DFD828
:103C600002D1E2688242DBD82269934203D16269C1
:103C7000E3689A42D4D0012523003D70A068E16832
:103C80001C33A278206161610293103B0193043BD5
:103C900000930D9BFFF708FE002802D02149244A1B
:103CA000B9E7E668A3783000224965690893FCF714
:103CB000E1FA0800FA218900FCF756FA1E4907903C
:103CC0003000FCF7D7FA08001A49FCF74DFA1A49F8
:103CD00006903000FCF748FA0590A36828001549C3
:103CE0000493FCF7C7FA0800FA218900FCF73CFAB4
:103CF000114903902800FCF7BDFA08000D49FCF7B4
:103D000033FA0D4902902800FCF72EFA019023693E
:103D10000A4F00933A000C9B0949022002F0DCFE96
:103D20007EE7C046DB820108BC06000010270000C9
:103D3000D906000060EA000080EE3600D08301085A
:103D4000BED50108F0B58BB0051E0691079207D1CC
:103D5000F2222B49D2000120FFF7EAFB012409E0FF
:103D600008AE3000FDF7B8FC041E06D02449254AF1
:103D7000FFF7DEFB20000BB0F0BD3388224CB27899
:103D80005C4364235343E418F3783000E418FFF7EE
:103D90005FFC2B00069A1D4E0C330100009320009F
:103DA0007243043BFFF742FD041E02D01449184A37
:103DB000D1E7EF68E8612861686116493800FCF7CF
:103DC00059FA0800FA218900FCF7CEF93100049075
:103DD0003800FCF74FFA08000E49FCF7C5F931002E
:103DE00003903800FCF7C0F90290AB680A4A0193CF
:103DF000069B0A4900930320079B02F06DFEB9E77A
:103E0000DB820108930700001027000080EE3600D7
:103E10009E07000060EA000029840108BED5010861
:103E2000F0B593B004000F000A920B93002806D15E
:103E30006D496E4A0120FFF77BFB012317E06C4BB5
:103E4000DB68DB0615D4C378002B07D0189B032052
:103E50000093684A68490B9B02F03EFE00232380D2
:103E6000E370A360E36023616361E361023309935C
:103E700016E0002909D14378012BEFD15F4A5E4952
:103E80000B9B022002F028FEE8E710AD2800FDF7AA
:103E900023FC0990002806D05349594AFFF748FBF4
:103EA000099813B0F0BD380003F0D0FB06000128DC
:103EB00002D04D49534ABDE72379012B0BD0FDF7C2
:103EC000CDFC0A9B3D215840FCF7D4F9FA239B0016
:103ED0004B432671A36102222388FF32934205D10E
:103EE000A378BB4202D1E378012BD9D0A369380073
:103EF000A7700D9303F0AAFB0A90012807D03A4956
:103F0000414A0120FFF714FB3749404A92E72B88CA
:103F10003F4EAA785E4364235343F618EB7828009B
:103F2000F618FFF795FB0FAB010000933000199ACC
:103F30000EABFFF77BFC002802D02B49354AE0E7A7
:103F40000F9B3549180079430C93FCF70DF90500D8
:103F50000E9EFDF783FC314A3B066A437340534093
:103F600058400B21FA25FCF785F9AD004D430D9B18
:103F700030005A1923000C3300930C99043BFFF7CF
:103F800055FC002802D01849254ABAE70223FF331E
:103F900023800A9BE768E370E5610695A369380012
:103FA00020490593FCF766F90800FA218900FCF71F
:103FB000DBF8194904903800FCF75CF9080019494E
:103FC000FCF7D2F8144903903800FCF7CDF80290C2
:103FD000A368154E0193A3783200009306490B9B0A
:103FE000022002F079FD5BE7DB8201084206000057
:103FF000002800406A840108BED501087F840108BA
:10400000590600005B060000E5040000740600008D
:1040100010270000F404000080EE3600B179379ECE
:10402000FC04000060EA00009684010810B58CB022
:1040300002A803F0F1FCFD230400184213D1EF3B6A
:104040006B44D87F03F00EFB094A0A4C01920A4ADE
:10405000010000922000094B094AFFF7E1FE04002D
:1040600020000CB010BD0749074AFFF761FAF7E7D7
:10407000C0D401001803002006850108F08401085F
:1040800043565253DB8201088C06000010B58CB0F9
:1040900002A803F0C1FCFD230400184213D1EE3B3B
:1040A0006B44D87F002801D003F0DCFA0A4A0B4C9D
:1040B00001920B4A0100009220000A4B0A4AFFF7C6
:1040C000AFFE040004E0D4220849D200FFF730FA22
:1040D00020000CB010BDC046E0930400F8020020A0
:1040E0003685010823850108544D474DDB820108C0
:1040F000A02010B5C0050022042102F0EBF800203A
:1041000010BD000070B51D4D2B78012B34D01C4C18
:104110001C4920000CF0A8F8002801D01E2070BD1A
:10412000194E21003000194B194A0CF0DBFC002815
:10413000F4D13200210017480DF076FA0028EDD1B5
:10414000154E210030000BF05DFE021EE6D130005E
:1041500012490BF073FE200009F086F80028DDD12B
:10416000FF220F4B0F4918700F4B02301A700123BA
:104170000E4A2B7002F0B0FC0020D0E7F6010020C0
:10418000C00200204C0D00204402002055E8010828
:1041900065E801081C020020F801002051350008E4
:1041A000F7010020BED501080C000020568501084B
:1041B000012210B5034B02201A700349034A02F092
:1041C0008BFC10BDF7010020BED501087A850108DF
:1041D00070B5051E07D101200B490C4AFFF7A8F95D
:1041E0000124200070BDFFF7DDFB041E04D006494A
:1041F000074AFFF79DF9F4E7064B2A0099685868CB
:10420000FFF744FA0400ECE7DB820108070B00002B
:104210000A0B000038030020F0B593B00E90002880
:1042200006D19749974A0120FFF782F901240AE055
:10423000FFF7FCFEFD230500184207D09049924A83
:10424000FFF776F92C00200013B0F0BDFFF71EFF3A
:10425000041E0F9000D106E1022800D100E1884938
:104260008A4AFFF765F9EEE73288894BB178534304
:1042700064224A439B18F27830009B180A93FFF798
:10428000E7F90D90002D4CD0002C00D1BEE0E2E00B
:10429000F36880490B930C9B0B98013707930897A1
:1042A000FBF7E8FF0800FA218900FBF75DFF7A4978
:1042B00006900B98FBF7DEFF08007649FBF754FFEA
:1042C000754905900B98FBF74FFF0490B3682800E1
:1042D00070490393FBF7CEFF0800FA218900FBF732
:1042E00043FF6D4902902800FBF7C4FF08006949AD
:1042F000FBF73AFF684901902800FBF735FF2300E0
:104300000090664A0320664902F0E6FB8023DB004A
:104310009F4207D15A49634A1F20FFF709F91F241A
:1043200091E72F00604E0A9BB468F5689C4203D366
:1043300015D80D9B9D4212D8F36929000C935B4B55
:10434000B27802935A4B200001935A4B00935A4B78
:10435000FFF7AAFA00289BD04949584A63E70F9B08
:10436000002B52D0290020000E9AFFF78FF904008D
:1043700069E70B9BE86101330B93EB6845490C93AC
:104380000B9B0C9809934E4B08930F9B0793FBF7DD
:1043900071FF0800FA218900FBF7E6FE3E4906900E
:1043A0000C98FBF767FF08003A49FBF7DDFE3A4936
:1043B00005900C98FBF7D8FE0490AB68380035499F
:1043C0000393FBF757FF0800FA218900FBF7CCFEA7
:1043D000314902903800FBF74DFF08002D49FBF7EB
:1043E000C3FE2D4901903800FBF7BEFE3300354A6D
:1043F00000902B49032002F06FFB80230B9ADB0017
:104400009A4205D11E49304A86E7012400230B93C6
:104410002E4D0A9BAE68EF689E4203D311D80D9BC8
:104420009F420ED8EB692A4A0F930092294B244AE7
:104430000D990A98FFF7FAF900289AD01049264AF0
:10444000F1E6012C07D1184B9C68A64203D3DD6826
:1044500088D8AF4286D81D4B0E9AD968986884E7F1
:10446000002D00D0EFE610AE3000FDF735F9071E45
:1044700000D1F9E60249194AFFF75AF83C00E2E692
:10448000DB8201081F0B0000220B0000250B00003F
:104490001027000060EA000080EE360095850108D4
:1044A000BED50108540B000018030020340300207F
:1044B0002403002020030020C0D40100470B00008B
:1044C0003075000021860108780B0000F8020020FA
:1044D0000403002000030020690B00002D0B0000E6
:1044E00000230B4A10B51380D37093605360094AC0
:1044F00002201380D3709360D360074A074913806A
:10450000D3709360D360064A02F0E6FA10BDC0464D
:104510003803002018030020F8020020BED501084F
:10452000B686010810B513000A000121FFF7FAF85A
:1045300010BD10B513000A000021FFF7F3F810BDFD
:10454000F7B5D822254C520000212000F426FA2786
:1045500011F06AFA0023224AF600BF0021489900B0
:10456000415801209160204998408C46FA216546C7
:1045700013704900284204D13900304201D1594218
:104580005941D16002210133117720320C2BE5D142
:10459000012525700024154B21001C70144B10229E
:1045A0001C70144B14481C70144B1C70144B1C7062
:1045B000144B1C7011F038FA21002022124811F01F
:1045C00033FA21002022114811F02EFAFFF700F8EB
:1045D000280022002100FFF7ACFFFEBD48030020A9
:1045E0004C030020D8E701085A080000F50100201C
:1045F000F4010020F301002038030020F201002024
:10460000F1010020F001002018030020F802002032
:1046100010B5012200210820FFF78BFF10BD00001C
:1046200000487047CC040020030000200B2B02D868
:1046300001485B01181870474C0300200300034831
:10464000282B02D8024A9B00985870471C87010803
:1046500034E70108F0B5224C8DB00B934301E41808
:10466000A37915000893E37907000993237AE2718F
:104670000A9300230E002372A1710DF0F7FB0123B2
:104680000B9A6371E318DA776369A06101336361A0
:10469000089BE061B34205D1099BAB4202D10A9B62
:1046A000002B1AD00F4ABB0008989C58FFF7C6FF92
:1046B00007003000FFF7C2FF0B9B01900693002319
:1046C00005930A9B02200493099B074A029307491A
:1046D00023000395009702F0FFF90DB0F0BDC0462E
:1046E00048030020D8E7010824870108BED5010847
:1046F000002310B51A0003211800FFF7ABFFFDF7E8
:10470000ADFE00220400030003211000FFF7A2FF0A
:10471000200010BDF0B505000E00A1B0282801D979
:1047200001F0F9F88623B74CFF33E0540DF09EFBFF
:10473000CE2301225B00E05000200C33E250203BEE
:10474000E0540BF013F80790002806D0AE49AF4AAA
:104750001E20FEF7EDFE1E2383E0681E272801D9E8
:1047600001F0D4F8FBF7F6FC2800D208EA00F700C5
:10477000FE00F7002001030125012C014001780112
:10478000E801EE0108027702810290028B029A0290
:10479000A802FC030C042E063406420646064C060C
:1047A0005A06D007D407DA07E807030807081308F2
:1047B0002608C908AE08CD08002303211A001800F6
:1047C000FFF748FF002304211A000120FFF742FFF2
:1047D000002307211A000220FFF73CFF00230921D4
:1047E0001A000320FFF736FF00230D211A000420D2
:1047F000FFF730FF002311211A000520FFF72AFFE1
:10480000002314211A000620FFF724FF002318219B
:104810001A000720FFF71EFF00231B211A000820A3
:10482000FFF718FF00231F211A000920FFF712FFCE
:10483000002323211A000A20FFF70CFF0023252163
:104840001A000B20FFF706FF002203201100FFF7DC
:1048500070FE011E07D06C496D4A1B20FEF768FEF2
:104860001B23079367E002000420FFF762FE011E8E
:1048700003D08F2264491201EFE702000720FFF7FF
:1048800058FE011E02D06049624AE6E70200092094
:10489000FFF74FFE011E02D05B495F4ADDE70200D1
:1048A0000D20FFF746FE011E02D057495B4AD4E7B0
:1048B00002001120FFF73DFE011E02D05249584A66
:1048C000CBE702001420FFF734FE011E02D04E4950
:1048D000544AC2E702001820FFF72BFE011E02D047
:1048E0004949514AB9E702001B20FFF722FE011E89
:1048F00002D045494D4AB0E702001F20FFF719FEDC
:10490000002802D040494A4AA7E70121002223207B
:10491000FFF70FFE011E02D03B49464A9DE7020009
:104920002520FFF706FE002802D03749424A94E7C7
:10493000C2235B00E054079821B0F0BDFFF7D8FE1A
:10494000002800D19BE190220A202F491201FEF796
:10495000EFFD0A2385E7002305211A000120FFF758
:1049600079FE8CE10122002306211000F7E7012ED9
:104970001AD1FA23314A9B003149032002F0ACF8E6
:104980008021320049002F480EF0C2F9FA20800041
:104990000DF072FA72B6BFF34F8F2B4B2B4ADA60D1
:1049A000BFF34F8FC046FDE7002308211A00022005
:1049B000D5E7FFF79DFB00230A211A000320CEE76D
:1049C000230068331D78012D0AD1002229000B2015
:1049D000FFF7AFFD2A00031E04D00B491C4A3CE739
:1049E00000231A000B21E9E7002201210C20FFF728
:1049F000A0FD031E02D00449164A2EE701220C2115
:104A0000DCE7C04648030020DB820108DD08000027
:104A1000EF080000F1080000F2080000F3080000B1
:104A2000F4080000F5080000F6080000F708000090
:104A3000F8080000F9080000FA0800005B87010888
:104A4000BED501080004005000ED00E00400FA05A6
:104A500037090000420900002022002116A810F0AA
:104A6000E3FFCD48FEF7BEFDCC4F03003900CC4A32
:104A7000022002F031F8A02001220421C00501F03B
:104A800029FC64200DF0F8F9FEF7A4FE00280DD0F3
:104A9000A02000220421C00501F01CFC03252B00EE
:104AA000C04ABE49032002F017F841E06423052202
:104AB000BD49BE4810F036FC061E06D0E222092091
:104AC000BB49FEF735FD0925E9E716A8FEF758FEB4
:104AD000050064200DF0D0F9A02032000421C005AB
:104AE00001F0F8FB002D05D0EE22B1492800FEF7B9
:104AF0001FFDD4E71523390016AA022002F018F88A
:104B000002F054F90600012002F048F9152116A818
:104B100002F050FA0500300002F040F9002D02D0FA
:104B2000FA22A349E2E739000220A24A01F0D4FFA9
:104B30002B000022092141E709F094FD00230E21FA
:104B40001A0014E0230088331B78012B03D09A4B02
:104B50001B78012B0DD1002201210F20FFF7E9FC6A
:104B6000031E02D09249954A77E601220F210420C4
:104B7000F5E608F0FFFBE1E7914B1B78012B58D1DC
:104B80008D4B1A78012A09D100228E481A700BF039
:104B900071FE8D480BF086F900284AD18B4B1A78AC
:104BA000012ACBD1FE321A7008F08AFB002804D00B
:104BB0000320874A794901F08FFF16AD280008F0DD
:104BC000B1FC061E35D12B78012B23D16978AB7847
:104BD00003916979714F0291297902200191E97855
:104BE0007C4A0091390001F077FF6D78012DA5D145
:104BF000320029001520FFF79CFC031E9ED12A00DD
:104C000015210620FFF726FD3900734A022001F026
:104C100063FF93E7714D28000CF012F900280FD0C4
:104C20006F480CF029FD002888D00238C0B2032854
:104C300084D95F496B4A1F20FEF77AFC1F2310E6D8
:104C4000012128000BF082FF022800D876E7042813
:104C500000D173E7EDE7002310211A000420FFF7CD
:104C6000F9FCC22301225B00E2545F48FCF714FC0C
:104C7000002804D004205D4A5D4901F02DFFC223C5
:104C800001225B00E25456E6002213201100FFF7D8
:104C900050FC0028F3D04649564ADEE500220121A7
:104CA0001520FFF746FC021E02D04149524AD4E5C6
:104CB00003001521062052E60023202104AA4F4DAF
:104CC000D377521813702B78012B00D0BBE06B7890
:104CD000012B00D0CCE04A4BDB68DB0614D4A8786B
:104CE00005F07CFE474A03002C49032001F0F4FE46
:104CF0000022454B14211A70444B1A70444B1A7011
:104D0000444B1A701300D5E716AF3800FCF7E4FCEB
:104D1000002806D02649404AFEF70AFC24493F4AAB
:104D200089E73B883E4EBA785E4364235343F618C6
:104D3000FB783800F618FEF78BFC6B68B34203D89B
:104D400076D1AB68984273D22C4DA87805F046FE18
:104D5000AE68089033493000FBF78CFA0800FA215E
:104D60008900FBF701FA304903903000FBF782FA23
:104D700008002C49FBF7F8F92B4902903000FBF7AB
:104D8000F3F901906B68294F00933A00089B03499F
:104D9000022001F0A1FEABE77C870108BED5010827
:104DA0008A870108048801084DE80108600B00208B
:104DB000DB820108D8870108F7010020660900009E
:104DC000F6010020C0020020F80100200C000020A5
:104DD0003A88010863880108978801084402002086
:104DE0001C02002074090000F80C0020B68801089D
:104DF000197E0108870900009A090000E8020020D6
:104E000000280040C1880108F4010020F2010020C0
:104E1000F1010020F00100204A080000A50900006F
:104E20001027000060EA000080EE360009890108C2
:104E3000A87805F0D3FD0300A74AA849022001F095
:104E40004BFEFEF7C5FBA64D2B78012B7BD0A54B67
:104E50001B78012B77D1FFF7E9F8022838D000281A
:104E60002CD0A149A14AFEF763FB9F49A04AE2E684
:104E7000EE68002E1CD080235B029E4200D91E00EB
:104E8000300009F0A7FB002802D09749994A43E770
:104E9000EB68A8789B1BEB6005F0A0FD0300E868B9
:104EA000954A01908D490096022001F015FE1FE7FA
:104EB000A87805F093FD914A0300BEE71F2104AED8
:104EC0008F4A9048904B8919FEF79AFE0028CCD162
:104ED000FFF7DCF8022810D0002806D082498B4A60
:104EE000FEF726FB80498A4AA5E68A4A8A488B4B08
:104EF0000CA9FEF785FE0028F4D1202104ABDA7F4F
:104F00005B181B78012A13D0012B11D00022844B8F
:104F100006201A700C391300FFF79CFBC2230122F4
:104F20005B00E2546D497F4A022001F0D5FD02E5A5
:104F30007D490A707D490B70012A03D0013B5A421A
:104F40005341DAB22A70002201211620FFF7F1FA4C
:104F5000031E02D06449764A7FE401221621A9E6A5
:104F600001200AF0EDFB002201211720FFF7E1FAF2
:104F7000031E02D05C496F4A6FE40122172199E6B3
:104F8000584B16A81B78099302F046FDFD23060036
:104F90001E40184202D05449674A4CE64F2304AAE7
:104FA0009B18DD7F002D03D0280002F05BFB05007D
:104FB000099B012B10D15A4F3B78012B0CD15F4A32
:104FC0004649022001F088FD09F026FB002802D0A6
:104FD00045495B4A2FE6387007F0AEF80890002884
:104FE00000D13AE107F0E4FB3C49564B099108999E
:104FF000554A009104000999032001F06DFD07F066
:10500000DDFA031E07D00320504A099901F064FD20
:1050100000200AF095FB002C07D0257F082D20D01A
:10502000A827092D1ED0FEF7D3FA00243C4B2200FE
:10503000142106201C70089BFFF70CFBC4220121E1
:10504000434B520099542000043A491899540AF0ED
:10505000A9FB0790A04200D16DE423493D4AFFF728
:1050600077FB3027FEF7B4FA01233B4C23703B4B10
:10507000A570DA681023110019401A4200D1CAE065
:10508000FEF7D4FF0790022818D000280ED016494A
:10509000334AFEF74DFA1449324A0798FEF748FAA8
:1050A0001149314A0798FEF743FA44E43900144A9B
:1050B0001448FEF747FE07900028ECD1FEF7E6FF04
:1050C000079002285FD0002854D00749274AFEF7EE
:1050D0002FFA0549264AE0E765890108BED501088F
:1050E000F2010020F3010020DB820108F506000038
:1050F000B30900006708000097890108F2890108D8
:10510000F084010818030020C0D401000E0700003D
:10511000B409000023850108F8020020E093040090
:10512000F40100202D8A0108F1010020F001002087
:10513000C3090000CB090000D7090000658A0108F7
:10514000DE090000978A0108A38A0108E98A01089C
:1051500048030020CD080000E8020020002800409D
:10516000B9070000F3070000C1080000CA070000EB
:10517000F60700003900C04AC048FEF7E3FDFD23F2
:1051800007901842A5D101236370BD4B5A78012ABC
:1051900004D116009968DB686160A360B74A537850
:1051A000012B34D19368D268012E06D161689942EF
:1051B00003D804D3A168914201D36360A2602800A0
:1051C00005F00CFCA5680790AE492800FBF752F8E3
:1051D0000800FA218900FAF7C7FFAB4904902800BC
:1051E000FBF748F80800A749FAF7BEFFA649039065
:1051F0002800FAF7B9FF02906368A44E01933200C9
:10520000079BA3490097032001F066FC0DE7012EE0
:1052100000D008E7D3E7E12380261B017B43760219
:1052200030006170E36009F0D5F90790002802D0E2
:105230009849994A32E7E368984A28009B18E36046
:1052400005F0CCFBE16803000291954A09990196AB
:105250000097032001F040FCE7E6012007F0C4F8C6
:10526000012007F009F9099B012B0CD0884D8D4ACC
:105270002900022001F030FC09F0CEF9061E1CD0F6
:105280008449894AD7E46B425D41884FEDB23B784F
:10529000012B02D1280007F05BF9854E30780128F8
:1052A00001D107F061F93B78012B6ED03378012BE7
:1052B0006BD0280007F04CF967E029007D4A0220F6
:1052C00001F00AFC2022310016A810F0ADFB7A484C
:1052D000FEF788F929000300784A022001F0FCFB60
:1052E000A02001220421C00500F0F4FF64200CF08E
:1052F000C3FDFEF76FFA002808D0A0203200042179
:10530000C00500F0E7FF63496D4A94E46423052279
:105310006C496D4810F006F8071E06D04A22092095
:105320005C49FF32FEF704F9EDE716A8FEF728FA0C
:10533000060064200CF0A0FDA0203A000421C00566
:1053400000F0C8FF002E04D0562230005149FF3231
:10535000E8E7290016AA1523022001F0E9FB152130
:105360000CAA16A801F082FE002803D06022494949
:10537000FF32D7E72900554A022001F0ADFB0CA807
:1053800007F0FEF80CA807F007F907F017F9051E5B
:1053900002D040494E4A4EE40126FEF719F94D4B22
:1053A0002A001E704C4B14211D70404B06201D70AE
:1053B0003F4B1D702B00FFF74DF9C2235B00E654F5
:1053C000FFF7B9FA002319211A000720FFF7C7FADF
:1053D000002201211A20FFF7ACF8031E03D02D494B
:1053E0003E4AFFF73AFA01221A21EEE7002318217C
:1053F0001A00EAE700231C211A000820FFF7AFFA81
:1054000000221D201100FFF794F8021E03D021494D
:10541000334AFFF722FA03001D21EEE709F0D2F824
:105420000C2302001A40184200D141E10023202140
:1054300004AAD37752181370820811000133C008F0
:1054400019401840089109901A4200D1AFE0FEF7C8
:10545000A9FA041E09D116AE3000FCF73DF9041E6E
:1054600042D00C491F4AFEF763F8022C00D191E0AC
:105470001C2C00D18EE062E023850108F802002098
:105480001803002060EA000080EE36002F8B010830
:10549000BED50108DB820108240800000000FFFFE0
:1054A0009A8B0108098C0108F6090000F10100201F
:1054B000F0010020518C0108A68C0108B58C010870
:1054C000FF09000048E80108600B00200C8D01086E
:1054D000130A0000F3010020F20100202A0A000054
:1054E000450A0000B70500003388CF4FB2785F430C
:1054F00064235343FF18F3783000FF18FEF7A8F831
:10550000CA4D03006C68BC4244D8A86801D18342EC
:1055100040D3FA23C6499B005C43FAF725FEEB68AB
:1055200027189F4236D03000A978EF60FEF7EEF9D9
:10553000041E0DD00120BF49BF4AFDF7F9FF20002E
:10554000BC49BE4AFDF7F4FFBA49BD4AFFF785F9E9
:10555000AC68B7492000FAF78DFE0800FA218900EF
:10556000FAF702FEB74903902000FAF783FE08001D
:10557000AF49FAF7F9FDB34902902000FAF7F4FDBC
:1055800001906B68B04E009332003B000220AF499F
:1055900001F0A2FA099B002B0CD101210A20099AE3
:1055A000FEF7C7FF002873D0A249A94ACAE7099BA2
:1055B000002B60D0FEF73AFD002807D11F2104AC74
:1055C000A44AA548A54B0919FEF776FA1C2804D869
:1055D000A34C2300C340DB0703D4BC22954912012E
:1055E000B0E7FEF753FD002805D19E4A9E489F4B29
:1055F0000CA9FEF761FA1C2802D8C440E40702D4C3
:105600008C499B4A9EE71F2304AA9B181A78994B42
:1056100099491A700CAB1B780B70012A03D0013B1F
:105620005A425341DAB2954B1A70089A002A00D1B7
:1056300079E10022924B3C201A7008F0CBFF031E48
:1056400004D003208F4A814901F046FA002201214B
:105650000A20FEF76EFF002802D076498A4A71E7D9
:10566000030001220A210320FEF7F4FF874A0220EB
:10567000764901F031FA00231E211A000820FEF7B6
:10568000E9FFC2220121824B52009954FFF753F9DE
:1056900001220A210320099BFEF7DCFF7D4AE6E791
:1056A000220015210620089BFEF7D4FF7A4ADEE788
:1056B000724B1C78012C10D121001520FEF739FF08
:1056C000031E03D05B49754AFFF7C7F82200152176
:1056D0000620FEF7BFFF724AC9E7694B1978012916
:1056E000C9D00124152021001C70FEF722FF031EE3
:1056F00003D050496B4AFFF7B0F82200152106206D
:10570000FEF7A8FF684AB2E700231E211A0074E6DC
:10571000002320211A000920FFF721F9002201218E
:105720002120FEF706FF031E03D042495F4AFFF720
:1057300094F801222121EEE7514B1A78012A16D064
:1057400001250022290015201D70FEF7F2FE031E20
:1057500003D03849564AFFF780F82A001521062061
:10576000FEF778FF0220534A384901F0B5F90023CB
:1057700022211A00CFE7002201212420FEF7D9FEC2
:105780000122031E12D02B494B4AFFF766F8012273
:1057900020214A480DF0BCFA01200CF06DFB0022DC
:1057A000202146480DF0B4FA00231A0024210A20D3
:1057B000FFF7D5F80CAD280003F014F9022802D148
:1057C000280003F039F90C9A2B79120A1B061343AF
:1057D0002122013304A95218190A13705170190CAF
:1057E0001B0E9170D370280003F026F9280003F0F7
:1057F0004FF916A802F010F9022802D116A802F0FB
:105800003DF916A802F076F9002201212620FEF7C4
:1058100090FE031E03D00749294AFFF71EF8012214
:1058200026210B20FFF79BF81027000038030020EB
:1058300060EA0000DB820108D4050000B70B00001D
:10584000560A000080EE36005A8D0108BED50108C8
:10585000E60B0000F084010818030020C0D401000A
:105860000500001023850108F8020020E0930400E1
:10587000C60B0000F1010020F0010020F201002021
:10588000F4010020A18D0108DC0B0000F48D01085B
:10589000480300204F8E01089D8E01085A0A00001F
:1058A000E98E0108610A0000348F01087B0A0000BC
:1058B000890A0000778F0108980A00000004005050
:1058C000B70A0000204B1A78012A16D001250022C1
:1058D000290015201D70FEF72CFE031E03D01B4966
:1058E0001B4AFEF7BAFF2A0015210620FEF7B2FE7A
:1058F0000220184A184901F0EFF8002327211A0066
:105900008FE7C22303225B00FFF7BCF9C223022208
:105910005B00FFF7B7F901200C49104AFDF708FEBC
:105920000123FEF79EFF1C78012C00D0A3E60C4B50
:10593000089A210015201A70FEF7FBFD002800D1FF
:10594000AEE60249074AFDE5F5010020DB820108C9
:10595000CC0A0000B88F0108BED50108D5080000A8
:10596000F4010020EF0B0000F0B5AF4C8FB02678AB
:10597000012E08D00220AD49AD4AFDF7D9FD022520
:1059800028000FB0F0BDD6225200A3580133A35017
:10599000D42300225B00E250FEF7AAFE051E05D0CC
:1059A000A249A44A2800FDF7C3FDE9E708AF390082
:1059B000300003F061F9051E51D1BB781D1C282B66
:1059C00000D92825BB68EDB2002B1DD0681F202808
:1059D0001AD8FAF7ABFB1212193E193C3C3C193AA3
:1059E0003A3A193838193636361934341911111132
:1059F0001919191942424000082601237601A619F7
:105A000033720CF033FAF061C3235B00E554882352
:105A1000FA78FF33E2547A681133E250BA680833F7
:105A2000E250C822F96852000433E150A358013310
:105A3000A350043AA3580133A3502800CAE0072614
:105A4000DBE70626D9E70526D7E70426D5E70326B0
:105A5000D3E70226D1E70B26CFE70A26CDE71C289D
:105A600002D07249744A9DE7FDF79CFF05000228A9
:105A700008D000282ED06D49704A2800FDF758FD47
:105A80001C2D5DD100276E4BDD5D0B2D00D940E153
:105A90006E01A6193369002B00D13AE10CF0E6F94A
:105AA000B369002B04D0C01A3369984200D230E1A8
:105AB000681E28250A2800D997E0FAF74BFB8F00CB
:105AC000AD00D700E000E900F200FB0004010D0189
:105AD00017011F0106AF3800FBF7FEFD051E02D0BF
