:020000040800F2
:1000000000500020DD0C0108890A01088B0A010854
:1000100000000000000000000000000000000000E0
:100020000000000000000000000000008D0A010830
:1000300000000000000000008F0A0108910A01087A
:10004000ED0B01082D0D0108990A01082D0D01087D
:100050002D0D01087D0B01087F0B0108810B0108A4
:100060002D0D01082D0D01082D0D01082D0D010884
:100070002D0D0108350B01082D0D01082D0D01086E
:100080002D0D01082D0D01082D0D010800000000A7
:100090002D0D01082D0D01082D0D01082D0D010854
:1000A0002D0D01082D0D01082D0D0108BD0B0108B6
:1000B000CD0B0108DD0B01082D0D01082D0D0108E8
:1000C00010B5064C2378002B07D1054B002B02D02E
:1000D000044800E000BF0123237010BD9000002001
:1000E00000000000685B0108044B10B5002B03D032
:1000F0000349044800E000BF10BDC04600000000F6
:1001000094000020685B010802780B78002A03D075
:10011000013001319A42F7D0D01A70470023C25CF7
:100120000133002AFBD1581E7047000002B471460B
:1001300049084900095649008E4402BC7047C04630
:1001400002B4714649084900095C49008E4402BC6A
:100150007047C04603B47146490840004900095E33
:1001600049008E4403BC704703B4714649084000FF
:100170004900095A49008E4403BC704700224308D5
:100180008B4274D303098B425FD3030A8B4244D35F
:10019000030B8B4228D3030C8B420DD3FF220902A1
:1001A00012BA030C8B4202D31212090265D0030B60
:1001B0008B4219D300E0090AC30B8B4201D3CB0356
:1001C000C01A5241830B8B4201D38B03C01A524198
:1001D000430B8B4201D34B03C01A5241030B8B429A
:1001E00001D30B03C01A5241C30A8B4201D3CB0285
:1001F000C01A5241830A8B4201D38B02C01A52416A
:10020000430A8B4201D34B02C01A5241030A8B426C
:1002100001D30B02C01A5241CDD2C3098B4201D384
:10022000CB01C01A524183098B4201D38B01C01A02
:10023000524143098B4201D34B01C01A5241030979
:100240008B4201D30B01C01A5241C3088B4201D328
:10025000CB00C01A524183088B4201D38B00C01AD5
:10026000524143088B4201D34B00C01A5241411AFC
:1002700000D20146524110467047FFE701B5002009
:1002800000F0F0F802BDC0460029F7D076E77047CD
:1002900003460B437FD4002243088B4274D30309E7
:1002A0008B425FD3030A8B4244D3030B8B4228D388
:1002B000030C8B420DD3FF22090212BA030C8B42AE
:1002C00002D31212090265D0030B8B4219D300E04E
:1002D000090AC30B8B4201D3CB03C01A5241830BD3
:1002E0008B4201D38B03C01A5241430B8B4201D383
:1002F0004B03C01A5241030B8B4201D30B03C01AAC
:100300005241C30A8B4201D3CB02C01A5241830A25
:100310008B4201D38B02C01A5241430A8B4201D354
:100320004B02C01A5241030A8B4201D30B02C01A7E
:100330005241CDD2C3098B4201D3CB01C01A5241E5
:1003400083098B4201D38B01C01A524143098B426E
:1003500001D34B01C01A524103098B4201D30B0157
:10036000C01A5241C3088B4201D3CB00C01A52417C
:1003700083088B4201D38B00C01A524143088B4241
:1003800001D34B00C01A5241411A00D201465241DA
:10039000104670475DE0CA0F00D04942031000D3F9
:1003A0004042534000229C4603098B422DD3030A4E
:1003B0008B4212D3FC22890112BA030A8B420CD35E
:1003C000890192118B4208D3890192118B4204D387
:1003D00089013AD0921100E08909C3098B4201D307
:1003E000CB01C01A524183098B4201D38B01C01A41
:1003F000524143098B4201D34B01C01A52410309B8
:100400008B4201D30B01C01A5241C3088B4201D366
:10041000CB00C01A524183088B4201D38B00C01A13
:100420005241D9D243088B4201D34B00C01A5241EA
:10043000411A00D20146634652415B10104601D377
:100440004042002B00D54942704763465B1000D301
:10045000404201B5002000F005F802BD0029F8D0A7
:1004600016E770477047C046002B11D1002A0FD104
:10047000002900D1002802D00021C943080007B498
:10048000024802A14018029003BDC046D9FFFFFFF9
:1004900003B4684601B5029800F034F8019B9E460B
:1004A00002B00CBC7047C046F0B5CE469946030C6E
:1004B0009C46130447461B0C1D000E0061460404B5
:1004C000240C80B50700100C4B4365434143604347
:1004D0002C0CC01824188C46A34203D980235B023D
:1004E0009846C444494679435643230C2D042D0CA9
:1004F0008919634424046019C918C0BCB946B046C0
:10050000F0BDC046F0B557464E464546DE46E0B51E
:1005100004000D009246994683B08B4230D82DD00E
:100520004946504600F038FE29000600200000F041
:1005300033FE331A9846203B34D49B4653465A46E2
:10054000934042461F00534693401E00AF423BD8A3
:10055000AF4200D179E05B46A41BBD41002B00DA1D
:1005600076E0002200230092019301235A46934033
:100570000193012342469340009329E08242CFD960
:1005800000220023009201930C9B002B01D01C60E1
:100590005D600098019903B0F0BCBB46B246A94625
:1005A000A046F0BD42469B4620239B1A5246DA40A5
:1005B000414613004A468A40170042461F435346AD
:1005C00093401E00AF42C3D9002200230092019342
:1005D0004346002BD8D0FB0772081A4346467B08D7
:1005E0000EE0AB4201D1A2420CD8A41A9D410120D9
:1005F00024196D410021013E24184D41002E06D0E2
:10060000AB42EED9013E24196D41002EF8D100987D
:1006100001995B4600196941002B24DB2B005A46E7
:100620004646D3402A001C00F2405B461500002BD2
:100630002ADB26009E40330026004746BE4032009B
:10064000801A9941009001919EE7A342BCD882E7AD
:100650004246202300219B1A002200910192012290
:10066000DA40019285E7424620239B1A2A0046463B
:100670009A402300F340464613432A001C00F240F0
:100680005B461500002BD4DA202342462F009B1B2B
:1006900097402600DE403B003343CDE7F0B54646A9
:1006A0004F46D6464502C0B5C30F470098460E1CBC
:1006B0006D0A3F0E5BD0FF2F21D08023ED00DB04BD
:1006C0001D43002399469A467F3F74027300640AD3
:1006D0001B0EF60F002B20D0FF2B43D080220020D2
:1006E000E400D20414437F3B4246FF1A4B4672405B
:1006F0000F2B00D99DE071499B00CB589F46002DE0
:100700005AD108239946063B74029A467300FF2784
:10071000640A1B0EF60F002BDED1002C3BD1012307
:1007200042464946724019430E2918D86448890048
:1007300041588F465346022B00D1B8E0032B6ED0B0
:1007400042462C00012B40D100200024C00520434C
:10075000D2071043E0BCBA46B146A846F0BDFF2020
:100760000024F3E7002C20D10223FF3FD8E7002D1F
:1007700005D104239946033B00279A46A5E72800A4
:1007800000F0ECFC7627431F9D4000237F429946F2
:100790009A463F1A99E7200000F0E0FC431F9C4076
:1007A00076235B421B1A00209EE703234A461A4326
:1007B00091460320FC3397E70C239946093BFF271A
:1007C0009A4682E703282CD0320038007F30002878
:1007D00047DD630704D00F232340042B00D00434EB
:1007E000230103D53800374B80301C40FE28B6DC8F
:1007F000A401640AC0B2A9E780240022FF20E40318
:10080000A4E78023DB031D4201D01C420BD08024CF
:10081000E4032C4364024246FF20640A96E74646FE
:100820002C008023DB031C4364023200FF20640A97
:100830008CE76D01600185422DD21B230024013F0E
:100840000126290064006D00002901DB854201D3E7
:100850002D1A3443013B002BF3D16B1E9D412C43D9
:10086000B3E701231B1A1B2B00DD6DE721009E3728
:10087000D940BC400B00611E8C412343590704D072
:100880000F211940042900D00433590113D49B01CE
:1008900000205C0A5AE71A2301242D1AD0E7981E7B
:1008A00043425841404232000024C0B24EE7424623
:1008B000FF2000244AE70120002447E78C5B010861
:1008C000CC5B0108FFFFFFF7F0B54F464646D64622
:1008D0004502C0B546000F1C6D0A360EC40F002E2F
:1008E00000D1CDE0FF2E72D08023ED00DB041D434C
:1008F000002399469A467F3E7B025B0A98467B001E
:100900001B0EFF0F002B72D0FF2B00D1A9E07F3B05
:10091000F6184B460A2B00DD85E043468022DB00BB
:10092000D2041A434B4690467C400022022B0FDD36
:10093000494601238B40A621C9000B4200D072E03A
:10094000902189000B4200D0DAE08821194267D15A
:10095000280C42462D042D0C4346290012041B0C82
:10096000120C51435D4342435843AD180B0C5B19C5
:100970009A4203D9802252029446604409041A0420
:10098000090C52189501691E8D411B0C920E1B1803
:1009900015439B011D431B0100D5CFE030007F3084
:1009A000002800DCB1E06B070BD00F2332002B4096
:1009B000042B06D004352B0103D5803210006A4B7E
:1009C0001D40FE2864DCAB015B0AC0B21FE0002DB5
:1009D00000D08FE008239946063B9A467B025B0ACB
:1009E00098467B00FF261B0EFF0F002B8CD1434641
:1009F000002B5CD14A4601331A43914613000A2A60
:100A000011DC01227C40022B92DC00200023C00577
:100A10001843E4072043E0BCBA46B146A846F0BDFF
:100A20003C00454692465346022B31D0032B11D051
:100A3000012BEAD030008030721C002866DD6B0785
:100A4000B9D00F232B40042BB4D1B4E70F2A7AD0AE
:100A50003C0045468023DB032B435B02FF205B0AFF
:100A6000D5E74346FF36002B34D14A4602331343C1
:100A70000A2BD8DC7C40002A0AD09946022257E78C
:100A8000002D08D104239946033B00269A4633E7FC
:100A9000FF200023BBE7280000F060FB7626431F01
:100AA0009D400023764299469A46361A24E74046EE
:100AB00000F054FB4B46361A763E0A2BB3DC434615
:100AC0000538834098464B4600227C40022B00DDCF
:100AD0002EE73DE703234A461A4313000A2AB5DCF2
:100AE00001229A40882113007C400322194200D140
:100AF0002EE795E70C239946093BFF269A46FBE62D
:100B000080230024FF20DB0381E7320001231B1A2E
:100B10001B2B00DD79E79E3229009540D9406A1EE3
:100B200095410D436B0704D00F232B40042B00D0BD
:100B300004356B0113D50120002368E701236A08FF
:100B40001D40154376E78023DB031D4282D04246D9
:100B50001A4200D07EE73C00FF20134357E7AB0169
:100B600000205B0A53E7C046FFFFFFF7F8B5474692
:100B7000CE464B02460080B5C40F4702580A844651
:100B800048007A0A360EBF09000ECD0F9B09FF28D8
:100B90006DD001214D40311AAC423AD0002900DC21
:100BA0009CE1002800D19EE0FF2E00D188E0802249
:100BB000D20413431B2900DCF6E0013F7A0100D484
:100BC00079E001277F42BF01BB099846404600F00B
:100BD000C5FA434605388340864200DCCCE0B44F7A
:100BE000311A1F405A0768D00F221340042B64D0DB
:100BF00004377B0161D5481CFE2900D081E0FF202D
:100C00000023C0051843E4072043C0BCB946B046E2
:100C1000F8BD002900DC79E1002876D1002B4CD00A
:100C2000481E012900D147E1FF2949D01B2871DC6A
:100C300001001A002020CA40411A8B40591E8B41E6
:100C40001343FF188023DB041F4200D1B8E0711C5E
:100C5000FE2ED4D0012297483A407F080740174320
:100C60007A0700D096E01F42C5D1FA0855E031005E
:100C7000FF398946002B2CD101214D40AC4200D1D7
:100C8000B4E0494600294CD0002E00D0F9E0FF2105
:100C9000002F00D108E14A1E012900D156E1FF29A9
:100CA00000D142E11B2A00DC24E15F1E2C0006007B
:100CB0007A0100D585E731000437FA08FF292CD1E5
:100CC000002A9CD08023DB0313435B02FF205B0AD6
:100CD00097E7AC4200D1A7E0002922D0002ED6D061
:100CE00062462C00EEE7002BE7D0481E012936D0E3
:100CF000FF29E5D001005DE701203B007A0100D427
:100D000057E1C0B2BB015B0A7BE7FF2ED8D01B299D
:100D100000DC9FE031000537FA0853025B0AC8B2D5
:100D20006FE7FE20711C084254D1002E00D0B1E0C4
:100D3000002F00D102E1002B00D1F9E08021FA1A46
:100D4000C9040A4200D13BE10124DF1B2C40002FE3
:100D500049D001200F42D5D10021FA08DDE7FF1A62
:100D60007B0100D4DEE0BD01AD09280000F0F6F9FA
:100D70002B000538834001262022811B0131521AA5
:100D80001F009340CF405A1E93411F432BD0002198
:100D90007B07B1D00F233B40042B00D028E77B0119
:100DA00000D528E7FA08B8E71A002020CA40411AFF
:100DB0008B40591E8B411343FF1A7B0100D502E77C
:100DC0007B0700D10DE10F2331003B40042B00D005
:100DD0000EE772E7FA1A9046520156D44346002BAA
:100DE00000D0F3E60024002000230AE7494600294A
:100DF0001CD0002E00D002E7FF21002F55D04A1E44
:100E0000012959D0FF2900D190E01B2A00DD91E093
:100E100011003A002025CA40691A8F40791E8F417F
:100E200017430600FF180DE7002926D1FE20711C8C
:100E3000084213D1002E00D096E0002F00D1B4E07C
:100E4000002B75D0FB185A0100D4B2E09B015B0A5D
:100E5000FD38D6E68022D2041343EAE6FF2900D10A
:100E6000CDE6FA185208530705D00F23171D13407B
:100E7000042B00D021E7D2084FE7002EBCD06246F9
:100E800020E72C00FF200023BBE60124DB1B984653
:100E90002C409BE6002F75D1002B00D096E08023DC
:100EA0000024FF20DB03ACE62C001F0005E7C04652
:100EB000FFFFFFFBFFFFFF7DFB185A0100D48DE011
:100EC0004A4A5B081A40590700D18CE00F210B40B9
:100ED0000D39042BCFD00221171DEEE6002900D1D9
:100EE0001FE7821B1100002E00D1D1E68021C9042A
:100EF0000F43D7E639002024D140A21A97407A1E2A
:100F000097410F432C000600DF1B56E700298DD0C8
:100F1000811B002E00D170E71B290BDC8022D2043C
:100F2000174376E70121FA08F7E62C006246C7E688
:100F30000021F2E605330100DA08EEE6002B00D1CD
:100F400050E70124002162462C40E6E6DA1B5301FB
:100F500032D592019409200000F000F923000538F1
:100F600083402C00012607E7002FDFD0002B17D08D
:100F70008023DB039A4200D2A4E69C4500D3A1E67D
:100F800062469FE6002B0BD08023DB039A4200D2FF
:100F900098E69C4500D395E6012462462C4091E6F4
:100FA0008023DB03FF2013432BE60020002B00D11E
:100FB00027E60021DA08B0E62C000121D208ACE6D1
:100FC000002A00D10EE70021D208A6E6802362465F
:100FD0000124DB03FF2013432C4012E60121DA0831
:100FE0009BE6310069E60221D20896E6FFFFFF7D0D
:100FF00041024200C30F490A0020120E7E2A03DD7F
:101000009D2A02DD094A9818704780200004014398
:10101000952A07DC9620821AD1404842002BF3D152
:101020000800F1E7963A9140F7E7C046FFFFFF7FDF
:1010300070B5002812D0C317C5185D40C40F280032
:1010400000F08CF89E231B1A962B0FDC082838D052
:10105000083885406D026D0AD8B202E000240020F5
:101060000025C0052843E407204370BD992B14DCFC
:10107000421F95402A001549114055071CD00F25E5
:101080002A40042A18D00431CA08490115D59F23E3
:101090005202181A550AC0B2E3E7020029001B32B7
:1010A00091404A1E91410522121AD5402A000A4356
:1010B000064911405507E2D1CA085202550AD8B272
:1010C000CFE76D026D0A8E30CBE7C046FFFFFFFB16
:1010D00010B5041E0DD000F041F89E231B1A962B6C
:1010E0000CDC082834D0083884406402640AD8B282
:1010F00001E000200024C005204310BD992B13DC23
:10110000421F9440144A224061071CD00F21214005
:10111000042918D00432D408520115D59F23640243
:10112000181A640AC0B2E6E7020021001B3291409F
:101130000A00511E8A410521091ACC401443064A6F
:1011400022406107E2D1D4086402640AD8B2D2E72F
:101150006402640A8E30CEE7FFFFFFFB1C210123EF
:101160001B04984201D3000C10391B0A984201D38A
:10117000000A08391B09984201D30009043902A268
:10118000105C40187047C0460403020201010101CF
:10119000000000000000000010B5002903D1FFF797
:1011A000DDFF203002E00800FFF7D8FF10BDC04689
:1011B0001FB56B4649BA99816423E021009303AAC5
:1011C000623B10F02FFF05B000BD000037B50022D4
:1011D000124C0090236869469A62802320005B01CC
:1011E000019310F0A3F8002802D00D4D28003EBD59
:1011F00020000FF0E5FF0028F7D10A21200010F0B1
:101200002BF8002807D1200010F08CF885B22000C0
:1012100010F002F8EAE7024DF9E7C0469C0D002005
:10122000FFFF000010B5010000780822C043312400
:10123000C0B243B24000C0B2002B02DA5B00634090
:10124000D8B2013AD2B2002AF3D14B780822312128
:10125000584043B24000C0B2002B02DA5B004B4062
:10126000D8B2013AD2B2002AF3D110BDF0B587B09E
:101270000190029103920493002B1CD08023002440
:10128000244DDB032A68032013432B600FF09AFDE3
:10129000082726002048FFF799FF05901F48FFF711
:1012A00095FF059B1E4A013B9BB2934206D92B68D2
:1012B0001C4A13402B60012007B0F0BD1A4B984226
:1012C000F5D0059B013FE4183618002FE2D1174BEB
:1012D00017481B88E40858432100FEF74FFFF60823
:1012E000070014497043FEF749FF049B4000186053
:1012F000039B002B00D01F60019B002B00D01C60C3
:10130000029B002B00D01E602B68064A0020134071
:101310002B60D1E7082701400000024402000004CE
:10132000FDFF0000FFFFBFFFFFFF00007800F81F78
:10133000B80B0000FF0F000030B50D0004008BB0AB
:10134000684605F015FD2A002100684605F035FEC7
:10135000684605F03BFE0BB030BD000010B50449F7
:10136000FFF726FF040001200FF02CFD200010BD28
:101370001735000010B50249FFF71AFF10BDC0462F
:1013800098B0000010B50449FFF712FF04000120D7
:101390000FF018FD200010BD5D800000F0B585B095
:1013A00005000F00FFF7DAFF041E19D128000F49CE
:1013B000FFF7FEFE041E13D1642303AE0093320038
:1013C000E0212800613B10F0D1FE041E08D130005E
:1013D000FFF728FFB378834205D133885BBA3B809F
:1013E000200005B0F0BD0124FAE7C046C8EF0000B8
:1013F000F0B587B005000F00FFF7B0FF041E46D11F
:1014000028002549FFF7D4FE041E40D10F200FF01D
:10141000D9FC642304AE00933200E02128005E3B37
:1014200010F0A4FE041E32D13000FFF7FBFEB378AB
:1014300083422FD10B2302AA9B181800FFF7F2FE5C
:101440007379834226D102ABDA7A1B7B30881B0288
:1014500013435BBA40BA9BB280B20393FFF738FEE6
:101460000E49FFF71BF90E49FFF72EFA0D49FFF75A
:101470007DFB38600398FFF72BFE0849FFF70EF954
:101480000949FFF721FA78602800FFF773FF200071
:1014900007B0F0BD0124FAE76678000000FF7F473F
:1014A00000002F43000034420000C84273B56B4671
:1014B0009E1D002305003380FFF750FF041E16D148
:1014C0002800FFF75FFF041E11D101200FF07AFC06
:1014D00031002800FFF762FF041E08D13388064957
:1014E000064A0B40934204D12800FFF743FF200037
:1014F00076BD0124FBE7C0463F0800000708000056
:10150000030C434004485843044B420B42405343AE
:10151000180C58407047C0466BCAEB8535AEB2C256
:1015200070B52D4C8EB020220021200013F022FA3D
:1015300038220021684613F01DFA0C21274E284A54
:10154000F36868460B40D35C01222377336D9B051B
:10155000DB0F6370234B1B681340A36011F03EFD4B
:101560000FF06EFB099B636011F078F9E06011F0F9
:101570000FFD206111F012FD606111F01FFD237F4E
:10158000A061012B07D005203D22174901F0DAFFA9
:1015900005200EB070BD33689B0506D43E2212496B
:1015A000062001F0CFFF0620F3E76378012B02D07D
:1015B00040220D49F4E7079B012B02D041220A4942
:1015C000EEE7A02209991202914202D04222064976
:1015D000E6E700202370DCE7B000002000100240A6
:1015E00028CF010800200240085C010810B594B023
:1015F0003422002107A801AC13F0BCF90021142209
:10160000200013F0B7F9102306930F3B0D93A0238E
:1016100006A81B020F9311F063F9011E07D05B228D
:101620000A49062001F08EFF062014B010BD0F23DA
:101630006060A060E06020612000019311F0DAFB9F
:101640000028F2D062220149EBE7C046085C01089D
:10165000014B18787047C046B00000200048704722
:10166000B0000020121A8B411000191E03DA00236B
:10167000014A801859417047005C260510B50FF0EB
:101680009BFB024B1B68C01810BDC046AC0000207D
:10169000F0B500260F008BB0039304AB01900292CB
:1016A00000211122D81D13F065F9039B05AD2B70A5
:1016B000109B04AC6B70119B0198AB70029B267061
:1016C000A37067706421FEF7C9FE074BE170290023
:1016D0001D003200180011F0DBFE3200210028004E
:1016E00011F03EFF0BB0F0BDF80D0020F0B5040086
:1016F00087B0002807D101209C221D4901F022FF5C
:10170000012007B0F0BD0822002101AD13F032F92D
:1017100014220021280013F02DF90022154F290072
:101720003800009212F04CF86E46031E06D0124AA2
:101730001249042004F0A4FD1F20E2E702006946DC
:10174000380012F065F8002803D003000C4A0B495A
:10175000EFE7FA22F378D2009B18238073782A8867
:10176000A370B378E370AB78A280A371C9E7C046D9
:10177000085C0108F80D0020205C0108FA9F0108B0
:10178000385C010830B58FB024216A46002307ACCD
:10179000521820001370FFF7A9FF051E17D1A17979
:1017A0002388049161790E4A0391217909A8029155
:1017B000E1780191A1780091142113F035F80949DD
:1017C000132807D00420084A04F05AFD1F352800CA
:1017D0000FB030BD054A09AB022004F051FDF6E719
:1017E00009A00108FA9F0108505C0108685C010823
:1017F000F0B51C4F87B001AE00223100380011F067
:10180000DFFF00226946380012F002F80023164A72
:1018100000213078FEF748FE002304000D00134A33
:1018200000217078FEF740FEFA2224184D41002373
:101830000021B0789200FEF737FE24184D41F96878
:1018400000290BD0FA20029B8000CB1A58430131AB
:10185000FEF794FC00230200A4185D41200029003B
:1018600007B0F0BDF80D002080EE360060EA000001
:10187000F0B5184B18481E68184B87B01C68184BF9
:1018800070401F68FFF73CFE134B0500E018FFF7A0
:1018900037FE144B0090F818FFF732FE01900098C5
:1018A0006840FFF72DFE019B43401800FFF728FE1C
:1018B000050003903018FFF723FE0490E01940194B
:1018C000FFF71EFE0322059003A907480FF05EFEF6
:1018D00007B0F0BD5000F81FB979379E5400F81FCB
:1018E0006400F81F72F36E3C780D0020002330B5C1
:1018F00004001800E25CDD00AA4001331043DAB2B4
:101900009142F7D830BDF7B5441801940F24130065
:10191000A446057864462F093E002C4037369F2D9B
:1019200000D8073E25001E703735092C01D8303409
:101930002500019C01305D700233A042E9D10023F3
:1019400049008B54F7BD000010B50C4C2378012BD7
:1019500011D00F220A4803681A629969073A0A43AC
:101960009A610849012212F061FEFD220A23104209
:1019700002D1093B23700023180010BD2001002074
:10198000C00B0020AC01002010B5114C50220021EA
:10199000200012F0EFFF0F4B0F4A1B68934206D056
:1019A00003200E490E4A01F0CDFD032010BD002397
:1019B00001210C4A617013700B4A217013800B4A8D
:1019C00013800B4A13600B4A1370FFF7BDFFEDE75E
:1019D000D0000020C00B002000380140785C0108D6
:1019E000FC050000AC0100202A0100202801002095
:1019F000240100202001002010B5154B0A001C789E
:101A0000012C07D002201349134A01F09BFD022448
:101A1000200010BD002809D1002901D10024F7E7DA
:101A200020000C490D4A01F08DFDF1E70029F5D0A9
:101A30000B4C01006423200012F01AFC0028EDD0AA
:101A400009200449074A01F07DFD0924E0E7C0466A
:101A5000D0000020785C01082E0600002F06000050
:101A6000C00B00203606000010B5041E07D1C822A6
:101A700001200649D20001F065FD012010BDFEF7EE
:101A80004DFB81B22000FFF7B7FFF7E7785C010854
:101A900010B5FFF7E9FF002802D10248FFF7E4FF85
:101AA00010BDC04642A3010810B5B6B004AC20007A
:101AB00005F0B2FD031E09D0C0210C4A06A812F0A1
:101AC000B3FE06A8FFF7E4FF36B010BD4821237827
:101AD0000391A188064A0291A17806A80191617834
:101AE0000091C02112F0A0FEEBE7C046905C010817
:101AF000AD5C0108F0B5C3B00AAF380005F08CFD4D
:101B0000051E0CD00300C021374A12A812F08CFE2B
:101B100012A8FFF7BDFF0500280043B0F0BDBB7859
:101B20000600002B43D13148F3E7637AC0210893C4
:101B3000237A2F4A0793E37912A80693A379059392
:101B40006379049323790393E3780293A378019351
:101B500023880093330012F067FE12A8FFF798FF66
:101B6000002802D09122234939E0A17D6289A3890E
:101B70000591617D1B040491217D13430391E17C58
:101B80001D4A0291A17C0191218AE0890904014347
:101B9000009112A8C02112F047FE12A8FFF778FFAB
:101BA000002802D09E22134919E00136F6B2BB7814
:101BB000B342B1D90CAC2100300005F08BFC0028F9
:101BC000B3D000903300C0210C4A12A812F02CFEB2
:101BD00012A8FFF75DFF0028E7D07F220549092002
:101BE00001F0B0FC092597E7DF5C0108FC5C010807
:101BF0002B5D0108785C01086C5D01080D5D010832
:101C0000F0B50024B5B002900191019B9C4201D334
:101C100000202FE02300C0211B4A04A812F004FE7C
:101C200000250600029B1F19019B1B1B9BB20393FF
:101C3000039B9D4201D0102D0BD104A8FFF728FF74
:101C400000281DD00920BE22104901F07BFC09208C
:101C500010E0C02104A83B780D4A891B801912F0BE
:101C6000E3FD0137002807DA1E20BA22074901F0F8
:101C700069FC1E2035B0F0BD01353618ADB2D7E78E
:101C80001034A4B2C1E7C046BE5D0108785C01080B
:101C900088850108F0B5CA4C0600A5440CAC2000AC
:101CA00005F0BAFCC74A031E1BD1A378C648002B17
:101CB0001CD010A805F05CF8022802D110A805F08D
:101CC00087F810A80EAD2AAC05F0BCF82B008022D6
:101CD000210010A8012E0FD105F03CF8031E0ED0F4
:101CE000BA4AC0214AA812F09FFD4AA8FFF7D0FEC9
:101CF000AB239B009D44F0BD05F026F8EEE7697923
:101D00002B8803912979B24A0291E9784AA8019176
:101D1000A9780091C02112F087FD4AA8FFF7B8FE0C
:101D2000002806D0AB49AC4A092001F00BFC092081
:101D3000DEE720002988FFF763FF002802D0A549CD
:101D4000A64AF1E72D883D2D0ED82B00A44AC021CC
:101D50007AA812F069FD7AA8FFF79AFE002800D051
:101D6000CEE1FFF7A1FEC3E72378022219009143D9
:101D7000A12901D09B4AEAE7A178702902D00B0083
:101D8000994AE4E701910093C0212B00974A7AA871
:101D900012F04AFD7AA8FFF77BFE002804D0C62285
:101DA0008C4952000920A9E129002000FFF728FFF3
:101DB000002803D08E228749FF32F3E723788C492D
:101DC000A32B00D18B4901910093C02100238A4AA3
:101DD0007AA812F029FD7AA8FFF75AFE002802D04F
:101DE00098227C49E8E76378C0210093834A012365
:101DF0007AA812F019FD7AA8FFF74AFE002802D04F
:101E0000CF227449CDE7A378C02100937C4A0223F6
:101E10007AA812F009FD7AA8FFF73AFE002802D04E
:101E2000A6226C49C8E7932006AB1AAEC018320050
:101E30000821FFF768FD0323C021724A00967AA8A3
:101E400012F0F2FC7AA8FFF723FE002802D0D72276
:101E50006049A6E79B2006ABC01832000821FFF7B7
:101E600052FD0B23C021684A00967AA812F0DCFCD0
:101E70007AA8FFF70DFE002802D0DB22554990E733
:101E8000E37CC0210093614A13237AA812F0CCFCB2
:101E90007AA8FFF7FDFD002802D0DF224D4980E738
:101EA000237DC02100935A4A14237AA812F0BCFC67
:101EB0007AA8FFF7EDFD002802D0C62245497BE74E
:101EC000A52006AB0221C018FFF710FD15230090D6
:101ED000C021504A7AA812F0A7FC7AA8FFF7D8FDD3
:101EE000002802D0CE223B4966E7A72006AB02219C
:101EF000C018FFF7FBFC17230090C021464A7AA8C0
:101F000012F092FC7AA8FFF7C3FD002802D0D62277
:101F1000304951E7A92006AB0221C018FFF7E6FCC3
:101F200019230090C0213D4A7AA812F07DFC7AA8BE
:101F3000FFF7AEFD002802D0DE2226493CE7AB20A9
:101F400006AB0221C018FFF7D1FC1B230090C02173
:101F5000334A7AA812F068FC7AA8FFF799FD0028A6
:101F600002D0E6221B4927E7AD2006ABC01832009D
:101F70000521FFF7C8FC1D23C0212A4A00967AA834
:101F800012F052FC7AA8FFF783FD002802D0F72256
:101F9000104906E72BABDB7F06A9019393235B185F
:101FA000DB7FC0210093204A22237AA812F03CFC58
:101FB0007AA8FFF76DFD002838D0F8220549FBE626
:101FC00054FDFFFFF45D0108115E01081D5E01086C
:101FD000355E0108785C01080E0300000F03000065
:101FE000725E0108895E0108A25E0108B85E010800
:101FF000CA5D0108C55D0108E35E0108075F0108CD
:10200000285F0108595F0108745F01088F5F0108AC
:10201000AF5F0108CA5F0108E65F010807600108B9
:1020200028600108486001086360010895233F2487
:1020300006AA9B18DB7F0A211C402000DB090293C3
:10204000FEF722F9C9B2019120000A21FEF796F8A5
:10205000D14FC0B2009024233A00C0217AA812F0D8
:10206000E3FB7AA8FFF714FD002802D0CB49CC4A45
:1020700098E6B52006ABC01832000421FFF743FCF8
:102080002523C021C74A00967AA812F0CDFB7AA872
:10209000FFF7FEFC002802D0C049C34A82E6B923FC
:1020A00006A95B181B78C0210093C04A29237AA88F
:1020B00012F0BAFB7AA8FFF7EBFC002802D0B74970
:1020C000BB4A6FE6BA230F2406AA9B181B78B949AE
:1020D0001C401B09013BDBB20B2B02D8B64A9B000C
:1020E000995800912A23C021B44A01947AA812F089
:1020F0009BFB002807DA1E20A849B14A01F022FA0A
:10210000A649B04A10E67AA8FFF7C2FC002802D020
:10211000A249AD4A46E6BB23012006AA9B181B78BC
:10212000AA4A99080140049159090140039199096B
:1021300001400291D90901910093C0212B237AA873
:1021400012F072FB7AA8FFF7A3FC002802D0934993
:102150009F4A27E6BD2306A95B181B78C02101937F
:1021600035AB1B789B4A00937AA82C2312F05CFBBA
:102170007AA8FFF78DFC002803D08F2287499200B0
:1021800010E6BE2306AA9B18BF221B78079306AB56
:10219000D218117836AA12789446C122D218107833
:1021A000C222D2181678C322D21817780A00079BC9
:1021B0001A4063461A40FF2A10D100902E23C021F6
:1021C000854A029701967AA812F02EFB7AA8FFF7AB
:1021D0005FFC002810D096227049D0E70293079B3D
:1021E000039001910093C0212E237C4A0597049609
:1021F0007AA812F019FBE9E737AB1B78C0210093EE
:10220000774A34237AA812F00FFB7AA8FFF740FC34
:10221000002802D06149734AC4E5C52306AA9B1869
:102220001B78C021099300936F4A35237AA812F0D6
:10223000FBFA7AA8FFF72CFC002802D057496B4A1A
:10224000B0E5C62306AA9B181B780A930A9A684B26
:10225000FF2A00D1674B01930A9BC0210093664A75
:1022600036237AA812F0E0FA7AA8FFF711FC0028CA
:1022700002D04A49614A95E5C72006ABC01804213F
:10228000FFF734FB0300079001330DD13723C02142
:102290005B4A7AA812F0C8FA7AA8FFF7F9FB071E82
:1022A0004AD03E49574A7DE5079BC0210093564AD4
:1022B000372301947AA812F0B7FAEDE7B21C0B921B
:1022C000934202D22300514A41E52AA802218019F3
:1022D000FFF70CFB4E4B82B29A420FD13300C02164
:1022E0004C4A00947AA812F09FFA7AA8FFF7D0FB24
:1022F000013400284ED0AC22284940E70A9AE3B2C4
:1023000080B293420FD3089B01330CD0089B0190FD
:102310001B1A08930293C02133003F4A00947AA805
:1023200012F082FAE1E701903300C0213B4A0094A9
:102330007AA812F079FAD8E73B260400079B0893A5
:102340000999E2B26B1E0B928A42B7D302222AA8E5
:10235000115C01327F18FFB29342F9D8A422920097
:1023600006A99A1852182E49521814782D49A742D6
:1023700000D12D4902912D4AC021019700947AA8DD
:1023800012F052FA7AA8FFF783FB002852D00349D3
:10239000274A07E50B9ED3E782600108785C0108B5
:1023A00005020000AA6001080F020000C5600108D4
:1023B00016020000CF5D010838CF0108E460010873
:1023C0002202000012030000230200000B6101083A
:1023D00031020000496101086B6101089D6101083B
:1023E000D561010862020000F16101086A02000083
:1023F00044A30108D75D01080C62010873020000C4
:102400002962010887020000566201087F62010804
:10241000FFFF00009B620108C8620108F462010826
:1024200000FEFFFFEB5D01086F90010812630108D9
:10243000C3020000074BA74200D1074B0293079B42
:10244000C0210193099B054A00937AA82B0012F042
:10245000EBF980E4EC8101086F9001084263010808
:1024600010B504210148FFF7C7FA10BD6BCF010872
:10247000F0B5BF4BCFB01B780E93012B06D0BD49F2
:10248000BD4A022001F05EF8022005E0FFF75CFA89
:1024900003000A20002B08D04FB0F0BD0021B44A41
:1024A0000B00907801281DD19170B449B4480A8876
:1024B000008893B2824201D100F08CFEB14AD25C16
:1024C00001339BB2D2B27F2B00D9002333200B8083
:1024D00008ABC01802700A2AE0D00D2A01D000F023
:1024E00034FE0E9B0022A24CA370A388E3181A743A
:1024F0006378012B04D1A448FFF7B6FA0028CBD1AA
:10250000237C002B00D1A1E10CF01CF90600FFF7A1
:10251000A5F8050001F01EF80F9001F089FC0400F9
:1025200005F0F8FC994B0700994918000D93FDF749
:10253000EBFD002800D0AEE09648FFF7A9FA00288E
:1025400000D0A6E09448FFF7A3FA002800D0A0E04E
:102550009248FFF79DFA002800D09AE09048FFF7D4
:1025600097FA002800D094E08E48FFF791FA0028EF
:1025700000D08EE08C48FFF78BFA002800D088E06E
:102580008A48FFF785FA002800D082E08848FFF7E4
:102590007FFA00287DD18748FFF77AFA002878D1A2
:1025A0008548FFF775FA002873D18448FFF770FA61
:1025B00000286ED18248FFF76BFA002869D1814864
:1025C000FFF766FA002864D17F48FFF761FA002818
:1025D0005FD17E48FFF75CFA00285AD17C48FFF7AC
:1025E00057FA002855D17B48FFF752FA002850D1FE
:1025F0007948FFF74DFA00284BD17848FFF748FAA1
:10260000002846D17648FFF743FA002841D17548A3
:10261000FFF73EFA00283CD17348FFF739FA00284B
:1026200037D17248FFF734FA002832D17048FFF7EB
:102630002FFA00282DD16F48FFF72AFA002828D159
:102640006D48FFF725FA002823D16C48FFF720FAE0
:1026500000281ED16A48FFF71BFA002819D16948E3
:10266000FFF716FA002814D16748FFF711FA00287F
:102670000FD16648FFF70CFA00280AD16448FFF72B
:1026800007FA002805D16348FFF702FA002800D1B5
:10269000DCE0092000E760490D98FDF735FD0028D2
:1026A00011D10CF053F8C02100905C4B5C4A1EA87D
:1026B00012F0BAF8002856DA2E495A4A1E2000F0C5
:1026C00041FF1E20E8E658490D98FDF71DFD002842
:1026D0002ED1737A0D9333690F9373691093636AE4
:1026E000119302F00FFF129005F00EFC04000AF0A7
:1026F00045FEB3790500F76913930AF051FE139B69
:1027000008900693129BC0210393119B474A0293A2
:10271000109B079701930F9B0595009304940D9BC5
:102720001EA812F081F800281DDA1249404AC5E7B8
:1027300040490D98FDF7E8FC002800D07EE0A9682C
:102740002B7F069169783C4A059169681EA804911F
:10275000A96903916969029129690191E968009168
:10276000C02112F061F81EA8FFF792F996E2C04668
:10277000D0000020785C0108150600002801002028
:102780002A0100202C01002042A30108E0000020C3
:102790009063010895630108C2630108F3630108AF
:1027A000226401085564010887640108B9640108BE
:1027B000EF6401081F6501084C6501088C6501087C
:1027C000C1650108FE6501082F66010864660108FD
:1027D0009C660108CE660108006701083F67010892
:1027E00071670108A8670108DB6701081468010820
:1027F0004968010885680108CE680108196901085F
:102800004F69010895690108C7690108FE69010857
:10281000346A0108636A0108417E0108936A01086D
:1028200037B901083B04000045650108AB6A01089F
:102830004E040000FE6A0108046B0108D8490D9897
:10284000FDF762FC00280ED1FEF79CFFD54B9A687D
:1028500001329A6000229A801A74FFF701FE002864
:1028600000D122E618E6D0490D98FDF74DFC00286E
:1028700012D10F990F9B89681B7801910F99CB4A50
:1028800049681EA80091C02111F0CEFF002800DB8E
:1028900069E7C749C74A11E7C7490D98FDF734FCF6
:1028A000002805D0C5490D98FDF72EFC002861D100
:1028B00001F0BEFA04000EF07FFA0D9002F022FE45
:1028C000050002F029FE676A0600A46A05F01CFBF9
:1028D0002B000390C021BA4A0294019700961EA8CB
:1028E00011F0A2FF002802DAB149B64AE6E61EA8B6
:1028F000FFF7CEF8051E10D0AD49B34A092000F00D
:1029000021FEC6E61EA8FFF7C3F8002802D0A8499A
:10291000AE4AF3E701350C2D98D0E8B201F08CFAFD
:10292000041EF7D04669002E01D00D9B9E1BA768A0
:10293000002F00D1A64F23690F93E3681093A0786E
:1029400001F084FA237F069607932379C02105932B
:10295000E378A04A0493109B039002930F9B009787
:1029600001931EA82B0011F05FFF0028CADA9049DE
:10297000994AA3E699490D98FDF7C6FB002806D0B1
:10298000974D98492800FDF7BFFB00281BD102F0A6
:10299000B9FD050002F0C0FDA369C021059363697C
:1029A000914A049323690393E3680293A368009018
:1029B00001931EA82B0011F037FF002800DBD2E6A0
:1029C0007B498A4A7AE628008949FDF79DFB002861
:1029D00005D028008749FDF797FB002810D17969B9
:1029E000FB7804913969844A0391F9681EA8029121
:1029F000B968019179680091C02111F015FFB2E624
:102A000028007E49FDF780FB00282FD10AF0B6FC94
:102A1000636A0D900F93B379F7691093337A346C2E
:102A20001193336AB5691293B36A13930AF0B8FC31
:102A3000F36CC0210A93336D714A0993139B08907C
:102A40000593129B07950393119B06940293109B89
:102A5000049701930F9B1EA800930D9B11F0E4FEB9
:102A6000002800DB7FE65249664A27E628006649CF
:102A7000FDF74AFB00281FD100F036FD040000F0EE
:102A800039FD050000F034FD060000F03FFD230095
:102A9000211E01D0A368E1680391029301902B00ED
:102AA000C0215A4A00961EA811F0BEFE002800DB85
:102AB00059E63F49564A01E628005649FDF724FBEE
:102AC000002856D1159016901790189017AB18AA99
:102AD00016A915A8FEF7CAFB4F4C002814D1179B66
:102AE00021000293189B4D4A0193169B02300093DC
:102AF0001EAD159B03F0C4FB29004948FEF778FC86
:102B0000002808D0474A00E0474A2100042003F08B
:102B1000B7FB1F20C0E41E9E301CFEF769FA6F68E9
:102B20000D90381CFEF764FA0500FEF781FA011CCF
:102B3000381CFEF71BF83D49FDF7C6FEFEF758FAB4
:102B400002900D980195FEF773FA011C301CFEF7F8
:102B50000DF83649FDF7B8FEFEF74AFAC317C0185C
:102B60005840009021000D9B314A022003F088FB61
:102B70006CE6304E28003100FDF7C6FA002878D107
:102B800001300BF083FD0BF03DFE08F0E5F9002865
:102B900054D00749284A1F2000F0D4FCB9E7C046AA
:102BA000D2830108D0000020A26D01084A6B010801
:102BB000785C0108710400006A6B0108756B0108FC
:102BC0007A6B01089A0300009B030000B603000023
:102BD00023CF0108A46B0108B5030000EE6B0108C8
:102BE000E0000020F26B0108F76B0108860400008A
:102BF000A9710108456C01084B6C0108926301083A
:102C0000886C0108AA040000BC650108FC6C01087E
:102C1000BB0400002C6D0108656D0108306D0108D2
:102C2000D00C0020976D0108696D01080000C842B2
:102C3000786D0108A86D0108FA0400000BF0E2FDB0
:102C400008F0CCF9041E02D0BA49BB4AA3E70BF046
:102C5000D9FD012008F034FB012008F079FB0BF0CE
:102C6000D1FD08F0E1FB0BF0CDFD20000BF00EFDD7
:102C7000ECE52800B149FDF747FA002806D1FEF738
:102C800013FF002815D0AB49AD4A37E62800AD49FF
:102C9000FDF73AFA002806D1FEF706FF002801D01A
:102CA000FFF7FAFBD2E52800A749FDF72DFA002827
:102CB00002D1FEF71FFFF1E72800A449FDF724FA2F
:102CC000002802D1FEF7E6FFE8E72800A049FDF75B
:102CD0001BFA002801D10130F4E728009D49FDF7D7
:102CE00013FA00280BD101F09BF89B4A031E9B4866
:102CF00000D139E5C0211EA811F096FD33E528006A
:102D00009749FDF701FA00281FD100F0ABFB954A67
:102D1000031EEFD101F084F8041E04D000F0BEFBC6
:102D20002300914AE6E700F0E9FB040000F0EAFB2B
:102D300023000090C0218D4A1EA811F075FD0028C7
:102D400000DB10E57B498A4AB8E428008949FDF791
:102D5000DBF9002806D028008749FDF7D5F90028BF
:102D600000D085E009F02CFC041E03D1D522714966
:102D7000FFF787FB03788148012B00D0F4E46278E9
:102D800023696069A569E6687D49012A03D07D4908
:102D9000022A00D07C49277A7C4A0697E778059773
:102DA000A77803910090C0210497029601951EA870
:102DB00011F03AFD1EA8FEF76BFE002802D0E822B3
:102DC0005C499BE5A17A23790491E179704A0391EA
:102DD000A1791EA80291617A019161790091C021C7
:102DE00011F022FD1EA8FEF753FE002802D0F422A7
:102DF000504983E5637A002B11D06648FEF748FE00
:102E0000002802D0F8224B4978E52000617A1C3076
:102E1000FEF7F6FE00280AD0F92246496EE55E4824
:102E2000FEF736FE002802D0FF22424966E5A37A6B
:102E3000002B14D05948FEF72BFE002803D0822225
:102E40003C4952005AE52000A17A5C30FEF7D8FEDA
:102E5000002800D1FAE406223649FF324EE55048F8
:102E6000FEF716FE002800D1F0E40C223149F4E709
:102E70004C4F28003900FDF747F9002806D00422FE
:102E80002800494911F0A1FD002816D1474B4848B8
:102E9000DB7C002B00D147481EACC022210002F091
:102EA0004DFB031E07D02278002A04D1C021200048
:102EB000414A11F0B9FC200056E428003F49FDF7D3
:102EC00023F9002816D102F01DFB050005F01CF8BF
:102ED000E378C0210293A378394A019300902B0034
:102EE0001EA811F0A1FC002800DB3CE41149354A82
:102EF000FFF7E4FB09222800334911F066FD2B4C53
:102F0000002807D008222800304911F05EFD002873
:102F100000D0FFE0E37C2E490E9C662B01D00024FC
:102F20002C49280018AA11F0B3FC012856D02A48D1
:102F30001AE4C046785C0108FC040000AE6D01088C
:102F40000C050000B46D0108BF6D0108CA6D0108D1
:102F5000D56D0108DF6D0108296E0108E96D0108D2
:102F6000FA6D0108026E0108216E0108456E010824
:102F70004A0500006B6E0108746E0108806E01083E
:102F800047C7010860CE0108706301088E6E010812
:102F9000DC6E0108146F0108286F0108426F0108F8
:102FA000576F0108726F0108766F0108D00000208A
:102FB000E400002044A301087B6F0108EF6B0108C7
:102FC000996F01086B050000BA6F0108C46F010812
:102FD0008263010875630108CD6F01087F4918A855
:102FE000FDF792F800285CD07D4918A8FDF78CF811
:102FF000002863D07B4918A8FDF786F800285DD02B
:10300000794918A8FDF780F8002859D0774918A801
:10301000FDF77AF8002853D0754918A8FDF774F821
:1030200000284FD0734918A8FDF76EF8002849D042
:10303000714918A8FDF768F8002845D06F4918A80D
:10304000FDF762F800283FD06D4918A8FDF75CF83D
:1030500000283BD0390018A8FDF756F8002837D0D3
:10306000310018A8FDF750F8002833D0654918A89A
:10307000FDF74AF800282FD0634918A8FDF744F857
:1030800000282BD0614918A8FDF73EF8002827D06A
:103090005F4918A8FDF738F8002821D05D48FFF7F0
:1030A00063FB0E9D002228001100012C1AD100F0B4
:1030B0004FFE594C031E1AD0584A1BE60225F1E771
:1030C0000325EFE70825EDE70525EBE70A25E9E706
:1030D0000E25E7E71525E5E71925E3E71C25E1E7D8
:1030E0002825DFE700F03BFE4D4C031EE4D128000D
:1030F00000F0ACFE23000090C0214A4A1EA811F047
:1031000093FB002801DBFFF72EFBB2224649D200D9
:10311000FFF7D4FA28004549FCF7F6FF002804D150
:10312000012343486370FFF71FFB28004149FCF768
:10313000EBFF002803D160703F48FFF715FBE36801
:103140003E480133E360FFF70FFB082A01D07F2AD6
:1031500016D13B4A9388002B01D1FFF7A6F9002135
:10316000013B9BB29380D31819745378012B01D083
:10317000FFF79BF933480331FEF73EFCFFF76FFB87
:103180001300203B5E2B01D9FFF78FF92C498B8868
:103190003E2B11D900232C488B800B74FEF778FC52
:1031A000002801D1FFF759FB0D201F49274A00F0E5
:1031B000C9F90D20FFF770F9CC18227400220133F1
:1031C0009BB28B80CB181A744978012901D0FFF784
:1031D0006CF9D1E70020FFF75FF9C046E46D010804
:1031E00020700108257001082A700108307001085C
:1031F00034700108E9A901083A7001083D7001081E
:103200004A7001085070010892830108A1700108FA
:10321000577001085C700108F8690108A77001087F
:10322000BF710108C2700108785C0108DD700108F7
:10323000E5700108F2700108FB70010809710108CE
:10324000D000002068CF010826710108E7050000C2
:10325000030070B5002820D0124883421DD11249C6
:10326000124C0A782388D2B29DB201339BB27F2BD5
:1032700000D900230E4E36889E420FD10D4A1368A6
:103280000133136000230C4C0122237011F0CEF99E
:10329000FD23184201D1FC3B237070BD074E7255CF
:1032A0002380EFE7C00B0020AC0100202A010020A2
:1032B0002801002024010020200100202C010020F2
:1032C00010B5002815D00B4B984212D10F2203687D
:1032D000094C1A629969073A0A439A61002301224C
:1032E0000649237011F0A2F9FD23184201D1FC3BDD
:1032F000237010BDC00B002020010020AC01002075
:1033000000487047D0000020012370B5050001215E
:103310003C355B420278534008221C005E080C409A
:103320000B4200D0054C3300013A6340002AF4D12F
:103330000130A842EED1D84370BDC0462083B8ED1D
:1033400070B5010094B0002808D14B220120224919
:1033500000F0F8F80125280014B070BD04AE40223A
:10336000300011F0A1FB3000FFF7CEFFF0630EF04C
:10337000FDF9041E05D0502217491F2000F0E2F885
:1033800010E0164B164A69469A61164B019002935B
:103390000123009001A803930EF0E0FA002803D067
:1033A0000EF016FA1F25D6E70E4B02203259E1180F
:1033B0000EF056FA0028F3D10434402CF4D10EF06C
:1033C00007FA051E02D06A220349D6E7220031001F
:1033D000054811F069FBBEE7717101080020024049
:1033E000020F000000E00108B001002070B5174C8A
:1033F00040222000164911F057FB164D2368AB42BE
:1034000004D1802362685B029A4213D034220021E7
:10341000114811F0AFFA80235B02636001232000A2
:103420002560A360FFF770FFE06301220B4B0020D3
:103430001A7070BDA368013B012BE7D82000E66B32
:10344000FFF762FF8642E1D1EFE7C046B0010020FE
:1034500000E0010854425544BC010020AD010020A9
:103460007047000000B50B4B91B01B78012B01D0C9
:10347000FFF7BCFF40220849684611F015FB022304
:1034800068460393013B04930593FFF759FF11B07E
:1034900000BDC046AD010020B001002000B50A4BC0
:1034A00091B01B78012B01D0FFF7A0FF4022074904
:1034B000684611F0F9FA00236846039304930593D4
:1034C000FFF73EFF11B000BDAD010020B0010020AC
:1034D00010B5044B1B78012B01D0FFF787FF0020AC
:1034E00010BDC046AD01002000487047B00100206B
:1034F00001207047004870478C71010800487047F0
:10350000927101080048704700000108044B05480B
:103510005B69042B02D8044A9B0098587047C04648
:10352000B00100209871010870CF01080022034B00
:1035300003491A7059609A607047C0460000002025
:10354000C4710108024B187059609A607047C046F8
:1035500000000020004870470000002072B6C046FE
:10356000FDE70000014B18707047C0460C000020BA
:1035700070B5041E28D085781F2306880B2D1DD812
:103580000122A521AA400901013B0A4216D10133BB
:10359000022D13D1033BB20710D164213000FCF798
:1035A00073FE89B21D23002908D191313000FF310B
:1035B000FCF76AFE8BB25A4253411C33E278013267
:1035C000D2B29A4201D8E27070BD0123ED18EDB27B
:1035D000E3700C2D01D8A570F6E70136A3702680A4
:1035E000F2E7000010B514220021024811F0C2F9E0
:1035F00010BDC046E802002010B5041E05D10949DF
:10360000094AFFF79FFF200010BD0279074B41795F
:103610005343074A4A439B188279FA20800050435B
:103620001818F1E7C9710108A603000080EE360002
:1036300060EA0000F8B507000D00141E07D1F7225C
:103640001C4992000120FFF77DFF0120F8BD1A4BB5
:10365000994202D91749194AF4E700261849D67148
:10366000FCF78CFD642120803800FCF787FD642185
:10367000FCF70AFE3800A1706421FCF705FE280063
:10368000E1701049FCF77AFD0E4920712800FCF723
:10369000FBFD08000C49FCF771FD0B496071280027
:1036A000FCF7F2FD0800FA218900FCF767FDA07124
:1036B0003000CBE7C9710108FF5B2605DD03000080
:1036C0001027000080EE360060EA0000F0B589B0F7
:1036D00006000D0017000193282819D802AC182203
:1036E0000021200011F046F90123A6702370E57037
:1036F0000DF062FB019B6060A7602000E360012D7C
:1037000003D104F013FB09B0F0BD04F049FBFAE764
:1037100001200349034AFFF715FF0120F3E7C046E4
:10372000C9710108D2020000F0B585B00C001F1E5F
:10373000019202D00A9B002B08D11549154A01209D
:10374000FFF700FF0125280005B0F0BD02AE3200F2
:10375000FFF770FF019B0500E418002807D00C4913
:103760000D4AECE70D4B3000E418FFF701FF0C4B5E
:103770009C42F7D832880B4BB178534364224A43BA
:103780009B18F2789B183B600A9B1C60DBE7C046E5
:10379000C97101081C0400001F04000000A4D9FA2C
:1037A000FF5B26051027000073B5050010000E0012
:1037B00003F060FA012807D08F220B49D2000120C4
:1037C000FFF7C0FE012076BD084A310000922800B4
:1037D000074B084AFFF7A8FF002802D00249064A13
:1037E000EDE7064BD861EEE7C97101080803002038
:1037F00004030020C0D4010084040000FC02002067
:10380000F0B5040085B00800002C08D1FD221C4949
:1038100092000120FFF796FE012005B0F0BD03F0F5
:1038200029FA012802D01649164AF2E702AD082209
:103830002100280011F038F9E3782000A6782788C5
:103840000193FFF7D9FE1049FCF798FC431C0E4882
:1038500058430E4B984207D92800FFF789FE0020F5
:10386000EB782F88AE7801936421094B71437B4339
:103870005B180199074A5B18906053600020CCE701
:10388000C9710108F503000060EA0000FF5B26052E
:10389000102700001C030020F0B5394B93B0DB6803
:1038A000DB060FD4374CE378002B04D00320364AD4
:1038B000364902F0E5FC002302252380E37028004E
:1038C00013B0F0BD06A8FDF711FF051E05D0304965
:1038D000304A2800FFF736FEF1E708A803F048FA5F
:1038E000FD230500184216D102AAE03B9B18D87FA1
:1038F000022603F0CBF9234CFF3623880100B342A4
:103900000CD006A8A170FFF77BFF051E0ED001208A
:103910001F49214ADEE71E49204ADAE7A37883429D
:10392000EFD1E378012BECD10025C8E70123A7688C
:10393000E370A3782680380019490593FCF7A4FCAE
:103940000800FA218900FCF719FC16490390380099
:10395000FCF79AFC08001249FCF710FC1149029090
:103960003800FCF70BFC019063680F4E074D009385
:1039700032002900059B022002F082FCD4E7C046F9
:10398000002800401C030020DF7101080BBE010865
:10399000C9710108AC040000BE040000AF040000BF
:1039A00060EA000080EE36001B720108F0B56D4B36
:1039B00097B0DB68DB060FD46B4CE378002B04D0A8
:1039C00003206A4A6A4902F05BFC00232380E3700B
:1039D0000224200017B0F0BD0AAF3800FDF786FEC4
:1039E000041E06D0AD226349D2002000FFF7AAFDD5
:1039F000EFE70CA803F0BCF9FD230400184212D134
:103A000002AACF3B9B18D87F03F040F9060003F0D1
:103A100031F90500012809D05649574A0120FFF71E
:103A200091FD0124D5E75349544ADEE74E4C2379F2
:103A3000012B09D0FDF71CFF3D21FCF725FCFA23E3
:103A40009B004B432571A36102222388FF329342DE
:103A500006D1A378B34203D1E378012B00D17FE0F4
:103A6000A3693000A670079303F004F906900128BB
:103A700008D08A223F49D2000120FFF763FD3D496B
:103A80003F4ACBE73B883F4DBA785D4364235343BD
:103A9000ED18FB783800ED18FFF7AEFD0CAB010018
:103AA00000932800384A09ABFFF73EFE002802D0F9
:103AB0003049364AE0E7364D0C9B7543099F069323
:103AC000002D04D029001800FCF758FB0500FDF775
:103AD000CFFE304B36066B437E40704058400B2182
:103AE000FA26FCF7D1FBB6007143079A0D00521875
:103AF000294938000091294B0699FFF715FE002847
:103B000002D01C49264AB7E70223FF332380013B3A
:103B1000FF3BE370A378E768E56105950693A36929
:103B2000380020490493FCF7AFFB08003100FCF794
:103B300025FB174903903800FCF7A6FB080019493C
:103B4000FCF71CFB124902903800FCF717FB0190B0
:103B5000A36802200093144A069B054902F090FBDB
:103B6000002436E700280040FC0200205B720108B8
:103B70000BBE0108C97101086C0500006B0500004F
:103B80008405000010270000C0D401005C04000080
:103B900080EE3600B179379E080300200403002030
:103BA0006404000060EA00008E720108A02010B5D5
:103BB000C0050022042101F061FF002010BD0000BB
:103BC00070B51D4D2B78012B34D01C4C1C492000A6
:103BD0000BF0F0FA002801D01E2070BD194E210014
:103BE0003000194B194A0BF023FF0028F4D13200A2
:103BF000210017480CF0BEFC0028EDD1154E210025
:103C000030000BF0A5F8021EE6D1300012490BF08F
:103C1000BBF8200008F0CEFA0028DDD1FF220F4BC0
:103C20000F4918700F4B02301A7001230E4A2B7087
:103C300002F026FB0020D0E7F4010020C0020020A3
:103C4000240D002044020020A0D00108B0D00108BB
:103C50001C020020F801002065350008F501002055
:103C60000BBE01080C000020F4720108012210B5FF
:103C7000034B02201A700349034A02F001FB10BDF6
:103C8000F50100200BBE01081873010870B5051E70
:103C900007D101200C490D4AFFF754FC01242000F4
:103CA00070BDFFF7F9FD041E05D0932206491201ED
:103CB000FFF748FCF3E7064B2A0099685868FFF7BE
:103CC000B9FC0400EBE7C046C97101082D090000EA
:103CD0001C03002070B5051E07D101200B490C4ABA
:103CE000FFF730FC0124200070BDFFF75FFE041ECB
:103CF00004D00649074AFFF725FCF4E7064B2A00E3
:103D0000D9689868FFF796FC0400ECE7C9710108D0
:103D10003B0900003E090000FC020020002310B512
:103D2000074A02201380D37093605360054A064906
:103D30001380D3709360D360044A02F0A1FA10BDDF
:103D40001C030020FC0200200BBE01083373010895
:103D500010B513000A000121FFF7B8FC10BD10B523
:103D600013000A000021FFF7B1FC10BDF7B5D822FF
:103D7000214C520000212000F426FA2710F0FAFD11
:103D800000231E4AF600BF001D489900415801203B
:103D900091601C4998408C46FA2165461370490091
:103DA000284204D13900304201D159425941D160F1
:103DB00002210133117720320C2BE5D1012525702A
:103DC0000024114B21001C70104B10221C70104B52
:103DD00010481C70104B1C7010F0CCFD21002022EC
:103DE0000E4810F0C7FDFFF7FDFB28002200210060
:103DF000FFF7B5FFFEBDC0462C03002030030020B6
:103E000028D001085A080000F3010020F201002028
:103E1000F10100201C030020F0010020FC02002022
:103E200010B5012200210820FFF799FF10BD000006
:103E300000487047B0040020030000200B2B02D87C
:103E400001485B0118187047300300200300034845
:103E5000282B02D8024A9B00985870478F7301089C
:103E600084CF0108F0B5224C8DB00B934301E418C8
:103E7000A37915000893E37907000993237AE27187
:103E80000A9300230E002372A1710CF095FF012309
:103E90000B9A6371E318DA776369A0610133636198
:103EA000089BE061B34205D1099BAB4202D10A9B5A
:103EB000002B1AD00F4ABB0008989C58FFF7C6FF8A
:103EC00007003000FFF7C2FF0B9B01900693002311
:103ED00005930A9B02200493099B074A0293074912
:103EE00023000395009702F0CBF90DB0F0BDC0465A
:103EF0002C03002028D00108977301080BBE01088D
:103F0000002310B51A0003211800FFF7ABFFFEF7DE
:103F1000AFFA00220400030003211000FFF7A2FF04
:103F2000200010BDF0B5A1B00D000A90282801D9DD
:103F300001F0A4F88623B74CFF33E0540CF03CFFAB
:103F4000CE2301225B00E05000200C33E250203BE6
:103F5000E0540AF0B1FB0990002806D0AE49AF4A00
:103F60001E20FFF7EFFA1E23FBE00A9B581E2728AE
:103F700001D901F07EF8FCF7F7F828007C08E90089
:103F8000F600FD00F6001F01020124012B013F0194
:103F9000790127022D024702B702C102D002CB02EB
:103FA000DA02E80252046304EB05F105FF0503069B
:103FB00009061706C707CB07D107DF07FA07FE0771
:103FC0000A081D08730858087708002303211A00FF
:103FD0001800FFF747FF002304211A000120FFF714
:103FE00041FF002307211A000220FFF73BFF0023B7
:103FF00009211A000320FFF735FF00230D211A00C5
:104000000420FFF72FFF002311211A000520FFF7DE
:1040100029FF002314211A000620FFF723FF0023A5
:1040200018211A000720FFF71DFF00231B211A008B
:104030000820FFF717FF00231F211A000920FFF7B0
:1040400011FF002323211A000A20FFF70BFF002392
:1040500025211A000B20FFF705FF00220320110085
:10406000FFF77DFE011E06D06B496D4A1B20FFF74E
:1040700069FA1B2375E002000420FFF770FE011EA1
:1040800002D06549674AF1E702000720FFF767FEA3
:10409000011E02D06049644AE8E702000920FFF7E8
:1040A0005EFE011E02D05C49604ADFE702000D207F
:1040B000FFF755FE011E02D057495D4AD6E70200C0
:1040C0001120FFF74CFE011E03D0E8225249D20016
:1040D000CCE702001420FFF742FE011E02D04E4939
:1040E000544AC3E702001820FFF739FE011E02D030
:1040F0004949514ABAE702001B20FFF730FE011E72
:1041000002D045494D4AB1E702001F20FFF727FEC4
:10411000002802D040494A4AA8E701210022232072
:10412000FFF71DFE011E02D03B49464A9EE70200F2
:104130002520FFF714FE002802D03749424A95E7B0
:10414000C2235B00E054099821B0F0BDFFF7D8FE10
:10415000002800D1DCE10A202F493C4AFFF7F2F9A0
:104160000A230993EFE7002305211A000120FFF736
:1041700079FECDE10122002306211000F7E7012D91
:104180001AD1FA23324A9B003249032002F078F810
:1041900080212A00490030480DF060FDFA2080009F
:1041A0000CF010FE72B6BFF34F8F2C4B2C4ADA6026
:1041B000BFF34F8FC046FDE7002308211A000220FD
:1041C000D5E7FFF7F3FC00230A211A000320CEE70E
:1041D000230068331D78012D0AD1002229000B200D
:1041E000FFF7BDFD2A00031E04D00B491D4A3DE721
:1041F00000231A000B21E9E7002201210C20FFF720
:10420000AEFD031E02D00449174A2FE701220C21FC
:10421000DCE7C0462C030020C97101082907000013
:104220003B0700003C0700003D0700003E07000080
:104230003F0700004107000042070000430700005D
:104240004407000045070000460700004C07000037
:10425000CE7301080BBE01080004005000ED00E021
:104260000400FA05830700008E07000020220021C9
:1042700016A810F07FFBCB4ACB49022002F000F8D1
:10428000A02001220421C00501F0F8FB32200CF02F
:1042900099FDC64DC64B2A689A4212D0702203205F
:1042A000C449FFF74FF9A02000220421C00501F006
:1042B000E5FB03242300C04ABB49032001F0E0FFD3
:1042C00076E00F27082601F0C7FC28000FF058FB06
:1042D0002B6814201F629A6932439A610CF072FDB8
:1042E0002B6864201F629A6932439A610CF06AFD60
:1042F000642305222800B1490FF0BAFF002806D038
:10430000B3220920AB49FFF71DF90924D2E72B6836
:1043100028001F629A6916A932439A6196231522D2
:10432000DB0010F00BF80400032819D128000FF06F
:10433000BFFA2B680A9C1F629A6916439E6164202B
:104340000CF040FDA02000220421C00501F096FBE6
:10435000002C0ED0BF2297492000FFF7F3F8A9E701
:104360000028ECD09C220A209249FFF7EBF80A249F
:10437000E5E78D4E1523310016AA022001F0ACFFAF
:1043800002F074F80500012002F068F8152116A863
:1043900002F070F90400280002F060F8002C02D04E
:1043A000CB228449D8E731000220854A01F068FF1A
:1043B0002300002209210320FFF754FDC22201211E
:1043C000804B52009954BEE609F0F2F800230E210A
:1043D0001A0014E0230088331B78012B03D07A4B9A
:1043E0001B78012B0DD1002201210F20FFF7B7FC14
:1043F000031E02D06F49754A38E601220F210420BE
:10440000B5E607F05DFFE1E7714B1B78012B58D152
:104410006D4B1A78012A09D100226E481A700BF0F0
:10442000CFF96D480AF0E4FC00284AD16B4B1A78AA
:10443000012ACBD1FE321A7007F0E8FE002804D022
:104440000320674A584901F01BFF16AD280008F009
:104450000FF8061E35D12B78012B23D16978AB7864
:1044600003916979504F0291297902200191E978ED
:104470005C4A0091390001F003FF6D78012DA5D150
:10448000320029001520FFF76AFC031E9ED12A0086
:1044900015210620FFF7E6FC3900534A022001F0FF
:1044A000EFFE93E7514D28000BF070FC002810D070
:1044B0004F480CF087F8002888D00238C0B2032893
:1044C00084D9F8223B49D2001F20FFF73BF81F2375
:1044D00047E6012128000BF0DFFA022800D875E733
:1044E000042800D172E7ECE7002310211A00042011
:1044F000FFF7B8FCC22301225B00E2543D48FCF701
:10450000D5FF002804D004203B4A3C4901F0B8FE06
:10451000C22301225B00E25415E6002213201100A1
:10452000FFF71DFC0028F3D02249354A9EE5002202
:1045300001211520FFF713FC021E02D01D49314A4C
:1045400094E503001521062011E62F4D2B78012B51
:1045500000D0AAE0AB78012B00D0BDE02B4BDB688C
:10456000DB0610D4687805F027FB294A03000E49C2
:10457000032001F085FE0022264B14211A70264BE1
:104580001A701300DFE716AF3800FDF7AFF8002808
:1045900046D0084C214A2100FEF7D4FFFE2221001C
:1045A000D20091E7EF7301080BBE0108380B002021
:1045B00000440040C97101084574010898D0010801
:1045C000197401082C030020F5010020B207000037
:1045D000F4010020C0020020F80100200C0000209F
:1045E0007B740108A4740108D874010844020020F7
:1045F0001C020020D00C0020F7740108656D010832
:10460000D3070000E6070000E80200200028004071
:1046100002750108F2010020F0010020960600005A
:104620003B88D24EBA785E4364235343F618FB7836
:104630003800F618FEF7E0FFAB68B34203D829D183
:10464000EB68984226D2687805F0B6FAEF680A90CF
:10465000C7493800FBF718FE0800FA218900FBF76C
:104660008DFDC44903903800FBF70EFE0800C049D9
:10467000FBF784FDBF4902903800FBF77FFD0190F6
:10468000AB68BD4E009332000A9BBC49022001F08A
:10469000F7FD70E7687805F08FFA0300B84AB7496C
:1046A000022001F0EDFDFEF79DFFB64B1B78012BBC
:1046B00000D1A6E0B44B1B78012B00D0A1E0FFF79E
:1046C00075F902283ED000281ED0B049B04AFEF746
:1046D00039FFAE49AF4AF7E62B696878A74E012B40
:1046E0000CD9013B2B6105F067FA296903000091A1
:1046F000A94A3100022001F0C3FD3CE705F05CFA55
:1047000031000300A54ACBE716AD2800FCF7EEFF09
:10471000002802D09D49A24AD9E72B88934EAA7857
:104720005E4364235343F618EB782800F618FEF72F
:1047300063FF9C4D0300A868B04203D8E96813D119
:104740008B4211D20022984B14211A7006201300BC
:10475000FFF788FBC22301225B00E2548749934A9A
:10476000022001F08DFDEEE42B69984202D16B69C5
:104770008B42E7D0AA7828616961FFF715F8002815
:1047800003D0012081498A4AA1E7EF68AB7838005D
:1047900077496E690793FBF777FD0800FA218900D6
:1047A000FBF7ECFC734906903800FBF76DFD080041
:1047B0006F49FBF7E3FC6F4905903800FBF7DEFC1F
:1047C0000490AB6830006A490393FBF75DFD080075
:1047D000FA218900FBF7D2FC664902903000FBF712
:1047E00053FD08006249FBF7C9FC624901903000A3
:1047F000FBF7C4FC00902B6902206E4A5F4901F070
:104800003FFD002201211620FFF7A9FA031E03D065
:104810005E49694AFFF72AFC0122162193E601202E
:1048200009F034FF002201211720FFF798FA031E38
:1048300003D05649614AFFF719FC0122172182E68D
:10484000514F3B78012B57D1574D2B78012B0CD171
:104850005B4A4A49022001F013FD08F083FE00285C
:1048600002D04A49574A2FE62870002506F0E0FB9F
:104870000B90002800D13DE1404D534B2900534A95
:104880000090032001F0FCFC06F048FE031E07D058
:10489000290003204E4A01F0F3FC002009F0F6FE47
:1048A00006F02CFF061E0AD0037D0A93082B25D0A4
:1048B000A82309930A9B092B22D0FEF793FE00241C
:1048C000394B2200142106201C700B9BFFF7CAFAFB
:1048D000C42201213F4B520099542000043A491848
:1048E000995409F005FF0990A04201D1FFF72BFC74
:1048F0002649394AFFF734FB0125B7E730230993EE
:10490000FEF770FE0123354C102223700A9B637062
:10491000099B6360324BD9680B001340114200D1F0
:10492000D5E0FFF743F8051E15D018492D4A280099
:10493000FEF708FECC2228001449D200FEF702FE42
:10494000307D05F039F9284A03000C490095032011
:1049500001F096FCB3E716AF3800FCF7C7FE051E62
:1049600044D0C4220949D200E1E7C0461027000024
:1049700060EA000080EE3600537501080BBE0108A6
:10498000A5750108F0010020F1010020C97101089E
:10499000A4050000FC070000E37501083B76010850
:1049A000A7050000FC020020F20100208776010824
:1049B000C3050000B2760108070800000F080000D8
:1049C000177701081D08000049770108557701088D
:1049D0009B7701082C03002019070000E802002043
:1049E000002800401D0600007F7801083B88D74D55
:1049F000BA785D4364235343ED18FB783800ED1813
:104A0000FEF7FAFDD24A01000998D24B4243D24840
:104A100000902800FEF788FE0500071E03D0012045
:104A2000CE49CF4A84E7CF4BCF49DD689E681861F5
:104A30005861D861A660E5602800FBF725FC0800F6
:104A4000FA218900FBF79AFBC14903902800FBF784
:104A50001BFC0800C449FBF791FBBD4902902800EC
:104A6000FBF78CFBC14DC24A2900099B01900096BF
:104A7000022001F005FC01230A98A370276105F0CC
:104A80009BF8E7680A90B8493800FBF7FDFB08007F
:104A9000FA218900FBF772FBAD4904903800FBF75F
:104AA000F3FB0800B049FBF769FBA9490390380004
:104AB000FBF764FB0290A368AE4E0193099B3200A2
:104AC000009329000A9B032001F0DAFBF7E6099A1C
:104AD0000A98A3702261A360E36005F06DF809995C
:104AE000030001912169A44A00910320290001F0EB
:104AF000C7FBE4E6012006F0E3FB012006F028FCFA
:104B0000012D0BD19D4A9949022001F0B9FB08F013
:104B100029FD002802D09149994AD5E406F084FC89
:104B200006F0FCFC051E02D08C49964ACCE4012616
:104B3000FEF758FD944B2A001D7014212B0006200F
:104B40003E70FFF78FF9C2235B00E654FFF7FBFAD4
:104B5000002319211A000720FFF709FB0022012179
:104B60001A20FFF7FCF8031E03D07C49874AFFF7A1
:104B70007DFA01221A21EEE7002318211A00EAE744
:104B800000231C211A000820FFF7F1FA00221D2043
:104B90001100FFF7E4F8021E03D070497C4AFFF7CA
:104BA00065FA03001D21EEE708F0B2FC0C230200B9
:104BB0001A40184200D17BE1820811000B3BC0086B
:104BC000194018400B910A901A4276D0FEF764FE05
:104BD000041E09D116AE3000FCF788FD041E08D073
:104BE0005E496C4AFEF7AEFC022C58D01C2C56D005
:104BF0002AE03388554FB2785F4364235343FF184C
:104C0000F3783000FF18FEF7F7FC634D03006C6883
:104C1000BC4244D8A86801D1834240D3FA23524908
:104C20009B005C43FBF7AAFAEB6827189F4236D03B
:104C30003000A978EF60FEF7E3FD041E0DD00120DF
:104C40004649564AFEF77EFC20004449544AFEF786
:104C500079FC4249534AFFF709FAAC6842492000FF
:104C6000FBF712FB0800FA218900FBF787FA3849A5
:104C700003902000FBF708FB08003B49FBF77EFA96
:104C8000334902902000FBF779FA01906B68464E99
:104C9000009332003B000220344901F0F1FA0A9BF4
:104CA000002B0ED101210A200A9AFFF758F800289C
:104CB00000D1EDE029493D4AC9E70A9B002B00D10C
:104CC000E0E0FEF773FE051E0AD116AC2000FCF7EB
:104CD0000DFD051E0BD0BC222049D200FEF732FC90
:104CE000022D00D1A5E01C2D00D1A2E029E02388EF
:104CF000164DA2785D4364235343ED18E3782000FA
:104D0000ED18FEF779FC174C0300A068A84200D903
:104D10008FE0E16802D18B4200D28AE02369984299
:104D200003D163698B4200D183E0A2782061616185
:104D3000FEF73AFD051E3FD0012008491C4AFEF748
:104D400001FC280005491B4A81E7C04610270000E6
:104D500080EE36000403002008030020C97101081A
:104D60002B060000FC02002060EA00000BBE0108D8
:104D7000E177010822780108AF7801080879010875
:104D8000360800003D080000F00100205308000034
:104D90006E0800001A0500001C0300203705000003
:104DA000620900007F0800005079010888090000AE
:104DB000FB0500006B090000E768A3783800BB49D9
:104DC00066690793FBF760FA0800FA218900FBF790
:104DD000D5F9B74906903800FBF756FA0800B349F1
:104DE000FBF7CCF9B24905903800FBF7C7F90490FE
:104DF000A3683000AD490393FBF746FA0800FA2197
:104E00008900FBF7BBF9AA4902903000FBF73CFA96
:104E10000800A649FBF7B2F9A54901903000FBF75D
:104E2000ADF9A44D00902A0002202369A24901F0A7
:104E300027FA0B9B002B00D128E101229F4B3C203D
:104E40001A7000229E4B1A7008F06AFB031E04D0F1
:104E500003209C4A984901F013FA002201210A20FC
:104E6000FEF77DFF002802D09749984AEFE603003D
:104E700001220A210320FEF7F5FF954A02208E4900
:104E800001F0FEF900231E211A000820FFF794FA12
:104E900001220A2103200A9BFEF7E4FF8D4AEDE779
:104EA0000300220015210620FEF7DCFF8A4AE5E711
:104EB000824B1C78012C10D121001520FEF74FFFEA
:104EC000031E03D08049854AFFF7D0F82200152140
:104ED0000620FEF7C7FF824AD0E7794B19780129EF
:104EE000D0D00124152021001C70FEF738FF031ECE
:104EF00003D075497B4AFFF7B9F822001521062037
:104F0000FEF7B0FF784AB9E700231E211A003AE6FF
:104F1000002320211A000920FFF729F9002201218E
:104F20002120FEF71CFF031E03D067496F4AFFF7DD
:104F30009DF801222121EEE7614B1A78012A16D053
:104F400001250022290015201D70FEF708FF031E11
:104F500003D05D49664AFFF789F82A00152106202B
:104F6000FEF780FF0220634A534901F089F90023CC
:104F700022211A00CFE7002201212420FEF7EFFEB4
:104F80000122031E12D050495B4AFFF76FF801223D
:104F900020215A480CF062FE01200BF013FF002282
:104FA000202156480CF05AFE00231A0024210A2022
:104FB000FFF7DDF816AD280002F0E0FD022802D16F
:104FC000280002F005FE169A2B79120A1B061343DD
:104FD0004922013304A95218190A13705170190C8F
:104FE0001B0E9170D370280002F0F2FD280002F031
:104FF0001BFE0CA801F0BCFE022802D10CA801F097
:10500000E7FE0CA801F01EFF002201212620FEF77A
:10501000A6FE031E04D08E222B491201FFF726F8AC
:10502000012226210B20FFF7A2F8354B1A78012A1E
:1050300016D001250022290015201D70FEF78FFED5
:10504000031E03D020492F4AFFF710F82A0015212C
:105050000620FEF707FF02202B4A174901F010F93E
:10506000002327211A00DDE7C22303225B00FFF79C
:1050700052FAC22302225B00FFF74DFA01201249C7
:10508000224AFEF75FFA0123FFF76BF801240022A2
:105090000A4B21001C700A4B15201A70FEF75FFEA8
:1050A000002800D1FCE60849194AD0E560EA000072
:1050B00080EE3600977901080BBE0108F001002050
:1050C000F2010020067A0108C97101087E0900007A
:1050D0004C7A01089A7A0108E87A010883080000EE
:1050E0002C7B01088A0800006F7B0108A4080000DF
:1050F000B2080000B27B0108C108000000040050A3
:10510000F3010020F5080000F37B010821070000EF
:1051100092090000F0B5AF4C8FB02678012E09D06F
:105120009A220220AC491201FEF70CFA022528004F
:105130000FB0F0BDD6225200A3580133A350D423A0
:1051400000225B00E250FEF7DBFE051E05D0A249FF
:10515000A24A2800FEF7F6F9E9E708AF3900300067
:1051600002F056FE051E51D1BB781D1C282B00D91C
:105170002825BB68EDB2002B1DD0681F20281AD847
:10518000FAF7DEFF1212193E193C3C3C193A3A3A42
:1051900019383819363636193434191111111919CC
:1051A000191942424000082601237601A6193372DC
:1051B0000BF002FEF061C3235B00E5548823FA780C
:1051C000FF33E2547A681133E250BA680833E25090
:1051D000C822F96852000433E150A3580133A350A8
:1051E000043AA3580133A3502800CAE00726DBE79E
:1051F0000626D9E70526D7E70426D5E70326D3E711
:105200000226D1E70B26CFE70A26CDE71C2802D0DD
:105210007149734A9DE7FEF73FFB0500022808D05D
:1052200000282ED06C496F4A2800FEF78BF91C2D00
:105230005DD100276C4BDD5D0B2D00D93CE16E018B
:10524000A6193369002B00D136E10BF0B5FDB36927
:10525000002B04D0C01A3369984200D22CE1681E9A
:1052600028250A2800D997E0FAF77EFF8F00AD00C5
:10527000D400DD00E600EF00F80001010A0113018F
:105280001B0106AF3800FCF731FA051E02D0524967
:10529000564AC9E73B88564DBA785D436423534369
:1052A000ED18FB783800ED18FEF7A6F9514E020014
:1052B0007368AB42BDD8B06801D19042B9D8FA2525
:1052C0004D49AD005D43FAF759FF2B180593059A38
:1052D000F3689A42ADD03800B178F260FEF790FAE8
:1052E000051E07D001203C49444AFEF72BF93A49F4
:1052F000434A2EE72300012268331A700BF05CFD4D
:10530000B768E0673C493800FAF7BEFF0800FA21A9
:105310008900FAF733FF3B4903903800FAF7B4FFEE
:1053200008003549FAF72AFF364902903800FAF7A3
:1053300025FF01907368344E344A310000930220F7
:10534000059B00F09DFF0A20FEF780FD3100030061
:105350002F4A022000F094FFC3230A265B00E65286
:105360000BF02AFDCC2301225B00E0502900300025
:105370000833E2508C320433FF32E550A358013336
:10538000A350FEF7CFFD0500D1E6E31DDD7F042D20
:1053900002D0062D00D00525C3235B00E5548823E9
:1053A0000026FF33E6540BF007FDCC23C6225B003A
:1053B000E0500833E65052000433E650A358310061
:1053C0000133A35010E7230046331D78072DE3D0A7
:1053D0000825E1E72C030020C9710108A609000097
:1053E000C1090000DC0400009DD00108DF040000BA
:1053F000102700001C03002060EA0000FD040000EC
:10540000CF09000080EE36000BBE0108337C010896
:10541000827C0108230066331D782B00093B032B97
:10542000BAD90A25B8E7230086331D782B000D3B37
:10543000022BB1D91025AFE72300A6331D78112D1B
:10544000AAD0132DA8D01225A6E72300C6331D78B5
:105450002B00143B032B9FD915259DE72300E63332
:105460001D78182D98D01A2D96D0192594E7230071
:10547000FF33DD792B001B3B022B8DD91E258BE7DB
:1054800093235B00E55C2B001F3B032B84D9202575
:1054900082E7A3235B00E55C232D00D17CE7242574
:1054A0007AE7B3235B00E55C252D00D174E7262D58
:1054B00000D171E727256FE70137032F00D0B9E648
:1054C00022000C23117A002918D1013B2032002B35
:1054D000F8D186230225FF33E5540BF06DFCCE2373
:1054E000CA225B005200E050A35801200133A350B0
:1054F000C4235B00E054043BE55400E0002009F0C5
:10550000DBF840E7862210B5024BFF32985CFEF7CD
:105510009DFC10BD2C030020C222054B52009B5C59
:105520000448032B02D8044A9B0098587047C04691
:105530002C0300208F73010888D00108F0B5060005
:105540000C00150091B0002906D1C049C04A0120C5
:10555000FDF7F8FF012638E0002A02D1BB49BD4A19
:10556000F5E700230B70984200D1BB4E3378202B17
:105570000ED0002B05D03000B849FAF7C5FD002841
:1055800008D129002000B64A0FF04EF900261CE091
:105590000136EBE73000B349FAF7B6FD021E17D12A
:1055A00001210E20FEF7DBFBAF4A0300061E00D1EF
:1055B000AE4A290020000FF037F9002805DAA34988
:1055C000AB4A1E20FDF7BEFF1E26300011B0F0BD15
:1055D0003000A849FAF798FD021E11D101210F20D1
:1055E000FEF7BDFBA44A0300061E00D1A34A290012
:1055F00020000FF019F90028E7DA9449A04AE0E703
:105600003000A049FAF780FD9F4B1B7807930028D4
:105610003DD19E4B9E4E1B78DBB208939D4B1A7872
:10562000D3B2022A06D09C4EFF2B03D09B4E012BF7
:1056300000D09B4E9B4B984A1B790692042B03D8B3
:10564000994A9B009B5806939848934F0379062BE1
:1056500002D8974A9B009F580AF098FB09909148FE
:105660000AF0A4F8099B05900493069B2900029375
:10567000089B200000938F4A079B039701960FF029
:10568000D3F8002800DB81E770498B4A99E7079B34
:10569000012B06D029002000884A0FF0C5F8022609
:1056A00093E787493000FAF72FFD011E25D10AAF95
:1056B000072238000FF05EF939007A4809F064FFDC
:1056C000061E07D00300290020007E4A0FF0ACF828
:1056D0001F267AE7B9793B78059179792000049102
:1056E0003979794A0391F9780291B97801917978F9
:1056F000009129000FF098F867E774493000FAF735
:1057000003FD011E28D10AAE142230000FF032F939
:10571000644F310038000AF05FF83A795E4B042A92
:1057200002D8614B9200D358B16820000391716890
:10573000674A02910A99002601917979009129001E
:105740000FF072F8B04200DB3FE74049614A1E208B
:10575000FDF7F8FE1E3638E730005F49FAF7D4FC53
:1057600000282CD1182200210AA80FF003F94F4E6F
:105770000AA930000AF092FB3379474F062B02D872
:105780004B4A9B009F5830000AF000FB0D990B9B81
:10579000059103930C990A9B049102936C3633781C
:1057A0002900019300903B0020004C4A0FF03CF888
:1057B0000026B04200DB08E72449494AC7E7300029
:1057C0004849FAF7A1FC00281AD1474E0A21378927
:1057D0003800FAF759FD89B2049138000A21FAF726
:1057E000CDFC80B20390738929000293336A2000B4
:1057F0000193F3693D4A0093B3690FF015F8C5E6CC
:105800003B493000FAF780FC011E77D10AAE142222
:1058100030000FF0AFF83100364809F02FFB0D9F34
:1058200064213800FAF730FD380003916421FAF75B
:10583000A5FC0C9B029001930B9B29000093200078
:105840000A9B2D4A0EF0F0FFA0E6C046C971010880
:10585000630A0000640A000044A301089063010881
:105860004F7D010802C20108B17C01089B7C010840
:105870007D0A0000917D0108EC7C0108D87C0108BC
:10588000890A000045650108F4010020F5010020A7
:10589000FA9F01080C0000208F730108117D010898
:1058A000187D0108C002002074D0010844020020C5
:1058B00058D001089A7D0108980A0000D97D010896
:1058C000F77D0108FB7D0108197E01083E7E010875
:1058D000457E0108C40A0000767E01087B7E01082F
:1058E000D70A0000BF7E01081C020020C37E010809
:1058F00092630108F8010020FE7E01083000104983
:10590000FAF702FC002815D10E480AF055FA0E4AA3
:10591000071E00D10D4A3B00290020000EF084FF35
:10592000002802DA0A490B4A4BE61F26002F00D056
:105930004BE62BE629002000074A0EF075FF09E62A
:105940007E7F010844020020337D01081F7D01088D
:10595000C9710108020B0000337F01080121154BBA
:1059600086B0DA6A0A43DA62DA6A0A400192019A78
:10597000DA6A49180A43DA62DA6A0A400292029A3B
:10598000DA6A02310A43DA62DA6A0A400392039A57
:10599000DA6A04310A43DA62DA6A0A400492049A43
:1059A000DA6A78310A43DA62DB6A0B400593059BB9
:1059B00006B07047001002407FB50C22002103A8FA
:1059C0000EF0D8FF1023A0200193842301A99B038C
:1059D000C00502930CF000F807B000BD30B587B0E9
:1059E00004000D000C22002103A80EF0C3FF0323C6
:1059F000200001A9019502930BF0EEFF07B030BD26
:105A0000A02010B50A49C005FFF7E8FF09490A4878
:105A1000FFF7E4FF09490A48FFF7E0FF09490A4890
:105A2000FFF7DCFF09490A48FFF7D8FF10BDC04661
:105A3000619800001FF2000000040050F03D0000DB
:105A400000080050FBFF0000000C0050FFFF0000AA
:105A5000001C005010B5084B1B7A012B0BD1C02144
:105A6000A020C901C005FFF7B9FFC021A020C900CF
:105A7000C005FFF7B3FF10BDDC04002030B50D00FA
:105A800087B089B204000CF0E9F80C22002103A8C9
:105A90000EF070FF0123200001A9019502930BF085
:105AA0009BFF07B030BD0000802110B500220B48DD
:105AB0004900FFF7E3FF0A4B9C78012C0AD1220032
:105AC00004210848FFF7DAFF220008210548FFF704
:105AD000D5FF10BD00220421F8E7C04600040050A5
