:020000040800F2
:100000000050002029200108D51D0108D71D010836
:1000100000000000000000000000000000000000E0
:10002000000000000000000000000000D91D0108D1
:100030000000000000000000DB1D0108DD1D0108BC
:10004000391F010879200108E51D01087920010800
:1000500079200108C91E0108CB1E0108CD1E010828
:100060007920010879200108792001087920010808
:1000700079200108811E01087920010879200108F2
:10008000792001087920010879200108000000008A
:1000900079200108792001087920010879200108D8
:1000A000792001087920010879200108091F010839
:1000B000191F0108291F010879200108792001086A
:1000C00010B5064C2378002B07D1054B002B02D02E
:1000D000044800E000BF0123237010BD9000002001
:1000E00000000000B46E0108044B10B5002B03D0D3
:1000F0000349044800E000BF10BDC04600000000F6
:1001000094000020B46E010802780B78002A03D016
:10011000013001319A42F7D0D01A70470023C25CF7
:100120000133002AFBD1581E7047000002B471460B
:1001300049084900095C49008E4402BC7047C0462A
:1001400003B47146490840004900095E49008E44E5
:1001500003BC704703B47146490840004900095A7E
:1001600049008E4403BC7047002243088B4274D37D
:1001700003098B425FD3030A8B4244D3030B8B42A8
:1001800028D3030C8B420DD3FF22090212BA030CB1
:100190008B4202D31212090265D0030B8B4219D392
:1001A00000E0090AC30B8B4201D3CB03C01A5241B2
:1001B000830B8B4201D38B03C01A5241430B8B42FA
:1001C00001D34B03C01A5241030B8B4201D30B03E3
:1001D000C01A5241C30A8B4201D3CB02C01A52410A
:1001E000830A8B4201D38B02C01A5241430A8B42CD
:1001F00001D34B02C01A5241030A8B4201D30B02B6
:10020000C01A5241CDD2C3098B4201D3CB01C01ACF
:10021000524183098B4201D38B01C01A52414309D9
:100220008B4201D34B01C01A524103098B4201D3C7
:100230000B01C01A5241C3088B4201D3CB00C01A34
:10024000524183088B4201D38B00C01A52414308AC
:100250008B4201D34B00C01A5241411A00D20146D1
:10026000524110467047FFE701B5002000F0F0F85A
:1002700002BDC0460029F7D076E7704703460B431E
:100280007FD4002243088B4274D303098B425FD38F
:10029000030A8B4244D3030B8B4228D3030C8B42BB
:1002A0000DD3FF22090212BA030C8B4202D31212A1
:1002B000090265D0030B8B4219D300E0090AC30B76
:1002C0008B4201D3CB03C01A5241830B8B4201D323
:1002D0008B03C01A5241430B8B4201D34B03C01A0C
:1002E0005241030B8B4201D30B03C01A5241C30A84
:1002F0008B4201D3CB02C01A5241830A8B4201D3F5
:100300008B02C01A5241430A8B4201D34B02C01ADE
:100310005241030A8B4201D30B02C01A5241CDD283
:10032000C3098B4201D3CB01C01A524183098B42CE
:1003300001D38B01C01A524143098B4201D34B01B7
:10034000C01A524103098B4201D30B01C01A52411A
:10035000C3088B4201D3CB00C01A524183088B42A1
:1003600001D38B00C01A524143088B4201D34B008A
:10037000C01A5241411A00D20146524110467047FC
:100380005DE0CA0F00D04942031000D34042534001
:1003900000229C4603098B422DD3030A8B4212D3C1
:1003A000FC22890112BA030A8B420CD389019211F3
:1003B0008B4208D3890192118B4204D389013AD030
:1003C000921100E08909C3098B4201D3CB01C01A05
:1003D000524183098B4201D38B01C01A5241430918
:1003E0008B4201D34B01C01A524103098B4201D306
:1003F0000B01C01A5241C3088B4201D3CB00C01A73
:10040000524183088B4201D38B00C01A5241D9D28A
:1004100043088B4201D34B00C01A5241411A00D20B
:100420000146634652415B10104601D34042002B07
:1004300000D54942704763465B1000D3404201B586
:10044000002000F005F802BD0029F8D016E770473B
:100450007047C046002B11D1002A0FD1002900D1CE
:10046000002802D00021C943080007B4024802A1B5
:100470004018029003BDC046D9FFFFFF03B4684691
:1004800001B5029800F034F8019B9E4602B00CBC06
:100490007047C046F0B5CE469946030C9C461304FF
:1004A00047461B0C1D000E0061460404240C80B559
:1004B0000700100C4B436543414360432C0CC018AC
:1004C00024188C46A34203D980235B029846C44477
:1004D000494679435643230C2D042D0C8919634456
:1004E00024046019C918C0BCB946B046F0BDC04666
:1004F000F0B557464E464546DE46E0B504000D00D1
:100500009246994683B08B4230D82DD0494650460A
:1005100000F038FE29000600200000F033FE331AF8
:100520009846203B34D49B4653465A469340424615
:100530001F00534693401E00AF423BD8AF4200D14C
:1005400079E05B46A41BBD41002B00DA76E0002277
:1005500000230092019301235A4693400193012303
:1005600042469340009329E08242CFD900220023E3
:10057000009201930C9B002B01D01C605D600098E1
:10058000019903B0F0BCBB46B246A946A046F0BDF7
:1005900042469B4620239B1A5246DA4041461300AE
:1005A0004A468A40170042461F43534693401E0066
:1005B000AF42C3D900220023009201934346002B8F
:1005C000D8D0FB0772081A4346467B080EE0AB42C0
:1005D00001D1A2420CD8A41A9D41012024196D41D9
:1005E0000021013E24184D41002E06D0AB42EED929
:1005F000013E24196D41002EF8D1009801995B4607
:1006000000196941002B24DB2B005A464646D34093
:100610002A001C00F2405B461500002B2ADB260056
:100620009E40330026004746BE403200801A994162
:10063000009001919EE7A342BCD882E74246202366
:1006400000219B1A0022009101920122DA400192BE
:1006500085E7424620239B1A2A0046469A402300FB
:10066000F340464613432A001C00F2405B46150047
:10067000002BD4DA202342462F009B1B97402600F4
:10068000DE403B003343CDE7F0B546464F46D64605
:100690004502C0B5C30F470098460E1C6D0A3F0EB9
:1006A0005BD0FF2F21D08023ED00DB041D4300230E
:1006B00099469A467F3F74027300640A1B0EF60F38
:1006C000002B20D0FF2B43D080220020E400D20456
:1006D00014437F3B4246FF1A4B4672400F2B00D912
:1006E0009DE071499B00CB589F46002D5AD10823AD
:1006F0009946063B74029A467300FF27640A1B0E54
:10070000F60F002BDED1002C3BD101234246494697
:10071000724019430E2918D86448890041588F4601
:100720005346022B00D1B8E0032B6ED042462C007A
:10073000012B40D100200024C0052043D2071043E4
:10074000E0BCBA46B146A846F0BDFF200024F3E75E
:10075000002C20D10223FF3FD8E7002D05D1042330
:100760009946033B00279A46A5E7280000F0ECFCD9
:100770007627431F9D4000237F4299469A463F1AA1
:1007800099E7200000F0E0FC431F9C4076235B4289
:100790001B1A00209EE703234A461A439146032072
:1007A000FC3397E70C239946093BFF279A4682E7DB
:1007B00003282CD0320038007F30002847DD630743
:1007C00004D00F232340042B00D00434230103D58D
:1007D0003800374B80301C40FE28B6DCA401640A88
:1007E000C0B2A9E780240022FF20E403A4E780230D
:1007F000DB031D4201D01C420BD08024E4032C43B8
:1008000064024246FF20640A96E746462C00802395
:10081000DB031C4364023200FF20640A8CE76D0195
:10082000600185422DD21B230024013F01262900AF
:1008300064006D00002901DB854201D32D1A344389
:10084000013B002BF3D16B1E9D412C43B3E70123E9
:100850001B1A1B2B00DD6DE721009E37D940BC40E1
:100860000B00611E8C412343590704D00F2119400E
:10087000042900D00433590113D49B0100205C0AE1
:100880005AE71A2301242D1AD0E7981E43425841F3
:10089000404232000024C0B24EE74246FF2000240E
:1008A0004AE70120002447E7D86E0108186F0108C5
:1008B000FFFFFFF7F0B54F464646D6464502C0B5A6
:1008C00046000F1C6D0A360EC40F002E00D1CDE07D
:1008D000FF2E72D08023ED00DB041D4300239946D8
:1008E0009A467F3E7B025B0A98467B001B0EFF0FF9
:1008F000002B72D0FF2B00D1A9E07F3BF6184B46AE
:100900000A2B00DD85E043468022DB00D2041A4337
:100910004B4690467C400022022B0FDD49460123C6
:100920008B40A621C9000B4200D072E090218900C3
:100930000B4200D0DAE08821194267D1280C4246E8
:100940002D042D0C4346290012041B0C120C51439C
:100950005D4342435843AD180B0C5B199A4203D9CF
:10096000802252029446604409041A04090C521869
:100970009501691E8D411B0C920E1B1815439B019E
:100980001D431B0100D5CFE030007F30002800DC84
:10099000B1E06B070BD00F2332002B40042B06D0A5
:1009A00004352B0103D5803210006A4B1D40FE2810
:1009B00064DCAB015B0AC0B21FE0002D00D08FE009
:1009C00008239946063B9A467B025B0A98467B00C1
:1009D000FF261B0EFF0F002B8CD14346002B5CD152
:1009E0004A4601331A43914613000A2A11DC0122B8
:1009F0007C40022B92DC00200023C0051843E40752
:100A00002043E0BCBA46B146A846F0BD3C0045468E
:100A100092465346022B31D0032B11D0012BEAD042
:100A200030008030721C002866DD6B07B9D00F23C0
:100A30002B40042BB4D1B4E70F2A7AD03C004546B2
:100A40008023DB032B435B02FF205B0AD5E7434691
:100A5000FF36002B34D14A46023313430A2BD8DC2D
:100A60007C40002A0AD09946022257E7002D08D17F
:100A700004239946033B00269A4633E7FF200023D0
:100A8000BBE7280000F060FB7626431F9D40002353
:100A9000764299469A46361A24E7404600F054FBBF
:100AA0004B46361A763E0A2BB3DC43460538834064
:100AB00098464B4600227C40022B00DD2EE73DE7A6
:100AC00003234A461A4313000A2AB5DC01229A403E
:100AD000882113007C400322194200D12EE795E7BC
:100AE0000C239946093BFF269A46FBE68023002407
:100AF000FF20DB0381E7320001231B1A1B2B00DDE3
:100B000079E79E3229009540D9406A1E95410D43F0
:100B10006B0704D00F232B40042B00D004356B014E
:100B200013D50120002368E701236A081D401543FF
:100B300076E78023DB031D4282D042461A4200D072
:100B40007EE73C00FF20134357E7AB0100205B0A20
:100B500053E7C046FFFFFFF7F8B54746CE464B02C6
:100B6000460080B5C40F4702580A844648007A0AF6
:100B7000360EBF09000ECD0F9B09FF286DD0012155
:100B80004D40311AAC423AD0002900DC9CE10028EB
:100B900000D19EE0FF2E00D188E08022D2041343D2
:100BA0001B2900DCF6E0013F7A0100D479E001273F
:100BB0007F42BF01BB099846404600F0C5FA434654
:100BC00005388340864200DCCCE0B44F311A1F4028
:100BD0005A0768D00F221340042B64D004377B01DE
:100BE00061D5481CFE2900D081E0FF200023C0050C
:100BF0001843E4072043C0BCB946B046F8BD0029FD
:100C000000DC79E1002876D1002B4CD0481E012968
:100C100000D147E1FF2949D01B2871DC01001A00EF
:100C20002020CA40411A8B40591E8B411343FF18A4
:100C30008023DB041F4200D1B8E0711CFE2ED4D00B
:100C4000012297483A407F08074017437A0700D0AF
:100C500096E01F42C5D1FA0855E03100FF398946B8
:100C6000002B2CD101214D40AC4200D1B4E04946CB
:100C700000294CD0002E00D0F9E0FF21002F00D138
:100C800008E14A1E012900D156E1FF2900D142E1C5
:100C90001B2A00DC24E15F1E2C0006007A0100D52F
:100CA00085E731000437FA08FF292CD1002A9CD0AF
:100CB0008023DB0313435B02FF205B0A97E7AC4210
:100CC00000D1A7E0002922D0002ED6D062462C0009
:100CD000EEE7002BE7D0481E012936D0FF29E5D0EA
:100CE00001005DE701203B007A0100D457E1C0B26A
:100CF000BB015B0A7BE7FF2ED8D01B2900DC9FE0FD
:100D000031000537FA0853025B0AC8B26FE7FE20CC
:100D1000711C084254D1002E00D0B1E0002F00D148
:100D200002E1002B00D1F9E08021FA1AC9040A423D
:100D300000D13BE10124DF1B2C40002F49D00120D2
:100D40000F42D5D10021FA08DDE7FF1A7B0100D45C
:100D5000DEE0BD01AD09280000F0F6F92B000538F2
:100D6000834001262022811B0131521A1F0093402B
:100D7000CF405A1E93411F432BD000217B07B1D097
:100D80000F233B40042B00D028E77B0100D528E748
:100D9000FA08B8E71A002020CA40411A8B40591EB1
:100DA0008B411343FF1A7B0100D502E77B0700D17B
:100DB0000DE10F2331003B40042B00D00EE772E71A
:100DC000FA1A9046520156D44346002B00D0F3E65F
:100DD0000024002000230AE7494600291CD0002EE9
:100DE00000D002E7FF21002F55D04A1E012959D01B
:100DF000FF2900D190E01B2A00DD91E011003A00AC
:100E00002025CA40691A8F40791E8F41174306007A
:100E1000FF180DE7002926D1FE20711C084213D1CE
:100E2000002E00D096E0002F00D1B4E0002B75D04A
:100E3000FB185A0100D4B2E09B015B0AFD38D6E6EC
:100E40008022D2041343EAE6FF2900D1CDE6FA1846
:100E50005208530705D00F23171D1340042B00D051
:100E600021E7D2084FE7002EBCD0624620E72C00D5
:100E7000FF200023BBE60124DB1B98462C409BE6A9
:100E8000002F75D1002B00D096E080230024FF2096
:100E9000DB03ACE62C001F0005E7C046FFFFFFFBAD
:100EA000FFFFFF7DFB185A0100D48DE04A4A5B0822
:100EB0001A40590700D18CE00F210B400D39042B4B
:100EC000CFD00221171DEEE6002900D11FE7821BBB
:100ED0001100002E00D1D1E68021C9040F43D7E6CE
:100EE00039002024D140A21A97407A1E97410F431F
:100EF0002C000600DF1B56E700298DD0811B002E39
:100F000000D170E71B290BDC8022D204174376E75F
:100F10000121FA08F7E62C006246C7E60021F2E656
:100F200005330100DA08EEE6002B00D150E701247A
:100F3000002162462C40E6E6DA1B530132D59201CD
:100F40009409200000F000F92300053883402C00AC
:100F5000012607E7002FDFD0002B17D08023DB030B
:100F60009A4200D2A4E69C4500D3A1E662469FE6E1
:100F7000002B0BD08023DB039A4200D298E69C45DD
:100F800000D395E6012462462C4091E68023DB03E2
:100F9000FF2013432BE60020002B00D127E6002181
:100FA000DA08B0E62C000121D208ACE6002A00D114
:100FB0000EE70021D208A6E6802362460124DB0367
:100FC000FF2013432C4012E60121DA089BE6310092
:100FD00069E60221D20896E6FFFFFF7D410242004A
:100FE000C30F490A0020120E7E2A03DD9D2A02DD6E
:100FF000094A98187047802000040143952A07DCAD
:101000009620821AD1404842002BF3D10800F1E724
:10101000963A9140F7E7C046FFFFFF7F70B5002882
:1010200012D0C317C5185D40C40F280000F08CF81B
:101030009E231B1A962B0FDC082838D008388540D1
:101040006D026D0AD8B202E0002400200025C00520
:101050002843E407204370BD992B14DC421F9540C0
:101060002A001549114055071CD00F252A40042A93
:1010700018D00431CA08490115D59F235202181A05
:10108000550AC0B2E3E7020029001B3291404A1E14
:1010900091410522121AD5402A000A4306491140FF
:1010A0005507E2D1CA085202550AD8B2CFE76D02FD
:1010B0006D0A8E30CBE7C046FFFFFFFB10B5041E64
:1010C0000DD000F041F89E231B1A962B0CDC08284B
:1010D00034D0083884406402640AD8B201E00020A9
:1010E0000024C005204310BD992B13DC421F9440FF
:1010F000144A224061071CD00F212140042918D036
:101100000432D408520115D59F236402181A640AC8
:10111000C0B2E6E7020021001B3291400A00511ED6
:101120008A410521091ACC401443064A224061072E
:10113000E2D1D4086402640AD8B2D2E76402640A35
:101140008E30CEE7FFFFFFFB1C2101231B049842DA
:1011500001D3000C10391B0A984201D3000A083948
:101160001B09984201D30009043902A2105C4018FF
:101170007047C046040302020101010100000000A3
:101180000000000010B5002903D1FFF7DDFF20307B
:1011900002E00800FFF7D8FF10BDC0461FB56B4640
:1011A00049BA99816423E021009303AA623B12F0BB
:1011B000DFF805B000BD000037B50022124C0090EA
:1011C000236869469A62802320005B01019311F035
:1011D00053FA002802D00D4D28003EBD200011F02A
:1011E00095F90028F7D10A21200011F0DBF9002839
:1011F00007D1200011F03CFA85B2200011F0B2F9BD
:10120000EAE7024DF9E7C046CC0D0020FFFF0000E1
:1012100010B5010000780822C0433124C0B243B2A7
:101220004000C0B2002B02DA5B006340D8B2013A42
:10123000D2B2002AF3D14B7808223121584043B270
:101240004000C0B2002B02DA5B004B40D8B2013A3A
:10125000D2B2002AF3D110BDF0B587B0019002914F
:1012600003920493002B1CD080230024244DDB0325
:101270002A68032013432B6010F04AFF082726003A
:101280002048FFF799FF05901F48FFF795FF059B42
:101290001E4A013B9BB2934206D92B681C4A13405D
:1012A0002B60012007B0F0BD1A4B9842F5D0059B8A
:1012B000013FE4183618002FE2D1174B17481B885E
:1012C000E40858432100FEF74FFFF60807001449D1
:1012D0007043FEF749FF049B40001860039B002BFE
:1012E00000D01F60019B002B00D01C60029B002BD4
:1012F00000D01E602B68064A002013402B60D1E707
:10130000082701400000024402000004FDFF000025
:10131000FFFFBFFFFFFF00007800F81FB80B0000C1
:10132000FF0F000030B50D0004008BB0684606F0DA
:1013300055FB2A002100684606F08BFC684606F043
:1013400091FC0BB030BD000010B50449FFF726FF3B
:101350000400012010F0DCFE200010BD1735000055
:1013600010B50249FFF71AFF10BDC04698B0000043
:1013700010B50449FFF712FF0400012010F0C8FE69
:10138000200010BD5D800000F0B585B005000F00A5
:10139000FFF7DAFF041E19D128000F49FFF7FEFE00
:1013A000041E13D1642303AE00933200E021280011
:1013B000613B12F081F8041E08D13000FFF728FFCE
:1013C000B378834205D133885BBA3B80200005B0F7
:1013D000F0BD0124FAE7C046C8EF0000F0B587B0C1
:1013E00005000F00FFF7B0FF041E46D12800254975
:1013F000FFF7D4FE041E40D10F2010F089FE6423B5
:1014000004AE00933200E02128005E3B12F054F855
:10141000041E32D13000FFF7FBFEB37883422FD198
:101420000B2302AA9B181800FFF7F2FE7379834280
:1014300026D102ABDA7A1B7B30881B0213435BBADE
:1014400040BA9BB280B20393FFF738FE0E49FFF714
:101450001BF90E49FFF72EFA0D49FFF77DFB3860A7
:101460000398FFF72BFE0849FFF70EF90949FFF72C
:1014700021FA78602800FFF773FF200007B0F0BD65
:101480000124FAE76678000000FF7F4700002F4341
:10149000000034420000C84273B56B469E1D002315
:1014A00005003380FFF750FF041E16D12800FFF718
:1014B0005FFF041E11D1012010F02AFE3100280028
:1014C000FFF762FF041E08D133880649064A0B4025
:1014D000934204D12800FFF743FF200076BD01248A
:1014E000FBE7C0463F08000007080000030C43402C
:1014F00004485843044B420B42405343180C584095
:101500007047C0466BCAEB8535AEB2C270B52D4C84
:101510008EB020220021200014F0D2FB38220021BE
:10152000684614F0CDFB0C21274E284AF368684624
:101530000B40D35C01222377336D9B05DB0F637077
:10154000234B1B681340A36012F0EEFE10F01EFD4B
:10155000099B636012F028FBE06012F0BFFE20617F
:1015600012F0C2FE606112F0CFFE237FA061012B5A
:1015700007D005203D22174901F0DAFF05200EB003
:1015800070BD33689B0506D43E221249062001F047
:10159000CFFF0620F3E76378012B02D040220D49EC
:1015A000F4E7079B012B02D041220A49EEE7A02273
:1015B00009991202914202D042220649E6E7002030
:1015C0002370DCE7B000002000100240EFEB0108C0
:1015D00000200240546F010810B594B0342200215D
:1015E00007A801AC14F06CFB00211422200014F0B9
:1015F00067FB102306930F3B0D93A02306A81B0245
:101600000F9312F013FB011E07D05B220A4906203C
:1016100001F08EFF062014B010BD0F236060A060A3
:10162000E06020612000019312F08AFD0028F2D0D2
:1016300062220149EBE7C046546F0108014B18785C
:101640007047C046B000002000487047B00000203E
:10165000121A8B411000191E03DA0023014A801868
:1016600059417047005C260510B510F04BFD024B48
:101670001B68C01810BDC046AC000020F0B50026A5
:101680000F008BB0039304AB019002920021112252
:10169000D81D14F015FB039B05AD2B70109B04ACFB
:1016A0006B70119B0198AB70029B2670A3706770E2
:1016B0006421FEF7C9FE074BE17029001D003200CE
:1016C000180013F08BF832002100280013F0EEF818
:1016D0000BB0F0BD280E0020F0B5040087B0002844
:1016E00007D101209C221D4901F022FF012007B0F3
:1016F000F0BD0822002101AD14F0E2FA142200210D
:10170000280014F0DDFA0022154F2900380000925D
:1017100013F0FCF96E46031E06D0124A124904204B
:1017200005F01EFA1F20E2E702006946380013F0B8
:1017300015FA002803D003000C4A0B49EFE7FA2200
:10174000F378D2009B18238073782A88A370B3782B
:10175000E370AB78A280A371C9E7C046546F01085B
:10176000280E00206C6F01089BB80108846F0108E7
:1017700030B58FB024216A46002307AC52182000F0
:101780001370FFF7A9FF051E17D1A17923880491D3
:1017900061790E4A0391217909A80291E1780191BA
:1017A000A1780091142114F0E5F90949132807D014
:1017B0000420084A05F0D4F91F3528000FB030BDC9
:1017C000054A09AB022005F0CBF9F6E7AAB80108F3
:1017D0009BB801089C6F0108B46F0108F0B51C4F5D
:1017E00087B001AE00223100380013F08FF90022DB
:1017F0006946380013F0B2F90023164A0021307808
:10180000FEF748FE002304000D00134A0021707803
:10181000FEF740FEFA2224184D4100230021B07843
:101820009200FEF737FE24184D41F96800290BD0CD
:10183000FA20029B8000CB1A58430131FEF794FC3A
:1018400000230200A4185D412000290007B0F0BD6C
:10185000280E002080EE360060EA0000F0B5184B3C
:1018600018481E68184B87B01C68184B70401F68DA
:10187000FFF73CFE134B0500E018FFF737FE144B53
:101880000090F818FFF732FE019000986840FFF7CB
:101890002DFE019B43401800FFF728FE0500039032
:1018A0003018FFF723FE0490E0194019FFF71EFEE1
:1018B0000322059003A9074811F00EF807B0F0BD08
:1018C0005000F81FB979379E5400F81F6400F81FC4
:1018D00072F36E3CA80D0020002330B50400180000
:1018E000E25CDD00AA4001331043DAB29142F7D83E
:1018F00030BDF7B5441801940F241300A4460578B1
:1019000064462F093E002C4037369F2D00D8073EF5
:1019100025001E703735092C01D830342500019C74
:1019200001305D700233A042E9D1002349008B549D
:10193000F7BD000010B50C4C2378012B11D00F22FD
:101940000A4803681A629969073A0A439A61084982
:10195000012214F011F8FD220A23104202D1093BA2
:1019600023700023180010BD20010020F00B002080
:10197000AC01002010B5114C50220021200014F0C1
:101980009FF90F4B0F4A1B68934206D003200E4964
:101990000E4A01F0CDFD032010BD002301210C4AA9
:1019A000617013700B4A217013800B4A13800B4A2D
:1019B00013600B4A1370FFF7BDFFEDE7D000002066
:1019C000F00B002000380140C46F0108FC05000046
:1019D000AC0100202A010020280100202401002061
:1019E0002001002010B5154B0A001C78012C07D0EF
:1019F00002201349134A01F09BFD0224200010BD70
:101A0000002809D1002901D10024F7E720000C4962
:101A10000D4A01F08DFDF1E70029F5D00B4C0100D6
:101A20006423200013F0CAFD0028EDD009200449EA
:101A3000074A01F07DFD0924E0E7C046D000002000
:101A4000C46F01082E0600002F060000F00B0020D6
:101A50003606000010B5041E07D1C8220120064931
:101A6000D20001F065FD012010BDFEF757FB81B2E9
:101A70002000FFF7B7FFF7E7C46F010810B5FFF7C5
:101A8000E9FF002802D10248FFF7E4FF10BDC0467D
:101A900070C0010810B5B6B004AC200006F0D0FC50
:101AA000031E09D0C0210C4A06A814F063F806A84A
:101AB000FFF7E4FF36B010BD482123780391A188D9
:101AC000064A0291A17806A8019161780091C0218F
:101AD00014F050F8EBE7C046DC6F0108F96F01081D
:101AE000F0B5C3B00AAF380006F0AAFC051E0CD052
:101AF0000300C021374A12A814F03CF812A8FFF7DF
:101B0000BDFF0500280043B0F0BDBB780600002BE8
:101B100043D13148F3E7637AC0210893237A2F4AEF
:101B20000793E37912A80693A37905936379049345
:101B300023790393E3780293A37801932388009396
:101B4000330014F017F812A8FFF798FF002802D00E
:101B50009122234939E0A17D6289A3890591617DA4
:101B60001B040491217D13430391E17C1D4A0291E2
:101B7000A17C0191218AE08909040143009112A806
:101B8000C02113F0F7FF12A8FFF778FF002802D05A
:101B90009E22134919E00136F6B2BB78B342B1D99F
:101BA0000CAC2100300006F0E7FA0028B3D000901A
:101BB0003300C0210C4A12A813F0DCFF12A8FFF773
:101BC0005DFF0028E7D07F220549092001F0B0FC25
:101BD000092597E72B700108487001087770010804
:101BE000C46F0108B870010859700108F0B50024ED
:101BF000B5B002900191019B9C4201D300202FE0DF
:101C00002300C0211B4A04A813F0B4FF00250600DE
:101C1000029B1F19019B1B1B9BB20393039B9D42BD
:101C200001D0102D0BD104A8FFF728FF00281DD0EC
:101C30000920BE22104901F07BFC092010E0C021E0
:101C400004A83B780D4A891B801913F093FF0137D4
:101C5000002807DA1E20BA22074901F069FC1E207D
:101C600035B0F0BD01353618ADB2D7E71034A4B2A7
:101C7000C1E7C0460A710108C46F01088D9B0108C5
:101C8000F0B5CA4C0600A5440CAC200006F0D8FB09
:101C9000C74A031E1BD1A378C648002B1CD010A82E
:101CA00005F09CFE022802D110A805F0C9FE10A87C
:101CB0000EAD2AAC05F000FF2B008022210010A8F9
:101CC000012E0FD105F07AFE031E0ED0BA4AC021B4
:101CD0004AA813F04FFF4AA8FFF7D0FEAB239B00A2
:101CE0009D44F0BD05F01AFDEEE769792B8803915C
:101CF0002979B24A0291E9784AA80191A97800911C
:101D0000C02113F037FF4AA8FFF7B8FE002806D01D
:101D1000AB49AC4A092001F00BFC0920DEE72000AA
:101D20002988FFF763FF002802D0A549A64AF1E7FA
:101D30002D883D2D0ED82B00A44AC0217AA813F07F
:101D400019FF7AA8FFF79AFE002800D0CEE1FFF72E
:101D5000A1FEC3E72378022219009143A12901D0F3
:101D60009B4AEAE7A178702902D00B00994AE4E780
:101D700001910093C0212B00974A7AA813F0FAFE34
:101D80007AA8FFF77BFE002804D0C6228C495200B7
:101D90000920A9E129002000FFF728FF002803D02F
:101DA0008E228749FF32F3E723788C49A32B00D199
:101DB0008B4901910093C02100238A4A7AA813F02D
:101DC000D9FE7AA8FFF75AFE002802D098227C4953
:101DD000E8E76378C0210093834A01237AA813F0CF
:101DE000C9FE7AA8FFF74AFE002802D0CF22744924
:101DF000CDE7A378C02100937C4A02237AA813F090
:101E0000B9FE7AA8FFF73AFE002802D0A6226C4954
:101E1000C8E7932006AB1AAEC01832000821FFF7BE
:101E200068FD0323C021724A00967AA813F0A2FE2F
:101E30007AA8FFF723FE002802D0D7226049A6E740
:101E40009B2006ABC01832000821FFF752FD0B2380
:101E5000C021684A00967AA813F08CFE7AA8FFF792
:101E60000DFE002802D0DB22554990E7E37CC0211B
:101E70000093614A13237AA813F07CFE7AA8FFF737
:101E8000FDFD002802D0DF224D4980E7237DC021DF
:101E900000935A4A14237AA813F06CFE7AA8FFF72D
:101EA000EDFD002802D0C62245497BE7A52006AB00
:101EB0000221C018FFF710FD15230090C021504AE1
:101EC0007AA813F057FE7AA8FFF7D8FD002802D0B1
:101ED000CE223B4966E7A72006AB0221C018FFF7D8
:101EE000FBFC17230090C021464A7AA813F042FE5B
:101EF0007AA8FFF7C3FD002802D0D622304951E767
:101F0000A92006AB0221C018FFF7E6FC19230090B8
:101F1000C0213D4A7AA813F02DFE7AA8FFF7AEFD46
:101F2000002802D0DE2226493CE7AB2006AB022186
:101F3000C018FFF7D1FC1B230090C021334A7AA8B8
:101F400013F018FE7AA8FFF799FD002802D0E622C8
:101F50001B4927E7AD2006ABC01832000521FFF76B
:101F6000C8FC1D23C0212A4A00967AA813F002FE5D
:101F70007AA8FFF783FD002802D0F722104906E770
:101F80002BABDB7F06A9019393235B18DB7FC0217A
:101F90000093204A22237AA813F0ECFD7AA8FFF7D9
:101FA0006DFD002838D0F8220549FBE654FDFFFFFF
:101FB000407101085D7101086971010881710108B2
:101FC000C46F01080E0300000F030000BE7101087A
:101FD000D5710108EE71010804720108167101083B
:101FE000117101082F7201085372010874720108FF
:101FF000A5720108C0720108DB720108FB720108BA
:1020000016730108327301085373010874730108D1
:1020100094730108AF73010895233F2406AA9B1807
:10202000DB7F0A211C402000DB090293FEF722F926
:10203000C9B2019120000A21FEF796F8D14FC0B233
:10204000009024233A00C0217AA813F093FD7AA8C7
:10205000FFF714FD002802D0CB49CC4A98E6B52002
:1020600006ABC01832000421FFF743FC2523C02132
:10207000C74A00967AA813F07DFD7AA8FFF7FEFC08
:10208000002802D0C049C34A82E6B92306A95B18DA
:102090001B78C0210093C04A29237AA813F06AFD57
:1020A0007AA8FFF7EBFC002802D0B749BB4A6FE6DD
:1020B000BA230F2406AA9B181B78B9491C401B0998
:1020C000013BDBB20B2B02D8B64A9B00995800911A
:1020D0002A23C021B44A01947AA813F04BFD0028AA
:1020E00007DA1E20A849B14A01F022FAA649B04AEF
:1020F00010E67AA8FFF7C2FC002802D0A249AD4A38
:1021000046E6BB23012006AA9B181B78AA4A990819
:10211000014004915909014003919909014002913C
:10212000D90901910093C0212B237AA813F022FD35
:102130007AA8FFF7A3FC002802D093499F4A27E61C
:10214000BD2306A95B181B78C021019335AB1B7812
:102150009B4A00937AA82C2313F00CFD7AA8FFF772
:102160008DFC002803D08F228749920010E6BE2301
:1021700006AA9B18BF221B78079306ABD2181178CA
:1021800036AA12789446C122D2181078C222D218E8
:102190001678C322D21817780A00079B1A406346A4
:1021A0001A40FF2A10D100902E23C021854A0297A1
:1021B00001967AA813F0DEFC7AA8FFF75FFC0028EE
:1021C00010D096227049D0E70293079B03900191AB
:1021D0000093C0212E237C4A059704967AA813F019
:1021E000C9FCE9E737AB1B78C0210093774A342359
:1021F0007AA813F0BFFC7AA8FFF740FC002802D0B1
:102200006149734AC4E5C52306AA9B181B78C021FF
:10221000099300936F4A35237AA813F0ABFC7AA890
:10222000FFF72CFC002802D057496B4AB0E5C623C3
:1022300006AA9B181B780A930A9A684BFF2A00D1BA
:10224000674B01930A9BC0210093664A36237AA804
:1022500013F090FC7AA8FFF711FC002802D04A493D
:10226000614A95E5C72006ABC0180421FFF734FB8F
:102270000300079001330DD13723C0215B4A7AA8B0
:1022800013F078FC7AA8FFF7F9FB071E4AD03E4905
:10229000574A7DE5079BC0210093564A3723019496
:1022A0007AA813F067FCEDE7B21C0B92934202D2BE
:1022B0002300514A41E52AA802218019FFF70CFBAF
:1022C0004E4B82B29A420FD13300C0214C4A009447
:1022D0007AA813F04FFC7AA8FFF7D0FB013400284E
:1022E0004ED0AC22284940E70A9AE3B280B293422A
:1022F0000FD3089B01330CD0089B01901B1A089345
:102300000293C02133003F4A00947AA813F032FCB4
:10231000E1E701903300C0213B4A00947AA813F012
:1023200029FCD8E73B260400079B08930999E2B2F1
:102330006B1E0B928A42B7D302222AA8115C01328B
:102340007F18FFB29342F9D8A422920006A99A18E6
:1023500052182E49521814782D49A74200D12D4900
:1023600002912D4AC021019700947AA813F002FC33
:102370007AA8FFF783FB002852D00349274A07E5D4
:102380000B9ED3E7CE730108C46F0108050200005D
:10239000F67301080F020000117401081602000014
:1023A0001B710108FCEB01083074010822020000D7
:1023B00012030000230200005774010831020000DC
:1023C00095740108B7740108E974010821750108C2
:1023D000620200003D7501086A02000072C0010837
:1023E0002371010858750108730200007575010812
:1023F00087020000A2750108CB750108FFFF0000ED
:10240000E7750108147601084076010800FEFFFF19
:1024100037710108EAA501085E760108C3020000D1
:10242000074BA74200D1074B0293079BC0210193A2
:10243000099B054A00937AA82B0013F09BFB80E4CC
:10244000F1970108EAA501088E76010810B504216C
:102450000148FFF7C7FA10BD2FEC0108F0B5BF4BDC
:10246000CFB01B780E93012B06D0BD49BD4A022088
:1024700001F05EF8022005E0FFF75CFA03000A2095
:10248000002B08D04FB0F0BD0021B44A0B0090786B
:1024900001281DD19170B449B4480A88008893B2CC
:1024A000824201D100F08CFEB14AD25C01339BB272
:1024B000D2B27F2B00D9002333200B8008ABC01889
:1024C00002700A2AE0D00D2A01D000F034FE0E9BE3
:1024D0000022A24CA370A388E3181A746378012B1E
:1024E00004D1A448FFF7B6FA0028CBD1237C002BF7
:1024F00000D1A1E10DF0CCFA0600FFF7A5F8050028
:1025000001F01EF80F9002F0DFF8040006F016FC50
:10251000994B0700994918000D93FDF7F5FD002828
:1025200000D0AEE09648FFF7A9FA002800D0A6E058
:102530009448FFF7A3FA002800D0A0E09248FFF7E4
:102540009DFA002800D09AE09048FFF797FA0028FB
:1025500000D094E08E48FFF791FA002800D08EE07A
:102560008C48FFF78BFA002800D088E08A48FFF7F4
:1025700085FA002800D082E08848FFF77FFA00281B
:102580007DD18748FFF77AFA002878D18548FFF790
:1025900075FA002873D18448FFF770FA00286ED1CD
:1025A0008248FFF76BFA002869D18148FFF766FA85
:1025B000002864D17F48FFF761FA00285FD17E4888
:1025C000FFF75CFA00285AD17C48FFF757FA002839
:1025D00055D17B48FFF752FA002850D17948FFF7D0
:1025E0004DFA00284BD17848FFF748FA002846D129
:1025F0007648FFF743FA002841D17548FFF73EFAC5
:1026000000283CD17348FFF739FA002837D17248C7
:10261000FFF734FA002832D17048FFF72FFA00286C
:102620002DD16F48FFF72AFA002828D16D48FFF70F
:1026300025FA002823D16C48FFF720FA00281ED184
:102640006A48FFF71BFA002819D16948FFF716FA04
:10265000002814D16748FFF711FA00280FD1664807
:10266000FFF70CFA00280AD16448FFF707FA0028A0
:1026700005D16348FFF702FA002800D1DCE0092009
:1026800000E760490D98FDF73FFD002811D10DF0DE
:1026900003FAC02100905C4B5C4A1EA813F06AFA52
:1026A000002856DA2E495A4A1E2000F041FF1E200B
:1026B000E8E658490D98FDF727FD00282ED1737ADA
:1026C0000D9333690F9373691093636A119303F049
:1026D0008BFB129006F02CFB04000BF0F5FFB37996
:1026E0000500F76913930CF001F8139B089006930B
:1026F000129BC0210393119B474A0293109B07979B
:1027000001930F9B0595009304940D9B1EA813F055
:1027100031FA00281DDA1249404AC5E740490D98B0
:10272000FDF7F2FC002800D07EE0A9682B7F06911F
:1027300069783C4A059169681EA80491A9690391CA
:102740006969029129690191E9680091C02113F03A
:1027500011FA1EA8FFF792F996E2C046D0000020B9
:10276000C46F010815060000280100202A0100207E
:102770002C01002070C00108E0000020DC76010878
:10278000E17601080E7701083F7701086E770108AE
:10279000A1770108D3770108057801083B78010883
:1027A0006B78010898780108D87801080D7901083C
:1027B0004A7901087B790108B0790108E8790108B4
:1027C0001A7A01084C7A01088B7A0108BD7A01084F
:1027D000F47A0108277B0108607B0108957B0108DA
:1027E000D17B01081A7C0108657C01089B7C0108EB
:1027F000E17C0108137D01084A7D0108807D010804
:10280000AF7D010846940108DF7D0108FED501086F
:102810003B04000091780108F77D01084E04000098
:102820004A7E0108507E0108D8490D98FDF76CFCDE
:1028300000280ED1FEF79CFFD54B9A6801329A60B2
:1028400000229A801A74FFF701FE002800D122E6C8
:1028500018E6D0490D98FDF757FC002812D10F99C2
:102860000F9B89681B7801910F99CB4A49681EA874
:102870000091C02113F07EF9002800DB69E7C74909
:10288000C74A11E7C7490D98FDF73EFC002805D05F
:10289000C5490D98FDF738FC002861D101F014FFFF
:1028A00004000FF02FFC0D9003F09EFA050003F0DA
:1028B000A5FA676A0600A46A06F03AFA2B000390AC
:1028C000C021BA4A0294019700961EA813F052F94B
:1028D000002802DAB149B64AE6E61EA8FFF7CEF8AC
:1028E000051E10D0AD49B34A092000F021FEC6E60E
:1028F0001EA8FFF7C3F8002802D0A849AE4AF3E7A4
:1029000001350C2D98D0E8B201F0E2FE041EF7D09C
:102910004669002E01D00D9B9E1BA768002F00D199
:10292000A64F23690F93E3681093A07801F0DAFEB5
:10293000237F069607932379C0210593E378A04A65
:102940000493109B039002930F9B009701931EA882
:102950002B0013F00FF90028CADA9049994AA3E630
:1029600099490D98FDF7D0FB002806D0974D98495E
:102970002800FDF7C9FB00281BD103F035FA05003C
:1029800003F03CFAA369C02105936369914A04935B
:1029900023690393E3680293A368009001931EA840
:1029A0002B0013F0E7F8002800DBD2E67B498A4AC7
:1029B0007AE628008949FDF7A7FB002805D0280002
:1029C0008749FDF7A1FB002810D17969FB780491B4
:1029D0003969844A0391F9681EA80291B968019186
:1029E00079680091C02113F0C5F8B2E628007E494D
:1029F000FDF78AFB00282FD10BF066FE636A0D906D
:102A00000F93B379F7691093337A346C1193336A67
:102A1000B5691293B36A13930BF068FEF36CC0218F
:102A20000A93336D714A0993139B08900593129B87
:102A300007950393119B06940293109B04970193AF
:102A40000F9B1EA800930D9B13F094F8002800DB49
:102A50007FE65249664A27E628006649FDF754FB9F
:102A600000281FD100F036FD040000F039FD0500FC
:102A700000F034FD060000F03FFD2300211E01D0D0
:102A8000A368E1680391029301902B00C0215A4A88
:102A900000961EA813F06EF8002800DB59E63F49A7
:102AA000564A01E628005649FDF72EFB002856D16C
:102AB000159016901790189017AB18AA16A915A87C
:102AC000FEF7CAFB4F4C002814D1179B210002933C
:102AD000189B4D4A0193169B023000931EAD159B27
:102AE00004F03EF829004948FEF778FC002808D099
:102AF000474A00E0474A2100042004F031F81F2033
:102B0000C0E41E9E301CFEF769FA6F680D90381CF9
:102B1000FEF764FA0500FEF781FA011C381CFEF787
:102B20001BF83D49FDF7C6FEFEF758FA02900D98D6
:102B30000195FEF773FA011C301CFEF70DF83649BB
:102B4000FDF7B8FEFEF74AFAC317C01858400090C8
:102B500021000D9B314A022004F002F86CE6304E51
:102B600028003100FDF7D0FA002878D101300CF0B0
:102B700033FF0CF0EDFF09F02FFA002854D007497D
:102B8000284A1F2000F0D4FCB9E7C046D2990108BA
:102B9000D0000020EE800108967E0108C46F010875
:102BA00071040000B67E0108C17E0108C67E0108DE
:102BB0009A0300009B030000B6030000EAEB010843
:102BC000F07E0108B50300003A7F0108E000002014
:102BD0003E7F0108437F010886040000F584010858
:102BE000917F0108977F0108DE760108D47F0108F4
:102BF000AA0400000879010848800108BB0400000D
:102C000078800108B18001087C800108000D002057
:102C1000E3800108B58001080000C842C4800108B3
:102C2000F4800108FA0400000CF092FF09F09CFA0D
:102C3000041E02D0BA49BB4AA3E70CF089FF012069
:102C400009F014FC012009F059FC0CF081FF09F097
:102C5000FBFD0CF07DFF20000CF0BEFEECE5280033
:102C6000B149FDF751FA002806D1FEF713FF0028FD
:102C700015D0AB49AD4A37E62800AD49FDF744FA17
:102C8000002806D1FEF706FF002801D0FFF7FAFB67
:102C9000D2E52800A749FDF737FA002802D1FEF750
:102CA0001FFFF1E72800A449FDF72EFA002802D102
:102CB000FEF7E6FFE8E72800A049FDF725FA00281F
:102CC00001D10130F4E728009D49FDF71DFA0028E5
:102CD0000BD101F0F1FC9B4A031E9B4800D139E562
:102CE000C0211EA812F046FF33E528009749FDF7E2
:102CF0000BFA00281FD100F0ABFB954A031EEFD161
:102D000001F0DAFC041E04D000F0BEFB2300914A5F
:102D1000E6E700F0E9FB040000F0EAFB2300009086
:102D2000C0218D4A1EA812F025FF002800DB10E507
:102D30007B498A4AB8E428008949FDF7E5F900286B
:102D400006D028008749FDF7DFF9002800D085E08C
:102D50000AF0DCFD041E03D1D5227149FFF787FB81
:102D600003788148012B00D0F4E46278236960691C
:102D7000A569E6687D49012A03D07D49022A00D071
:102D80007C49277A7C4A0697E7780597A7780391CC
:102D90000090C0210497029601951EA812F0EAFE49
:102DA0001EA8FEF76BFE002802D0E8225C499BE5D6
:102DB000A17A23790491E179704A0391A1791EA83F
:102DC0000291617A019161790091C02112F0D2FEE5
:102DD0001EA8FEF753FE002802D0F422504983E5D6
:102DE000637A002B11D06648FEF748FE002802D017
:102DF000F8224B4978E52000617A1C30FEF7F6FE98
:102E000000280AD0F92246496EE55E48FEF736FEF4
:102E1000002802D0FF22424966E5A37A002B14D095
:102E20005948FEF72BFE002803D082223C4952006D
:102E30005AE52000A17A5C30FEF7D8FE002800D1C8
:102E4000FAE406223649FF324EE55048FEF716FEF8
:102E5000002800D1F0E40C223149F4E74C4F28005F
:102E60003900FDF751F9002806D00422280049490D
:102E700012F051FF002816D1474B4848DB7C002B4D
:102E800000D147481EACC022210002F0C9FF031E3A
:102E900007D02278002A04D1C0212000414A12F034
:102EA00069FE200056E428003F49FDF72DF900286F
:102EB00016D102F099FF050005F03AFFE378C02132
:102EC0000293A378394A019300902B001EA812F0B8
:102ED00051FE002800DB3CE41149354AFFF7E4FBD2
:102EE00009222800334912F016FF2B4C002807D086
:102EF00008222800304912F00EFF002800D0FFE021
:102F0000E37C2E490E9C662B01D000242C4928001E
:102F100018AA12F063FE012856D02A481AE4C046C7
:102F2000C46F0108FC040000FA8001080C050000D1
:102F3000008101080B810108168101082181010827
:102F40002B8101087581010835810108468101083E
:102F50004E8101086D810108918101084A05000038
:102F6000B7810108C0810108CC8101080EE4010885
:102F700027EB0108BC760108DA81010828820108E4
:102F800060820108748201088E820108A382010810
:102F9000BE820108C2820108D0000020E4000020A7
:102FA00072C00108C78201083B7F0108E582010861
:102FB0006B0500000683010810830108CE76010826
:102FC000C1760108198301087F4918A8FDF79CF80C
:102FD00000285CD07D4918A8FDF796F8002863D03A
:102FE0007B4918A8FDF790F800285DD0794918A80A
:102FF000FDF78AF8002859D0774918A8FDF784F81A
:10300000002853D0754918A8FDF77EF800284FD046
:10301000734918A8FDF778F8002849D0714918A815
:10302000FDF772F8002845D06F4918A8FDF76CF835
:1030300000283FD06D4918A8FDF766F800283BD05E
:10304000390018A8FDF760F8002837D0310018A81B
:10305000FDF75AF8002833D0654918A8FDF754F851
:1030600000282FD0634918A8FDF74EF800282BD070
:10307000614918A8FDF748F8002827D05F4918A82B
:10308000FDF742F8002821D05D48FFF763FB0E9D55
:10309000002228001100012C1AD101F097FA594C96
:1030A000031E1AD0584A1BE60225F1E70325EFE775
:1030B0000825EDE70525EBE70A25E9E70E25E7E713
:1030C0001525E5E71925E3E71C25E1E72825DFE7D6
:1030D00001F083FA4D4C031EE4D1280001F002FBFD
:1030E00023000090C0214A4A1EA812F043FD002888
:1030F00001DBFFF72EFBB2224649D200FFF7D4FADC
:1031000028004549FDF700F8002804D10123434871
:103110006370FFF71FFB28004149FCF7F5FF00280B
:1031200003D160703F48FFF715FBE3683E48013369
:10313000E360FFF70FFB082A01D07F2A16D13B4A34
:103140009388002B01D1FFF7A6F90021013B9BB228
:103150009380D31819745378012B01D0FFF79BF992
:1031600033480331FEF73EFCFFF76FFB1300203BB3
:103170005E2B01D9FFF78FF92C498B883E2B11D993
:1031800000232C488B800B74FEF778FC002801D1BB
:10319000FFF759FB0D201F49274A00F0C9F90D2000
:1031A000FFF770F9CC182274002201339BB28B8098
:1031B000CB181A744978012901D0FFF76CF9D1E7CF
:1031C0000020FFF75FF9C046308101086C830108D9
:1031D00071830108768301087C83010880830108DC
:1031E000B0C6010886830108898301089683010817
:1031F0009C83010897990108ED830108A3830108C6
:10320000A8830108447D0108F38301080B850108A8
:103210000E840108C46F0108298401083184010863
:103220003E8401084784010855840108D00000202D
:103230002CEC010872840108E7050000030070B55A
:10324000002820D0124883421DD11249124C0A781E
:103250002388D2B29DB201339BB27F2B00D90023C9
:103260000E4E36889E420FD10D4A1368013313600B
:1032700000230C4C0122237012F07EFBFD23184228
:1032800001D1FC3B237070BD074E72552380EFE7E0
:10329000F00B0020AC0100202A01002028010020B2
:1032A00024010020200100202C01002010B500285E
:1032B00015D00B4B984212D10F220368094C1A62A9
:1032C0009969073A0A439A6100230122064923704B
:1032D00012F052FBFD23184201D1FC3B237010BDBC
:1032E000F00B002020010020AC01002000487047B6
:1032F000D0000020012370B5050001213C355B4260
:103300000278534008221C005E080C400B4200D09B
:10331000054C3300013A6340002AF4D10130A84241
:10332000EED1D84370BDC0462083B8ED70B5010022
:1033300094B0002808D14B220120224900F0F8F86F
:103340000125280014B070BD04AE4022300012F0F8
:1033500051FD3000FFF7CEFFF0630FF0ADFB041E10
:1033600005D0502217491F2000F0E2F810E0164B5C
:10337000164A69469A61164B019002930123009008
:1033800001A803930FF090FC002803D00FF0C6FBB8
:103390001F25D6E70E4B02203259E1180FF006FC2C
:1033A0000028F3D10434402CF4D10FF0B7FB051EF4
:1033B00002D06A220349D6E722003100054812F004
:1033C00019FDBEE7BD84010800200240020F000085
:1033D00000E00108B001002070B5174C4022200029
:1033E000164912F007FD164D2368AB4204D1802325
:1033F00062685B029A4213D034220021114812F015
:103400005FFC80235B026360012320002560A360D2
:10341000FFF770FFE06301220B4B00201A7070BDB4
:10342000A368013B012BE7D82000E66BFFF762FFA2
:103430008642E1D1EFE7C046B001002000E001087C
:1034400054425544BC010020AD01002070470000EB
:1034500000B50B4B91B01B78012B01D0FFF7BCFFDF
:1034600040220849684612F0C5FC022368460393CF
:10347000013B04930593FFF759FF11B000BDC0460F
:10348000AD010020B001002000B50A4B91B01B78BF
:10349000012B01D0FFF7A0FF40220749684612F038
:1034A000A9FC00236846039304930593FFF73EFFAE
:1034B00011B000BDAD010020B001002010B5044BDB
:1034C0001B78012B01D0FFF787FF002010BDC046FD
:1034D000AD01002000487047B00100200120704776
:1034E00000487047D884010800487047DE8401080E
:1034F0000048704700000108044B05485B69042B35
:1035000002D8044A9B0098587047C046B00100207A
:10351000E484010834EC01080022034B03491A70CB
:1035200059609A607047C04600000020108501086D
:10353000024B187059609A607047C0460000002026
:10354000004870470000002072B6C046FDE700004A
:10355000014B18707047C0460C00002070B5041E67
:1035600028D085781F2306880B2D1DD80122A52180
:10357000AA400901013B0A4216D10133022D13D1A1
:10358000033BB20710D164213000FCF773FE89B20F
:103590001D23002908D191313000FF31FCF76AFE6C
:1035A0008BB25A4253411C33E2780132D2B29A4272
:1035B00001D8E27070BD0123ED18EDB2E3700C2D5F
:1035C00001D8A570F6E70136A3702680F2E7000067
:1035D00010B510220021024812F072FB10BDC04647
:1035E000E802002010B5041E05D10949094AFFF779
:1035F0009FFF200010BD0279074B41795343074AD2
:103600004A439B188279FA20800050431818F1E74A
:10361000158501084F04000080EE360060EA0000C6
:10362000F8B507000D00141E06D11D491D4A0120E2
:10363000FFF77EFF0120F8BD1B4B994202D91849C4
:103640001A4AF4E700261A49D671FCF78DFD642169
:1036500020803800FCF788FD6421FCF70BFE380061
:10366000A1706421FCF706FE2800E1701149FCF707
:103670007BFD104920712800FCF7FCFD08000E4975
:10368000FCF772FD0C4960712800FCF7F3FD08009F
:10369000FA218900FCF768FDA0713000CBE7C04635
:1036A0001585010885040000FF5B260586040000DF
:1036B0001027000080EE360060EA0000F0B589B007
:1036C00006000D0017000193282819D802AC182213
:1036D0000021200012F0F4FA0123A6702370E57097
:1036E0000EF010FD019B6060A7602000E360012DDB
:1036F00003D105F02FFA09B0F0BD05F065FAFAE73D
:1037000001200349034AFFF713FF0120F3E7C046F6
:10371000158501087B030000F0B585B00C001F1E65
:10372000019202D00A9B002B08D11549154A0120AD
:10373000FFF7FEFE0125280005B0F0BD02AE320005
:10374000FFF76EFF019B0500E418002808D09922BE
:103750000B49D200EBE70C4B3000E418FFF7FEFEFC
:103760000A4B9C42F7D83288094BB1785343642204
:103770004A439B18F2789B183B600A9B1C60DAE76F
:1037800015850108C504000000A4D9FAFF5B2605D1
:1037900010270000F0B505000E008FB0002801D002
:1037A000002906D12449254A0120FFF7C1FE012442
:1037B00011E004A804F012F9FD23040018420DD111
:1037C00002AAF03B9B18D87F03F042FF1C4C4443F5
:1037D000002C08D1002420000FB0F0BD1649194A72
:1037E000FFF7A6FEF7E7184B1F009C4200D86708BA
:1037F0003368210018000393FCF73CFDB9420BD25B
:1038000000967A1A2B0003992868FFF785FF002895
:10381000E0D009490D4AC7E7641ABC42DAD20096E3
:103820002B0003992868E219FFF776FF0028D1D012
:103830000149074AB8E7C046158501080705000099
:1038400080EE36000A050000C0D401002505000006
:103850002D05000073B5154A00245378012B1AD1A9
:10386000134B5978012916D19D689068D16885421B
:1038700003D310D8DB688B420DD80E4D0E4E2B00B3
:103880000E4A0096FFF748FF041E06D001200C499F
:103890000C4AFFF74DFE200076BD31002800FFF7EF
:1038A00079FF041EF7D00649074AF2E71C030020FF
:1038B000F80200200003002004030020C0D401000F
:1038C000158501084B0600004F060000F7B5089F5C
:1038D00006001C000800099D1100002E03D0002BDB
:1038E00001D0002F07D11749174A0120FFF720FE0A
:1038F00001242000FEBDB378002B08D1114C134ADF
:1039000021000120FFF714FE2100114AEDE7114AC2
:1039100000975A432300FFF7FFFE002802D0094911
:103920000D4AE2E720003900FFF734FF041E04D0FF
:1039300004490A4AFFF7FCFDDBE7002DD9D02860D7
:10394000D7E7C046158501086C050000DB040000C0
:103950006F05000080EE3600760500007905000056
:10396000F0B504000E0085B0002807D11E491F4A9B
:103970000120FFF7DDFD012005B0F0BD080003F0D8
:103980005BFE012802D01849194AF1E702AD08226E
:103990002100280012F02EFAA37820000193E3788A
:1039A00027880093134B5E43FFF71CFE3100FCF7A2
:1039B000DBFB01307043104B984208D92800FFF719
:1039C000CDFD0020AB782F880193EB780093642124
:1039D0000A4B019C7B4361435B180099084A5B18C2
:1039E000906053600020C7E7158501089D04000022
:1039F0009E04000080EE3600FF5B260510270000C5
:103A000040030020F0B5394B93B0DB68DB060FD4E0
:103A1000374CE378002B04D00320364A364903F0B4
:103A20009FF8002302252380E370280013B0F0BD27
:103A300006A8FDF751FE051E05D03049304A280082
:103A4000FFF776FDF1E708A803F0C8FFFD230500A6
:103A5000184216D102AAE03B9B18D87F022603F039
:103A6000F7FD234CFF3623880100B3420CD006A893
:103A7000A170FFF775FF051E0ED001201F49214AD6
:103A8000DEE71E49204ADAE7A3788342EFD1E378E4
:103A9000012BECD10025C8E70123A768E370A378C8
:103AA0002680380019490593FCF7E4FB0800FA2149
:103AB0008900FCF759FB164903903800FCF7DAFB44
:103AC00008001249FCF750FB114902903800FCF73E
:103AD0004BFB019063680F4E074D009332002900A5
:103AE000059B022003F03CF8D4E7C04600280040C4
:103AF000400300202B850108D2DA01081585010852
:103B0000A1050000B3050000A405000060EA000064
:103B100080EE3600678501080023F0B58FB00CAE4B
:103B200004000B7030000F000B92FDF7D5FD0A90DA
:103B3000002806D03B493C4AFFF7FAFC0A980FB030
:103B4000F0BD3388394DB2785D4364235343ED189B
:103B5000F3783000ED18FFF745FDA368AB42EDD8D0
:103B600002D1E2689042E9D32269934203D16269AB
:103B7000E3689A42E2D001233B702300A168E26827
:103B80002033216162610193143B00932000043BC8
:103B9000FFF79CFE051E05D02249254AFFF7C8FC09
:103BA0000A95CBE7E668A378300022496569089357
:103BB000FCF760FB0800FA218900FCF7D5FA1E49E2
:103BC00007903000FCF756FB08001A49FCF7CCFAC6
:103BD000194906903000FCF7C7FA0590A368280041
:103BE00014490493FCF746FB0800FA218900FCF70E
:103BF000BBFA114903902800FCF73CFB08000D4973
:103C0000FCF7B2FA0C4902902800FCF7ADFA0190DB
:103C100023690A4F00933A000B9B0949022002F0E6
:103C20009FFF8BE71585010845070000102700005E
:103C30006207000060EA000080EE3600A7850108F8
:103C4000D2DA01080023F0B58FB00CAE04000B707F
:103C500030000A910B92FDF73FFD071E06D03D494B
:103C60003D4AFFF765FC38000FB0F0BD33883B4D8F
:103C7000B2785D4364235343ED18F3783000ED18B8
:103C8000FFF7B0FCA368AB4261D802D1E268904272
:103C90005DD32269934203D16269E3689A42E2D01C
:103CA00001230A9A200013702300A168E2682033E0
:103CB000216162610193143B0093043BFFF706FE10
:103CC000051E05D02349264AFFF732FC2F00CAE71C
:103CD000E668A3783000234965690893FCF7CAFABF
:103CE0000800FA218900FCF73FFA1F4907903000CD
:103CF000FCF7C0FA08001B49FCF736FA1A4906908F
:103D00003000FCF731FA0590A368280015490493A8
:103D1000FCF7B0FA0800FA218900FCF725FA1249ED
:103D200003902800FCF7A6FA08000E49FCF71CFADD
:103D30000D4902902800FCF717FA019023690B4AFD
:103D400000930B490B9B022002F00AFF8BE71C2714
:103D500089E7C04615850108B2070000102700005A
:103D6000CF07000060EA000080EE36000086010800
:103D7000D2DA0108F0B58BB0051E0691079206D184
:103D80002B492C4A0120FFF7D3FB012409E008AEA0
:103D90003000FDF7A1FC041E06D02549264AFFF796
:103DA000C7FB20000BB0F0BD3388244CB2785C43D5
:103DB00064235343E418F3783000E418FFF712FC4F
:103DC0002B00069A1E4E0C33010000932000724314
:103DD000043BFFF7A1FC041E02D01549194AD1E7A4
:103DE000EF6828622861686117493800FCF742FAD9
:103DF0000800FA218900FCF7B7F931000490380077
:103E0000FCF738FA08001049FCF7AEF931000390CE
:103E10003800FCF7A9F90290AB680C4A0193069BA5
:103E20000B4900930320079B02F09AFEB9E7C046B6
:103E300015850108190800001C0800001027000063
:103E400080EE36002708000060EA00006386010863
:103E5000D2DA0108F0B51F00764B91B0DB680400A0
:103E600016000991DB061AD4C378002B07D0179BE4
:103E700003200093704A7149169B02F071FE0023E3
:103E80002380E370A360E36023616361A361E36166
:103E90002371236202330893089811B0F0BD099B87
:103EA000002B09D14378012BE9D1654A6349169B60
:103EB000022002F055FEE2E70EAD2800FDF70CFCF3
:103EC0000890002804D05F495F4AFFF731FBE3E721
:103ED0002379A761012B0BD0FDF7C0FC3D21704079
:103EE000FCF7C8F9FA239B004B43E36101232371DC
:103EF00002222388FF3293422FD1A378099A93425A
:103F00002BD1E378012BC7D0230008330A934F4EFF
:103F10002B88AA785E4364235343F618EB78280075
:103F2000F618FFF75FFB2700494D099A0DAB01001A
:103F3000009330006A430CAB0C37FFF7EDFB002811
:103F40000ED04049434A0120FFF7F2FA01230893BB
:103F5000DE223C490898D200B7E7099BA370D3E75B
:103F60000C9B09930D9B0B93A6787543002D04D0F1
:103F700029001800FCF7F8F80500FDF76FFC099B15
:103F800036065E40344B70406B430B215840FA2696
:103F9000FCF770F9B6004E43E369A2690B99D21899
:103FA00009980A9B92190097FFF7B6FB002802D0E8
:103FB00024492A4AC7E739000A98FFF7EBFB051E98
:103FC00006D0AB221F49D200FFF7B2FA0895BFE72F
:103FD0000223FF332380013BFF3BE768E370266247
:103FE0000796E36938000693A3691D490593FCF71A
:103FF00041F90800FA218900FCF7B6F81449049049
:104000003800FCF737F908001549FCF7ADF81049FE
:1040100003903800FCF7A8F80290A368074D0193BD
:10402000A378290000930F4A169B022002F098FD06
:1040300032E7C04600280040A4860108D2DA010811
:10404000B986010815850108D30600001027000075
:1040500080EE36004B050000B179379E5505000013
:1040600060EA0000D086010810B58CB002A803F009
:10407000B5FCFD230400184211D1EE3B6B44D97FFF
:104080000E4B0F4801930F4B0F4A00930F4BFFF756
:10409000E1FE041E0BD0E6220D49D20001E00C49DE
:1040A0000C4A2000FFF744FA20000CB010BDFFF7C7
:1040B000D1FB041EF8D00649074AF2E73A87010807
:1040C000F80200205A870108544D474D005307005D
:1040D00015850108230700003307000010B58CB0D8
:1040E00002A803F07BFCFD230400184214D1EF3B2F
:1040F0006B44D87F03F0ACFA0F4B104C0193104B7C
:104100000100009320000F4B0F4AFFF7A3FE041E8F
:104110000AD00E490E4A01E00C490E4A2000FFF772
:1041200007FA20000CB010BDFFF794FB041EF8D076
:104130000649094AF2E7C0466D8701081C030020C2
:104140008A87010820BF0200435652531585010893
:10415000160700000907000019070000A02010B58D
:10416000C0050022042102F0F9F8002010BD000073
:1041700070B51D4D2B78012B34D01C4C1C492000F0
:104180000CF0BEF9002801D01E2070BD194E210090
:104190003000194B194A0CF0F1FD0028F4D132001F
:1041A000210017480DF08CFB0028EDD1154E2100A1
:1041B00030000BF073FF021EE6D1300012490BF005
:1041C00089FF200009F09CF90028DDD1FF220F4B68
:1041D0000F4918700F4B02301A7001230E4A2B70D2
:1041E00002F0BEFC0020D0E7F6010020C002002053
:1041F000540D00204402002064ED010874ED010814
:104200001C020020F801002051350008F7010020B1
:10421000D2DA01080C000020A0870108012210B5A5
:10422000034B02201A700349034A02F099FC10BDA7
:10423000F7010020D2DA0108C487010870B5051E15
:1042400007D101200B490C4AFFF772F90124200025
:1042500070BDFFF7D7FB041E04D00649074AFFF7DD
:1042600067F9F4E7064B2A0099685868FFF7D8F910
:104270000400ECE715850108990B00009C0B000079
:1042800040030020F0B595B00F90002806D1A54955
:10429000A54A0120FFF74CF901240AE0FFF71EFFB1
:1042A000FD230A90184207D09E49A04AFFF740F923
:1042B0000A9C200015B0F0BDFFF7D6FE041E10903A
:1042C00000D121E1022800D11AE19649984A200044
:1042D000FFF72EF9EDE72A88964BA978534364221D
:1042E0004A439B18EA7828009B180B93FFF77AF94A
:1042F0000A9B0E90002B4ED0002C00D1C3E0FAE0B8
:104300000C9BEC6801330C9308930D9B20008A49A9
:104310000793FBF7AFFF0800FA218900FBF724FFA2
:10432000864906902000FBF7A5FF08008249FBF7AD
:104330001BFF824905902000FBF716FF0490AB6835
:1043400038007D490393FBF795FF0800FA218900A7
:10435000FBF70AFF794902903800FBF78BFF080052
:104360007549FBF701FF754901903800FBF7FCFE2A
:104370003300734A00907349032002F0F1FB80235D
:104380000C9ADB009A4208D166496F4A1F20FFF75A
:10439000CFF81F248DE70A9B0C936C4D0B9BAE68E6
:1043A000EF689E4203D313D80E9B9F4210D8684AF1
:1043B0002B6A0192674A0D93009231003A0028005F
:1043C000654BFFF783FA041E9AD05649634A7EE78D
:1043D000109B002B56D0390030000F9AFFF720F9C0
:1043E000040066E730001099FFF7D4F9061E02D0EA
:1043F0004C495B4A91E05B4BEE6828620893119B45
:1044000030004D49013707930997FBF733FF080048
:10441000FA218900FBF7A8FE484906903000FBF717
:1044200029FF08004449FBF79FFE444905903000EE
:10443000FBF79AFE0490AB680C983F490393FBF797
:1044400019FF0800FA218900FBF78EFE3B49029014
:104450000C98FBF70FFF08003749FBF785FE37493B
:1044600001900C98FBF780FE0D9B00903E4A0320C4
:10447000344902F075FB8023DB009F4204D12949B7
:104480003A4A83E701240027394D0B9AAB680D9314
:10449000EB680C930D9B934204D314D80C9B0E9A9B
:1044A000934210D82B6A334E1193334B2D4A1093FD
:1044B00000930E9933000B98FFF72EF9002891D046
:1044C00018492E4AE5E60A9B002B06D1FFF7C2F9F0
:1044D000061E02D013492A4A1FE0012C0BD11B4AA9
:1044E000AB6896689E4206D8D76800D273E7EB683F
:1044F0009F4200D26FE71E4B0F9AD96898686DE70C
:104500000A9B002B00D0D4E612AD2800FDF7E4F89A
:10451000061E00D1DFE603491A4A3000FFF708F80B
:104520003400C6E615850108B10B0000B40B00008D
:10453000B70B00001027000060EA000080EE360094
:10454000DF870108D2DA0108E60B00001C03002017
:104550003C0300202803002024030020D90B000086
:10456000FE0B0000307500006B8801080D0C000088
:10457000F80200200003002004030020FB0B0000D1
:10458000140C0000BF0B000000230B4A10B5138071
:10459000D37093605360094A02201380D3709360F4
:1045A000D360074A07491380D3709360D360064AEB
:1045B00002F0D6FA10BDC046400300201C030020C4
:1045C000F8020020D2DA01080089010810B51300B2
:1045D0000A000121FFF772F810BD10B513000A00A0
:1045E0000021FFF76BF810BDF7B5D822254C52001B
:1045F00000212000F426FA2711F062FB0023224A52
:10460000F600BF00214899004158012091602049DF
:1046100098408C46FA21654613704900284204D11F
:104620003900304201D159425941D1600221013350
:10463000117720320C2BE5D1012525700024154B74
:1046400021001C70144B10221C70144B14481C7059
:10465000144B1C70144B1C70144B1C7011F030FB6D
:1046600021002422124811F02BFB210024221148A2
:1046700011F026FBFEF7ACFF280022002100FFF717
:10468000ACFFFEBD5003002054030020ECEC0108F9
:104690005A080000F5010020F4010020F301002079
:1046A00040030020F2010020F1010020F001002071
:1046B0001C030020F802002010B501220021082070
:1046C000FFF78BFF10BD000000487047D4040020A6
:1046D000030000200B2B02D801485B01181870471B
:1046E0005403002003000348282B02D8024A9B00F1
:1046F000985870476689010848EC0108F0B5224CCB
:104700008DB00B934301E418A37915000893E37966
:1047100007000993237AE2710A9300230E002372A3
:10472000A1710DF0EFFC01230B9A6371E318DA77A6
:104730006369A06101336361089BE061B34205D105
:10474000099BAB4202D10A9B002B1AD00F4ABB0037
:1047500008989C58FFF7C6FF07003000FFF7C2FF1C
:104760000B9B01900693002305930A9B0220049360
:10477000099B074A0293074923000395009702F01B
:10478000EFF90DB0F0BDC04650030020ECEC01087D
:104790006E890108D2DA0108F0B589B005000791E9
:1047A00008F052F9764B774A0693079B06990093D7
:1047B00004002B00032002F0D3F908F04BF8031E8D
:1047C00007D00320704A069902F0CAF900200BF0C6
:1047D00003F9002C07D0267F082E21D0A827092E08
:1047E0001FD0FEF7F5FE0024684B22001C70142138
:1047F0000620079BFFF782FFC4220121644B520071
:1048000099542000043A491899540BF017F9041EE2
:104810002AD01E205F49604AFEF78AFE1E2423E04C
:104820003027FEF7D5FE01235C4D2B705C4BAE703C
:10483000DA681023110019401A4200D17EE0FFF718
:104840004DFC0400022819D0002810D05149554AC7
:10485000FEF76EFE4F49544A2000FEF769FE200025
:104860004C49524AFEF764FE200009B0F0BD390001
:104870004F4A5048FFF77EFA041EEBD1FFF7F4FBD6
:104880000400022811D0002806D042494A4AFEF707
:104890004FFE4049494ADFE73900494A4948FFF796
:1048A00069FAFD2304001842F3D10123414A6B70D9
:1048B0005378012B3CD19168D2686960AA60414964
:1048C0004A78012A36D18A68C968012B06D16B68FB
:1048D000934203D804D3AB688B4201D36A60A960CA
:1048E000300006F0BDF8AC68069037492000FBF7B1
:1048F000C1FC0800FA218900FBF736FC334904901B
:104900002000FBF7B7FC08002F49FBF72DFC2F49CF
:1049100003902000FBF728FC02906B682C4E01935B
:104920003200069B16490097032002F019F95AE756
:104930000023C4E7012B00D053E7D1E7E123802017
:104940001B017B4340026970EB6009F08FFF041E7E
:1049500002D010491F4A7FE7EB681F4A30009B18BE
:10496000EB6006F07DF8E9680300029180214902BE
:1049700001911A4A06990097032002F0F1F832E7F4
:10498000D2DA0108A5890108EB890108F4010020A9
:10499000500300201585010856090000E802002098
:1049A00000280040420800007C0800004A0900007E
:1049B0008A8701081C030020530800007F080000BC
:1049C0005A870108F802002060EA000080EE3600F5
:1049D000318A0108AD0800000000FFFF9C8A010831
:1049E000002310B51A0003211800FFF787FEFDF71A
:1049F00035FD00220400030003211000FFF77EFEB6
:104A0000200010BDF0B59FB00D000690282801D9F8
:104A100000F0BAFF8623B74CFF33E0540DF072FB71
:104A2000CE2301225B00E05000200C33E250203BFB
:104A3000E0540AF0E7FF0590002807D01E20AE4999
:104A4000AE4AFEF775FD1E230593EDE0069B581E4A
:104A5000272801D900F093FFFBF77CFB2800910782
:104A6000E900F500FC00F5001E01010123012A0107
:104A70003E017601500256027002DF02E902F8029E
:104A8000F302020348034E045F0438053E054C055B
:104A9000500556056405940698069E06AC06100758
:104AA00014072007330788076D078C0700230321AD
:104AB0001A001800FFF722FE002304211A0001202B
:104AC000FFF71CFE002307211A000220FFF716FE45
:104AD000002309211A000320FFF710FE00230D21F7
:104AE0001A000420FFF70AFE002311211A000520F6
:104AF000FFF704FE002314211A000620FFF7FEFD35
:104B0000002318211A000720FFF7F8FD00231B21BE
:104B10001A000820FFF7F2FD00231F211A000920C8
:104B2000FFF7ECFD002323211A000A20FFF7E6FD22
:104B3000002325211A000B20FFF7E0FD00220320AF
:104B40001100FFF74AFD011E06D06B496C4A1B207D
:104B5000FEF7EEFC1B2377E702000420FFF73DFD84
:104B6000011E02D06449674AF1E702000720FFF7FF
:104B700034FD011E02D06049634AE8E702000920C3
:104B8000FFF72BFD011E02D05B49604ADFE7020000
:104B90000D20FFF722FD011E02D057495C4AD6E7DF
:104BA00002001120FFF719FD011E02D05249594A97
:104BB000CDE702001420FFF710FD011E02D04E4980
:104BC000554AC4E702001820FFF707FD011E02D076
:104BD0004949524ABBE702001B20FFF7FEFC011EB9
:104BE00003D0982244491201B1E702001F20FFF7C9
:104BF000F4FC002802D04049494AA8E701210022DC
:104C00002320FFF7EAFC011E02D03B49454A9EE7FC
:104C100002002520FFF7E1FC002802D03649424A75
:104C200095E7C2235B00E05405981FB0F0BDFFF785
:104C3000D7FE002800D104E20A202F493B4AFEF7A4
:104C400077FC0A2300E7002305211A000120FFF763
:104C500055FDF6E10122002306211000F7E7012DA2
:104C60001AD1FA23324A9B003249032001F078FF1F
:104C700080212A00490030480EF096F9FA20800081
:104C80000DF046FA72B6BFF34F8F2C4B2C4ADA6008
:104C9000BFF34F8FC046FDE7002308211A00022012
:104CA000D5E7FFF75BFA00230A211A000320CEE7BD
:104CB000230068331D78012D0AD1002229000B2022
:104CC000FFF78BFC2A00031E04D09C220A498AE7C6
:104CD00000231A000B21E9E7002201210C20FFF735
:104CE0007CFC031E02D00449164A30E701220C2145
:104CF000DCE7C04650030020158501086609000066
:104D000078090000790900007A0900007B09000099
:104D10007C0900007D0900007E0900007F09000079
:104D20008109000082090000830900008909000050
:104D30000B8B0108D2DA01080004005000ED00E0FE
:104D40000400FA05CB0900002022002114A810F06D
:104D5000B7FF07F079FE0500031E25D00479631E16
:104D60009C41C64B64421C4043692D34FF34002BE8
:104D70001AD00DF0C7F96E69831BA34214D23619FD
:104D80002F79361ABE48BF4ABF49019303970300E3
:104D900002940220009601F0E3FE30000DF0B8F915
:104DA0000DF0B0F96B69C31AB84AB749022001F097
:104DB000D7FEA02001220421C00501F0CFFA642013
:104DC0000DF0A6F9B24DB34B2A689A4212D0912247
:104DD0000320B149FEF7ACFBA02000220421C0054E
:104DE00001F0BCFA03242300AC4AA749032001F0D8
:104DF000B7FE77E00F27082601F09EFB28000FF092
:104E000065FF2B6814201F629A6932439A610DF086
:104E10007FF92B6864201F629A6932439A610DF012
:104E200077F96423052228009D4910F0C7FB00286C
:104E300006D0F72209209849FEF77AFB0924D2E729
:104E40002B6828001F629A6914A932439A6196233D
:104E50001522DB0010F018FC040003281AD12800EA
:104E60000FF0CCFE2B68069C1F629A6916439E6168
:104E700064200DF04DF9A02000220421C00501F0AE
:104E80006DFA002C0FD0042283492000FF32FEF778
:104E90004FFBA8E70028EBD0BD220A207E49FEF791
:104EA00047FB0A24E4E7784E1523310014AA0220B8
:104EB00001F082FE01F0BEFF0500012001F0B2FF0B
:104EC000152114A802F0BAF80400280001F0AAFF86
:104ED000002C02D010227049D7E731000220714A1D
:104EE00001F03EFE2300002209210320FFF706FC0B
:104EF000C22201216C4B5200995495E609F0FEFC48
:104F000000230E211A0014E0230088331B78012BA4
:104F100003D0664B1B78012B0DD1002201210F20FD
:104F2000FFF75BFB031E02D05B49614A0FE60122DB
:104F30000F2104208BE608F069FBE1E75D4B1B784D
:104F4000012B58D1594B1A78012A09D100225A480D
:104F50001A700BF0DBFD59480BF0F0F800284AD12D
:104F6000574B1A78012ACBD1FE321A7008F0F4FAA6
:104F7000002804D00320534A434901F0F1FD14AD49
:104F8000280008F01BFC061E35D12B78012B23D1FD
:104F90006978AB78039169793B4F029129790220B6
:104FA0000191E978484A0091390001F0D9FD6D7806
:104FB000012DA5D1320029001520FFF70EFB031E9D
:104FC0009ED12A0015210620FFF798FB39003F4AA1
:104FD000022001F0C5FD93E73D4D28000CF07CF860
:104FE00000280FD03B480CF093FC002888D00238F2
:104FF000C0B2032884D92849374A1F20FEF798FAFF
:105000001F2321E5012128000BF0ECFE022800D827
:1050100076E7042800D173E7EDE7002310211A009A
:105020000420FFF76BFBC22301225B00E2542B48F4
:10503000FCF732FA002804D00420294A294901F05B
:105040008FFDC22301225B00E254EDE50022132014
:105050001100FFF7C2FA0028F3D0A1220E49C2E5E1
:10506000002201211520FFF7B8FA021E02D00A49DA
:105070001D4A6CE5030015210620E8E598080000AC
:105080002C8B01083A8B0108D2DA0108988B0108B1
:10509000680B00200044004015850108128C0108AF
:1050A0005CED0108E68B010850030020F7010020A9
:1050B000EF090000F6010020C0020020F8010020E6
:1050C0000C000020488C0108718C0108A58C010897
:1050D000440200201C020020FD090000000D0020F9
:1050E000C48C0108B1800108230A0000172704AB13
:1050F000FF180023C34D04AA3B7013762B78012BB5
:1051000071D16B78012B00D082E0BF4BDB68DB06EE
:1051100014D4A87805F0A4FCBC4A0300BC490320C1
:1051200001F01EFD0022BB4B14211A70BA4B1A70FD
:10513000BA4B1A70BA4B1A7013009DE714AE3000C8
:10514000FCF7CAFA002806D0B649B74AFEF7F0F9CC
:10515000B449B64A51E73288B54BB178534364221B
:105160004A439B18F27830009B180693FEF73AFAF0
:105170006B68069A934203D82AD1AB68984227D22B
:10518000A04EB07805F06CFCB7680690A9493800CD
:10519000FBF770F80800FA218900FAF7E5FFA64945
:1051A00003903800FBF766F80800A249FAF7DCFF25
:1051B000A14902903800FAF7D7FF019073689F4D1C
:1051C00000932A00069B9249022001F0C9FCA9E73E
:1051D000A87805F045FC0300994A8D49022001F0AA
:1051E000BFFCFEF7F5F98C4D2B78012B76D0954B53
:1051F0001B78012B72D1FEF771FF022836D00028F0
:105200002DD08849904AFEF793F986498F4AF4E6F3
:10521000EE68002E1DD080235B029E4200D91E0046
:10522000300009F023FB002803D08F227D491201B2
:105230008CE7EB68A8789B1BEB6005F011FC030082
:10524000E868834A019072490096022001F088FCC8
:1052500068E7A87805F004FC7E4A0300BDE7390042
:105260007D4A7E48FEF758FC0028CED1FEF7FCFEB2
:1052700002280FD0002806D06A49794AFEF758F96B
:105280006849784AB9E6784A78480AA9FEF744FCA2
:105290000028F5D13A7804AB1B7E012A13D0012BEC
:1052A00011D000225B4B14211A7006201300FFF767
:1052B00025FAC22301225B00E25455496C4A0220C0
:1052C00001F04EFCB0E455490A7055490B70012AB3
:1052D00003D0013B5A425341DAB22A700022012125
:1052E0001620FFF77AF9031E03D04E49614AFFF7F3
:1052F0002EFC01221621BFE601200AF06DFB0022E0
:1053000001211720FFF769F9031E03D045495A4AC6
:10531000FFF71DFC01221721AEE64A4B14A8022517
:105320001E78069302F05AFBA843C0B2002803D0AF
:10533000A6223C49120160E6472304AA9B18DF7F9E
:10534000012E0ED0324E4D4A3100280001F008FCEB
:1053500007F040F9011E1BD04948FFF71DFA0590E0
:1053600062E42C4E3378012B0CD1464A28492800A0
:1053700001F0F6FB09F09CFA002802D02949424AC4
:105380003BE6307006F01AFF011E0DD03F48E4E7FF
:1053900031003F4A280001F0E3FB09F089FA0028B8
:1053A0001FD020493B4A28E67B425F411B4EFDB29D
:1053B0003378012B06D11A4B1B78012B18D028000B
:1053C00007F0DAF9164F3878012801D107F026FAEC
:1053D0003378012B05D03B78012B02D0280007F051
:1053E000CBF907F037FA051E5AD00E492A4A04E6CF
:1053F00003202A4A064901F0B3FB3378012BE1D19F
:10540000DDE7C046E802002000280040CF8C0108FC
:10541000D2DA0108F4010020F2010020F10100209D
:10542000F001002015850108D30800002E0A0000B5
:105430001027000060EA000080EE3600178D01089A
:10544000738D0108F30100207E0700003C0A000074
:10545000A58D0108008E01088A8701081C03002021
:10546000970700003D0A00005A870108F802002053
:105470003B8E01084C0A0000540A0000738E01089C
:10548000E58E0108B38E0108670A0000388F010815
:10549000FB8E0108860A0000A50A0000448F01085F
:1054A0000126FEF795F8069B2A001E70CA4B1421B0
:1054B0001D70CA4B06201D70C94B1D702B00FFF7D5
:1054C0001DF9C2235B00E654FFF7AEFB0023192150
:1054D0001A000720FFF7BBFB002201211A20FFF76B
:1054E0007CF8031E03D0BF49BF4AFFF730FB0122FF
:1054F0001A21EEE7002318211A00EAE700231C21F5
:105500001A000820FFF7A3FB00221D201100FFF75F
:1055100064F8021E03D0B349B44AFFF718FB030036
:105520001D21EEE709F09AF90C2302001A401842F7
:1055300000D1FBE0002304AAD37513768208110082
:105540000133C00819401840069107901A4276D0DE
:10555000FEF758FA041E09D114AE3000FCF7BCF86F
:10556000041E08D09F49A24AFDF7E2FF022C59D041
:105570001C2C57D02BE033889E4CB2785C436423BC
:105580005343E418F3783000E418FEF72BF89A4DF3
:1055900003006F68A74245D8A86801D1984241D856
:1055A000AC7896496143FAF7DFFD64235F43EB680B
:1055B000C7199F4236D021003000EF60FEF7D0F9C6
:1055C000041E0DD0012087498D4AFDF7B1FF200050
:1055D00084498C4AFDF7ACFF82498B4AFFF7B7FA42
:1055E000AC688A492000FAF745FE0800FA218900D4
:1055F000FAF7BAFD814903902000FAF73BFE080054
:105600008249FAF7B1FD7D4902902000FAF7ACFD1E
:1056100001906B687E4E009332003B0002207D4972
:1056200001F09EFA079B002B0CD101210A20079A5A
:10563000FEF7D3FF002869D06A49774ACAE7079B7B
:10564000002B5DD0FEF74AFD002806D1172104ABE0
:10565000724A7348C918FEF7F5FA1C2804D8714C31
:105660002300C340DB0702D45E496F4AB2E7FEF76E
:10567000FBFC002804D16D4A6D480AA9FEF7E2FA46
:105680001C2802D8C440E40702D45649694AA1E75D
:10569000172304AA9B181A78504B51491A700AAB69
:1056A0001B780B70012A03D0013B5A425341DAB2F6
:1056B000494B1A70069A002A00D16DE100225E4B18
:1056C0003C201A7009F0D2F8031E04D003205B4A74
:1056D000504901F045FA002201210A20FEF77DFF22
:1056E000002802D03F49564A74E7030001220A21EC
:1056F0000320FFF703F8534A0220464901F030FA2D
:1057000000231E211A000820FFF7F0FB01220A21C6
:105710000320079BFEF7F2FF4B4AEDE7220015211D
:105720000620069BFEF7EAFF484AE5E72A4B1C786D
:10573000012C10D121001520FEF74FFF031E03D0CE
:105740002849434AFFF703FA220015210620FEF7F5
:10575000D5FF404AD0E7384B19780129D0D0012431
:10576000152021001C70FEF738FF031E03D01D49D1
:10577000394AFFF7ECF9220015210620FEF7BEFF9B
:10578000364AB9E700231E211A00BAE60023202179
:105790001A000920FFF75BFA002201212120FEF701
:1057A0001CFF031E03D00F492D4AFFF7D0F9012239
:1057B0002121EEE7204B1A78012A5FD00125002233
:1057C000290015201D70FEF708FF031E4CD0054967
:1057D000244AFFF7BCF9C046F2010020F101002085
:1057E000F001002015850108BC0A0000D70A00005E
:1057F0000F060000102700004003002080EE360056
:105800002C060000520C0000E80A000060EA0000CC
:105810009A8F0108D2DA0108810C00008A870108FA
:105820001C030020050000105B0C00005A870108D3
:10583000F8020020610C0000F4010020E18F010853
:10584000770C0000349001088F900108DD9001086A
:10585000EC0A000029910108F30A00007491010884
:105860000D0B00001B0B00002A0015210620FEF77F
:1058700045FF0220514A524901F072F900232221CA
:105880001A0086E7002201212420FEF7A6FE01224D
:10589000031E12D04B494C4AFFF759F9012220212F
:1058A0004A480DF081FB01200CF032FC002220213F
:1058B00046480DF079FB00231A0024210A20FFF747
:1058C000C6F90AAD280003F06DF8022802D12800BD
:1058D00003F092F80A9A2B79120A1B061343192235
:1058E000013304A95218190A13705170190C1B0EB8
:1058F0009170D370280003F07FF8280003F0A8F817
:1059000014A802F06BF8022802D114A802F098F84B
:1059100014A802F0D1F8002201212620FEF75DFE36
:10592000031E03D027492A4AFFF711F90122262135
:105930000B20FFF78CF9274B1A78012A16D0012586
:105940000022290015201D70FEF747FE031E03D01C
:105950001C49214AFFF7FBF82A0015210620FEF713
:10596000CDFE02201D4A164901F0FAF80023272136
:105970001A00DDE7C22303225B00FFF765FBC223A9
:1059800002225B00FFF760FB01200E49144AFDF77D
:10599000CFFD0123FFF758F81C78012C00D0AFE6AB
:1059A000104B069A210015201A70FEF716FE0028EB
:1059B00000D1B3E603490C4A0CE6C046B791010892
:1059C000D2DA0108158501082A0B000000040050F6
:1059D000490B0000F50100205E0B0000F891010862
:1059E0005E090000F40100208A0C0000F0B5B04C04
:1059F0008FB02678012E08D00220AE49AE4AFDF7BE
:105A000097FD022528000FB0F0BDD6225200A35802
:105A10000133A350D42300225B00E250FEF7E0FFE5
:105A2000051E05D0A349A54A2800FDF781FDE9E739
:105A300008AF3900300003F0FFF8051E51D1BB78E4
:105A40001D1C282B00D92825BB68EDB2002B1DD0CA
:105A5000681F20281AD8FAF769FB1212193E193C60
:105A60003C3C193A3A3A1938381936363619343432
:105A70001911111119191919424240000826012360
:105A80007601A61933720CF03DFBF061C3235B0075
:105A9000E5548823FA78FF33E2547A681133E250F0
:105AA000BA680833E250C822F96852000433E15062
:105AB000A3580133A350043AA3580133A35028003C
:105AC000CDE00726DBE70626D9E70526D7E704263B
:105AD000D5E70326D3E70226D1E70B26CFE70A2630
