:020000040800F2
:1000000000500020D9340108759400087794000846
:1000100000000000000000000000000000000000E0
:10002000000000000000000000000000450A000879
:100030000000000000000000799400087B94000894
:10004000E59500082935010889940008293501083B
:10005000293501087D9500087F95000881950008E5
:1000600029350108293501082935010829350108F4
:1000700029350108293501082935010829350108E4
:10008000293501082935010829350108000000003B
:1000900029350108293501082935010829350108C4
:1000A00029350108293501082935010821B400083E
:1000B00031B4000841B40008293501082935010888
:1000C00010B5064C2378002B07D1054B002B02D02E
:1000D000044800E000BF0123237010BD8000002011
:1000E00000000000AC490108044B10B5002B03D000
:1000F0000349044800E000BF10BDC04600000000F6
:1001000084000020AC490108030C434004485843D4
:10011000044B420B42405343180C58407047C046B2
:100120006BCAEB8535AEB2C24278037812021A432D
:100130008378C0781B0413430006184370470100FE
:1001400000230F2070B50A00DA400240092A11D8B6
:100150000433202BF7D10023012418000F260A2591
:100160000A00DA403240624304336C438018202B8B
:10017000F6D170BD0020FCE7B0235B01C340012134
:100180001800064A08400B4205D01378FF2B01D017
:100190005B18137070471070FCE7C0469C0000208D
:1001A0000300102809DC092801DC002004E0D2202B
:1001B0004002D840012318407047383BFF3BD52010
:1001C000072BF6D9F1E7F0B5FA2504000026002741
:1001D000038887B00193ED00019BAB4249D8A57815
:1001E000691ECBB20B2B1FD8002332484900425A5C
:1001F000B6185F41022D17D9019A920710D16421D8
:10020000019810F033FA89B20123002908D1913105
:100210000198FF3110F02AFA8BB25A425341DBB2F7
:100220001800002136184F41E378234A013B18009B
:10023000D91780197941002310F046FBE12205917E
:100240000490002320791201002110F03DFB049E50
:10025000059F3C2236184F4100236079002110F0A1
:1002600033FB002380197941A2798018594107B0E6
:10027000F0BD03220023154210D16421280010F0A4
:10028000F5F989B20123002908D191312800FF3105
:1002900010F0ECF98BB25A425341DBB26E33FF33AC
:1002A0000293DB1703930135029A039BADB2B61894
:1002B0005F4191E7C449010880510100F8B5C023AE
:1002C000861805000F0001201B019E4212D809F07C
:1002D00067FC00280DD12C007B1B195D0A4BE01830
:1002E0000DF0E6FD002806D00123084A51680B43B3
:1002F00053601E20F8BD0134A642EDD10123034A0C
:1003000051680B435360F5E7000C080800200240D9
:10031000F8B583180D001700012683420BD3C022C5
:100320001201934207D8114BEF19C41809F038FC99
:10033000061E13D01E263000F8BD237829788B4284
:100340000AD020000DF0B4FD002805D00123084A92
:1003500051680B435360EDE701340135AF42ECD1F6
:100360000123034A51680B435360E4E70000080887
:100370000020024030B5C3B06B46DD1D2A0002A943
:1003800004000FF05FFD2A78002A03D1237AA281AE
:10039000013BA37201230020A37343B030BDF8B525
:1003A0000400030001270F4D0F4E1878002800D1DC
:1003B000F8BD2900180013F089FB0028F8D084420A
:1003C00005D0431E1B780D2B01D00A2B06D1437993
:1003D0000D2B03D83200DA403A4201D1431DE4E745
:1003E0000120E5E7D84D010801240000002273B583
:1003F000564C0090636868469A6280235B010193C3
:100400000DF088FF002861D16568AB685B075DD49B
:10041000230054331A78012A58D001221A70236A13
:1004200093423FD1A26D4A4B1A4080235B00134395
:100430002200A36500235432E36513701C332B6044
:10044000AA68183B1343AB60A369082B5AD1216EED
:100450002A681A4265D08023A26D9B001343A365CE
:10046000C023EA681B011A4214D1631DDB7F002BF5
:1004700010D12B681B070DD5AB685B075DD40C2230
:100480006B6893436B60A26D324B1A400433FF33A9
:100490001343A365E369002B01D10C332B602C6C53
:1004A000A4B23BE00322AB681340012B02D12A68BF
:1004B0001A42B7D1AA68284B1A420AD01023A26D5B
:1004C0001343A3650123E26D1343E365234C20002E
:1004D00076BD0126AB6830003343AB6009F00EFBFC
:1004E000226E2B6833429DD1236E9B1A0A2BF8D9BA
:1004F0002B683342F5D11023A26D1343A365E36D3E
:100500003343E2E7EA680C23D207A0D5A26D143387
:100510001343A365002354342370104C0DF0FCFFEB
:10052000D5E7226E521A0A2A00D891E72A681342A8
:1005300000D08DE70423A26DEAE72023A26D1343C8
:10054000A3650123E26D1343E365A3E79C0000204C
:10055000FEF0FFFFFEFEFFFF17000080FFFF000020
:1005600003000448012B03D00348022B00D00348AA
:100570007047C046254F0108118E0108DE4D010865
:10058000C022074B92021B6D0220134080225202B0
:10059000934204D0034A9B185A425341D8B2704741
:1005A000001002400000FEFFF0B5694F91B020221C
:1005B0000021380002AD674E13F05AF838220021AE
:1005C000280013F055F80C21634C644BE2680A4094
:1005D0009B1801221B7E3B770093236D9B05DB0F4D
:1005E0007B705F4B1B681340F3663F2302932368C5
:1005F0005B0303D5A023DB026B6004E08023226849
:100600005B021A42F8D1012322681A4200D0EB6043
:100610006368DB04DB0E2B612368DB05DB0F0193D2
:1006200063681B0E2B62E02367681B021F406F622A
:10063000236D5B0503D5A023DB00AB6004E08023C2
:10064000226D5B001A42F8D10123226D1A4200D0BC
:100650006B610122A368F0211340AB612368890319
:10066000DB01DB0F9B188022AB62E3685202134070
:10067000EB62E3680B40C0212B63E36809040B4085
:100680000C216B63E3680B40042B27D0082B46D06A
:10069000002B2BD1802563682D021B045B0F0133D7
:1006A0009D40E3682F4A1B061B0FD35CB766DD40F5
:1006B0002D4B1D600AF01EF8756730670AF05CF874
:1006C000B0670AF069F8009BF0670520012B03D1A1
:1006D00023689B0525D4062011B0F0BD2568234B67
:1006E000ED06ED171D40224BED18DAE7E3682148CF
:1006F000E1689B021B0FC35C0902E068890F0131AE
:1007000010420AD12268D20605D51B4858430FF083
:1007100027FF0500C5E71648F8E71848F6E7174D24
:10072000BFE7174B64361B797377FFF729FFB07764
:10073000FFF726FF0028CED0019B012BCBD1A023B1
:100740001B029F42C7D1019B00203370C4E7C04603
:10075000000100209C00002000100240C449010854
:1007600000200240F24901080000002000E548FF97
:100770000024F400E949010800093D0000127A0054
:100780001C010020F0B585B002933F4B0090019210
:100790001A783E4ECDB2012A74D001221A7002237B
:1007A0003B4A1370B3689A68CA225A62773A5A620F
:1007B0000CF0AEFE002823D10B9BB468D8B20AF02F
:1007C000F9FA0A9B0390D8B20AF0F4FA6B460700D4
:1007D000187A0AF0EFFA3F02039B000438431843EB
:1007E0002C4B2D4A18402060A3681340A360A368D7
:1007F000A3600CF0B1FE002802D10122244B1A7034
:10080000FF22224C0121A3685A6222002832117073
:1008100022004918293211701022154203D0954345
:100820002A000A32D5B2CA225A62773A5A620CF0CA
:100830006FFE002820D16B4618790AF0BBFA0190B0
:1008400028000AF0B7FA64210500009810F018F8A3
:10085000C8B20AF0AFFA2D02019B000428431843E6
:100860000E4BB768184078600CF076FE002803D174
:100870003300012229331A70FF22A36828345A62F8
:100880000023237005B0F0BD440100201C010020AE
:10089000450100207F7F7F00FFFFFBFF3FFFFF0040
:1008A00070B586B001AE30000CF0E4FD68460CF087
:1008B0000BFE0023154A0021307810F005F80023C4
:1008C00004000D00124A002170780FF0FDFFFA229B
:1008D00024184D4100230021B07892000FF0F4FF5E
:1008E0000C4B24184D41596900290BD0FA20029B6A
:1008F0008000CB1A584301310FF032FE0023020072
:10090000A4185D412000290006B070BD80EE3600BD
:1009100060EA00001C010020284BF7B51D68284B39
:1009200028481F68284B68401B680093FFF7ECFBC2
:10093000244B0400F818FFF7E7FB244A009B06004D
:100940009818FFF7E1FB019020007040FFF7DCFBF7
:10095000019B43401800FFF7D7FB04002818FFF75E
:10096000D3FB02221A4B1B4E5A770123F56AAA6861
:100970001343AB60F36C022B0CD0032B14D000207C
:10098000012B0DD163BA2402240E2B802C70F36A44
:10099000186805E01023DC4180B22C6028802868AC
:1009A00001232C367377FEBD009B2C602860F8185D
:1009B0000019FFF7A9FB2860F1E7C0465000F81FB7
:1009C0005400F81FB979379E6400F81F72F36E3C2B
:1009D000480100201C01002070B5164C402216482A
:1009E000164913F091F8164D236DAB4204D18023C4
:1009F000626D5B029A4210D02000342200215C30EC
:100A000012F036FE80235B02636501232565A36532
:100A10000CF012FD8C34206070BDA36D013B012BE6
:100A2000EAD823008C331E680CF006FD8642E3D121
:100A3000F2E7C0461C0100206C01002000E0010824
:100A4000544255447047024BD868C006C00F7047E7
:100A50000028004010B5262204000021013012F0C9
:100A600007FE0123032223706271A37110BD0300EE
:100A70000548022B06D00548FF2B03D00448012B64
:100A800000D004487047C046E3830108DE4D0108EA
:100A900047880108E64D010803000448052B03D8E8
:100AA000034A9B00D218106C7047C046DE4D010807
:100AB000C4490108021E0BD00179064B40794B4313
:100AC000054941435B189179FA2292004A439818EC
:100AD0007047C04680EE360060EA000070B5041E24
:100AE00028D085781F2306880B2D1DD80122A5212B
:100AF000AA400901013B0A4216D10133022D13D14C
:100B0000033BB20710D1642130000FF0AFFD89B272
:100B10001D23002908D191313000FF310FF0A6FDCF
:100B20008BB25A4253411C33E2780132D2B29A421C
:100B300001D8E27070BD0123ED18EDB2E3700C2D09
:100B400001D8A570F6E70136A3702680F2E7F8B564
:100B500006000D0014000120002A2FD0184B9942E6
:100B60002CD800271749D77130000FF0F9FC642109
:100B7000208030000FF0F4FC64210FF077FD30008E
:100B8000A17064210FF072FD2800E1700E490FF092
:100B9000E7FC0D49207128000FF068FD08000B49A3
:100BA0000FF0DEFC0949607128000FF05FFD0800BE
:100BB000FA2189000FF0D4FCA0713800F8BDC046BE
:100BC000FF5B26051027000080EE360060EA00007B
:100BD000F0B585B00C001F1E019203D1012528003D
:100BE00005B0F0BD0A9B002BF8D002AE3200FFF733
:100BF000AEFF051EF2D1019BE4180B4B9C420CD8B2
:100C000032880A4BB178534364224A439B18F278E6
:100C10009B183B600A9B1C60E1E7054B3000E41821
:100C2000FFF75CFFE9E7C046FF5B260510270000E1
:100C300000A4D9FA10B510220021024812F018FDC4
:100C400010BDC046AC010020002310B51A001800EA
:100C500003210AF08BFF0023032118001A000AF079
:100C600085FF002010BDC222054B52009A5C05484A
:100C7000032A03D8044B92009B18986D7047C04616
:100C8000B0080020DE4D0108C44901080121154BC0
:100C900086B0DA6A0A43DA62DA6A0A400192019A95
:100CA000DA6A49180A43DA62DA6A0A400292029A58
:100CB000DA6A02310A43DA62DA6A0A400392039A74
:100CC000DA6A04310A43DA62DA6A0A400492049A60
:100CD000DA6A78310A43DA62DB6A0B400593059BD6
:100CE00006B070470010024030B587B004000D0018
:100CF0000C22002103A812F0BBFC0323200001A951
:100D00000195029308F064FF07B030BD30B50400D0
:100D10000D0087B0002A0ED0A1610C22002103A88B
:100D200012F0A6FC0123200001A90195029308F00E
:100D30004FFF07B030BDA162EFE7802330B5082434
:100D4000154A9B02916B87B00B43936300212200ED
:100D500003A812F08DFC0C23A020042501A9019307
:100D6000C0050A3B0293059508F032FF0B4B0A20A1
:100D70001A6815431D6008F00DFD0F22084B052071
:100D80001B681A629A69144310229C611A6208F067
:100D900001FD07B030BDC0460010024000440040D5
:100DA0002408002010B5084BDB7F012B0BD1C0219C
:100DB000A020C901C005FFF797FFC021A020C900EE
:100DC000C005FFF791FF10BDA5010020A02010B5C0
:100DD0000A49C005FFF788FF09490A48FFF784FF61
:100DE00009490A48FFF780FF09490A48FFF77CFFD5
:100DF00009490A48FFF778FF10BDC0466198000016
:100E00001FF2000000040050F03D000000080050F8
:100E1000FBFF0000000C0050FFFF0000001C005012
:100E2000802110B500220B484900FFF76FFF0A4BE5
:100E3000DC7F012C0AD1220004210848FFF766FF5D
:100E4000220008210548FFF761FF10BD00220421A0
:100E5000F8E7C046000400509F0100200008005041
:100E60007FB50C22002103A812F002FC1023A02061
:100E70000193842301A99B03C005029308F0A8FEF7
:100E800007B000BDF0B5B9B00692394A05911178A6
:100E90000300384C0220012953D1527800209A4295
:100EA0004FD8FA21344A9B00D218936E89000493DC
:100EB000324B1F6E636BFF1838000FF051FB3C2163
:100EC00006000FF04DFB3C2105000FF049FBFA2115
:100ED0000790890038000FF0C9FB300002913C21D7
:100EE0000FF0C4FB280001913C210FF0BFFB079BD2
:100EF000234A00912348102112F0FCFC224B234A84
:100F00000393069BC0210293059B08A80193049BB1
:100F100000931C4B12F0EEFC02001E20002A10DB96
:100F200048342378BF2A18D92E22AF3004A90918D3
:100F30000A700130164A04A909180A80012B02D050
:100F4000022039B0F0BD6423C022124808A90AF07B
:100F500083F8002809D10020F3E792B2012BEFD1EA
:100F6000002AF8D00B486333F0E70920E9E7C046D0
:100F7000CC0100209C010020C44901089C000020F5
:100F8000ED4D0108D4010020D98D0108034E010860
:100F90000D0A0000140600200CB430B5B3B036AB17
:100FA00004CB04000D0002A8C021019312F02CFD17
:100FB00003001E20002B04DB2900200002AAFFF7FB
:100FC00061FF33B030BC08BC02B0184770B50400F4
:100FD00086B00120002C15D008220021200012F03C
:100FE00047FB01AE0822002104A812F041FB3000AB
:100FF0000CF040FA031E07D00F4A10490520FFF7F6
:10100000CBFF1F2006B070BD68466D460CF05CFA41
:10101000002803D003000A4A0849EFE7FA22EB78D8
:10102000D2009B1823806B783288A370AB78E37072
:10103000B378A280A371E5E7154E0108E3830108A8
:101040002D4E010880218022F0B53E4C8900236D91
:10105000920087B01940134215D13B4B3B4A1B6E9F
:1010600090693B4C1B1AA3420BD91177FFF788FA02
:10107000FFF776FA23000090364A04203649FFF73E
:101080008BFF07B0F0BD9620400008F083FBFFF710
:1010900077FA06008020FF2140020CF0E7FA0028D2
:1010A00037D1FFF76DFA284F05003B6E30000593EE
:1010B000FFF756FA04902800FA25FFF751FA236D3E
:1010C000254EED000193009031000320234A049B3C
:1010D0000295FFF761FF3B6E059A9B1AAB421CD34A
:1010E0008023226D9B011343236580232269022004
:1010F0001343802223611A4B1203196811431960AC
:1011000099680A439A60FA233100164ADB00FFF718
:1011100043FF00220D4B1A77B3E7322008F03AFB69
:101120008022236D92001342D5D190218020490066
:1011300080020CF09BFA31000B4A0420FFF72CFFD1
:10114000E7E7C046001002409C0000201C0200207F
:1011500010270000454E01087F4E0108834E01080C
:1011600000040140D04E0108F94E0108054B10B5AE
:101170001871FFF77CFC0300034A02200349FFF7C4
:101180000BFF10BD00000020294F010800B7010827
:10119000F0B5174A87B00590D27F164E15009446D9
:1011A0006A1E9541144A6D421540706B2D35FF350E
:1011B000002818D0114F396E0A1A954215D9634686
:1011C000401A44190E480F4903930192059B0200EF
:1011D000029503200094FFF7DFFE200008F0DAFA02
:1011E000386E736BC01A07B0F0BD1000FBE7C04645
:1011F000210200201C020020980800009C00002012
:10120000444F010800B70108F0B5184C89B0267D9D
:10121000A769E5690790002E02D13B002B431FD040
:10122000280013490FF022FA0800FA2189000FF074
:1012300097F91049049028000FF018FA08000C499B
:101240000FF08EF90B49039028000FF089F9079BE6
:101250000290094A0320094901970096FFF79CFE76
:1012600000232375A361E36109B0F0BD9C02002057
:1012700060EA000080EE3600A24F010800B70108C6
:10128000F0B58BB0051E0691079203D10124200012
:101290000BB0F0BD08AE3000FFF798FE041EF6D18B
:1012A00033881F4CB2785C4364235343E418F378CB
:1012B0003000E418FFF7FEFB2B00069A194E0C33A2
:1012C0000100009320007243043BFFF781FC041EE1
:1012D000DCD1EF68686228616861134938000FF05B
:1012E000C5F90800FA2189000FF03AF9310004909D
:1012F00038000FF0BBF908000B490FF031F931004D
:10130000039038000FF02CF90290AB68074A019364
:10131000069B074900930420079BFFF73DFEB6E7B5
:101320001027000080EE360060EA0000F94F010847
:1013300000B7010870B51B4B1B4CDB7F012B2BD07A
:101340001A4D1B4E29001B4A0220FFF725FE0022E2
:1013500004213000FFF7DAFC33695B071DD5290053
:101360000520154AFFF718FE08211148FFF7BCFCBD
:101370004022124BD9691142FCD004211A680C4852
:101380008A431A600139FFF7AFFCFA20800008F0A9
:1013900001FA01230434E37770BD29000120084AD3
:1013A000E0E7C046A00100209C0100203A5001085F
:1013B000000800505A5001083F5001080048004002
:1013C000565001088023F0B52E4A2F4D916BDB0259
:1013D0000B4389B00421936328000122FFF796FC98
:1013E0002B692A4E5B0749D531000120284A082481
:1013F000FFF7D2FD012208212348FFF787FC2200D6
:10140000002105A812F034F90323022703A903934E
:101410001D48DB180793049708F0DAFB0A2008F050
:10142000B9F9AC62C82008F0B5F90423194AAC61D7
:1014300011680A200B43136008F0ACF90F22164B19
:1014400005201B681A629A69144310229C611A6273
:1014500008F0A0F90023114C31003800104D114A5A
:10146000E377FFF799FDE07F0335EB7F0E4A0090AD
:101470000E490320FFF790FD09B0F0BD31000520B3
:101480000B4AB4E700100240000800503A5001082F
:101490006B500108004800409C060020A00100207D
:1014A0009C0100206F50010895500108BD500108B3
:1014B0007F5001080C4B70B5DB7F05000B4C022000
:1014C000012B08D1E31CDD77FFF7E0FB002D03D1F2
:1014D000FFF730FF002070BD0434E37F002BF9D00C
:1014E000FFF770FFF6E7C0469D0100209C01002039
:1014F000F0B587B0FFF7CAFB644E654C736ADA0734
:1015000004D58022616B92000A4362639A0708D572
:101510008021226B49010A432263226B0A40009218
:10152000009A5A0704D58022616BD2010A43626394
:101530001A0704D58022A16B92020A43A263DA063D
:1015400004D58022A16BD2020A43A2639A0604D575
:101550008022A16BD2030A43A2635A0604D58022DB
:10156000A16BD2050A43A263DB0503D50123626B9D
:1015700013436363331DDB7F012B0CD10022042155
:101580004448FFF7C3FB08214248FFF7ADFB0321A6
:101590004048FFF7A9FBFFF719FCFFF741FCFFF7F5
:1015A0005FFC8023626BDB0113436363C023DB00BA
:1015B0000193A02002230025042701A90293C0055E
:1015C000013304930597039508F002FB324B0A2080
:1015D0001A68023617431F6008F0DCF80F2208274C
:1015E0002E4B05201B681A629A693A439A611022B1
:1015F0001A6208F0CFF8FFF7A0FB8023A26BDB0391
:10160000134329003A00A36303A812F031F8C02362
:101610001B010193122301A9029321480C3B05935E
:1016200008F0D6FA8023A26BDB05134329003A00A9
:10163000A36303A812F01CF88023A0205B00019391
:10164000EE3B029301A90B3BC005059308F0C0FADD
:10165000802301A99B000F48019308F0B9FAA0204C
:101660002A008021C005FFF751FB2A0020210C48E9
:10167000FFF74CFBFFF796FB0A4A0B490320F5776F
:10168000FFF78AFC280007B0F0BDC0469C0100208F
:1016900000100240000800500038014014060020ED
:1016A00000040050C35001083A500108F0B58BB057
:1016B00005AE1422039104000021300011F0D8FF80
:1016C00000230493FFF7BFF904AF0190002809D16C
:1016D0000520154A1549FFF75FFC039B019A1A7014
:1016E0000BB0F0BD30000BF0C5FE002813D17378AD
:1016F000380002933578B6780BF0E6FE00280AD160
:101700007978BA78FB782370029B6170A270E570DB
:1017100023716671E1E70025FF232E0019001A00EE
:1017200002950195EFE7C0460651010818510108DE
:1017300010B50400142A24D9152212F0E5F92378F3
:10174000682B21D1E378682B1ED16278A3789A4266
:101750001CD1237D162B1BD12100627923791331F3
:101760009B18A2799B18DBB2E21D107801321B187E
:10177000DBB28A42F9D1E27C00209A4203D00520F4
:1017800000E00120404210BD0220FBE70320F9E702
:101790000420F7E7F0B5040085B00830FEF7C4FC7C
:1017A000070020000F30FEF7BFFC444D0600290063
:1017B000434A0220FFF7F0FB29002378414A022028
:1017C000FFF7EAFB290063783F4A0220FFF7E4FBBA
:1017D0002900A3783D4A0220FFF7DEFB2900E378C9
:1017E0003B4A0220FFF7D8FB29002379394A02201F
:1017F000FFF7D2FB29006379374A0220FFF7CCFBC1
:101800002900A379354A0220FFF7C6FB2900E379B6
:10181000334A0220FFF7C0FBE17A237A0291A17AD2
:10182000304A0191617A022000912900FFF7B4FB50
:101830002900237B2C4A0220FFF7AEFB2900637BA3
:101840002A4A0220FFF7A8FB2900A37B284A02208E
:10185000FFF7A2FBA17CE37B0291617C254A019109
:10186000217C022000912900FFF796FB2900E37CF0
:10187000214A0220FFF790FB237D29001F4A022006
:10188000FFF78AFB29001E4A0220FFF785FB38007C
:10189000FEF755FC3B0029001A4A00900220FFF792
:1018A0007BFB3000FEF74BFC330000902900164A0A
:1018B0000220FFF771FB05B0F0BDC04618510108CA
:1018C0001E5101083B5101085051010865510108A2
:1018D0007A5101088F510108A4510108B95101083A
:1018E000CE510108E3510108055201081A520108BE
:1018F0002F52010844520108665201087B52010828
:1019000090520108AD520108CA520108182806D8A1
:10191000002803D0044BC3400120184070474838CA
:1019200043425841C0B2F9E75E110001F0B5461DCF
:10193000F37F9DB01393831DDB7F04001493C31DBD
:10194000DB7F119303000833DD7F20331B78159371
:10195000030029331B78169303002A331B7817934F
:1019600003002B331B7813981893FFF7CFFF012345
:101970001293984201D1139B1293129B1498F37700
:10198000FFF7C4FF0126B04200D1149E0027A31D1B
:10199000DE77119BBB4206D01800FFF7B7FF013777
:1019A000B84200D1119FE31DDF77002D00D06BE01E
:1019B0000023199354226B469B18159A1B78002A12
:1019C00000D00123DBB21A93169B0A20002B00D013
:1019D0001800179A0523002A00D01300FA21642268
:1019E00089005A4341431B938A4205D90A23434342
:1019F000DBB2002B56D01B9321001A9A28310A70B3
:101A0000189A4870013A8B7051424A412B34D2B235
:101A1000944622701399129A8A4213D1149A9642CC
:101A200010D1119A97420DD1199A95420AD1169A5E
:101A3000904207D1179A9A4204D1159A18990A43ED
:101A4000012A1ED964460C93179B0E940B93169B88
:101A5000189C09931A9B0A900893159B04200793DE
:101A6000199B114A0693119B10490393149B0497E9
:101A70000193129B02960093139B0D940595FFF71B
:101A80008BFA00201DB0F0BD2800FFF73FFF0128B2
:101A900003D11995AE4200D38CE72300002208330E
:101AA000DA7785E70123A6E7E752010873530108B7
:101AB00070B504002D220021023011F0D9FDA323BE
:101AC000052520002370333B2A00637010491C3029
:101AD00012F01AF80A21E31CD9773F23201DC27F98
:101AE0009A431B3B1343C37701236219D377A21D8B
:101AF000D377E21DD3772132137053712300957091
:101B0000517004222E3320001A70FFF70FFF70BDB2
:101B10007753010873B50400504D02202900504A44
:101B2000FFF73AFA23784F49A12B03D04E49A32B54
:101B300000D14E494E4A009102202900FFF72CFAAD
:101B4000A61C637829004B4A0220FFF725FA0A22D7
:101B5000310049480AF0ECFF2100102247480C31BF
:101B60000AF0E6FF2100052245481C310AF0E0FF9B
:101B7000E11CC97FF37F434A009102202900FFF74F
:101B80000BFA231DDB7F404AD90901919906890E82
:101B9000009102202900FFF7FFF9631D2900DB7F78
:101BA0003A4A0220FFF7F8F9A31D2900DB7F022043
:101BB000374AFFF7F1F9E31DDB7F3649002B00D1EF
:101BC0003549009102202900344AFFF7E5F9230046
:101BD0000833DB7F3249002B00D132490091324A71
:101BE00029000220FFF7D8F92300283329001B78A9
:101BF0002E4A0220FFF7D0F92300293329001B7851
:101C00002B4A0220FFF7C8F923002A3329001B784A
:101C1000284A0220FFF7C0F923002B3329001B7844
:101C2000254A0220FFF7B8F92449254A8B7C898A86
:101C3000022000912900FFF7AFF9210023002E3187
:101C400009782C331B782D34019121781D4A00919D
:101C500002202900FFF7A0F973BDC04673530108A5
:101C6000AB5301087D5301088953010882530108D1
:101C7000CC530108EB530108055401081554010821
:101C800021540108315401084A54010882540108C2
:101C9000A0540108C07701089EB80108BE5401088D
:101CA000A053010891530108E254010805550108A9
:101CB0001B55010831550108475501080000002057
:101CC0005D5501087455010870B5082403004118DA
:101CD000094D0A481A7812025040220006B240000C
:101CE00080B2002E00DA6840013AD2B2002AF5D163
:101CF00001339942EED170BD21100000FFFF0000BA
:101D0000F0B585B06C4609220021E01D11F0B0FC51
:101D1000144B154E009301232371144B1021DB7FCC
:101D200068466371F31CDB7F3700A371B38C0937FE
:101D30002381F58C0135ADB26581FFF7C5FFA08128
:101D4000F87F502101300EF091FC1022F977080144
:101D50006946FEF7B3FA002802D1F58405B0F0BD5C
:101D60001E20FBE74754534D9C0200209E0200209A
:101D7000F0B50024260095B00A220021394811F060
:101D800077FC102200210CA811F072FC0594049439
:101D900003940094344B3501ED1808AF102229004C
:101DA000380011F0B1FE314A2B68934238D12A79BC
:101DB0000192012A34D16A790692472A30D8AA7949
:101DC0000792482A2CD86A890893AD89019B39006B
:101DD00002927A8110A810223B71BD8111F094FE0D
:101DE0000023102110A8BB85FFF76EFFA84217D172
:101DF000009B002B03D0029B1B1B1B0410D408ACC0
:101E0000210010220CA811F07FFE2389029C05936B
:101E1000174BDE77079B0493069B0393019B00936C
:101E20000136502EB6D1009A124B002A09D1013248
:101E30009A849B18DA77FFF763FF00280FD01E20E3
:101E40000EE00398991CC8770498D91CC8770599A7
:101E50005A1C9984DC840123D377002CEBD000201A
:101E600015B0F0BDBC020020000C08084754534DCB
:101E7000A50200209C020020F0B5394B0600DB7F54
:101E8000384C39498BB0482B00D138490191482151
:101E90003748009103900100364A0120FFF77CF893
:101EA000631CDB7F012B41D104AD182231002800D7
:101EB00011F02AFE0123EA781343EB70A38C2B80E8
:101EC00000231A00AB75A95C01324B40162AFAD1E7
:101ED000AB75E71CFB7FA61CF07F472B2ED818188C
:101EE00048210EF0C3FB1822A0235143DB00C81881
:101EF0002900FEF7E3F900281CD1FB7F0133FB77B3
:101F0000A38C0133A384FFF7FBFE051E12D103341B
:101F1000E37F1549482B00D1144901914821164A05
:101F2000009102200399FFF737F804E0FFF720FF44
:101F30000028B9D01E2528000BB0F0BD1822A02320
:101F40005043DB002900C018FEF7B8F90028F1D192
:101F5000F07F482101300EF089FBF177D0E7C046D1
:101F60009F0200209C020020AB550108A3550108E8
:101F7000D7550108B2550108DD5501081A4B70B557
:101F8000DB7F05000C00194E012B05D0FFF7F0FE9A
:101F9000002801D01E2070BD731C0336F27F012083
:101FA000AA42F8D91B18D87F482140190EF05EFBD1
:101FB0001822A0235143DB00C8189B18CB18984265
:101FC000E8D80B4B2000C91811F09EFD210020001D
:101FD0000023A27D16310478013063408142FAD19A
:101FE0009A42D7D10020D6E79D0200209C02002013
:101FF0000011080803000800991870B501249942DF
:1020000008D3C0252D01A94204D80349002459183A
:1020100011F07AFD200070BD00000808012310B502
:10202000002805D0027A002A02D0FEF7A3F9002387
:10203000180010BDF0B5CDB0040003910120002CB4
:102040003DD0A37B83423CD1237A06AE0193A07A94
:10205000190001300EF00AFB6B4604911B7C320024
:10206000059300230893A389677A01339BB20293F7
:102070001D4B7771069301233371029BF38009ABEB
:1020800023CA23C33A001800039911F03DFD39001B
:1020900009A80C31FFF718FE0199070060680EF0DF
:1020A0005FFA049B0C224343180023683100C518D3
:1020B00028003781FEF72CF9002808D01E204DB0EB
:1020C000F0BD2000FFF7AAFF0028BDD0F6E72800EA
:1020D000627A03990C30FEF71BF90028EED1059BBC
:1020E000A372029BA381EAE74746435300B58DB034
:1020F00001002F22684611F007FD6846FFF716FC25
:1021000069460248FFF796FF0DB000BD08000020A9
:1021100070B5837B04000D001600012B06D1200052
:10212000320029000DF08EFE002070BDFFF776FF13
:102130000028F4D01E20F8E773B56B460500DE1DBD
:10214000320029000948FFF7E3FF041E0BD1337862
:102150002800002B04D1FFF7ABFC0234200076BD31
:10216000FFF7E4FBFAE71E24F8E7C046080000206A
:10217000F0B591B0060001250291002835D0002964
:1021800033D004A8FFF7D8FFFD2305001D401842F7
:102190002AD102AAF03B9B18DF7F154C3800FFF7CD
:1021A000B5FB012817D0134F029B21001B681800B4
:1021B00003930EF05BFA7A1AB94203D3641ABC4255
:1021C00013D2E219029B0399009330683300FEF7A3
:1021D000FFFC050009E07C43002C06D0054B1F00E6
:1021E0009C42E1D86708DFE71E25280011B0F0BD4A
:1021F00080EE3600C0D40100F0B56F4B6F4D5B78B8
:1022000091B0012B05D12B0054335B780F93012B38
:1022100005D06B48FEF7F8FF002011B0F0BDEE6B63
:102220002C6C3300234301D16E6BAC6BEB6DB3426E
:10223000F2D12B6E0E93A342EED90E9B614A1B1B6B
:102240009342E9D8AB69B34202D1EB69A3423CD0D7
:102250002F7D012F3BD920005B490EF007FA0800C3
:10226000FA2189000EF07CF95849079020000EF001
:10227000FDF9080054490EF073F954490690200006
:102280000EF06EF9504905900E9804960EF0EEF996
:102290000800FA2189000EF063F94C4903900E986A
:1022A0000EF0E4F9080048490EF05AF94749029047
:1022B0000E980EF055F9464D01903B002900454A15
:1022C00000960420FEF768FEA6E700230F932F0078
:1022D000603721003000404B404A0097FEF778FC01
:1022E00000289AD139003C48FFF742FF002800D06F
:1022F00093E70F9B012B04D12B7DAE6101332B752E
:10230000EC612E4D0F9B2F6E0D932B7D20000C93B7
:10231000324B2D490B930EF0A9F90800FA218900E0
:102320000EF01EF929490A9020000EF09FF90800CE
:1023300025490EF015F92549099020000EF010F9F5
:1023400021490890380007960EF090F90800FA210C
:1023500089000EF005F91D49069038000EF086F947
:10236000080019490EF0FCF81849059038000EF0E5
:10237000F7F80490EB6D0E98134903930EF076F97D
:102380000800FA2189000EF0EBF8104902900E982F
:102390000EF06CF908000C490EF0E2F80B490190C0
:1023A0000E980EF0DDF8330000900D4A0849032026
:1023B000FEF7F2FD30E7C046C80200209C02002074
:1023C00049570108BFD4010060EA000080EE3600E2
:1023D00000B70108F9550108F8020020C0D4010037
:1023E0007C560108F0B595B0FEF72DFB059001284D
:1023F00011D0394B394CDB78002B04D00420384AFB
:102400003849FEF7C9FD00227C342280E2700224A4
:10241000200015B0F0BD06A8FEF7D8FD041EF7D1C8
:1024200008A8FFF789FEFD2304001C4018424CD188
:10243000E03B02AA9B18DE7F3000FFF767FA012815
:1024400045D10221244BFF311A88244D8A4205D1FF
:102450009A78B24202D1DB78012BD9D02F0031001B
:102460007C3706A8BE700AF03FFA002831D102235B
:10247000FF333B80013BFF3BFB702B000833DE6FDB
:10248000BB783000184905930EF0F0F80800FA21E7
:1024900089000EF065F81549039030000EF0E6F85B
:1024A000080011490EF05CF81049029030000EF05F
:1024B00057F804350190EB6F0D4F00933A00059BE0
:1024C00008490320FEF768FDA2E71E24A0E7059E49
:1024D000B7E7059C9CE7C046180300209C0200203B
:1024E0001F57010800B7010860EA000080EE3600BF
:1024F0005B57010810B58EB002A8FFF71DFEFD2343
:1025000002001E201A4216D1EF3B6B44DC7F2000F4
:10251000FFF7FCF9012800D00124084B21000193AA
:10252000074B08480093084A084B09F0BBFF0028F6
:1025300001D1FFF761FE0EB010BDC0469B570108E8
:10254000B8570108C80200204356525320BF02006A
:1025500000B58FB002A8FFF7EFFDFD2302001E209B
:102560001A420FD1EE3B6B44D97F074B07480193CA
:10257000074B084A0093084B09F094FF002801D14B
:10258000FFF73AFE0FB000BDCE570108F002002061
:10259000EE570108544D474D00530700F0B595B074
:1025A0000F90002802D1012015B0F0BDFFF7A2FF67
:1025B000FD230A901842F7D1FFF7CAFF071E04D087
:1025C0000228F1D10A9B002BEED112AC2000FEF7BD
:1025D000FDFC0028E8D12288864BA1785343642271
:1025E0004A439B18E27820009B180B93FEF762FA8F
:1025F0000A9B0E90002B07D0002F00D1DBE07E4B12
:102600000F9A196ED86DEDE00A9B0C937A4C0B9BD8
:10261000656BA66B9D4203D35CD80E9B9E4259D836
:102620002200236D503201922200200010932300DB
:1026300038320092290032002C3034330AF022F86C
:102640000028B1D10C9B6D4901330C93A36B0D9302
:102650000C9B0D980893109B07930EF007F8080049
:10266000FA2189000DF07CFF654906900D980DF068
:10267000FDFF080061490DF073FF614905900D9859
:102680000DF06EFF0490636B30005C4903930DF016
:10269000EDFF0800FA2189000DF062FF5849029011
:1026A00030000DF0E3FF080054490DF059FF544984
:1026B000019030000DF054FF2B00524A0090524917
:1026C0000420FEF769FC80230C9ADB009A429DD11E
:1026D0001F2069E7002F00D081E00123109300251F
:1026E000454C0B9AE36D0D93236E0C930D9B934217
:1026F00004D362D80C9B0E9A93425ED82600270022
:10270000A36F5C3660371193404A33000E990B98E3
:102710000097FEF75DFA002800D044E7390030004A
:10272000FFF726FD002800D03EE7384B266EA06755
:102730000893119B300031490135079309950DF03D
:1027400095FF0800FA2189000DF00AFF2C49069038
:1027500030000DF08BFF080028490DF001FF2849DB
:10276000059030000DF0FCFE0490E36D0C982349B9
:1027700003930DF07BFF0800FA2189000DF0F0FEB5
:102780001F4902900C980DF071FF08001B490DF0D5
:10279000E7FE1B4901900C980DF0E2FE1A4F0D9BCD
:1027A0000090390004201A4AFEF7F6FB8023DB0074
:1027B0009D4295D18CE7109791E70A9B002B14D08E
:1027C000109B012B00D01AE7E36D656B9D4200D989
:1027D00015E7A66B03D3236E9E4200D30FE73100AB
:1027E00028000F9AFEF7B3F9DEE6FFF705FD002893
:1027F000E6D0D9E6102700009C02002060EA000025
:1028000080EE36000158010800B70108307500005D
:102810008D58010837B56B460400DD1D2A002100E4
:102820000748FFF775FC002807D12B78002B03D150
:102830002000FEF70FF902203EBD1E20FCE7C04637
:10284000180000200021F0B5E1B040AE4022129007
:102850003000179110F00CFFC54C17AF3A003D2126
:10286000200006F0D2FDC34D00280AD000903D2381
:1028700029000420C04AFEF78FFB0024200061B02D
:10288000F0BDF9783B780291B9780220019179780E
:10289000BA4A00912900FEF77FFB3B78F52B05D162
:1028A000FB785F2B02D1BB78002B05D1B44AB1492C
:1028B0000220FEF771FBE0E7102B05D92900042068
:1028C000B04AFEF769FBD8E77A78022011929A00A5
:1028D000D2B213921399AC4A019100932900119B33
:1028E000FEF75AFB2000BB783200119907F086F8FA
:1028F000BB78041E08D0019000932900A34A119BC5
:102900000420FEF749FBB8E7F17802200491B17882
:102910009F4A039171780291317800930191119B44
:102920002900FEF739FB3378FF2B00D0B5E0B278F1
:1029300073781343F278134301D001F07DFC119BAF
:1029400029000220934AFEF727FBBB78012B06D013
:10295000012104200091904A2900FEF71DFB844CC0
:102960008E4A2000119906F059FD002808D08C4AA3
:10297000119B009029000420FEF70EFB1E247DE72A
:10298000F42350AE3370119B05207370854B738018
:1029900006F000FF32003D21200006F03FFD071E3B
:1029A00003D03D23804A0090E4E7F1783378029128
:1029B000B178724A01917178022000912900FEF7E6
:1029C000EBFAFE230193FD3B784A00932900119B0B
:1029D0000220049703970297FEF7DEFAB822744BA1
:1029E00037701B6E139306AB9B181F7034AF3A0001
:1029F000002120000BF0BEFB5E4E031E6D4A08D185
:102A00000121200050AA0BF0B5FB031E129022D02A
:102A1000694A31000420FEF7BFFA0A2006F0BAFE28
:102A2000634B139A1B6E9B1A962252009342DDD37E
:102A300050A9097806AB743A9B181B785F4A00913D
:102A400004202900FEF7A8FA29005D4A119B042002
:102A5000FEF7A2FA92E7942006A940000918097827
:102A600027383B78574A0091FF383100FEF794FA37
:102A700008223B781342D0D03100534A0220FEF79F
:102A80008BFA85211822129B490120000AF07EFC56
:102A900031004E4A119B022013E7012B00D078E150
:102AA0007378D42B01D001F0C7FBB3780E2B01D97A
:102AB00001F0C2FB464ADA40D20701D401F0BCFB68
:102AC0002900444A0220FEF767FA062200211298E4
:102AD00010F0CEFD139940AC23780391E1783E4F7E
:102AE0000291A1780220019161783C4A009139005D
:102AF000FEF752FA6378D42B02D0394A3900CAE77C
:102B0000129AA5789370D5700E2D2CD828000DF050
:102B1000B3FD092D2A082A202A2A2A2A2A2A2A2A03
:102B20002500042518AE33004022280050A906F0E5
:102B30004DF8041E00D0A1E633782AAA1493149904
:102B400020AB50A806F034FE041E4FD0254B1C725B
:102B500094E60123129A06255370E3E70123129AA3
:102B60000F255370DEE72B001F4AC7E70225D9E780
:102B70002803002000B70108225901085159010813
:102B80007C590108A4590108D4590108015A0108C7
:102B9000325A0108705A0108955A0108444A01083E
:102BA000C35A0108014F0000F35A0108275B0108CE
:102BB0009C0000206E5B01089A5B0108505C0108D4
:102BC000885C0108C65B0108F75B01082B5C010803
:102BD0002B400000B25C01080A5D0108DF5C0108BF
:102BE0000E5D0108600A0020395D0108914B34AE8A
:102BF0003380914BB57011931B78904DF070012B81
:102C000024D1A86B002821D03200202106F006FC38
:102C1000002808D020238A4A009039000520FEF7BA
:102C2000BBF91E2492E7F378864F0393B3783900FB
:102C300002937378022001933378834A0093202310
:102C4000FEF7AAF9119B1B78012B01D002247DE726
:102C5000A86B0028FAD029217C4A06F0DFFB002867
:102C600003D029237A4A0090D7E7032303940294E0
:102C700001940093390026330220764AFEF78CF93E
:102C8000119B1C78012CE1D1AD6B002DDED020AB67
:102C90001B78002B00D159E76F4B052034AC3493DF
:102CA00006F078FD3D212800220006F0B7FB6549BB
:102CB000051E03D03D23694A0090AFE7E0782378F2
:102CC0000290A078664A0190607800900220FEF79A
:102CD00063F925700825634E376E584B986B0028B2
:102CE00048D034AC220000210BF044FA002841D136
:102CF00023782B423ED05C4A52490230FEF74CF911
:102D00000123129A50AD13702B78584C13716B78C5
:102D100040AE5371564B32002380524B55491B6EC7
:102D20005548E36023690133236100236380E38016
:102D30002372139B06F007FA3388129AA380129B22
:102D4000280014995B78127809F020FF1298129BE2
:102D500040789B7803901298484A4079394902900C
:102D60001298007901901298C07800900220FEF726
:102D700013F982E50A2006F00DFD9622336E52000B
:102D8000DB1B9342A9D334AB04201B783C4A2D496A
:102D9000B4E7102B00D0D6E373785A1E032A01D96A
:102DA00001F04AFA17AFB978364A01911199022019
:102DB00000912900FEF7F0F8334B204E1879FDF70B
:102DC0006BFE3100983109780300029131006C31BB
:102DD00009780220019131009A3109782B4A00913B
:102DE00099362900FEF7D8F83378002B00D18DE30F
:102DF00040A90B78134D264A102B00D083E3BA78F4
:102E0000C8784E781392049089780193139B0391AC
:102E10000093290003201F4A119B0296FEF7BCF87D
:102E2000701E032800D96CE30DF03AFC36006303F2
:102E3000E101690301D4FFFF500300201C030020BF
:102E4000635D01080A5D01088E5D0108484A0108BA
:102E5000C55D0108EF5D0108F420014F255E010802
:102E6000555E01089C000020805E0108600A002079
:102E700001030000690A00207C0A0020CE5E0108E0
:102E8000A35E0108045F010858030020405F0108A9
:102E90007A5F0108AC5F01081022002150A810F0F1
:102EA000E7FBF04EF04C3079FDF7F6FDEF4D0300F7
:102EB00029000320EE4AFEF76FF823006C331B78DD
:102EC000002B08D03079FDF7E7FD29000300E94A1F
:102ED0000320FEF761F800272300200001252600CB
:102EE000102239006C3354301F7010F0C1FB236F77
:102EF00028005B193C36236735710BF053FB236FB9
:102F0000DD4ADA490320FEF747F823009A331D70A3
:102F10002300DA4E9C33326E3900E46B1A602AA823
:102F2000072210F0A5FB0822390034A8209710F0E2
:102F30009FFBBC4228D002232900200034AA06F0BF
:102F40005DFDB84220D1072234A92AA810F0DCFD8B
:102F5000A37BBB4205D10722E01D2AA910F0D4FDB6
:102F6000A5732AA88579037805954579C44A0495FF
:102F70000579BE490395C578029585780195407815
:102F800000900120FEF708F8FF21200020AA06F09B
:102F90003CFA209DFF212000013520AA209506F053
:102FA0003DFA326E0026D10953034B4029005340AD
:102FB0005A0459404A405B095A40AB4BA94C149201
:102FC0001293300007210DF05BFC9020149A06ABA1
:102FD000F2401B185B5C20A95340032232408A5CFC
:102FE000371953406B227243013653403B72102E07
:102FF000E7D1237A0295A17A9C4F0191617AA14A87
:1030000000918E383900FDF7C7FF12980423212163
:103010009D4AC06B06F032FD00280BD03900052018
:103020009A4AFDF7B9FF00228E4B05241A71984B7E
:103030001A704BE004233900964A009303201D3395
:10304000FDF7AAFF129850AD04232A002121C06B7E
:1030500006F0D4FC002875D000902123390004200C
:103060008D4AFDF799FF02247E4D20002C717E4E83
:103070000BF098FA20000BF06FFA1399119809F0F1
:1030800093FE041ECFD10BF011F9784F834A39001B
:103090000320FDF781FF2879FDF7FEFCE97A0300A4
:1030A0000591A97A03200491697A7D4A0391297ACE
:1030B000029131009C3109689A3601913178009172
:1030C0003900FDF769FF77480DF004FA654E664D4B
:1030D0003079FDF7E1FC2900E9239831097806AA47
:1030E000D2181378049170499A3509786F4F03917B
:1030F00029786F4A02910190390002200094FDF76F
:103100004BFFE92306AAD3181B78012B00D0FFE15F
:10311000002C00D00DE23079022801D0FFF7ADFB82
:103120002B78002B01D1FFF7A8FBF17A337A0291BB
:10313000B17A604A0191717A00913900FDF72CFF54
:10314000FFF79BFB32005049280010F069FC060095
:1031500073427341E97B584A0F91A97B03200E917A
:10316000697B0D91297B0C91E97A0B91A97A0A91DF
:10317000697A0991297A0891E9790791A9790691E3
:103180006979059129790491E9780391A9780291E7
:1031900069780191297800913900FDF7FDFE002E34
:1031A00000D160E7E17D237A0E91A17D434A0D9124
:1031B000617D04200C91217D0B91E17C0A91A17C21
:1031C0000991617C0891217C0791E17B0691A17BAB
:1031D0000591617B0491217B0391E17A0291A17AAF
:1031E0000191617A00913900FDF7D6FE3BE734ACDE
:1031F00010220021200050AE10F03AFA10220021D7
:10320000300010F035FA184B164D14932879FDF75D
:1032100043FC164903002A4A03201291FDF7BCFE25
:10322000164BE87A196E149B264A9A331B78049041
:10323000A87A0390687A0290287A019014989C30BA
:103240000068091A009103201299FDF7A5FE2B7959
:10325000022B3BD005201C4A1299FDF79DFE042449
:1032600034E7C046580300201C0300200A5D010813
:10327000F95F010826600108676001089C000020D2
:1032800092600108C160010860030020F16001083C
:10329000B6030020086101083F610108816201084E
:1032A0009F620108016301088803002000B701083C
:1032B0004466010895660108786101080462010806
:1032C000106301083863010885630108032314981B
:1032D0002B7122002521C06B013306F08FFB071EE6
:1032E00007D000902523E44A12990520FDF754FEEB
:1032F00099E6E17823780291A178E04A019161781A
:10330000032000911299FDF747FE149831004430D4
:1033100009F066FCE97D2B7A0E91A97DD84A0D91C2
:10332000697D03200C91297D0B91E97C0A91A97C90
:103330000991697C0891297C0791E97B0691A97B19
:103340000591697B0491297B0391E97A0291A97A1D
:103350000191697A00911299FDF71EFEE17B2378B5
:103360000E91A17BC74A0D91617B03200C91217BBB
:103370000B91E17A0A91A17A0991617A0891217AF7
:103380000791E1790691A1790591617904912179FB
:103390000391E1780291A1780191617800911299ED
:1033A000FDF7FAFDF17B33780E91B17BB64A0D91B2
:1033B000717B03200C91317B0B91F17A0A91B17AE8
:1033C0000991717A0891317A0791F1790691B17971
:1033D00005917179049131790391F1780291B17875
:1033E0000191717800911299FDF7D6FD3B00E25CE6
:1033F000F15C01334A401743FFB2102BF7D1A34DC4
:10340000002F3ED12B0004263C331E712B00983335
:103410001F706B6FAA1901336B679D4B2000196EEB
:10342000AF66D1671A6E9B4B9B495B6B9B186B66B3
:103430002B0001226C331A7009F0D2FB03200BF031
:10344000B1F830000BF088F81399119809F0ACFC32
:10345000041E00D0E7E50AF029FF2B009A338F4ABB
:103460008F491F7003206B6FFDF796FDA0358D48C7
:103470000DF030F82B68002B00D127E686489847DE
:1034800024E62C00AA6F983401322378AA67804A78
:103490002900106E2A0005263C3108320133DBB2C8
:1034A000D0670E71804A7E4930002370FDF774FDAD
:1034B00030000BF077F804200BF04EF813991198B8
:1034C00009F072FC002800D0ADE50AF0EFFE2B00F9
:1034D000A4331B68002B01D0207898472A000023D2
:1034E0003C3272489A3513712B7001240CF0F2FFB4
:1034F000ECE56F4A29000320FDF74EFDE6E56D4A35
:10350000F8E733006C4A29000420A6E60624DDE52E
:10351000032B0ED13079FDF7BFFA684B39001B78C9
:10352000674A02932B780090019302202300FDF755
:1035300033FD14235B422341DB0701D4FFF79DF9E0
:103540001F24FFF79BF9202B01D000F075FE40AB44
:103550005B78013B022B01D900F06EFE2900432568
:1035600017AB9B7802200093564A119BFDF714FD80
:1035700006ABED1801232B70534B544CDB7F002B13
:1035800001D100F056FEA36A002B01D100F051FEDC
:10359000E36A002B01D100F04CFE1A79303313920C
:1035A0001B78042A01D1002B38D1494A3C490093A9
:1035B0000420139BFDF7F0FC0021A36C2A000133CB
:1035C0000800A36409F05AFD012009F0A3FD287842
:1035D00009F0C2FD0AF036FE022311933D4B2B4D3C
:1035E0001879FDF759FA2B006C331B783A4C01938C
:1035F0000090119B21000220384AFDF7CDFC119B61
:10360000062B01D8FFF739F9082B01D1FFF735F95F
:103610002100334A0520FDF7BFFC91E7022009F0A5
:1036200079FD11900028D9D120AD01002522280074
:1036300010F01EF82A003021A06A05F0E6FE184EB0
:1036400000280BD03023274A009031000520FDF7D9
:10365000A3FC062009F05EFD0723BEE70823312105
:10366000A06A21AA06F0CAF9149000283ED031239E
:103670001D4A0090E9E7C046A1630108D56301082F
:10368000076401086E640108D46401081C0300206B
:103690009C0000209C010020700300203A65010876
:1036A0000A5D01086465010871650108AA650108E1
:1036B000B4650108EB6501081A660108880300205B
:1036C000E466010828670108C90300209C03002064
:1036D000566701085803002000B701082868010850
:1036E000536801087C670108A36701088C21202327
:1036F00006AA52181370E9792B780691A97902204D
:1037000005916979CB4A049129790391E97802916D
:10371000A9780191697800913100FDF73DFC2B7883
:10372000202B07D00323C44A1193536C0127013384
:10373000536448E020AEF3781193002BF2D17378F4
:103740001293013B022BEDD818AF202211993800BB
:10375000B5780FF08DFF119B02200293129BB74AA0
:103760000093B74920230195FDF716FC129B022B0D
:1037700000D13AE1032B00D1FFE1022D0FD02B0045
:10378000103B042BCED82800113850AC032800D9A8
:103790007FE00CF085FFBC00C900080118013379F7
:1037A000012B01D900F04CFD50AE300005F017FEA2
:1037B000002867D005F0D6FD002507009E4A149525
:1037C000136C01331364432406ABE41822001499EC
:1037D00018A809F053FC002800D03DE7380009F094
:1037E00099FC002800D037E7207809F0B5FC0028C4
:1037F00000D031E70AF026FD119B002B00D0EDE64A
:10380000904B119819788C4A1870002900D1E5E680
:10381000D06F002801D005F0BDFFBFF34F8F8A4B5A
:103820008A4ADA60BFF34F8FC046FDE7509B1B0A00
:10383000DAB2874BDB7F012B03D0023B59424B416D
:103840005B00A52183487172B2723100F372FEF7FA
:10385000F1FB071EAED1200027223100503010F0BE
:1038600053F92300012277331A70230078331A703A
:10387000642320A948794343E36718AB1A700A7997
:103880005A709BE7337A002BD0D1119B3B800327E2
:1038900094E7200005F0AEFD00288BD1302233796B
:1038A00006A912937579FF32521852AB2900DB7FBB
:1038B000D27F129805F06BFD002801D100F0C0FC0A
:1038C0002E2306AAFF339B18129A2000DA7797233B
:1038D00006AA5B009B18DD77FEF728F82000FEF7AC
:1038E00005FC0123061E09D15B4D2F222800210073
:1038F00010F00AF901232F352B700023A28CBB7026
:103900003A80300005F02EFD0325070056E7200021
:1039100005F070FD0025A84202D1A38C3B80023542
:1039200005F020FD070049E7200005F063FD0028B1
:1039300000D03FE720AB1D79280005F01DFD0028D1
:1039400001D100F07DFC002D08D0972306AA5B0072
:103950009B18DB7FAB4201D200F072FC502206AB19
:10396000FF329B181D702000FDF7E0FF2000FEF7DE
:10397000BDFB0126051E09D1374B21001C002F225B
:1039800018002F3410F0C0F826702E0050222800A6
:1039900006ABFF329B181B787E703B7005F0E2FC93
:1039A000022507000AE7200005F024FD0025A842B3
:1039B000B6D152ABDB7F06AA3B7097235B009B1806
:1039C000DB7F7B70ABE7200005F014FD002809D1F8
:1039D0005AAB1B7878703B70788005F0C3FC070009
:1039E000139DEBE600231393F7E7681E052800D923
:1039F00098E60CF041FE0303356B8AA9174A164C72
:103A000013780133191CDBB2002B00D10121117096
:103A100005F0B4FB230030331B783B70002801D045
:103A200003231293129B7B70236CBB700023FB70EB
:103A3000D3E7C046CE6701089C0300200868010850
:103A40000A5D01081404002000ED00E00400FA05FE
:103A50001F020020180000201C0400204C0400203D
:103A60000023A34C1A0021000125A2480E7D002E40
:103A700003D02E009E40324392B2013308310B2B0B
:103A8000F4D1002301251900267D002E06D0667D85
:103A9000002E03D02E009E40314389B201330834FA
:103AA0000B2BF1D1030030331B787A703B70036C21
:103AB000F970120A090ABA7039717B713430037CCB
:103AC0000825BB710023FB711F0077E620AB1A7934
:103AD0000A2A00D9B4E33A70854B0232D2009B180F
:103AE00018798449787058799B79B8700020FB70F8
:103AF0008B18DB6B38711A0A7B71BA711A0C1B0EAA
:103B0000FA713B720925070058E620AB1E790A2E90
:103B100000D995E3784A774C13780133191CDBB24E
:103B2000002B00D10121117005F028FB3E700236F8
:103B30003434F600A41923797B706379BB70A379C0
:103B4000FB7000233B71EBE620AB1B79A52B00D06B
:103B500076E3684C5822200000214830644D0FF075
:103B600087FD00226A702A740125644B3D701B6E2C
:103B70001700E2632264A36320E6681E072800D9C9
:103B8000D0E50CF08DFD080014009800BD0059012F
:103B90006D01E201980234A805F02CFC0025A84232
:103BA00000D0BDE63D9B053518933871B8E634A8C2
:103BB00005F020FC002800D0FCE520AB1A7AD107E4
:103BC00004D5BD21187906AC0919C877910704D529
:103BD000BE21587906AC0919C877BF2706A97F18F6
:103BE000510701D59979F97736AE120701D5DB79FE
:103BF000F377DD20DC2406A9091806A80019F37F55
:103C0000FA7F0978007805F0C2FB002800D117E39D
:103C100034A8FDF78BFE34A8FEF768FADB3C051EDE
:103C200038D150A8FEF788FA051E33D12E23DC21A7
:103C300006AAFF339B185218DB7F1278DD209A1AF0
:103C4000531E9A41972306A95B005B18091809784F
:103C5000DB7F5B1A591E8B41D318302206A9FF3235
:103C60005218D47FFA7F34A9A41A621E944152AA32
:103C7000D27F1C19F37F1F4E9B1A5A1E93413000AE
:103C8000E4182F22631E9C410FF03EFF01232F36C4
:103C9000E4B233703D9B189318AB1C71002C07D015
:103CA000002D00D14FE1280005F05CFB070000E08B
:103CB0000027052582E534AC200005F09BFB00259C
:103CC000A84200D02CE6E12306AA9B180A221B7802
:103CD00053431A1CFF2B00D9FF223EAB1B7805254E
:103CE0003B70638D7A707B8000233B7118E6C04681
:103CF000500400201C0400204C0400209C000020E4
:103D000034A805F077FB002800D053E520AC257AD5
:103D10003EAEEB0701D523793370AB070BD5607945
:103D2000002804D00A2109300CF01AFCC0B2E123AB
:103D300006AA9B1818706B0704D5E223A27906A97E
:103D40005B181A70E32206ABD2182D0701D5E37970
:103D50001370337812781343012B00D970E2E123FA
:103D600006AA9B180A221B785343002B00D167E256
:103D700006A9D83252181178002900D160E21A1C25
:103D8000FF2B00D9FF22D2B28A4200D258E234A8D7
:103D9000FEF7ACF90124051E39D150A8FEF7CCF985
:103DA000051E34D15AAB1B78347806AAE41A631E78
:103DB0009C41E1239B18522206A9FF325218127827
:103DC0001B78C94E9B1A5A1E9341A922E418E2237C
:103DD00052005B18521812781B7830009B1A5A1E3A
:103DE00093415422E418E323FF325B1852181278EF
:103DF0001B7834A99B1A5A1E93412F22E418631E84
:103E00009C410FF081FE01232F36E4B233703EABAC
:103E10001B7806AA3B70E1239B180A221B785343A8
:103E20001A1CFF2B00D9FF227A70E22206AB9B18E6
:103E30001B883C717B8031E734AC200005F0CFFA61
:103E400000280BD163793B70A3797B70E379BB7059
:103E5000237A38715A1E9341FB7061E500255FE5B6
:103E600034AD280005F0BBFA002800D0A2E420AB56
:103E70001A7AD10701D519796971910701D5597954
:103E8000A971510701D59979E971120703D5DB7939
:103E90005A1E93412B726B79052B00D9D0E1AB7977
:103EA000012B00D9CCE1EB79032B00D9C8E1290023
:103EB0008E48FEF7BFF82B7A07005A1E9341DBB2FB
:103EC00012936B7901241393AB791493EB791593C7
:103ED000002828D150AE3000FEF79CFC071E22D1EE
:103EE000139B7479149AE41A631E9C41B3792900D8
:103EF0009B1A5A1E9341159AE418F3797C489B1A31
:103F00005A1E9341E418337A7A4E5A1E9341129AFC
:103F100077365340E4182722631E9C410FF0F4FDCE
:103F20000123E4B23370139A18AB1A70149A1C71FF
:103F30005A70159A9A70129ADA70002C00D1B7E66E
:103F4000381E00D0B0E60527B3E66D2206AB9B18FD
:103F50001B78A52B00D073E106AB013A9B181B78A8
:103F6000022B6ED834AD280005F044FA061E00D0AE
:103F700095E00100952006AB40002C22C0180FF000
:103F800077FB5D4B50AC05225C49238057A80FF0AE
:103F9000BBFD56210122FF31AB2006AB5B181A7026
:103FA0000423400006A909180B70638C54499B0B2D
:103FB0009B030B43638402233026FF33A384FF3625
:103FC00006ABF6184F4BF2772385A92305215B003A
:103FD00006AAD21811702000FDF7A8FCA9236C20B6
:103FE00006AA5B00D3181A7806AB1B181B78218D24
:103FF000012B5DD8A08CF67FA884BF2006AC0019E9
:10400000C67752A8C47F36A8C477002B0BD1E22311
:10401000298506A95B181A705423FF335B181A7898
:10402000E3235B181A702800FEF760F8061E36D1ED
:104030002D4C2F22200029000FF066FD01232F3484
:10404000237020AB1B79002B02D00026032B26D136
:10405000912006AB26220021C0180FF009FB902208
:10406000012506AB9B1895211D70032306AA521843
:104070001370962206AB9B181D70023206AB9B187C
:104080001A481D702AA9FDF7D5FF061E07D1194C45
:10409000272217482AA977340FF036FD257020AB68
:1040A0001B7930003B7033005A1E93417B7075E4DE
:1040B000022BB8D1ABE720AB1E79032E00D9BFE0AD
:1040C00000D183E050A805F095F9051E1CD005F03D
:1040D00049F9002407000125002E7AD0002218ABF0
:1040E0001C705D705A807BE41C04002018000020C6
:1040F000EC0300209C030020A3700000775301080C
:104100000A240000010A00004F4A504B1478002C8A
:1041100059D0022E55D02E2106A8FF315A1D09185C
:10412000D27FCC7F991DA41A621E9441972252001F
:104130001218C97FD27F2F00521A511E8A41A4182B
:104140003022FF32D91D1218C97FD27F0833521A8C
:10415000511E8A41A41852AAD27FDB7FD31A5A1E5D
:104160009341E418002EB9D1394A5AA91278097836
:10417000364B891A4A1E91415222180006AFFF326F
:10418000D219293000781278121A501E82418A18EA
:10419000A92118004900C9192A30007809782B3361
:1041A000091A481E814152185421FF31C919097852
:1041B0001B780027CB1A591E8B41D318E418E4B2A0
:1041C0008AE70400D0E70225129F85E700273D001B
:1041D0003C0034AE300005F002F9002804D005F0B0
:1041E000C1F8129D070079E71A4B1B4A1B78002B78
:1041F0001CD050325179737990795B1A591E8B41DA
:10420000B179091A481E8141D0795B18F179127A87
:10421000091A481E81415B18511E8A41317A481E95
:1042200081414A409B18E418E4B257E7129F139D5E
:1042300054E70823FFF7D1F92900084AFEF738FBB5
:104240000823FFF770FAC0464B0400201C0400202E
:1042500044040020130400209C0300206F68010820
:1042600070B543780278040080781B0231498AB027
:104270001343002803D03049012800D02F49667A23
:104280002F4D0896267A2F4A0796E6790696A67944
:1042900005966679049626790396E6780190009152
:1042A000029629000220FCF777FEE37AA27A1B022D
:1042B0001343227BE17D12041A43637B0691A17DA7
:1042C0001B060591217D13430491E17C1E4A039155
:1042D000A17C0291617D0191E17BA07B09020143F8
:1042E000207C00040843617C090601430091022000
:1042F0002900FCF751FE0123A17CE078CC06E40FF5
:1043000006948C06E40F05944C06C9090391010735
:10431000C90F0340029141078007E40FC90FC00F86
:10432000019100902900094A04940220FCF734FE10
:104330000AB070BD9D680108AA680108DE4D010839
:10434000D7550108B1680108F568010856690108E8
:10435000F0B58FB0182205910400002108A80FF0D5
:1043600087F906ABDD1D290009A8FDF79FF92B7819
:1043700008270193012B00D104370F21637BA27B17
:104380001B091B010A4013430293257B7F232E0048
:104390009E433F3B1D4200D01E4320231D4200D0C0
:1043A0001E4320000830FBF7BFFE039020000F30B3
:1043B000FBF7BAFE002308AC04900398A370E770E3
:1043C000FBF7BDFE122306AA9B181880000C58802C
:1043D0000498FBF7B4FE162306AA9B181880000C5D
:1043E00058801F231D401E3B2375029B20006375D0
:1043F000A674E574FFF734FF1822210005980FF02A
:1044000083FB019B012B04D00420034A0349FCF7E2
:10441000C3FD00200FB0F0BDBC69010818510108B0
:10442000F7B505006424104B104E0093104B376E07
:104430000193336EDB1BAB420CD20122019BDA7776
:10444000336EFB1A5B19A34209D2346E3C1B64190C
:10445000002C04D10122009B0133DA77F7BD200044
:1044600005F098F9E5E7C0469C0400209C00002078
:104470009D040020F7B5041E17D000256027244BAB
:10448000C65C244B0193EBB29E420FD800256027F7
:10449000214B0193EBB2B34219D3002560271F4B88
:1044A0000193EBB29E4222D80020FEBD9C23DB008C
:1044B000E05C0C2140190CF0D9F87943601801999F
:1044C0000CF03CF801350028DDD10120EDE79C23FC
:1044D000DB00E05C0C2140190CF0C8F8794360184F
:1044E00001990CF02BF801350028D3D1EDE79C237E
:1044F000DB00E05C0C2140190CF0B8F879430B228A
:10450000601801990FF0BDFA01350028C9D1DCE728
:10451000E20400003DAD0108D84D0108F46901082E
:10452000F8B5040001270E4D0E4E0378002B01D183
:104530001800F8BD29000FF0C9FA0028F9D084420C
:1045400005D0431E1B780D2B01D00A2B06D1837892
:104550000D2B03D83200DA403A42EAD10230E4E7C8
:104560003DAD01080124000070B5050000240529B7
:104570001ED9FFF7D5FF0134002819D12800FBF719
:104580000EFF0400012813D028000A490FF09EFAFC
:1045900000280DD00A2128000FF050FA012400282D
:1045A00006D10D2128000FF049FA431E9841C4B2EC
:1045B000200070BDF469010870B505000C1E01D023
:1045C00000230B602B780220002B09D02800114912
:1045D0000FF07CFA00280ED00B30002C02D10720FF
:1045E00070BD01300378202BFBD0092BF9D00EF0E1
:1045F0009CFF2060F3E72800FBF7D1FE03000620B4
:10460000012BEDD02800FFF78BFF43425841C0003B
:10461000E6E7C046F4690108F0B50124344B354E95
:1046200087B00393F37F0590A34250D1324B334DB3
:104630001B6E334A0293039B0333DB7FA34204D0F8
:10464000304BDB7F012B17D12F4A29000220FCF7CA
:10465000A3FC00270026284B029A04931B6E9B1A8A
:10466000059A9A421ED83B0029000520274A009649
:10467000FCF792FC0C242AE029000220244A254B56
:10468000FCF78AFCF77F012F09D106F059FF0028BB
:1046900005D129003800204AFCF77EFCDAE71F4AE2
:1046A0001649D3E707F02EF80400031E12D10122A9
:1046B000039B02990333DA77049B02201B6E184A8E
:1046C0005B1A019329003B000096FCF765FC200073
:1046D00007B0F0BD01361E2E05D12900114A052074
:1046E000FCF75AFCC6E7C820FFF79AFEB3E7C046BE
:1046F0009C0400209E0400209C000020BD50010866
:10470000006A01081F0200203C6A0108D16A010802
:10471000706A010810270000946A0108A96A01085C
:10472000FC6A01082F6B0108024B80001B18986877
:104730007047C046444A0108F0B5CA4BCA4ADB7FFD
:104740009BB0D17F0C90012B2FD0012933D10222B5
:1047500009920892F332FF32C44D0692C448C54E06
:1047600007900998326E059003930898069B0A9269
:104770000490C14A0291019307990C9B0220009575
:10478000FCF70AFC2800FFF74BFE0A9A336E9B1ACF
:104790000C9A9A4218D8B94A05200799FCF7FCFBF5
:1047A0000122B74BDA771F27B6E10222099296223F
:1047B0000893D200D0E70122099203320892F13225
:1047C000FF3215000692C9E701235B420B930023D9
:1047D0001E000D93AB4B0E93AB4B0F930DE1AB4A09
:1047E000AB49AC48257007F077F9AB4A071E00D0FB
:1047F000CCE01E230AAA9B181A00A848A849657095
:104800000AF0D0FA9A4D071EA64A00D089E0A648C1
:1048100012A9FFF7D1FE07284ED1129C29002300D0
:10482000A24A0238FCF7B8FB0C272000FBF7B8FCC3
:10483000079001284CD0002C00DCC1E10B9BA34267
:1048400000D06CE1FF2E01D00136F6B2089B884DF6
:104850000193290023000420954A0096FCF79CFB55
:1048600001230D93089B0B94B34200D9AEE10023C2
:104870000AAA1384012252422900139216938D4AE8
:1048800023000420FCF788FB8B48854912AA0AF014
:1048900089FA061E00D144E1030029000420874A5A
:1048A0000094FCF779FB3300854A71490094042099
:1048B000FCF772FB0C272FE1002814D0FFF734FF20
:1048C0000300804A29000520FCF766FB00241F270F
:1048D00001226B4B6649DA7705203B007A4A009447
:1048E000FCF75AFB5FE706F061FF784A0790012862
:1048F00033D10E9B0533DB7F012B04D00E9B043399
:10490000DB7F012B38D1C820FFF78AFD1E220AABBE
:1049100062486349D2180AF045FA554D071E04D083
:104920006B4A3B00290005207EE05F4812A9FFF793
:1049300043FE072805D1129C29002300654A03384D
:1049400070E7002804D0FFF7EFFE634A0300B9E7E1
:1049500006F02CFF012806D0604A29000420FCF74D
:104960001BFB3C0060E73F4BDB7F012B04D1474A38
:104970005B495C480BF0EEF81E220AAB5A484849E6
:10498000D2180AF00FFA071E03D0584A3B003849E4
:10499000C9E716AC207013A94348FFF70DFE071EA8
:1049A00049D1200007F0DAFF071E44D12A21012354
:1049B0002F4D0AAA5218137029004D4A0320FCF704
:1049C000EBFA0D9B2B4C0133DBB20A990D93236E4E
:1049D000484A5B1A0193099B2900009302200D9B12
:1049E000FCF7DAFA099B0D9A934200D88AE0069800
:1049F000FFF716FD3C00079B0D9300210AABD983FE
:104A00000F9B1291DD7F012D00D00EE714AC082220
:104A100020000EF02DFE06F075FE071E00D1DEE62A
:104A200003000320344A1249FCF7B6FA1F2F00D1C5
:104A30004CE70024F9E6072F0CD112A91A48FFF71A
:104A4000BBFD129C052023002C4A0949FCF7A4FA5F
:104A50000537EAE63800FFF767FE294A03000449F4
:104A600031E7C046A0040020A1040020C4090000D2
:104A7000BD5001089C000020576B0108EB6B01083A
:104A8000A20400209C0400209E0400204B6C01081E
:104A90005A6C0108646C0108706C01089C6C010878
:104AA000B80B0000A76C010824070020D86C01088F
:104AB00009700108387001088F7001089A700108A8
:104AC0003D7301081A6D0108E06F0108456D01088A
:104AD000826D0108C26D0108036E0108376E01087E
:104AE000686E0108726E01087E6E0108886E01080A
:104AF000CA6E01080A6F0108236C0108436F0108A0
:104B00007C6F0108434B0A9ADF77236E29009B1ABA
:104B10000220414AFCF740FA38001BB0F0BD0126E4
:104B200094E613A806F076FF07280CD13B4816A997
:104B3000FFF742FD3A4A169B009429000420FCF737
:104B40002BFA0C26AFE6002805D0FFF7EDFD230079
:104B5000344A0090F1E7139E29003300324A0320C3
:104B60000094FCF719FA01212A4A304BD1770792B9
:104B7000DA1D0533D177D977002E1DD12C4A2D4966
:104B80002D4806F0A9FF061E0FD129002B4A04204C
:104B9000FCF702FA0122079B2948DA77FFF740FC6D
:104BA00001235B4207960B9325E703002900254A62
:104BB0000420FCF7F1F976E63300234A0094BCE7C1
:104BC000079B1E000D9301235B420B931F4B0C9A16
:104BD000186E0A9BC31A9A4211D80D9A1C49012AD1
:104BE00003D100931B4A230061E601201A4AD077C3
:104BF0001A4A019400970430FCF7CEF9D3E50A9BDA
:104C0000181A0C9BC018069B834200D21800FFF7AD
:104C100007FCF0E6A0040020B86F0108240700207C
:104C2000F1700108447101089D7101089C04002085
:104C30004B6C0108C0A10108E3710108EF71010884
:104C4000C409000047720108BB7201089C000020E3
:104C5000BD500108A0730108A204002007740108D8
:104C600010B5002805DB05300A210BF023FD00B24A
:104C700010BD0538F8E737B500236A460124D38014
:104C8000174BDB7FA34213D1164D174A2900022090
:104C9000FCF782F96B46154815499A1D0AF082F80F
:104CA000041E07D0030029000520124AFCF774F9FE
:104CB00020003EBD21001048FFF77EFC041E09D0F5
:104CC000FFF732FD290003000C4A0520FCF764F9C8
:104CD0001F24EDE729000A4A0220FCF75DF9E7E707
:104CE0009E040020BD50010845740108E3710108CD
:104CF000905F010068740108240700208574010892
:104D00009E740108F0B50126002589B076420400A2
:104D1000039601200295AC423AD029005822200087
:104D20000EF0A6FCFF23A3706B46A3486670991D86
:104D3000DD8006F0A1FEA84206D103A806F06AFEB7
:104D4000A8420DD1039B6370039B002B22DB012B38
:104D500020D001232370994B1B6EE364002017E0E1
:104D60000728F1D1964802A9FFF726FC029D2800EA
:104D7000FBF716FA0128E7D12B00924A924904303A
:104D8000FCF70AF902231F2023708C4B1B6EE3648F
:104D900009B0F0BD6A4600238C48911DD38006F00F
:104DA0006BFE00283CD1864D04A92800FFF704FCC7
:104DB000002835D1280086490EF088FE051E2FD028
:104DC00007352B78202B10D0092B0ED028008149D5
:104DD00006AB05AA0EF0C2FD022821D1069B032BCB
:104DE00000D087E02B00202102E00135E9E7013304
:104DF0001A788A43FBD118000278854277D22C2A90
:104E000073D1451CAB4274D900230A22280007A99C
:104E100007930EF01FFC0323079AE37095426BD1B2
:104E20006A4600236C48911DD38006F025FE0028B9
:104E30001BD1634D069006A92800FFF7BDFB002893
:104E400013D1280065490EF041FE00280DD007302F
:104E50000378202B58D0092B56D0614907AA0EF0B1
:104E60007DFD012801D1079BA3700422E3789343C1
:104E7000012B67D16A4600235A48911DD38006F062
:104E8000FBFD00285ED14E4D207207A92800FFF7D8
:104E900093FB002856D1280053490EF017FE002836
:104EA00050D009300378202B30D0092B2ED025008C
:104EB0002C2108350EF0C2FD002838D001224B4EBF
:104EC00001300378093BDBB2192B23D83100D940DC
:104ED0000B00134011421BD1E71DC25C0D2A1BD9E8
:104EE000222A22D02C2A1CD11FE0013884E72C2A48
:104EF00087D00323E37093E78022520290428FD23F
:104F00000123A080A3718BE70130A1E70130C9E73D
:104F10000130D6E70023DFE7354E012116410E426E
:104F200003D00133FA543F2BD7D10022EA54237A1D
:104F3000002B07D028002F490BF000FB002801D0E0
:104F40000123E3716378FF2B0CD0012B0AD00123DE
:104F500023701A4B58221B6E2100E36426480EF082
:104F6000D3FDFBE6E378032B05D004229343012B0A
:104F700012D00323ECE7A17901290BD1A2880823E1
:104F8000132AE5D01A2A05D81C4BD3400B4201D076
:104F90000923DDE70723DBE7A378012B01D022708B
:104FA000D7E7E379012B01D00523D1E70622227050
:104FB000220048321370CCE78F7001089C0000205B
:104FC00024070020AA740108BD500108C574010817
:104FD000D1740108B3D30108D9740108E57401083C
:104FE000C2BE0108ED740108FA74010801008002D4
:104FF000FEDBFFFF04750108C40400200401000467
:1050000003000448092B03D8034A9B00D218106BF5
:105010007047C0460C750108444A0108F0B5D14BF1
:10502000B1B0DB7F012B01D00AF04CFE74220021CD
:10503000CD48CE4C0EF01CFB0022CD4B01201A7047
:10504000CC4BCD491A6E23000133D877CB4BA262EB
:10505000029002300093CA4ACA4B0190FBF79CFFB2
:10506000582200211AA80EF003FBC04DC64A2900A1
:105070003A310B78C04C0133DBB20B70BD490320D1
:10508000096EE9620121D177C049C14A009121002E
:10509000FBF782FFFA208001FFF7BEFABD4A0690B7
:1050A00000281DD1BC4B0793BC4BD87F079B5E1DCE
:1050B000F0770138431E9841B94B40421840B94B34
:1050C000C018079B0233DF7F012F59D0069BF3776F
:1050D00001230693079B0633DB7F012B68D1B24A7D
:1050E00021000520FBF758FF069B04351F00EB77D6
:1050F00000230693AD4B1AAE1B7830780793FFF769
:105100007FFFF278994CAA4B052A03D8A94B92004D
:105110009B189B6D0699984D05911CA90491B17837
:10512000A54A039102930190079B29000420009750
:10513000FBF732FF8F4BA26A1B6E9B1A9F4AD27FEE
:10514000012A00D0FEE09E4A29000520FBF724FF3B
:105150001F270622631CDA77231DDF770334E27FE3
:105160009349022A03D8934B92009B18196F009120
:10517000944B2900944A01970520FBF70DFF87E027
:10518000924BC018FFF7D8FA00230690F377002857
:10519000A0D18F4B8F4E08938F4B32001800089987
:1051A000099306F099FC031E069008D08B4A01E093
:1051B0008B4A069B21000520FBF7EEFE94E72100B9
:1051C0000220884AFBF7E8FE079D0735EB7F012B9D
:1051D00061D06C4802226C4B644CDA77614B6E4DA7
:1051E000DB7F012B03D11AA903F0C0FB07002000CD
:1051F00058223C301AA90EF087FC221D631CD77779
:10520000002F00D076E70322DA770AAA0435764821
:1052100076491780EF7709F0C5FD574D031E69D019
:1052200029000220724AFBF7B7FE0AF093FD29001D
:105230000220704B704AFBF7AFFE01266D4B0AA9A6
:105240001800079309F02EFC4B4D002865D10AABDE
:105250000193079B29000093684A33000230FBF753
:105260009BFE5822434B1D6EA36A3A34ED1A04ABE1
:105270009B181878FFF7C4FE2378069C01900394CE
:105280001CAC03205E4A3C4902940095FBF784FE67
:10529000380031B0F0BD21005A4A0420FBF77CFEF3
:1052A0002100594A0420FBF777FE3200089909983B
:1052B00009F0CCF932005549554809F0C7F955486D
:1052C000FFF7AEF832005449544809F0BFF93548A9
:1052D000FFF7A6F82100524A0420FBF75DFE069B6B
:1052E0002100EB7704204F4A4F4BFBF755FE4E4809
:1052F00006976FE739004D48FFF75EF9002806D0A2
:10530000FFF712FA29000300494A01208BE7290020
:10531000484A0220FBF740FE87E703232900009359
:1053200002203300444AFBF737FE032E05D1290043
:10533000424A0220FBF730FE93E72C48FFF770F853
:1053400001367BE722003C321278611C082A03D127
:10535000A31CDB8F3A4AF7E6092A75D1A31CDB8F21
:10536000384AF1E69E0400203C0200201C02002086
:105370001C0500209C000020BD500108C02709002A
:105380001475010860EA00001D0200207B75010809
:105390005C750108857501089C0400209F040020AD
:1053A00030F8FFFFC409000099750108560200207B
:1053B0000C750108444A010889780108A2040020FC
:1053C000DE7801081D7C0108237C010814500000D0
:1053D000E5750108DA750108F0750108FD75010829
:1053E000B47501082A76010833770108B80B00006C
:1053F0003F770108C8770108D7770108EC770108E3
:105400003F780108377601087A760108A576010809
:10541000B0760108DC050000BD760108C8760108F9
:10542000D5760108FF7601083075000024070020BA
:1054300066770108A97701080E7801082A78010823
:105440001E7901086F7901080C2F2ED1032A2CD167
:10545000220042321278012A27D0524A10780128BD
:1054600023D0012313700222CA77002203342900BB
:10547000E27704204C4AFBF78FFD4C4C4C4922004C
:105480004C4809F0E3F822004B494C4809F0DEF89B
:105490004B48FEF7C5FF22004A494B4809F0D6F8B1
:1054A000FA20C000FEF7BCFFDAE52200474E383292
:1054B0001178601CB3420BD9200002973930007874
:1054C000434A0190009129000520FBF765FD40E665
:1054D000022936D804270126C7778919E01CC67728
:1054E000C9B20236117038003A4A019300960B0097
:1054F0002900FBF751FD29003800374AFBF74CFD26
:10550000364A3749374806F0E7FA071E00D020E64A
:105510002B48FEF785FFFFF7AEFB071E06D0030002
:105520002900314A0520FBF737FD12E62448FEF733
:1055300077FF0AF0C7FB2D4A29000320FBF72CFD5B
:105540008EE5220039321678002E25D1052103344C
:10555000C1770339E1770124290014700420244A1B
:10556000019300942300FBF717FD2900214A042032
:10557000FBF712FD204A29002000FBF70DFD30004B
:10558000FBF798FFC82004F005F92000FBF792FF15
:105590000AF098FB194ACFE70193194A0B000297CA
:1055A000009690E71C050020C1790108DA75010812
:1055B000E5750108F0750108A5760108B0760108C7
:1055C000DC050000BD760108C8760108BF27090088
:1055D0001C7A01085C7A0108917A0108CC7A0108EA
:1055E000D67A0108E07A0108EC7A0108137B0108F9
:1055F000387B01086D7B01089D7B0108B37B0108A6
:10560000D87B0108F0B5254C1600A5446A46002356
:1056100001245381224A0500D27F0F00A2421BD1F0
:105620009E4200D03370AF212B001E4AC90004A84F
:105630000EF060F90A236B441A001B4904A809F014
:10564000B1FB041E0CD0012F06D000902B000220CD
:10565000164A1749FBF7A0FC2000164B9D44F0BDED
:10566000154803A9FEF7A8FF0400002E00D03070F3
:1056700000280CD0012F08D0FFF756F82B0000901F
:105680000E4A02200A49FBF787FC1F24E4E72B009F
:105690000B4A07490120FBF77FFCDDE774FAFFFFA7
:1056A0009E040020507C0108881300005F7C0108E4
:1056B000BD5001088C05000024070020857C0108EE
:1056C000A77C0108F0B500242600250089B0062338
:1056D0000220284A2849FBF75FFC04940594172709
:1056E00002ABFF1800233A00012128003B70FFF7AE
:1056F00089FF00281CD1059B01330593FAF73CFD77
:105700001E4B681C1B78022B28D801221C4BDA7711
:1057100007280BD1049B1B4A01931749059B029450
:1057200000960220FBF738FC09B0F0BD0500D6E773
:105730001F2806D1FD223B78063B13420CD10136CF
:10574000DCE70300093BDBB2012B01D90C2803D1B4
:10575000049B01330493D1E70134CFE7062700907F
:1057600001970420084A04497F1BFBF715FCE41944
:10577000D0E7C046BE7C0108BD5001089C00002057
:105780009D0400203A7D0108E37C0108F0B5002467
:10579000844B854F9DB002931C707B1DDC77834B3F
:1057A000834E03930123039A3100D377029B814AEE
:1057B0001B6E03203B63804DFBF7EEFBFFF782FF80
:1057C000029B1B78022B0AD97C4A31000420FBF78C
:1057D000E3FB0222FB1CDA770C34250026E0784B31
:1057E000DB7F012B00D0C4E0EA7F032A00D0ABE0CE
:1057F000744A7549754806F06FF90500FAF7BCFC64
:10580000029B1B78022B08D8002D24D02B003100DE
:105810006F4A0420FBF7C0FB75E0310004206D4A9D
:10582000FBF7BAFBFB1C02222C00DA7703225F4B4A
:105830000020DA77FBF73EFE5D49061E00D19EE0B0
:105840000223654A0520FBF7A7FB0223634AD377AF
:1058500030001DB0F0BD0223039AD377029B1B6E6C
:105860000593504B059A1B6E51499B1A5C4A039154
:10587000934205D904205B4AFBF78EFB0C2636E0E9
:1058800006AC5822002120000DF0F2FE2000FFF7A8
:1058900039FA0600031E4DD13800210058223C3051
:1058A0000EF032F92078FFF7ABFBE57803004E4CA1
:1058B000052D03D84D4AA9005218946D04AA927A76
:1058C0000320049204994A4A019100940399FBF73A
:1058D00063FB002D03D004AB5B7A012B2FD0049B1C
:1058E00003200093434A23003149FBF755FB300066
:1058F000FAF742FC002E33D00C2304203E4A2C49F8
:10590000FBF74AFB0C25274B294E1B78022B29D885
:105910003A4A3B493B4806F0DFF80400FAF72CFC12
:10592000002C00D182E723003100374A0420FBF726
:1059300033FB7BE70420354A0399FBF72DFBFA2064
:105940008000FEF76DFD8CE7274B062A03D8274B16
:1059500092009B18DB6F310003202D4AFBF71CFBE4
:105960000025D0E7310004202A4AFBF715FB2A4B1B
:1059700059E73100294A0420FBF70EFB2DE70423E9
:105980000A4AD377029B264A1B6E7B637B1DDC771A
:10599000124BD877234B019400950320FBF7FCFAB8
:1059A00056E7C0469C0000201C0200201E0200207A
:1059B000BD5001088D7D01081D020020E27D010817
:1059C0009E0400204C7E0108A5760108B0760108EF
:1059D000877F0108577E0108CB8001082002002044
:1059E000973A00002F7F01080C750108444A01080E
:1059F000B57E0108E17E0108527F0108F07F0108B1
:105A0000D67A0108E07A010859800108087F010868
:105A1000C07F0108FD7F01081F020020918001085E
:105A2000F9800108A5740108F0B56C4C89B0030039
:105A30006B4A0691009104202100FBF7ADFAFFF7B5
:105A4000A5FE002808D0022321000420654AFBF7A8
:105A5000A3FA00200AF0C2F8634B1D78082D26D067
:105A6000A827092D24D0FBF7E5F800245F4B22007E
:105A7000142106201C70069B5D4D06F077F8C422A9
:105A800001215C4B52009954043A49189954EB7A1D
:105A900004200093584A23005849FBF77DFA200060
:105AA0002C7303F021FCA0425FD01E205DE0302764
:105AB000FBF7C0F80123524C2374A574FAF7C3FF17
:105AC000012867D1FCF716FD022845D1FCF740FDFF
:105AD00002284CD101234B4A637452784A4B012A65
