:020000040800F2
:100000000050002009090108B5060108B7060108DB
:1000100000000000000000000000000000000000E0
:10002000000000000000000000000000B906010808
:100030000000000000000000BB060108BD0601082A
:100040001908010859090108C506010859090108DC
:1000500059090108A9070108AB070108AD07010804
:1000600059090108590901085909010859090108E4
:1000700059090108610701085909010859090108CE
:10008000590901085909010859090108000000002F
:1000900059090108590901085909010859090108B4
:1000A000590901085909010859090108E907010816
:1000B000F907010809080108590901085909010847
:1000C00010B5064C2378002B07D1054B002B02D02E
:1000D000044800E000BF0123237010BD9000002001
:1000E0000000000094570108044B10B5002B03D00A
:1000F0000349044800E000BF10BDC04600000000F6
:10010000940000209457010802780B78002A03D04D
:10011000013001319A42F7D0D01A70470023C25CF7
:100120000133002AFBD1581E7047000002B471460B
:1001300049084900095649008E4402BC7047C04630
:1001400002B4714649084900095C49008E4402BC6A
:100150007047C04603B47146490840004900095E33
:1001600049008E4403BC704703B4714649084000FF
:100170004900095A49008E4403BC704700224308D5
:100180008B4274D303098B425FD3030A8B4244D35F
:10019000030B8B4228D3030C8B420DD3FF220902A1
:1001A00012BA030C8B4202D31212090265D0030B60
:1001B0008B4219D300E0090AC30B8B4201D3CB0356
:1001C000C01A5241830B8B4201D38B03C01A524198
:1001D000430B8B4201D34B03C01A5241030B8B429A
:1001E00001D30B03C01A5241C30A8B4201D3CB0285
:1001F000C01A5241830A8B4201D38B02C01A52416A
:10020000430A8B4201D34B02C01A5241030A8B426C
:1002100001D30B02C01A5241CDD2C3098B4201D384
:10022000CB01C01A524183098B4201D38B01C01A02
:10023000524143098B4201D34B01C01A5241030979
:100240008B4201D30B01C01A5241C3088B4201D328
:10025000CB00C01A524183088B4201D38B00C01AD5
:10026000524143088B4201D34B00C01A5241411AFC
:1002700000D20146524110467047FFE701B5002009
:1002800000F0F0F802BDC0460029F7D076E77047CD
:1002900003460B437FD4002243088B4274D30309E7
:1002A0008B425FD3030A8B4244D3030B8B4228D388
:1002B000030C8B420DD3FF22090212BA030C8B42AE
:1002C00002D31212090265D0030B8B4219D300E04E
:1002D000090AC30B8B4201D3CB03C01A5241830BD3
:1002E0008B4201D38B03C01A5241430B8B4201D383
:1002F0004B03C01A5241030B8B4201D30B03C01AAC
:100300005241C30A8B4201D3CB02C01A5241830A25
:100310008B4201D38B02C01A5241430A8B4201D354
:100320004B02C01A5241030A8B4201D30B02C01A7E
:100330005241CDD2C3098B4201D3CB01C01A5241E5
:1003400083098B4201D38B01C01A524143098B426E
:1003500001D34B01C01A524103098B4201D30B0157
:10036000C01A5241C3088B4201D3CB00C01A52417C
:1003700083088B4201D38B00C01A524143088B4241
:1003800001D34B00C01A5241411A00D201465241DA
:10039000104670475DE0CA0F00D04942031000D3F9
:1003A0004042534000229C4603098B422DD3030A4E
:1003B0008B4212D3FC22890112BA030A8B420CD35E
:1003C000890192118B4208D3890192118B4204D387
:1003D00089013AD0921100E08909C3098B4201D307
:1003E000CB01C01A524183098B4201D38B01C01A41
:1003F000524143098B4201D34B01C01A52410309B8
:100400008B4201D30B01C01A5241C3088B4201D366
:10041000CB00C01A524183088B4201D38B00C01A13
:100420005241D9D243088B4201D34B00C01A5241EA
:10043000411A00D20146634652415B10104601D377
:100440004042002B00D54942704763465B1000D301
:10045000404201B5002000F005F802BD0029F8D0A7
:1004600016E770477047C046002B11D1002A0FD104
:10047000002900D1002802D00021C943080007B498
:10048000024802A14018029003BDC046D9FFFFFFF9
:1004900003B4684601B5029800F034F8019B9E460B
:1004A00002B00CBC7047C046F0B5CE469946030C6E
:1004B0009C46130447461B0C1D000E0061460404B5
:1004C000240C80B50700100C4B4365434143604347
:1004D0002C0CC01824188C46A34203D980235B023D
:1004E0009846C444494679435643230C2D042D0CA9
:1004F0008919634424046019C918C0BCB946B046C0
:10050000F0BDC046F0B557464E464546DE46E0B51E
:1005100004000D009246994683B08B4230D82DD00E
:100520004946504600F038FE29000600200000F041
:1005300033FE331A9846203B34D49B4653465A46E2
:10054000934042461F00534693401E00AF423BD8A3
:10055000AF4200D179E05B46A41BBD41002B00DA1D
:1005600076E0002200230092019301235A46934033
:100570000193012342469340009329E08242CFD960
:1005800000220023009201930C9B002B01D01C60E1
:100590005D600098019903B0F0BCBB46B246A94625
:1005A000A046F0BD42469B4620239B1A5246DA40A5
:1005B000414613004A468A40170042461F435346AD
:1005C00093401E00AF42C3D9002200230092019342
:1005D0004346002BD8D0FB0772081A4346467B08D7
:1005E0000EE0AB4201D1A2420CD8A41A9D410120D9
:1005F00024196D410021013E24184D41002E06D0E2
:10060000AB42EED9013E24196D41002EF8D100987D
:1006100001995B4600196941002B24DB2B005A46E7
:100620004646D3402A001C00F2405B461500002BD2
:100630002ADB26009E40330026004746BE4032009B
:10064000801A9941009001919EE7A342BCD882E7AD
:100650004246202300219B1A002200910192012290
:10066000DA40019285E7424620239B1A2A0046463B
:100670009A402300F340464613432A001C00F240F0
:100680005B461500002BD4DA202342462F009B1B2B
:1006900097402600DE403B003343CDE7F0B54646A9
:1006A0004F46D6464502C0B5C30F470098460E1CBC
:1006B0006D0A3F0E5BD0FF2F21D08023ED00DB04BD
:1006C0001D43002399469A467F3F74027300640AD3
:1006D0001B0EF60F002B20D0FF2B43D080220020D2
:1006E000E400D20414437F3B4246FF1A4B4672405B
:1006F0000F2B00D99DE071499B00CB589F46002DE0
:100700005AD108239946063B74029A467300FF2784
:10071000640A1B0EF60F002BDED1002C3BD1012307
:1007200042464946724019430E2918D86448890048
:1007300041588F465346022B00D1B8E0032B6ED0B0
:1007400042462C00012B40D100200024C00520434C
:10075000D2071043E0BCBA46B146A846F0BDFF2020
:100760000024F3E7002C20D10223FF3FD8E7002D1F
:1007700005D104239946033B00279A46A5E72800A4
:1007800000F0ECFC7627431F9D4000237F429946F2
:100790009A463F1A99E7200000F0E0FC431F9C4076
:1007A00076235B421B1A00209EE703234A461A4326
:1007B00091460320FC3397E70C239946093BFF271A
:1007C0009A4682E703282CD0320038007F30002878
:1007D00047DD630704D00F232340042B00D00434EB
:1007E000230103D53800374B80301C40FE28B6DC8F
:1007F000A401640AC0B2A9E780240022FF20E40318
:10080000A4E78023DB031D4201D01C420BD08024CF
:10081000E4032C4364024246FF20640A96E74646FE
:100820002C008023DB031C4364023200FF20640A97
:100830008CE76D01600185422DD21B230024013F0E
:100840000126290064006D00002901DB854201D3E7
:100850002D1A3443013B002BF3D16B1E9D412C43D9
:10086000B3E701231B1A1B2B00DD6DE721009E3728
:10087000D940BC400B00611E8C412343590704D072
:100880000F211940042900D00433590113D49B01CE
:1008900000205C0A5AE71A2301242D1AD0E7981E7B
:1008A00043425841404232000024C0B24EE7424623
:1008B000FF2000244AE70120002447E7B857010839
:1008C000F8570108FFFFFFF7F0B54F464646D646FA
:1008D0004502C0B546000F1C6D0A360EC40F002E2F
:1008E00000D1CDE0FF2E72D08023ED00DB041D434C
:1008F000002399469A467F3E7B025B0A98467B001E
:100900001B0EFF0F002B72D0FF2B00D1A9E07F3B05
:10091000F6184B460A2B00DD85E043468022DB00BB
:10092000D2041A434B4690467C400022022B0FDD36
:10093000494601238B40A621C9000B4200D072E03A
:10094000902189000B4200D0DAE08821194267D15A
:10095000280C42462D042D0C4346290012041B0C82
:10096000120C51435D4342435843AD180B0C5B19C5
:100970009A4203D9802252029446604409041A0420
:10098000090C52189501691E8D411B0C920E1B1803
:1009900015439B011D431B0100D5CFE030007F3084
:1009A000002800DCB1E06B070BD00F2332002B4096
:1009B000042B06D004352B0103D5803210006A4B7E
:1009C0001D40FE2864DCAB015B0AC0B21FE0002DB5
:1009D00000D08FE008239946063B9A467B025B0ACB
:1009E00098467B00FF261B0EFF0F002B8CD1434641
:1009F000002B5CD14A4601331A43914613000A2A60
:100A000011DC01227C40022B92DC00200023C00577
:100A10001843E4072043E0BCBA46B146A846F0BDFF
:100A20003C00454692465346022B31D0032B11D051
:100A3000012BEAD030008030721C002866DD6B0785
:100A4000B9D00F232B40042BB4D1B4E70F2A7AD0AE
:100A50003C0045468023DB032B435B02FF205B0AFF
:100A6000D5E74346FF36002B34D14A4602331343C1
:100A70000A2BD8DC7C40002A0AD09946022257E78C
:100A8000002D08D104239946033B00269A4633E7FC
:100A9000FF200023BBE7280000F060FB7626431F01
:100AA0009D400023764299469A46361A24E74046EE
:100AB00000F054FB4B46361A763E0A2BB3DC434615
:100AC0000538834098464B4600227C40022B00DDCF
:100AD0002EE73DE703234A461A4313000A2AB5DCF2
:100AE00001229A40882113007C400322194200D140
:100AF0002EE795E70C239946093BFF269A46FBE62D
:100B000080230024FF20DB0381E7320001231B1A2E
:100B10001B2B00DD79E79E3229009540D9406A1EE3
:100B200095410D436B0704D00F232B40042B00D0BD
:100B300004356B0113D50120002368E701236A08FF
:100B40001D40154376E78023DB031D4282D04246D9
:100B50001A4200D07EE73C00FF20134357E7AB0169
:100B600000205B0A53E7C046FFFFFFF7F8B5474692
:100B7000CE464B02460080B5C40F4702580A844651
:100B800048007A0A360EBF09000ECD0F9B09FF28D8
:100B90006DD001214D40311AAC423AD0002900DC21
:100BA0009CE1002800D19EE0FF2E00D188E0802249
:100BB000D20413431B2900DCF6E0013F7A0100D484
:100BC00079E001277F42BF01BB099846404600F00B
:100BD000C5FA434605388340864200DCCCE0B44F7A
:100BE000311A1F405A0768D00F221340042B64D0DB
:100BF00004377B0161D5481CFE2900D081E0FF202D
:100C00000023C0051843E4072043C0BCB946B046E2
:100C1000F8BD002900DC79E1002876D1002B4CD00A
:100C2000481E012900D147E1FF2949D01B2871DC6A
:100C300001001A002020CA40411A8B40591E8B41E6
:100C40001343FF188023DB041F4200D1B8E0711C5E
:100C5000FE2ED4D0012297483A407F080740174320
:100C60007A0700D096E01F42C5D1FA0855E031005E
:100C7000FF398946002B2CD101214D40AC4200D1D7
:100C8000B4E0494600294CD0002E00D0F9E0FF2105
:100C9000002F00D108E14A1E012900D156E1FF29A9
:100CA00000D142E11B2A00DC24E15F1E2C0006007B
:100CB0007A0100D585E731000437FA08FF292CD1E5
:100CC000002A9CD08023DB0313435B02FF205B0AD6
:100CD00097E7AC4200D1A7E0002922D0002ED6D061
:100CE00062462C00EEE7002BE7D0481E012936D0E3
:100CF000FF29E5D001005DE701203B007A0100D427
:100D000057E1C0B2BB015B0A7BE7FF2ED8D01B299D
:100D100000DC9FE031000537FA0853025B0AC8B2D5
:100D20006FE7FE20711C084254D1002E00D0B1E0C4
:100D3000002F00D102E1002B00D1F9E08021FA1A46
:100D4000C9040A4200D13BE10124DF1B2C40002FE3
:100D500049D001200F42D5D10021FA08DDE7FF1A62
:100D60007B0100D4DEE0BD01AD09280000F0F6F9FA
:100D70002B000538834001262022811B0131521AA5
:100D80001F009340CF405A1E93411F432BD0002198
:100D90007B07B1D00F233B40042B00D028E77B0119
:100DA00000D528E7FA08B8E71A002020CA40411AFF
:100DB0008B40591E8B411343FF1A7B0100D502E77C
:100DC0007B0700D10DE10F2331003B40042B00D005
:100DD0000EE772E7FA1A9046520156D44346002BAA
:100DE00000D0F3E60024002000230AE7494600294A
:100DF0001CD0002E00D002E7FF21002F55D04A1E44
:100E0000012959D0FF2900D190E01B2A00DD91E093
:100E100011003A002025CA40691A8F40791E8F417F
:100E200017430600FF180DE7002926D1FE20711C8C
:100E3000084213D1002E00D096E0002F00D1B4E07C
:100E4000002B75D0FB185A0100D4B2E09B015B0A5D
:100E5000FD38D6E68022D2041343EAE6FF2900D10A
:100E6000CDE6FA185208530705D00F23171D13407B
:100E7000042B00D021E7D2084FE7002EBCD06246F9
:100E800020E72C00FF200023BBE60124DB1B984653
:100E90002C409BE6002F75D1002B00D096E08023DC
:100EA0000024FF20DB03ACE62C001F0005E7C04652
:100EB000FFFFFFFBFFFFFF7DFB185A0100D48DE011
:100EC0004A4A5B081A40590700D18CE00F210B40B9
:100ED0000D39042BCFD00221171DEEE6002900D1D9
:100EE0001FE7821B1100002E00D1D1E68021C9042A
:100EF0000F43D7E639002024D140A21A97407A1E2A
:100F000097410F432C000600DF1B56E700298DD0C8
:100F1000811B002E00D170E71B290BDC8022D2043C
:100F2000174376E70121FA08F7E62C006246C7E688
:100F30000021F2E605330100DA08EEE6002B00D1CD
:100F400050E70124002162462C40E6E6DA1B5301FB
:100F500032D592019409200000F000F923000538F1
:100F600083402C00012607E7002FDFD0002B17D08D
:100F70008023DB039A4200D2A4E69C4500D3A1E67D
:100F800062469FE6002B0BD08023DB039A4200D2FF
:100F900098E69C4500D395E6012462462C4091E6F4
:100FA0008023DB03FF2013432BE60020002B00D11E
:100FB00027E60021DA08B0E62C000121D208ACE6D1
:100FC000002A00D10EE70021D208A6E6802362465F
:100FD0000124DB03FF2013432C4012E60121DA0831
:100FE0009BE6310069E60221D20896E6FFFFFF7D0D
:100FF00041024200C30F490A0020120E7E2A03DD7F
:101000009D2A02DD094A9818704780200004014398
:10101000952A07DC9620821AD1404842002BF3D152
:101020000800F1E7963A9140F7E7C046FFFFFF7FDF
:1010300070B5002812D0C317C5185D40C40F280032
:1010400000F08CF89E231B1A962B0FDC082838D052
:10105000083885406D026D0AD8B202E000240020F5
:101060000025C0052843E407204370BD992B14DCFC
:10107000421F95402A001549114055071CD00F25E5
:101080002A40042A18D00431CA08490115D59F23E3
:101090005202181A550AC0B2E3E7020029001B32B7
:1010A00091404A1E91410522121AD5402A000A4356
:1010B000064911405507E2D1CA085202550AD8B272
:1010C000CFE76D026D0A8E30CBE7C046FFFFFFFB16
:1010D00010B5041E0DD000F041F89E231B1A962B6C
:1010E0000CDC082834D0083884406402640AD8B282
:1010F00001E000200024C005204310BD992B13DC23
:10110000421F9440144A224061071CD00F21214005
:10111000042918D00432D408520115D59F23640243
:10112000181A640AC0B2E6E7020021001B3291409F
:101130000A00511E8A410521091ACC401443064A6F
:1011400022406107E2D1D4086402640AD8B2D2E72F
:101150006402640A8E30CEE7FFFFFFFB1C210123EF
:101160001B04984201D3000C10391B0A984201D38A
:10117000000A08391B09984201D30009043902A268
:10118000105C40187047C0460403020201010101CF
:10119000000000000000000010B5002903D1FFF797
:1011A000DDFF203002E00800FFF7D8FF10BDC04689
:1011B0001FB56B4649BA99816423E021009303AAC5
:1011C000623B10F045FD05B000BD000037B50022C0
:1011D000124C0090236869469A62802320005B01CC
:1011E00001930FF0B9FE002802D00D4D28003EBD3E
:1011F00020000FF0FBFD0028F7D10A2120000FF09E
:1012000041FE002807D120000FF0A2FE85B2200089
:101210000FF018FEEAE7024DF9E7C046840D002002
:10122000FFFF000010B5010000780822C043312400
:10123000C0B243B24000C0B2002B02DA5B00634090
:10124000D8B2013AD2B2002AF3D14B780822312128
:10125000584043B24000C0B2002B02DA5B004B4062
:10126000D8B2013AD2B2002AF3D110BDF0B587B09E
:101270000190029103920493002B1CD08023002440
:10128000244DDB032A68032013432B600FF0B0FBCF
:10129000082726002048FFF799FF05901F48FFF711
:1012A00095FF059B1E4A013B9BB2934206D92B68D2
:1012B0001C4A13402B60012007B0F0BD1A4B984226
:1012C000F5D0059B013FE4183618002FE2D1174BEB
:1012D00017481B88E40858432100FEF74FFFF60823
:1012E000070014497043FEF749FF049B4000186053
:1012F000039B002B00D01F60019B002B00D01C60C3
:10130000029B002B00D01E602B68064A0020134071
:101310002B60D1E7082701400000024402000004CE
:10132000FDFF0000FFFFBFFFFFFF00007800F81F78
:10133000B80B0000FF0F000030B50D0004008BB0AB
:10134000684605F08FFB2A002100684605F0AFFCD7
:10135000684605F0B5FC0BB030BD000010B504497F
:10136000FFF726FF040001200FF042FB200010BD14
:101370001735000010B50249FFF71AFF10BDC0462F
:1013800098B0000010B50449FFF712FF04000120D7
:101390000FF02EFB200010BD5D800000F0B585B081
:1013A00005000F00FFF7DAFF041E19D128000F49CE
:1013B000FFF7FEFE041E13D1642303AE0093320038
:1013C000E0212800613B10F0E7FC041E08D130004A
:1013D000FFF728FFB378834205D133885BBA3B809F
:1013E000200005B0F0BD0124FAE7C046C8EF0000B8
:1013F000F0B587B005000F00FFF7B0FF041E46D11F
:1014000028002549FFF7D4FE041E40D10F200FF01D
:10141000EFFA642304AE00933200E02128005E3B23
:1014200010F0BAFC041E32D13000FFF7FBFEB37897
:1014300083422FD10B2302AA9B181800FFF7F2FE5C
:101440007379834226D102ABDA7A1B7B30881B0288
:1014500013435BBA40BA9BB280B20393FFF738FEE6
:101460000E49FFF71BF90E49FFF72EFA0D49FFF75A
:101470007DFB38600398FFF72BFE0849FFF70EF954
:101480000949FFF721FA78602800FFF773FF200071
:1014900007B0F0BD0124FAE76678000000FF7F473F
:1014A00000002F43000034420000C84273B56B4671
:1014B0009E1D002305003380FFF750FF041E16D148
:1014C0002800FFF75FFF041E11D101200FF090FAF2
:1014D00031002800FFF762FF041E08D13388064957
:1014E000064A0B40934204D12800FFF743FF200037
:1014F00076BD0124FBE7C0463F0800000708000056
:10150000030C434004485843044B420B42405343AE
:10151000180C58407047C0466BCAEB8535AEB2C256
:1015200070B52D4C8EB020220021200013F038F829
:1015300038220021684613F033F80C21274E284A40
:10154000F36868460B40D35C01222377336D9B051B
:10155000DB0F6370234B1B681340A36011F054FB37
:101560000FF084F9099B636010F08EFFE06011F0CA
:1015700025FB206111F028FB606111F035FB237F12
:10158000A061012B07D005203D22174901F0DAFFA9
:1015900005200EB070BD33689B0506D43E2212496B
:1015A000062001F0CFFF0620F3E76378012B02D07D
:1015B00040220D49F4E7079B012B02D041220A4942
:1015C000EEE7A02209991202914202D04222064976
:1015D000E6E700202370DCE7B000002000100240A6
:1015E00087C70108002002403458010810B594B0A4
:1015F0003422002107A801AC12F0D2FF00211422EE
:10160000200012F0CDFF102306930F3B0D93A02373
:1016100006A81B020F9310F079FF011E07D05B2272
:101620000A49062001F08EFF062014B010BD0F23DA
:101630006060A060E06020612000019311F0F0F98B
:101640000028F2D062220149EBE7C0463458010875
:10165000014B18787047C046B00000200048704722
:10166000B0000020121A8B411000191E03DA00236B
:10167000014A801859417047005C260510B50FF0EB
:10168000B1F9024B1B68C01810BDC046AC00002069
:10169000F0B500260F008BB0039304AB01900292CB
:1016A00000211122D81D12F07BFF039B05AD2B708A
:1016B000109B04AC6B70119B0198AB70029B267061
:1016C000A37067706421FEF7C9FE074BE170290023
:1016D0001D003200180011F0F1FC3200210028003A
:1016E00011F054FD0BB0F0BDE00D0020F0B504008A
:1016F00087B0002807D101209C221D4901F022FF5C
:10170000012007B0F0BD0822002101AD12F048FF12
:1017100014220021280012F043FF0022154F290057
:101720003800009211F062FE6E46031E06D0124A87
:101730001249042004F01EFC1F20E2E70200694663
:10174000380011F07BFE002803D003000C4A0B493F
:10175000EFE7FA22F378D2009B18238073782A8867
:10176000A370B378E370AB78A280A371C9E7C046D9
:1017700034580108E00D00204C580108C6980108B3
:101780006458010830B58FB024216A46002307ACA5
:10179000521820001370FFF7A9FF051E17D1A17979
:1017A0002388049161790E4A0391217909A8029155
:1017B000E1780191A1780091142112F04BFE0949C2
:1017C000132807D00420084A04F0D4FB1F35280052
:1017D0000FB030BD054A09AB022004F0CBFBF6E7A1
:1017E000D5980108C69801087C580108945801084A
:1017F000F0B51C4F87B001AE00223100380011F067
:10180000F5FD00226946380011F018FE0023164A43
:1018100000213078FEF748FE002304000D00134A33
:1018200000217078FEF740FEFA2224184D41002373
:101830000021B0789200FEF737FE24184D41F96878
:1018400000290BD0FA20029B8000CB1A58430131AB
:10185000FEF794FC00230200A4185D41200029003B
:1018600007B0F0BDE00D002080EE360060EA000019
:10187000F0B5184B18481E68184B87B01C68184BF9
:1018800070401F68FFF73CFE134B0500E018FFF7A0
:1018900037FE144B0090F818FFF732FE01900098C5
:1018A0006840FFF72DFE019B43401800FFF728FE1C
:1018B000050003903018FFF723FE0490E01940194B
:1018C000FFF71EFE0322059003A907480FF074FCE2
:1018D00007B0F0BD5000F81FB979379E5400F81FCB
:1018E0006400F81F72F36E3C600D0020002330B5D9
:1018F00004001800E25CDD00AA4001331043DAB2B4
:101900009142F7D830BDF7B5441801940F24130065
:10191000A446057864462F093E002C4037369F2D9B
:1019200000D8073E25001E703735092C01D8303409
:101930002500019C01305D700233A042E9D10023F3
:1019400049008B54F7BD000010B50C4C2378012BD7
:1019500011D00F220A4803681A629969073A0A43AC
:101960009A610849012212F077FCFD220A231042F5
:1019700002D1093B23700023180010BD2001002074
:10198000A80B0020AC01002010B5114C5022002102
:10199000200012F005FE0F4B0F4A1B68934206D041
:1019A00003200E490E4A01F0CDFD032010BD002397
:1019B00001210C4A617013700B4A217013800B4A8D
:1019C00013800B4A13600B4A1370FFF7BDFFEDE75E
:1019D000D0000020A80B002000380140A4580108C6
:1019E000FC050000AC0100202A0100202801002095
:1019F000240100202001002010B5154B0A001C789E
:101A0000012C07D002201349134A01F09BFD022448
:101A1000200010BD002809D1002901D10024F7E7DA
:101A200020000C490D4A01F08DFDF1E70029F5D0A9
:101A30000B4C01006423200012F030FA0028EDD096
:101A400009200449074A01F07DFD0924E0E7C0466A
:101A5000D0000020A45801082E0600002F06000028
:101A6000A80B00203606000010B5041E07D1C822BE
:101A700001200649D20001F065FD012010BDFEF7EE
:101A80004DFB81B22000FFF7B7FFF7E7A45801082C
:101A900010B5FFF7E9FF002802D10248FFF7E4FF85
:101AA00010BDC046BE9B010810B5B6B004AC200006
:101AB00005F02CFC031E09D0C0210C4A06A812F028
:101AC000C9FC06A8FFF7E4FF36B010BD4821237813
:101AD0000391A188064A0291A17806A80191617834
:101AE0000091C02112F0B6FCEBE7C046BC580108DB
:101AF000D9580108F0B5C3B00AAF380005F006FCAC
:101B0000051E0CD00300C021374A12A812F0A2FC17
:101B100012A8FFF7BDFF0500280043B0F0BDBB7859
:101B20000600002B43D13148F3E7637AC0210893C4
:101B3000237A2F4A0793E37912A80693A379059392
:101B40006379049323790393E3780293A378019351
:101B500023880093330012F07DFC12A8FFF798FF52
:101B6000002802D09122234939E0A17D6289A3890E
:101B70000591617D1B040491217D13430391E17C58
:101B80001D4A0291A17C0191218AE0890904014347
:101B9000009112A8C02112F05DFC12A8FFF778FF97
:101BA000002802D09E22134919E00136F6B2BB7814
:101BB000B342B1D90CAC2100300005F005FB002880
:101BC000B3D000903300C0210C4A12A812F042FC9E
:101BD00012A8FFF75DFF0028E7D07F220549092002
:101BE00001F0B0FC092597E70B59010828590108B5
:101BF00057590108A4580108985901083959010892
:101C0000F0B50024B5B002900191019B9C4201D334
:101C100000202FE02300C0211B4A04A812F01AFC68
:101C200000250600029B1F19019B1B1B9BB20393FF
:101C3000039B9D4201D0102D0BD104A8FFF728FF74
:101C400000281DD00920BE22104901F07BFC09208C
:101C500010E0C02104A83B780D4A891B801912F0BE
:101C6000F9FB0137002807DA1E20BA22074901F0E4
:101C700069FC1E2035B0F0BD01353618ADB2D7E78E
:101C80001034A4B2C1E7C046EA590108A4580108BB
:101C9000087F0108F0B5CA4C0600A5440CAC200032
:101CA00005F034FBC74A031E1BD1A378C648002B9E
:101CB0001CD010A804F0D6FE022802D110A804F00F
:101CC00001FF10A80EAD2AAC04F036FF2B008022D5
:101CD000210010A8012E0FD104F0B6FE031E0ED075
:101CE000BA4AC0214AA812F0B5FB4AA8FFF7D0FEB5
:101CF000AB239B009D44F0BD04F0A0FEEEE76979A4
:101D00002B8803912979B24A0291E9784AA8019176
:101D1000A9780091C02112F09DFB4AA8FFF7B8FEF8
:101D2000002806D0AB49AC4A092001F00BFC092081
:101D3000DEE720002988FFF763FF002802D0A549CD
:101D4000A64AF1E72D883D2D0ED82B00A44AC021CC
:101D50007AA812F07FFB7AA8FFF79AFE002800D03D
:101D6000CEE1FFF7A1FEC3E72378022219009143D9
:101D7000A12901D09B4AEAE7A178702902D00B0083
:101D8000994AE4E701910093C0212B00974A7AA871
:101D900012F060FB7AA8FFF77BFE002804D0C62271
:101DA0008C4952000920A9E129002000FFF728FFF3
:101DB000002803D08E228749FF32F3E723788C492D
:101DC000A32B00D18B4901910093C02100238A4AA3
:101DD0007AA812F03FFB7AA8FFF75AFE002802D03B
:101DE00098227C49E8E76378C0210093834A012365
:101DF0007AA812F02FFB7AA8FFF74AFE002802D03B
:101E0000CF227449CDE7A378C02100937C4A0223F6
:101E10007AA812F01FFB7AA8FFF73AFE002802D03A
:101E2000A6226C49C8E7932006AB1AAEC018320050
:101E30000821FFF768FD0323C021724A00967AA8A3
:101E400012F008FB7AA8FFF723FE002802D0D72261
:101E50006049A6E79B2006ABC01832000821FFF7B7
:101E600052FD0B23C021684A00967AA812F0F2FABC
:101E70007AA8FFF70DFE002802D0DB22554990E733
:101E8000E37CC0210093614A13237AA812F0E2FA9E
:101E90007AA8FFF7FDFD002802D0DF224D4980E738
:101EA000237DC02100935A4A14237AA812F0D2FA53
:101EB0007AA8FFF7EDFD002802D0C62245497BE74E
:101EC000A52006AB0221C018FFF710FD15230090D6
:101ED000C021504A7AA812F0BDFA7AA8FFF7D8FDBF
:101EE000002802D0CE223B4966E7A72006AB02219C
:101EF000C018FFF7FBFC17230090C021464A7AA8C0
:101F000012F0A8FA7AA8FFF7C3FD002802D0D62263
:101F1000304951E7A92006AB0221C018FFF7E6FCC3
:101F200019230090C0213D4A7AA812F093FA7AA8AA
:101F3000FFF7AEFD002802D0DE2226493CE7AB20A9
:101F400006AB0221C018FFF7D1FC1B230090C02173
:101F5000334A7AA812F07EFA7AA8FFF799FD002892
:101F600002D0E6221B4927E7AD2006ABC01832009D
:101F70000521FFF7C8FC1D23C0212A4A00967AA834
:101F800012F068FA7AA8FFF783FD002802D0F72242
:101F9000104906E72BABDB7F06A9019393235B185F
:101FA000DB7FC0210093204A22237AA812F052FA44
:101FB0007AA8FFF76DFD002838D0F8220549FBE626
:101FC00054FDFFFF205A01083D5A0108495A0108F3
:101FD000615A0108A45801080E0300000F03000015
:101FE0009E5A0108B55A0108CE5A0108E45A010860
:101FF000F6590108F15901080F5B0108335B01082C
:10200000545B0108855B0108A05B0108BB5B01080C
:10201000DB5B0108F65B0108125C0108335C010818
:10202000545C0108745C01088F5C010895233F240F
:1020300006AA9B18DB7F0A211C402000DB090293C3
:10204000FEF722F9C9B2019120000A21FEF796F8A5
:10205000D14FC0B2009024233A00C0217AA812F0D8
:10206000F9F97AA8FFF714FD002802D0CB49CC4A31
:1020700098E6B52006ABC01832000421FFF743FCF8
:102080002523C021C74A00967AA812F0E3F97AA85E
:10209000FFF7FEFC002802D0C049C34A82E6B923FC
:1020A00006A95B181B78C0210093C04A29237AA88F
:1020B00012F0D0F97AA8FFF7EBFC002802D0B7495C
:1020C000BB4A6FE6BA230F2406AA9B181B78B949AE
:1020D0001C401B09013BDBB20B2B02D8B64A9B000C
:1020E000995800912A23C021B44A01947AA812F089
:1020F000B1F9002807DA1E20A849B14A01F022FAF6
:10210000A649B04A10E67AA8FFF7C2FC002802D020
:10211000A249AD4A46E6BB23012006AA9B181B78BC
:10212000AA4A99080140049159090140039199096B
:1021300001400291D90901910093C0212B237AA873
:1021400012F088F97AA8FFF7A3FC002802D093497F
:102150009F4A27E6BD2306A95B181B78C02101937F
:1021600035AB1B789B4A00937AA82C2312F072F9A6
:102170007AA8FFF78DFC002803D08F2287499200B0
:1021800010E6BE2306AA9B18BF221B78079306AB56
:10219000D218117836AA12789446C122D218107833
:1021A000C222D2181678C322D21817780A00079BC9
:1021B0001A4063461A40FF2A10D100902E23C021F6
:1021C000854A029701967AA812F044F97AA8FFF797
:1021D0005FFC002810D096227049D0E70293079B3D
:1021E000039001910093C0212E237C4A0597049609
:1021F0007AA812F02FF9E9E737AB1B78C0210093DA
:10220000774A34237AA812F025F97AA8FFF740FC20
:10221000002802D06149734AC4E5C52306AA9B1869
:102220001B78C021099300936F4A35237AA812F0D6
:1022300011F97AA8FFF72CFC002802D057496B4A05
:10224000B0E5C62306AA9B181B780A930A9A684B26
:10225000FF2A00D1674B01930A9BC0210093664A75
:1022600036237AA812F0F6F87AA8FFF711FC0028B6
:1022700002D04A49614A95E5C72006ABC01804213F
:10228000FFF734FB0300079001330DD13723C02142
:102290005B4A7AA812F0DEF87AA8FFF7F9FB071E6E
:1022A0004AD03E49574A7DE5079BC0210093564AD4
:1022B000372301947AA812F0CDF8EDE7B21C0B9207
:1022C000934202D22300514A41E52AA802218019F3
:1022D000FFF70CFB4E4B82B29A420FD13300C02164
:1022E0004C4A00947AA812F0B5F87AA8FFF7D0FB10
:1022F000013400284ED0AC22284940E70A9AE3B2C4
:1023000080B293420FD3089B01330CD0089B0190FD
:102310001B1A08930293C02133003F4A00947AA805
:1023200012F098F8E1E701903300C0213B4A009495
:102330007AA812F08FF8D8E73B260400079B089391
:102340000999E2B26B1E0B928A42B7D302222AA8E5
:10235000115C01327F18FFB29342F9D8A422920097
:1023600006A99A1852182E49521814782D49A742D6
:1023700000D12D4902912D4AC021019700947AA8DD
:1023800012F068F87AA8FFF783FB002852D00349BF
:10239000274A07E50B9ED3E7AE5C0108A458010865
:1023A00005020000D65C01080F020000F15C010884
:1023B00016020000FB59010894C70108105D0108CE
:1023C000220200001203000023020000375D010812
:1023D00031020000755D0108975D0108C95D0108C3
:1023E000015E0108620200001D5E01086A02000031
:1023F000C09B0108035A0108385E010873020000FF
:10240000555E010887020000825E0108AB5E01088C
:10241000FFFF0000C75E0108F45E0108205F0108AD
:1024200000FEFFFF175A0108E78901083E5F010817
:10243000C3020000074BA74200D1074B0293079B42
:10244000C0210193099B054A00937AA82B0012F042
:1024500001F880E46C7B0108E78901086E5F0108E0
:1024600010B504210148FFF7C7FA10BDC7C701081E
:10247000F0B5BF4BCFB01B780E93012B06D0BD49F2
:10248000BD4A022001F05EF8022005E0FFF75CFA89
:1024900003000A20002B08D04FB0F0BD0021B44A41
:1024A0000B00907801281DD19170B449B4480A8876
:1024B000008893B2824201D100F08CFEB14AD25C16
:1024C00001339BB2D2B27F2B00D9002333200B8083
:1024D00008ABC01802700A2AE0D00D2A01D000F023
:1024E00034FE0E9B0022A24CA370A388E3181A743A
:1024F0006378012B04D1A448FFF7B6FA0028CBD1AA
:10250000237C002B00D1A1E10BF032FF0600FFF786
:10251000A5F8050001F01EF80F9001F071FC040011
:1025200005F072FB994B0700994918000D93FDF7D0
:10253000EBFD002800D0AEE09648FFF7A9FA00288E
:1025400000D0A6E09448FFF7A3FA002800D0A0E04E
:102550009248FFF79DFA002800D09AE09048FFF7D4
:1025600097FA002800D094E08E48FFF791FA0028EF
:1025700000D08EE08C48FFF78BFA002800D088E06E
:102580008A48FFF785FA002800D082E08848FFF7E4
:102590007FFA00287DD18748FFF77AFA002878D1A2
:1025A0008548FFF775FA002873D18448FFF770FA61
:1025B00000286ED18248FFF76BFA002869D1814864
:1025C000FFF766FA002864D17F48FFF761FA002818
:1025D0005FD17E48FFF75CFA00285AD17C48FFF7AC
:1025E00057FA002855D17B48FFF752FA002850D1FE
:1025F0007948FFF74DFA00284BD17848FFF748FAA1
:10260000002846D17648FFF743FA002841D17548A3
:10261000FFF73EFA00283CD17348FFF739FA00284B
:1026200037D17248FFF734FA002832D17048FFF7EB
:102630002FFA00282DD16F48FFF72AFA002828D159
:102640006D48FFF725FA002823D16C48FFF720FAE0
:1026500000281ED16A48FFF71BFA002819D16948E3
:10266000FFF716FA002814D16748FFF711FA00287F
:102670000FD16648FFF70CFA00280AD16448FFF72B
:1026800007FA002805D16348FFF702FA002800D1B5
:10269000DCE0092000E760490D98FDF735FD0028D2
:1026A00011D10BF069FEC02100905C4B5C4A1EA862
:1026B00011F0D0FE002856DA2E495A4A1E2000F0AA
:1026C00041FF1E20E8E658490D98FDF71DFD002842
:1026D0002ED1737A0D9333690F9373691093636AE4
:1026E000119302F089FD129005F088FA04000AF0B7
:1026F0005BFCB3790500F76913930AF067FC139B41
:1027000008900693129BC0210393119B474A0293A2
:10271000109B079701930F9B0595009304940D9BC5
:102720001EA811F097FE00281DDA1249404AC5E79D
:1027300040490D98FDF7E8FC002800D07EE0A9682C
:102740002B7F069169783C4A059169681EA804911F
:10275000A96903916969029129690191E968009168
:10276000C02111F077FE1EA8FFF792F996E2C0464D
:10277000D0000020A4580108150600002801002000
:102780002A0100202C010020BE9B0108E00000204F
:10279000BC5F0108C15F0108EE5F01081F6001080E
:1027A0004E60010881600108B3600108E56001081E
:1027B0001B6101084B61010878610108B8610108DB
:1027C000ED6101082A6201085B620108906201085C
:1027D000C8620108FA6201082C6301086B630108F2
:1027E0009D630108D463010807640108406401087F
:1027F00075640108B1640108FA64010845650108BF
:102800007B650108C1650108F36501082A660108B6
:10281000606601088F660108C1770108BF6601087C
:1028200096B101083B04000071610108D7660108F8
:102830004E0400002A67010830670108D8490D9846
:10284000FDF762FC00280ED1FEF79CFFD54B9A687D
:1028500001329A6000229A801A74FFF701FE002864
:1028600000D122E618E6D0490D98FDF74DFC00286E
:1028700012D10F990F9B89681B7801910F99CB4A50
:1028800049681EA80091C02111F0E4FD002800DB7A
:1028900069E7C749C74A11E7C7490D98FDF734FCF6
:1028A000002805D0C5490D98FDF72EFC002861D100
:1028B00001F0A6FA04000EF095F80D9002F09CFCD1
:1028C000050002F0A3FC676A0600A46A05F096F909
:1028D0002B000390C021BA4A0294019700961EA8CB
:1028E00011F0B8FD002802DAB149B64AE6E61EA8A2
:1028F000FFF7CEF8051E10D0AD49B34A092000F00D
:1029000021FEC6E61EA8FFF7C3F8002802D0A8499A
:10291000AE4AF3E701350C2D98D0E8B201F074FA15
:10292000041EF7D04669002E01D00D9B9E1BA768A0
:10293000002F00D1A64F23690F93E3681093A0786E
:1029400001F06CFA237F069607932379C021059343
:10295000E378A04A0493109B039002930F9B009787
:1029600001931EA82B0011F075FD0028CADA9049CA
:10297000994AA3E699490D98FDF7C6FB002806D0B1
:10298000974D98492800FDF7BFFB00281BD102F0A6
:1029900033FC050002F03AFCA369C021059363698A
:1029A000914A049323690393E3680293A368009018
:1029B00001931EA82B0011F04DFD002800DBD2E68C
:1029C0007B498A4A7AE628008949FDF79DFB002861
:1029D00005D028008749FDF797FB002810D17969B9
:1029E000FB7804913969844A0391F9681EA8029121
:1029F000B968019179680091C02111F02BFDB2E610
:102A000028007E49FDF780FB00282FD10AF0CCFA80
:102A1000636A0D900F93B379F7691093337A346C2E
:102A20001193336AB5691293B36A13930AF0CEFA1D
:102A3000F36CC0210A93336D714A0993139B08907C
:102A40000593129B07950393119B06940293109B89
:102A5000049701930F9B1EA800930D9B11F0FAFCA5
:102A6000002800DB7FE65249664A27E628006649CF
:102A7000FDF74AFB00281FD100F036FD040000F0EE
:102A800039FD050000F034FD060000F03FFD230095
:102A9000211E01D0A368E1680391029301902B00ED
:102AA000C0215A4A00961EA811F0D4FC002800DB71
:102AB00059E63F49564A01E628005649FDF724FBEE
:102AC000002856D1159016901790189017AB18AA99
:102AD00016A915A8FEF7CAFB4F4C002814D1179B66
:102AE00021000293189B4D4A0193169B02300093DC
:102AF0001EAD159B03F03EFA29004948FEF778FC0D
:102B0000002808D0474A00E0474A2100042003F08B
:102B100031FA1F20C0E41E9E301CFEF769FA6F6870
:102B20000D90381CFEF764FA0500FEF781FA011CCF
:102B3000381CFEF71BF83D49FDF7C6FEFEF758FAB4
:102B400002900D980195FEF773FA011C301CFEF7F8
:102B50000DF83649FDF7B8FEFEF74AFAC317C0185C
:102B60005840009021000D9B314A022003F002FAE8
:102B70006CE6304E28003100FDF7C6FA002878D107
:102B800001300BF099FB0BF053FC08F00FF8002814
:102B900054D00749284A1F2000F0D4FCB9E7C046AA
:102BA000527D0108D0000020CE6901087667010837
:102BB000A45801087104000096670108A167010884
:102BC000A66701089A0300009B030000B6030000FB
:102BD00082C70108D0670108B50300001A68010820
:102BE000E00000201E680108236801088604000038
:102BF000D56D01087168010877680108BE5F01089A
:102C0000B4680108AA040000E86101082869010805
:102C1000BB04000058690108916901085C6901085A
:102C2000B80C0020C3690108956901080000C8427A
:102C3000A4690108D4690108FA0400000BF0F8FB4C
:102C400007F0E0FF041E02D0BA49BB4AA3E70BF02D
:102C5000EFFB012008F04EF9012008F093F90BF08A
:102C6000E7FB08F0FBF90BF0E3FB20000BF024FB83
:102C7000ECE52800B149FDF747FA002806D1FEF738
:102C800013FF002815D0AB49AD4A37E62800AD49FF
:102C9000FDF73AFA002806D1FEF706FF002801D01A
:102CA000FFF7FAFBD2E52800A749FDF72DFA002827
:102CB00002D1FEF71FFFF1E72800A449FDF724FA2F
:102CC000002802D1FEF7E6FFE8E72800A049FDF75B
:102CD0001BFA002801D10130F4E728009D49FDF7D7
:102CE00013FA00280BD101F083F89B4A031E9B487E
:102CF00000D139E5C0211EA811F0ACFB33E5280056
:102D00009749FDF701FA00281FD100F0ABFB954A67
:102D1000031EEFD101F06CF8041E04D000F0BEFBDE
:102D20002300914AE6E700F0E9FB040000F0EAFB2B
:102D300023000090C0218D4A1EA811F08BFB0028B3
:102D400000DB10E57B498A4AB8E428008949FDF791
:102D5000DBF9002806D028008749FDF7D5F90028BF
:102D600000D085E009F042FA041E03D1D522714952
:102D7000FFF787FB03788148012B00D0F4E46278E9
:102D800023696069A569E6687D49012A03D07D4908
:102D9000022A00D07C49277A7C4A0697E778059773
:102DA000A77803910090C0210497029601951EA870
:102DB00011F050FB1EA8FEF76BFE002802D0E8229F
:102DC0005C499BE5A17A23790491E179704A0391EA
:102DD000A1791EA80291617A019161790091C021C7
:102DE00011F038FB1EA8FEF753FE002802D0F42293
:102DF000504983E5637A002B11D06648FEF748FE00
:102E0000002802D0F8224B4978E52000617A1C3076
:102E1000FEF7F6FE00280AD0F92246496EE55E4824
:102E2000FEF736FE002802D0FF22424966E5A37A6B
:102E3000002B14D05948FEF72BFE002803D0822225
:102E40003C4952005AE52000A17A5C30FEF7D8FEDA
:102E5000002800D1FAE406223649FF324EE55048F8
:102E6000FEF716FE002800D1F0E40C223149F4E709
:102E70004C4F28003900FDF747F9002806D00422FE
:102E80002800494911F0B7FB002816D1474B4848A4
:102E9000DB7C002B00D147481EACC022210002F091
:102EA000C7F9031E07D02278002A04D1C0212000D0
:102EB000414A11F0CFFA200056E428003F49FDF7BF
:102EC00023F9002816D102F097F9050004F096FEC8
:102ED000E378C0210293A378394A019300902B0034
:102EE0001EA811F0B7FA002800DB3CE41149354A6E
:102EF000FFF7E4FB09222800334911F07CFB2B4C3F
:102F0000002807D008222800304911F074FB00285F
:102F100000D0FFE0E37C2E490E9C662B01D00024FC
:102F20002C49280018AA11F0C9FA012856D02A48BD
:102F30001AE4C046A4580108FC040000DA6901083C
:102F40000C050000E0690108EB690108F669010859
:102F5000016A01080B6A0108556A0108156A01082F
:102F6000266A01082E6A01084D6A0108716A010883
:102F70004A050000976A0108A06A0108AC6A0108C6
:102F8000A6BF0108BFC601089C5F0108BA6A010814
:102F9000086B0108406B0108546B01086E6B010857
:102FA000836B01089E6B0108A26B0108D000002012
:102FB000E4000020C09B0108A76B01081B68010802
:102FC000C56B01086B050000E66B0108F06B01089A
:102FD000AE5F0108A15F0108F96B01087F4918A8DD
:102FE000FDF792F800285CD07D4918A8FDF78CF811
:102FF000002863D07B4918A8FDF786F800285DD02B
:10300000794918A8FDF780F8002859D0774918A801
:10301000FDF77AF8002853D0754918A8FDF774F821
:1030200000284FD0734918A8FDF76EF8002849D042
:10303000714918A8FDF768F8002845D06F4918A80D
:10304000FDF762F800283FD06D4918A8FDF75CF83D
:1030500000283BD0390018A8FDF756F8002837D0D3
:10306000310018A8FDF750F8002833D0654918A89A
:10307000FDF74AF800282FD0634918A8FDF744F857
:1030800000282BD0614918A8FDF73EF8002827D06A
:103090005F4918A8FDF738F8002821D05D48FFF7F0
:1030A00063FB0E9D002228001100012C1AD100F0B4
:1030B00039FE594C031E1AD0584A1BE60225F1E787
:1030C0000325EFE70825EDE70525EBE70A25E9E706
:1030D0000E25E7E71525E5E71925E3E71C25E1E7D8
:1030E0002825DFE700F025FE4D4C031EE4D1280023
:1030F00000F094FE23000090C0214A4A1EA811F05F
:10310000A9F9002801DBFFF72EFBB2224649D200C5
:10311000FFF7D4FA28004549FCF7F6FF002804D150
:10312000012343486370FFF71FFB28004149FCF768
:10313000EBFF002803D160703F48FFF715FBE36801
:103140003E480133E360FFF70FFB082A01D07F2AD6
:1031500016D13B4A9388002B01D1FFF7A6F9002135
:10316000013B9BB29380D31819745378012B01D083
:10317000FFF79BF933480331FEF73EFCFFF76FFB87
:103180001300203B5E2B01D9FFF78FF92C498B8868
:103190003E2B11D900232C488B800B74FEF778FC52
:1031A000002801D1FFF759FB0D201F49274A00F0E5
:1031B000C9F90D20FFF770F9CC18227400220133F1
:1031C0009BB28B80CB181A744978012901D0FFF784
:1031D0006CF9D1E70020FFF75FF9C046106A0108DB
:1031E0004C6C0108516C0108566C01085C6C0108BC
:1031F000606C010848A20108666C0108696C01084E
:10320000766C01087C6C0108127D0108CD6C010808
:10321000836C0108886C010824660108D36C0108DE
:10322000EB6D0108EE6C0108A4580108096D010856
:10323000116D01081E6D0108276D0108356D01082B
:10324000D0000020C4C70108526D0108E705000046
:10325000030070B5002820D0124883421DD11249C6
:10326000124C0A782388D2B29DB201339BB27F2BD5
:1032700000D900230E4E36889E420FD10D4A1368A6
:103280000133136000230C4C0122237010F0E4FF83
:10329000FD23184201D1FC3B237070BD074E7255CF
:1032A0002380EFE7A80B0020AC0100202A010020BA
:1032B0002801002024010020200100202C010020F2
:1032C00010B5002815D00B4B984212D10F2203687D
:1032D000094C1A629969073A0A439A61002301224C
:1032E0000649237010F0B8FFFD23184201D1FC3BC2
:1032F000237010BDA80B002020010020AC0100208D
:1033000000487047D0000020012370B5050001215E
:103310003C355B420278534008221C005E080C409A
:103320000B4200D0054C3300013A6340002AF4D12F
:103330000130A842EED1D84370BDC0462083B8ED1D
:1033400070B5010094B0002808D14B220120224919
:1033500000F0F8F80125280014B070BD04AE40223A
:10336000300011F0B7F93000FFF7CEFFF0630EF038
:1033700013F8041E05D0502217491F2000F0E2F870
:1033800010E0164B164A69469A61164B019002935B
:103390000123009001A803930EF0F6F8002803D053
:1033A0000EF02CF81F25D6E70E4B02203259E118FB
:1033B0000EF06CF80028F3D10434402CF4D10EF058
:1033C0001DF8051E02D06A220349D6E7220031000B
:1033D000054811F07FF9BEE79D6D0108002002400D
:1033E000020F000000E00108B001002070B5174C8A
:1033F00040222000164911F06DF9164D2368AB42AA
:1034000004D1802362685B029A4213D034220021E7
:10341000114811F0C5F880235B026360012320008E
:103420002560A360FFF770FFE06301220B4B0020D3
:103430001A7070BDA368013B012BE7D82000E66B32
:10344000FFF762FF8642E1D1EFE7C046B0010020FE
:1034500000E0010854425544BC010020AD010020A9
:103460007047000000B50B4B91B01B78012B01D0C9
:10347000FFF7BCFF40220849684611F02BF90223F0
:1034800068460393013B04930593FFF759FF11B07E
:1034900000BDC046AD010020B001002000B50A4BC0
:1034A00091B01B78012B01D0FFF7A0FF4022074904
:1034B000684611F00FF900236846039304930593BF
:1034C000FFF73EFF11B000BDAD010020B0010020AC
:1034D00010B5044B1B78012B01D0FFF787FF0020AC
:1034E00010BDC046AD01002000487047B00100206B
:1034F0000120704700487047B86D010800487047C8
:10350000BE6D01080048704700000108044B0548E3
:103510005B69042B02D8044A9B0098587047C04648
:10352000B0010020C46D0108CCC701080022034B84
:1035300003491A7059609A607047C0460000002025
:10354000F06D0108024B187059609A607047C046D0
:1035500000000020004870470000002072B6C046FE
:10356000FDE70000014B18707047C0460C000020BA
:1035700070B5041E28D085781F2306880B2D1DD812
:103580000122A521AA400901013B0A4216D10133BB
:10359000022D13D1033BB20710D164213000FCF798
:1035A00073FE89B21D23002908D191313000FF310B
:1035B000FCF76AFE8BB25A4253411C33E278013267
:1035C000D2B29A4201D8E27070BD0123ED18EDB27B
:1035D000E3700C2D01D8A570F6E70136A3702680A4
:1035E000F2E70000F8B507000D00141E06D11D49D2
:1035F0001D4A0120FFF7A6FF0120F8BD1B4B994291
:1036000002D918491A4AF4E700261A49D671FCF77C
:10361000B5FD642120803800FCF7B0FD6421FCF783
:1036200033FE3800A1706421FCF72EFE2800E17003
:103630001149FCF7A3FD104920712800FCF724FE76
:1036400008000E49FCF79AFD0C4960712800FCF750
:103650001BFE0800FA218900FCF790FDA0713000E4
:10366000CBE7C046F56D0108CA030000FF5B2605E5
:10367000CB0300001027000080EE360060EA000057
:10368000F0B589B006000D0017000193282819D85D
:1036900002AC18220021200010F082FF0123A67046
:1036A0002370E5700DF09EF9019B6060A76020001B
:1036B000E360012D03D104F0B3F909B0F0BD04F0CB
:1036C000E9F9FAE7B022012002499200FFF73AFF38
:1036D0000120F2E7F56D0108F0B585B00C001F1E62
:1036E000019202D00A9B002B08D11549154A0120EE
:1036F000FFF728FF0125280005B0F0BD02AE32001B
:10370000FFF770FF019B0500E418002807D00C4963
:103710000D4AECE70D4B3000E418FFF729FF0C4B86
:103720009C42F7D832880B4BB178534364224A430A
:103730009B18F2789B183B600A9B1C60DBE7C04635
:10374000F56D01080A0400000D04000000A4D9FA78
:10375000FF5B26051027000073B5050010000E0062
:1037600003F002F9012806D00B490C4A0120FFF7AB
:10377000E9FE012076BD0A4A310000922800094B7B
:10378000094AFFF7A9FF002802D00349074AEDE7DD
:10379000074BD861EEE7C046F56D010866040000EE
:1037A000F4020020F0020020C0D4010072040000E6
:1037B000E802002073B504000800002C06D11F4960
:1037C0001F4A0120FFF7BEFE012076BD03F0CCF8B2
:1037D000012802D019491B4AF3E708222100684654
:1037E00010F078FF23791848184E58436379A2796E
:1037F0007343C018FA239B0053433100C018FCF7F1
:10380000BDFC01307043124B6D4698420DD82288A2
:10381000A678E4780F4B10495343642272439B18F7
:103820001B1988604B600020CFE76846FFF7A0FEB9
:1038300000202A88AE78EC78ECE7C046F56D0108E8
:10384000E2030000E303000080EE360060EA0000BF
:10385000FF5B26051027000008030020F0B5394B58
:1038600093B0DB68DB060FD4374CE378002B04D031
:103870000320364A364902F07DFB002302252380CF
:10388000E370280013B0F0BD06A8FDF72FFF051E5A
:1038900005D03049304A2800FFF754FEF1E708A868
:1038A00003F0E0F8FD230500184216D102AAE03B20
:1038B0009B18D87F022603F063F8234CFF36238839
:1038C0000100B3420CD006A8A170FFF773FF051EDC
:1038D0000ED001201F49214ADEE71E49204ADAE7BF
:1038E000A3788342EFD1E378012BECD10025C8E720
:1038F0000123A768E370A37826803800194905934F
:10390000FCF7C2FC0800FA218900FCF737FC1649D5
:1039100003903800FCF7B8FC08001249FCF72EFCB5
:10392000114902903800FCF729FC019063680F4EA2
:10393000074D009332002900059B022002F01AFB7C
:10394000D4E7C04600280040080300200B6E0108A1
:103950006AB60108F56D01089A040000AC04000085
:103960009D04000060EA000080EE3600476E01080A
:10397000F0B56F4B97B0DB68DB060FD46D4CE37886
:10398000002B04D003206C4A6C4902F0F3FA0023A8
:1039900002252380E370280017B0F0BD0AAC200098
:1039A000FDF7A4FE051E05D06549664A2800FFF70D
:1039B000C9FDF0E70CA803F055F8FD2305001842F7
:1039C00012D102AACF3B9B18D87F02F0D9FF070083
:1039D00002F0CAFF0500012809D059495A4A0120BE
:1039E000FFF7B0FD0125D6E75549584ADEE7514EAD
:1039F0003379012B09D0FDF73BFF3D21FCF744FC57
:103A0000FA239B004B433571B36102223388FF32A6
:103A1000934206D1B378BB4203D1F378012B00D196
:103A200084E0B3693800B770079302F09DFF012866
:103A300007D04349464A0120FFF784FD4049454AE3
:103A4000CDE72179444B62795943444B4448534371
:103A5000C918FA23A2799B005343C9182388A27876
:103A6000584364235343C018E3783E4AC0180CAB54
:103A7000009309ABFFF730FE002802D030493A4AE4
:103A8000D9E7354C0C9B7C43099D0693002C04D050
:103A900021001800FCF772FB0400FDF7E9FE334B30
:103AA0003F0663436F40784058400B21FA27FCF7EC
:103AB000EBFBBF007943079A0C0052182C492800F1
:103AC00000912C4B0699FFF707FE002802D01C49F5
:103AD000294AB0E70223FF333380013BFF3BF370F9
:103AE000B378F568F46105940693B36928001B491F
:103AF0000493FCF7C9FB08003900FCF73FFB1649AB
:103B000003902800FCF7C0FB08001449FCF736FBC3
:103B1000114902902800FCF731FB0190B3680220A4
:103B20000093164A069B054902F024FA002532E765
:103B300000280040E8020020876E01086AB60108EC
:103B4000F56D0108560500005A05000059050000F2
:103B50003E0400007205000080EE360060EA0000BE
:103B600010270000C0D401004A040000B179379E3C
:103B7000F4020020F002002052040000BA6E010896
:103B8000A02010B5C0050022042101F0F1FD0020A5
:103B900010BD000070B51D4D2B78012B34D01C4C8E
:103BA0001C4920000BF01CF9002801D01E2070BD1C
:103BB000194E21003000194B194A0BF04FFD002817
:103BC000F4D13200210017480CF0EAFA0028EDD1B8
:103BD000154E210030000AF0D1FE021EE6D1300061
:103BE00012490AF0E7FE200008F0FAF80028DDD1BB
:103BF000FF220F4B0F4918700F4B02301A70012330
:103C00000E4A2B7002F0B6F90020D0E7F401002034
:103C1000C00200200C0D002044020020FCC8010856
:103C20000CC901081C020020F801002065350008BD
:103C3000F50100206AB601080C000020206F010881
:103C4000012210B5034B02201A700349034A02F007
:103C500091F910BDF50100206AB60108446F010812
:103C600070B5051E07D101200B490C4AFFF76AFC0D
:103C70000124200070BDFFF7F1FD041E04D00649A9
:103C8000074AFFF75FFCF4E7064B2A00996858687B
:103C9000FFF7A8FC0400ECE7F56D01084B080000F5
:103CA0004E0800000803002070B5051E07D1012052
:103CB0000B490C4AFFF746FC0124200070BDFFF7BA
:103CC00057FE041E04D00649074AFFF73BFCF4E701
:103CD000064B2A00D9689868FFF784FC0400ECE7DB
:103CE000F56D0108590800005C080000E80200209A
:103CF000002310B5074A02201380D37093605360ED
:103D0000054A06491380D3709360D360044A02F0D9
:103D100031F910BD08030020E80200206AB601084E
:103D20005F6F010810B513000A000121FFF7A8FC1E
:103D300010BD10B513000A000021FFF7A1FC10BD53
:103D4000F7B5D822204C520000212000F426FA2793
:103D500010F026FC00231D4AF600BF001C48990005
:103D60004158012091601B4998408C46FA216546D4
:103D700013704900284204D13900304201D1594220
:103D80005941D16002210133117720320C2BE5D14A
:103D9000012525700024104B21001C700F4B1022B0
:103DA0001C700F4B0F481C700F4B1C7010F0F8FB71
:103DB000210020220D4810F0F3FB280022002100F2
:103DC000FFF7B7FFFEBDC046180300201C0300200C
:103DD00084C801085A080000F3010020F201002005
:103DE000F101002008030020F0010020E80200207B
:103DF00010B5012200210820FFF79BFF10BD000035
:103E0000004870479C040020030000200B2B02D8C0
:103E100001485B01181870471C0300200300034889
:103E2000282B02D8024A9B0098587047BB6F0108A4
:103E3000E0C70108F0B5224C8DB00B934301E418A4
:103E4000A37915000893E37907000993237AE271B7
:103E50000A9300230E002372A1710CF0C3FD01230D
:103E60000B9A6371E318DA776369A06101336361C8
:103E7000089BE061B34205D1099BAB4202D10A9B8A
:103E8000002B1AD00F4ABB0008989C58FFF7C6FFBA
:103E900007003000FFF7C2FF0B9B01900693002341
:103EA00005930A9B02200493099B074A0293074942
:103EB00023000395009702F05DF80DB0F0BDC046F9
:103EC0001803002084C80108C36F01086AB60108FE
:103ED000002310B51A0003211800FFF7ABFFFEF70F
:103EE000C7FA00220400030003211000FFF7A2FF1D
:103EF000200010BDF0B59FB00D000990282801D911
:103F000000F04DFF8623B74CFF33E0540CF06AFD00
:103F1000CE2301225B00E05000200C33E250203B16
:103F2000E0540AF0DFF90890002806D0AE49AF4A05
:103F30001E20FFF707FB1E23FBE0099B581E2728C6
:103F400001D900F027FFFCF70FF928002507E90049
:103F5000F600FD00F6001F01020124012B013F01C4
:103F6000770125022B024502B402BE02CD02C8022F
:103F7000D702E502CC03DC03510456046404680450
:103F80006D047B0439063D06430651066C06700637
:103F90007C068F061C0701072007002303211A0057
:103FA0001800FFF747FF002304211A000120FFF744
:103FB00041FF002307211A000220FFF73BFF0023E7
:103FC00009211A000320FFF735FF00230D211A00F5
:103FD0000420FFF72FFF002311211A000520FFF70F
:103FE00029FF002314211A000620FFF723FF0023D6
:103FF00018211A000720FFF71DFF00231B211A00BC
:104000000820FFF717FF00231F211A000920FFF7E0
:1040100011FF002323211A000A20FFF70BFF0023C2
:1040200025211A000B20FFF705FF002203201100B5
:10403000FFF77FFE011E06D06B496D4A1B20FFF77C
:1040400081FA1B2375E002000420FFF772FE011EB7
:1040500002D06549674AF1E702000720FFF769FED1
:10406000011E03D0CD226049D200E7E702000920FB
:10407000FFF75FFE011E02D05B495F4ADEE70200E8
:104080000D20FFF756FE011E02D057495B4AD5E7C7
:1040900002001120FFF74DFE011E02D05249584A7E
:1040A000CCE702001420FFF744FE011E02D04E4967
:1040B000544AC3E702001820FFF73BFE011E02D05E
:1040C0004949514ABAE702001B20FFF732FE011EA0
:1040D00002D045494D4AB1E702001F20FFF729FEF3
:1040E000002802D040494A4AA8E7012100222320A3
:1040F000FFF71FFE011E02D0CE223B49B4E70200AB
:104100002520FFF716FE002802D03749414A95E7DF
:10411000C2235B00E05408981FB0F0BDFFF7D8FE43
:10412000002800D1D9E10A202F493B4AFFF70AFABB
:104130000A230893EFE7002305211A000120FFF767
:1041400079FECAE10122002306211000F7E7012DC4
:104150001AD1FA23314A9B003149032001F00AFFAA
:1041600080212A0049002F480DF08EFBFA208000A4
:104170000CF03EFC72B6BFF34F8F2B4B2B4ADA602C
:10418000BFF34F8FC046FDE7002308211A0002202D
:10419000D5E7FFF7F5FC00230A211A000320CEE73C
:1041A000230068331D78012D0AD1002229000B203D
:1041B000FFF7BFFD2A00031E04D00B491C4A3DE750
:1041C00000231A000B21E9E7002201210C20FFF750
:1041D000B0FD031E02D00449164A2FE701220C212C
:1041E000DCE7C04618030020F56D01085406000006
:1041F0006606000067060000690600006A06000007
:104200006B0600006C0600006D0600006E060000E4
:104210006F0600007106000077060000FA6F0108C3
:104220006AB601080004005000ED00E00400FA0541
:10423000AE060000B90600002022002114A810F0EC
:10424000AFF9C44AC449022001F094FEA020012223
:104250000421C00501F08CFA32200CF0C9FBBF4DDF
:10426000BF4B2A689A4212D05E220320BD49FFF755
:1042700069F9A02000220421C00501F079FA032485
:104280002300B94AB449032001F074FE76E00F27F9
:10429000082601F05BFB28000FF088F92B6814203A
:1042A0001F629A6932439A610CF0A2FB2B6864206A
:1042B0001F629A6932439A610CF09AFB64230522CB
:1042C0002800AA490FF0EAFD002806D0A122092003
:1042D000A449FFF737F90924D2E72B6828001F62A9
:1042E0009A6914A932439A6196231522DB000FF0D4
:1042F0003BFE0400032819D128000FF0EFF82B68CB
:10430000099C1F629A6916439E6164200CF070FB41
:10431000A02000220421C00501F02AFA002C0ED0B2
:10432000AD2290492000FFF70DF9A9E70028ECD055
:104330008A220A208B49FFF705F90A24E5E7864E11
:104340001523310014AA022001F040FE01F008FFFD
:104350000500012001F0FCFE152114A802F004F86C
:104360000400280001F0F4FE002C02D0B9227D499F
:10437000D8E7310002207E4A01F0FCFD2300002234
:1043800009210320FFF756FDC2220121794B52007B
:104390009954C0E608F022FF00230E211A0014E011
:1043A000230088331B78012B03D0734B1B78012B20
:1043B0000DD1002201210F20FFF7BBFC031E02D00C
:1043C00068496E4A3AE601220F210420B7E607F059
:1043D0008DFDE1E76A4B1B78012B58D1664B1A78AB
:1043E000012A09D1002267481A700AF0FFFF6648C7
:1043F0000AF014FB00284AD1644B1A78012ACBD169
:10440000FE321A7007F018FD002804D00320604A1D
:10441000514901F0AFFD14AD280007F03FFE061E24
:1044200035D12B78012B23D16978AB780391697949
:10443000494F0291297902200191E978554A00916A
:10444000390001F097FD6D78012DA5D132002900CA
:104450001520FFF76EFC031E9ED12A0015210620B1
:10446000FFF7E8FC39004C4A022001F083FD93E796
:104470004A4D28000BF0A0FA00280FD048480BF056
:10448000B7FE002888D00238C0B2032884D9354945
:10449000444A1F20FFF756F81F234AE6012128004F
:1044A0000BF010F9022800D876E7042800D173E752
:1044B000EDE7002310211A000420FFF7BBFCC22304
:1044C00001225B00E2543848FCF7F0FF002804D0DA
:1044D0000420364A364901F04DFDC22301225B001B
:1044E000E25418E6002213201100FFF722FC0028F6
:1044F000F3D01C492F4AA1E5002201211520FFF726
:1045000018FC021E02D017492B4A97E5030015211B
:10451000062014E6294B1B78012B00D1D4E0284B50
:104520001B78012B00D0CFE0FFF722FA02286CD0D5
:10453000002806D00B49234AFFF704F80949224A0C
:10454000A7E714AE3000FDF7D1F8002840D00549A8
:104550001E4AF1E71B7001086AB60108200B002013
:1045600000440040F56D010871700108F4C80108AD
:104570004570010818030020F5010020DD06000049
:10458000F4010020C0020020F80100200C000020EF
:10459000A7700108D07001080471010844020020CE
:1045A0001C020020EB060000B80C0020237101085B
:1045B00091690108FE06000011070000F0010020CB
:1045C000F1010020920500001C0700009505000085
:1045D0003288CF4BB178534364224A43CD4D9B1868
:1045E000F278A8689B1898420FD8E9681FD17279B1
:1045F000C94BB7795343FA2292007A4336799B1814
:10460000C64A72439B188B4211D20022C44B14211C
:104610001A7006201300FFF70DFCC22301225B0075
:10462000E254C049C04A022001F0A4FC73E52B69A2
:10463000984202D16B698B42E7D0AA782861696100
:10464000FFF78AF8002803D00120B849B84A73E779
:10465000EF68AB783800B0496E690793FBF714FE3A
:104660000800FA218900FBF789FDAC490690380063
:10467000FBF70AFE0800A849FBF780FDA749059053
:104680003800FBF77BFD0490AB683000A249039330
:10469000FBF7FAFD0800FA218900FBF76FFD9F493F
:1046A00002903000FBF7F0FD08009B49FBF766FD28
:1046B0009A4901903000FBF761FD00902B690220C0
:1046C0009C4A984901F056FC002201211620FFF770
:1046D00030FB031E02D09549974AAFE40122162110
:1046E00016E7012009F0E8FD002201211720FFF75D
:1046F00020FB031E02D08D49904A9FE4012217211E
:1047000006E78F4E3378012B44D1854D2B78012B52
:104710000CD18C4A8349022001F02CFC08F038FDB2
:10472000002802D08149884AB3E62870002706F0A5
:1047300093FA051E30D07B4E844B3100844A0090A2
:10474000032001F017FC06F003FD031E07D0310023
:104750000320804A01F00EFC002009F0ADFD002688
:104760006F4B3200142106201E702B00FFF762FBF6
:10477000C42301225B00E2543000043B9218E2544F
:1047800009F0CCFD0890B04200D1C4E46749724AF8
:10479000FFF7CEFB0127CAE7012006F0ABFB0120A3
:1047A00006F0F0FB012F0BD16C4A5E49022001F0AC
:1047B000E1FB08F0EDFC002802D05C49684A68E69D
:1047C00006F04CFC06F0C4FC021E02D05749654AB4
:1047D0005FE60125644B1421187003000620357034
:1047E000FFF728FBC2235B00E55494E40023192162
:1047F0001A000720A3E4002201211A20FFF799FAEA
:10480000031E03D04949594AFFF718FC01221A2117
:10481000EFE7002318211A00EBE700231C211A0000
:1048200008208CE400221D201100FFF782FA021EEE
:1048300003D03E494E4AFFF701FC03001D21EFE77C
:1048400008F07CFC0C2302001A40184200D189E1D8
:10485000820811000B3B1940C70809911F401A42FA
:1048600000D1BBE0FEF7FAFF041E0AD114AD280008
:10487000FCF73CFF041E0BD0A1222C49D200FEF70E
:1048800061FE022C00D19CE01C2C00D199E034E0A8
:104890002A881F4BA978534364224A439B18EA781D
:1048A0009B18344A54689C4200D98AE090680DD124
:1048B0006A79194BA9795343FA2292004A4329791C
:1048C0009B18164A4A439B1883427AD3FA2312490B
:1048D0009B005C43FBF752FC264D2618EB689E427A
:1048E0006FD0A97814A8EE60FEF764FF041E47D0CD
:1048F00001200E49204AFEF725FE882220000B49A0
:104900001201FEF71FFE09491C4AFFF797FBC0463C
:1049100010270000E802002060EA000080EE360068
:10492000F20100206AB601082E710108F56D010838
:10493000B105000059710108270700002F0700008A
:10494000F1010020BE7101083D070000F07101086F
:10495000FC710108427201084406000088720108D7
:10496000560700005D070000F001002072070000FC
:104970008D07000008030020250500009E070000A9
:10498000AC68D6492000FBF77FFC0800FA218900BB
:10499000FBF7F4FBD24903902000FBF775FC0800FD
:1049A000CE49FBF7EBFBCE4902902000FBF7E6FB7C
:1049B00001906B6802200093CA4A3300CA4901F093
:1049C000D9FA002F0DD13A0001210A20FFF7B1F9E1
:1049D000002800D1B6E0C549C54A92E7002F00D1B2
:1049E000ABE0FEF7C5FF051E09D114AE3000FCF7A1
:1049F0007DFE051E08D0BD49BE4AFEF7A3FD022D6F
:104A000072D01C2D70D02EE03288BB4BB17853434E
:104A100064224A43B94C9B18F278A0689B189842CC
:104A200062D8E1680DD17279AC4BB5795343FA2263
:104A300092006A4335799B18A94A6A439B188B42B6
:104A400052D32369984202D163698B424CD0A27839
:104A500020616161FEF780FE051E08D00120A34998
:104A6000A74AFEF76FFD2800A049A64A49E7E66875
:104A7000A3783000994965690793FBF705FC0800A6
:104A8000FA218900FBF77AFB954906903000FBF785
:104A9000FBFB08009149FBF771FB91490590300041
:104AA000FBF76CFB0490A36828008C490393FBF789
:104AB000EBFB0800FA218900FBF760FB88490290B4
:104AC0002800FBF7E1FB08008449FBF757FB84490A
:104AD00001902800FBF752FB8B4F00903A00022018
:104AE0002369814901F046FA099B002B00D15EE160
:104AF0000122864B3C201A700022854B1A7008F068
:104B000025FB031E04D00320824A774901F032FAC4
:104B1000002201210A20FFF70CF9002802D0734976
:104B20007D4AEEE6030001220A210320FFF782F905
:104B30007A4A02206C4901F01DFA00231E211A0056
:104B400008201FE401223B000A210320FFF772F92D
:104B5000734AEEE70300220015210620FFF76AF9E9
:104B6000704AE6E7694B1C78012C10D12100152012
:104B7000FFF7DFF8031E03D05C496B4AFFF75EFACC
:104B8000220015210620FFF755F9684AD1E7604B4E
:104B900019780129D1D00124152021001C70FFF7BC
:104BA000C8F8031E03D05149614AFFF747FA2200B3
:104BB00015210620FFF73EF95E4ABAE700231E21C1
:104BC0001A002DE6002320211A000920FFF7B7FA6A
:104BD000002201212120FFF7ACF8031E03D0434936
:104BE000554AFFF72BFA01222121EEE7484B1A78AC
:104BF000012A16D001250022290015201D70FFF77B
:104C000098F8031E03D039494C4AFFF717FA2A00D7
:104C100015210620FFF70EF90220494A324901F01A
:104C2000A9F9002322211A00CFE700220121242024
:104C3000FFF77FF80122031E12D0FC222B49FFF759
:104C400013FA012220213F480CF01EFE01200BF038
:104C5000CFFE002220213B480CF016FE00231A0054
:104C600024210A20FFF76BFA14AD280002F000FEA1
:104C7000022802D1280002F025FE149A2B79120A8C
:104C80001B0613434922013302A95218190A137053
:104C90005170190C1B0E9170D370280002F012FE97
:104CA000280002F03BFE0AA801F0DCFE022802D137
:104CB0000AA801F007FF0AA801F03EFF0022012127
:104CC0002620FFF736F8031E03D008491E4AFFF7D7
:104CD000B5F9012226210B20FFF731FA60EA000026
:104CE00080EE3600D07201086AB60108F56D010841
:104CF000A6080000CE05000010270000E8020020F2
:104D0000E90500008908000017730108F001002080
:104D1000F2010020867301089C080000CC73010892
:104D20001A74010868740108A2070000AC74010835
:104D3000A9070000EF740108C3070000D1070000B5
:104D40003275010800040050FF070000204B1A785C
:104D5000012A16D001250022290015201D70FEF71A
:104D6000E8FF031E03D01B491B4AFFF767F92A001F
:104D700015210620FFF75EF80220184A184901F0B5
:104D8000F9F8002327211A00A5E7C22303225B00BC
:104D9000FFF7A6FBC22302225B00FFF7A1FB012065
:104DA0000C49104AFEF7CEFB0123FFF7C2F901249C
:104DB00000220D4B21001C700C4B15201A70FEF7C1
:104DC000B8FF002800D1C5E68B220249120198E500
:104DD000F3010020F56D0108140800007375010847
:104DE0006AB601084C060000F0010020F201002024
:104DF000F0B5B34C8FB02678012E08D00220B1490F
:104E0000B14AFEF79FFB022528000FB0F0BDD62265
:104E10005200A3580133A350D42300225B00E25078
:104E2000FFF756F8051E05D0A649A84A2800FEF748
:104E300089FBE9E708AF3900300002F063FE051E88
:104E400051D1BB781D1C282B00D92825BB68EDB299
:104E5000002B1DD0681F20281AD8FBF771F91212F9
:104E6000193E193C3C3C193A3A3A19383819363649
:104E70003619343419111111191919194242400007
:104E8000082601237601A61933720BF0ABFDF06101
:104E9000C3235B00E5548823FA78FF33E2547A6831
:104EA0001133E250BA680833E250C822F968520060
:104EB0000433E150A3580133A350043AA3580133FB
:104EC000A3502800D2E00726DBE70626D9E705260F
:104ED000D7E70426D5E70326D3E70226D1E70B263A
:104EE000CFE70A26CDE71C2802D07649784A9DE70D
:104EF000FEF7B4FC0500022808D000282ED0714926
:104F0000744A2800FEF71EFB1C2D65D10027724B4A
:104F1000DD5D0B2D00D948E16E01A6193369002B28
:104F200000D142E10BF05EFDB369002B04D0C01A42
:104F30003369984200D238E1681E28250A2800D932
:104F40009FE0FBF711F99700B500DF00E800F100E2
:104F5000FA0003010C0115011F01270106AE300004
:104F6000FCF7C4FB051E02D056495C4AC9E73288EB
:104F70005B4BB178534364224A435A4F9B18F278F3
:104F80007D689B189D42C1D8B8680DD17279564B87
:104F9000B1795343FA2292004A4331799B18534A1C
:104FA0004A439B189842B1D8FA234F499B005D436E
:104FB000FBF7E4F82B180593059AFB689A42A5D0F5
:104FC0003000B978FA60FEF7F5FB051E07D0012026
:104FD0003C49474AFEF7B6FA3A49464A26E72300D3
:104FE000012268331A700BF0FDFCBE68E0673E4991
:104FF0003000FBF749F90800FA218900FBF7BEF8F9
:105000003A4903903000FBF73FF908003649FBF7B7
:10501000B5F8364902903000FBF7B0F80190364EF3
:105020007B683100354A00930220059B00F0A2FF07
:105030000A20FEF7F3FE31000300314A022000F09F
:1050400099FFC3230A265B00E6520BF0CBFCCC236E
:1050500001225B00E050290030000833E2508C321E
:105060000433FF32E550A3580133A350FEF742FF4B
:105070000500C9E6E31DDD7F042D02D0062D00D01A
:105080000525C3235B00E55488230026FF33E6543F
:105090000BF0A8FCCC23C6225B00E0500833E6509E
:1050A00052000433E650A35831000133A35008E7FF
:1050B000230046331D78072DE3D00825E1E7C046DD
:1050C00018030020F56D0108BE080000C4080000A8
:1050D000DF080000CA040000F9C80108CD04000080
:1050E000102700000803002060EA000080EE360070
:1050F000EB040000ED0800006AB60108B375010872
:1051000002760108230066331D782B00093B032B30
:10511000B7D90A25B5E7230086331D782B000D3B50
:10512000022BAED91025ACE72300A6331D78112D34
:10513000A7D0132DA5D01225A3E72300C6331D78D1
:105140002B00143B032B9CD915259AE72300E6334B
:105150001D78182D95D01A2D93D0192591E723008D
:10516000FF33DD792B001B3B022B8AD91E2588E7F4
:1051700093235B00E55C2B001F3B032B00D880E7EB
:1051800020257EE7A3235B00E55C232D00D178E793
:10519000242576E7B3235B00E55C252D00D170E77D
:1051A000262D00D16DE727256BE70137032F00D0AF
:1051B000ADE622000C23117A002918D1013B2032E0
:1051C000002BF8D186230225FF33E5540BF00AFCAF
:1051D000CE23CA225B005200E050A35801200133C5
:1051E000A350C4235B00E054043BE55400E00020DE
:1051F00009F078F83CE7C046862210B5024BFF3232
:10520000985CFEF70BFE10BD18030020C222054B70
:1052100052009B5C0448032B02D8044A9B00985818
:105220007047C04618030020BB6F0108E4C801089E
:10523000F0B506000C00150091B0002906D1C04958
:10524000C04A0120FEF77EF9012638E0002A02D18B
:10525000BB49BD4AF5E700230B70984200D1BB4E15
:105260003378202B0ED0002B05D03000B849FAF748
:105270004BFF002808D129002000B64A0FF0EAF8B9
:1052800000261CE00136EBE73000B349FAF73CFF9B
:10529000021E17D101210E20FEF74BFDAF4A03007D
:1052A000061E00D1AE4A290020000FF0D3F80028D6
:1052B00005DAA349AB4A1E20FEF744F91E2630004A
:1052C00011B0F0BD3000A849FAF71EFF021E11D13F
:1052D00001210F20FEF72DFDA44A0300061E00D178
:1052E000A34A290020000FF0B5F80028E7DA944916
:1052F000A04AE0E73000A049FAF706FF9F4B1B7871
:10530000079300283DD19E4B9E4E1B78DBB208933D
:105310009D4B1A78D3B2022A06D09C4EFF2B03D0A5
:105320009B4E012B00D09B4E9B4B984A1B790692BB
:10533000042B03D8994A9B009B5806939848934F97
:105340000379062B02D8974A9B009F580AF034FB3A
:10535000099091480AF040F8099B05900493069B38
:1053600029000293089B200000938F4A079B039714
:1053700001960FF06FF8002800DB81E770498B4A37
:1053800099E7079B012B06D029002000884A0FF0DF
:1053900061F8022693E787493000FAF7B5FE011E4F
:1053A00025D10AAF072238000FF0FAF839007A4801
:1053B00009F000FF061E07D00300290020007E4AE6
:1053C0000FF048F81F267AE7B9793B78059179798B
:1053D000200004913979794A0391F9780291B978DA
:1053E00001917978009129000FF034F867E774494A
:1053F0003000FAF789FE011E28D10AAE14223000CF
:105400000FF0CEF8644F3100380009F0FBFF3A7915
:105410005E4B042A02D8614B9200D358B168200039
:1054200003917168674A02910A990026019179797E
:10543000009129000FF00EF8B04200DB3FE7404931
:10544000614A1E20FEF77EF81E3638E730005F49BD
:10545000FAF75AFE00282CD1182200210AA80FF0D2
:105460009FF84F4E0AA930000AF02EFB3379474FC0
:10547000062B02D84B4A9B009F5830000AF09CFA3A
:105480000D990B9B059103930C990A9B0491029330
:105490006C3633782900019300903B0020004C4A81
:1054A0000EF0D8FF0026B04200DB08E72449494A45
:1054B000C7E730004849FAF727FE00281AD1474EBF
:1054C0000A2137893800FAF7DFFE89B204913800E3
:1054D0000A21FAF753FE80B20390738929000293E0
:1054E000336A20000193F3693D4A0093B3690EF0DB
:1054F000B1FFC5E63B493000FAF706FE011E77D141
:105500000AAE142230000FF04BF83100364809F093
:10551000CBFA0D9F64213800FAF7B6FE38000391EC
:105520006421FAF72BFE0C9B029001930B9B290040
:10553000009320000A9B2D4A0EF08CFFA0E6C04687
:10554000F56D01088109000082090000C09B010877
:10555000BC5F0108CF76010861BA01083176010805
:105560001B7601089B090000117701086C76010881
:1055700058760108A709000071610108F4010020B4
:10558000F5010020C69801080C000020BB6F01083F
:105590009176010898760108C0020020D0C8010861
:1055A00044020020B4C801081A770108B6090000B7
:1055B00059770108777701087B7701089977010807
:1055C000BE770108C5770108E2090000F6770108F7
:1055D000FB770108F50900003F7801081C02002054
:1055E00043780108BE5F0108F80100207E780108B9
:1055F00030001149FAF788FD002816D10F480AF04B
:10560000F1F90F4A071E00D10E4A3B002900200085
:105610000EF020FF002803DAA2220B4912014AE60D
:105620001F26002F00D04AE62AE629002000074A5C
:105630000EF010FF08E6C046FE7801084402002084
:10564000B37601089F760108F56D0108B37801086B
:105650000121154B86B0DA6A0A43DA62DA6A0A4037
:105660000192019ADA6A49180A43DA62DA6A0A4050
:105670000292029ADA6A02310A43DA62DA6A0A406C
:105680000392039ADA6A04310A43DA62DA6A0A4058
:105690000492049ADA6A78310A43DA62DB6A0B40D0
:1056A0000593059B06B07047001002407FB50C22A1
:1056B000002103A80EF074FF1023A020019384237F
:1056C00001A99B03C00502930BF09CFF07B000BD2E
:1056D00030B587B004000D000C22002103A80EF0A5
:1056E0005FFF0323200001A9019502930BF08AFFBD
:1056F00007B030BDA02010B50A49C005FFF7E8FF8C
:1057000009490A48FFF7E4FF09490A48FFF7E0FFA3
:1057100009490A48FFF7DCFF09490A48FFF7D8FFA3
:1057200010BDC046619800001FF200000004005048
:10573000F03D000000080050FBFF0000000C00508E
:10574000FFFF0000001C005010B5084B1B7A012B16
:105750000BD1C021A020C901C005FFF7B9FFC021AE
:10576000A020C900C005FFF7B3FF10BDC80400208A
:1057700030B50D0087B089B204000CF085F80C221A
:10578000002103A80EF00CFF0123200001A90195C0
:1057900002930BF037FF07B030BD0000802110B539
:1057A00000220B484900FFF7E3FF0A4B9C78012CCD
:1057B0000AD1220004210848FFF7DAFF220008215D
:1057C0000548FFF7D5FF10BD00220421F8E7C046C9
:1057D00000040050C80400200008005070B51B4CA5
:1057E000E378012B2CD01A4D1A4A2900022000F030
:1057F000C1FB042118480022FFF7BAFF0421164814
:105800000CF03CF800281CD029000420134A00F0BA
:10581000B1FB08211048FFF75BFF4022104BD9690C
:105820001142FCD004211A680B488A431A600139DE
:10583000FFF74EFFFA2080000BF0DAF80123E37047
:1058400070BD29000120074AE1E7C046C8040020D6
:10585000BE7B0108DE7B010800080050C37B010805
:1058600000480040DA7B0108802370B52E4ADB0235
:10587000916B86B00B439363042101222B48FFF701
:1058800077FF042129480BF0F9FF294D012847D063
:1058900029000420274A082400F06CFB012208217B
:1058A0002248FFF765FF2200002103A80EF078FED2
:1058B0000323022601A901931C48DB1805930296D5
:1058C0000BF0A0FE0A200BF093F8210000221748ED
:1058D0000BF0DAFF0A200BF08BF8210001221348AD
:1058E0000BF0D2FF0423144A0A2011680B43136003
:1058F0000BF07EF80F22114B05201B681A629A6983
:10590000144310229C611A620BF072F800220C4BB7
:105910002900DA7030000B4A00F02CFB06B070BD95
:105920002900094AB7E7C0460010024000080050AD
:10593000BE7B0108EF7B010800480040300C0020CE
:10594000C8040020097C0108057C0108802330B5CB
:105950000824154A9B02916B87B00B439363002187
:10596000220003A80EF01CFE0C23A020042501A990
:105970000193C0050A3B029305950BF043FE0B4BC8
:105980000A201A6815431D600BF032F80F22084BED
:1059900005201B681A629A69144310229C611A62DE
:1059A0000BF026F807B030BD001002400044004064
:1059B000200B002010B5041E05D0082200210EF097
:1059C000EFFD014B636010BDFF01000070B5041EC8
:1059D00006D1012009490A4AFDF7B4FD012070BD36
:1059E000084D1022002128000EF0DAFD2B000833AC
:1059F00006CC06C3012300202B70F0E7197C0108B8
:105A00003D020000C804002010B5114C2378012B82
:105A100006D002200F49104AFDF794FD022010BD68
:105A2000FFF716FEFFF766FEFFF7B8FEFFF73EFE34
:105A3000FFF78AFEA378002B03D1FFF7CFFE0020EB
:105A4000EDE7E378002BFAD0FFF70EFFF7E7C0464B
:105A5000C8040020197C01084A02000070B5124EEB
:105A600005003478012C08D0982202200F499200BA
:105A7000FDF768FD0224200070BD012805D9200033
:105A80000A490B4AFDF75EFDF5E7B070FFF7E0FD50
:105A9000002D03D1FFF7A2FE0024ECE7F378002BE2
:105AA000FAD0FFF7E1FEF7E7C8040020197C0108EF
:105AB0006102000010B5524C2378012B06D0022061
:105AC0005049514AFDF73EFD022010BD6378012B7D
:105AD00000D192E04D4A4E49022000F04BFAFFF708
