:020000040800F2
:1000000000500020A11D01084D1B01084F1B0108D5
:1000100000000000000000000000000000000000E0
:10002000000000000000000000000000511B01085B
:100030000000000000000000531B0108551B0108D0
:10004000B11C0108F11D01085D1B0108F11D01082B
:10005000F11D0108411C0108431C0108451C010851
:10006000F11D0108F11D0108F11D0108F11D010834
:10007000F11D0108F91B0108F11D0108F11D01081E
:10008000F11D0108F11D0108F11D0108000000002B
:10009000F11D0108F11D0108F11D0108F11D010804
:1000A000F11D0108F11D0108F11D0108811C010865
:1000B000911C0108A11C0108F11D0108F11D010896
:1000C00010B5064C2378002B07D1054B002B02D02E
:1000D000044800E000BF0123237010BD9000002001
:1000E000000000002C6C0108044B10B5002B03D05D
:1000F0000349044800E000BF10BDC04600000000F6
:10010000940000202C6C010802780B78002A03D0A0
:10011000013001319A42F7D0D01A70470023C25CF7
:100120000133002AFBD1581E7047000002B471460B
:1001300049084900095C49008E4402BC7047C0462A
:1001400003B47146490840004900095E49008E44E5
:1001500003BC704703B47146490840004900095A7E
:1001600049008E4403BC7047002243088B4274D37D
:1001700003098B425FD3030A8B4244D3030B8B42A8
:1001800028D3030C8B420DD3FF22090212BA030CB1
:100190008B4202D31212090265D0030B8B4219D392
:1001A00000E0090AC30B8B4201D3CB03C01A5241B2
:1001B000830B8B4201D38B03C01A5241430B8B42FA
:1001C00001D34B03C01A5241030B8B4201D30B03E3
:1001D000C01A5241C30A8B4201D3CB02C01A52410A
:1001E000830A8B4201D38B02C01A5241430A8B42CD
:1001F00001D34B02C01A5241030A8B4201D30B02B6
:10020000C01A5241CDD2C3098B4201D3CB01C01ACF
:10021000524183098B4201D38B01C01A52414309D9
:100220008B4201D34B01C01A524103098B4201D3C7
:100230000B01C01A5241C3088B4201D3CB00C01A34
:10024000524183088B4201D38B00C01A52414308AC
:100250008B4201D34B00C01A5241411A00D20146D1
:10026000524110467047FFE701B5002000F0F0F85A
:1002700002BDC0460029F7D076E7704703460B431E
:100280007FD4002243088B4274D303098B425FD38F
:10029000030A8B4244D3030B8B4228D3030C8B42BB
:1002A0000DD3FF22090212BA030C8B4202D31212A1
:1002B000090265D0030B8B4219D300E0090AC30B76
:1002C0008B4201D3CB03C01A5241830B8B4201D323
:1002D0008B03C01A5241430B8B4201D34B03C01A0C
:1002E0005241030B8B4201D30B03C01A5241C30A84
:1002F0008B4201D3CB02C01A5241830A8B4201D3F5
:100300008B02C01A5241430A8B4201D34B02C01ADE
:100310005241030A8B4201D30B02C01A5241CDD283
:10032000C3098B4201D3CB01C01A524183098B42CE
:1003300001D38B01C01A524143098B4201D34B01B7
:10034000C01A524103098B4201D30B01C01A52411A
:10035000C3088B4201D3CB00C01A524183088B42A1
:1003600001D38B00C01A524143088B4201D34B008A
:10037000C01A5241411A00D20146524110467047FC
:100380005DE0CA0F00D04942031000D34042534001
:1003900000229C4603098B422DD3030A8B4212D3C1
:1003A000FC22890112BA030A8B420CD389019211F3
:1003B0008B4208D3890192118B4204D389013AD030
:1003C000921100E08909C3098B4201D3CB01C01A05
:1003D000524183098B4201D38B01C01A5241430918
:1003E0008B4201D34B01C01A524103098B4201D306
:1003F0000B01C01A5241C3088B4201D3CB00C01A73
:10040000524183088B4201D38B00C01A5241D9D28A
:1004100043088B4201D34B00C01A5241411A00D20B
:100420000146634652415B10104601D34042002B07
:1004300000D54942704763465B1000D3404201B586
:10044000002000F005F802BD0029F8D016E770473B
:100450007047C046002B11D1002A0FD1002900D1CE
:10046000002802D00021C943080007B4024802A1B5
:100470004018029003BDC046D9FFFFFF03B4684691
:1004800001B5029800F034F8019B9E4602B00CBC06
:100490007047C046F0B5CE469946030C9C461304FF
:1004A00047461B0C1D000E0061460404240C80B559
:1004B0000700100C4B436543414360432C0CC018AC
:1004C00024188C46A34203D980235B029846C44477
:1004D000494679435643230C2D042D0C8919634456
:1004E00024046019C918C0BCB946B046F0BDC04666
:1004F000F0B557464E464546DE46E0B504000D00D1
:100500009246994683B08B4230D82DD0494650460A
:1005100000F038FE29000600200000F033FE331AF8
:100520009846203B34D49B4653465A469340424615
:100530001F00534693401E00AF423BD8AF4200D14C
:1005400079E05B46A41BBD41002B00DA76E0002277
:1005500000230092019301235A4693400193012303
:1005600042469340009329E08242CFD900220023E3
:10057000009201930C9B002B01D01C605D600098E1
:10058000019903B0F0BCBB46B246A946A046F0BDF7
:1005900042469B4620239B1A5246DA4041461300AE
:1005A0004A468A40170042461F43534693401E0066
:1005B000AF42C3D900220023009201934346002B8F
:1005C000D8D0FB0772081A4346467B080EE0AB42C0
:1005D00001D1A2420CD8A41A9D41012024196D41D9
:1005E0000021013E24184D41002E06D0AB42EED929
:1005F000013E24196D41002EF8D1009801995B4607
:1006000000196941002B24DB2B005A464646D34093
:100610002A001C00F2405B461500002B2ADB260056
:100620009E40330026004746BE403200801A994162
:10063000009001919EE7A342BCD882E74246202366
:1006400000219B1A0022009101920122DA400192BE
:1006500085E7424620239B1A2A0046469A402300FB
:10066000F340464613432A001C00F2405B46150047
:10067000002BD4DA202342462F009B1B97402600F4
:10068000DE403B003343CDE7F0B546464F46D64605
:100690004502C0B5C30F470098460E1C6D0A3F0EB9
:1006A0005BD0FF2F21D08023ED00DB041D4300230E
:1006B00099469A467F3F74027300640A1B0EF60F38
:1006C000002B20D0FF2B43D080220020E400D20456
:1006D00014437F3B4246FF1A4B4672400F2B00D912
:1006E0009DE071499B00CB589F46002D5AD10823AD
:1006F0009946063B74029A467300FF27640A1B0E54
:10070000F60F002BDED1002C3BD101234246494697
:10071000724019430E2918D86448890041588F4601
:100720005346022B00D1B8E0032B6ED042462C007A
:10073000012B40D100200024C0052043D2071043E4
:10074000E0BCBA46B146A846F0BDFF200024F3E75E
:10075000002C20D10223FF3FD8E7002D05D1042330
:100760009946033B00279A46A5E7280000F0ECFCD9
:100770007627431F9D4000237F4299469A463F1AA1
:1007800099E7200000F0E0FC431F9C4076235B4289
:100790001B1A00209EE703234A461A439146032072
:1007A000FC3397E70C239946093BFF279A4682E7DB
:1007B00003282CD0320038007F30002847DD630743
:1007C00004D00F232340042B00D00434230103D58D
:1007D0003800374B80301C40FE28B6DCA401640A88
:1007E000C0B2A9E780240022FF20E403A4E780230D
:1007F000DB031D4201D01C420BD08024E4032C43B8
:1008000064024246FF20640A96E746462C00802395
:10081000DB031C4364023200FF20640A8CE76D0195
:10082000600185422DD21B230024013F01262900AF
:1008300064006D00002901DB854201D32D1A344389
:10084000013B002BF3D16B1E9D412C43B3E70123E9
:100850001B1A1B2B00DD6DE721009E37D940BC40E1
:100860000B00611E8C412343590704D00F2119400E
:10087000042900D00433590113D49B0100205C0AE1
:100880005AE71A2301242D1AD0E7981E43425841F3
:10089000404232000024C0B24EE74246FF2000240E
:1008A0004AE70120002447E7506C0108906C0108DA
:1008B000FFFFFFF7F0B54F464646D6464502C0B5A6
:1008C00046000F1C6D0A360EC40F002E00D1CDE07D
:1008D000FF2E72D08023ED00DB041D4300239946D8
:1008E0009A467F3E7B025B0A98467B001B0EFF0FF9
:1008F000002B72D0FF2B00D1A9E07F3BF6184B46AE
:100900000A2B00DD85E043468022DB00D2041A4337
:100910004B4690467C400022022B0FDD49460123C6
:100920008B40A621C9000B4200D072E090218900C3
:100930000B4200D0DAE08821194267D1280C4246E8
:100940002D042D0C4346290012041B0C120C51439C
:100950005D4342435843AD180B0C5B199A4203D9CF
:10096000802252029446604409041A04090C521869
:100970009501691E8D411B0C920E1B1815439B019E
:100980001D431B0100D5CFE030007F30002800DC84
:10099000B1E06B070BD00F2332002B40042B06D0A5
:1009A00004352B0103D5803210006A4B1D40FE2810
:1009B00064DCAB015B0AC0B21FE0002D00D08FE009
:1009C00008239946063B9A467B025B0A98467B00C1
:1009D000FF261B0EFF0F002B8CD14346002B5CD152
:1009E0004A4601331A43914613000A2A11DC0122B8
:1009F0007C40022B92DC00200023C0051843E40752
:100A00002043E0BCBA46B146A846F0BD3C0045468E
:100A100092465346022B31D0032B11D0012BEAD042
:100A200030008030721C002866DD6B07B9D00F23C0
:100A30002B40042BB4D1B4E70F2A7AD03C004546B2
:100A40008023DB032B435B02FF205B0AD5E7434691
:100A5000FF36002B34D14A46023313430A2BD8DC2D
:100A60007C40002A0AD09946022257E7002D08D17F
:100A700004239946033B00269A4633E7FF200023D0
:100A8000BBE7280000F060FB7626431F9D40002353
:100A9000764299469A46361A24E7404600F054FBBF
:100AA0004B46361A763E0A2BB3DC43460538834064
:100AB00098464B4600227C40022B00DD2EE73DE7A6
:100AC00003234A461A4313000A2AB5DC01229A403E
:100AD000882113007C400322194200D12EE795E7BC
:100AE0000C239946093BFF269A46FBE68023002407
:100AF000FF20DB0381E7320001231B1A1B2B00DDE3
:100B000079E79E3229009540D9406A1E95410D43F0
:100B10006B0704D00F232B40042B00D004356B014E
:100B200013D50120002368E701236A081D401543FF
:100B300076E78023DB031D4282D042461A4200D072
:100B40007EE73C00FF20134357E7AB0100205B0A20
:100B500053E7C046FFFFFFF7F8B54746CE464B02C6
:100B6000460080B5C40F4702580A844648007A0AF6
:100B7000360EBF09000ECD0F9B09FF286DD0012155
:100B80004D40311AAC423AD0002900DC9CE10028EB
:100B900000D19EE0FF2E00D188E08022D2041343D2
:100BA0001B2900DCF6E0013F7A0100D479E001273F
:100BB0007F42BF01BB099846404600F0C5FA434654
:100BC00005388340864200DCCCE0B44F311A1F4028
:100BD0005A0768D00F221340042B64D004377B01DE
:100BE00061D5481CFE2900D081E0FF200023C0050C
:100BF0001843E4072043C0BCB946B046F8BD0029FD
:100C000000DC79E1002876D1002B4CD0481E012968
:100C100000D147E1FF2949D01B2871DC01001A00EF
:100C20002020CA40411A8B40591E8B411343FF18A4
:100C30008023DB041F4200D1B8E0711CFE2ED4D00B
:100C4000012297483A407F08074017437A0700D0AF
:100C500096E01F42C5D1FA0855E03100FF398946B8
:100C6000002B2CD101214D40AC4200D1B4E04946CB
:100C700000294CD0002E00D0F9E0FF21002F00D138
:100C800008E14A1E012900D156E1FF2900D142E1C5
:100C90001B2A00DC24E15F1E2C0006007A0100D52F
:100CA00085E731000437FA08FF292CD1002A9CD0AF
:100CB0008023DB0313435B02FF205B0A97E7AC4210
:100CC00000D1A7E0002922D0002ED6D062462C0009
:100CD000EEE7002BE7D0481E012936D0FF29E5D0EA
:100CE00001005DE701203B007A0100D457E1C0B26A
:100CF000BB015B0A7BE7FF2ED8D01B2900DC9FE0FD
:100D000031000537FA0853025B0AC8B26FE7FE20CC
:100D1000711C084254D1002E00D0B1E0002F00D148
:100D200002E1002B00D1F9E08021FA1AC9040A423D
:100D300000D13BE10124DF1B2C40002F49D00120D2
:100D40000F42D5D10021FA08DDE7FF1A7B0100D45C
:100D5000DEE0BD01AD09280000F0F6F92B000538F2
:100D6000834001262022811B0131521A1F0093402B
:100D7000CF405A1E93411F432BD000217B07B1D097
:100D80000F233B40042B00D028E77B0100D528E748
:100D9000FA08B8E71A002020CA40411A8B40591EB1
:100DA0008B411343FF1A7B0100D502E77B0700D17B
:100DB0000DE10F2331003B40042B00D00EE772E71A
:100DC000FA1A9046520156D44346002B00D0F3E65F
:100DD0000024002000230AE7494600291CD0002EE9
:100DE00000D002E7FF21002F55D04A1E012959D01B
:100DF000FF2900D190E01B2A00DD91E011003A00AC
:100E00002025CA40691A8F40791E8F41174306007A
:100E1000FF180DE7002926D1FE20711C084213D1CE
:100E2000002E00D096E0002F00D1B4E0002B75D04A
:100E3000FB185A0100D4B2E09B015B0AFD38D6E6EC
:100E40008022D2041343EAE6FF2900D1CDE6FA1846
:100E50005208530705D00F23171D1340042B00D051
:100E600021E7D2084FE7002EBCD0624620E72C00D5
:100E7000FF200023BBE60124DB1B98462C409BE6A9
:100E8000002F75D1002B00D096E080230024FF2096
:100E9000DB03ACE62C001F0005E7C046FFFFFFFBAD
:100EA000FFFFFF7DFB185A0100D48DE04A4A5B0822
:100EB0001A40590700D18CE00F210B400D39042B4B
:100EC000CFD00221171DEEE6002900D11FE7821BBB
:100ED0001100002E00D1D1E68021C9040F43D7E6CE
:100EE00039002024D140A21A97407A1E97410F431F
:100EF0002C000600DF1B56E700298DD0811B002E39
:100F000000D170E71B290BDC8022D204174376E75F
:100F10000121FA08F7E62C006246C7E60021F2E656
:100F200005330100DA08EEE6002B00D150E701247A
:100F3000002162462C40E6E6DA1B530132D59201CD
:100F40009409200000F000F92300053883402C00AC
:100F5000012607E7002FDFD0002B17D08023DB030B
:100F60009A4200D2A4E69C4500D3A1E662469FE6E1
:100F7000002B0BD08023DB039A4200D298E69C45DD
:100F800000D395E6012462462C4091E68023DB03E2
:100F9000FF2013432BE60020002B00D127E6002181
:100FA000DA08B0E62C000121D208ACE6002A00D114
:100FB0000EE70021D208A6E6802362460124DB0367
:100FC000FF2013432C4012E60121DA089BE6310092
:100FD00069E60221D20896E6FFFFFF7D410242004A
:100FE000C30F490A0020120E7E2A03DD9D2A02DD6E
:100FF000094A98187047802000040143952A07DCAD
:101000009620821AD1404842002BF3D10800F1E724
:10101000963A9140F7E7C046FFFFFF7F70B5002882
:1010200012D0C317C5185D40C40F280000F08CF81B
:101030009E231B1A962B0FDC082838D008388540D1
:101040006D026D0AD8B202E0002400200025C00520
:101050002843E407204370BD992B14DC421F9540C0
:101060002A001549114055071CD00F252A40042A93
:1010700018D00431CA08490115D59F235202181A05
:10108000550AC0B2E3E7020029001B3291404A1E14
:1010900091410522121AD5402A000A4306491140FF
:1010A0005507E2D1CA085202550AD8B2CFE76D02FD
:1010B0006D0A8E30CBE7C046FFFFFFFB10B5041E64
:1010C0000DD000F041F89E231B1A962B0CDC08284B
:1010D00034D0083884406402640AD8B201E00020A9
:1010E0000024C005204310BD992B13DC421F9440FF
:1010F000144A224061071CD00F212140042918D036
:101100000432D408520115D59F236402181A640AC8
:10111000C0B2E6E7020021001B3291400A00511ED6
:101120008A410521091ACC401443064A224061072E
:10113000E2D1D4086402640AD8B2D2E76402640A35
:101140008E30CEE7FFFFFFFB1C2101231B049842DA
:1011500001D3000C10391B0A984201D3000A083948
:101160001B09984201D30009043902A2105C4018FF
:101170007047C046040302020101010100000000A3
:101180000000000010B5002903D1FFF7DDFF20307B
:1011900002E00800FFF7D8FF10BDC0461FB56B4640
:1011A00049BA99816423E021009303AA623B11F0BC
:1011B0009BFF05B000BD000037B50022124C009027
:1011C000236869469A62802320005B01019311F035
:1011D0000FF9002802D00D4D28003EBD200011F06F
:1011E00051F80028F7D10A21200011F097F80028C3
:1011F00007D1200011F0F8F885B2200011F06EF848
:10120000EAE7024DF9E7C046C40D0020FFFF0000E9
:1012100010B5010000780822C0433124C0B243B2A7
:101220004000C0B2002B02DA5B006340D8B2013A42
:10123000D2B2002AF3D14B7808223121584043B270
:101240004000C0B2002B02DA5B004B40D8B2013A3A
:10125000D2B2002AF3D110BDF0B587B0019002914F
:1012600003920493002B1CD080230024244DDB0325
:101270002A68032013432B6010F006FE082726007F
:101280002048FFF799FF05901F48FFF795FF059B42
:101290001E4A013B9BB2934206D92B681C4A13405D
:1012A0002B60012007B0F0BD1A4B9842F5D0059B8A
:1012B000013FE4183618002FE2D1174B17481B885E
:1012C000E40858432100FEF74FFFF60807001449D1
:1012D0007043FEF749FF049B40001860039B002BFE
:1012E00000D01F60019B002B00D01C60029B002BD4
:1012F00000D01E602B68064A002013402B60D1E707
:10130000082701400000024402000004FDFF000025
:10131000FFFFBFFFFFFF00007800F81FB80B0000C1
:10132000FF0F000030B50D0004008BB0684606F0DA
:101330007BFB2A002100684606F0B1FC684606F0F7
:10134000B7FC0BB030BD000010B50449FFF726FF15
:101350000400012010F098FD200010BD173500009A
:1013600010B50249FFF71AFF10BDC04698B0000043
:1013700010B50449FFF712FF0400012010F084FDAE
:10138000200010BD5D800000F0B585B005000F00A5
:10139000FFF7DAFF041E19D128000F49FFF7FEFE00
:1013A000041E13D1642303AE00933200E021280011
:1013B000613B11F03DFF041E08D13000FFF728FF0C
:1013C000B378834205D133885BBA3B80200005B0F7
:1013D000F0BD0124FAE7C046C8EF0000F0B587B0C1
:1013E00005000F00FFF7B0FF041E46D12800254975
:1013F000FFF7D4FE041E40D10F2010F045FD6423FA
:1014000004AE00933200E02128005E3B11F010FF93
:10141000041E32D13000FFF7FBFEB37883422FD198
:101420000B2302AA9B181800FFF7F2FE7379834280
:1014300026D102ABDA7A1B7B30881B0213435BBADE
:1014400040BA9BB280B20393FFF738FE0E49FFF714
:101450001BF90E49FFF72EFA0D49FFF77DFB3860A7
:101460000398FFF72BFE0849FFF70EF90949FFF72C
:1014700021FA78602800FFF773FF200007B0F0BD65
:101480000124FAE76678000000FF7F4700002F4341
:10149000000034420000C84273B56B469E1D002315
:1014A00005003380FFF750FF041E16D12800FFF718
:1014B0005FFF041E11D1012010F0E6FC310028006E
:1014C000FFF762FF041E08D133880649064A0B4025
:1014D000934204D12800FFF743FF200076BD01248A
:1014E000FBE7C0463F08000007080000030C43402C
:1014F00004485843044B420B42405343180C584095
:101500007047C0466BCAEB8535AEB2C270B52D4C84
:101510008EB020220021200014F08EFA3822002103
:10152000684614F089FA0C21274E284AF368684669
:101530000B40D35C01222377336D9B05DB0F637077
:10154000234B1B681340A36012F0AAFD10F0DAFBD6
:10155000099B636012F0E4F9E06012F07BFD20610A
:1015600012F07EFD606112F08BFD237FA061012BE4
:1015700007D005203D22174901F0DAFF05200EB003
:1015800070BD33689B0506D43E221249062001F047
:10159000CFFF0620F3E76378012B02D040220D49EC
:1015A000F4E7079B012B02D041220A49EEE7A02273
:1015B00009991202914202D042220649E6E7002030
:1015C0002370DCE7B000002000100240DFE60108D5
:1015D00000200240CC6C010810B594B034220021E8
:1015E00007A801AC14F028FA00211422200014F0FE
:1015F00023FA102306930F3B0D93A02306A81B028A
:101600000F9312F0CFF9011E07D05B220A49062082
:1016100001F08EFF062014B010BD0F236060A060A3
:10162000E06020612000019312F046FC0028F2D017
:1016300062220149EBE7C046CC6C0108014B1878E7
:101640007047C046B000002000487047B00000203E
:10165000121A8B411000191E03DA0023014A801868
:1016600059417047005C260510B510F007FC024B8D
:101670001B68C01810BDC046AC000020F0B50026A5
:101680000F008BB0039304AB019002920021112252
:10169000D81D14F0D1F9039B05AD2B70109B04AC41
:1016A0006B70119B0198AB70029B2670A3706770E2
:1016B0006421FEF7C9FE074BE17029001D003200CE
:1016C000180012F047FF32002100280012F0AAFF94
:1016D0000BB0F0BD200E0020F0B5040087B000284C
:1016E00007D101209C221D4901F022FF012007B0F3
:1016F000F0BD0822002101AD14F09EF91422002152
:10170000280014F099F90022154F290038000092A2
:1017100013F0B8F86E46031E06D0124A1249042090
:1017200005F0E2F91F20E2E702006946380013F0F5
:10173000D1F8002803D003000C4A0B49EFE7FA2246
:10174000F378D2009B18238073782A88A370B3782B
:10175000E370AB78A280A371C9E7C046CC6C0108E6
:10176000200E0020E46C0108AEB60108FC6C0108F4
:1017700030B58FB024216A46002307AC52182000F0
:101780001370FFF7A9FF051E17D1A17923880491D3
:1017900061790E4A0391217909A80291E1780191BA
:1017A000A1780091142114F0A1F80949132807D059
:1017B0000420084A05F098F91F3528000FB030BD05
:1017C000054A09AB022005F08FF9F6E7BDB601081E
:1017D000AEB60108146D01082C6D0108F0B51C4F60
:1017E00087B001AE00223100380013F04BF8002220
:1017F0006946380013F06EF80023164A002130784D
:10180000FEF748FE002304000D00134A0021707803
:10181000FEF740FEFA2224184D4100230021B07843
:101820009200FEF737FE24184D41F96800290BD0CD
:10183000FA20029B8000CB1A58430131FEF794FC3A
:1018400000230200A4185D412000290007B0F0BD6C
:10185000200E002080EE360060EA0000F0B5184B44
:1018600018481E68184B87B01C68184B70401F68DA
:10187000FFF73CFE134B0500E018FFF737FE144B53
:101880000090F818FFF732FE019000986840FFF7CB
:101890002DFE019B43401800FFF728FE0500039032
:1018A0003018FFF723FE0490E0194019FFF71EFEE1
:1018B0000322059003A9074810F0CAFE07B0F0BD47
:1018C0005000F81FB979379E5400F81F6400F81FC4
:1018D00072F36E3CA00D0020002330B50400180008
:1018E000E25CDD00AA4001331043DAB29142F7D83E
:1018F00030BDF7B5441801940F241300A4460578B1
:1019000064462F093E002C4037369F2D00D8073EF5
:1019100025001E703735092C01D830342500019C74
:1019200001305D700233A042E9D1002349008B549D
:10193000F7BD000010B50C4C2378012B11D00F22FD
:101940000A4803681A629969073A0A439A61084982
:10195000012213F0CDFEFD220A23104202D1093BE1
:1019600023700023180010BD20010020E80B002088
:10197000AC01002010B5114C50220021200014F0C1
:101980005BF80F4B0F4A1B68934206D003200E49A9
:101990000E4A01F0CDFD032010BD002301210C4AA9
:1019A000617013700B4A217013800B4A13800B4A2D
:1019B00013600B4A1370FFF7BDFFEDE7D000002066
:1019C000E80B0020003801403C6D0108FC050000D8
:1019D000AC0100202A010020280100202401002061
:1019E0002001002010B5154B0A001C78012C07D0EF
:1019F00002201349134A01F09BFD0224200010BD70
:101A0000002809D1002901D10024F7E720000C4962
:101A10000D4A01F08DFDF1E70029F5D00B4C0100D6
:101A20006423200013F086FC0028EDD0092004492F
:101A3000074A01F07DFD0924E0E7C046D000002000
:101A40003C6D01082E0600002F060000E80B002068
:101A50003606000010B5041E07D1C8220120064931
:101A6000D20001F065FD012010BDFEF757FB81B2E9
:101A70002000FFF7B7FFF7E73C6D010810B5FFF74F
:101A8000E9FF002802D10248FFF7E4FF10BDC0467D
:101A9000C5BB010810B5B6B004AC200006F0F8FCD8
:101AA000031E09D0C0210C4A06A813F01FFF06A888
:101AB000FFF7E4FF36B010BD482123780391A188D9
:101AC000064A0291A17806A8019161780091C0218F
:101AD00013F00CFFEBE7C046546D0108716D01086F
:101AE000F0B5C3B00AAF380006F0D2FC051E0CD02A
:101AF0000300C021374A12A813F0F8FE12A8FFF71E
:101B0000BDFF0500280043B0F0BDBB780600002BE8
:101B100043D13148F3E7637AC0210893237A2F4AEF
:101B20000793E37912A80693A37905936379049345
:101B300023790393E3780293A37801932388009396
:101B4000330013F0D3FE12A8FFF798FF002802D04D
:101B50009122234939E0A17D6289A3890591617DA4
:101B60001B040491217D13430391E17C1D4A0291E2
:101B7000A17C0191218AE08909040143009112A806
:101B8000C02113F0B3FE12A8FFF778FF002802D09F
:101B90009E22134919E00136F6B2BB78B342B1D99F
:101BA0000CAC2100300006F00FFB0028B3D00090F1
:101BB0003300C0210C4A12A813F098FE12A8FFF7B8
:101BC0005DFF0028E7D07F220549092001F0B0FC25
:101BD000092597E7A36D0108C06D0108EF6D0108A5
:101BE0003C6D0108306E0108D16D0108F0B500248C
:101BF000B5B002900191019B9C4201D300202FE0DF
:101C00002300C0211B4A04A813F070FE0025060023
:101C1000029B1F19019B1B1B9BB20393039B9D42BD
:101C200001D0102D0BD104A8FFF728FF00281DD0EC
:101C30000920BE22104901F07BFC092010E0C021E0
:101C400004A83B780D4A891B801913F04FFE013719
:101C5000002807DA1E20BA22074901F069FC1E207D
:101C600035B0F0BD01353618ADB2D7E71034A4B2A7
:101C7000C1E7C046826E01083C6D01089F990108CA
:101C8000F0B5CA4C0600A5440CAC200006F000FCE0
:101C9000C74A031E1BD1A378C648002B1CD010A82E
:101CA00005F0C2FE022802D110A805F0EFFE10A830
:101CB0000EAD2AAC05F026FF2B008022210010A8D3
:101CC000012E0FD105F0A0FE031E0ED0BA4AC0218E
:101CD0004AA813F00BFE4AA8FFF7D0FEAB239B00E7
:101CE0009D44F0BD05F03DFDEEE769792B88039139
:101CF0002979B24A0291E9784AA80191A97800911C
:101D0000C02113F0F3FD4AA8FFF7B8FE002806D063
:101D1000AB49AC4A092001F00BFC0920DEE72000AA
:101D20002988FFF763FF002802D0A549A64AF1E7FA
:101D30002D883D2D0ED82B00A44AC0217AA813F07F
:101D4000D5FD7AA8FFF79AFE002800D0CEE1FFF774
:101D5000A1FEC3E72378022219009143A12901D0F3
:101D60009B4AEAE7A178702902D00B00994AE4E780
:101D700001910093C0212B00974A7AA813F0B6FD79
:101D80007AA8FFF77BFE002804D0C6228C495200B7
:101D90000920A9E129002000FFF728FF002803D02F
:101DA0008E228749FF32F3E723788C49A32B00D199
:101DB0008B4901910093C02100238A4A7AA813F02D
:101DC00095FD7AA8FFF75AFE002802D098227C4998
:101DD000E8E76378C0210093834A01237AA813F0CF
:101DE00085FD7AA8FFF74AFE002802D0CF22744969
:101DF000CDE7A378C02100937C4A02237AA813F090
:101E000075FD7AA8FFF73AFE002802D0A6226C4999
:101E1000C8E7932006AB1AAEC01832000821FFF7BE
:101E200068FD0323C021724A00967AA813F05EFD74
:101E30007AA8FFF723FE002802D0D7226049A6E740
:101E40009B2006ABC01832000821FFF752FD0B2380
:101E5000C021684A00967AA813F048FD7AA8FFF7D7
:101E60000DFE002802D0DB22554990E7E37CC0211B
:101E70000093614A13237AA813F038FD7AA8FFF77C
:101E8000FDFD002802D0DF224D4980E7237DC021DF
:101E900000935A4A14237AA813F028FD7AA8FFF772
:101EA000EDFD002802D0C62245497BE7A52006AB00
:101EB0000221C018FFF710FD15230090C021504AE1
:101EC0007AA813F013FD7AA8FFF7D8FD002802D0F6
:101ED000CE223B4966E7A72006AB0221C018FFF7D8
:101EE000FBFC17230090C021464A7AA813F0FEFCA1
:101EF0007AA8FFF7C3FD002802D0D622304951E767
:101F0000A92006AB0221C018FFF7E6FC19230090B8
:101F1000C0213D4A7AA813F0E9FC7AA8FFF7AEFD8C
:101F2000002802D0DE2226493CE7AB2006AB022186
:101F3000C018FFF7D1FC1B230090C021334A7AA8B8
:101F400013F0D4FC7AA8FFF799FD002802D0E6220E
:101F50001B4927E7AD2006ABC01832000521FFF76B
:101F6000C8FC1D23C0212A4A00967AA813F0BEFCA3
:101F70007AA8FFF783FD002802D0F722104906E770
:101F80002BABDB7F06A9019393235B18DB7FC0217A
:101F90000093204A22237AA813F0A8FC7AA8FFF71E
:101FA0006DFD002838D0F8220549FBE654FDFFFFFF
:101FB000B86E0108D56E0108E16E0108F96E0108DE
:101FC0003C6D01080E0300000F030000366F01088E
:101FD0004D6F0108666F01087C6F01088E6E010865
:101FE000896E0108A76F0108CB6F0108EC6F01082B
:101FF0001D700108387001085370010873700108E2
:102000008E700108AA700108CB700108EC700108FD
:102010000C7101082771010895233F2406AA9B181B
:10202000DB7F0A211C402000DB090293FEF722F926
:10203000C9B2019120000A21FEF796F8D14FC0B233
:10204000009024233A00C0217AA813F04FFC7AA80C
:10205000FFF714FD002802D0CB49CC4A98E6B52002
:1020600006ABC01832000421FFF743FC2523C02132
:10207000C74A00967AA813F039FC7AA8FFF7FEFC4D
:10208000002802D0C049C34A82E6B92306A95B18DA
:102090001B78C0210093C04A29237AA813F026FC9C
:1020A0007AA8FFF7EBFC002802D0B749BB4A6FE6DD
:1020B000BA230F2406AA9B181B78B9491C401B0998
:1020C000013BDBB20B2B02D8B64A9B00995800911A
:1020D0002A23C021B44A01947AA813F007FC0028EF
:1020E00007DA1E20A849B14A01F022FAA649B04AEF
:1020F00010E67AA8FFF7C2FC002802D0A249AD4A38
:1021000046E6BB23012006AA9B181B78AA4A990819
:10211000014004915909014003919909014002913C
:10212000D90901910093C0212B237AA813F0DEFB7B
:102130007AA8FFF7A3FC002802D093499F4A27E61C
:10214000BD2306A95B181B78C021019335AB1B7812
:102150009B4A00937AA82C2313F0C8FB7AA8FFF7B8
:102160008DFC002803D08F228749920010E6BE2301
:1021700006AA9B18BF221B78079306ABD2181178CA
:1021800036AA12789446C122D2181078C222D218E8
:102190001678C322D21817780A00079B1A406346A4
:1021A0001A40FF2A10D100902E23C021854A0297A1
:1021B00001967AA813F09AFB7AA8FFF75FFC002833
:1021C00010D096227049D0E70293079B03900191AB
:1021D0000093C0212E237C4A059704967AA813F019
:1021E00085FBE9E737AB1B78C0210093774A34239E
:1021F0007AA813F07BFB7AA8FFF740FC002802D0F6
:102200006149734AC4E5C52306AA9B181B78C021FF
:10221000099300936F4A35237AA813F067FB7AA8D5
:10222000FFF72CFC002802D057496B4AB0E5C623C3
:1022300006AA9B181B780A930A9A684BFF2A00D1BA
:10224000674B01930A9BC0210093664A36237AA804
:1022500013F04CFB7AA8FFF711FC002802D04A4982
:10226000614A95E5C72006ABC0180421FFF734FB8F
:102270000300079001330DD13723C0215B4A7AA8B0
:1022800013F034FB7AA8FFF7F9FB071E4AD03E494A
:10229000574A7DE5079BC0210093564A3723019496
:1022A0007AA813F023FBEDE7B21C0B92934202D203
:1022B0002300514A41E52AA802218019FFF70CFBAF
:1022C0004E4B82B29A420FD13300C0214C4A009447
:1022D0007AA813F00BFB7AA8FFF7D0FB0134002893
:1022E0004ED0AC22284940E70A9AE3B280B293422A
:1022F0000FD3089B01330CD0089B01901B1A089345
:102300000293C02133003F4A00947AA813F0EEFAFA
:10231000E1E701903300C0213B4A00947AA813F012
:10232000E5FAD8E73B260400079B08930999E2B237
:102330006B1E0B928A42B7D302222AA8115C01328B
:102340007F18FFB29342F9D8A422920006A99A18E6
:1023500052182E49521814782D49A74200D12D4900
:1023600002912D4AC021019700947AA813F0BEFA79
:102370007AA8FFF783FB002852D00349274A07E5D4
:102380000B9ED3E7467101083C6D01080502000071
:102390006E7101080F020000897101081602000029
:1023A000936E0108ECE60108A87101082202000002
:1023B0001203000023020000CF7101083102000067
:1023C0000D7201082F7201086172010899720108EB
:1023D00062020000B57201086A020000C7BB010872
:1023E0009B6E0108D072010873020000ED720108B3
:1023F000870200001A73010843730108FFFF000001
:102400005F7301088C730108B873010800FEFFFFB9
:10241000AF6E010825A40108D6730108C3020000AD
:10242000074BA74200D1074B0293079BC0210193A2
:10243000099B054A00937AA82B0013F057FA80E411
:10244000AD95010825A401080674010810B5042102
:102450000148FFF7C7FA10BD1FE70108F0B5BF4BF1
:10246000CFB01B780E93012B06D0BD49BD4A022088
:1024700001F05EF8022005E0FFF75CFA03000A2095
:10248000002B08D04FB0F0BD0021B44A0B0090786B
:1024900001281DD19170B449B4480A88008893B2CC
:1024A000824201D100F08CFEB14AD25C01339BB272
:1024B000D2B27F2B00D9002333200B8008ABC01889
:1024C00002700A2AE0D00D2A01D000F034FE0E9BE3
:1024D0000022A24CA370A388E3181A746378012B1E
:1024E00004D1A448FFF7B6FA0028CBD1237C002BF7
:1024F00000D1A1E10DF088F90600FFF7A5F805006D
:1025000001F01EF80F9002F095F8040006F03EFC72
:10251000994B0700994918000D93FDF7F5FD002828
:1025200000D0AEE09648FFF7A9FA002800D0A6E058
:102530009448FFF7A3FA002800D0A0E09248FFF7E4
:102540009DFA002800D09AE09048FFF797FA0028FB
:1025500000D094E08E48FFF791FA002800D08EE07A
:102560008C48FFF78BFA002800D088E08A48FFF7F4
:1025700085FA002800D082E08848FFF77FFA00281B
:102580007DD18748FFF77AFA002878D18548FFF790
:1025900075FA002873D18448FFF770FA00286ED1CD
:1025A0008248FFF76BFA002869D18148FFF766FA85
:1025B000002864D17F48FFF761FA00285FD17E4888
:1025C000FFF75CFA00285AD17C48FFF757FA002839
:1025D00055D17B48FFF752FA002850D17948FFF7D0
:1025E0004DFA00284BD17848FFF748FA002846D129
:1025F0007648FFF743FA002841D17548FFF73EFAC5
:1026000000283CD17348FFF739FA002837D17248C7
:10261000FFF734FA002832D17048FFF72FFA00286C
:102620002DD16F48FFF72AFA002828D16D48FFF70F
:1026300025FA002823D16C48FFF720FA00281ED184
:102640006A48FFF71BFA002819D16948FFF716FA04
:10265000002814D16748FFF711FA00280FD1664807
:10266000FFF70CFA00280AD16448FFF707FA0028A0
:1026700005D16348FFF702FA002800D1DCE0092009
:1026800000E760490D98FDF73FFD002811D10DF0DE
:10269000BFF8C02100905C4B5C4A1EA813F026F9DD
:1026A000002856DA2E495A4A1E2000F041FF1E200B
:1026B000E8E658490D98FDF727FD00282ED1737ADA
:1026C0000D9333690F9373691093636A119303F049
:1026D0004DFB129006F054FB04000BF0B1FEB379F1
:1026E0000500F76913930BF0BDFE139B089006934A
:1026F000129BC0210393119B474A0293109B07979B
:1027000001930F9B0595009304940D9B1EA813F055
:10271000EDF800281DDA1249404AC5E740490D98F6
:10272000FDF7F2FC002800D07EE0A9682B7F06911F
:1027300069783C4A059169681EA80491A9690391CA
:102740006969029129690191E9680091C02113F03A
:10275000CDF81EA8FFF792F996E2C046D0000020FF
:102760003C6D010815060000280100202A01002008
:102770002C010020C5BB0108E000002054740108B2
:102780005974010886740108B7740108E6740108D9
:10279000197501084B7501087D750108B3750108AD
:1027A000E375010810760108507601088576010866
:1027B000C2760108F37601082877010860770108DE
:1027C00092770108C4770108037801083578010879
:1027D0006C7801089F780108D87801080D79010804
:1027E0004979010892790108DD790108137A010815
:1027F000597A01088B7A0108C27A0108F87A01082F
:10280000277B01080A920108577B0108EED00108D6
:102810003B040000097601086F7B01084E040000AC
:10282000C27B0108C87B0108D8490D98FDF76CFCF4
:1028300000280ED1FEF79CFFD54B9A6801329A60B2
:1028400000229A801A74FFF701FE002800D122E6C8
:1028500018E6D0490D98FDF757FC002812D10F99C2
:102860000F9B89681B7801910F99CB4A49681EA874
:102870000091C02113F03AF8002800DB69E7C7494E
:10288000C74A11E7C7490D98FDF73EFC002805D05F
:10289000C5490D98FDF738FC002861D101F0CAFE4A
:1028A00004000FF0EBFA0D9003F060FA050003F05E
:1028B00067FA676A0600A46A06F062FA2B000390C2
:1028C000C021BA4A0294019700961EA813F00EF890
:1028D000002802DAB149B64AE6E61EA8FFF7CEF8AC
:1028E000051E10D0AD49B34A092000F021FEC6E60E
:1028F0001EA8FFF7C3F8002802D0A849AE4AF3E7A4
:1029000001350C2D98D0E8B201F098FE041EF7D0E6
:102910004669002E01D00D9B9E1BA768002F00D199
:10292000A64F23690F93E3681093A07801F090FEFF
:10293000237F069607932379C0210593E378A04A65
:102940000493109B039002930F9B009701931EA882
:102950002B0012F0CBFF0028CADA9049994AA3E66F
:1029600099490D98FDF7D0FB002806D0974D98495E
:102970002800FDF7C9FB00281BD103F0F7F905007B
:1029800003F0FEF9A369C02105936369914A04939A
:1029900023690393E3680293A368009001931EA840
:1029A0002B0012F0A3FF002800DBD2E67B498A4A05
:1029B0007AE628008949FDF7A7FB002805D0280002
:1029C0008749FDF7A1FB002810D17969FB780491B4
:1029D0003969844A0391F9681EA80291B968019186
:1029E00079680091C02112F081FFB2E628007E498B
:1029F000FDF78AFB00282FD10BF022FD636A0D90B2
:102A00000F93B379F7691093337A346C1193336A67
:102A1000B5691293B36A13930BF024FDF36CC021D4
:102A20000A93336D714A0993139B08900593129B87
:102A300007950393119B06940293109B04970193AF
:102A40000F9B1EA800930D9B12F050FF002800DB87
:102A50007FE65249664A27E628006649FDF754FB9F
:102A600000281FD100F036FD040000F039FD0500FC
:102A700000F034FD060000F03FFD2300211E01D0D0
:102A8000A368E1680391029301902B00C0215A4A88
:102A900000961EA812F02AFF002800DB59E63F49E5
:102AA000564A01E628005649FDF72EFB002856D16C
:102AB000159016901790189017AB18AA16A915A87C
:102AC000FEF7CAFB4F4C002814D1179B210002933C
:102AD000189B4D4A0193169B023000931EAD159B27
:102AE00004F002F829004948FEF778FC002808D0D5
:102AF000474A00E0474A2100042003F0F5FF1F2069
:102B0000C0E41E9E301CFEF769FA6F680D90381CF9
:102B1000FEF764FA0500FEF781FA011C381CFEF787
:102B20001BF83D49FDF7C6FEFEF758FA02900D98D6
:102B30000195FEF773FA011C301CFEF70DF83649BB
:102B4000FDF7B8FEFEF74AFAC317C01858400090C8
:102B500021000D9B314A022003F0C6FF6CE6304E87
:102B600028003100FDF7D0FA002878D101300CF0B0
:102B7000EFFD0CF0A9FE09F0F7F9002854D0074941
:102B8000284A1F2000F0D4FCB9E7C0468E97010800
:102B9000D0000020667E01080E7C01083C6D010813
:102BA000710400002E7C0108397C01083E7C01087C
:102BB0009A0300009B030000B6030000DAE6010858
:102BC000687C0108B5030000B27C0108E000002029
:102BD000B67C0108BB7C0108860400006D820108F8
:102BE000097D01080F7D0108567401084C7D01081C
:102BF000AA04000080760108C07D0108BB04000023
:102C0000F07D0108297E0108F47D0108F80C002000
:102C10005B7E01082D7E01080000C8423C7E010851
:102C20006C7E0108FA0400000CF04EFE09F062FA16
:102C3000041E02D0BA49BB4AA3E70CF045FE0120AE
:102C400009F0DAFB012009F01FFC0CF03DFE09F051
:102C5000B7FC0CF039FE20000CF07AFDECE5280002
:102C6000B149FDF751FA002806D1FEF713FF0028FD
:102C700015D0AB49AD4A37E62800AD49FDF744FA17
:102C8000002806D1FEF706FF002801D0FFF7FAFB67
:102C9000D2E52800A749FDF737FA002802D1FEF750
:102CA0001FFFF1E72800A449FDF72EFA002802D102
:102CB000FEF7E6FFE8E72800A049FDF725FA00281F
:102CC00001D10130F4E728009D49FDF71DFA0028E5
:102CD0000BD101F0A7FC9B4A031E9B4800D139E5AC
:102CE000C0211EA812F002FE33E528009749FDF727
:102CF0000BFA00281FD100F0ABFB954A031EEFD161
:102D000001F090FC041E04D000F0BEFB2300914AA9
:102D1000E6E700F0E9FB040000F0EAFB2300009086
:102D2000C0218D4A1EA812F0E1FD002800DB10E54D
:102D30007B498A4AB8E428008949FDF7E5F900286B
:102D400006D028008749FDF7DFF9002800D085E08C
:102D50000AF098FC041E03D1D5227149FFF787FBC6
:102D600003788148012B00D0F4E46278236960691C
:102D7000A569E6687D49012A03D07D49022A00D071
:102D80007C49277A7C4A0697E7780597A7780391CC
:102D90000090C0210497029601951EA812F0A6FD8E
:102DA0001EA8FEF76BFE002802D0E8225C499BE5D6
:102DB000A17A23790491E179704A0391A1791EA83F
:102DC0000291617A019161790091C02112F08EFD2A
:102DD0001EA8FEF753FE002802D0F422504983E5D6
:102DE000637A002B11D06648FEF748FE002802D017
:102DF000F8224B4978E52000617A1C30FEF7F6FE98
:102E000000280AD0F92246496EE55E48FEF736FEF4
:102E1000002802D0FF22424966E5A37A002B14D095
:102E20005948FEF72BFE002803D082223C4952006D
:102E30005AE52000A17A5C30FEF7D8FE002800D1C8
:102E4000FAE406223649FF324EE55048FEF716FEF8
:102E5000002800D1F0E40C223149F4E74C4F28005F
:102E60003900FDF751F9002806D00422280049490D
:102E700012F00DFE002816D1474B4848DB7C002B92
:102E800000D147481EACC022210002F08BFF031E78
:102E900007D02278002A04D1C0212000414A12F034
:102EA00025FD200056E428003F49FDF72DF90028B4
:102EB00016D102F05BFF050005F062FFE378C02148
:102EC0000293A378394A019300902B001EA812F0B8
:102ED0000DFD002800DB3CE41149354AFFF7E4FB17
:102EE00009222800334912F0D2FD2B4C002807D0CC
:102EF00008222800304912F0CAFD002800D0FFE067
:102F0000E37C2E490E9C662B01D000242C4928001E
:102F100018AA12F01FFD012856D02A481AE4C0460C
:102F20003C6D0108FC040000727E01080C050000E5
:102F3000787E0108837E01088E7E0108997E010853
:102F4000A37E0108ED7E0108AD7E0108BE7E01086A
:102F5000C67E0108E57E0108097F01084A050000D8
:102F60002F7F0108387F0108447F0108FEDE010839
:102F700017E6010834740108527F0108A07F010898
:102F8000D87F0108EC7F0108068001081B8001083A
:102F9000368001083A800108D0000020E4000020BB
:102FA000C7BB01083F800108B37C01085D800108B0
:102FB0006B0500007E8001088880010846740108C6
:102FC00039740108918001087F4918A8FDF79CF821
:102FD00000285CD07D4918A8FDF796F8002863D03A
:102FE0007B4918A8FDF790F800285DD0794918A80A
:102FF000FDF78AF8002859D0774918A8FDF784F81A
:10300000002853D0754918A8FDF77EF800284FD046
:10301000734918A8FDF778F8002849D0714918A815
:10302000FDF772F8002845D06F4918A8FDF76CF835
:1030300000283FD06D4918A8FDF766F800283BD05E
:10304000390018A8FDF760F8002837D0310018A81B
:10305000FDF75AF8002833D0654918A8FDF754F851
:1030600000282FD0634918A8FDF74EF800282BD070
:10307000614918A8FDF748F8002827D05F4918A82B
:10308000FDF742F8002821D05D48FFF763FB0E9D55
:10309000002228001100012C1AD101F04DFA594CE0
:1030A000031E1AD0584A1BE60225F1E70325EFE775
:1030B0000825EDE70525EBE70A25E9E70E25E7E713
:1030C0001525E5E71925E3E71C25E1E72825DFE7D6
:1030D00001F039FA4D4C031EE4D1280001F0B8FA92
:1030E00023000090C0214A4A1EA812F0FFFB0028CE
:1030F00001DBFFF72EFBB2224649D200FFF7D4FADC
:1031000028004549FDF700F8002804D10123434871
:103110006370FFF71FFB28004149FCF7F5FF00280B
:1031200003D160703F48FFF715FBE3683E48013369
:10313000E360FFF70FFB082A01D07F2A16D13B4A34
:103140009388002B01D1FFF7A6F90021013B9BB228
:103150009380D31819745378012B01D0FFF79BF992
:1031600033480331FEF73EFCFFF76FFB1300203BB3
:103170005E2B01D9FFF78FF92C498B883E2B11D993
:1031800000232C488B800B74FEF778FC002801D1BB
:10319000FFF759FB0D201F49274A00F0C9F90D2000
:1031A000FFF770F9CC182274002201339BB28B8098
:1031B000CB181A744978012901D0FFF76CF9D1E7CF
:1031C0000020FFF75FF9C046A87E0108E4800108EF
:1031D000E9800108EE800108F4800108F880010808
:1031E000A0C10108FE800108018101080E810108CB
:1031F0001481010853970108658101081B810108AA
:1032000020810108BC7A01086B81010883820108D2
:10321000868101083C6D0108A1810108A98101088E
:10322000B6810108BF810108CD810108D0000020CE
:103230001CE70108EA810108E7050000030070B5FA
:10324000002820D0124883421DD11249124C0A781E
:103250002388D2B29DB201339BB27F2B00D90023C9
:103260000E4E36889E420FD10D4A1368013313600B
:1032700000230C4C0122237012F03AFAFD2318426D
:1032800001D1FC3B237070BD074E72552380EFE7E0
:10329000E80B0020AC0100202A01002028010020BA
:1032A00024010020200100202C01002010B500285E
:1032B00015D00B4B984212D10F220368094C1A62A9
:1032C0009969073A0A439A6100230122064923704B
:1032D00012F00EFAFD23184201D1FC3B237010BD01
:1032E000E80B002020010020AC01002000487047BE
:1032F000D0000020012370B5050001213C355B4260
:103300000278534008221C005E080C400B4200D09B
:10331000054C3300013A6340002AF4D10130A84241
:10332000EED1D84370BDC0462083B8ED70B5010022
:1033300094B0002808D14B220120224900F0F8F86F
:103340000125280014B070BD04AE4022300012F0F8
:103350000DFC3000FFF7CEFFF0630FF069FA041E9A
:1033600005D0502217491F2000F0E2F810E0164B5C
:10337000164A69469A61164B019002930123009008
:1033800001A803930FF04CFB002803D00FF082FA42
:103390001F25D6E70E4B02203259E1180FF0C2FA72
:1033A0000028F3D10434402CF4D10FF073FA051E39
:1033B00002D06A220349D6E722003100054812F004
:1033C000D5FBBEE73582010800200240020F000055
:1033D00000E00108B001002070B5174C4022200029
:1033E000164912F0C3FB164D2368AB4204D180236B
:1033F00062685B029A4213D034220021114812F015
:103400001BFB80235B026360012320002560A36017
:10341000FFF770FFE06301220B4B00201A7070BDB4
:10342000A368013B012BE7D82000E66BFFF762FFA2
:103430008642E1D1EFE7C046B001002000E001087C
:1034400054425544BC010020AD01002070470000EB
:1034500000B50B4B91B01B78012B01D0FFF7BCFFDF
:1034600040220849684612F081FB02236846039314
:10347000013B04930593FFF759FF11B000BDC0460F
:10348000AD010020B001002000B50A4B91B01B78BF
:10349000012B01D0FFF7A0FF40220749684612F038
:1034A00065FB00236846039304930593FFF73EFFF3
:1034B00011B000BDAD010020B001002010B5044BDB
:1034C0001B78012B01D0FFF787FF002010BDC046FD
:1034D000AD01002000487047B00100200120704776
:1034E0000048704750820108004870475682010822
:1034F0000048704700000108044B05485B69042B35
:1035000002D8044A9B0098587047C046B00100207A
:103510005C82010824E701080022034B03491A706A
:1035200059609A607047C0460000002088820108F8
:10353000024B187059609A607047C0460000002026
:10354000004870470000002072B6C046FDE700004A
:10355000014B18707047C0460C00002070B5041E67
:1035600028D085781F2306880B2D1DD80122A52180
:10357000AA400901013B0A4216D10133022D13D1A1
:10358000033BB20710D164213000FCF773FE89B20F
:103590001D23002908D191313000FF31FCF76AFE6C
:1035A0008BB25A4253411C33E2780132D2B29A4272
:1035B00001D8E27070BD0123ED18EDB2E3700C2D5F
:1035C00001D8A570F6E70136A3702680F2E7000067
:1035D00010B510220021024812F02EFA10BDC0468C
:1035E000E8020020F0B585B0070009F0E9F8051EF3
:1035F00025D004794069631E9C41124B64421C40F3
:103600002D34FF3400281AD00EF038FC6E69030008
:10361000801B844213D93619F61A2B790A4A0B49B2
:10362000039301903B0002200294009603F05CFAA1
:1036300030000EF029FC0EF021FC6B69C01A05B0B9
:10364000F0BDC046980800008D820108C2D501086F
:1036500010B5041E06D187220949D200FFF768FF82
:10366000200010BD0279074B41795343064A4A4373
:103670009B188279FA20800050431818F1E7C04661
:10368000EB82010880EE360060EA0000F8B5070022
:103690000D00141E06D11D491D4A0120FFF748FFE9
:1036A0000120F8BD1B4B994202D918491A4AF4E788
:1036B00000261A49D671FCF757FD64212080380096
:1036C000FCF752FD6421FCF7D5FD3800A1706421A0
:1036D000FCF7D0FD2800E1701149FCF745FD1049C9
:1036E00020712800FCF7C6FD08000E49FCF73CFDE0
:1036F0000C4960712800FCF7BDFD0800FA21890023
:10370000FCF732FDA0713000CBE7C046EB82010828
:103710006E040000FF5B26056F0400001027000008
:1037200080EE360060EA0000F0B589B006000D00BA
:1037300017000193282819D802AC18220021200074
:1037400012F07AF90123A6702370E5700EF096FB53
:10375000019B6060A7602000E360012D03D105F0AC
:1037600021FA09B0F0BD05F057FAFAE7D922012095
:1037700002499200FFF7DCFE0120F2E7EB8201082C
:1037800070B50F260824114D01002B6828001E6219
:103790009A6922439A6196231522DB0011F030FECC
:1037A000032809D1280011F0E5F80C202B681E62CF
:1037B0009A6914439C6170BD0028FCD00A20A6229F
:1037C0000349FFF7B5FE0A20F5E7C046600B00206D
:1037D000EB82010870B5124D124B2A689A4206D04E
:1037E00003207A221049FFF7A3FE032070BD0F26A5
:1037F000082402F065FE280011F024F92B6814203B
:103800001E629A6922439A610EF03EFB2B68642087
:103810001E629A6914439C610EF036FB0020E5E7B6
:10382000600B002000440040EB820108F0B585B039
:103830000C001F1E019202D00A9B002B08D11549D3
:10384000154A0120FFF774FE0125280005B0F0BDE0
:1038500002AE3200FFF71AFF019B0500E4180028B2
:1038600007D00C490D4AECE70D4B3000E418FFF788
:1038700075FE0C4B9C42F7D832880B4BB178534302
:1038800064224A439B18F2789B183B600A9B1C6099
:10389000DBE7C046EB820108AE040000B104000083
:1038A00000A4D9FAFF5B260510270000F7B51E001B
:1038B000089B05000F001000002B02D0099B002B75
:1038C00006D11049104A0120FFF732FE0120FEBD4B
:1038D00003F0C4FE012802D00A490C4AF3E7099B11
:1038E0003200009339002800089BFFF79FFF002853
:1038F00002D00449064AE6E70A9B002BE7D018608D
:10390000E5E7C046EB8201080E0500000F05000048
:103910001F050000F0B5040085B00800002C07D199
:103920001C491D4A0120FFF703FE012005B0F0BD30
:1039300003F094FE012802D01649184AF2E702ADBE
:1039400008222100280012F011F9E3782000A6785F
:1039500027880193FFF77CFE1149FCF705FC431C07
:103960000F4858430F4B984207D92800FFF7F6FD40
:103970000020EB782F88AE78019364210A4B7143C5
:103980007B435B180199094A5B18906053600020E3
:10399000CCE7C046EB8201088604000087040000E3
:1039A00060EA0000FF5B26051027000038030020B6
:1039B000F0B5394B93B0DB68DB060FD4374CE378B6
:1039C000002B04D00320364A364903F08DF800233B
:1039D00002252380E370280013B0F0BD06A8FDF790
:1039E0007BFE051E05D03049304A2800FFF7A0FDB8
:1039F000F1E708A804F018F8FD230500184216D1D5
:103A000002AAE03B9B18D87F022603F033FE234C2A
:103A1000FF3623880100B3420CD006A8A170FFF73F
:103A200079FF051E0ED001201F49214ADEE71E49FD
:103A3000204ADAE7A3788342EFD1E378012BECD177
:103A40000025C8E70123A768E370A3782680380023
:103A500019490593FCF70EFC0800FA218900FCF7D0
:103A600083FB164903903800FCF704FC0800124958
:103A7000FCF77AFB114902903800FCF775FB0190C6
:103A800063680F4E074D009332002900059B02200A
:103A900003F02AF8D4E7C04600280040380300208D
:103AA00001830108C2D50108EB8201084705000027
:103AB000590500004A05000060EA000080EE36006B
:103AC0003D830108F0B591B0041E0B910C920D934B
:103AD00006D101204449454AFFF72AFD01270CE0A1
:103AE00000230B9A0EAE30001370FDF7F5FD071E94
:103AF00006D03D493E4AFFF71BFD380011B0F0BD2E
:103B000033883C4DB2785D4364235343ED18F3781A
:103B10003000ED18FFF79CFDA368AB4261D802D1DD
:103B2000E26882425DD82269934203D16269E36808
:103B30009A42E2D001250B9B1D702300A068E1682A
:103B40001C33A278206161610293103B0193043B16
:103B500000930D9BFFF7AAFE002803D028002249FE
:103B6000254AB9E7E668A3783000244965690893D7
:103B7000FCF780FB0800FA218900FCF7F5FA2049E0
:103B800007903000FCF776FB08001C49FCF7ECFAC4
:103B90001B4906903000FCF7E7FA0590A36828005F
:103BA00016490493FCF766FB0800FA218900FCF72C
:103BB000DBFA134903902800FCF75CFB08000F496F
:103BC000FCF7D2FA0E4902902800FCF7CDFA0190DA
:103BD00023690C4A00930C490C9B022002F084FFDD
:103BE0008BE71C2789E7C046EB820108230700000A
:103BF00027070000102700004407000060EA0000CB
:103C000080EE36007D830108C2D50108F0B591B081
:103C100004000F000C920D93002809D14349444A37
:103C20000120FFF785FC01230B930B9811B0F0BD29
:103C300000230EAE30000B70FDF74EFD0B900028F8
:103C400004D03A493B4AFFF773FCEEE733883A4D1C
:103C5000B2785D4364235343ED18F3783000ED18D8
:103C6000FFF7F6FCA368AB42DFD802D1E2688242DC
:103C7000DBD82269934203D16269E3689A42D4D0C7
:103C8000012523003D70A068E1681C33A278206103
:103C900061610293103B0193043B00930D9BFFF77E
:103CA00005FE002802D02149244AB9E7E668A37836
:103CB0003000234965690893FCF7DCFA0800FA2113
:103CC0008900FCF751FA1F4907903000FCF7D2FA3F
:103CD00008001B49FCF748FA1A4906903000FCF727
:103CE00043FA0590A368280015490493FCF7C2FA2B
:103CF0000800FA218900FCF737FA124903902800DE
:103D0000FCF7B8FA08000E49FCF72EFA0D490290AC
:103D10002800FCF729FA019023690B4F00933A0021
:103D20000C9B0A49022002F0DFFE7EE7EB820108CD
:103D3000B6060000BA06000010270000D7060000F3
:103D400060EA000080EE3600E0830108C2D5010879
:103D5000F0B58BB0051E0691079206D12B492C4A6F
:103D60000120FFF7E5FB012409E008AE3000FDF774
:103D7000B3FC041E06D02549264AFFF7D9FB2000D4
:103D80000BB0F0BD3388244CB2785C4364235343BA
:103D9000E418F3783000E418FFF75AFC2B00069A79
:103DA0001E4E0C330100009320007243043BFFF7CA
:103DB0003DFD041E02D01549194AD1E7EF68E861BC
:103DC0002861686117493800FCF754FA0800FA21A5
:103DD0008900FCF7C9F9310004903800FCF74AFA71
:103DE00008001049FCF7C0F9310003903800FCF7D7
:103DF000BBF90290AB680C4A0193069B0B490093F8
:103E00000320079B02F070FEB9E7C046EB82010871
:103E10008E070000910700001027000080EE36009A
:103E20009C07000060EA000039840108C2D501083F
:103E3000F0B593B004000F000A920B93002807D14D
:103E4000C8226E49D2000120FFF772FB012317E060
:103E50006B4BDB68DB0615D4C378002B07D0189BAF
:103E600003200093674A68490B9B02F03DFE002344
:103E70002380E370A360E36023616361E361023345
:103E8000099316E0002909D14378012BEFD15F4A4D
:103E90005D490B9B022002F027FEE8E710AD2800E9
:103EA000FDF71AFC0990002806D05449584AFFF73C
:103EB0003FFB099813B0F0BD380003F0CFFB0600BC
:103EC000012802D04D49534ABDE72379012B0BD07D
:103ED000FDF7C4FC0A9B3D215840FCF7CBF9FA23BF
:103EE0009B004B432671A36102222388FF32934239
:103EF00005D1A378BB4202D1E378012BD9D0A369C5
:103F00003800A7700D9303F0A9FB0A90012807D091
:103F10003A49414A0120FFF70BFB38493F4A92E7F3
:103F20002B883F4EAA785E4364235343F618EB7800
:103F30002800F618FFF78CFB0FAB01000093300050
:103F4000199A0EABFFF772FC002802D02B49354AB4
:103F5000E0E70F9B3449180079430C93FCF704F910
:103F600005000E9EFDF77AFC304A3B066A4373401B
:103F7000534058400B21FA25FCF77CF9AD004D4326
:103F80000D9B30005A1923000C3300930C99043B0D
:103F9000FFF74CFC002802D01849254ABAE7022353
:103FA000FF3323800A9BE768E370E5610695A36908
:103FB000380020490593FCF75DF90800FA218900D3
:103FC000FCF7D2F8184904903800FCF753F90800C0
:103FD0001849FCF7C9F8144903903800FCF7C4F8F5
:103FE0000290A368144E0193A3783200009306490F
:103FF0000B9B022002F078FD5BE7C046EB820108D4
:10400000002800407A840108C2D501088F84010885
:104010005706000059060000E30400007206000085
:1040200010270000F204000080EE3600B179379EC0
:10403000FA04000060EA0000A684010810B58CB004
:1040400002A803F0F1FCFD230400184213D1EF3B5A
:104050006B44D87F03F00EFB094A0A4C01920A4ACE
:10406000010000922000094B094AFFF7E1FE04001D
:1040700020000CB010BD0749074AFFF759FAF7E7CF
:10408000C0D401001803002016850108008501082E
:1040900043565253EB8201088A06000010B58CB0DB
:1040A00002A803F0C1FCFD230400184213D1EE3B2B
:1040B0006B44D87F002801D003F0DCFA094A0A4C8F
:1040C00001920A4A010000922000094B094AFFF7B9
:1040D000AFFE040003E00849084AFFF729FA200070
:1040E0000CB010BDE0930400F802002046850108E2
:1040F00033850108544D474DEB8201089E060000B0
:10410000A02010B5C0050022042102F0EBF8002029
:1041100010BD000070B51D4D2B78012B34D01C4C08
:104120001C4920000CF0A8F8002801D01E2070BD0A
:10413000194E21003000194B194A0CF0DBFC002805
:10414000F4D13200210017480DF076FA0028EDD1A5
:10415000154E210030000BF05DFE021EE6D130004E
:1041600012490BF073FE200009F086F80028DDD11B
:10417000FF220F4B0F4918700F4B02301A700123AA
:104180000E4A2B7002F0B0FC0020D0E7F6010020B0
:10419000C00200204C0D00204402002059E8010814
:1041A00069E801081C020020F801002051350008D0
:1041B000F7010020C2D501080C0000206685010827
:1041C000012210B5034B02201A700349034A02F082
:1041D0008BFC10BDF7010020C2D501088A850108BB
:1041E00070B5051E07D101200B490C4AFFF7A0F955
:1041F0000124200070BDFFF7DBFB041E04D006493C
:10420000074AFFF795F9F4E7064B2A0099685868C2
:10421000FFF73CFA0400ECE7EB820108050B000015
:10422000080B000038030020F0B593B00D90002873
:1042300006D19849984A0120FFF77AF901240BE04A
:10424000FFF7FCFEFD230500184208D0B222914979
:104250001201FFF76DF92C00200013B0F0BDFFF73D
:104260001DFF041E0F9000D107E1022800D101E1DB
:1042700088498A4AFFF75CF9EEE73288884BB178C3
:10428000534364224A439B18F27830009B180B93E7
:10429000FFF7DEF90E90002D4CD0002C00D1BBE0D2
:1042A000E3E0EB687F490A930C9B0A980137079378
:1042B0000897FBF7DFFF0800FA218900FBF754FF9E
:1042C000794906900A98FBF7D5FF08007549FBF776
:1042D0004BFF754905900A98FBF746FF0490AB68C1
:1042E000300070490393FBF7C5FF0800FA218900ED
:1042F000FBF73AFF6C4902903000FBF7BBFF080068
:104300006849FBF731FF684901903000FBF72CFF4B
:1043100023000090654A0320654902F0E5FB8023F5
:10432000DB009F4207D15B49624A1F20FFF700F97B
:104330001F2491E72F00604D0B9BAC68EE689C42F8
:1043400003D315D80E9B9E4212D8EB6931000C9313
:104350005A4BAA7802935A4B20000193594B009371
:10436000594BFFF7A3FA00289BD04A49574A62E706
:104370000F9B002B4FD0310020000D9AFFF786F9DC
:10438000040069E70A9B474901330A93F3680C93D9
:104390000A9B0C9808930F9B0793FBF76BFF080091
:1043A000FA218900FBF7E0FE3F4906900C98FBF7E5
:1043B00061FF08003B49FBF7D7FE3B4905900C988D
:1043C000FBF7D2FE0490B368280036490393FBF74D
:1043D00051FF0800FA218900FBF7C6FE324902901E
:1043E0002800FBF747FF08002E49FBF7BDFE2E49CA
:1043F00001902800FBF7B8FE3B00354A00902C499D
:10440000032002F071FB80230A9ADB009A4205D157
:104410002049304A89E7012400230A932E4E0B9B42
:10442000B768F5689F4203D315D80E9B9D4212D8FA
:10443000F36929000F93294BB2780293284B380077
:104440000193284B0093284BFFF730FA002899D0AE
:104450001049264AEFE6012C07D1174B9C68A7426A
:1044600003D3DE6887D8B54285D81B4B0D9AD9682F
:10447000986883E7002D00D0EEE610AE3000FDF71F
:104480002BF9071E00D1F8E60249194AFFF750F848
:104490003C00E1E6EB8201081D0B0000230B00004D
:1044A0001027000060EA000080EE3600A5850108B4
:1044B000C2D50108520B000018030020340300206D
:1044C0002403002020030020C0D40100450B00007D
:1044D000318601087A0B0000F80200201403002046
:1044E0000403002000030020E09304006D0B000093
:1044F0002B0B000000230B4A10B51380D370936080
:104500005360094A02201380D3709360D360074A36
:1045100007491380D3709360D360064A02F0E4FA2F
:1045200010BDC0463803002018030020F802002008
:10453000C2D50108BA86010810B513000A0001218E
:10454000FFF7F2F810BD10B513000A000021FFF7C5
:10455000EBF810BDF7B5D822254C52000021200001
:10456000F426FA2711F068FA0023224AF600BF0069
:1045700021489900415801209160204998408C467B
:10458000FA21654613704900284204D139003042AF
:1045900001D159425941D1600221013311772032B2
:1045A0000C2BE5D1012525700024154B21001C7032
:1045B000144B10221C70144B14481C70144B1C70AC
:1045C000144B1C70144B1C7011F036FA2100202281
:1045D000124811F031FA21002022114811F02CFA72
:1045E000FEF7F6FF280022002100FFF7ACFFFEBD1A
:1045F000480300204C030020DCE701085A080000B3
:10460000F5010020F4010020F30100203803002010
:10461000F2010020F1010020F00100201803002029
:10462000F802002010B5012200210820FFF78BFFBF
:1046300010BD000000487047CC040020030000209B
:104640000B2B02D801485B01181870474C0300205F
:1046500003000348282B02D8024A9B009858704751
:104660002087010838E70108F0B5224C8DB00B9384
:104670004301E418A37915000893E379070009932F
:10468000237AE2710A9300230E002372A1710DF0C8
:10469000F5FB01230B9A6371E318DA776369A06174
:1046A00001336361089BE061B34205D1099BAB42D2
:1046B00002D10A9B002B1AD00F4ABB0008989C58C5
:1046C000FFF7C6FF07003000FFF7C2FF0B9B01900A
:1046D0000693002305930A9B02200493099B074A33
:1046E0000293074923000395009702F0FDF90DB0EE
:1046F000F0BDC04648030020DCE701082887010818
:10470000C2D50108002310B51A0003211800FFF7D5
:10471000ABFFFDF7A3FE00220400030003211000FD
:10472000FFF7A2FF200010BDF0B505000E00A1B0FC
:10473000282801D901F0F9F88623B64CFF33E0545C
:104740000DF09CFBCE2301225B00E05000200C33D7
:10475000E250203BE0540BF011F80790002806D0FF
:10476000AD49AE4A1E20FEF7E3FE1E2383E0681E1D
:10477000272801D901F0D4F8FBF7ECFC2800D20877
:10478000EA00F600FD00F6001F01020124012B01E2
:104790003F017601E601EC01060275027F028E02FE
:1047A00089029802A602FA030A042C063206400681
:1047B00044064A065806CD07D107D707E507000883
:1047C000040810082308C908AE08CD0800230321F7
:1047D0001A001800FFF748FF002304211A000120E7
:1047E000FFF742FF002307211A000220FFF73CFFDA
:1047F000002309211A000320FFF736FF00230D21B3
:104800001A000420FFF730FF002311211A000520B1
:10481000FFF72AFF002314211A000620FFF724FFC8
:10482000002318211A000720FFF71EFF00231B2179
:104830001A000820FFF718FF00231F211A00092083
:10484000FFF712FF002323211A000A20FFF70CFFB5
:10485000002325211A000B20FFF706FF002203206A
:104860001100FFF770FE011E07D06B496C4A1B2038
:10487000FEF75EFE1B23079367E002000420FFF7AC
:1048800062FE011E02D06449664AF0E7020007207A
:10489000FFF759FE011E02D05F49634AE7E70200B5
:1048A0000920FFF750FE011E03D08F225A49120142
:1048B000DDE702000D20FFF746FE011E02D056493B
:1048C0005A4AD4E702001120FFF73DFE011E02D034
:1048D0005149574ACBE702001420FFF734FE011E6E
:1048E00002D04D49534AC2E702001820FFF72BFEC1
:1048F000011E02D04849504AB9E702001B20FFF7C9
:1049000022FE011E02D044494C4AB0E702001F209B
:10491000FFF719FE002802D03F49494AA7E70121C5
:1049200000222320FFF70FFE011E02D03A49454A1C
:104930009DE702002520FFF706FE002802D0364939
:10494000414A94E7C2235B00E054079821B0F0BDD0
:10495000FFF7D8FE002800D199E10A202E493B4AF2
:10496000FEF7E6FD0A2386E7002305211A00012051
:10497000FFF77AFE8BE10122002306211000F7E702
:10498000012E1AD1FA23324A9B003249032002F049
:10499000ABF88021320049002F480EF0C1F9FA200F
:1049A00080000DF071FA72B6BFF34F8F2B4B2C4A7B
:1049B000DA60BFF34F8FC046FDE7002308211A00DD
:1049C0000220D5E7FFF79CFB00230A211A000320F1
:1049D000CEE7230068331D78012D0AD1002229007B
:1049E0000B20FFF7B0FD2A00031E04D00A491D4A20
:1049F0003DE700231A000B21E9E7002201210C20EA
:104A0000FFF7A1FD031E02D0942203494FE70122C4
:104A10000C21DCE748030020EB820108DB080000E2
:104A2000ED080000EE080000EF080000F1080000AB
:104A3000F2080000F3080000F4080000F508000088
:104A4000F6080000F7080000F8080000FE08000063
:104A50005F870108C2D501080004005000ED00E0A6
:104A60000400FA05350900002022002116A810F0E4
:104A7000E3FFCD48FEF7B6FDCC4F03003900CC4A2A
:104A8000022002F031F8A02001220421C00501F02B
:104A900029FC32200DF0F8F9FEF79CFE00280DD01D
:104AA000A02000220421C00501F01CFC03252B00DE
:104AB000C04ABE49032002F017F841E064230522F2
:104AC000BD49BE4810F036FC061E06D0E022092083
:104AD000BB49FEF72DFD0925E9E716A8FEF750FEB4
:104AE000050064200DF0D0F9A02032000421C0059B
:104AF00001F0F8FB002D05D0EC22B1492800FEF7AB
:104B000017FDD4E71523390016AA022002F018F881
:104B100002F054F90600012002F048F9152116A808
:104B200002F050FA0500300002F040F9002D02D0EA
:104B3000F822A349E2E739000220A24A01F0D4FF9B
:104B40002B000022092142E709F094FD00230E21E9
:104B50001A0014E0230088331B78012B03D09A4BF2
:104B60001B78012B0DD1002201210F20FFF7EBFC58
:104B7000031E02D09249954A79E601220F210420B2
:104B8000F6E608F0FFFBE1E7914B1B78012B58D1CB
:104B90008D4B1A78012A09D100228E481A700BF029
:104BA00071FE8D480BF086F900284AD18B4B1A789C
:104BB000012ACBD1FE321A7008F08AFB002804D0FB
:104BC0000320874A794901F08FFF16AD280008F0CD
:104BD000B1FC061E35D12B78012B23D16978AB7837
:104BE00003916979714F0291297902200191E97845
:104BF0007C4A0091390001F077FF6D78012DA5D135
:104C0000320029001520FFF79EFC031E9ED12A00CA
:104C100015210620FFF728FD3900734A022001F014
:104C200063FF93E7714D28000CF012F900280FD0B4
:104C30006F480CF029FD002888D00238C0B2032844
:104C400084D95F496B4A1F20FEF772FC1F2312E6CE
:104C5000012128000BF082FF022800D876E7042803
:104C600000D173E7EDE7002310211A000420FFF7BD
:104C7000FBFCC22301225B00E2545F48FCF70CFC02
:104C8000002804D004205D4A5D4901F02DFFC223B5
:104C900001225B00E25458E6002213201100FFF7C6
:104CA00052FC0028F3D04649564AE0E50022012193
:104CB0001520FFF748FC021E02D04149524AD6E5B2
:104CC00003001521062053E60023202104AA4F4D9E
:104CD000D377521813702B78012B00D0BBE06B7880
:104CE000012B00D0CCE04A4BDB68DB0614D4A8785B
:104CF00005F07CFE474A03002C49032001F0F4FE36
:104D00000022454B14211A70444B1A70444B1A7000
:104D1000444B1A701300D5E716AF3800FCF7DCFCE3
:104D2000002806D02649404AFEF702FC24493F4AA3
:104D300089E73B883E4EBA785E4364235343F618B6
:104D4000FB783800F618FEF783FC6B68B34203D893
:104D500076D1AB68984273D22C4DA87805F046FE08
:104D6000AE68089033493000FBF784FA0800FA2156
:104D70008900FBF7F9F9304903903000FBF77AFA24
:104D800008002C49FBF7F0F92B4902903000FBF7A3
:104D9000EBF901906B68294F00933A00089B034997
:104DA000022001F0A1FEABE780870108C2D501080F
:104DB0008E8701080888010851E80108600B00206F
:104DC000EB820108DC870108F7010020640900007C
:104DD000F6010020C0020020F80100200C00002095
:104DE0003E880108678801089B880108440200206A
:104DF0001C02002072090000F80C0020BA8801088B
:104E0000297E01088509000098090000E8020020B9
:104E100000280040C5880108F4010020F2010020AC
:104E2000F1010020F001002048080000A309000063
:104E30001027000060EA000080EE36000D890108AE
:104E4000A87805F0D3FD0300A84AA949022001F083
:104E50004BFEFEF7BDFBA74D2B78012B7BD0A64B5D
:104E60001B78012B77D1FFF7E9F8022838D000280A
:104E70002CD0A249A24AFEF75BFBA049A14AE2E678
:104E8000EE68002E1CD080235B029E4200D91E00DB
:104E9000300009F0A7FB002802D098499A4A43E75E
:104EA000EB68A8789B1BEB6005F0A0FD0300E868A9
:104EB000964A01908E490096022001F015FE1FE7E8
:104EC000A87805F093FD924A0300BEE71F2104AEC7
:104ED000904A9148914B8919FEF798FE0028CCD151
:104EE000FFF7DCF8022810D0002806D083498C4A4E
:104EF000FEF71EFB81498B4AA5E68B4A8B488C4BFB
:104F00000CA9FEF783FE0028F4D1202104ABDA7F40
:104F10005B181B78012A13D0012B11D00022854B7E
:104F200006201A700C391300FFF79EFBC2230122E2
:104F30005B00E2546E49804A022001F0D5FD04E591
:104F40007E490A707E490B70012A03D0013B5A4208
:104F50005341DAB22A70002201211620FFF7F3FA3A
:104F6000031E02D06549774A81E401221621A9E691
:104F700001200AF0EDFB002201211720FFF7E3FAE0
:104F8000031E02D05D49704A71E40122172199E69F
:104F9000594B16A81B78099302F046FDFD23060025
:104FA0001E40184202D05549684A4CE64F2304AAD5
:104FB0009B18DD7F002D03D0280002F05BFB05006D
:104FC000099B012B10D15B4F3B78012B0CD1604A20
:104FD0004749022001F088FD09F026FB002802D095
:104FE00046495C4A2FE6387007F0AEF80890002872
:104FF00000D13AE107F0E4FB3D49574B099108998C
:10500000564A009104000999032001F06DFD07F054
:10501000DDFA031E07D00320514A099901F064FD0F
:1050200000200AF095FB002C07D0257F082D20D00A
:10503000A827092D1ED0FEF7CBFA00243D4B2200F5
:10504000142106201C70089BFFF70EFBC4220121CF
:10505000444B520099542000043A491899540AF0DC
:10506000A9FB0790A04200D16FE424493E4AFFF714
:1050700079FB3027FEF7ACFA01233C4C23703C4B04
:10508000A570DA681023110019401A4200D1CAE055
:10509000FEF7D4FF0790022818D000280ED0174939
:1050A000344AFEF745FA1549334A0798FEF740FAA5
:1050B0001249324A0798FEF73BFA46E43900154A8E
:1050C0001548FEF745FE07900028ECD1FEF7E6FFF5
:1050D000079002285FD0002854D0F9220749D20057
:1050E000FEF726FA0549264ADFE7C0466989010826
:1050F000C2D50108F2010020F3010020EB82010873
:10510000F3060000B1090000650800009B89010852
:10511000F68901080085010818030020C0D40100A9
:105120000C070000B209000033850108F8020020D6
:10513000E0930400F4010020318A0108F10100200D
:10514000F0010020C1090000C9090000D5090000D4
:10515000698A0108DC0900009B8A0108A78A010806
:10516000ED8A010848030020CB080000E802002077
:1051700000280040B7070000F1070000BF0800004A
:10518000F40700003900C04AC048FEF7E1FDFD23E6
:1051900007901842A6D101236370BD4B5A78012AAB
:1051A00004D116009968DB686160A360B74A537840
:1051B000012B34D19368D268012E06D161689942DF
:1051C00003D804D3A168914201D36360A260280090
:1051D00005F00CFCA5680790AE492800FBF74AF8DB
:1051E0000800FA218900FAF7BFFFAB4904902800B4
:1051F000FBF740F80800A749FAF7B6FFA649039065
:105200002800FAF7B1FF02906368A44E01933200C0
:10521000079BA3490097032001F066FC0DE7012ED0
:1052200000D008E7D3E7E12380261B017B43760209
:1052300030006170E36009F0D5F90790002802D0D2
:105240009849994A32E7E368984A28009B18E36036
:1052500005F0CCFBE16803000291954A099901969B
:105260000097032001F040FCE7E6012007F0C4F8B6
:10527000012007F009F9099B012B0CD0884D8D4ABC
:105280002900022001F030FC09F0CEF9061E1CD0E6
:105290008449894AD7E46B425D41884FEDB23B783F
:1052A000012B02D1280007F05BF9854E30780128E8
:1052B00001D107F061F93B78012B6ED03378012BD7
:1052C0006BD0280007F04CF967E029007D4A0220E6
:1052D00001F00AFC2022310016A810F0ADFB7A483C
:1052E000FEF780F929000300784A022001F0FCFB58
:1052F000A02001220421C00500F0F4FF32200CF0B0
:10530000C3FDFEF767FA002808D0A0203200042170
:10531000C00500F0E7FF63496D4A94E46423052269
:105320006C496D4810F006F8071E06D04822092087
:105330005C49FF32FEF7FCF8EDE716A8FEF720FA0D
:10534000060064200CF0A0FDA0203A000421C00556
:1053500000F0C8FF002E04D0542230005149FF3223
:10536000E8E7290016AA1523022001F0E9FB152120
:105370000CAA16A801F082FE002803D05E2249493B
:10538000FF32D7E72900554A022001F0ADFB0CA8F7
:1053900007F0FEF80CA807F007F907F017F9051E4B
:1053A00002D040494E4A4EE40126FEF711F94D4B1A
:1053B0002A001E704C4B14211D70404B06201D709E
:1053C0003F4B1D702B00FFF74FF9C2235B00E654E3
:1053D000FFF7BBFA002319211A000720FFF7C8FACC
:1053E000002201211A20FFF7AEF8031E03D02D4939
:1053F0003E4AFFF73CFA01221A21EEE7002318216A
:105400001A00EAE700231C211A000820FFF7B0FA6F
:1054100000221D201100FFF796F8021E03D021493B
:10542000334AFFF724FA03001D21EEE709F0D2F812
:105430000C2302001A40184200D140E10023202131
:1054400004AAD37752181370820811000133C008E0
:1054500019401840089109901A4200D1AFE0FEF7B8
:10546000A7FA041E09D116AE3000FCF735F9041E68
:1054700042D00C491F4AFEF75BF8022C00D191E0A4
:105480001C2C00D18EE062E033850108F802002078
:105490001803002060EA000080EE3600338B01081C
:1054A000C2D50108EB820108220800000000FFFFBE
:1054B0009E8B01080D8C0108F4090000F101002009
:1054C000F0010020558C0108AA8C0108B98C010854
:1054D000FD0900004CE80108600B0020108D010858
:1054E000110A0000F3010020F2010020280A000048
:1054F000430A0000B50500003388CF4FB2785F4300
:1055000064235343FF18F3783000FF18FEF7A0F828
:10551000CA4D03006C68BC4244D8A86801D18342DC
:1055200040D3FA23C6499B005C43FAF71DFEEB68A3
:1055300027189F4236D03000A978EF60FEF7EAF9CD
:10554000041E0DD00120BF49BF4AFDF7F1FF200026
:10555000BC49BE4AFDF7ECFFBA49BD4AFFF787F9DF
:10556000AC68B7492000FAF785FE0800FA218900E7
:10557000FAF7FAFDB74903902000FAF77BFE08001E
:10558000AF49FAF7F1FDB34902902000FAF7ECFDBC
:1055900001906B68B04E009332003B000220AF498F
:1055A00001F0A2FA099B002B0CD101210A20099AD3
:1055B000FEF7C9FF002872D0A249A94ACAE7099B91
:1055C000002B5FD0FEF73AFD002807D11F2104AC65
:1055D000A44AA548A54B0919FEF774FA1C2804D85B
:1055E000A34C2300C340DB0702D49649A14AB1E78C
:1055F000FEF754FD002805D19F4AA048A04B0CA9F6
:10560000FEF760FA1C2802D8C440E40702D48D4992
:105610009C4A9FE71F2304AA9B181A789A4B9B4920
:105620001A700CAB1B780B70012A03D0013B5A4255
:105630005341DAB2964B1A70089A002A00D17CE1E5
:105640000022944B3C201A7008F0CCFF031E04D0BB
:105650000320914A814901F047FA002201210A20E2
:10566000FEF771FF002802D076498C4A72E70300EA
:1056700001220A210320FEF7F7FF894A0220774919
:1056800001F032FA00231E211A000820FEF7ECFF79
:10569000C2220121834B52009954FFF756F901228F
:1056A0000A210320099BFEF7DFFF7F4AE6E722007D
:1056B00015210620089BFEF7D7FF7C4ADEE7744BD6
:1056C0001C78012C10D121001520FEF73CFF031E91
:1056D00003D05C49764AFFF7CAF82200152106205C
:1056E000FEF7C2FF734AC9E76A4B19780129C9D08E
:1056F0000124152021001C70FEF725FF031E03D096
:1057000050496D4AFFF7B3F8220015210620FEF735
:10571000ABFF6A4AB2E700231E211A0075E6002398
:1057200020211A000920FFF723F90022012121205E
:10573000FEF709FF031E03D04249614AFFF797F8BD
:1057400001222121EEE7534B1A78012A16D00125B8
:105750000022290015201D70FEF7F5FE031E03D060
:105760003849584AFFF783F82A0015210620FEF72A
:105770007BFF0220544A394901F0B6F90023222167
:105780001A00CFE7002201212420FEF7DCFE0122CF
:10579000031E12D02B494D4AFFF769F80122202140
:1057A0004B480DF0BDFA01200CF06EFB00222021C9
:1057B00047480DF0B5FA00231A0024210A20FFF70C
:1057C000D7F80CAD280003F015F9022802D1280003
:1057D00003F03AF90C9A2B79120A1B061343212283
:1057E000013304A95218190A13705170190C1B0EB9
:1057F0009170D370280003F027F9280003F050F9C6
:1058000016A802F011F9022802D116A802F03EF9FA
:1058100016A802F077F9002201212620FEF793FE58
:10582000031E03D007492B4AFFF721F80122262146
:105830000B20FFF79DF8C04610270000380300201A
:1058400060EA0000EB820108D2050000B90B0000FD
:10585000540A000080EE36005E8D0108C2D50108B2
:10586000E80B00000085010818030020C0D40100E7
:1058700005000010C20B000033850108F80200206B
:10588000E0930400C80B0000F1010020F0010020AB
:10589000F2010020F4010020A58D0108DE0B0000BC
:1058A000F88D010848030020538E0108A18E0108DD
:1058B000580A0000ED8E01085F0A0000388F0108C9
:1058C000790A0000870A00007B8F0108960A000011
:1058D00000040050B50A0000204B1A78012A16D0A7
:1058E00001250022290015201D70FEF72CFE031E45
:1058F00003D01B491B4AFEF7BAFF2A0015210620D8
:10590000FEF7B2FE0220184A184901F0EDF8002314
:1059100027211A008CE7C22303225B00FFF7BAF9A4
:10592000C22302225B00FFF7B5F901200C49104A9F
:10593000FDF7FEFD0123FEF79EFF1C78012C00D031
:10594000A0E60C4B089A210015201A70FEF7FBFD0B
:10595000002800D1ABE60249074AFBE5F50100202B
:10596000EB820108CA0A0000BC8F0108C2D50108F9
:10597000D3080000F4010020F10B0000F0B5B04C9A
:105980008FB02678012E08D00220AE49AE4AFDF72E
:10599000CFFD022528000FB0F0BDD6225200A3583B
:1059A0000133A350D42300225B00E250FEF7AAFE8D
:1059B000051E05D0A349A54A2800FDF7B9FDE9E772
:1059C00008AF3900300003F05FF9051E51D1BB78F4
:1059D0001D1C282B00D92825BB68EDB2002B1DD03B
:1059E000681F20281AD8FAF7A1FB1212193E193C99
:1059F0003C3C193A3A3A19383819363636193434A3
:105A000019111111191919194242400008260123D0
:105A10007601A61933720CF031FAF061C3235B00F2
:105A2000E5548823FA78FF33E2547A681133E25060
:105A3000BA680833E250C822F96852000433E150D2
:105A4000A3580133A350043AA3580133A3502800AC
:105A5000CCE00726DBE70626D9E70526D7E70426AC
:105A6000D5E70326D3E70226D1E70B26CFE70A26A0
:105A7000CDE71C2803D0C222724912019CE7FDF732
:105A800097FF0500022808D000282ED06D49704AE3
:105A90002800FDF74DFD1C2D5ED100276D4BDD5D0F
:105AA0000B2D00D93CE16E01A6193369002B00D102
:105AB00036E10CF0E3F9B369002B04D0C01A336966
:105AC000984200D22CE1681E28250A2800D998E0C7
:105AD000FAF740FB9000AE00D400DD00E600EF00D6
