:020000040800F2
:1000000000500020D53201082793000829930008EA
:1000100000000000000000000000000000000000E0
:10002000000000000000000000000000210A00089D
:1000300000000000000000002B9300082D93000832
:1000400099940008253301083D93000825330108E1
:1000500025330108319400083394000835940008D2
:10006000253301082533010825330108253301080C
:1000700025330108253301082533010825330108FC
:10008000253301082533010825330108000000004D
:1000900025330108253301082533010825330108DC
:1000A000253301082533010825330108FDB1000877
:1000B0000DB200081DB200082533010825330108E0
:1000C00010B5064C2378002B07D1054B002B02D02E
:1000D000044800E000BF0123237010BD8000002011
:1000E00000000000A8470108044B10B5002B03D006
:1000F0000349044800E000BF10BDC04600000000F6
:1001000084000020A8470108030C434004485843DA
:10011000044B420B42405343180C58407047C046B2
:100120006BCAEB8535AEB2C2B0235B01C34001217F
:100130001800064A08400B4205D01378FF2B01D067
:100140005B18137070471070FCE7C0469C000020DD
:100150000300102809DC092801DC002004E0D2207B
:100160004002D840012318407047383BFF3BD52060
:10017000072BF6D9F1E7F0B5FA2504000026002791
:10018000038887B00193ED00019BAB4249D8A57865
:10019000691ECBB20B2B1FD8002332484900425AAC
:1001A000B6185F41022D17D9019A920710D1642128
:1001B000019810F07BF989B20123002908D191310F
:1001C0000198FF3110F072F98BB25A425341DBB201
:1001D0001800002136184F41E378234A013B1800EC
:1001E000D91780197941002310F08EFAE122059188
:1001F0000490002320791201002110F085FA049E5A
:10020000059F3C2236184F4100236079002110F0F1
:100210007BFA002380197941A2798018594107B0EF
:10022000F0BD03220023154210D16421280010F0F4
:100230003DF989B20123002908D191312800FF310D
:1002400010F034F98BB25A425341DBB26E33FF33B4
:100250000293DB1703930135029A039BADB2B618E4
:100260005F4191E7C047010880510100F8B583184C
:100270000D001700012683420BD3C02212019342C6
:1002800007D8114BEF19C41809F01EFC061E13D035
:100290001E263000F8BD237829788B420AD0200032
:1002A0000EF078FD002805D00123084A51680B4361
:1002B0005360EDE701340135AF42ECD10123034A2D
:1002C00051680B435360E4E7000008080020024037
:1002D00030B5C3B06B46DD1D2A0002A904000FF043
:1002E0001DFA2A78002A03D1237AA281013BA37246
:1002F00001230020A37343B030BDF8B50400030010
:1003000001270F4D0F4E1878002800D1F8BD2900A5
:10031000180013F0D9FA0028F8D0844205D0431E03
:100320001B780D2B01D00A2B06D143790D2B03D856
:100330003200DA403A4201D1431DE4E70120E5E70B
:10034000C84B010801240000F0B504000D001600A0
:100350001F0087B020001A4913F0B6FA002801D117
:1003600003301FE008300378202B1DD0092B1BD051
:1003700004002378002B20D00D2B01D00A2B15D19F
:1003800003AB00930F4904AB05AA13F0E5F903286A
:100390000ED1059BAB420BD1049BB34208D1002088
:1003A000039B3B6007B0F0BD0130DCE70134E0E7C0
:1003B00023785A1E9341E418CCE70920F2E7C0469F
:1003C000CE4B0108ABCB0108002273B5564C009010
:1003D000636868469A6280235B0101930EF0CEFD4C
:1003E000002861D16568AB685B075DD42300543396
:1003F0001A78012A58D001221A70236A93423FD1F9
:10040000A26D4A4B1A4080235B0013432200A36570
:1004100000235432E36513701C332B60AA68183B29
:100420001343AB60A369082B5AD1216E2A681A4284
:1004300065D08023A26D9B001343A365C023EA68A7
:100440001B011A4214D1631DDB7F002B10D12B68D6
:100450001B070DD5AB685B075DD40C226B6893431B
:100460006B60A26D324B1A400433FF331343A36514
:10047000E369002B01D10C332B602C6CA4B23BE060
:100480000322AB681340012B02D12A681A42B7D16C
:10049000AA68284B1A420AD01023A26D1343A36501
:1004A0000123E26D1343E365234C200076BD012652
:1004B000AB6830003343AB6009F0B4FA226E2B68AE
:1004C00033429DD1236E9B1A0A2BF8D92B683342F5
:1004D000F5D11023A26D1343A365E36D3343E2E727
:1004E000EA680C23D207A0D5A26D14331343A36589
:1004F000002354342370104C0EF0E2FED5E7226E38
:10050000521A0A2A00D891E72A68134200D08DE7D0
:100510000423A26DEAE72023A26D1343A365012300
:10052000E26D1343E365A3E79C000020FEF0FFFFAC
:10053000FEFEFFFF17000080FFFF000003000448DD
:10054000012B03D00348022B00D003487047C0465C
:100550001E4D01087B830108D74B0108C022074BC1
:1005600092021B6D0220134080225202934204D05B
:10057000034A9B185A425341D8B2704700100240B8
:100580000000FEFFF0B5694F91B020220021380035
:1005900002AD674E12F06AFF38220021280012F0E7
:1005A00065FF0C21634C644BE2680A409B180122F2
:1005B0001B7E3B770093236D9B05DB0F7B705F4BAE
:1005C0001B681340F3663F23029323685B0303D544
:1005D000A023DB026B6004E0802322685B021A42E6
:1005E000F8D1012322681A4200D0EB606368DB0473
:1005F000DB0E2B612368DB05DB0F019363681B0EA9
:100600002B62E02367681B021F406F62236D5B054E
:1006100003D5A023DB00AB6004E08023226D5B00E8
:100620001A42F8D10123226D1A4200D06B610122D7
:10063000A368F0211340AB6123688903DB01DB0F62
:100640009B188022AB62E36852021340EB62E368BE
:100650000B40C0212B63E36809040B400C216B6342
:10066000E3680B40042B27D0082B46D0002B2BD15E
:10067000802563682D021B045B0F01339D40E368F6
:100680002F4A1B061B0FD35CB766DD402D4B1D6048
:1006900009F01EFF7567306709F05CFFB06709F06D
:1006A00069FF009BF0670520012B03D123689B05A0
:1006B00025D4062011B0F0BD2568234BED06ED17BB
:1006C0001D40224BED18DAE7E3682148E1689B0200
:1006D0001B0FC35C0902E068890F013110420AD187
:1006E0002268D20605D51B4858430FF059FE050075
:1006F000C5E71648F8E71848F6E7174DBFE7174B68
:1007000064361B797377FFF729FFB077FFF726FF71
:100710000028CED0019B012BCBD1A0231B029F42EE
:10072000C7D1019B00203370C4E7C0460001002000
:100730009C00002000100240C04701080020024039
:10074000EE4701080000002000E548FF0024F40007
:10075000E547010800093D0000127A001C01002055
:10076000F0B585B002933F4B009001921A783E4E4F
:10077000CDB2012A74D001221A7002233B4A1370B1
:10078000B3689A68CA225A62773A5A620DF014FF27
:10079000002823D10B9BB468D8B20AF0F9F90A9B60
:1007A0000390D8B20AF0F4F96B460700187A0AF001
:1007B000EFF93F02039B0004384318432C4B2D4AAA
:1007C00018402060A3681340A360A368A3600DF0E5
:1007D00017FF002802D10122244B1A70FF22224C5D
:1007E0000121A3685A6222002832117022004918A0
:1007F000293211701022154203D095432A000A3283
:10080000D5B2CA225A62773A5A620DF0D5FE002854
:1008100020D16B4618790AF0BBF9019028000AF044
:10082000B7F96421050000980FF04AFFC8B20AF03A
:10083000AFF92D02019B0004284318430E4BB76803
:10084000184078600DF0DCFE002803D1330001224F
:1008500029331A70FF22A36828345A6200232370B8
:1008600005B0F0BD440100201C010020450100201E
:100870007F7F7F00FFFFFBFF3FFFFF0070B586B06B
:1008800001AE30000DF07CFB68460DF0A3FB0023A9
:10089000154A002130780FF037FF002304000D00C7
:1008A000124A002170780FF02FFFFA2224184D41D0
:1008B00000230021B07892000FF026FF0C4B241883
:1008C0004D41596900290BD0FA20029B8000CB1AB8
:1008D000584301310FF064FD00230200A4185D416C
:1008E0002000290006B070BD80EE360060EA0000EE
:1008F0001C010020284BF7B51D68284B28481F68AD
:10090000284B68401B680093FFF7FEFB244B040054
:10091000F818FFF7F9FB244A009B06009818FFF728
:10092000F3FB019020007040FFF7EEFB019B43407A
:100930001800FFF7E9FB04002818FFF7E5FB022287
:100940001A4B1B4E5A770123F56AAA681343AB6012
:10095000F36C022B0CD0032B14D00020012B0DD1F3
:1009600063BA2402240E2B802C70F36A186805E009
:100970001023DC4180B22C602880286801232C36AB
:100980007377FEBD009B2C602860F8180019FFF7F4
:10099000BBFB2860F1E7C0465000F81F5400F81F69
:1009A000B979379E6400F81F72F36E3C480100204D
:1009B0001C01002070B5164C40221648164912F052
:1009C000A1FF164D236DAB4204D18023626D5B0203
:1009D0009A4210D02000342200215C3012F046FDF3
:1009E00080235B02636501232565A3650DF0AAFAE8
:1009F0008C34206070BDA36D013B012BEAD823002D
:100A00008C331E680DF09EFA8642E3D1F2E7C046B1
:100A10001C0100206C01002000E0010854425544F4
:100A20007047024BD868C006C00F704700280040CE
:100A300010B5262204000021013012F017FD012319
:100A4000032223706271A37110BD03000348052BBC
:100A500003D8034A9B00D218106C7047D74B01088B
:100A6000C047010803000548022B06D00448FF2BAD
:100A700003D00448012B00D003487047117E0108C1
:100A8000D74B010819650108DF4B0108021E0BD086
:100A90000179064B40794B43054941435B189179F5
:100AA000FA2292004A4398187047C04680EE3600FA
:100AB00060EA000070B5041E28D085781F230688E0
:100AC0000B2D1DD80122A521AA400901013B0A4294
:100AD00016D10133022D13D1033BB20710D164218B
:100AE00030000FF0E3FC89B21D23002908D19131B9
:100AF0003000FF310FF0DAFC8BB25A4253411C3305
:100B0000E2780132D2B29A4201D8E27070BD01237C
:100B1000ED18EDB2E3700C2D01D8A570F6E70136A3
:100B2000A3702680F2E7F8B506000D00140001203E
:100B3000002A2FD0184B99422CD800271749D7717B
:100B400030000FF02DFC6421208030000FF028FCD5
:100B500064210FF0ABFC3000A17064210FF0A6FC03
:100B60002800E1700E490FF01BFC0D492071280090
:100B70000FF09CFC08000B490FF012FC0949607152
:100B800028000FF093FC0800FA2189000FF008FC00
:100B9000A0713800F8BDC046FF5B26051027000095
:100BA00080EE360060EA0000F0B585B00C001F1E34
:100BB000019203D10125280005B0F0BD0A9B002B4E
:100BC000F8D002AE3200FFF7AEFF051EF2D1019B56
:100BD000E4180B4B9C420CD832880A4BB178534333
:100BE00064224A439B18F2789B183B600A9B1C6066
:100BF000E1E7054B3000E418FFF75CFFE9E7C0468A
:100C0000FF5B26051027000000A4D9FA10B51022BA
:100C10000021024812F02AFC10BDC046AC010020A1
:100C2000002310B51A00180003210BF077FF0023F2
:100C3000032118001A000BF071FF002010BDC22222
:100C4000054B52009A5C0548032A03D8044B9200D6
:100C50009B18986D7047C0462C080020D74B0108A0
:100C6000C04701080121154B86B0DA6A0A43DA62EF
:100C7000DA6A0A400192019ADA6A49180A43DA628A
:100C8000DA6A0A400292029ADA6A02310A43DA62A6
:100C9000DA6A0A400392039ADA6A04310A43DA6292
:100CA000DA6A0A400492049ADA6A78310A43DA620C
:100CB000DB6A0B400593059B06B0704700100240AD
:100CC00030B587B004000D000C22002103A812F0FB
:100CD000CDFB0323200001A90195029308F00CFF2E
:100CE00007B030BD30B504000D0087B0002A0ED02B
:100CF000A1610C22002103A812F0B8FB01232000FF
:100D000001A90195029308F0F7FE07B030BDA1627A
:100D1000EFE7802330B50824154A9B02916B87B01A
:100D20000B4393630021220003A812F09FFB0C23C6
:100D3000A020042501A90193C0050A3B0293059553
:100D400008F0DAFE0B4B0A201A6815431D6008F004
:100D50007FFC0F22084B05201B681A629A69144316
:100D600010229C611A6208F073FC07B030BDC046C7
:100D70000010024000440040780A002010B5084BE3
:100D8000DB7F012B0BD1C021A020C901C005FFF7DB
:100D900097FFC021A020C900C005FFF791FF10BD3B
:100DA000A5010020A02010B50A49C005FFF788FF63
:100DB00009490A48FFF784FF09490A48FFF780FFFD
:100DC00009490A48FFF77CFF09490A48FFF778FFFD
:100DD00010BDC046619800001FF2000000040050E2
:100DE000F03D000000080050FBFF0000000C005028
:100DF000FFFF0000001C0050802110B500220B48AE
:100E00004900FFF76FFF0A4BDC7F012C0AD122005B
:100E100004210848FFF766FF220008210548FFF774
:100E200061FF10BD00220421F8E7C0460004005015
:100E30009F010020000800507FB50C22002103A86C
:100E400012F014FB1023A0200193842301A99B031B
:100E5000C005029308F050FE07B000BDF0B5B9B070
:100E60000692394A059111780300384C0220012975
:100E700053D1527800209A424FD8FA21344A9B002D
:100E8000D218936E89000493324B1F6E636BFF1868
:100E900038000FF085FA3C2106000FF081FA3C2162
:100EA00005000FF07DFAFA210790890038000FF055
:100EB000FDFA300002913C210FF0F8FA2800019170
:100EC0003C210FF0F3FA079B234A0091234810219D
:100ED00012F00EFC224B234A0393069BC02102937F
:100EE000059B08A80193049B00931C4B12F000FC87
:100EF00002001E20002A10DB48342378BF2A18D9AC
:100F00002E22AF3004A909180A700130164A04A92C
:100F100009180A80012B02D0022039B0F0BD6423E9
:100F2000C022124808A909F085FF002809D1002035
:100F3000F3E792B2012BEFD1002AF8D00B486333CC
:100F4000F0E70920E9E7C046CC0100209C01002021
:100F5000C04701089C000020E64B0108D401002096
:100F6000B0850108FC4B01080D0A0000180600209E
:100F70000CB430B5B3B036AB04CB04000D0002A8FE
:100F8000C021019312F03EFC03001E20002B04DB65
:100F90002900200002AAFFF761FF33B030BC08BC73
:100FA00002B0184770B5040086B00120002C15D09F
:100FB00008220021200012F059FA01AE0822002177
:100FC00004A812F053FA30000CF0DAFF031E07D029
:100FD0000F4A10490520FFF7CBFF1F2006B070BD58
:100FE00068466D460CF0F6FF002803D003000A4A5D
:100FF0000849EFE7FA22EB78D2009B1823806B7840
:101000003288A370AB78E370B378A280A371E5E770
:101010000E4C0108117E0108264C01088021802217
:10102000F0B5414C8900236D920087B019401342FE
:1010300015D13E4B3E4A1B6E90693E4C1B1AA34293
:101040000BD91177FFF78AFAFFF778FA230000909F
:10105000394A04203949FFF78BFF07B0F0BD9620CD
:10106000400008F0F5FAFFF779FA06008020FF212A
:1010700040020DF04FFB00283ED1FFF76FFA2B4FD7
:1010800005003B6E30000593FFF758FA04902800E6
:10109000FA25FFF753FA236D284EED0001930090D7
:1010A00031000320264A049B0295FFF761FF3B6E47
:1010B000059A9B1AAB4223D380238025226D9B0186
:1010C000134380222365236912032B4323611D4BA5
:1010D000A0241968E40511431960996802200A43A5
:1010E0009A60FA233100184ADB00FFF741FF5020D5
:1010F000A56108F0ADFAA56200220D4B1A77ACE7A6
:10110000322008F0A5FA8022236D92001342CED13E
:1011100090218020490080020DF0FCFA31000B4A3A
:101120000420FFF725FFE7E7001002409C000020A5
:101130001C020020102700003E4C0108784C0108DA
:101140007C4C010800040140C94C0108F24C010824
:1011500070B50300174C080086B0012919D0032B85
:1011600017D0627FFF2A1FD100216277A177012A61
:1011700000D0E17702250495A67F02950396647F4F
:101180000D4A00900D4901940320FFF7F1FE06B0CF
:1011900070BDA27FFF2A0AD10021A2776177012AC0
:1011A000E8D00122E277E5E70132D2B2DCE7013292
:1011B000D2B2F1E71C020020224D01086E4D010859
:1011C000054B10B51871FFF74DFC0300034A0220D0
:1011D0000349FFF7CDFE10BD00000020734D01084C
:1011E000CCBB0108F0B591B02022002108A812F074
:1011F0003DF9A94BA94DDB7F18009C46431E984141
:10120000A74B404218406B6B2D30FF30002B19D09C
:10121000A44E326ED71A874232D29B1A1C18A24BA8
:10122000A24A05936346A24903930290059B0320BB
:1012300001970094FFF79CFE200008F009FA336E36
:101240006A6B9B1A9A499B4A03200691FFF790FE0E
:10125000A02001220421C005FFF744FD642008F00E
:10126000F7F9954D954B2A689A420BD0A0200022A1
:101270000421C005FFF736FD0324200011B0F0BDA6
:101280003B00DFE70F270826FFF743FD28000EF09D
:1012900009F92C6814202762A3693343A36108F07D
:1012A000D7F92762A36964203343A36108F0D0F91A
:1012B000642305222800824909F0BCFD041E00D0E9
:1012C000E7E02B0004CB176291690E439661DA6F59
:1012D000202A00D0DBE029000831C8672221D96725
:1012E000704B28661B6E29000793152358310B801D
:1012F00029005A310B808023AA685B019A4204D1ED
:101300002B69002B12D0FF230EE0002A04D12B6999
:10131000002BF8D07F2307E080235B059A4237D16A
:101320002B69002BF6D03F23059333E00600654B75
:1013300008AF0593644A1380644B5F4D1B88002BF4
:101340002BD104352033EB67642008F081F9A0200D
:1013500000220421C005FFF7C5FC002C00D08CE75B
:101360001522069808A90DF0CBFF0123584D08A8B7
:101370006E796B710CF052FE731E9E41041E6E71ED
:1013800000D07AE7534A06990320FFF7F1FD74E78E
:1013900003000590270008AECCE796232021280003
:1013A000079ADB000DF0B6FC002850D020222B1D40
:1013B000DA67EFF310801F3A82F310882968464CF1
:1013C0000B6823400B6080F31088EFF3108082F3EA
:1013D000108829688B6893438B6080F310882B6E8C
:1013E00093420AD1EFF3108183F3108810202A680A
:1013F00013688343136081F3108840212B689B6836
:101400000B4234D0EFF31080012383F310882A6855
:1014100093688B43936080F310886C6F002C26D008
:1014200000232000A36308F013FB00281FD0E36B08
:10143000202B1CD12B0010220833DA670F222B68D7
:101440000C241A629969073A0A439A617CE72B686F
:10145000059A5B6A1340002E06D13B8002371B4A77
:101460001388013B9BB266E733700136F7E72B0028
:1014700000205A3318802B000F2104CB116294698D
:101480000739214391612022DA672866D6E70A24CA
:101490005AE70924F1E6C046210200201C02002080
:1014A000980800009C0000208E4D01089C4D01080A
:1014B000CCBB0108FA4D0108780A00200044004026
:1014C00040480108FF010000D40A0020D20A002091
:1014D00000000020484E0108DFFEFFFFF0B58BB092
:1014E000051E0691079203D1012420000BB0F0BD28
:1014F00008AE3000FFF756FD041EF6D133881F4CAE
:10150000B2785C4364235343E418F3783000E41862
:10151000FFF7BCFA2B00069A194E0C33010000931A
:1015200020007243043BFFF73FFB041EDCD1EF6851
:10153000686228616861134938000EF0B7FF08003F
:10154000FA2189000EF02CFF3100049038000EF0D3
:10155000ADFF08000B490EF023FF31000390380067
:101560000EF01EFF0290AB68074A0193069B0749E5
:1015700000930420079BFFF7FBFCB6E71027000051
:1015800080EE360060EA0000744E0108CCBB010812
:1015900070B51B4B1B4CDB7F012B2BD01A4D1B4E08
:1015A00029001B4A0220FFF7E3FC0022042130003F
:1015B000FFF798FB33695B071DD529000520154A05
:1015C000FFF7D6FC08211148FFF77AFB4022124BA7
:1015D000D9691142FCD004211A680C488A431A6068
:1015E0000139FFF76DFBFA20800008F031F8012384
:1015F0000434E37770BD29000120084AE0E7C046C3
:10160000A00100209C010020B54E010800080050F8
:10161000D54E0108BA4E010800480040D14E0108DD
:101620008023F0B52E4A2F4D916BDB020B4389B01E
:101630000421936328000122FFF754FB2B692A4EF3
:101640005B0749D531000120284A0824FFF790FCA8
:10165000012208212348FFF745FB2200002105A8AD
:1016600011F004FF0323022703A903931D48DB188D
:101670000793049708F040FA0A2007F0E9FFAC62EC
:10168000C82007F0E5FF0423194AAC6111680A205D
:101690000B43136007F0DCFF0F22164B05201B687D
:1016A0001A629A69144310229C611A6207F0D0FFF3
:1016B0000023114C31003800104D114AE377FFF739
:1016C00057FCE07F0335EB7F0E4A00900E49032064
:1016D000FFF74EFC09B0F0BD310005200B4AB4E71E
:1016E0000010024000080050B54E0108E64E010807
:1016F00000480040A0060020A00100209C0100201E
:10170000EA4E0108104F0108384F0108FA4E01084F
:101710000C4B70B5DB7F05000B4C0220012B08D170
:10172000E31CDD77FFF79EFA002D03D1FFF730FFB2
:10173000002070BD0434E37F002BF9D0FFF770FF69
:10174000F6E7C0469D0100209C010020F0B587B05F
:10175000FFF788FA644E654C736ADA0704D5802275
:10176000616B92000A4362639A0708D58021226B5D
:1017700049010A432263226B0A400092009A5A07E9
:1017800004D58022616BD2010A4362631A0704D533
:101790008022A16B92020A43A263DA0604D580225A
:1017A000A16BD2020A43A2639A0604D58022A16BE0
:1017B000D2030A43A2635A0604D58022A16BD20544
:1017C0000A43A263DB0503D50123626B1343636302
:1017D000331DDB7F012B0CD1002204214448FFF78D
:1017E00081FA08214248FFF76BFA03214048FFF7CE
:1017F00067FAFFF7D7FAFFF7FFFAFFF71DFB802321
:10180000626BDB0113436363C023DB000193A02001
:1018100002230025042701A90293C0050133049384
:101820000597039508F068F9324B0A201A680236CA
:1018300017431F6007F00CFF0F2208272E4B0520CF
:101840001B681A629A693A439A6110221A6207F079
:10185000FFFEFFF75EFA8023A26BDB031343290030
:101860003A00A36303A811F001FEC0231B010193FA
:10187000122301A9029321480C3B059308F03CF97F
:101880008023A26BDB05134329003A00A36303A85E
:1018900011F0ECFD8023A0205B000193EE3B02934E
:1018A00001A90B3BC005059308F026F9802301A987
:1018B0009B000F48019308F01FF9A0202A00802107
:1018C000C005FFF70FFA2A0020210C48FFF70AFA9B
:1018D000FFF754FA0A4A0B490320F577FFF748FB54
:1018E000280007B0F0BDC0469C0100200010024057
:1018F0000008005000380140180600200004005085
:101900003E4F0108B54E0108010000230F2070B5BD
:101910000A00DA400240092A11D80433202BF7D1FB
:101920000023012418000F260A250A00DA4032405D
:10193000624304336C438018202BF6D170BD002025
:10194000FCE7182806D8002803D0054BC340012027
:1019500018407047483843425841C0B2F9E7C04682
:101960005E110001F0B5461DF37F9DB01393831DFA
:10197000DB7F04001493C31DDB7F11930300083346
:10198000DD7F20331B781593030029331B781693D2
:1019900003002A331B78179303002B331B7813980B
:1019A0001893FFF7CEFF01231293984201D1139BA6
:1019B0001293129B1498F377FFF7C3FF0126B042EE
:1019C00000D1149E0027A31DDE77119BBB4206D0D9
:1019D0001800FFF7B6FF0137B84200D1119FE31D91
:1019E000DF77002D00D06BE00023199354226B4663
:1019F0009B18159A1B78002A00D00123DBB21A939A
:101A0000169B0A20002B00D01800179A0523002AE5
:101A100000D01300FA21642289005A4341431B93EA
:101A20008A4205D90A234343DBB2002B56D01B93CD
:101A300021001A9A28310A70189A4870013A8B705E
:101A400051424A412B34D2B2944622701399129AD1
:101A50008A4213D1149A964210D1119A97420DD10D
:101A6000199A95420AD1169A904207D1179A9A422A
:101A700004D1159A18990A43012A1ED964460C9379
:101A8000179B0E940B93169B189C09931A9B0A9014
:101A90000893159B04200793199B114A0693119BE9
:101AA00010490393149B04970193129B0296009391
:101AB000139B0D940595FFF75BFA00201DB0F0BD58
:101AC0002800FFF73EFF012803D11995AE4200D34D
:101AD0008CE7230000220833DA7785E70123A6E7A5
:101AE000814F01080D50010810B52D22040000217E
:101AF000023011F0BBFCA32309222370333B637037
:101B0000E31CDA77231D1B32DA7701230A21621DD9
:101B1000D377A21DD377E21DD37721321370517092
:101B2000537105392300917004222E3320001A705E
:101B3000FFF718FF10BD73B50400504D02202900B7
:101B40004F4AFFF715FA23784E49A12B03D04E498F
:101B5000A32B00D14D494E4A009102202900FFF7E6
:101B600007FAA61C637829004A4A0220FFF700FA08
:101B70000A223100484809F0C9FB210010224748D9
:101B80000C3109F0C3FB2100052245481C3109F046
:101B9000BDFBE11CC97FF37F424A0091022029006E
:101BA000FFF7E6F9231DDB7F3F4AD909019199062A
:101BB000890E009102202900FFF7DAF9631D290040
:101BC000DB7F3A4A0220FFF7D3F9A31D2900DB7F10
:101BD0000220374AFFF7CCF9E31DDB7F3549002BA4
:101BE00000D13549009102202900344AFFF7C0F99D
:101BF00023000833DB7F3249002B00D131490091AB
:101C0000314A29000220FFF7B3F9230028332900C5
:101C10001B782E4A0220FFF7ABF923002933290055
:101C20001B782B4A0220FFF7A3F923002A3329004F
:101C30001B78284A0220FFF79BF923002B33290049
:101C40001B78254A0220FFF793F92449244A8B7C0C
:101C5000898A022000912900FFF78AF921002300D8
:101C60002E3109782C331B782D34019121781D4AAF
:101C7000009102202900FFF77BF973BD0D50010888
:101C80003F500108115001081D500108165001086D
:101C9000605001087F50010899500108A9500108BF
:101CA000B5500108C5500108DE5001081651010861
:101CB00034510108317301086ABD0108525101080D
:101CC0003450010825500108765101089951010846
:101CD000AF510108C5510108DB5101080000002087
:101CE000F15101080852010870B508240300411899
:101CF000094D0A481A7812025040220006B24000EC
:101D000080B2002E00DA6840013AD2B2002AF5D142
:101D100001339942EED170BD21100000FFFF000099
:101D2000030070B5C0249D18080024010121A542BC
:101D300004D80349591811F0E5FD0021080070BDD1
:101D4000000C0808F8B5C023861805000F00012014
:101D50001B019E4212D807F0B7FE00280DD12C00BF
:101D60007B1B195D0A4BE0180DF014F8002806D013
:101D70000123084A51680B4353601E20F8BD01340B
:101D8000A642EDD10123034A51680B435360F5E7A6
:101D9000000C0808002002407FB56C460922002193
:101DA000E01D11F063FB134B134D009301232371CE
:101DB0006B7D10216371AB7D6846A3712B8B2381F2
:101DC0006E8B0136B6B26681FFF78EFFA081287F49
:101DD000502101300EF06AFB102229770801694674
:101DE000FFF7B0FF002802D16E8304B070BD1E2043
:101DF000FBE7C0464754534D9C020020F0B5002439
:101E00002600270097B00A2221004148009401943F
:101E10000494029411F02AFB102221000EA811F064
:101E200025FB0594079408940394069B0AAD0A9336
:101E3000009B10226B71019B2900AB71029B380142
:101E40006B81049B2C71AB81FFF76AFF0A9B0990A1
:101E500006936B792C790093AB7901936B8902938C
:101E6000AB890493002834D1069B2A4A934230D18F
:101E7000012C2ED1009B472B2BD8019B482B28D817
:101E80001022290012A811F03DFD099A102112A874
:101E9000AA85FFF729FF049B98421AD1039B002BC8
:101EA00003D0029B9B1B1B0413D41A4B0AAD0A934D
:101EB0000123102229000EA82B7111F023FD2B897C
:101EC000029E0593144B03941F77019B0793009B7D
:101ED00008930137502FA8D1039A0F4B002A08D13D
:101EE00001321A831A75FFF757FF00280CD01E2005
:101EF0000BE0089A5E835A75079A9A75059A1A83B9
:101F000001221A75002EEED0002017B0F0BDC04699
:101F1000B00200204754534D9C02002070B5154E6E
:101F20000500337D0C00012B05D0FFF767FF00286B
:101F300001D01E2070BDB37D0120AB42FAD9707D67
:101F4000482140190EF0B2FA1822A0235143DB00B9
:101F5000C8182100FFF7E4FE0028EAD103002100A1
:101F6000A27D16340D7801316B40A142FAD19A421C
:101F7000E0D0DEE79C02002070B50F4C0500237D09
:101F8000012B05D0FFF73AFF002801D01E2070BDBD
:101F90000021A67D0B00AE4207D9607D4831401973
:101FA0000EF084FA761BC9B2F3B26175A375FFF720
:101FB000F3FE0028EBD0E9E79C02002003000800B4
:101FC000991870B50124994208D3C0252D01A94262
:101FD00004D803490024591811F094FC200070BD66
:101FE00000000808012310B5002805D0027A002A55
:101FF00002D0FEF76DF90023180010BDF0B5CDB08A
:10200000040003910120002C3DD0A37B83423CD1EE
:10201000237A06AE0193A07A190001300EF046FA39
:102020006B4604911B7C3200059300230893A3891F
:10203000677A01339BB202931D4B7771069301239C
:102040003371029BF38009AB23CA23C33A00180003
:10205000039911F057FC390009A80C31FFF744FE31
:102060000199070060680EF09BF9049B0C22434322
:10207000180023683100C51828003781FEF7F6F8EC
:10208000002808D01E204DB0F0BD2000FFF7AAFFA9
:102090000028BDD0F6E72800627A03990C30FEF7DD
:1020A000E5F80028EED1059BA372029BA381EAE725
:1020B0004746435300B58DB001002F22684611F00A
:1020C00021FC6846FFF74EFC69460248FFF796FF81
:1020D0000DB000BD0800002070B5837B04000D002A
:1020E0001600012B06D12000320029000DF016FB4E
:1020F000002070BDFFF776FF0028F4D01E20F8E71F
:1021000073B56B460500DE1D320029000948FFF754
:10211000E3FF041E0BD133782800002B04D1FFF716
:10212000E3FC0234200076BDFFF71CFCFAE71E2416
:10213000F8E7C04608000020F0B591B00600012580
:102140000291002835D0002933D004A8FFF7D8FF2A
:10215000FD2305001D4018422AD102AAF03B9B181E
:10216000DF7F154C3800FFF7ECFB012817D0134F29
:10217000029B21001B68180003930EF097F97A1A4E
:10218000B94203D3641ABC4213D2E219029B0399E9
:10219000009330683300FEF707FD050009E07C433B
:1021A000002C06D0054B1F009C42E1D86708DFE7F2
:1021B0001E25280011B0F0BD80EE3600C0D401000D
:1021C000F0B5444B0025DB7F434C8FB0012B7DD114
:1021D000230048335B78012B78D1276B666B3B007B
:1021E0003343AB4201D1A76AE66A236D0025BB42A7
:1021F0006CD1636D0C93B34268D9384A9B1B9342F0
:1022000064D8374B310000933800364B364AFEF71E
:10221000CBFC051E5AD132493248FFF78DFF051E0F
:1022200054D1636D30000D932F4B30490B930EF05A
:102230003DF90800FA2189000EF0B2F82C490A9005
:1022400030000EF033F9080028490EF0A9F82849AB
:10225000099030000EF0A4F8244908900D980797D3
:102260000EF024F90800FA2189000EF099F82049AF
:1022700006900D980EF01AF908001C490EF090F81F
:102280001B4905900D980EF08BF80490236D1749AB
:102290000C9803930EF00AF90800FA2189000EF059
:1022A0007FF8134902900C980EF000F908000F49CE
:1022B0000EF076F80E4901900C980EF071F83B0084
:1022C00000900C4A03200C49FEF752FE28000FB084
:1022D000F0BDC0469E0200209C020020BFD4010039
:1022E000F0020020EC020020C0D4010060EA0000EF
:1022F00080EE360037520108CCBB0108F0B595B02E
:10230000FEF78FFB0590012811D0374B374CDB7857
:10231000002B04D00420364A3649FEF729FE00225D
:1023200070342280E2700224200015B0F0BD06A8AF
:10233000FEF738FE041EF7D108A8FFF7E1FEFD23E3
:1023400004001C40184249D1E03B02AA9B18DD7FE3
:102350002800FFF7F6FA012842D10221224BFF3173
:102360001A88224F8A4205D19A78AA4202D1DB7894
:10237000012BD9D03E002900703606A8B5700AF0AE
:10238000BDFE00282ED10223FF333380013BBD6FF9
:10239000FF3BF370B3782800174905930EF086F8D9
:1023A0000800FA2189000DF0FBFF14490390280072
:1023B0000EF07CF8080010490DF0F2FF0F49029072
:1023C00028000DF0EDFF01907B6F0D4E0093320061
:1023D000059B08490320FEF7CBFDA5E71E24A3E7D4
:1023E000059DBAE7059C9FE70C0300209C02002096
:1023F000C1520108CCBB010860EA000080EE360043
:10240000FD52010810B58EB002A8FFF779FEFD233A
:1024100002001E201A4216D1EF3B6B44DC7F2000E5
:10242000FFF78FFA012800D00124084B2100019307
:10243000074B08480093084A084B0AF0FDFB0028A8
:1024400001D1FFF7BDFE0EB010BDC0463D530108DF
:102450005A530108BC0200204356525320BF0200C9
:1024600000B58FB002A8FFF74BFEFD2302001E202F
:102470001A420FD1EE3B6B44D97F074B07480193BB
:10248000074B084A0093084B0AF0D6FB002801D1FD
:10249000FFF796FE0FB000BD70530108E402002064
:1024A00090530108544D474D00530700F0B595B0C7
:1024B0000F90002802D1012015B0F0BDFFF7A2FF58
:1024C000FD230A901842F7D1FFF7CAFF071E04D078
:1024D0000228F1D10A9B002BEED112AC2000FEF7AE
:1024E00061FD0028E8D12288864BA17853436422FD
:1024F0004A439B18E27820009B180B93FEF7C6FA1C
:102500000A9B0E90002B07D0002F00D1DBE07E4B02
:102510000F9A596D186DEDE00A9B0C937A4C0B9B4A
:10252000A56AE66A9D4203D35CD80E9B9E4259D8A9
:102530002200636C44320192220020001093230099
:102540002C32009229003200203028330AF064FC3B
:102550000028B1D10C9B6D4901330C93E36A0D93B4
:102560000C9B0D980893109B07930DF09FFF08009C
:10257000FA2189000DF014FF654906900D980DF0C1
:1025800095FF080061490DF00BFF614905900D981A
:102590000DF006FF0490A36A30005C4903930DF030
:1025A00085FF0800FA2189000DF0FAFE58490290D3
:1025B00030000DF07BFF080054490DF0F1FE544946
:1025C000019030000DF0ECFE2B00524A0090524971
:1025D0000420FEF7CDFC80230C9ADB009A429DD1AB
:1025E0001F2069E7002F00D081E001231093002510
:1025F000454C0B9A236D0D93636D0C930D9B934289
:1026000004D362D80C9B0E9A93425ED82600270012
:10261000E36E503654371193404A33000E990B98AD
:102620000097FEF7C1FA002800D044E739003000D7
:10263000FFF782FD002800D03EE7384B666DE0666C
:102640000893119B300031490135079309950DF02E
:102650002DFF0800FA2189000DF0A2FE2C490690FA
:1026600030000DF023FF080028490DF099FE28499D
:10267000059030000DF094FE0490236D0C982349D2
:1026800003930DF013FF0800FA2189000DF088FE76
:102690001F4902900C980DF009FF08001B490DF02E
:1026A0007FFE1B4901900C980DF07AFE1A4F0D9B8E
:1026B0000090390004201A4AFEF75AFC8023DB0000
:1026C0009D4295D18CE7109791E70A9B002B14D07F
:1026D000109B012B00D01AE7236DA56A9D4200D9FB
:1026E00015E7E66A03D3636D9E4200D30FE731001E
:1026F00028000F9AFEF717FADEE6FFF761FD0028C3
:10270000E6D0D9E6102700009C02002060EA000015
:1027100080EE3600A3530108CCBB010830750000E1
:102720002F540108F0B54624002393B005006C44F3
:1027300006A82370FFF7E4FC11AB1B78012B03D034
:102740000124200013B0F0BD04AF38002678FEF756
:1027500029FC041EF4D145226A443B791078834257
:1027600001D3B342ECD301900093044A2B000449F7
:1027700002960320FEF7FCFBE3E7C046C4540108C1
:10278000CCBB0108F0B58FB0070002A80E006C4664
:10279000FFF7B6FC002368462371FEF703FC051E15
:1027A0001DD136236B441A7823799A4202D86846A1
:1027B000FEF780F935236B441A7800232188637172
:1027C000A371084BA0784B43642141435B18E17827
:1027D00020005B183B602271FEF758F9306028003A
:1027E0000FB0F0BD1027000037B56B460400DD1DAB
:1027F0002A0021000748FFF76FFC002807D12B783B
:10280000002B03D12000FEF713F902203EBD1E204D
:10281000FCE7C046180000200021F0B5E1B040AE52
:10282000402212903000179110F020FEC64C17AFD6
:102830003A003D21200006F064FDC44D00280AD076
:1028400000903D2329000420C14AFEF791FB00249B
:10285000200061B0F0BDF9783B780291B978022090
:1028600001917978BB4A00912900FEF781FB3B7802
:10287000F52B05D1FB785F2B02D1BB78002B05D15E
:10288000B54AB2490220FEF773FBE0E7102B05D9E9
:1028900029000420B14AFEF76BFBD8E77A780220C2
:1028A00011929A00D2B213921399AD4A01910093FA
:1028B0002900119BFEF75CFB2000BB7832001199C8
:1028C00007F030F8BB78041E08D00190009329006F
:1028D000A44A119B0420FEF74BFBB8E7F1780220D5
:1028E0000491B178A04A03917178029131780093F4
:1028F0000191119B2900FEF73BFB3378FF2B00D0A1
:10290000B7E0B27873781343F278134301D001F043
:1029100078FC119B29000220944AFEF729FBBB7822
:10292000012B06D0012104200091914A2900FEF7D5
:102930001FFB854E8F4A3000119906F0EBFC0028F2
:1029400008D08D4A119B009029000420FEF710FB4F
:102950001E247DE7F42350AC2370119B0520637087
:10296000864B638006F074FE300022003D2106F0A5
:10297000D1FC061E03D03D23814A0090E4E7E178B4
:1029800023780291A178734A019161780220009125
:102990002900FEF7EDFAFE230193FD3B794A0093EF
:1029A0002900119B0220049603960296FEF7E0FA96
:1029B000B822754B26701B6E139306AB9B181E70C6
:1029C000614B34AF3A001800002112930AF074FDF5
:1029D0005E4C031E6D4A08D10121129850AA0AF0DC
:1029E0006BFD061E23D00300694A21000420FEF778
:1029F000BFFA0A2006F02CFE634B139A1B6E9B1A3B
:102A0000962252009342DBD350A9097806AB743A60
:102A10009B181B785F4A009104202900FEF7A8FA52
:102A200029005D4A119B0420FEF7A2FA90E794204A
:102A300006A940000918097827383B78574A0091C1
:102A4000FF382100FEF794FA08223B781342D0D0D9
:102A50002100534A0220FEF78BFA85213300182209
:102A6000490112980AF0F8FD21004E4A119B0220FC
:102A700011E7012B00D078E17378D42B01D001F05D
:102A8000C0FBB3780E2B01D901F0BBFB464ADA40FC
:102A9000D20701D401F0B5FB2900444A0220FEF719
:102AA00067FA06220021129810F0E0FC139940AC5E
:102AB00023780391E1783E4F0291A17802200191A1
:102AC00061783C4A00913900FEF752FA6378D42BC2
:102AD00002D0394A3900CAE7129AA5789370D570A6
:102AE0000E2D2CD828000DF0E7FC092D2A082A20ED
:102AF0002A2A2A2A2A2A2A2A2500042518AE33003F
:102B00004022280050A905F06FFF041E00D09FE668
:102B100033782AAA1493149920AB50A806F0A6FD86
:102B2000041E4FD0254B1C7292E60123129A0625F3
:102B30005370E3E70123129A0F255370DEE72B0051
:102B40001F4AC7E70225D9E71C030020CCBB0108B8
:102B500003550108325501085D55010885550108E6
:102B6000B5550108E25501081356010851560108F0
:102B70007656010845480108A4560108014F000097
:102B8000D4560108085701089C0000204F5701083F
:102B90007B5701083158010869580108A7570108F7
:102BA000D85701080C5801082B4000009358010821
:102BB000EB580108C0580108EF580108DC09002053
:102BC0001A590108914B34AE3380914BB570119373
:102BD0001B78904DF070012B24D1E86A002821D099
:102BE0003200202106F096FB002808D020238A4AD4
:102BF000009039000520FEF7BBF91E2492E7F37818
:102C0000864F0393B37839000293737802200193BF
:102C10003378834A00932023FEF7AAF9119B1B788F
:102C2000012B01D002247DE7E86A0028FAD029218F
:102C30007C4A06F06FFB002803D029237A4A0090D3
:102C4000D7E70323039402940194009339002633B9
:102C50000220764AFEF78CF9119B1C78012CE1D1F9
:102C6000ED6A002DDED020AB1B78002B00D159E798
:102C70006F4B052034AC349306F0EAFC3D2128006C
:102C8000220006F047FB6549051E03D03D23694A33
:102C90000090AFE7E07823780290A078664A019030
:102CA000607800900220FEF763F925700825634ED6
:102CB000376E584BD86A002848D034AC2200002127
:102CC0000AF0FAFB002841D123782B423ED05C4A1F
:102CD00052490230FEF74CF90123129A50AD13709D
:102CE0002B78584C13716B7840AE5371564B3200B1
:102CF0002380524B55491B6E5548E36023690133CD
:102D0000236100236380E3802372139B06F029F97B
:102D10003388129AA380129B280014995B7812784A
:102D20000AF0E8FE1298129B40789B780390129864
:102D3000484A4079394902901298007901901298D6
:102D4000C07800900220FEF713F980E50A2006F013
:102D50007FFC9622336E5200DB1B9342A9D334AB27
:102D600004201B783C4A2D49B4E7102B00D0D3E354
:102D700073785A1E032A01D901F043FA17AFB978C4
:102D8000364A01911199022000912900FEF7F0F8CE
:102D9000334B204E1879FDF758FE31008C310978FD
:102DA0000300029131006031097802200191310065
:102DB0008E3109782B4A00918D362900FEF7D8F81C
:102DC0003378002B00D18AE340A90B78134D264AB3
:102DD000102B00D080E3BA78C8784E781392049014
:102DE00089780193139B03910093290003201F4AC4
:102DF000119B0296FEF7BCF8701E032800D969E308
:102E00000DF06EFB36006003E101660301D4FFFFA5
:102E1000440300201C03002044590108EB5801081A
:102E20006F59010849480108A6590108D0590108FD
:102E3000F420014F065A0108365A01089C00002070
:102E4000615A0108DC09002001030000E5090020A7
:102E5000F8090020AF5A0108845A0108E55A010810
:102E60004C030020215B01085B5B01088D5B0108BE
:102E70001022002150A810F0F9FAF04EF04C3079F1
:102E8000FDF7E3FDEF4D030029000320EE4AFEF7B6
:102E90006FF8230060331B78002B08D03079FDF7E2
:102EA000D4FD29000300E94A0320FEF761F800275A
:102EB000230020000125260010223900603348300D
:102EC0001F7010F0D3FA636E28005B19303663660A
:102ED00035710CF075FA636EDD4ADA490320FEF7AE
:102EE00047F823008E331D702300DA4E9033326E84
:102EF0003900246B1A602AA8072210F0B7FA0822BA
:102F0000390034A8209710F0B1FABC4228D002232F
:102F10002900200034AA06F005FDB84220D107227E
:102F200034A92AA810F0EEFCA37BBB4205D10722EE
:102F3000E01D2AA910F0E6FCA5732AA8857903787C
:102F400005954579C44A04950579BE490395C57828
:102F5000029585780195407800900120FEF708F8E9
:102F6000FF21200020AA06F0CCF9209DFF2120009F
:102F7000013520AA209506F0CDF9326E0026D10940
:102F800053034B40290053405A0459404A405B09BF
:102F90005A40AB4BA94C14921293300007210DF00C
:102FA0008FFB9020149A06ABF2401B185B5C20A9A3
:102FB0005340032232408A5C371953406B227243DC
:102FC000013653403B72102EE7D1237A0295A17A45
:102FD0009C4F0191617AA14A00918E383900FDF72A
:102FE000C7FF1298042321219D4A006B06F0DAFCEA
:102FF00000280BD0390005209A4AFDF7B9FF0022BE
:103000008E4B05241A71984B1A704BE0042339003B
:10301000964A009303201D33FDF7AAFF129850AD86
:1030200004232A002121006B06F07CFC002875D0C7
:1030300000902123390004208D4AFDF799FF0224D6
:103040007E4D20002C717E4E0CF0BAF920000CF061
:1030500091F9139911980AF071F9041ECFD10AF071
:10306000C7FA784F834A39000320FDF781FF28799A
:10307000FDF7EBFCE97A03000591A97A032004919E
:10308000697A7D4A0391297A029131009031096869
:103090008E360191317800913900FDF769FF77484C
:1030A0000AF01AFC654E664D3079FDF7CEFC29001A
:1030B000E9238C31097806AAD21813780491704953
:1030C0008E3509786F4F039129786F4A02910190EC
:1030D000390002200094FDF74BFFE92306AAD3181C
:1030E0001B78012B00D0FCE1002C00D00AE23079E3
:1030F000022801D0FFF7ABFB2B78002B01D1FFF7A3
:10310000A6FBF17A337A0291B17A604A0191717A21
:1031100000913900FDF72CFFFFF799FB3200504971
:10312000280010F07BFB060073427341E97B584A8C
:103130000F91A97B03200E91697B0D91297B0C9146
:10314000E97A0B91A97A0A91697A0991297A089109
:10315000E9790791A979069169790591297904910D
:10316000E9780391A9780291697801912978009111
:103170003900FDF7FDFE002E00D160E7E17D237AE6
:103180000E91A17D434A0D91617D04200C91217D1A
:103190000B91E17C0A91A17C0991617C0891217CD1
:1031A0000791E17B0691A17B0591617B0491217BD5
:1031B0000391E17A0291A17A0191617A009139003B
:1031C000FDF7D6FE3BE734AC10220021200050AEC4
:1031D00010F04CF910220021300010F047F9184B84
:1031E000164D14932879FDF730FC164903002A4A3E
:1031F00003201291FDF7BCFE164BE87A196E149B62
:10320000264A8E331B780490A87A0390687A02903D
:10321000287A0190149890300068091A00910320D0
:103220001299FDF7A5FE2B79022B3BD005201C4AF5
:103230001299FDF79DFE042434E7C0464C0300209C
:103240001C030020EB580108DA5B0108075C010849
:10325000485C01089C000020735C0108A25C010826
:1032600054030020D25C0108AA030020E95C010895
:10327000205D0108625E0108805E0108E25E0108CF
:103280007C030020CCBB010825620108766201089E
:10329000595D0108E55D0108F15E0108195F01084B
:1032A000665F0108032314982B7122002521006B0F
:1032B000013306F037FB071E07D000902523E24AB2
:1032C00012990520FDF754FE99E6E17823780291E2
:1032D000A178DE4A01916178032000911299FDF7EF
:1032E00047FE14983100383009F042FFE97D2B7A0F
:1032F0000E91A97DD64A0D91697D03200C91297DFF
:103300000B91E97C0A91A97C0991697C0891297C3F
:103310000791E97B0691A97B0591697B0491297B43
:103320000391E97A0291A97A0191697A009112993F
:10333000FDF71EFEE17B23780E91A17BC54A0D911E
:10334000617B03200C91217B0B91E17A0A91A17A98
:103350000991617A0891217A0791E1790691A17921
:1033600005916179049121790391E1780291A17825
:103370000191617800911299FDF7FAFDF17B3378A4
:103380000E91B17BB44A0D91717B03200C91317B7E
:103390000B91F17A0A91B17A0991717A0891317A97
:1033A0000791F1790691B17905917179049131799B
:1033B0000391F1780291B17801917178009112999D
:1033C000FDF7D6FD3B00E25CF15C01334A40174358
:1033D000FFB2102BF7D1A14D002F3DD12B000426B9
:1033E00030331E712B008C331F70AB6E9C49013340
:1033F000AB669C4B20001A6EEF656A671A6E9A4B9B
:103400005B6B9B18AB652B00012260331A7009F0CF
:10341000AFFE03200BF0D4FF30000BF0ABFF13998D
:10342000119809F08BFF041E00D0E8E50AF0E0F8DF
:103430002B008E338D4A8E491F700320AB6EFDF733
:1034400097FD94358B480AF047FA2B68002B00D182
:1034500028E68348984725E62C0029000526EA6ED1
:103460008C3401322378EA667E4A3031126E0133A1
:10347000DBB2AA670E71804A7D4930002370FDF7E8
:1034800077FD30000BF09CFF04200BF073FF1399C5
:10349000119809F053FF002800D0B0E50AF0A8F811
:1034A0002B0098331B68002B01D0207898472A0006
:1034B0000023303271488E3513712B7001240AF0CD
:1034C0000BFAEFE56E4A29000320FDF751FDE9E50F
:1034D0006C4AF8E733006C4A29000420A9E6062468
:1034E000E0E5032B0ED13079FDF7AFFA674B3900D9
:1034F0001B78674A02932B780090019302202300E7
:10350000FDF736FD14235B422341DB0701D4FFF7AF
:103510009EF91F24FFF79CF9202B01D000F071FECB
:1035200040AB5B78013B022B01D900F06AFE290019
:10353000432517AB9B7802200093564A119BFDF759
:1035400017FD06ABED1801232B70534B534C1B7822
:10355000002B01D100F052FEE369002B01D100F0F5
:103560004DFE236A002B01D100F048FE1A7930335A
:1035700014921B78042A01D1002B38D1484A3C49C7
:1035800000930420149BFDF7F3FC0021E36B2A0059
:1035900001330800E36309F009FF012009F052FF3D
:1035A000287809F071FF09F0EFFF022311933D4BDA
:1035B0002A4D1879FDF749FA2B0060331B783A4CF5
:1035C00001930090119B21000220384AFDF7D0FCA6
:1035D000119B062B01D8FFF73AF9082B01D1FFF711
:1035E00036F92100324A0520FDF7C2FC91E702209E
:1035F00009F028FF11900028D9D120AD0100252223
:1036000028000FF033FF2A003021E06905F079FE31
:10361000174E00280BD03023264A00903100052099
:10362000FDF7A6FC062009F00DFF0723BEE70823DF
:103630003121E06921AA06F075F9159000283DD0E6
:1036400031231D4A0090E9E7825F0108B65F010857
:10365000E85F01084F600108B56001081C03002005
:10366000640300209C0000209C0100201B610108D5
:10367000EB58010845610108526101088B6101089E
:1036800095610108CC610108FB6101087C03002001
:10369000C562010809630108DC0300209C030020C7
:1036A000376301084C030020CCBB01080964010802
:1036B000346401085D630108846301088C212023C0
:1036C00006AA52181370E9792B780691A97902207D
:1036D00005916979CA4A049129790391E97802919F
:1036E000A9780191697800913100FDF741FC2B78B0
:1036F000202B07D00323C34A1193936B0127013377
:1037000093634BE020AEF3781193002BF2D17378E2
:103710001393013B022BEDD818AF202211993800EA
:10372000B5780FF0A3FE119B02200293139BB64ABB
:103730000093B64920230195FDF71AFC139B022B39
:1037400000D13AE1AF4B1293139B032B00D1FBE165
:10375000022D0FD02B00103B042BCBD828001138A2
:1037600050AC032800D97FE00CF0BAFEBA00C700C5
:10377000050115013379012B01D900F046FD50AE4A
:10378000300005F0A8FD002867D005F067FD002592
:1037900007009C4A1595536B01335363432406ABD2
:1037A000E4182200159918A809F000FE002800D09E
:1037B0003BE7380009F046FE002800D035E72078C6
:1037C00009F062FE002800D02FE709F0DDFE119B12
:1037D000002B00D0EBE68E4B11981978894A1870AF
:1037E000002900D1E3E6106F002801D005F030FF7A
:1037F000BFF34F8F874B884ADA60BFF34F8FC046C5
:10380000FDE7509B1B0ADAB2844BDB7F012B03D010
:10381000023B59424B415B00A52181487172B27253
:103820003100F372FEF7EAFB071EAED1200027221B
:103830003100443010F066F8230001226B331A7017
:1038400023006C331A70642320A94879434323670B
:1038500018AB1A700A795A709BE7337A002BD0D1D3
:10386000119B3B80032794E7200005F03FFD0028D3
:103870008BD13022357906A97679FF32521852ABB6
:1038800031002800DB7FD27F05F0FDFC002801D14C
:1038900000F0BBFC2E2306AAFF339B18DD7797238D
:1038A0005B009B18DE772000FEF75CF82000FEF737
:1038B00001FC0123051E09D112982F22210074302A
:1038C00010F020F80122574BDA77002350AA928C8F
:1038D00028003A80BB7005F0C1FC0325070058E7BB
:1038E000200005F003FD0025A84202D1A38C3B80F7
:1038F000023505F0B3FC07004BE7200005F0F6FCAD
:10390000002800D041E720AB1D79280005F0B0FC6D
:10391000002801D100F079FC002D08D0972306AAD9
:103920005B009B18DB7FAB4201D200F06EFC5022A3
:1039300006ABFF329B181D702000FEF713F8200025
:10394000FEF7B8FB0126051E08D112982F22210090
:1039500074300FF0D7FF334BDE772E005022280053
:1039600006ABFF329B181B787E703B7005F076FC2F
:10397000022507000DE7200005F0B8FC0025A8424D
:10398000B7D152ABDB7F06AA3B7097235B009B1835
:10399000DB7F7B70ACE7200005F0A8FC002809D194
:1039A0005AAB1B7878703B70788005F057FC0700A5
:1039B000149DEEE600231493F7E7681E052800D94E
:1039C00098E60CF079FD0303356A89A8164A174C6E
:1039D000D37F0133191CDBB2002B00D10121D17739
:1039E00005F0DAFA631DDB7F3B70002801D003236A
:1039F0001393139B7B70636BBB700023FB70D4E746
:103A0000AF6301089C030020E9630108EB5801083B
:103A10000804002000ED00E00400FA051F02002069
:103A20001800002020040020210400201C04002095
:103A30000023A24C1A0021000125A1480E7D002E72
:103A400003D02E009E40324392B2013308310B2B3B
:103A5000F4D1002301251900267D002E06D0667DB5
:103A6000002E03D02E009E40314389B2013308342A
:103A70000B2BF1D1431DDB7F7A703B70436BF970E8
:103A8000120A090ABA7039717B712830037C082543
:103A9000BB710023FB711F007BE620AB1A790A2A59
:103AA00000D9B2E33A70854B0232D2009B181879E4
:103AB0008349787058799B79B8700020FB708B1817
:103AC0001B6B38711A0A7B71BA711A0C1B0EFA71D2
:103AD0003B72092507005CE620AB1E790A2E00D94F
:103AE00093E3784A764CD37F0133191CDBB2002B69
:103AF00000D10121D17705F04FFA3E70023628340B
:103B0000F600A41923797B706379BB70A379FB70ED
:103B100000233B71EDE620AB1B79A52B00D074E3AD
:103B2000674C5822200000213C30644D0FF09EFC71
:103B300000226A702A740125634B3D701B6E1700CA
:103B400022636263E36224E6681E072800D9D1E598
:103B50000CF0C6FC080014009700C000600174015E
:103B6000E901950234A805F0C1FB0025A84200D068
:103B7000BFE63D9B053518933871BAE634A805F0C9
:103B8000B5FB002800D000E620AB1A7AD10704D597
:103B9000BD21187906AC0919C877910704D5BE2153
:103BA000587906AC0919C877BF2706A97F185107AD
:103BB00001D59979F97736AE120701D5DB79F3771C
:103BC000DD20DC2406A9091806A80019F37FFA7F76
:103BD0000978007805F057FB002800D115E334A8D8
:103BE000FDF7C0FE34A8FEF765FADB3C051E37D1B1
:103BF00050A8FEF785FA051E32D12E23DC2106AA35
:103C0000FF339B185218DB7F1278DD209A1A531E5F
:103C10009A41972306A95B005B1809180978DB7F96
:103C20002A485B1A591E8B41D318302206A9FF324D
:103C30005218D47FFA7F34A9A41A621E94411C1929
:103C400052ABF27FDB7F9B1A5A1E93412F22E4185E
:103C5000631E9C410FF056FE01221D4BE4B2DA7741
:103C60003D9B189318AB1C71002C07D0002D00D180
:103C700057E1280005F0F2FA070000E000270525CB
:103C800087E534AC200005F031FB0025A84200D0C8
:103C90002FE6E12306AA9B180A221B7853431A1C1D
:103CA000FF2B00D9FF223EAB1B7805253B70638DAF
:103CB0007A707B8000233B711BE6C04644040020E1
:103CC0001C040020210400209C000020100400207F
:103CD0002004002034AE300005F008FB002800D09E
:103CE00053E520AC257AEB0704D5E021237906AA19
:103CF00052181370AB070BD56079002804D00A2145
:103D000009300CF04DFBC0B2E12306AA9B181870D5
:103D10006B0704D5E223A27906A95B181A70E32287
:103D200006ABD2182D0701D5E3791370E02106AB5D
:103D30005B181B7812781343012B00D965E2E1234D
:103D400006AA9B180A221B785343002B00D15CE281
:103D500006A9D83252181178002900D155E21A1C50
:103D6000FF2B00D9FF22D2B28A4200D24DE23000AE
:103D7000FEF7A0F90124051E3AD150A8FEF7C0F9BC
:103D8000051E35D13EAB1C785AAB1B7806AAE41A47
:103D9000631E9C41E1239B18522206A9FF32521850
:103DA00012781B7812989B1A5A1E9341A922E41884
:103DB000E22352005B18521812781B7874309B1A59
:103DC0005A1E93415422E418E323FF325B18521821
:103DD00012781B7831009B1A5A1E93412F22E41847
:103DE000631E9C410FF08EFD0122B14BE4B2DA77E5
:103DF0003EAB1B7806AA3B70E1239B180A221B7876
:103E000053431A1CFF2B00D9FF22738D7A707B80DD
:103E10003C7129E734AC200005F05DFA00280BD195
:103E200063793B70A3797B70E379BB70237A387137
:103E30005A1E9341FB705CE500255AE534AD28001D
:103E400005F049FA002800D09FE420AB1A7AD10788
:103E500001D519796971910701D55979A97151076E
:103E600001D59979E971120703D5DB795A1E93417F
:103E70002B726B79052B00D9C7E1AB79012B00D9E7
:103E8000C3E1EB79032B00D9BFE129008948FEF794
:103E9000B5F82B7A06005A1E9341DBB212936B7968
:103EA00001241393AB791493EB791593002828D14F
:103EB00050AF3800FEF798FC061E22D1139B7C7988
:103EC000149AE41A631E9C41BB7929009B1A5A1E5E
:103ED0009341159AE418FB7977489B1A5A1E93412F
:103EE000E4183B7A754F5A1E9341129A6B37534030
:103EF000E4182722631E9C410FF004FD0123E4B265
:103F00003B70139A18AB1A70149A1C715A70159A58
:103F10009A70129ADA70002C00D1AFE6301E00D0F1
:103F2000A8E60527ABE620AD6B79A52B00D06CE1A8
:103F30002B79022B68D834A805F0D8F9061E00D0DA
:103F400091E00100952006AB40002C22C0180FF034
:103F50008DFA562101225A4B50AC2380FF31AB2001
:103F600006AB5B181A700423400006A909180B70F1
:103F7000638C54499B0B9B030B4363840223FF33E5
:103F8000A38406A94D33C9184F4B53360A70FF3628
:103F9000238506ABF618052320003370FDF7E2FCFD
:103FA0002B793278218D012B66D8A720DC2606AD2F
:103FB000400028180578A08C06ACA4192080BF20EA
:103FC00006AC0019C57752A8C47F36A8C477002B69
:103FD0000CD134AB1985E22306A95B181A7054235F
:103FE000FF335B181A78E3235B181A7034A8FEF7C6
:103FF00061F8061E37D112982F22743034A90FF0C1
:1040000081FC01222A4BDA7720AB1B79002B02D0EE
:104010000026032B27D1912006AB26220021C018B1
:104020000FF024FA9022012406AB9B1895211C70F6
:10403000032306AA52181370962206AB9B181C7015
:10404000023206AB9B181B481C702AA9FDF7D6FF4D
:10405000061E08D11298272244302AA90FF052FCDC
:10406000129B6B331C7020AB1B7930003B7033000C
:104070005A1E93417B7079E4022BB7D1A9E720AB9C
:104080001E79032E00D9C0E000D184E050A805F0CD
:104090002DF9051E1AD005F0E1F8002407000125CE
:1040A000002E7BD0002218AB1C705D705A807FE41C
:1040B0002004002018000020E00300209C030020C2
:1040C000A370000009240000010A0000504BDC7FAF
:1040D000002C5DD0022E59D02E22129B06A9FF3251
:1040E00052187933DB7FD47F129AE41A631E9C4105
:1040F00097235B007A325B18D27FDB7F07009B1A25
:104100005A1E9341E4183023129AFF337B325B1816
:10411000D27FDB7F9B1A5A1E9341E418129B52AA4E
:104120007C33D27FDB7FD31A5A1E9341E418002ED2
:10413000B8D1384A5AA912780978374B891A4A1ED9
:1041400091415222180006AFFF32D2199D300078FB
:104150001278121A501E82418A18A92118004900AB
:10416000C9199E30007809789F33091A481E814189
:1041700052185421FF31C91909781B780027CB1A2E
:10418000591E8B41D318E418E4B289E70400D0E744
:104190000225139F84E700273D003C0034AE300029
:1041A00005F099F8002804D005F058F8139D070091
:1041B00078E71A4B184A1B78002B1CD044325179EF
:1041C000737990795B1A591E8B41B179091A481E8F
:1041D0008141D0795B18F179127A091A481E814120
:1041E0005B18511E8A41317A481E81414A409B1812
:1041F000E418E4B256E7139F149D53E70823FFF732
:10420000D5F92900064AFEF73DFB0823FFF773FAAC
:1042100020040020380400209C0300200704002014
:1042200050640108F0B5C24CC24D277D28798FB08B
:10423000C0B2FCF717FCC04EFFB23B00009031004B
:104240000220BE4AFCF794FE637D0220012B2CD194
:10425000237D012B08D02B79012B05D13100B84AE1
:104260000018FCF785FE43E0237DDFB2012B08D167
:104270002B79FF2B05D131000420B24AFCF778FEE0
:104280002F71237DDDB2012B1FD10026AE4BAF4F26
:104290001A69267501329D711A613A6E9A6123007E
:1042A00030331B78B34202D11F200FB0F0BD3A6EFD
:1042B000E36BA749D31A312B1CD82800A54AFCF779
:1042C00057FEA369002B00D09E719A4A1379D9B288
:1042D0000891012B50D0247D1079E4B2C0B2FCF7D4
:1042E000C1FB23009C4A944900900420FCF740FE47
:1042F0000020DAE7E369E263A2690133E361002A9F
:1043000034D09079002831D096712800934AFCF778
:104310002FFEA0693E6E09F039FA636B002B01D0C5
:1043200028009847386E236A676AC018801BC51931
:104330002062002D17D00023894A00210CF0E4F9F7
:104340000023884A06900791380000210CF0DCF920
:10435000069A079B12184B41100019002A000023EF
:104360000CF0B2F90500A562E662AEE704207E4AD1
:10437000FCF7FEFDFF25CCE7FF2300261371FD3B74
:104380000693062200210CA80FF070F86F4B04AAC8
:104390001B6E099300239377D3771E236A4D04AADB
:1043A0009B181A000021280009F086F8031E2BD064
:1043B0006E4A61490420FCF7DBFD0A2005F048F94C
:1043C000624B099A1B6E9B1A962252009342E4D3C9
:1043D0001F2104A809180978574C04AB9B7F0420BF
:1043E0000091634A2100FCF7C3FD002E00D17EE05E
:1043F0002B0030331879FCF728FB8E352978030021
:1044000000915C4A210070E71F2304AA9B181A0040
:104410000121280009F050F8474C071E03D0030083
:104420002100554AC6E704A9C97F04AB9B7F534AC4
:10443000009102202100FCF79BFD102204AB9B7F22
:104440001342BAD021004E4A0220FCF791FD85218B
:1044500028003B00182249010CAD09F0FDF82800A6
:10446000FEF7DAF9002800D01EE72B78012B1FD1C8
:104470006E78AB7803966979022002912979414AD6
:104480000191E97800912100FCF772FD012E0FD116
:104490003100152008F096FB031E09D132001521CA
:1044A000062008F03BFB21000220374AFCF760FDA4
:1044B0003649069A244B0879012A1CD0022833D1A8
:1044C0001A008E321278002A17D00127CD7A304B8D
:1044D00004958D7A2F4A03954D7A0295097A0097B3
:1044E00001912100FCF744FD089E069749E7210051
:1044F000294A0220B5E6022816D119008E331B780E
:104500003031002B10D0C87A214B0490887A234A8E
:104510000390487A0290097A0220019101210091CA
:104520002100FCF725FDE3E61D4A0349E1E7C0460B
:104530009C04002000000020CCBB01087E64010820
:10454000A5640108DF6401081C0300209C00002012
:10455000EB580108206501087465010843650108EE
:1045600018AB0000B60300005E6501084F57010854
:10457000D16501080A6601087B570108A7570108A1
:104580009A6501087A660108AE6601084C030020AE
:10459000CD660108D96601084F6601083467010835
:1045A00098670108F7B505006424104B104E00937E
:1045B000104B376E0193336EDB1BAB420CD20122E2
:1045C000019B1A70336EFB1A5B19A34209D2346E39
:1045D0003C1B6419002C04D10122009B40331A704B
:1045E000F7BD200005F034F8E5E7C0469C04002044
:1045F0009C000020DC040020F8B5040001270E4DCB
:104600000E4E0378002B01D11800F8BD29000FF0E1
:104610005BF90028F9D0844205D0431E1B780D2B8E
:1046200001D00A2B06D183780D2B03D83200DA4053
:104630003A42EAD10230E4E735AA01080124000039
:1046400070B50500002405291ED9FFF7D5FF0134F8
:10465000002819D12800FBF750FE0400012813D0D0
:1046600028000A490FF030F900280DD00A2128004F
:104670000FF0E2F80124002806D10D2128000FF0E8
:10468000DBF8431E9841C4B2200070BDC767010823
:1046900070B505000C1E01D000230B602B780220A2
:1046A000002B09D0280011490FF00EF900280ED078
:1046B0000B30002C02D1072070BD01300378202B75
:1046C000FBD0092BF9D00EF02EFE2060F3E7280076
:1046D000FBF713FE03000620012BEDD02800FFF7A7
:1046E0008BFF43425841C000E6E7C046C767010858
:1046F000F0B50124344B354E87B0039333780590E1
:10470000A34250D1324B334D1B6E334A0293039B6D
:1047100042331B78A34204D0304BDB7F012B17D1EF
:104720002F4A29000220FCF723FC00270026284BF3
:10473000029A04931B6E9B1A059A9A421ED83B005C
:1047400029000520274A0096FCF712FC0C242AE0D9
:1047500029000220244A254BFCF70AFC3778012F58
:1047600009D107F00FFC002805D129003800204AA4
:10477000FCF7FEFBDAE71F4A1649D3E708F000F919
:104780000400031E12D10122039B029942331A70C6
:10479000049B02201B6E184A5B1A019329003B0000
:1047A0000096FCF7E5FB200007B0F0BD01361E2E99
:1047B00005D12900114A0520FCF7DAFBC6E7C8201D
:1047C000FFF7F0FEB3E7C0469C040020DD040020A4
:1047D0009C000020384F0108D36701081F02002009
:1047E0000F680108A4680108436801081027000049
:1047F000676801087C680108CF6801080269010840
:1048000070B50124194B1B78A34216D107F09CFC0C
:10481000174D184A29000320FCF7AAFBFA230822A7
:10482000154916485B0006F005FB002807D0290053
:104830000420134AFCF79CFB0834200070BD96202E
:104840004000FFF7AFFE0F48FFF752FF041E06D0EF
:10485000030029000C4A0420FCF78AFBEDE729003D
:104860000A4A0320FCF784FBE7E7C046DD0400208A
:10487000384F01082A69010842690108A006002092
:104880004B690108A86100006A6901089D69010877
:10489000024B80001B1818697047C0464048010849
:1048A000F0B5254C1600A5446A4600230124538127
:1048B000224A050012780F00A2421BD19E4200D06E
:1048C0003370AF212B001E4AC90004A80EF010FF60
:1048D0000A236B441A001B4904A808F021F8041E9F
:1048E0000CD0012F06D000902B000220164A174949
:1048F000FCF73EFB2000164B9D44F0BD154803A974
:10490000FFF7C6FE0400002E00D0307000280CD047
:10491000012F08D0FFF7BCFF2B0000900E4A0220A9
:104920000A49FCF725FB1F24E4E72B000B4A074943
:104930000120FCF71DFBDDE774FAFFFFDD0400201A
:10494000B869010888130000C7690108384F0108D9
:104950008C05000028070020ED6901080F6A010896
:10496000F0B500242600250089B006230220284A3D
:104970002849FCF7FDFA04940594172702ABFF18A9
:1049800000233A00012128003B70FFF789FF00282F
:104990001CD1059B01330593FBF7C6FB1E4B681C1E
:1049A0001B78022B28D801221C4B1A7007280BD128
:1049B000049B1B4A01931749059B02940096022011
:1049C000FCF7D6FA09B0F0BD0500D6E71F2806D1DE
:1049D000FD223B78063B13420CD10136DCE7030095
:1049E000093BDBB2012B01D90C2803D1049B013315
:1049F0000493D1E70134CFE7062700900197042004
:104A0000084A04497F1BFCF7B3FAE419D0E7C04613
:104A1000266A0108384F01089C000020DC040020B1
:104A2000A26A01084B6A0108F0B5FA27A54D93B0B8
:104A30002B6E7F000593A44BA44A039303990300B4
:104A4000069000970220FCF793FA3800FFF7AAFDC2
:104A5000059A2B6E00269B1A069A9A4209D89C4A00
:104A600005200399FCF784FA01229A4B1A701F243F
:104A700062E001235B420493974B03960793002166
:104A800006ABD981079B0A911F78012F65D10CAC29
:104A9000082220000EF0EAFC07F072FF8A4D061E85
:104AA00015D00300290003208C4AFCF761FA1F2E61
:104AB00000D09DE000241F260122864B82491A70F7
:104AC00005203300864A0094FCF752FACFE7854A66
:104AD00085498648277007F0D7FF854A061E0BD107
:104AE0000E2306AA9B181A0082488349677007F0B4
:104AF00017FF061E04D0814A330029000520D4E7A1
:104B00007F4E0EAF38700BA93000FFF7C1FD041EB9
:104B100015D1380006F03FFE041E10D12900794A55
:104B20000320FCF725FA674B059A1B6E29009B1A98
:104B30000220754AFCF71CFA200013B0F0BD072CC8
:104B40004CD130000AA9FFF7A3FD0A9C05202300E1
:104B50006E4A5D49FCF70CFA0C262000FBF7F8FAC8
:104B600005000128A8D0002C00DC81E0049B012571
:104B7000A34202D1039D0135EDB20420524F644A95
:104B80002300390001900095FCF7F2F9012204940A
:104B9000042D71D1002306AA13820122524239004A
:104BA0000B920E935B4A23002800FCF7E1F95A4868
:104BB00051490AAA07F0B4FE031E03901AD0390027
:104BC0002800564A0094FCF7D3F9554A3E49039B06
:104BD00000940420FCF7CCF90C24ADE72000FFF78B
:104BE00057FE290003004F4A0520FCF7C1F961E791
:104BF0000024B2E70BA806F007FF07280DD14048B4
:104C00000EA9FFF745FD484A0E9B00943900280085
:104C1000FCF7AEF90C230393D7E7002805D0FFF784
:104C200037FE2300414A0090F0E70B9B3900032038
:104C30003F4A00940393FCF79BF9039B002B13D18D
:104C4000284A3C493C4807F01FFF03900028BCD18C
:104C500039003A4A0320FCF78BF93948FFF7A2FCE8
:104C600001235B4204930AE7364A039B0094CDE795
:104C7000012302005B420493124B0699186E059BB8
:104C8000C31A994210D81049012A03D100932E4A21
:104C900023009EE701200F4A10702C4A01940096D1
:104CA0000430FCF765F9E2E6059B181A069BC0186C
:104CB000FA235B00984200D91800FFF773FC0395B4
:104CC000DDE6C0469C000020384F0108F56A010867
:104CD0003F6B0108DF040020DD040020776B010832
:104CE000F76C01089F6B0108AE6B0108B86B0108F7
:104CF000C46B0108F06B0108B80B0000FA6B0108E7
:104D0000280700202B6C01085F6C0108876C0108E4
:104D1000206D01084F6D0108A66D0108B16D0108F5
:104D2000A46F0108CC6C0108086E01085B6E0108D5
:104D3000B46E0108919A0108FA6E0108066F010825
:104D4000DC050000446F01080D7001087470010853
:104D500010B5002805DB05300A210BF0CBFB00B2B3
:104D600010BD0538F8E737B500236A460124D38023
:104D7000174B1B78A34213D1164D174A2900022066
:104D8000FCF7F6F86B46154815499A1D07F0C8FD63
:104D9000041E07D0030029000520124AFCF7E8F89A
:104DA00020003EBD21001048FFF772FC041E09D010
:104DB000FFF76EFD290003000C4A0520FCF7D8F828
:104DC0001F24EDE729000A4A0220FCF7D1F8E7E7A3
:104DD000DD040020384F0108B2700108FA6E0108A6
:104DE000905F0100D570010828070020F2700108CB
:104DF0000B710108F0B50126002589B07642040048
:104E0000039601200295AC423AD029005822200096
:104E10000EF02CFBFF23A3706B46A3486670991D10
:104E2000DD8007F001FEA84206D103A806F0ECFDE4
:104E3000A8420DD1039B6370039B002B22DB012B47
:104E400020D001232370994B1B6EE364002017E0F0
:104E50000728F1D1964802A9FFF71AFC029D280005
:104E6000FBF776F90128E7D12B00924A92490430EA
:104E7000FCF77EF802231F2023708C4B1B6EE3642B
:104E800009B0F0BD6A4600238C48911DD38007F01D
:104E9000CBFD00283CD1864D04A92800FFF7F8FB84
:104EA000002835D1280086490EF00EFD051E2FD0B2
:104EB00007352B78202B10D0092B0ED028008149E4
:104EC00006AB05AA0EF048FC022821D1069B032B55
:104ED00000D087E02B00202102E00135E9E7013313
:104EE0001A788A43FBD118000278854277D22C2A9F
:104EF00073D1451CAB4274D900230A22280007A9AC
:104F000007930EF0A5FA0323079AE37095426BD13D
:104F10006A4600236C48911DD38007F085FD002868
:104F20001BD1634D069006A92800FFF7B1FB0028AE
:104F300013D1280065490EF0C7FC00280DD00730BA
:104F40000378202B58D0092B56D0614907AA0EF0C0
:104F500003FC012801D1079BA3700422E37893434B
:104F6000012B67D16A4600235A48911DD38007F070
:104F70005BFD00285ED14E4D207207A92800FFF787
:104F800087FB002856D1280053490EF09DFC0028CD
:104F900050D009300378202B30D0092B2ED025009B
:104FA0002C2108350EF048FC002838D001224B4E49
:104FB00001300378093BDBB2192B23D83100D940EB
:104FC0000B00134011421BD1E71DC25C0D2A1BD9F7
:104FD000222A22D02C2A1CD11FE0013884E72C2A57
:104FE00087D00323E37093E78022520290428FD24E
:104FF0000123A080A3718BE70130A1E70130C9E74D
:105000000130D6E70023DFE7354E012116410E427D
:1050100003D00133FA543F2BD7D10022EA54237A2C
:10502000002B07D028002F490BF0A8F9002801D049
:105030000123E3716378FF2B0CD0012B0AD00123ED
:1050400023701A4B58221B6E2100E36426480EF091
:1050500059FCFBE6E378032B05D004229343012B94
:1050600012D00323ECE7A17901290BD1A2880823F0
:10507000132AE5D01A2A05D81C4BD3400B4201D085
:105080000923DDE70723DBE7A378012B01D022709A
:10509000D7E7E379012B01D00523D1E7062222705F
:1050A000220048321370CCE7A66D01089C00002056
:1050B0002807002017710108384F010832710108D4
:1050C0003E710108AECB010846710108527101081A
:1050D0008EC301085A71010867710108010080023E
:1050E000FEDBFFFF71710108E004002004010004F1
:1050F00003000448092B03D8034A9B00D218906B85
:105100007047C0467971010840480108F0B5C34BAB
:10511000B1B00793C24B1B78012B01D00AF038FACB
:1051200074220021BF48C04C0EF0A0F90022BF4BF2
:1051300001201A77BE4BBF491A6E23000133D8777E
:10514000BD4BA262029002300093BC4ABC4B01905E
:10515000FBF70EFF582200211AA80EF087F9B24F74
:1051600001213A00B74B3A3208931378B14E01331C
:10517000DBB21370AE4A03200992126EFA62089AEB
:10518000D177B149B14A00913100FBF7F1FEFA2025
:105190008001FFF7ADFAAE4A051E0FD1A04B1C7877
:1051A000012C5DD1AB48FFF73FFC051E5AD0079B91
:1051B000A94A43331B78012B5CD1A84A3100052052
:1051C000FBF7D6FE2C00A64BDD773B0058223A3386
:1051D0001D7804AB9B181878FFF78AFF5B2204AB9D
:1051E0009B181A789F4B052A03D89F4B92009B1857
:1051F0001B6E1CA904911AA989788E4E9B4A0391B3
:10520000029301902B00310004200094FBF7B0FEC4
:10521000874B854D1B6EAA6A9B1A079A43321278F8
:10522000012A00D0B4E0924A31000520FBF7A0FE2D
:105230001F2406226B1CDA772B1DDC770335EA7FEF
:105240008848022A03D8884B92009B18986F0090D8
:10525000884B894A774901940520FBF789FE64E071
:105260000125A4E7854A8649864807F00DFC051EFE
:1052700006D0854A2B0031000520FBF779FEA1E717
:10528000824A31000220FBF773FE0223089AD3778B
:10529000634B1B78012B4BD0380058223C301AA9A5
:1052A0000EF030FB3A1D7B1CD477002C8DD10322ED
:1052B000DA770AAA76487749148007F031FB5D4E09
:1052C000031E3BD031000220734AFBF751FE0AF067
:1052D000ABF931000220714B714AFBF749FE012501
:1052E0006E4B0AA91800079307F09AF9002838D1E5
:1052F0000AAB0193079B310000936A4A2B000230EE
:10530000FBF736FE099B1CAE1D6EBB6A3A37ED1AE1
:105310001AAB1878FFF7ECFE3B78634A01904549D9
:10532000032002960095FBF723FE200031B0F0BD6C
:1053300043481AA903F028FA0400ADE721005B48AE
:10534000FFF7A6F9002806D0FFF7A2FA3100030004
:10535000574A0120B9E73100564A0220FBF708FE00
:10536000B5E7344B022007930323534A0093079970
:105370002B00FBF7FDFD032D05D1504A07990220B4
:10538000FBF7F6FDBEE74348FFF70CF90135A7E749
:105390002A003C321278691C082A03D1AB1CDB8F2F
:1053A000474A41E7092A03D1AB1CDB8F454A3BE75B
:1053B0000C2C20D1032A1ED12A0042321278012A55
:1053C00019D01A4A107F012815D001231377022221
:1053D000CA77002203353100EA7704203A4AFBF706
:1053E000C7FD264A264927480AF048F8FA20C00097
:1053F000FFF7D8F8AEE62A00344F38321178681C2F
:10540000BB4267D92800029439300078304A0190B5
:10541000009131000520FBF7ABFD0AE79C0400205A
:10542000DD0400203C0200201C0200201C0500209E
:105430009C000020384F0108C02709008171010835
:1054400060EA00001D020020E8710108C97101082E
:10545000F271010844480000217201080672010837
:10546000200200207971010840480108EB7301080F
:1054700031740108707701087677010847720108D6
:10548000527201085D7201086A7201089772010880
:10549000A4720108B80B0000B0720108397301084A
:1054A000487301085D730108B073010828070020E4
:1054B000D77201081A7301087F7301089B730108F2
:1054C00071740108C274010814750108BF2709002E
:1054D0006F750108022936D804240127C477C91939
:1054E000E81CC777C9B20237117020002E4A019319
:1054F00000970B003100FBF73BFD310020002B4AE9
:10550000FBF736FD2A4A2B492B4807F0BDFA041E4B
:1055100000D08EE62948FFF745F8FFF724FC041E6B
:1055200006D003003100264A0520FBF721FD80E666
:105530002248FFF737F80AF02BF8224A31000320FF
:10554000FBF716FD06E62A0039321778002F25D121
:1055500005210124C17703350339E977147031003F
:10556000194A0193042023000094FBF701FD310048
:10557000164A0420FBF7FCFC154A31002000FBF71B
:10558000F7FC3800FCF7C4F8C82004F061F82000EC
:10559000FCF7BEF809F0FCFF0E4ACFE701930E4A74
:1055A0000B000294009734E7AF750108E475010819
:1055B0001F7601082976010833760108DC05000012
:1055C0003F760108667601088B760108C0760108EF
:1055D000F0760108067701082B770108F0B5002462
:1055E000844B854F9DB002931C707B1DDC77834BF1
:1055F000834E03930123039A3100D377029B814AA0
:105600001B6E03203B63804DFBF7B2FCFFF7A8F94C
:10561000029B1B78022B0AD97C4A31000420FBF73D
:10562000A7FC0222FB1CDA770C34250026E0784B1D
:105630001B78012B00D0C4E0EA7F032A00D0ABE046
:10564000744A7549754807F01FFA0500FAF76CFDB2
:10565000029B1B78022B08D8002D24D02B00310090
:105660006F4A0420FBF784FC75E0310004206D4A8A
:10567000FBF77EFCFB1C02222C00DA7703225F4B37
:105680000020DA77FCF744F85D49061E00D19EE061
:105690000223654A0520FBF76BFC0223634AD3779C
:1056A00030001DB0F0BD0223039AD377029B1B6E1E
:1056B0000593504B059A1B6E51499B1A5C4A039106
:1056C000934205D904205B4AFBF752FC0C2636E0D6
:1056D00006AC5822002120000DF0C8FE2000FFF784
:1056E00089FB0600031E4DD13800210058223C30B2
:1056F0000EF008F92078FFF7FBFCE57803004E4C2C
:10570000052D03D84D4AA9005218146E04AA927AA6
:105710000320049204994A4A019100940399FBF7EB
:1057200027FC002D03D004AB5B7A012B2FD0049B08
:1057300003200093434A23003149FBF719FC300052
:10574000FAF7F2FC002E33D00C2304203E4A2C49F9
:10575000FBF70EFC0C25274B294E1B78022B29D872
:105760003A4A3B493B4807F08FF90400FAF7DCFC62
:10577000002C00D182E723003100374A0420FBF7D8
:10578000F7FB7BE70420354A0399FBF7F1FBFA208E
:105790008000FEF707FF8CE7274B062A03D8304B23
:1057A00092009B185B68310003202E4AFBF7E0FB58
:1057B0000025D0E7310004202B4AFBF7D9FB2B4B07
:1057C00059E731002A4A0420FBF7D2FB2DE70423D6
:1057D0000A4AD377029B274A1B6E7B637B1DDC77CB
:1057E000124BD877244B019400950320FBF7C0FBA4
:1057F00056E7C0469C0000201C0200201E0200202C
:10580000384F0108A37701081D020020F87701082E
:10581000DD040020627801086D78010878780108BD
:10582000B579010885780108F97A0108200200207D
:10583000973A00005D790108797101084048010834
:10584000E37801080F790108807901081E7A0108C0
:105850002976010833760108877A0108367901082C
:10586000C0480108EE7901082B7A01081F020020C8
:10587000BF7A0108277B010812710108F0B56D4C51
:1058800089B003006C4A0691009104202100FBF7C7
:105890006FFBFFF7A3FE002808D00223210004209D
:1058A000664AFBF765FB002009F068FE644B1D7833
:1058B000082D28D0A827092D26D0FBF7A7F900240A
:1058C000604B2200142106201C71069B07F026F96C
:1058D000C42201215C4B52009954043A491899544E
:1058E0005A4B5B4DDB7F042000935A4A23005A49F0
:1058F000FBF73EFB09352000EC7703F071FCA0427A
:105900005FD01E205DE03027FBF780F90123534C68
:105910002374A574FBF785F8012867D1FCF772FDA5
:10592000022845D1FCF79CFD02284CD101234C4AAA
:105930006374D27F4B4B012A4FD0002219004831AB
:10594000497801294ED1196D5B6D012A06D1626932
:10595000914203D304D8A2699A4201D36161A36141
:105960002800FFF7C5FBA56907903F4928000AF00A
:105970009DFD0800FA2189000AF012FD3B490490C0
:1059800028000AF093FD080037490AF009FD37495D
:10599000039028000AF004FD02906369344E0193DD
:1059A0003200079B234900970420FBF7E1FA86E7C2
:1059B000002806D139002F4A2F48FBF78FFD002819
:1059C000B0D009B0F0BD0028FBD139002B4A2C48DB
:1059D000FBF784FD0028A9D0F3E7996A6161D96AD1
:1059E000A161ABE7012A00D067E7B9E70023637440
:1059F000E12380221B017B43E361154B52021A66AF
:105A00008023204A20495B020320FBF7B1FAE669B4
:105A10001E4B2800F618E661FFF76AFB03008020A2
:105A2000400201901A4A0349029600970420FBF7AE
:105A30009FFA44E7CCBB0108617B0108A77B010802
:105A4000580200209C0500202C080020240500207E
:105A50001C050020FF7C01082B7D01089C01002013
:105A60009E0200209C02002060EA000080EE3600CA
:105A7000ED7B01085A530108BC0200209053010835
:105A8000E4020020587C0108117E01080000FFFF9D
:105A9000907C0108F0B514000F270A4D46180378D2
:105AA0001B09EB18DB7F2370037801303B40EB18B8
:105AB000DB7F63700234B042F1D1002349008B5484
:105AC000F0BDC046C1480108F0B504008BB001200C
:105AD000002C00D18BE0637A002B00D187E0238873
