:020000040800F2
:1000000000500020090A0108B5070108B7070108D8
:1000100000000000000000000000000000000000E0
:10002000000000000000000000000000B907010807
:100030000000000000000000BB070108BD07010828
:1000400019090108590A0108C5070108590A0108D8
:10005000590A0108A9080108AB080108AD08010800
:10006000590A0108590A0108590A0108590A0108E0
:10007000590A010861080108590A0108590A0108CA
:10008000590A0108590A0108590A0108000000002C
:10009000590A0108590A0108590A0108590A0108B0
:1000A000590A0108590A0108590A0108E908010812
:1000B000F908010809090108590A0108590A010843
:1000C00010B5064C2378002B07D1054B002B02D02E
:1000D000044800E000BF0123237010BD9000002001
:1000E0000000000094580108044B10B5002B03D009
:1000F0000349044800E000BF10BDC04600000000F6
:10010000940000209458010802780B78002A03D04C
:10011000013001319A42F7D0D01A70470023C25CF7
:100120000133002AFBD1581E7047000002B471460B
:1001300049084900095649008E4402BC7047C04630
:1001400002B4714649084900095C49008E4402BC6A
:100150007047C04603B47146490840004900095E33
:1001600049008E4403BC704703B4714649084000FF
:100170004900095A49008E4403BC704700224308D5
:100180008B4274D303098B425FD3030A8B4244D35F
:10019000030B8B4228D3030C8B420DD3FF220902A1
:1001A00012BA030C8B4202D31212090265D0030B60
:1001B0008B4219D300E0090AC30B8B4201D3CB0356
:1001C000C01A5241830B8B4201D38B03C01A524198
:1001D000430B8B4201D34B03C01A5241030B8B429A
:1001E00001D30B03C01A5241C30A8B4201D3CB0285
:1001F000C01A5241830A8B4201D38B02C01A52416A
:10020000430A8B4201D34B02C01A5241030A8B426C
:1002100001D30B02C01A5241CDD2C3098B4201D384
:10022000CB01C01A524183098B4201D38B01C01A02
:10023000524143098B4201D34B01C01A5241030979
:100240008B4201D30B01C01A5241C3088B4201D328
:10025000CB00C01A524183088B4201D38B00C01AD5
:10026000524143088B4201D34B00C01A5241411AFC
:1002700000D20146524110467047FFE701B5002009
:1002800000F0F0F802BDC0460029F7D076E77047CD
:1002900003460B437FD4002243088B4274D30309E7
:1002A0008B425FD3030A8B4244D3030B8B4228D388
:1002B000030C8B420DD3FF22090212BA030C8B42AE
:1002C00002D31212090265D0030B8B4219D300E04E
:1002D000090AC30B8B4201D3CB03C01A5241830BD3
:1002E0008B4201D38B03C01A5241430B8B4201D383
:1002F0004B03C01A5241030B8B4201D30B03C01AAC
:100300005241C30A8B4201D3CB02C01A5241830A25
:100310008B4201D38B02C01A5241430A8B4201D354
:100320004B02C01A5241030A8B4201D30B02C01A7E
:100330005241CDD2C3098B4201D3CB01C01A5241E5
:1003400083098B4201D38B01C01A524143098B426E
:1003500001D34B01C01A524103098B4201D30B0157
:10036000C01A5241C3088B4201D3CB00C01A52417C
:1003700083088B4201D38B00C01A524143088B4241
:1003800001D34B00C01A5241411A00D201465241DA
:10039000104670475DE0CA0F00D04942031000D3F9
:1003A0004042534000229C4603098B422DD3030A4E
:1003B0008B4212D3FC22890112BA030A8B420CD35E
:1003C000890192118B4208D3890192118B4204D387
:1003D00089013AD0921100E08909C3098B4201D307
:1003E000CB01C01A524183098B4201D38B01C01A41
:1003F000524143098B4201D34B01C01A52410309B8
:100400008B4201D30B01C01A5241C3088B4201D366
:10041000CB00C01A524183088B4201D38B00C01A13
:100420005241D9D243088B4201D34B00C01A5241EA
:10043000411A00D20146634652415B10104601D377
:100440004042002B00D54942704763465B1000D301
:10045000404201B5002000F005F802BD0029F8D0A7
:1004600016E770477047C046002B11D1002A0FD104
:10047000002900D1002802D00021C943080007B498
:10048000024802A14018029003BDC046D9FFFFFFF9
:1004900003B4684601B5029800F034F8019B9E460B
:1004A00002B00CBC7047C046F0B5CE469946030C6E
:1004B0009C46130447461B0C1D000E0061460404B5
:1004C000240C80B50700100C4B4365434143604347
:1004D0002C0CC01824188C46A34203D980235B023D
:1004E0009846C444494679435643230C2D042D0CA9
:1004F0008919634424046019C918C0BCB946B046C0
:10050000F0BDC046F0B557464E464546DE46E0B51E
:1005100004000D009246994683B08B4230D82DD00E
:100520004946504600F038FE29000600200000F041
:1005300033FE331A9846203B34D49B4653465A46E2
:10054000934042461F00534693401E00AF423BD8A3
:10055000AF4200D179E05B46A41BBD41002B00DA1D
:1005600076E0002200230092019301235A46934033
:100570000193012342469340009329E08242CFD960
:1005800000220023009201930C9B002B01D01C60E1
:100590005D600098019903B0F0BCBB46B246A94625
:1005A000A046F0BD42469B4620239B1A5246DA40A5
:1005B000414613004A468A40170042461F435346AD
:1005C00093401E00AF42C3D9002200230092019342
:1005D0004346002BD8D0FB0772081A4346467B08D7
:1005E0000EE0AB4201D1A2420CD8A41A9D410120D9
:1005F00024196D410021013E24184D41002E06D0E2
:10060000AB42EED9013E24196D41002EF8D100987D
:1006100001995B4600196941002B24DB2B005A46E7
:100620004646D3402A001C00F2405B461500002BD2
:100630002ADB26009E40330026004746BE4032009B
:10064000801A9941009001919EE7A342BCD882E7AD
:100650004246202300219B1A002200910192012290
:10066000DA40019285E7424620239B1A2A0046463B
:100670009A402300F340464613432A001C00F240F0
:100680005B461500002BD4DA202342462F009B1B2B
:1006900097402600DE403B003343CDE7F0B54646A9
:1006A0004F46D6464502C0B5C30F470098460E1CBC
:1006B0006D0A3F0E5BD0FF2F21D08023ED00DB04BD
:1006C0001D43002399469A467F3F74027300640AD3
:1006D0001B0EF60F002B20D0FF2B43D080220020D2
:1006E000E400D20414437F3B4246FF1A4B4672405B
:1006F0000F2B00D99DE071499B00CB589F46002DE0
:100700005AD108239946063B74029A467300FF2784
:10071000640A1B0EF60F002BDED1002C3BD1012307
:1007200042464946724019430E2918D86448890048
:1007300041588F465346022B00D1B8E0032B6ED0B0
:1007400042462C00012B40D100200024C00520434C
:10075000D2071043E0BCBA46B146A846F0BDFF2020
:100760000024F3E7002C20D10223FF3FD8E7002D1F
:1007700005D104239946033B00279A46A5E72800A4
:1007800000F0ECFC7627431F9D4000237F429946F2
:100790009A463F1A99E7200000F0E0FC431F9C4076
:1007A00076235B421B1A00209EE703234A461A4326
:1007B00091460320FC3397E70C239946093BFF271A
:1007C0009A4682E703282CD0320038007F30002878
:1007D00047DD630704D00F232340042B00D00434EB
:1007E000230103D53800374B80301C40FE28B6DC8F
:1007F000A401640AC0B2A9E780240022FF20E40318
:10080000A4E78023DB031D4201D01C420BD08024CF
:10081000E4032C4364024246FF20640A96E74646FE
:100820002C008023DB031C4364023200FF20640A97
:100830008CE76D01600185422DD21B230024013F0E
:100840000126290064006D00002901DB854201D3E7
:100850002D1A3443013B002BF3D16B1E9D412C43D9
:10086000B3E701231B1A1B2B00DD6DE721009E3728
:10087000D940BC400B00611E8C412343590704D072
:100880000F211940042900D00433590113D49B01CE
:1008900000205C0A5AE71A2301242D1AD0E7981E7B
:1008A00043425841404232000024C0B24EE7424623
:1008B000FF2000244AE70120002447E7B858010838
:1008C000F8580108FFFFFFF7F0B54F464646D646F9
:1008D0004502C0B546000F1C6D0A360EC40F002E2F
:1008E00000D1CDE0FF2E72D08023ED00DB041D434C
:1008F000002399469A467F3E7B025B0A98467B001E
:100900001B0EFF0F002B72D0FF2B00D1A9E07F3B05
:10091000F6184B460A2B00DD85E043468022DB00BB
:10092000D2041A434B4690467C400022022B0FDD36
:10093000494601238B40A621C9000B4200D072E03A
:10094000902189000B4200D0DAE08821194267D15A
:10095000280C42462D042D0C4346290012041B0C82
:10096000120C51435D4342435843AD180B0C5B19C5
:100970009A4203D9802252029446604409041A0420
:10098000090C52189501691E8D411B0C920E1B1803
:1009900015439B011D431B0100D5CFE030007F3084
:1009A000002800DCB1E06B070BD00F2332002B4096
:1009B000042B06D004352B0103D5803210006A4B7E
:1009C0001D40FE2864DCAB015B0AC0B21FE0002DB5
:1009D00000D08FE008239946063B9A467B025B0ACB
:1009E00098467B00FF261B0EFF0F002B8CD1434641
:1009F000002B5CD14A4601331A43914613000A2A60
:100A000011DC01227C40022B92DC00200023C00577
:100A10001843E4072043E0BCBA46B146A846F0BDFF
:100A20003C00454692465346022B31D0032B11D051
:100A3000012BEAD030008030721C002866DD6B0785
:100A4000B9D00F232B40042BB4D1B4E70F2A7AD0AE
:100A50003C0045468023DB032B435B02FF205B0AFF
:100A6000D5E74346FF36002B34D14A4602331343C1
:100A70000A2BD8DC7C40002A0AD09946022257E78C
:100A8000002D08D104239946033B00269A4633E7FC
:100A9000FF200023BBE7280000F060FB7626431F01
:100AA0009D400023764299469A46361A24E74046EE
:100AB00000F054FB4B46361A763E0A2BB3DC434615
:100AC0000538834098464B4600227C40022B00DDCF
:100AD0002EE73DE703234A461A4313000A2AB5DCF2
:100AE00001229A40882113007C400322194200D140
:100AF0002EE795E70C239946093BFF269A46FBE62D
:100B000080230024FF20DB0381E7320001231B1A2E
:100B10001B2B00DD79E79E3229009540D9406A1EE3
:100B200095410D436B0704D00F232B40042B00D0BD
:100B300004356B0113D50120002368E701236A08FF
:100B40001D40154376E78023DB031D4282D04246D9
:100B50001A4200D07EE73C00FF20134357E7AB0169
:100B600000205B0A53E7C046FFFFFFF7F8B5474692
:100B7000CE464B02460080B5C40F4702580A844651
:100B800048007A0A360EBF09000ECD0F9B09FF28D8
:100B90006DD001214D40311AAC423AD0002900DC21
:100BA0009CE1002800D19EE0FF2E00D188E0802249
:100BB000D20413431B2900DCF6E0013F7A0100D484
:100BC00079E001277F42BF01BB099846404600F00B
:100BD000C5FA434605388340864200DCCCE0B44F7A
:100BE000311A1F405A0768D00F221340042B64D0DB
:100BF00004377B0161D5481CFE2900D081E0FF202D
:100C00000023C0051843E4072043C0BCB946B046E2
:100C1000F8BD002900DC79E1002876D1002B4CD00A
:100C2000481E012900D147E1FF2949D01B2871DC6A
:100C300001001A002020CA40411A8B40591E8B41E6
:100C40001343FF188023DB041F4200D1B8E0711C5E
:100C5000FE2ED4D0012297483A407F080740174320
:100C60007A0700D096E01F42C5D1FA0855E031005E
:100C7000FF398946002B2CD101214D40AC4200D1D7
:100C8000B4E0494600294CD0002E00D0F9E0FF2105
:100C9000002F00D108E14A1E012900D156E1FF29A9
:100CA00000D142E11B2A00DC24E15F1E2C0006007B
:100CB0007A0100D585E731000437FA08FF292CD1E5
:100CC000002A9CD08023DB0313435B02FF205B0AD6
:100CD00097E7AC4200D1A7E0002922D0002ED6D061
:100CE00062462C00EEE7002BE7D0481E012936D0E3
:100CF000FF29E5D001005DE701203B007A0100D427
:100D000057E1C0B2BB015B0A7BE7FF2ED8D01B299D
:100D100000DC9FE031000537FA0853025B0AC8B2D5
:100D20006FE7FE20711C084254D1002E00D0B1E0C4
:100D3000002F00D102E1002B00D1F9E08021FA1A46
:100D4000C9040A4200D13BE10124DF1B2C40002FE3
:100D500049D001200F42D5D10021FA08DDE7FF1A62
:100D60007B0100D4DEE0BD01AD09280000F0F6F9FA
:100D70002B000538834001262022811B0131521AA5
:100D80001F009340CF405A1E93411F432BD0002198
:100D90007B07B1D00F233B40042B00D028E77B0119
:100DA00000D528E7FA08B8E71A002020CA40411AFF
:100DB0008B40591E8B411343FF1A7B0100D502E77C
:100DC0007B0700D10DE10F2331003B40042B00D005
:100DD0000EE772E7FA1A9046520156D44346002BAA
:100DE00000D0F3E60024002000230AE7494600294A
:100DF0001CD0002E00D002E7FF21002F55D04A1E44
:100E0000012959D0FF2900D190E01B2A00DD91E093
:100E100011003A002025CA40691A8F40791E8F417F
:100E200017430600FF180DE7002926D1FE20711C8C
:100E3000084213D1002E00D096E0002F00D1B4E07C
:100E4000002B75D0FB185A0100D4B2E09B015B0A5D
:100E5000FD38D6E68022D2041343EAE6FF2900D10A
:100E6000CDE6FA185208530705D00F23171D13407B
:100E7000042B00D021E7D2084FE7002EBCD06246F9
:100E800020E72C00FF200023BBE60124DB1B984653
:100E90002C409BE6002F75D1002B00D096E08023DC
:100EA0000024FF20DB03ACE62C001F0005E7C04652
:100EB000FFFFFFFBFFFFFF7DFB185A0100D48DE011
:100EC0004A4A5B081A40590700D18CE00F210B40B9
:100ED0000D39042BCFD00221171DEEE6002900D1D9
:100EE0001FE7821B1100002E00D1D1E68021C9042A
:100EF0000F43D7E639002024D140A21A97407A1E2A
:100F000097410F432C000600DF1B56E700298DD0C8
:100F1000811B002E00D170E71B290BDC8022D2043C
:100F2000174376E70121FA08F7E62C006246C7E688
:100F30000021F2E605330100DA08EEE6002B00D1CD
:100F400050E70124002162462C40E6E6DA1B5301FB
:100F500032D592019409200000F000F923000538F1
:100F600083402C00012607E7002FDFD0002B17D08D
:100F70008023DB039A4200D2A4E69C4500D3A1E67D
:100F800062469FE6002B0BD08023DB039A4200D2FF
:100F900098E69C4500D395E6012462462C4091E6F4
:100FA0008023DB03FF2013432BE60020002B00D11E
:100FB00027E60021DA08B0E62C000121D208ACE6D1
:100FC000002A00D10EE70021D208A6E6802362465F
:100FD0000124DB03FF2013432C4012E60121DA0831
:100FE0009BE6310069E60221D20896E6FFFFFF7D0D
:100FF00041024200C30F490A0020120E7E2A03DD7F
:101000009D2A02DD094A9818704780200004014398
:10101000952A07DC9620821AD1404842002BF3D152
:101020000800F1E7963A9140F7E7C046FFFFFF7FDF
:1010300070B5002812D0C317C5185D40C40F280032
:1010400000F08CF89E231B1A962B0FDC082838D052
:10105000083885406D026D0AD8B202E000240020F5
:101060000025C0052843E407204370BD992B14DCFC
:10107000421F95402A001549114055071CD00F25E5
:101080002A40042A18D00431CA08490115D59F23E3
:101090005202181A550AC0B2E3E7020029001B32B7
:1010A00091404A1E91410522121AD5402A000A4356
:1010B000064911405507E2D1CA085202550AD8B272
:1010C000CFE76D026D0A8E30CBE7C046FFFFFFFB16
:1010D00010B5041E0DD000F041F89E231B1A962B6C
:1010E0000CDC082834D0083884406402640AD8B282
:1010F00001E000200024C005204310BD992B13DC23
:10110000421F9440144A224061071CD00F21214005
:10111000042918D00432D408520115D59F23640243
:10112000181A640AC0B2E6E7020021001B3291409F
:101130000A00511E8A410521091ACC401443064A6F
:1011400022406107E2D1D4086402640AD8B2D2E72F
:101150006402640A8E30CEE7FFFFFFFB1C210123EF
:101160001B04984201D3000C10391B0A984201D38A
:10117000000A08391B09984201D30009043902A268
:10118000105C40187047C0460403020201010101CF
:10119000000000000000000010B5002903D1FFF797
:1011A000DDFF203002E00800FFF7D8FF10BDC04689
:1011B0001FB56B4649BA99816423E021009303AAC5
:1011C000623B10F0C5FD05B000BD000037B5002240
:1011D000124C0090236869469A62802320005B01CC
:1011E00001930FF039FF002802D00D4D28003EBDBD
:1011F00020000FF07BFE0028F7D10A2120000FF01D
:10120000C1FE002807D120000FF022FF85B2200088
:101210000FF098FEEAE7024DF9E7C0468C0D00207A
:10122000FFFF000010B5010000780822C043312400
:10123000C0B243B24000C0B2002B02DA5B00634090
:10124000D8B2013AD2B2002AF3D14B780822312128
:10125000584043B24000C0B2002B02DA5B004B4062
:10126000D8B2013AD2B2002AF3D110BDF0B587B09E
:101270000190029103920493002B1CD08023002440
:10128000244DDB032A68032013432B600FF030FC4E
:10129000082726002048FFF799FF05901F48FFF711
:1012A00095FF059B1E4A013B9BB2934206D92B68D2
:1012B0001C4A13402B60012007B0F0BD1A4B984226
:1012C000F5D0059B013FE4183618002FE2D1174BEB
:1012D00017481B88E40858432100FEF74FFFF60823
:1012E000070014497043FEF749FF049B4000186053
:1012F000039B002B00D01F60019B002B00D01C60C3
:10130000029B002B00D01E602B68064A0020134071
:101310002B60D1E7082701400000024402000004CE
:10132000FDFF0000FFFFBFFFFFFF00007800F81F78
:10133000B80B0000FF0F000030B50D0004008BB0AB
:10134000684605F09BFB2A002100684605F0BBFCBF
:10135000684605F0C1FC0BB030BD000010B5044973
:10136000FFF726FF040001200FF0C2FB200010BD94
:101370001735000010B50249FFF71AFF10BDC0462F
:1013800098B0000010B50449FFF712FF04000120D7
:101390000FF0AEFB200010BD5D800000F0B585B001
:1013A00005000F00FFF7DAFF041E19D128000F49CE
:1013B000FFF7FEFE041E13D1642303AE0093320038
:1013C000E0212800613B10F067FD041E08D13000C9
:1013D000FFF728FFB378834205D133885BBA3B809F
:1013E000200005B0F0BD0124FAE7C046C8EF0000B8
:1013F000F0B587B005000F00FFF7B0FF041E46D11F
:1014000028002549FFF7D4FE041E40D10F200FF01D
:101410006FFB642304AE00933200E02128005E3BA2
:1014200010F03AFD041E32D13000FFF7FBFEB37816
:1014300083422FD10B2302AA9B181800FFF7F2FE5C
:101440007379834226D102ABDA7A1B7B30881B0288
:1014500013435BBA40BA9BB280B20393FFF738FEE6
:101460000E49FFF71BF90E49FFF72EFA0D49FFF75A
:101470007DFB38600398FFF72BFE0849FFF70EF954
:101480000949FFF721FA78602800FFF773FF200071
:1014900007B0F0BD0124FAE76678000000FF7F473F
:1014A00000002F43000034420000C84273B56B4671
:1014B0009E1D002305003380FFF750FF041E16D148
:1014C0002800FFF75FFF041E11D101200FF010FB71
:1014D00031002800FFF762FF041E08D13388064957
:1014E000064A0B40934204D12800FFF743FF200037
:1014F00076BD0124FBE7C0463F0800000708000056
:10150000030C434004485843044B420B42405343AE
:10151000180C58407047C0466BCAEB8535AEB2C256
:1015200070B52D4C8EB020220021200013F0B8F8A9
:1015300038220021684613F0B3F80C21274E284AC0
:10154000F36868460B40D35C01222377336D9B051B
:10155000DB0F6370234B1B681340A36011F0D4FBB7
:101560000FF004FA099B636011F00EF8E06011F0CF
:10157000A5FB206111F0A8FB606111F0B5FB237F92
:10158000A061012B07D005203D22174901F0DAFFA9
:1015900005200EB070BD33689B0506D43E2212496B
:1015A000062001F0CFFF0620F3E76378012B02D07D
:1015B00040220D49F4E7079B012B02D041220A4942
:1015C000EEE7A02209991202914202D04222064976
:1015D000E6E700202370DCE7B000002000100240A6
:1015E00080CA0108002002403459010810B594B0A7
:1015F0003422002107A801AC13F052F80021142274
:10160000200013F04DF8102306930F3B0D93A023F9
:1016100006A81B020F9310F0F9FF011E07D05B22F2
:101620000A49062001F08EFF062014B010BD0F23DA
:101630006060A060E06020612000019311F070FA0A
:101640000028F2D062220149EBE7C0463459010874
:10165000014B18787047C046B00000200048704722
:10166000B0000020121A8B411000191E03DA00236B
:10167000014A801859417047005C260510B50FF0EB
:1016800031FA024B1B68C01810BDC046AC000020E8
:10169000F0B500260F008BB0039304AB01900292CB
:1016A00000211122D81D12F0FBFF039B05AD2B700A
:1016B000109B04AC6B70119B0198AB70029B267061
:1016C000A37067706421FEF7C9FE074BE170290023
:1016D0001D003200180011F071FD320021002800B9
:1016E00011F0D4FD0BB0F0BDE80D0020F0B5040002
:1016F00087B0002807D101209C221D4901F022FF5C
:10170000012007B0F0BD0822002101AD12F0C8FF92
:1017100014220021280012F0C3FF0022154F2900D7
:101720003800009211F0E2FE6E46031E06D0124A07
:101730001249042004F02AFC1F20E2E70200694657
:10174000380011F0FBFE002803D003000C4A0B49BF
:10175000EFE7FA22F378D2009B18238073782A8867
:10176000A370B378E370AB78A280A371C9E7C046D9
:1017700034590108E80D00204C590108AF9A0108BE
:101780006459010830B58FB024216A46002307ACA4
:10179000521820001370FFF7A9FF051E17D1A17979
:1017A0002388049161790E4A0391217909A8029155
:1017B000E1780191A1780091142112F0CBFE094942
:1017C000132807D00420084A04F0E0FB1F35280046
:1017D0000FB030BD054A09AB022004F0D7FBF6E795
:1017E000BE9A0108AF9A01087C5901089459010872
:1017F000F0B51C4F87B001AE00223100380011F067
:1018000075FE00226946380011F098FE0023164A42
:1018100000213078FEF748FE002304000D00134A33
:1018200000217078FEF740FEFA2224184D41002373
:101830000021B0789200FEF737FE24184D41F96878
:1018400000290BD0FA20029B8000CB1A58430131AB
:10185000FEF794FC00230200A4185D41200029003B
:1018600007B0F0BDE80D002080EE360060EA000011
:10187000F0B5184B18481E68184B87B01C68184BF9
:1018800070401F68FFF73CFE134B0500E018FFF7A0
:1018900037FE144B0090F818FFF732FE01900098C5
:1018A0006840FFF72DFE019B43401800FFF728FE1C
:1018B000050003903018FFF723FE0490E01940194B
:1018C000FFF71EFE0322059003A907480FF0F4FC62
:1018D00007B0F0BD5000F81FB979379E5400F81FCB
:1018E0006400F81F72F36E3C680D0020002330B5D1
:1018F00004001800E25CDD00AA4001331043DAB2B4
:101900009142F7D830BDF7B5441801940F24130065
:10191000A446057864462F093E002C4037369F2D9B
:1019200000D8073E25001E703735092C01D8303409
:101930002500019C01305D700233A042E9D10023F3
:1019400049008B54F7BD000010B50C4C2378012BD7
:1019500011D00F220A4803681A629969073A0A43AC
:101960009A610849012212F0F7FCFD220A23104275
:1019700002D1093B23700023180010BD2001002074
:10198000B00B0020AC01002010B5114C50220021FA
:10199000200012F085FE0F4B0F4A1B68934206D0C1
:1019A00003200E490E4A01F0CDFD032010BD002397
:1019B00001210C4A617013700B4A217013800B4A8D
:1019C00013800B4A13600B4A1370FFF7BDFFEDE75E
:1019D000D0000020B00B002000380140A4590108BD
:1019E000FC050000AC0100202A0100202801002095
:1019F000240100202001002010B5154B0A001C789E
:101A0000012C07D002201349134A01F09BFD022448
:101A1000200010BD002809D1002901D10024F7E7DA
:101A200020000C490D4A01F08DFDF1E70029F5D0A9
:101A30000B4C01006423200012F0B0FA0028EDD016
:101A400009200449074A01F07DFD0924E0E7C0466A
:101A5000D0000020A45901082E0600002F06000027
:101A6000B00B00203606000010B5041E07D1C822B6
:101A700001200649D20001F065FD012010BDFEF7EE
:101A80004DFB81B22000FFF7B7FFF7E7A45901082B
:101A900010B5FFF7E9FF002802D10248FFF7E4FF85
:101AA00010BDC0469A9E010810B5B6B004AC200027
:101AB00005F038FC031E09D0C0210C4A06A812F01C
:101AC00049FD06A8FFF7E4FF36B010BD4821237892
:101AD0000391A188064A0291A17806A80191617834
:101AE0000091C02112F036FDEBE7C046BC59010859
:101AF000D9590108F0B5C3B00AAF380005F012FC9F
:101B0000051E0CD00300C021374A12A812F022FD96
:101B100012A8FFF7BDFF0500280043B0F0BDBB7859
:101B20000600002B43D13148F3E7637AC0210893C4
:101B3000237A2F4A0793E37912A80693A379059392
:101B40006379049323790393E3780293A378019351
:101B500023880093330012F0FDFC12A8FFF798FFD2
:101B6000002802D09122234939E0A17D6289A3890E
:101B70000591617D1B040491217D13430391E17C58
:101B80001D4A0291A17C0191218AE0890904014347
:101B9000009112A8C02112F0DDFC12A8FFF778FF17
:101BA000002802D09E22134919E00136F6B2BB7814
:101BB000B342B1D90CAC2100300005F011FB002874
:101BC000B3D000903300C0210C4A12A812F0C2FC1E
:101BD00012A8FFF75DFF0028E7D07F220549092002
:101BE00001F0B0FC092597E70B5A0108285A0108B3
:101BF000575A0108A4590108985A0108395A01088E
:101C0000F0B50024B5B002900191019B9C4201D334
:101C100000202FE02300C0211B4A04A812F09AFCE8
:101C200000250600029B1F19019B1B1B9BB20393FF
:101C3000039B9D4201D0102D0BD104A8FFF728FF74
:101C400000281DD00920BE22104901F07BFC09208C
:101C500010E0C02104A83B780D4A891B801912F0BE
:101C600079FC0137002807DA1E20BA22074901F063
:101C700069FC1E2035B0F0BD01353618ADB2D7E78E
:101C80001034A4B2C1E7C046EA5A0108A4590108B9
:101C90003D800108F0B5CA4C0600A5440CAC2000FC
:101CA00005F040FBC74A031E1BD1A378C648002B92
:101CB0001CD010A804F0E2FE022802D110A804F003
:101CC0000DFF10A80EAD2AAC04F042FF2B008022BD
:101CD000210010A8012E0FD104F0C2FE031E0ED069
:101CE000BA4AC0214AA812F035FC4AA8FFF7D0FE34
:101CF000AB239B009D44F0BD04F0ACFEEEE7697998
:101D00002B8803912979B24A0291E9784AA8019176
:101D1000A9780091C02112F01DFC4AA8FFF7B8FE77
:101D2000002806D0AB49AC4A092001F00BFC092081
:101D3000DEE720002988FFF763FF002802D0A549CD
:101D4000A64AF1E72D883D2D0ED82B00A44AC021CC
:101D50007AA812F0FFFB7AA8FFF79AFE002800D0BD
:101D6000CEE1FFF7A1FEC3E72378022219009143D9
:101D7000A12901D09B4AEAE7A178702902D00B0083
:101D8000994AE4E701910093C0212B00974A7AA871
:101D900012F0E0FB7AA8FFF77BFE002804D0C622F1
:101DA0008C4952000920A9E129002000FFF728FFF3
:101DB000002803D08E228749FF32F3E723788C492D
:101DC000A32B00D18B4901910093C02100238A4AA3
:101DD0007AA812F0BFFB7AA8FFF75AFE002802D0BB
:101DE00098227C49E8E76378C0210093834A012365
:101DF0007AA812F0AFFB7AA8FFF74AFE002802D0BB
:101E0000CF227449CDE7A378C02100937C4A0223F6
:101E10007AA812F09FFB7AA8FFF73AFE002802D0BA
:101E2000A6226C49C8E7932006AB1AAEC018320050
:101E30000821FFF768FD0323C021724A00967AA8A3
:101E400012F088FB7AA8FFF723FE002802D0D722E1
:101E50006049A6E79B2006ABC01832000821FFF7B7
:101E600052FD0B23C021684A00967AA812F072FB3B
:101E70007AA8FFF70DFE002802D0DB22554990E733
:101E8000E37CC0210093614A13237AA812F062FB1D
:101E90007AA8FFF7FDFD002802D0DF224D4980E738
:101EA000237DC02100935A4A14237AA812F052FBD2
:101EB0007AA8FFF7EDFD002802D0C62245497BE74E
:101EC000A52006AB0221C018FFF710FD15230090D6
:101ED000C021504A7AA812F03DFB7AA8FFF7D8FD3E
:101EE000002802D0CE223B4966E7A72006AB02219C
:101EF000C018FFF7FBFC17230090C021464A7AA8C0
:101F000012F028FB7AA8FFF7C3FD002802D0D622E2
:101F1000304951E7A92006AB0221C018FFF7E6FCC3
:101F200019230090C0213D4A7AA812F013FB7AA829
:101F3000FFF7AEFD002802D0DE2226493CE7AB20A9
:101F400006AB0221C018FFF7D1FC1B230090C02173
:101F5000334A7AA812F0FEFA7AA8FFF799FD002812
:101F600002D0E6221B4927E7AD2006ABC01832009D
:101F70000521FFF7C8FC1D23C0212A4A00967AA834
:101F800012F0E8FA7AA8FFF783FD002802D0F722C2
:101F9000104906E72BABDB7F06A9019393235B185F
:101FA000DB7FC0210093204A22237AA812F0D2FAC4
:101FB0007AA8FFF76DFD002838D0F8220549FBE626
:101FC00054FDFFFF205B01083D5B0108495B0108F0
:101FD000615B0108A45901080E0300000F03000013
:101FE0009E5B0108B55B0108CE5B0108E45B01085C
:101FF000F65A0108F15A01080F5C0108335C010828
:10200000545C0108855C0108A05C0108BB5C010808
:10201000DB5C0108F65C0108125D0108335D010814
:10202000545D0108745D01088F5D010895233F240C
:1020300006AA9B18DB7F0A211C402000DB090293C3
:10204000FEF722F9C9B2019120000A21FEF796F8A5
:10205000D14FC0B2009024233A00C0217AA812F0D8
:1020600079FA7AA8FFF714FD002802D0CB49CC4AB0
:1020700098E6B52006ABC01832000421FFF743FCF8
:102080002523C021C74A00967AA812F063FA7AA8DD
:10209000FFF7FEFC002802D0C049C34A82E6B923FC
:1020A00006A95B181B78C0210093C04A29237AA88F
:1020B00012F050FA7AA8FFF7EBFC002802D0B749DB
:1020C000BB4A6FE6BA230F2406AA9B181B78B949AE
:1020D0001C401B09013BDBB20B2B02D8B64A9B000C
:1020E000995800912A23C021B44A01947AA812F089
:1020F00031FA002807DA1E20A849B14A01F022FA75
:10210000A649B04A10E67AA8FFF7C2FC002802D020
:10211000A249AD4A46E6BB23012006AA9B181B78BC
:10212000AA4A99080140049159090140039199096B
:1021300001400291D90901910093C0212B237AA873
:1021400012F008FA7AA8FFF7A3FC002802D09349FE
:102150009F4A27E6BD2306A95B181B78C02101937F
:1021600035AB1B789B4A00937AA82C2312F0F2F926
:102170007AA8FFF78DFC002803D08F2287499200B0
:1021800010E6BE2306AA9B18BF221B78079306AB56
:10219000D218117836AA12789446C122D218107833
:1021A000C222D2181678C322D21817780A00079BC9
:1021B0001A4063461A40FF2A10D100902E23C021F6
:1021C000854A029701967AA812F0C4F97AA8FFF717
:1021D0005FFC002810D096227049D0E70293079B3D
:1021E000039001910093C0212E237C4A0597049609
:1021F0007AA812F0AFF9E9E737AB1B78C02100935A
:10220000774A34237AA812F0A5F97AA8FFF740FCA0
:10221000002802D06149734AC4E5C52306AA9B1869
:102220001B78C021099300936F4A35237AA812F0D6
:1022300091F97AA8FFF72CFC002802D057496B4A85
:10224000B0E5C62306AA9B181B780A930A9A684B26
:10225000FF2A00D1674B01930A9BC0210093664A75
:1022600036237AA812F076F97AA8FFF711FC002835
:1022700002D04A49614A95E5C72006ABC01804213F
:10228000FFF734FB0300079001330DD13723C02142
:102290005B4A7AA812F05EF97AA8FFF7F9FB071EED
:1022A0004AD03E49574A7DE5079BC0210093564AD4
:1022B000372301947AA812F04DF9EDE7B21C0B9286
:1022C000934202D22300514A41E52AA802218019F3
:1022D000FFF70CFB4E4B82B29A420FD13300C02164
:1022E0004C4A00947AA812F035F97AA8FFF7D0FB8F
:1022F000013400284ED0AC22284940E70A9AE3B2C4
:1023000080B293420FD3089B01330CD0089B0190FD
:102310001B1A08930293C02133003F4A00947AA805
:1023200012F018F9E1E701903300C0213B4A009414
:102330007AA812F00FF9D8E73B260400079B089310
:102340000999E2B26B1E0B928A42B7D302222AA8E5
:10235000115C01327F18FFB29342F9D8A422920097
:1023600006A99A1852182E49521814782D49A742D6
:1023700000D12D4902912D4AC021019700947AA8DD
:1023800012F0E8F87AA8FFF783FB002852D003493F
:10239000274A07E50B9ED3E7AE5D0108A459010863
:1023A00005020000D65D01080F020000F15D010882
:1023B00016020000FB5A010890CA0108105E0108CD
:1023C000220200001203000023020000375E010811
:1023D00031020000755E0108975E0108C95E0108C0
:1023E000015F0108620200001D5F01086A0200002F
:1023F0009C9E0108035B0108385F0108730200001E
:10240000555F010887020000825F0108AB5F010889
:10241000FFFF0000C75F0108F45F010820600108AA
:1024200000FEFFFF175B0108248B01083E600108D6
:10243000C3020000074BA74200D1074B0293079B42
:10244000C0210193099B054A00937AA82B0012F042
:1024500081F880E4A17C0108248B01086E600108EA
:1024600010B504210148FFF7C7FA10BDC3CA01081F
:10247000F0B5BF4BCFB01B780E93012B06D0BD49F2
:10248000BD4A022001F05EF8022005E0FFF75CFA89
:1024900003000A20002B08D04FB0F0BD0021B44A41
:1024A0000B00907801281DD19170B449B4480A8876
:1024B000008893B2824201D100F08CFEB14AD25C16
:1024C00001339BB2D2B27F2B00D9002333200B8083
:1024D00008ABC01802700A2AE0D00D2A01D000F023
:1024E00034FE0E9B0022A24CA370A388E3181A743A
:1024F0006378012B04D1A448FFF7B6FA0028CBD1AA
:10250000237C002B00D1A1E10BF0B2FF0600FFF706
:10251000A5F8050001F01EF80F9001F071FC040011
:1025200005F07EFB994B0700994918000D93FDF7C4
:10253000EBFD002800D0AEE09648FFF7A9FA00288E
:1025400000D0A6E09448FFF7A3FA002800D0A0E04E
:102550009248FFF79DFA002800D09AE09048FFF7D4
:1025600097FA002800D094E08E48FFF791FA0028EF
:1025700000D08EE08C48FFF78BFA002800D088E06E
:102580008A48FFF785FA002800D082E08848FFF7E4
:102590007FFA00287DD18748FFF77AFA002878D1A2
:1025A0008548FFF775FA002873D18448FFF770FA61
:1025B00000286ED18248FFF76BFA002869D1814864
:1025C000FFF766FA002864D17F48FFF761FA002818
:1025D0005FD17E48FFF75CFA00285AD17C48FFF7AC
:1025E00057FA002855D17B48FFF752FA002850D1FE
:1025F0007948FFF74DFA00284BD17848FFF748FAA1
:10260000002846D17648FFF743FA002841D17548A3
:10261000FFF73EFA00283CD17348FFF739FA00284B
:1026200037D17248FFF734FA002832D17048FFF7EB
:102630002FFA00282DD16F48FFF72AFA002828D159
:102640006D48FFF725FA002823D16C48FFF720FAE0
:1026500000281ED16A48FFF71BFA002819D16948E3
:10266000FFF716FA002814D16748FFF711FA00287F
:102670000FD16648FFF70CFA00280AD16448FFF72B
:1026800007FA002805D16348FFF702FA002800D1B5
:10269000DCE0092000E760490D98FDF735FD0028D2
:1026A00011D10BF0E9FEC02100905C4B5C4A1EA8E2
:1026B00011F050FF002856DA2E495A4A1E2000F029
:1026C00041FF1E20E8E658490D98FDF71DFD002842
:1026D0002ED1737A0D9333690F9373691093636AE4
:1026E000119302F097FD129005F094FA04000AF09D
:1026F000DBFCB3790500F76913930AF0E7FC139B41
:1027000008900693129BC0210393119B474A0293A2
:10271000109B079701930F9B0595009304940D9BC5
:102720001EA811F017FF00281DDA1249404AC5E71C
:1027300040490D98FDF7E8FC002800D07EE0A9682C
:102740002B7F069169783C4A059169681EA804911F
:10275000A96903916969029129690191E968009168
:10276000C02111F0F7FE1EA8FFF792F996E2C046CD
:10277000D0000020A45901081506000028010020FF
:102780002A0100202C0100209A9E0108E000002070
:10279000BC600108C1600108EE6001081F6101080A
:1027A0004E61010881610108B3610108E56101081A
:1027B0001B6201084B62010878620108B8620108D7
:1027C000ED6201082A6301085B6301089063010858
:1027D000C8630108FA6301082C6401086B640108EE
:1027E0009D640108D464010807650108406501087B
:1027F00075650108B1650108FA65010845660108BB
:102800007B660108C1660108F36601082A670108B2
:10281000606701088F670108F6780108BF67010843
:102820008FB401083B04000071620108D7670108FA
:102830004E0400002A68010830680108D8490D9844
:10284000FDF762FC00280ED1FEF79CFFD54B9A687D
:1028500001329A6000229A801A74FFF701FE002864
:1028600000D122E618E6D0490D98FDF74DFC00286E
:1028700012D10F990F9B89681B7801910F99CB4A50
:1028800049681EA80091C02111F064FE002800DBF9
:1028900069E7C749C74A11E7C7490D98FDF734FCF6
:1028A000002805D0C5490D98FDF72EFC002861D100
:1028B00001F0A6FA04000EF015F90D9002F0AAFC42
:1028C000050002F0B1FC676A0600A46A05F0A2F9EF
:1028D0002B000390C021BA4A0294019700961EA8CB
:1028E00011F038FE002802DAB149B64AE6E61EA821
:1028F000FFF7CEF8051E10D0AD49B34A092000F00D
:1029000021FEC6E61EA8FFF7C3F8002802D0A8499A
:10291000AE4AF3E701350C2D98D0E8B201F074FA15
:10292000041EF7D04669002E01D00D9B9E1BA768A0
:10293000002F00D1A64F23690F93E3681093A0786E
:1029400001F06CFA237F069607932379C021059343
:10295000E378A04A0493109B039002930F9B009787
:1029600001931EA82B0011F0F5FD0028CADA90494A
:10297000994AA3E699490D98FDF7C6FB002806D0B1
:10298000974D98492800FDF7BFFB00281BD102F0A6
:1029900041FC050002F048FCA369C021059363696E
:1029A000914A049323690393E3680293A368009018
:1029B00001931EA82B0011F0CDFD002800DBD2E60C
:1029C0007B498A4A7AE628008949FDF79DFB002861
:1029D00005D028008749FDF797FB002810D17969B9
:1029E000FB7804913969844A0391F9681EA8029121
:1029F000B968019179680091C02111F0ABFDB2E690
:102A000028007E49FDF780FB00282FD10AF04CFBFF
:102A1000636A0D900F93B379F7691093337A346C2E
:102A20001193336AB5691293B36A13930AF04EFB9C
:102A3000F36CC0210A93336D714A0993139B08907C
:102A40000593129B07950393119B06940293109B89
:102A5000049701930F9B1EA800930D9B11F07AFD24
:102A6000002800DB7FE65249664A27E628006649CF
:102A7000FDF74AFB00281FD100F036FD040000F0EE
:102A800039FD050000F034FD060000F03FFD230095
:102A9000211E01D0A368E1680391029301902B00ED
:102AA000C0215A4A00961EA811F054FD002800DBF0
:102AB00059E63F49564A01E628005649FDF724FBEE
:102AC000002856D1159016901790189017AB18AA99
:102AD00016A915A8FEF7CAFB4F4C002814D1179B66
:102AE00021000293189B4D4A0193169B02300093DC
:102AF0001EAD159B03F04AFA29004948FEF778FC01
:102B0000002808D0474A00E0474A2100042003F08B
:102B10003DFA1F20C0E41E9E301CFEF769FA6F6864
:102B20000D90381CFEF764FA0500FEF781FA011CCF
:102B3000381CFEF71BF83D49FDF7C6FEFEF758FAB4
:102B400002900D980195FEF773FA011C301CFEF7F8
:102B50000DF83649FDF7B8FEFEF74AFAC317C0185C
:102B60005840009021000D9B314A022003F00EFADC
:102B70006CE6304E28003100FDF7C6FA002878D107
:102B800001300BF019FC0BF0D3FC08F06BF80028B7
:102B900054D00749284A1F2000F0D4FCB9E7C046AA
:102BA000877E0108D0000020CE6A010876680108FF
:102BB000A45901087104000096680108A168010881
:102BC000A66801089A0300009B030000B6030000FA
:102BD0007BCA0108D0680108B50300001A69010822
:102BE000E00000201E690108236901088604000036
:102BF000D56E01087169010877690108BE60010896
:102C0000B4690108AA040000E8620108286A010802
:102C1000BB040000586A0108916A01085C6A010857
:102C2000C00C0020C36A0108956A01080000C84270
:102C3000A46A0108D46A0108FA0400000BF078FCC9
:102C400008F052F8041E02D0BA49BB4AA3E70BF0C1
:102C50006FFC012008F0CAF9012008F00FFA0BF010
:102C600067FC08F077FA0BF063FC20000BF0A4FB84
:102C7000ECE52800B149FDF747FA002806D1FEF738
:102C800013FF002815D0AB49AD4A37E62800AD49FF
:102C9000FDF73AFA002806D1FEF706FF002801D01A
:102CA000FFF7FAFBD2E52800A749FDF72DFA002827
:102CB00002D1FEF71FFFF1E72800A449FDF724FA2F
:102CC000002802D1FEF7E6FFE8E72800A049FDF75B
:102CD0001BFA002801D10130F4E728009D49FDF7D7
:102CE00013FA00280BD101F083F89B4A031E9B487E
:102CF00000D139E5C0211EA811F02CFC33E52800D5
:102D00009749FDF701FA00281FD100F0ABFB954A67
:102D1000031EEFD101F06CF8041E04D000F0BEFBDE
:102D20002300914AE6E700F0E9FB040000F0EAFB2B
:102D300023000090C0218D4A1EA811F00BFC002832
:102D400000DB10E57B498A4AB8E428008949FDF791
:102D5000DBF9002806D028008749FDF7D5F90028BF
:102D600000D085E009F0C2FA041E03D1D5227149D2
:102D7000FFF787FB03788148012B00D0F4E46278E9
:102D800023696069A569E6687D49012A03D07D4908
:102D9000022A00D07C49277A7C4A0697E778059773
:102DA000A77803910090C0210497029601951EA870
:102DB00011F0D0FB1EA8FEF76BFE002802D0E8221F
:102DC0005C499BE5A17A23790491E179704A0391EA
:102DD000A1791EA80291617A019161790091C021C7
:102DE00011F0B8FB1EA8FEF753FE002802D0F42213
:102DF000504983E5637A002B11D06648FEF748FE00
:102E0000002802D0F8224B4978E52000617A1C3076
:102E1000FEF7F6FE00280AD0F92246496EE55E4824
:102E2000FEF736FE002802D0FF22424966E5A37A6B
:102E3000002B14D05948FEF72BFE002803D0822225
:102E40003C4952005AE52000A17A5C30FEF7D8FEDA
:102E5000002800D1FAE406223649FF324EE55048F8
:102E6000FEF716FE002800D1F0E40C223149F4E709
:102E70004C4F28003900FDF747F9002806D00422FE
:102E80002800494911F037FC002816D1474B484823
:102E9000DB7C002B00D147481EACC022210002F091
:102EA000D5F9031E07D02278002A04D1C0212000C2
:102EB000414A11F04FFB200056E428003F49FDF73E
:102EC00023F9002816D102F0A5F9050004F0A2FEAE
:102ED000E378C0210293A378394A019300902B0034
:102EE0001EA811F037FB002800DB3CE41149354AED
:102EF000FFF7E4FB09222800334911F0FCFB2B4CBF
:102F0000002807D008222800304911F0F4FB0028DF
:102F100000D0FFE0E37C2E490E9C662B01D00024FC
:102F20002C49280018AA11F049FB012856D02A483C
:102F30001AE4C046A4590108FC040000DA6A01083A
:102F40000C050000E06A0108EB6A0108F66A010856
:102F5000016B01080B6B0108556B0108156B01082B
:102F6000266B01082E6B01084D6B0108716B01087F
:102F70004A050000976B0108A06B0108AC6B0108C3
:102F80009FC20108B8C901089C600108BA6B01081A
:102F9000086C0108406C0108546C01086E6C010853
:102FA000836C01089E6C0108A26C0108D00000200F
:102FB000E40000209C9E0108A76C01081B69010821
:102FC000C56C01086B050000E66C0108F06C010897
:102FD000AE600108A1600108F96C01087F4918A8DA
:102FE000FDF792F800285CD07D4918A8FDF78CF811
:102FF000002863D07B4918A8FDF786F800285DD02B
:10300000794918A8FDF780F8002859D0774918A801
:10301000FDF77AF8002853D0754918A8FDF774F821
:1030200000284FD0734918A8FDF76EF8002849D042
:10303000714918A8FDF768F8002845D06F4918A80D
:10304000FDF762F800283FD06D4918A8FDF75CF83D
:1030500000283BD0390018A8FDF756F8002837D0D3
:10306000310018A8FDF750F8002833D0654918A89A
:10307000FDF74AF800282FD0634918A8FDF744F857
:1030800000282BD0614918A8FDF73EF8002827D06A
:103090005F4918A8FDF738F8002821D05D48FFF7F0
:1030A00063FB0E9D002228001100012C1AD100F0B4
:1030B00039FE594C031E1AD0584A1BE60225F1E787
:1030C0000325EFE70825EDE70525EBE70A25E9E706
:1030D0000E25E7E71525E5E71925E3E71C25E1E7D8
:1030E0002825DFE700F025FE4D4C031EE4D1280023
:1030F00000F094FE23000090C0214A4A1EA811F05F
:1031000029FA002801DBFFF72EFBB2224649D20044
:10311000FFF7D4FA28004549FCF7F6FF002804D150
:10312000012343486370FFF71FFB28004149FCF768
:10313000EBFF002803D160703F48FFF715FBE36801
:103140003E480133E360FFF70FFB082A01D07F2AD6
:1031500016D13B4A9388002B01D1FFF7A6F9002135
:10316000013B9BB29380D31819745378012B01D083
:10317000FFF79BF933480331FEF73EFCFFF76FFB87
:103180001300203B5E2B01D9FFF78FF92C498B8868
:103190003E2B11D900232C488B800B74FEF778FC52
:1031A000002801D1FFF759FB0D201F49274A00F0E5
:1031B000C9F90D20FFF770F9CC18227400220133F1
:1031C0009BB28B80CB181A744978012901D0FFF784
:1031D0006CF9D1E70020FFF75FF9C046106B0108DA
:1031E0004C6D0108516D0108566D01085C6D0108B8
:1031F000606D010841A50108666D0108696D01084F
:10320000766D01087C6D0108477E0108CD6D0108CF
:10321000836D0108886D010824670108D36D0108DA
:10322000EB6E0108EE6D0108A4590108096E010852
:10323000116E01081E6E0108276E0108356E010827
:10324000D0000020C0CA0108526E0108E705000046
:10325000030070B5002820D0124883421DD11249C6
:10326000124C0A782388D2B29DB201339BB27F2BD5
:1032700000D900230E4E36889E420FD10D4A1368A6
:103280000133136000230C4C0122237011F064F809
:10329000FD23184201D1FC3B237070BD074E7255CF
:1032A0002380EFE7B00B0020AC0100202A010020B2
:1032B0002801002024010020200100202C010020F2
:1032C00010B5002815D00B4B984212D10F2203687D
:1032D000094C1A629969073A0A439A61002301224C
:1032E0000649237011F038F8FD23184201D1FC3B48
:1032F000237010BDB00B002020010020AC01002085
:1033000000487047D0000020012370B5050001215E
:103310003C355B420278534008221C005E080C409A
:103320000B4200D0054C3300013A6340002AF4D12F
:103330000130A842EED1D84370BDC0462083B8ED1D
:1033400070B5010094B0002808D14B220120224919
:1033500000F0F8F80125280014B070BD04AE40223A
:10336000300011F037FA3000FFF7CEFFF0630EF0B7
:1033700093F8041E05D0502217491F2000F0E2F8F0
:1033800010E0164B164A69469A61164B019002935B
:103390000123009001A803930EF076F9002803D0D2
:1033A0000EF0ACF81F25D6E70E4B02203259E1187B
:1033B0000EF0ECF80028F3D10434402CF4D10EF0D8
:1033C0009DF8051E02D06A220349D6E7220031008B
:1033D000054811F0FFF9BEE79D6E0108002002408C
:1033E000020F000000E00108B001002070B5174C8A
:1033F00040222000164911F0EDF9164D2368AB422A
:1034000004D1802362685B029A4213D034220021E7
:10341000114811F045F980235B026360012320000D
:103420002560A360FFF770FFE06301220B4B0020D3
:103430001A7070BDA368013B012BE7D82000E66B32
:10344000FFF762FF8642E1D1EFE7C046B0010020FE
:1034500000E0010854425544BC010020AD010020A9
:103460007047000000B50B4B91B01B78012B01D0C9
:10347000FFF7BCFF40220849684611F0ABF9022370
:1034800068460393013B04930593FFF759FF11B07E
:1034900000BDC046AD010020B001002000B50A4BC0
:1034A00091B01B78012B01D0FFF7A0FF4022074904
:1034B000684611F08FF9002368460393049305933F
:1034C000FFF73EFF11B000BDAD010020B0010020AC
:1034D00010B5044B1B78012B01D0FFF787FF0020AC
:1034E00010BDC046AD01002000487047B00100206B
:1034F0000120704700487047B86E010800487047C7
:10350000BE6E01080048704700000108044B0548E2
:103510005B69042B02D8044A9B0098587047C04648
:10352000B0010020C46E0108C8CA01080022034B84
:1035300003491A7059609A607047C0460000002025
:10354000F06E0108024B187059609A607047C046CF
:1035500000000020004870470000002072B6C046FE
:10356000FDE70000014B18707047C0460C000020BA
:1035700070B5041E28D085781F2306880B2D1DD812
:103580000122A521AA400901013B0A4216D10133BB
:10359000022D13D1033BB20710D164213000FCF798
:1035A00073FE89B21D23002908D191313000FF310B
:1035B000FCF76AFE8BB25A4253411C33E278013267
:1035C000D2B29A4201D8E27070BD0123ED18EDB27B
:1035D000E3700C2D01D8A570F6E70136A3702680A4
:1035E000F2E70000F8B507000D00141E06D11D49D2
:1035F0001D4A0120FFF7A6FF0120F8BD1B4B994291
:1036000002D918491A4AF4E700261A49D671FCF77C
:10361000B5FD642120803800FCF7B0FD6421FCF783
:1036200033FE3800A1706421FCF72EFE2800E17003
:103630001149FCF7A3FD104920712800FCF724FE76
:1036400008000E49FCF79AFD0C4960712800FCF750
:103650001BFE0800FA218900FCF790FDA0713000E4
:10366000CBE7C046F56E0108CA030000FF5B2605E4
:10367000CB0300001027000080EE360060EA000057
:10368000F0B589B006000D0017000193282819D85D
:1036900002AC18220021200011F002F80123A670CC
:1036A0002370E5700DF01EFA019B6060A76020009A
:1036B000E360012D03D104F0BFF909B0F0BD04F0BF
:1036C000F5F9FAE7B022012002499200FFF73AFF2C
:1036D0000120F2E7F56E0108F0B585B00C001F1E61
:1036E000019202D00A9B002B08D11549154A0120EE
:1036F000FFF728FF0125280005B0F0BD02AE32001B
:10370000FFF770FF019B0500E418002807D00C4963
:103710000D4AECE70D4B3000E418FFF729FF0C4B86
:103720009C42F7D832880B4BB178534364224A430A
:103730009B18F2789B183B600A9B1C60DBE7C04635
:10374000F56E01080A0400000D04000000A4D9FA77
:10375000FF5B26051027000073B5050010000E0062
:1037600003F00EF9012806D00B490C4A0120FFF79F
:10377000E9FE012076BD0A4A310000922800094B7B
:10378000094AFFF7A9FF002802D00349074AEDE7DD
:10379000074BD861EEE7C046F56E010866040000ED
:1037A000F4020020F0020020C0D4010072040000E6
:1037B000E802002073B504000800002C06D11F4960
:1037C0001F4A0120FFF7BEFE012076BD03F0D8F8A6
:1037D000012802D019491B4AF3E708222100684654
:1037E00010F0F8FF23791848184E58436379A279EE
:1037F0007343C018FA239B0053433100C018FCF7F1
:10380000BDFC01307043124B6D4698420DD82288A2
:10381000A678E4780F4B10495343642272439B18F7
:103820001B1988604B600020CFE76846FFF7A0FEB9
:1038300000202A88AE78EC78ECE7C046F56E0108E7
:10384000E2030000E303000080EE360060EA0000BF
:10385000FF5B26051027000008030020F0B5394B58
:1038600093B0DB68DB060FD4374CE378002B04D031
:103870000320364A364902F089FB002302252380C3
:10388000E370280013B0F0BD06A8FDF72FFF051E5A
:1038900005D03049304A2800FFF754FEF1E708A868
:1038A00003F0ECF8FD230500184216D102AAE03B14
:1038B0009B18D87F022603F06FF8234CFF3623882D
:1038C0000100B3420CD006A8A170FFF773FF051EDC
:1038D0000ED001201F49214ADEE71E49204ADAE7BF
:1038E000A3788342EFD1E378012BECD10025C8E720
:1038F0000123A768E370A37826803800194905934F
:10390000FCF7C2FC0800FA218900FCF737FC1649D5
:1039100003903800FCF7B8FC08001249FCF72EFCB5
:10392000114902903800FCF729FC019063680F4EA2
:10393000074D009332002900059B022002F026FB70
:10394000D4E7C04600280040080300200B6F0108A0
:1039500063B90108F56E01089A040000AC04000088
:103960009D04000060EA000080EE3600476F010809
:10397000F0B56F4B97B0DB68DB060FD46D4CE37886
:10398000002B04D003206C4A6C4902F0FFFA00239C
:1039900002252380E370280017B0F0BD0AAC200098
:1039A000FDF7A4FE051E05D06549664A2800FFF70D
:1039B000C9FDF0E70CA803F061F8FD2305001842EB
:1039C00012D102AACF3B9B18D87F02F0E5FF070077
:1039D00002F0D6FF0500012809D059495A4A0120B2
:1039E000FFF7B0FD0125D6E75549584ADEE7514EAD
:1039F0003379012B09D0FDF73BFF3D21FCF744FC57
:103A0000FA239B004B433571B36102223388FF32A6
:103A1000934206D1B378BB4203D1F378012B00D196
:103A200084E0B3693800B770079302F0A9FF01285A
:103A300007D04349464A0120FFF784FD4049454AE3
:103A4000CDE72179444B62795943444B4448534371
:103A5000C918FA23A2799B005343C9182388A27876
:103A6000584364235343C018E3783E4AC0180CAB54
:103A7000009309ABFFF730FE002802D030493A4AE4
:103A8000D9E7354C0C9B7C43099D0693002C04D050
:103A900021001800FCF772FB0400FDF7E9FE334B30
:103AA0003F0663436F40784058400B21FA27FCF7EC
:103AB000EBFBBF007943079A0C0052182C492800F1
:103AC00000912C4B0699FFF707FE002802D01C49F5
:103AD000294AB0E70223FF333380013BFF3BF370F9
:103AE000B378F568F46105940693B36928001B491F
:103AF0000493FCF7C9FB08003900FCF73FFB1649AB
:103B000003902800FCF7C0FB08001449FCF736FBC3
:103B1000114902902800FCF731FB0190B3680220A4
:103B20000093164A069B054902F030FA002532E759
:103B300000280040E8020020876F010863B90108EF
:103B4000F56E0108560500005A05000059050000F1
:103B50003E0400007205000080EE360060EA0000BE
:103B600010270000C0D401004A040000B179379E3C
:103B7000F4020020F002002052040000BA6F010895
:103B8000A02010B5C0050022042101F0FDFD002099
:103B900010BD000070B51D4D2B78012B34D01C4C8E
:103BA0001C4920000BF09CF9002801D01E2070BD9C
:103BB000194E21003000194B194A0BF0CFFD002897
:103BC000F4D13200210017480CF06AFB0028EDD137
:103BD000154E210030000AF051FF021EE6D13000E0
:103BE00012490AF067FF200008F07AF90028DDD1B9
:103BF000FF220F4B0F4918700F4B02301A70012330
:103C00000E4A2B7002F0C2F90020D0E7F401002028
:103C1000C0020020140D002044020020F8CB01084F
:103C200008CC01081C020020F801002065350008BE
:103C3000F501002063B901080C0000202070010884
:103C4000012210B5034B02201A700349034A02F007
:103C50009DF910BDF501002063B901084470010809
:103C600070B5051E07D101200B490C4AFFF76AFC0D
:103C70000124200070BDFFF7F1FD041E04D00649A9
:103C8000074AFFF75FFCF4E7064B2A00996858687B
:103C9000FFF7A8FC0400ECE7F56E010854080000EB
:103CA000570800000803002070B5051E07D1012049
:103CB0000B490C4AFFF746FC0124200070BDFFF7BA
:103CC00057FE041E04D00649074AFFF73BFCF4E701
:103CD000064B2A00D9689868FFF784FC0400ECE7DB
:103CE000F56E01086208000065080000E802002087
:103CF000002310B5074A02201380D37093605360ED
:103D0000054A06491380D3709360D360044A02F0D9
:103D10003DF910BD08030020E802002063B9010846
:103D20005F70010810B513000A000121FFF7A8FC1D
:103D300010BD10B513000A000021FFF7A1FC10BD53
:103D4000F7B5D822204C520000212000F426FA2793
:103D500010F0A6FC00231D4AF600BF001C48990085
:103D60004158012091601B4998408C46FA216546D4
:103D700013704900284204D13900304201D1594220
:103D80005941D16002210133117720320C2BE5D14A
:103D9000012525700024104B21001C700F4B1022B0
:103DA0001C700F4B0F481C700F4B1C7010F078FCF0
:103DB000210020220D4810F073FC28002200210071
:103DC000FFF7B7FFFEBDC046180300201C0300200C
:103DD00080CB01085A080000F3010020F201002006
:103DE000F101002008030020F0010020E80200207B
:103DF00010B5012200210820FFF79BFF10BD000035
:103E0000004870479C040020030000200B2B02D8C0
:103E100001485B01181870471C0300200300034889
:103E2000282B02D8024A9B0098587047BB700108A3
:103E3000DCCA0108F0B5224C8DB00B934301E418A5
:103E4000A37915000893E37907000993237AE271B7
:103E50000A9300230E002372A1710CF043FE01238C
:103E60000B9A6371E318DA776369A06101336361C8
:103E7000089BE061B34205D1099BAB4202D10A9B8A
:103E8000002B1AD00F4ABB0008989C58FFF7C6FFBA
:103E900007003000FFF7C2FF0B9B01900693002341
:103EA00005930A9B02200493099B074A0293074942
:103EB00023000395009702F069F80DB0F0BDC046ED
:103EC0001803002080CB0108C370010863B9010802
:103ED000002310B51A0003211800FFF7ABFFFEF70F
:103EE000C7FA00220400030003211000FFF7A2FF1D
:103EF000200010BDF0B59FB00D000990282801D911
:103F000000F056FF8623B74CFF33E0540CF0EAFD77
:103F1000CE2301225B00E05000200C33E250203B16
:103F2000E0540AF05FFA0890002806D0AE49AF4A84
:103F30001E20FFF707FB1E23FCE0099B581E2728C5
:103F400001D900F030FFFCF70FF928002E07E90037
:103F5000F700FE00F7002001030125012C014001BC
:103F60007501230229024302B202BC02CB02C6023F
:103F7000D502E302CA03DA035D0462047004740428
:103F8000790487043B063F06450653066E06720613
:103F9000BD06D00625070A072907002303211A00BA
:103FA0001800FFF747FF002304211A000120FFF744
:103FB00041FF002307211A000220FFF73BFF0023E7
:103FC00009211A000320FFF735FF00230D211A00F5
:103FD0000420FFF72FFF002311211A000520FFF70F
:103FE00029FF002314211A000620FFF723FF0023D6
:103FF00018211A000720FFF71DFF00231B211A00BC
:104000000820FFF717FF00231F211A000920FFF7E0
:1040100011FF002323211A000A20FFF70BFF0023C2
:1040200025211A000B20FFF705FF002203201100B5
:10403000FFF77FFE011E06D06B496D4A1B20FFF77C
:1040400081FA1B2376E002000420FFF772FE011EB6
:1040500003D0CE226449D200F0E702000720FFF728
:1040600068FE011E02D06049624AE7E702000920AB
:10407000FFF75FFE011E02D05B495F4ADEE70200E8
:104080000D20FFF756FE011E02D057495B4AD5E7C7
:1040900002001120FFF74DFE011E02D05249584A7E
:1040A000CCE702001420FFF744FE011E02D04E4967
:1040B000544AC3E702001820FFF73BFE011E02D05E
:1040C0004949514ABAE702001B20FFF732FE011EA0
:1040D00002D045494D4AB1E702001F20FFF729FEF3
:1040E000002802D0CF224049B5E701210022232039
:1040F000FFF71FFE011E02D03B49454A9EE7020022
:104100002520FFF716FE002802D03749414A95E7DF
:10411000C2235B00E05408981FB0F0BDFFF7D8FE43
:10412000002800D1D7E1D0220A202F49D200FFF782
:1041300009FA0A230893EEE7002305211A0001205B
:10414000FFF778FEC7E10122002306211000F7E700
:10415000012D1AD1FA23304A9B003049032001F087
:1041600015FF80212A0049002D480DF00DFCFA2092
:1041700080000CF0BDFC72B6BFF34F8F294B2A4A6A
:10418000DA60BFF34F8FC046FDE7002308211A0015
:104190000220D5E7FFF7F4FC00230A211A000320D0
:1041A000CEE7230068331D78012D0AD100222900B3
:1041B0000B20FFF7BEFD2A00031E04D00A491B4A4C
:1041C0003CE700231A000B21E9E7002201210C2023
:1041D000FFF7AFFD031E02D00349154A2EE7012267
:1041E0000C21DCE718030020F56E01085D060000D5
:1041F0006F060000710600007206000073060000E2
:1042000074060000750600007606000077060000C0
:10421000790600007A060000FA70010863B9010807
:104220000004005000ED00E00400FA05B7060000AD
:10423000C20600002022002114A810F031FAC44A5E
:10424000C449022001F0A2FEA02001220421C005E1
:1042500001F09AFA32200CF04BFCBF4DBF4B2A689C
:104260009A4212D05E220320BD49FFF76BF9A020CD
:1042700000220421C00501F087FA03242300B94A73
:10428000B449032001F082FE76E00F27082601F0F2
:1042900069FB28000FF00AFA2B6814201F629A6944
:1042A00032439A610CF024FC2B6864201F629A69E7
:1042B00032439A610CF01CFC642305222800AA49B1
:1042C0000FF06CFE002806D0A1220920A449FFF7B8
:1042D00039F90924D2E72B6828001F629A6914A9CA
:1042E00032439A6196231522DB000FF0BDFE0400D5
:1042F000032819D128000FF071F92B68099C1F625F
:104300009A6916439E6164200CF0F2FBA020002203
:104310000421C00501F038FA002C0ED0AD229049DE
:104320002000FFF70FF9A9E70028ECD08A220A2025
:104330008B49FFF707F90A24E5E7864E152331007C
:1043400014AA022001F04EFE01F016FF0500012024
:1043500001F00AFF152114A802F012F80400280049
:1043600001F002FF002C02D0B9227D49D8E73100CC
:1043700002207E4A01F00AFE2300002209210320C8
:10438000FFF758FDC2220121794B52009954C2E631
:1043900008F0A4FF00230E211A0014E02300883344
:1043A0001B78012B03D0734B1B78012B0DD10022FE
:1043B00001210F20FFF7BDFC031E02D068496E4AA1
:1043C0003CE601220F210420BAE607F00FFEE1E7E8
:1043D0006A4B1B78012B58D1664B1A78012A09D1F8
:1043E000002267481A700BF081F866480AF096FBC5
:1043F00000284AD1644B1A78012ACBD1FE321A70B8
:1044000007F09AFD002804D00320604A514901F0CA
:10441000BDFD14AD280007F0C1FE061E35D12B7876
:10442000012B23D16978AB7803916979494F0291C7
:10443000297902200191E978554A0091390001F06B
:10444000A5FD6D78012DA5D1320029001520FFF7BB
:1044500070FC031E9ED12A0015210620FFF7EAFCFE
:1044600039004C4A022001F091FD93E74A4D2800A3
:104470000BF022FB00280FD048480BF039FF002832
:1044800088D00238C0B2032884D93549444A1F2055
:10449000FFF758F81F234DE6012128000BF092F991
:1044A000022800D876E7042800D173E7EDE700235F
:1044B00010211A000420FFF7BDFCC22301225B007B
:1044C000E2543848FCF7F2FF002804D00420364AB2
:1044D000364901F05BFDC22301225B00E2541AE67B
:1044E000002213201100FFF724FC0028F3D01C4900
:1044F0002F4AA3E5002201211520FFF71AFC021E16
:1045000002D017492B4A99E503001521062017E62A
:10451000294B1B78012B00D1D4E0284B1B78012BB1
:1045200000D0CFE0FFF724FA02286CD0002806D094
:104530000B49234AFFF706F80949224AA7E714AEB8
:104540003000FDF7D3F8002840D005491E4AF1E7B6
:104550001B71010863B90108280B002000440040CA
:10456000F56E010871710108F0CB01084571010871
:1045700018030020F5010020E6060000F4010020E9
:10458000C0020020F80100200C000020A7710108E3
:10459000D071010804720108440200201C020020AE
:1045A000F4060000C00C002023720108916A010883
:1045B000070700001A070000F0010020F1010020A9
:1045C0009205000025070000950500003288B64BD3
:1045D000B178534364224A43B44D9B18F278A868DB
:1045E0009B1898420FD8E9681FD17279B04BB77900
:1045F0005343FA2292007A4336799B18AD4A7243AC
:104600009B188B4211D20022AB4B14211A7006204A
:104610001300FFF70FFCC22301225B00E254A749FD
:10462000A74A022001F0B2FC75E52B69984202D13D
:104630006B698B42E7D0AA7828616961FFF78CF833
:10464000002803D001209F499F4A73E7EF68AB78A9
:10465000380097496E690793FBF716FE0800FA21A8
:104660008900FBF78BFD934906903800FBF70CFEA1
:1046700008008F49FBF782FD8E4905903800FBF753
:104680007DFD0490AB68300089490393FBF7FCFD86
:104690000800FA218900FBF771FD8649029030007D
:1046A000FBF7F2FD08008249FBF768FD81490190A4
:1046B0003000FBF763FD00902B690220834A7F499D
:1046C00001F064FC002201211620FFF732FB031EDB
:1046D00002D0E6227B49BEE40122162116E7012022
:1046E00009F06AFE002201211720FFF722FB031EBA
:1046F00002D0E7227349AEE40122172106E7744E87
:104700003378012B52D16C4D2B78012B0CD1714A8F
:104710006A49022001F03AFC08F0BAFD002802D0F4
:1047200068496D4AB3E62870002706F007FB051EAE
:104730003ED006F079FE614F684B3900684A0600AA
:104740000095032001F022FC06F07EFD031E07D039
:1047500039000320634A01F019FC002009F02CFE07
:10476000002E09D0337D092B06D1390003205E4A83
:1047700001F00CFC0123089300224F4B14211A7006
:1047800006202B00FFF756FBC42301225B00E254F6
:104790000898043B9218E25409F040FE0890002863
:1047A00000D1B8E44749514AFFF7C2FB0127BCE7F3
:1047B000012006F01BFC012006F060FC012F0BD14C
:1047C0004B4A3E49022001F0E1FB08F061FD002860
:1047D00002D03C49474A5AE606F0BCFC06F034FDDC
:1047E000021E02D03749444A51E60125434B1421A9
:1047F0001870030006203570FFF71CFBC2235B0016
:10480000E55488E4002319211A00072098E40022C7
:1048100001211A20FFF78DFA031E03D02949384AD7
:10482000FFF70CFC01221A21EFE7002318211A00E0
:10483000EBE700231C211A00082081E400221D2040
:104840001100FFF776FA021E03D01E492D4AFFF72A
:10485000F5FB03001D21EFE708F0F0FC0C2302003C
:104860001A40184200D17FE1820811000B3B194029
:10487000C70809911F401A4200D1B0E0FEF7EEFFD1
:10488000041E0AD114AD2800FCF730FF041E3BD0F3
:10489000A1220C49D200FEF755FE022C00D191E076
:1048A0001C2C00D18EE063E010270000E8020020FD
:1048B00060EA000080EE3600F201002063B90108D2
:1048C0002E720108F56E0108B10500005972010849
:1048D000F1010020BE72010846070000F0720108D5
:1048E000FC72010842730108887301084D0600003C
:1048F000BD7301085F07000066070000F00100209B
:104900007B070000960700002A88CF4BA978534305
:1049100064224A439B18EA789B18CC4A54689C420C
:1049200050D890680DD16A79C94BA9795343FA22BE
:1049300092004A4329799B18C64A4A439B188342EE
:1049400040D3FA23C2499B005C43FBF717FCBF4DE1
:104950002618EB689E4235D0A97814A8EE60FEF7C1
:1049600029FF041E0DD00120BB49BC4AFEF7EAFD19
:104970002000B949BA4AFEF7E5FDB749B94AFFF741
:104980005DFBAC68B2492000FBF77EFC0800FA2111
:104990008900FBF7F3FBAF4903902000FBF774FCA1
:1049A0000800AB49FBF7EAFBAA4902902000FBF79D
:1049B000E5FB01906B6802200093AB4A3300AB49E2
:1049C00001F0E4FA002F0DD13A0001210A20FFF78F
:1049D000B0F9002800D1B7E09F49A54ACBE7002FE6
:1049E00000D1ABE0FEF7C4FF051E09D114AE3000C4
:1049F000FCF77CFE051E08D097499E4AFEF7A2FDF3
:104A0000022D72D01C2D70D02EE032888E4BB178E2
:104A1000534364224A43984C9B18F278A0689B1831
:104A2000984262D8E1680DD17279894BB5795343C8
:104A3000FA2292006A4335799B18864A6A439B188A
:104A40008B4252D32369984202D163698B424CD086
:104A5000A27820616161FEF77FFE051E08D001206B
:104A60007D49864AFEF76EFD28007B49844A82E72D
:104A7000E668A3783000764965690793FBF704FC84
:104A80000800FA218900FBF779FB72490690300093
:104A9000FBF7FAFB08006E49FBF770FB6D490590C8
:104AA0003000FBF76BFB0490A36828006849039370
:104AB000FBF7EAFB0800FA218900FBF75FFB654979
:104AC00002902800FBF7E0FB08006149FBF756FB6A
:104AD000604901902800FBF751FB6A4F00903A00B3
:104AE00002202369614901F051FA099B002B00D192
:104AF00066E10122644B3C201A700022634B1A705D
:104B000008F0A4FB031E04D00320614A574901F0BA
:104B10003DFA002201210A20FFF70BF9002802D0FC
:104B20004D495C4A27E7030001220A210320FFF7D1
:104B300081F9594A02204D4901F028FA00231E212B
:104B40001A000820FFF71CFC01223B000A21032069
:104B5000FFF770F9514AEDE7030022001521062006
:104B6000FFF768F94E4AE5E7474B1C78012C10D156
:104B700021001520FFF7DDF8031E03D03649494A0E
:104B8000FFF75CFA220015210620FFF753F9464A89
:104B9000D0E73E4B19780129D0D0012415202100FF
:104BA0001C70FFF7C6F8031E03D02B493F4AFFF7DE
:104BB00045FA220015210620FFF73CF93C4AB9E7E7
:104BC00000231E211A0037E6002320211A000920A5
:104BD000FFF7B6FA002201212120FFF7AAF8031EF1
:104BE00003D01D49334AFFF729FA01222121EEE7BC
:104BF000264B1A78012A16D00125002229001520FB
:104C00001D70FFF796F8031E03D013492A4AFFF7D9
:104C100015FA2A0015210620FFF70CF90220274A71
:104C2000124901F0B3F9002322211A00CFE7002234
:104C300001212420FFF77DF80122031E51D00649EF
:104C40001F4AFFF7FBF9C0461027000008030020A9
:104C500060EA000080EE3600F56E010825050000D0
:104C600089080000A70700000574010863B901085E
:104C7000AF080000CE050000E8020020E9050000B2
:104C8000920800004C740108F0010020F20100209D
:104C9000BB740108A5080000017501084F750108E3
:104CA0009D750108AB070000E1750108B20700001F
:104CB00024760108CC070000DA07000067760108B7
:104CC000E90700000122202145480CF05DFE01208B
:104CD0000BF00EFF0022202141480CF055FE00236E
:104CE0001A0024210A20FFF72BFA14AD280002F045
:104CF000CBFD022802D1280002F0F0FD149A2B7996
:104D0000120A1B0613434922013302A95218190A39
:104D100013705170190C1B0E9170D370280002F0A3
:104D2000DDFD280002F006FE0AA801F0A7FE022819
:104D300002D10AA801F0D2FE0AA801F009FF002260
:104D400001212620FEF7F5FF031E03D02549264A40
:104D5000FFF774F9012226210B20FFF7F1F9234B0D
:104D60001A78012A16D001250022290015201D706D
:104D7000FEF7DFFF031E03D01A491D4AFFF75EF955
:104D80002A0015210620FFF755F80220194A1A4972
:104D900001F0FCF8002327211A00DDE7C2230322DB
:104DA0005B00FFF79BFBC22302225B00FFF796FB31
:104DB00001200C49114AFEF7C5FB0123FFF7BAF9A0
:104DC000012400220E4B21001C700E4B15201A707E
:104DD000FEF7AFFF002800D1BEE602490A4ACAE545
:104DE00000040050F56E010808080000F3010020DF
:104DF0001D080000A876010863B9010855060000E7
:104E0000F0010020F2010020B9080000F0B5B34C19
:104E10008FB02678012E08D00220B149B14AFEF7A2
:104E200091FB022528000FB0F0BDD6225200A358F6
:104E30000133A350D42300225B00E250FFF748F86F
:104E4000051E05D0A649A84A2800FEF77BFBE9E726
:104E500008AF3900300002F061FE051E51D1BB7869
:104E60001D1C282B00D92825BB68EDB2002B1DD0B6
:104E7000681F20281AD8FBF763F91212193E193C53
:104E80003C3C193A3A3A193838193636361934341E
:104E9000191111111919191942424000082601234C
:104EA0007601A61933720BF01DFEF061C3235B007F
:104EB000E5548823FA78FF33E2547A681133E250DC
:104EC000BA680833E250C822F96852000433E1504E
:104ED000A3580133A350043AA3580133A350280028
:104EE000D2E00726DBE70626D9E70526D7E7042622
:104EF000D5E70326D3E70226D1E70B26CFE70A261C
:104F0000CDE71C2802D07649784A9DE7FEF7A6FC3B
:104F10000500022808D000282ED07149744A2800C4
:104F2000FEF710FB1C2D65D10027724BDD5D0B2DAC
:104F300000D948E16E01A6193369002B00D142E186
:104F40000BF0D0FDB369002B04D0C01A336998422E
:104F500000D238E1681E28250A2800D99FE0FBF717
:104F600003F99700B500DF00E800F100FA00030143
:104F70000C0115011F01270106AE3000FCF7B6FB3E
:104F8000051E02D056495C4AC9E732885B4BB178AE
:104F9000534364224A435A4F9B18F2787D689B180A
:104FA0009D42C1D8B8680DD17279564BB17953433F
:104FB000FA2292004A4331799B18534A4A439B187C
:104FC0009842B1D8FA234F499B005D43FBF7D6F8CE
:104FD0002B180593059AFB689A42A5D03000B97842
:104FE000FA60FEF7E7FB051E07D001203C49474A5F
:104FF000FEF7A8FA3A49464A26E723000122683319
:105000001A700BF06FFDBE68E0673E493000FBF799
:105010003BF90800FA218900FBF7B0F83A49039000
:105020003000FBF731F908003649FBF7A7F836499D
:1050300002903000FBF7A2F80190364E7B683100F9
:10504000354A00930220059B00F0A0FF0A20FEF7DE
:10505000E5FE31000300314A022000F097FFC32330
:105060000A265B00E6520BF03DFDCC2301225B00DB
:10507000E050290030000833E2508C320433FF3214
:10508000E550A3580133A350FEF734FF0500C9E6ED
:10509000E31DDD7F042D02D0062D00D00525C3239E
:1050A0005B00E55488230026FF33E6540BF01AFD1D
:1050B000CC23C6225B00E0500833E6505200043394
:1050C000E650A35831000133A35008E723004633CC
:1050D0001D78072DE3D00825E1E7C046180300201E
:1050E000F56E0108C7080000CD080000E8080000C0
:1050F000CA040000F5CB0108CD0400001027000011
:105100000803002060EA000080EE3600EB04000097
:10511000F608000063B90108E8760108377701084E
:10512000230066331D782B00093B032BB7D90A25D2
:10513000B5E7230086331D782B000D3B022BAED93B
:105140001025ACE72300A6331D78112DA7D0132D11
:10515000A5D01225A3E72300C6331D782B00143BEE
:10516000032B9CD915259AE72300E6331D78182DCB
:1051700095D01A2D93D0192591E72300FF33DD79BF
:105180002B001B3B022B8AD91E2588E793235B004B
:10519000E55C2B001F3B032B00D880E720257EE732
:1051A000A3235B00E55C232D00D178E7242576E777
:1051B000B3235B00E55C252D00D170E7262D00D1DF
:1051C0006DE727256BE70137032F00D0ADE62200FE
:1051D0000C23117A002918D1013B2032002BF8D181
:1051E00086230225FF33E5540BF07CFCCE23CA2234
:1051F0005B005200E050A35801200133A350C423A8
:105200005B00E054043BE55400E0002009F0EAF8BC
:105210003CE7C046862210B5024BFF32985CFEF791
:10522000FDFD10BD18030020C222054B52009B5CFF
:105230000448032B02D8044A9B0098587047C04684
:1052400018030020BB700108E0CB0108F0B5060090
:105250000C00150091B0002906D1C049C04A0120B8
:10526000FEF770F9012638E0002A02D1BB49BD4A99
:10527000F5E700230B70984200D1BB4E3378202B0A
:105280000ED0002B05D03000B849FAF73DFF0028BA
:1052900008D129002000B64A0FF05CF900261CE076
:1052A0000136EBE73000B349FAF72EFF021E17D1A3
:1052B00001210E20FEF73DFDAF4A0300061E00D17E
:1052C000AE4A290020000FF045F9002805DAA3496D
:1052D000AB4A1E20FEF736F91E26300011B0F0BD95
:1052E0003000A849FAF710FF021E12D101210F2049
:1052F000FEF71FFDA44A0300061E00D1A34A2900A1
:1053000020000FF027F90028E7DA9B2293491201C9
:10531000DFE730009E49FAF7F7FE9E4B1B780793B4
:1053200000283DD19C4B9D4E1B78DBB208939C4BD3
:105330001A78D3B2022A06D09A4EFF2B03D09A4E87
:10534000012B00D0994E9A4B964A1B790692042B5A
:1053500003D8984A9B009B5806939748914F03792E
:10536000062B02D8954A9B009F580AF0A5FB09908E
:105370008F480AF0B1F8099B05900493069B290019
:105380000293089B200000938D4A079B0397019688
:105390000FF0E0F8002800DB80E77049894A98E7C1
:1053A000079B012B06D029002000874A0FF0D2F876
:1053B000022692E785493000FAF7A6FE011E25D1A4
:1053C0000AAF072238000FF06BF93900784809F06E
:1053D00071FF061E07D00300290020007C4A0FF051
:1053E000B9F81F2679E7B9793B78059179792000DA
:1053F00004913979774A0391F9780291B97801914A
:105400007978009129000FF0A5F866E7724930001D
:10541000FAF77AFE011E28D10AAE142230000FF0EE
:105420003FF9634F310038000AF06CF83A795D4B70
:10543000042A02D85F4B9200D358B1682000039130
:105440007168664A02910A99002601917979009162
:1054500029000FF07FF8B04200DB3EE73F49604A89
:105460001E20FEF76FF81E3637E730005D49FAF769
:105470004BFE00282CD1182200210AA80FF010F9A9
:105480004D4E0AA930000AF09FFB3379454F062B99
:1054900002D84A4A9B009F5830000AF00DFB0D9934
:1054A0000B9B059103930C990A9B049102936C3614
:1054B00033782900019300903B0020004A4A0FF006
:1054C00049F80026B04200DB07E72449474AC7E70E
:1054D00030004749FAF718FE00281AD1454E0A2134
:1054E00037893800FAF7D0FE89B2049138000A21D2
:1054F000FAF744FE80B20390738929000293336A5D
:1055000020000193F3693C4A0093B3690FF022F83D
:10551000C4E63A493000FAF7F7FD011E74D10AAE2D
:10552000142230000FF0BCF83100354809F03CFB84
:105530000D9F64213800FAF7A7FE3800039164211B
:10554000FAF71CFE0C9B029001930B9B2900009321
:1055500020000A9B2B4A0EF0FDFF9FE6F56E010826
:105560008A0900008B0900009C9E0108BC600108AC
:10557000047801085ABD01086677010850770108D0
:10558000A409000046780108A17701088D77010879
:1055900071620108F4010020F5010020AF9A0108B2
:1055A0000C000020BB700108C6770108CD77010808
:1055B000C0020020CCCB010844020020B0CB01087F
:1055C0004F780108BF0900008E780108AC78010807
:1055D000B0780108CE780108F3780108FA7801085C
:1055E000EB0900002B79010830790108FE09000061
:1055F000747901081C02002078790108BE60010856
:10560000F8010020B379010830001049FAF77CFD59
:10561000002815D10E480AF065FA0E4A071E00D17F
:105620000D4A3B00290020000EF094FF002802DA0A
:105630000A490B4A4DE61F26002F00D04DE62DE605
:1056400029002000074A0EF085FF0BE6337A010897
:1056500044020020E8770108D4770108F56E0108BC
:10566000290A0000E87901080121154B86B0DA6AA1
:105670000A43DA62DA6A0A400192019ADA6A491840
:105680000A43DA62DA6A0A400292029ADA6A02315C
:105690000A43DA62DA6A0A400392039ADA6A043148
:1056A0000A43DA62DA6A0A400492049ADA6A7831C2
:1056B0000A43DA62DB6A0B400593059B06B070472C
:1056C000001002407FB50C22002103A80EF0E8FF75
:1056D0001023A0200193842301A99B03C0050293FA
:1056E0000CF010F807B000BD30B587B004000D0015
:1056F0000C22002103A80EF0D3FF0323200001A9F0
:10570000019502930BF0FEFF07B030BDA02010B54D
:105710000A49C005FFF7E8FF09490A48FFF7E4FF17
:1057200009490A48FFF7E0FF09490A48FFF7DCFF8B
:1057300009490A48FFF7D8FF10BDC046619800002C
:105740001FF2000000040050F03D0000000800506F
:10575000FBFF0000000C0050FFFF0000001C005089
:1057600010B5084B1B7A012B0BD1C021A020C90119
:10577000C005FFF7B9FFC021A020C900C005FFF791
:10578000B3FF10BDC804002030B50D0087B089B24A
:1057900004000CF0F9F80C22002103A80EF080FFA1
:1057A0000123200001A9019502930BF0ABFF07B084
:1057B00030BD0000802110B500220B484900FFF7E2
:1057C000E3FF0A4B9C78012C0AD1220004210848EF
:1057D000FFF7DAFF220008210548FFF7D5FF10BDCB
:1057E00000220421F8E7C04600040050C80400204D
:1057F0000008005070B51B4CE378012B2CD01A4DDB
:105800001A4A2900022000F0C1FB04211848002296
:10581000FFF7BAFF042116480CF0B0F800281CD09E
:1058200029000420134A00F0B1FB08211048FFF7BB
:105830005BFF4022104BD9691142FCD004211A6849
:105840000B488A431A600139FFF74EFFFA208000A7
:105850000BF04EF90123E37070BD29000120074AC7
:10586000E1E7C046C8040020F37C0108137D01086D
:1058700000080050F87C0108004800400F7D010836
:10588000802370B52E4ADB02916B86B00B43936385
:10589000042101222B48FFF777FF042129480CF04F
:1058A0006DF8294D012847D029000420274A0824F3
:1058B00000F06CFB012208212248FFF765FF22005F
:1058C000002103A80EF0ECFE0323022601A9019398
:1058D0001C48DB18059302960BF014FF0A200BF00E
:1058E00007F92100002217480CF04EF80A200BF0AF
:1058F000FFF82100012213480CF046F80423144A53
:105900000A2011680B4313600BF0F2F80F22114BC1
:1059100005201B681A629A69144310229C611A625E
:105920000BF0E6F800220C4B2900DA7030000B4A2D
:1059300000F02CFB06B070BD2900094AB7E7C0464D
:105940000010024000080050F37C0108247D01088B
:1059500000480040380C0020C80400203E7D0108AB
:105960003A7D0108802330B50824154A9B02916BCB
:1059700087B00B4393630021220003A80EF090FE32
:105980000C23A020042501A90193C0050A3B029322
:1059900005950BF0B7FE0B4B0A201A6815431D60E6
:1059A0000BF0A6F80F22084B05201B681A629A69B3
:1059B000144310229C611A620BF09AF807B030BDB4
:1059C0000010024000440040280B002010B5041EC7
:1059D00005D0082200210EF063FE014B636010BD6C
:1059E000FF01000070B5041E06D1012009490A4AD2
:1059F000FDF7A8FD012070BD084D102200212800F0
:105A00000EF04EFE2B00083306CC06C30123002007
:105A10002B70F0E74E7D01083D020000C804002015
:105A200010B5114C2378012B06D002200F49104AE3
:105A3000FDF788FD022010BDFFF716FEFFF766FE9A
:105A4000FFF7B8FEFFF73EFEFFF78AFEA378002BB4
:105A500003D1FFF7CFFE0020EDE7E378002BFAD06B
:105A6000FFF70EFFF7E7C046C80400204E7D01088F
:105A70004A02000070B5124E05003478012C08D09F
:105A8000982202200F499200FDF75CFD02242000BD
:105A900070BD012805D920000A490B4AFDF752FDC7
:105AA000F5E7B070FFF7E0FD002D03D1FFF7A2FE90
:105AB0000024ECE7F378002BFAD0FFF7E1FEF7E7DC
:105AC000C80400204E7D01086102000010B5524C50
:105AD0002378012B06D002205049514AFDF732FDB0
